8=FIX.4.4|9=244|35=A|34=1|49=demo.ctrader.3873996|50=3873996cuQZKXAn2ybv0AEiTjsBxA|52=20240103-14:37:21.785|56=cServer|57=TRADE|49=demo.ctrader.3873996|50=3873996cuQZKXAn2ybv0AEiTjsBxA|52=20240103-14:37:21|56=cServer|98=0|108=30|141=Y|553=3873996|554=Gtlfx125|10=162|8=FIX.4.4|9=130|35=x|34=2|49=demo.ctrader.3873996|50=3873996cuQZKXAn2ybv0AEiTjsBxA|52=20240103-14:37:22.390|56=cServer|57=TRADE|320=symbols|559=0|10=075|8=FIX.4.4|9=127|35=AN|34=3|49=demo.ctrader.3873996|50=3873996cuQZKXAn2ybv0AEiTjsBxA|52=20240103-14:37:22.694|56=cServer|57=TRADE|710=Positions|10=033|8=FIX.4.4|9=130|35=AF|34=4|49=demo.ctrader.3873996|50=3873996cuQZKXAn2ybv0AEiTjsBxA|52=20240103-14:37:22.694|56=cServer|57=TRADE|584=Orders|585=7|10=219|8=FIX.4.4|9=112|35=0|34=5|49=demo.ctrader.3873996|50=3873996cuQZKXAn2ybv0AEiTjsBxA|52=20240103-14:37:52.961|56=cServer|57=TRADE|10=032|8=FIX.4.4|9=177|35=D|34=6|49=demo.ctrader.3873996|50=3873996cuQZKXAn2ybv0AEiTjsBxA|52=20240103-14:38:10.774|56=cServer|57=TRADE|11=68395560|38=1000|40=1|54=1|55=5|59=3|60=20240103-19:38:10.774|10=047|8=FIX.4.4|9=127|35=AN|34=7|49=demo.ctrader.3873996|50=3873996cuQZKXAn2ybv0AEiTjsBxA|52=20240103-14:38:11.294|56=cServer|57=TRADE|710=Positions|10=032|8=FIX.4.4|9=112|35=0|34=8|49=demo.ctrader.3873996|50=3873996cuQZKXAn2ybv0AEiTjsBxA|52=20240103-14:38:41.785|56=cServer|57=TRADE|10=038|8=FIX.4.4|9=112|35=0|34=9|49=demo.ctrader.3873996|50=3873996cuQZKXAn2ybv0AEiTjsBxA|52=20240103-14:39:11.962|56=cServer|57=TRADE|10=034|8=FIX.4.4|9=113|35=0|34=10|49=demo.ctrader.3873996|50=3873996cuQZKXAn2ybv0AEiTjsBxA|52=20240103-14:39:42.975|56=cServer|57=TRADE|10=083|