8=FIX.4.4|9=244|35=A|34=1|49=demo.ctrader.3873996|50=3873996hSpkW7jPsFrnH5cX32LJkg|52=20240104-09:48:30.026|56=cServer|57=TRADE|49=demo.ctrader.3873996|50=3873996hSpkW7jPsFrnH5cX32LJkg|52=20240104-09:48:30|56=cServer|98=0|108=30|141=Y|553=3873996|554=Gtlfx125|10=086|8=FIX.4.4|9=130|35=x|34=2|49=demo.ctrader.3873996|50=3873996hSpkW7jPsFrnH5cX32LJkg|52=20240104-09:48:30.646|56=cServer|57=TRADE|320=symbols|559=0|10=046|8=FIX.4.4|9=127|35=AN|34=3|49=demo.ctrader.3873996|50=3873996hSpkW7jPsFrnH5cX32LJkg|52=20240104-09:48:31.030|56=cServer|57=TRADE|710=Positions|10=241|8=FIX.4.4|9=130|35=AF|34=4|49=demo.ctrader.3873996|50=3873996hSpkW7jPsFrnH5cX32LJkg|52=20240104-09:48:31.030|56=cServer|57=TRADE|584=Orders|585=7|10=171|8=FIX.4.4|9=177|35=D|34=5|49=demo.ctrader.3873996|50=3873996hSpkW7jPsFrnH5cX32LJkg|52=20240104-09:48:42.655|56=cServer|57=TRADE|11=68421686|38=1000|40=1|54=1|55=2|59=3|60=20240104-14:48:42.655|10=012|8=FIX.4.4|9=127|35=AN|34=6|49=demo.ctrader.3873996|50=3873996hSpkW7jPsFrnH5cX32LJkg|52=20240104-09:48:43.421|56=cServer|57=TRADE|710=Positions|10=251|