8=FIX.4.4|9=244|35=A|34=1|49=demo.ctrader.3873996|50=3873996hArztv9e6FHzfIvzDT9NEA|52=20231212-13:34:14.703|56=cServer|57=TRADE|49=demo.ctrader.3873996|50=3873996hArztv9e6FHzfIvzDT9NEA|52=20231212-13:34:14|56=cServer|98=0|108=30|141=Y|553=3873996|554=Gtlfx125|10=142|8=FIX.4.4|9=130|35=x|34=2|49=demo.ctrader.3873996|50=3873996hArztv9e6FHzfIvzDT9NEA|52=20231212-13:34:15.181|56=cServer|57=TRADE|320=symbols|559=0|10=068|8=FIX.4.4|9=127|35=AN|34=3|49=demo.ctrader.3873996|50=3873996hArztv9e6FHzfIvzDT9NEA|52=20231212-13:34:15.473|56=cServer|57=TRADE|710=Positions|10=023|8=FIX.4.4|9=130|35=AF|34=4|49=demo.ctrader.3873996|50=3873996hArztv9e6FHzfIvzDT9NEA|52=20231212-13:34:15.474|56=cServer|57=TRADE|584=Orders|585=7|10=210|8=FIX.4.4|9=112|35=0|34=5|49=demo.ctrader.3873996|50=3873996hArztv9e6FHzfIvzDT9NEA|52=20231212-13:34:46.209|56=cServer|57=TRADE|10=023|8=FIX.4.4|9=112|35=0|34=6|49=demo.ctrader.3873996|50=3873996hArztv9e6FHzfIvzDT9NEA|52=20231212-13:35:16.210|56=cServer|57=TRADE|10=014|8=FIX.4.4|9=226|35=5|34=7|49=demo.ctrader.3873996|50=3873996hArztv9e6FHzfIvzDT9NEA|52=20231212-13:35:35.559|56=cServer|57=TRADE|49=demo.ctrader.3873996|50=3873996hArztv9e6FHzfIvzDT9NEA|52=20231212-13:35:35|56=cServer|553=3873996|554=Gtlfx125|10=083|8=FIX.4.4|9=226|35=5|34=8|49=demo.ctrader.3873996|50=3873996hArztv9e6FHzfIvzDT9NEA|52=20231212-13:35:36.681|56=cServer|57=TRADE|49=demo.ctrader.3873996|50=3873996hArztv9e6FHzfIvzDT9NEA|52=20231212-13:35:36|56=cServer|553=3873996|554=Gtlfx125|10=082|