8=FIX.4.4|9=244|35=A|34=1|49=demo.ctrader.3873996|50=3873996cuQZKXAn2ybv0AEiTjsBxA|52=20240103-14:37:21.796|56=cServer|57=QUOTE|49=demo.ctrader.3873996|50=3873996cuQZKXAn2ybv0AEiTjsBxA|52=20240103-14:37:21|56=cServer|98=0|108=30|141=Y|553=3873996|554=Gtlfx125|10=194|8=FIX.4.4|9=170|35=V|34=2|49=demo.ctrader.3873996|50=3873996cuQZKXAn2ybv0AEiTjsBxA|52=20240103-14:37:22.694|56=cServer|57=QUOTE|262=MARKETDATAID|263=1|264=1|267=2|269=0|269=1|146=1|55=1|10=206|8=FIX.4.4|9=170|35=V|34=3|49=demo.ctrader.3873996|50=3873996cuQZKXAn2ybv0AEiTjsBxA|52=20240103-14:37:22.695|56=cServer|57=QUOTE|262=MARKETDATAID|263=1|264=1|267=2|269=0|269=1|146=1|55=2|10=209|8=FIX.4.4|9=170|35=V|34=4|49=demo.ctrader.3873996|50=3873996cuQZKXAn2ybv0AEiTjsBxA|52=20240103-14:37:22.695|56=cServer|57=QUOTE|262=MARKETDATAID|263=1|264=1|267=2|269=0|269=1|146=1|55=3|10=211|8=FIX.4.4|9=170|35=V|34=5|49=demo.ctrader.3873996|50=3873996cuQZKXAn2ybv0AEiTjsBxA|52=20240103-14:37:22.695|56=cServer|57=QUOTE|262=MARKETDATAID|263=1|264=1|267=2|269=0|269=1|146=1|55=4|10=213|8=FIX.4.4|9=170|35=V|34=6|49=demo.ctrader.3873996|50=3873996cuQZKXAn2ybv0AEiTjsBxA|52=20240103-14:37:22.695|56=cServer|57=QUOTE|262=MARKETDATAID|263=1|264=1|267=2|269=0|269=1|146=1|55=5|10=215|8=FIX.4.4|9=170|35=V|34=7|49=demo.ctrader.3873996|50=3873996cuQZKXAn2ybv0AEiTjsBxA|52=20240103-14:37:22.695|56=cServer|57=QUOTE|262=MARKETDATAID|263=1|264=1|267=2|269=0|269=1|146=1|55=6|10=217|8=FIX.4.4|9=170|35=V|34=8|49=demo.ctrader.3873996|50=3873996cuQZKXAn2ybv0AEiTjsBxA|52=20240103-14:37:22.695|56=cServer|57=QUOTE|262=MARKETDATAID|263=1|264=1|267=2|269=0|269=1|146=1|55=7|10=219|8=FIX.4.4|9=170|35=V|34=9|49=demo.ctrader.3873996|50=3873996cuQZKXAn2ybv0AEiTjsBxA|52=20240103-14:37:22.695|56=cServer|57=QUOTE|262=MARKETDATAID|263=1|264=1|267=2|269=0|269=1|146=1|55=8|10=221|8=FIX.4.4|9=171|35=V|34=10|49=demo.ctrader.3873996|50=3873996cuQZKXAn2ybv0AEiTjsBxA|52=20240103-14:37:22.696|56=cServer|57=QUOTE|262=MARKETDATAID|263=1|264=1|267=2|269=0|269=1|146=1|55=9|10=008|8=FIX.4.4|9=172|35=V|34=11|49=demo.ctrader.3873996|50=3873996cuQZKXAn2ybv0AEiTjsBxA|52=20240103-14:37:22.696|56=cServer|57=QUOTE|262=MARKETDATAID|263=1|264=1|267=2|269=0|269=1|146=1|55=10|10=050|8=FIX.4.4|9=172|35=V|34=12|49=demo.ctrader.3873996|50=3873996cuQZKXAn2ybv0AEiTjsBxA|52=20240103-14:37:22.696|56=cServer|57=QUOTE|262=MARKETDATAID|263=1|264=1|267=2|269=0|269=1|146=1|55=11|10=052|8=FIX.4.4|9=172|35=V|34=13|49=demo.ctrader.3873996|50=3873996cuQZKXAn2ybv0AEiTjsBxA|52=20240103-14:37:22.696|56=cServer|57=QUOTE|262=MARKETDATAID|263=1|264=1|267=2|269=0|269=1|146=1|55=12|10=054|8=FIX.4.4|9=172|35=V|34=14|49=demo.ctrader.3873996|50=3873996cuQZKXAn2ybv0AEiTjsBxA|52=20240103-14:37:22.696|56=cServer|57=QUOTE|262=MARKETDATAID|263=1|264=1|267=2|269=0|269=1|146=1|55=13|10=056|8=FIX.4.4|9=172|35=V|34=15|49=demo.ctrader.3873996|50=3873996cuQZKXAn2ybv0AEiTjsBxA|52=20240103-14:37:22.696|56=cServer|57=QUOTE|262=MARKETDATAID|263=1|264=1|267=2|269=0|269=1|146=1|55=14|10=058|8=FIX.4.4|9=172|35=V|34=16|49=demo.ctrader.3873996|50=3873996cuQZKXAn2ybv0AEiTjsBxA|52=20240103-14:37:22.696|56=cServer|57=QUOTE|262=MARKETDATAID|263=1|264=1|267=2|269=0|269=1|146=1|55=15|10=060|8=FIX.4.4|9=172|35=V|34=17|49=demo.ctrader.3873996|50=3873996cuQZKXAn2ybv0AEiTjsBxA|52=20240103-14:37:22.696|56=cServer|57=QUOTE|262=MARKETDATAID|263=1|264=1|267=2|269=0|269=1|146=1|55=16|10=062|8=FIX.4.4|9=172|35=V|34=18|49=demo.ctrader.3873996|50=3873996cuQZKXAn2ybv0AEiTjsBxA|52=20240103-14:37:22.696|56=cServer|57=QUOTE|262=MARKETDATAID|263=1|264=1|267=2|269=0|269=1|146=1|55=17|10=064|8=FIX.4.4|9=172|35=V|34=19|49=demo.ctrader.3873996|50=3873996cuQZKXAn2ybv0AEiTjsBxA|52=20240103-14:37:22.696|56=cServer|57=QUOTE|262=MARKETDATAID|263=1|264=1|267=2|269=0|269=1|146=1|55=18|10=066|8=FIX.4.4|9=172|35=V|34=20|49=demo.ctrader.3873996|50=3873996cuQZKXAn2ybv0AEiTjsBxA|52=20240103-14:37:22.696|56=cServer|57=QUOTE|262=MARKETDATAID|263=1|264=1|267=2|269=0|269=1|146=1|55=19|10=059|8=FIX.4.4|9=172|35=V|34=21|49=demo.ctrader.3873996|50=3873996cuQZKXAn2ybv0AEiTjsBxA|52=20240103-14:37:22.696|56=cServer|57=QUOTE|262=MARKETDATAID|263=1|264=1|267=2|269=0|269=1|146=1|55=22|10=054|8=FIX.4.4|9=113|35=0|34=22|49=demo.ctrader.3873996|50=3873996cuQZKXAn2ybv0AEiTjsBxA|52=20240103-14:37:52.724|56=cServer|57=QUOTE|10=107|8=FIX.4.4|9=113|35=0|34=23|49=demo.ctrader.3873996|50=3873996cuQZKXAn2ybv0AEiTjsBxA|52=20240103-14:38:22.787|56=cServer|57=QUOTE|10=115|8=FIX.4.4|9=113|35=0|34=24|49=demo.ctrader.3873996|50=3873996cuQZKXAn2ybv0AEiTjsBxA|52=20240103-14:38:52.808|56=cServer|57=QUOTE|10=113|8=FIX.4.4|9=113|35=0|34=25|49=demo.ctrader.3873996|50=3873996cuQZKXAn2ybv0AEiTjsBxA|52=20240103-14:39:22.826|56=cServer|57=QUOTE|10=112|8=FIX.4.4|9=113|35=0|34=26|49=demo.ctrader.3873996|50=3873996cuQZKXAn2ybv0AEiTjsBxA|52=20240103-14:39:52.853|56=cServer|57=QUOTE|10=116|