8=FIX.4.4|9=244|35=A|34=1|49=demo.ctrader.3873996|50=3873996GoTaA_ccCHju1X4FYp9hRw|52=20231227-10:40:31.488|56=cServer|57=TRADE|49=demo.ctrader.3873996|50=3873996GoTaA_ccCHju1X4FYp9hRw|52=20231227-10:40:31|56=cServer|98=0|108=30|141=Y|553=3873996|554=Gtlfx125|10=058|8=FIX.4.4|9=112|35=0|34=2|49=demo.ctrader.3873996|50=3873996GoTaA_ccCHju1X4FYp9hRw|52=20231227-10:41:01.593|56=cServer|57=TRADE|10=228|8=FIX.4.4|9=112|35=0|34=3|49=demo.ctrader.3873996|50=3873996GoTaA_ccCHju1X4FYp9hRw|52=20231227-10:41:31.765|56=cServer|57=TRADE|10=233|8=FIX.4.4|9=112|35=0|34=4|49=demo.ctrader.3873996|50=3873996GoTaA_ccCHju1X4FYp9hRw|52=20231227-10:42:01.799|56=cServer|57=TRADE|10=239|8=FIX.4.4|9=112|35=0|34=5|49=demo.ctrader.3873996|50=3873996GoTaA_ccCHju1X4FYp9hRw|52=20231227-10:42:31.870|56=cServer|57=TRADE|10=233|8=FIX.4.4|9=112|35=0|34=6|49=demo.ctrader.3873996|50=3873996GoTaA_ccCHju1X4FYp9hRw|52=20231227-10:43:02.333|56=cServer|57=TRADE|10=227|8=FIX.4.4|9=112|35=0|34=7|49=demo.ctrader.3873996|50=3873996GoTaA_ccCHju1X4FYp9hRw|52=20231227-10:43:32.557|56=cServer|57=TRADE|10=239|8=FIX.4.4|9=112|35=0|34=8|49=demo.ctrader.3873996|50=3873996GoTaA_ccCHju1X4FYp9hRw|52=20231227-10:44:02.754|56=cServer|57=TRADE|10=237|8=FIX.4.4|9=112|35=0|34=9|49=demo.ctrader.3873996|50=3873996GoTaA_ccCHju1X4FYp9hRw|52=20231227-10:44:32.817|56=cServer|57=TRADE|10=241|8=FIX.4.4|9=113|35=0|34=10|49=demo.ctrader.3873996|50=3873996GoTaA_ccCHju1X4FYp9hRw|52=20231227-10:45:02.845|56=cServer|57=TRADE|10=025|8=FIX.4.4|9=113|35=0|34=11|49=demo.ctrader.3873996|50=3873996GoTaA_ccCHju1X4FYp9hRw|52=20231227-10:45:32.899|56=cServer|57=TRADE|10=038|8=FIX.4.4|9=113|35=0|34=12|49=demo.ctrader.3873996|50=3873996GoTaA_ccCHju1X4FYp9hRw|52=20231227-10:46:03.179|56=cServer|57=TRADE|10=029|8=FIX.4.4|9=113|35=0|34=13|49=demo.ctrader.3873996|50=3873996GoTaA_ccCHju1X4FYp9hRw|52=20231227-10:46:33.934|56=cServer|57=TRADE|10=032|