8=FIX.4.4|9=244|35=A|34=1|49=demo.ctrader.3873996|50=3873996uq8hKYvaw1cjZMGUu9A4cw|52=20231226-08:57:54.226|56=cServer|57=QUOTE|49=demo.ctrader.3873996|50=3873996uq8hKYvaw1cjZMGUu9A4cw|52=20231226-08:57:54|56=cServer|98=0|108=30|141=Y|553=3873996|554=Gtlfx125|10=254|8=FIX.4.4|9=170|35=V|34=2|49=demo.ctrader.3873996|50=3873996uq8hKYvaw1cjZMGUu9A4cw|52=20231226-08:58:00.903|56=cServer|57=QUOTE|262=MARKETDATAID|263=1|264=1|267=2|269=0|269=1|146=1|55=1|10=226|8=FIX.4.4|9=170|35=V|34=3|49=demo.ctrader.3873996|50=3873996uq8hKYvaw1cjZMGUu9A4cw|52=20231226-08:58:00.903|56=cServer|57=QUOTE|262=MARKETDATAID|263=1|264=1|267=2|269=0|269=1|146=1|55=2|10=228|8=FIX.4.4|9=170|35=V|34=4|49=demo.ctrader.3873996|50=3873996uq8hKYvaw1cjZMGUu9A4cw|52=20231226-08:58:00.904|56=cServer|57=QUOTE|262=MARKETDATAID|263=1|264=1|267=2|269=0|269=1|146=1|55=3|10=231|8=FIX.4.4|9=170|35=V|34=5|49=demo.ctrader.3873996|50=3873996uq8hKYvaw1cjZMGUu9A4cw|52=20231226-08:58:00.904|56=cServer|57=QUOTE|262=MARKETDATAID|263=1|264=1|267=2|269=0|269=1|146=1|55=4|10=233|8=FIX.4.4|9=170|35=V|34=6|49=demo.ctrader.3873996|50=3873996uq8hKYvaw1cjZMGUu9A4cw|52=20231226-08:58:00.904|56=cServer|57=QUOTE|262=MARKETDATAID|263=1|264=1|267=2|269=0|269=1|146=1|55=5|10=235|8=FIX.4.4|9=170|35=V|34=7|49=demo.ctrader.3873996|50=3873996uq8hKYvaw1cjZMGUu9A4cw|52=20231226-08:58:00.904|56=cServer|57=QUOTE|262=MARKETDATAID|263=1|264=1|267=2|269=0|269=1|146=1|55=6|10=237|8=FIX.4.4|9=170|35=V|34=8|49=demo.ctrader.3873996|50=3873996uq8hKYvaw1cjZMGUu9A4cw|52=20231226-08:58:00.905|56=cServer|57=QUOTE|262=MARKETDATAID|263=1|264=1|267=2|269=0|269=1|146=1|55=7|10=240|8=FIX.4.4|9=170|35=V|34=9|49=demo.ctrader.3873996|50=3873996uq8hKYvaw1cjZMGUu9A4cw|52=20231226-08:58:00.905|56=cServer|57=QUOTE|262=MARKETDATAID|263=1|264=1|267=2|269=0|269=1|146=1|55=8|10=242|8=FIX.4.4|9=171|35=V|34=10|49=demo.ctrader.3873996|50=3873996uq8hKYvaw1cjZMGUu9A4cw|52=20231226-08:58:00.905|56=cServer|57=QUOTE|262=MARKETDATAID|263=1|264=1|267=2|269=0|269=1|146=1|55=9|10=028|8=FIX.4.4|9=172|35=V|34=11|49=demo.ctrader.3873996|50=3873996uq8hKYvaw1cjZMGUu9A4cw|52=20231226-08:58:00.905|56=cServer|57=QUOTE|262=MARKETDATAID|263=1|264=1|267=2|269=0|269=1|146=1|55=10|10=070|8=FIX.4.4|9=172|35=V|34=12|49=demo.ctrader.3873996|50=3873996uq8hKYvaw1cjZMGUu9A4cw|52=20231226-08:58:00.905|56=cServer|57=QUOTE|262=MARKETDATAID|263=1|264=1|267=2|269=0|269=1|146=1|55=11|10=072|8=FIX.4.4|9=172|35=V|34=13|49=demo.ctrader.3873996|50=3873996uq8hKYvaw1cjZMGUu9A4cw|52=20231226-08:58:00.905|56=cServer|57=QUOTE|262=MARKETDATAID|263=1|264=1|267=2|269=0|269=1|146=1|55=12|10=074|8=FIX.4.4|9=172|35=V|34=14|49=demo.ctrader.3873996|50=3873996uq8hKYvaw1cjZMGUu9A4cw|52=20231226-08:58:00.905|56=cServer|57=QUOTE|262=MARKETDATAID|263=1|264=1|267=2|269=0|269=1|146=1|55=13|10=076|8=FIX.4.4|9=172|35=V|34=15|49=demo.ctrader.3873996|50=3873996uq8hKYvaw1cjZMGUu9A4cw|52=20231226-08:58:00.905|56=cServer|57=QUOTE|262=MARKETDATAID|263=1|264=1|267=2|269=0|269=1|146=1|55=14|10=078|8=FIX.4.4|9=172|35=V|34=16|49=demo.ctrader.3873996|50=3873996uq8hKYvaw1cjZMGUu9A4cw|52=20231226-08:58:00.906|56=cServer|57=QUOTE|262=MARKETDATAID|263=1|264=1|267=2|269=0|269=1|146=1|55=15|10=081|8=FIX.4.4|9=172|35=V|34=17|49=demo.ctrader.3873996|50=3873996uq8hKYvaw1cjZMGUu9A4cw|52=20231226-08:58:00.906|56=cServer|57=QUOTE|262=MARKETDATAID|263=1|264=1|267=2|269=0|269=1|146=1|55=16|10=083|8=FIX.4.4|9=172|35=V|34=18|49=demo.ctrader.3873996|50=3873996uq8hKYvaw1cjZMGUu9A4cw|52=20231226-08:58:00.906|56=cServer|57=QUOTE|262=MARKETDATAID|263=1|264=1|267=2|269=0|269=1|146=1|55=17|10=085|8=FIX.4.4|9=172|35=V|34=19|49=demo.ctrader.3873996|50=3873996uq8hKYvaw1cjZMGUu9A4cw|52=20231226-08:58:00.906|56=cServer|57=QUOTE|262=MARKETDATAID|263=1|264=1|267=2|269=0|269=1|146=1|55=18|10=087|8=FIX.4.4|9=172|35=V|34=20|49=demo.ctrader.3873996|50=3873996uq8hKYvaw1cjZMGUu9A4cw|52=20231226-08:58:00.906|56=cServer|57=QUOTE|262=MARKETDATAID|263=1|264=1|267=2|269=0|269=1|146=1|55=19|10=080|8=FIX.4.4|9=172|35=V|34=21|49=demo.ctrader.3873996|50=3873996uq8hKYvaw1cjZMGUu9A4cw|52=20231226-08:58:00.906|56=cServer|57=QUOTE|262=MARKETDATAID|263=1|264=1|267=2|269=0|269=1|146=1|55=22|10=075|8=FIX.4.4|9=113|35=0|34=22|49=demo.ctrader.3873996|50=3873996uq8hKYvaw1cjZMGUu9A4cw|52=20231226-08:58:31.032|56=cServer|57=QUOTE|10=127|8=FIX.4.4|9=113|35=0|34=23|49=demo.ctrader.3873996|50=3873996uq8hKYvaw1cjZMGUu9A4cw|52=20231226-08:59:01.037|56=cServer|57=QUOTE|10=131|8=FIX.4.4|9=113|35=0|34=24|49=demo.ctrader.3873996|50=3873996uq8hKYvaw1cjZMGUu9A4cw|52=20231226-08:59:31.038|56=cServer|57=QUOTE|10=136|8=FIX.4.4|9=113|35=0|34=25|49=demo.ctrader.3873996|50=3873996uq8hKYvaw1cjZMGUu9A4cw|52=20231226-09:00:01.071|56=cServer|57=QUOTE|10=118|8=FIX.4.4|9=113|35=0|34=26|49=demo.ctrader.3873996|50=3873996uq8hKYvaw1cjZMGUu9A4cw|52=20231226-09:00:31.350|56=cServer|57=QUOTE|10=122|8=FIX.4.4|9=113|35=0|34=27|49=demo.ctrader.3873996|50=3873996uq8hKYvaw1cjZMGUu9A4cw|52=20231226-09:01:01.759|56=cServer|57=QUOTE|10=134|8=FIX.4.4|9=113|35=0|34=28|49=demo.ctrader.3873996|50=3873996uq8hKYvaw1cjZMGUu9A4cw|52=20231226-09:01:32.064|56=cServer|57=QUOTE|10=128|8=FIX.4.4|9=113|35=0|34=29|49=demo.ctrader.3873996|50=3873996uq8hKYvaw1cjZMGUu9A4cw|52=20231226-09:02:02.158|56=cServer|57=QUOTE|10=131|8=FIX.4.4|9=113|35=0|34=30|49=demo.ctrader.3873996|50=3873996uq8hKYvaw1cjZMGUu9A4cw|52=20231226-09:02:32.179|56=cServer|57=QUOTE|10=129|8=FIX.4.4|9=113|35=0|34=31|49=demo.ctrader.3873996|50=3873996uq8hKYvaw1cjZMGUu9A4cw|52=20231226-09:03:02.207|56=cServer|57=QUOTE|10=120|8=FIX.4.4|9=113|35=0|34=32|49=demo.ctrader.3873996|50=3873996uq8hKYvaw1cjZMGUu9A4cw|52=20231226-09:03:32.244|56=cServer|57=QUOTE|10=125|8=FIX.4.4|9=113|35=0|34=33|49=demo.ctrader.3873996|50=3873996uq8hKYvaw1cjZMGUu9A4cw|52=20231226-09:04:02.373|56=cServer|57=QUOTE|10=127|8=FIX.4.4|9=113|35=0|34=34|49=demo.ctrader.3873996|50=3873996uq8hKYvaw1cjZMGUu9A4cw|52=20231226-09:04:32.489|56=cServer|57=QUOTE|10=139|8=FIX.4.4|9=113|35=0|34=35|49=demo.ctrader.3873996|50=3873996uq8hKYvaw1cjZMGUu9A4cw|52=20231226-09:05:02.730|56=cServer|57=QUOTE|10=127|8=FIX.4.4|9=113|35=0|34=36|49=demo.ctrader.3873996|50=3873996uq8hKYvaw1cjZMGUu9A4cw|52=20231226-09:05:32.732|56=cServer|57=QUOTE|10=133|8=FIX.4.4|9=113|35=0|34=37|49=demo.ctrader.3873996|50=3873996uq8hKYvaw1cjZMGUu9A4cw|52=20231226-09:06:02.739|56=cServer|57=QUOTE|10=139|8=FIX.4.4|9=113|35=0|34=38|49=demo.ctrader.3873996|50=3873996uq8hKYvaw1cjZMGUu9A4cw|52=20231226-09:06:32.771|56=cServer|57=QUOTE|10=139|8=FIX.4.4|9=113|35=0|34=39|49=demo.ctrader.3873996|50=3873996uq8hKYvaw1cjZMGUu9A4cw|52=20231226-09:07:03.234|56=cServer|57=QUOTE|10=133|8=FIX.4.4|9=113|35=0|34=40|49=demo.ctrader.3873996|50=3873996uq8hKYvaw1cjZMGUu9A4cw|52=20231226-09:07:33.236|56=cServer|57=QUOTE|10=130|8=FIX.4.4|9=113|35=0|34=41|49=demo.ctrader.3873996|50=3873996uq8hKYvaw1cjZMGUu9A4cw|52=20231226-09:08:03.491|56=cServer|57=QUOTE|10=132|8=FIX.4.4|9=113|35=0|34=42|49=demo.ctrader.3873996|50=3873996uq8hKYvaw1cjZMGUu9A4cw|52=20231226-09:08:33.515|56=cServer|57=QUOTE|10=133|8=FIX.4.4|9=113|35=0|34=43|49=demo.ctrader.3873996|50=3873996uq8hKYvaw1cjZMGUu9A4cw|52=20231226-09:09:04.130|56=cServer|57=QUOTE|10=126|8=FIX.4.4|9=113|35=0|34=44|49=demo.ctrader.3873996|50=3873996uq8hKYvaw1cjZMGUu9A4cw|52=20231226-09:09:34.189|56=cServer|57=QUOTE|10=144|8=FIX.4.4|9=113|35=0|34=45|49=demo.ctrader.3873996|50=3873996uq8hKYvaw1cjZMGUu9A4cw|52=20231226-09:10:04.240|56=cServer|57=QUOTE|10=122|8=FIX.4.4|9=113|35=0|34=46|49=demo.ctrader.3873996|50=3873996uq8hKYvaw1cjZMGUu9A4cw|52=20231226-09:10:34.248|56=cServer|57=QUOTE|10=134|8=FIX.4.4|9=113|35=0|34=47|49=demo.ctrader.3873996|50=3873996uq8hKYvaw1cjZMGUu9A4cw|52=20231226-09:11:04.313|56=cServer|57=QUOTE|10=126|8=FIX.4.4|9=113|35=0|34=48|49=demo.ctrader.3873996|50=3873996uq8hKYvaw1cjZMGUu9A4cw|52=20231226-09:11:34.490|56=cServer|57=QUOTE|10=136|8=FIX.4.4|9=113|35=0|34=49|49=demo.ctrader.3873996|50=3873996uq8hKYvaw1cjZMGUu9A4cw|52=20231226-09:12:04.542|56=cServer|57=QUOTE|10=133|8=FIX.4.4|9=113|35=0|34=50|49=demo.ctrader.3873996|50=3873996uq8hKYvaw1cjZMGUu9A4cw|52=20231226-09:12:34.658|56=cServer|57=QUOTE|10=136|8=FIX.4.4|9=113|35=0|34=51|49=demo.ctrader.3873996|50=3873996uq8hKYvaw1cjZMGUu9A4cw|52=20231226-09:13:04.729|56=cServer|57=QUOTE|10=134|8=FIX.4.4|9=113|35=0|34=52|49=demo.ctrader.3873996|50=3873996uq8hKYvaw1cjZMGUu9A4cw|52=20231226-09:13:34.729|56=cServer|57=QUOTE|10=138|8=FIX.4.4|9=113|35=0|34=53|49=demo.ctrader.3873996|50=3873996uq8hKYvaw1cjZMGUu9A4cw|52=20231226-09:14:05.100|56=cServer|57=QUOTE|10=121|8=FIX.4.4|9=113|35=0|34=54|49=demo.ctrader.3873996|50=3873996uq8hKYvaw1cjZMGUu9A4cw|52=20231226-09:14:35.130|56=cServer|57=QUOTE|10=128|8=FIX.4.4|9=113|35=0|34=55|49=demo.ctrader.3873996|50=3873996uq8hKYvaw1cjZMGUu9A4cw|52=20231226-09:15:05.165|56=cServer|57=QUOTE|10=135|8=FIX.4.4|9=113|35=0|34=56|49=demo.ctrader.3873996|50=3873996uq8hKYvaw1cjZMGUu9A4cw|52=20231226-09:15:35.169|56=cServer|57=QUOTE|10=143|8=FIX.4.4|9=113|35=0|34=57|49=demo.ctrader.3873996|50=3873996uq8hKYvaw1cjZMGUu9A4cw|52=20231226-09:16:05.185|56=cServer|57=QUOTE|10=140|8=FIX.4.4|9=113|35=0|34=58|49=demo.ctrader.3873996|50=3873996uq8hKYvaw1cjZMGUu9A4cw|52=20231226-09:16:35.202|56=cServer|57=QUOTE|10=134|8=FIX.4.4|9=113|35=0|34=59|49=demo.ctrader.3873996|50=3873996uq8hKYvaw1cjZMGUu9A4cw|52=20231226-09:17:05.389|56=cServer|57=QUOTE|10=149|8=FIX.4.4|9=113|35=0|34=60|49=demo.ctrader.3873996|50=3873996uq8hKYvaw1cjZMGUu9A4cw|52=20231226-09:17:35.481|56=cServer|57=QUOTE|10=137|8=FIX.4.4|9=113|35=0|34=61|49=demo.ctrader.3873996|50=3873996uq8hKYvaw1cjZMGUu9A4cw|52=20231226-09:18:05.569|56=cServer|57=QUOTE|10=143|8=FIX.4.4|9=113|35=0|34=62|49=demo.ctrader.3873996|50=3873996uq8hKYvaw1cjZMGUu9A4cw|52=20231226-09:18:35.603|56=cServer|57=QUOTE|10=136|8=FIX.4.4|9=113|35=0|34=63|49=demo.ctrader.3873996|50=3873996uq8hKYvaw1cjZMGUu9A4cw|52=20231226-09:19:05.731|56=cServer|57=QUOTE|10=137|8=FIX.4.4|9=113|35=0|34=64|49=demo.ctrader.3873996|50=3873996uq8hKYvaw1cjZMGUu9A4cw|52=20231226-09:19:35.767|56=cServer|57=QUOTE|10=150|8=FIX.4.4|9=113|35=0|34=65|49=demo.ctrader.3873996|50=3873996uq8hKYvaw1cjZMGUu9A4cw|52=20231226-09:20:05.843|56=cServer|57=QUOTE|10=135|8=FIX.4.4|9=113|35=0|34=66|49=demo.ctrader.3873996|50=3873996uq8hKYvaw1cjZMGUu9A4cw|52=20231226-09:20:35.959|56=cServer|57=QUOTE|10=147|8=FIX.4.4|9=113|35=0|34=67|49=demo.ctrader.3873996|50=3873996uq8hKYvaw1cjZMGUu9A4cw|52=20231226-09:21:06.012|56=cServer|57=QUOTE|10=127|8=FIX.4.4|9=113|35=0|34=68|49=demo.ctrader.3873996|50=3873996uq8hKYvaw1cjZMGUu9A4cw|52=20231226-09:21:36.061|56=cServer|57=QUOTE|10=135|8=FIX.4.4|9=113|35=0|34=69|49=demo.ctrader.3873996|50=3873996uq8hKYvaw1cjZMGUu9A4cw|52=20231226-09:22:06.069|56=cServer|57=QUOTE|10=142|8=FIX.4.4|9=113|35=0|34=70|49=demo.ctrader.3873996|50=3873996uq8hKYvaw1cjZMGUu9A4cw|52=20231226-09:22:36.070|56=cServer|57=QUOTE|10=129|8=FIX.4.4|9=113|35=0|34=71|49=demo.ctrader.3873996|50=3873996uq8hKYvaw1cjZMGUu9A4cw|52=20231226-09:23:06.484|56=cServer|57=QUOTE|10=137|8=FIX.4.4|9=113|35=0|34=72|49=demo.ctrader.3873996|50=3873996uq8hKYvaw1cjZMGUu9A4cw|52=20231226-09:23:36.641|56=cServer|57=QUOTE|10=136|8=FIX.4.4|9=113|35=0|34=73|49=demo.ctrader.3873996|50=3873996uq8hKYvaw1cjZMGUu9A4cw|52=20231226-09:24:07.177|56=cServer|57=QUOTE|10=140|8=FIX.4.4|9=113|35=0|34=74|49=demo.ctrader.3873996|50=3873996uq8hKYvaw1cjZMGUu9A4cw|52=20231226-09:24:37.559|56=cServer|57=QUOTE|10=148|8=FIX.4.4|9=113|35=0|34=75|49=demo.ctrader.3873996|50=3873996uq8hKYvaw1cjZMGUu9A4cw|52=20231226-09:25:07.587|56=cServer|57=QUOTE|10=148|8=FIX.4.4|9=113|35=0|34=76|49=demo.ctrader.3873996|50=3873996uq8hKYvaw1cjZMGUu9A4cw|52=20231226-09:25:37.619|56=cServer|57=QUOTE|10=148|8=FIX.4.4|9=113|35=0|34=77|49=demo.ctrader.3873996|50=3873996uq8hKYvaw1cjZMGUu9A4cw|52=20231226-09:26:07.729|56=cServer|57=QUOTE|10=149|8=FIX.4.4|9=113|35=0|34=78|49=demo.ctrader.3873996|50=3873996uq8hKYvaw1cjZMGUu9A4cw|52=20231226-09:26:37.732|56=cServer|57=QUOTE|10=147|8=FIX.4.4|9=113|35=0|34=79|49=demo.ctrader.3873996|50=3873996uq8hKYvaw1cjZMGUu9A4cw|52=20231226-09:27:08.432|56=cServer|57=QUOTE|10=144|8=FIX.4.4|9=113|35=0|34=80|49=demo.ctrader.3873996|50=3873996uq8hKYvaw1cjZMGUu9A4cw|52=20231226-09:27:38.459|56=cServer|57=QUOTE|10=148|8=FIX.4.4|9=113|35=0|34=81|49=demo.ctrader.3873996|50=3873996uq8hKYvaw1cjZMGUu9A4cw|52=20231226-09:28:09.261|56=cServer|57=QUOTE|10=139|8=FIX.4.4|9=113|35=0|34=82|49=demo.ctrader.3873996|50=3873996uq8hKYvaw1cjZMGUu9A4cw|52=20231226-09:28:39.367|56=cServer|57=QUOTE|10=150|8=FIX.4.4|9=113|35=0|34=83|49=demo.ctrader.3873996|50=3873996uq8hKYvaw1cjZMGUu9A4cw|52=20231226-09:29:09.401|56=cServer|57=QUOTE|10=138|8=FIX.4.4|9=113|35=0|34=84|49=demo.ctrader.3873996|50=3873996uq8hKYvaw1cjZMGUu9A4cw|52=20231226-09:29:39.561|56=cServer|57=QUOTE|10=149|8=FIX.4.4|9=113|35=0|34=85|49=demo.ctrader.3873996|50=3873996uq8hKYvaw1cjZMGUu9A4cw|52=20231226-09:30:09.622|56=cServer|57=QUOTE|10=137|8=FIX.4.4|9=113|35=0|34=86|49=demo.ctrader.3873996|50=3873996uq8hKYvaw1cjZMGUu9A4cw|52=20231226-09:30:39.748|56=cServer|57=QUOTE|10=150|8=FIX.4.4|9=113|35=0|34=87|49=demo.ctrader.3873996|50=3873996uq8hKYvaw1cjZMGUu9A4cw|52=20231226-09:31:09.785|56=cServer|57=QUOTE|10=150|8=FIX.4.4|9=113|35=0|34=88|49=demo.ctrader.3873996|50=3873996uq8hKYvaw1cjZMGUu9A4cw|52=20231226-09:31:39.874|56=cServer|57=QUOTE|10=153|8=FIX.4.4|9=113|35=0|34=89|49=demo.ctrader.3873996|50=3873996uq8hKYvaw1cjZMGUu9A4cw|52=20231226-09:32:09.880|56=cServer|57=QUOTE|10=149|8=FIX.4.4|9=113|35=0|34=90|49=demo.ctrader.3873996|50=3873996uq8hKYvaw1cjZMGUu9A4cw|52=20231226-09:32:40.388|56=cServer|57=QUOTE|10=139|8=FIX.4.4|9=113|35=0|34=91|49=demo.ctrader.3873996|50=3873996uq8hKYvaw1cjZMGUu9A4cw|52=20231226-09:33:11.307|56=cServer|57=QUOTE|10=130|8=FIX.4.4|9=113|35=0|34=92|49=demo.ctrader.3873996|50=3873996uq8hKYvaw1cjZMGUu9A4cw|52=20231226-09:33:41.409|56=cServer|57=QUOTE|10=137|8=FIX.4.4|9=113|35=0|34=93|49=demo.ctrader.3873996|50=3873996uq8hKYvaw1cjZMGUu9A4cw|52=20231226-09:34:11.448|56=cServer|57=QUOTE|10=139|8=FIX.4.4|9=113|35=0|34=94|49=demo.ctrader.3873996|50=3873996uq8hKYvaw1cjZMGUu9A4cw|52=20231226-09:34:41.600|56=cServer|57=QUOTE|10=133|8=FIX.4.4|9=113|35=0|34=95|49=demo.ctrader.3873996|50=3873996uq8hKYvaw1cjZMGUu9A4cw|52=20231226-09:35:11.626|56=cServer|57=QUOTE|10=140|8=FIX.4.4|9=113|35=0|34=96|49=demo.ctrader.3873996|50=3873996uq8hKYvaw1cjZMGUu9A4cw|52=20231226-09:35:41.692|56=cServer|57=QUOTE|10=147|8=FIX.4.4|9=113|35=0|34=97|49=demo.ctrader.3873996|50=3873996uq8hKYvaw1cjZMGUu9A4cw|52=20231226-09:36:11.944|56=cServer|57=QUOTE|10=146|8=FIX.4.4|9=113|35=0|34=98|49=demo.ctrader.3873996|50=3873996uq8hKYvaw1cjZMGUu9A4cw|52=20231226-09:36:42.458|56=cServer|57=QUOTE|10=151|8=FIX.4.4|9=113|35=0|34=99|49=demo.ctrader.3873996|50=3873996uq8hKYvaw1cjZMGUu9A4cw|52=20231226-09:37:12.468|56=cServer|57=QUOTE|10=151|8=FIX.4.4|9=114|35=0|34=100|49=demo.ctrader.3873996|50=3873996uq8hKYvaw1cjZMGUu9A4cw|52=20231226-09:37:42.468|56=cServer|57=QUOTE|10=186|8=FIX.4.4|9=114|35=0|34=101|49=demo.ctrader.3873996|50=3873996uq8hKYvaw1cjZMGUu9A4cw|52=20231226-09:38:12.609|56=cServer|57=QUOTE|10=182|8=FIX.4.4|9=114|35=0|34=102|49=demo.ctrader.3873996|50=3873996uq8hKYvaw1cjZMGUu9A4cw|52=20231226-09:38:42.654|56=cServer|57=QUOTE|10=186|8=FIX.4.4|9=114|35=0|34=103|49=demo.ctrader.3873996|50=3873996uq8hKYvaw1cjZMGUu9A4cw|52=20231226-09:39:12.661|56=cServer|57=QUOTE|10=183|8=FIX.4.4|9=114|35=0|34=104|49=demo.ctrader.3873996|50=3873996uq8hKYvaw1cjZMGUu9A4cw|52=20231226-09:39:42.829|56=cServer|57=QUOTE|10=193|8=FIX.4.4|9=114|35=0|34=105|49=demo.ctrader.3873996|50=3873996uq8hKYvaw1cjZMGUu9A4cw|52=20231226-09:40:12.885|56=cServer|57=QUOTE|10=185|8=FIX.4.4|9=114|35=0|34=106|49=demo.ctrader.3873996|50=3873996uq8hKYvaw1cjZMGUu9A4cw|52=20231226-09:40:43.088|56=cServer|57=QUOTE|10=185|8=FIX.4.4|9=114|35=0|34=107|49=demo.ctrader.3873996|50=3873996uq8hKYvaw1cjZMGUu9A4cw|52=20231226-09:41:13.109|56=cServer|57=QUOTE|10=178|8=FIX.4.4|9=114|35=0|34=108|49=demo.ctrader.3873996|50=3873996uq8hKYvaw1cjZMGUu9A4cw|52=20231226-09:41:43.455|56=cServer|57=QUOTE|10=186|8=FIX.4.4|9=114|35=0|34=109|49=demo.ctrader.3873996|50=3873996uq8hKYvaw1cjZMGUu9A4cw|52=20231226-09:42:13.571|56=cServer|57=QUOTE|10=184|8=FIX.4.4|9=114|35=0|34=110|49=demo.ctrader.3873996|50=3873996uq8hKYvaw1cjZMGUu9A4cw|52=20231226-09:42:43.686|56=cServer|57=QUOTE|10=186|8=FIX.4.4|9=114|35=0|34=111|49=demo.ctrader.3873996|50=3873996uq8hKYvaw1cjZMGUu9A4cw|52=20231226-09:43:13.751|56=cServer|57=QUOTE|10=178|8=FIX.4.4|9=114|35=0|34=112|49=demo.ctrader.3873996|50=3873996uq8hKYvaw1cjZMGUu9A4cw|52=20231226-09:43:44.146|56=cServer|57=QUOTE|10=181|8=FIX.4.4|9=114|35=0|34=113|49=demo.ctrader.3873996|50=3873996uq8hKYvaw1cjZMGUu9A4cw|52=20231226-09:44:14.157|56=cServer|57=QUOTE|10=182|8=FIX.4.4|9=114|35=0|34=114|49=demo.ctrader.3873996|50=3873996uq8hKYvaw1cjZMGUu9A4cw|52=20231226-09:44:44.246|56=cServer|57=QUOTE|10=185|8=FIX.4.4|9=114|35=0|34=115|49=demo.ctrader.3873996|50=3873996uq8hKYvaw1cjZMGUu9A4cw|52=20231226-09:45:14.289|56=cServer|57=QUOTE|10=191|8=FIX.4.4|9=114|35=0|34=116|49=demo.ctrader.3873996|50=3873996uq8hKYvaw1cjZMGUu9A4cw|52=20231226-09:45:44.315|56=cServer|57=QUOTE|10=185|8=FIX.4.4|9=114|35=0|34=117|49=demo.ctrader.3873996|50=3873996uq8hKYvaw1cjZMGUu9A4cw|52=20231226-09:46:14.502|56=cServer|57=QUOTE|10=182|8=FIX.4.4|9=114|35=0|34=118|49=demo.ctrader.3873996|50=3873996uq8hKYvaw1cjZMGUu9A4cw|52=20231226-09:46:44.859|56=cServer|57=QUOTE|10=201|8=FIX.4.4|9=114|35=0|34=119|49=demo.ctrader.3873996|50=3873996uq8hKYvaw1cjZMGUu9A4cw|52=20231226-09:47:14.957|56=cServer|57=QUOTE|10=199|8=FIX.4.4|9=114|35=0|34=120|49=demo.ctrader.3873996|50=3873996uq8hKYvaw1cjZMGUu9A4cw|52=20231226-09:47:45.411|56=cServer|57=QUOTE|10=180|8=FIX.4.4|9=114|35=0|34=121|49=demo.ctrader.3873996|50=3873996uq8hKYvaw1cjZMGUu9A4cw|52=20231226-09:48:15.599|56=cServer|57=QUOTE|10=196|8=FIX.4.4|9=114|35=0|34=122|49=demo.ctrader.3873996|50=3873996uq8hKYvaw1cjZMGUu9A4cw|52=20231226-09:48:45.726|56=cServer|57=QUOTE|10=192|8=FIX.4.4|9=114|35=0|34=123|49=demo.ctrader.3873996|50=3873996uq8hKYvaw1cjZMGUu9A4cw|52=20231226-09:49:16.248|56=cServer|57=QUOTE|10=191|8=FIX.4.4|9=114|35=0|34=124|49=demo.ctrader.3873996|50=3873996uq8hKYvaw1cjZMGUu9A4cw|52=20231226-09:49:46.278|56=cServer|57=QUOTE|10=198|8=FIX.4.4|9=114|35=0|34=125|49=demo.ctrader.3873996|50=3873996uq8hKYvaw1cjZMGUu9A4cw|52=20231226-09:50:16.939|56=cServer|57=QUOTE|10=192|8=FIX.4.4|9=114|35=0|34=126|49=demo.ctrader.3873996|50=3873996uq8hKYvaw1cjZMGUu9A4cw|52=20231226-09:50:47.019|56=cServer|57=QUOTE|10=186|8=FIX.4.4|9=114|35=0|34=127|49=demo.ctrader.3873996|50=3873996uq8hKYvaw1cjZMGUu9A4cw|52=20231226-09:51:17.487|56=cServer|57=QUOTE|10=194|8=FIX.4.4|9=114|35=0|34=128|49=demo.ctrader.3873996|50=3873996uq8hKYvaw1cjZMGUu9A4cw|52=20231226-09:51:48.100|56=cServer|57=QUOTE|10=181|8=FIX.4.4|9=114|35=0|34=129|49=demo.ctrader.3873996|50=3873996uq8hKYvaw1cjZMGUu9A4cw|52=20231226-09:52:18.104|56=cServer|57=QUOTE|10=184|8=FIX.4.4|9=114|35=0|34=130|49=demo.ctrader.3873996|50=3873996uq8hKYvaw1cjZMGUu9A4cw|52=20231226-09:52:48.690|56=cServer|57=QUOTE|10=189|8=FIX.4.4|9=114|35=0|34=131|49=demo.ctrader.3873996|50=3873996uq8hKYvaw1cjZMGUu9A4cw|52=20231226-09:53:18.720|56=cServer|57=QUOTE|10=182|8=FIX.4.4|9=114|35=0|34=132|49=demo.ctrader.3873996|50=3873996uq8hKYvaw1cjZMGUu9A4cw|52=20231226-09:53:48.730|56=cServer|57=QUOTE|10=187|8=FIX.4.4|9=114|35=0|34=133|49=demo.ctrader.3873996|50=3873996uq8hKYvaw1cjZMGUu9A4cw|52=20231226-09:54:18.838|56=cServer|57=QUOTE|10=195|8=FIX.4.4|9=114|35=0|34=134|49=demo.ctrader.3873996|50=3873996uq8hKYvaw1cjZMGUu9A4cw|52=20231226-09:54:48.969|56=cServer|57=QUOTE|10=204|8=FIX.4.4|9=114|35=0|34=135|49=demo.ctrader.3873996|50=3873996uq8hKYvaw1cjZMGUu9A4cw|52=20231226-09:55:18.970|56=cServer|57=QUOTE|10=195|8=FIX.4.4|9=114|35=0|34=136|49=demo.ctrader.3873996|50=3873996uq8hKYvaw1cjZMGUu9A4cw|52=20231226-09:55:49.241|56=cServer|57=QUOTE|10=191|8=FIX.4.4|9=114|35=0|34=137|49=demo.ctrader.3873996|50=3873996uq8hKYvaw1cjZMGUu9A4cw|52=20231226-09:56:19.278|56=cServer|57=QUOTE|10=200|8=FIX.4.4|9=114|35=0|34=138|49=demo.ctrader.3873996|50=3873996uq8hKYvaw1cjZMGUu9A4cw|52=20231226-09:56:49.329|56=cServer|57=QUOTE|10=201|8=FIX.4.4|9=114|35=0|34=139|49=demo.ctrader.3873996|50=3873996uq8hKYvaw1cjZMGUu9A4cw|52=20231226-09:57:19.429|56=cServer|57=QUOTE|10=201|8=FIX.4.4|9=114|35=0|34=140|49=demo.ctrader.3873996|50=3873996uq8hKYvaw1cjZMGUu9A4cw|52=20231226-09:57:49.560|56=cServer|57=QUOTE|10=192|8=FIX.4.4|9=114|35=0|34=141|49=demo.ctrader.3873996|50=3873996uq8hKYvaw1cjZMGUu9A4cw|52=20231226-09:58:19.572|56=cServer|57=QUOTE|10=194|8=FIX.4.4|9=114|35=0|34=142|49=demo.ctrader.3873996|50=3873996uq8hKYvaw1cjZMGUu9A4cw|52=20231226-09:58:49.621|56=cServer|57=QUOTE|10=193|8=FIX.4.4|9=114|35=0|34=143|49=demo.ctrader.3873996|50=3873996uq8hKYvaw1cjZMGUu9A4cw|52=20231226-09:59:19.628|56=cServer|57=QUOTE|10=199|8=FIX.4.4|9=114|35=0|34=144|49=demo.ctrader.3873996|50=3873996uq8hKYvaw1cjZMGUu9A4cw|52=20231226-09:59:49.652|56=cServer|57=QUOTE|10=200|8=FIX.4.4|9=114|35=0|34=145|49=demo.ctrader.3873996|50=3873996uq8hKYvaw1cjZMGUu9A4cw|52=20231226-10:00:19.687|56=cServer|57=QUOTE|10=184|8=FIX.4.4|9=114|35=0|34=146|49=demo.ctrader.3873996|50=3873996uq8hKYvaw1cjZMGUu9A4cw|52=20231226-10:00:49.707|56=cServer|57=QUOTE|10=181|8=FIX.4.4|9=114|35=0|34=147|49=demo.ctrader.3873996|50=3873996uq8hKYvaw1cjZMGUu9A4cw|52=20231226-10:01:19.741|56=cServer|57=QUOTE|10=178|8=FIX.4.4|9=114|35=0|34=148|49=demo.ctrader.3873996|50=3873996uq8hKYvaw1cjZMGUu9A4cw|52=20231226-10:01:49.764|56=cServer|57=QUOTE|10=187|8=FIX.4.4|9=114|35=0|34=149|49=demo.ctrader.3873996|50=3873996uq8hKYvaw1cjZMGUu9A4cw|52=20231226-10:02:19.966|56=cServer|57=QUOTE|10=190|8=FIX.4.4|9=114|35=0|34=150|49=demo.ctrader.3873996|50=3873996uq8hKYvaw1cjZMGUu9A4cw|52=20231226-10:02:50.018|56=cServer|57=QUOTE|10=165|8=FIX.4.4|9=114|35=0|34=151|49=demo.ctrader.3873996|50=3873996uq8hKYvaw1cjZMGUu9A4cw|52=20231226-10:03:20.064|56=cServer|57=QUOTE|10=165|8=FIX.4.4|9=114|35=0|34=152|49=demo.ctrader.3873996|50=3873996uq8hKYvaw1cjZMGUu9A4cw|52=20231226-10:03:50.129|56=cServer|57=QUOTE|10=171|8=FIX.4.4|9=114|35=0|34=153|49=demo.ctrader.3873996|50=3873996uq8hKYvaw1cjZMGUu9A4cw|52=20231226-10:04:20.261|56=cServer|57=QUOTE|10=167|8=FIX.4.4|9=114|35=0|34=154|49=demo.ctrader.3873996|50=3873996uq8hKYvaw1cjZMGUu9A4cw|52=20231226-10:04:50.400|56=cServer|57=QUOTE|10=166|8=FIX.4.4|9=114|35=0|34=155|49=demo.ctrader.3873996|50=3873996uq8hKYvaw1cjZMGUu9A4cw|52=20231226-10:05:20.415|56=cServer|57=QUOTE|10=171|8=FIX.4.4|9=114|35=0|34=156|49=demo.ctrader.3873996|50=3873996uq8hKYvaw1cjZMGUu9A4cw|52=20231226-10:05:50.445|56=cServer|57=QUOTE|10=178|8=FIX.4.4|9=114|35=0|34=157|49=demo.ctrader.3873996|50=3873996uq8hKYvaw1cjZMGUu9A4cw|52=20231226-10:06:20.564|56=cServer|57=QUOTE|10=179|8=FIX.4.4|9=114|35=0|34=158|49=demo.ctrader.3873996|50=3873996uq8hKYvaw1cjZMGUu9A4cw|52=20231226-10:06:50.710|56=cServer|57=QUOTE|10=176|8=FIX.4.4|9=114|35=0|34=159|49=demo.ctrader.3873996|50=3873996uq8hKYvaw1cjZMGUu9A4cw|52=20231226-10:07:20.729|56=cServer|57=QUOTE|10=185|8=FIX.4.4|9=114|35=0|34=160|49=demo.ctrader.3873996|50=3873996uq8hKYvaw1cjZMGUu9A4cw|52=20231226-10:07:50.767|56=cServer|57=QUOTE|10=182|8=FIX.4.4|9=114|35=0|34=161|49=demo.ctrader.3873996|50=3873996uq8hKYvaw1cjZMGUu9A4cw|52=20231226-10:08:20.804|56=cServer|57=QUOTE|10=173|8=FIX.4.4|9=114|35=0|34=162|49=demo.ctrader.3873996|50=3873996uq8hKYvaw1cjZMGUu9A4cw|52=20231226-10:08:50.941|56=cServer|57=QUOTE|10=179|8=FIX.4.4|9=114|35=0|34=163|49=demo.ctrader.3873996|50=3873996uq8hKYvaw1cjZMGUu9A4cw|52=20231226-10:09:21.093|56=cServer|57=QUOTE|10=177|8=FIX.4.4|9=114|35=0|34=164|49=demo.ctrader.3873996|50=3873996uq8hKYvaw1cjZMGUu9A4cw|52=20231226-10:09:51.357|56=cServer|57=QUOTE|10=184|8=FIX.4.4|9=114|35=0|34=165|49=demo.ctrader.3873996|50=3873996uq8hKYvaw1cjZMGUu9A4cw|52=20231226-10:10:21.560|56=cServer|57=QUOTE|10=170|