8=FIX.4.4|9=244|35=A|34=1|49=demo.ctrader.3873996|50=3873996eJPxWZeSxkA5oz0fmQrNwQ|52=20231226-07:58:04.764|56=cServer|57=TRADE|49=demo.ctrader.3873996|50=3873996eJPxWZeSxkA5oz0fmQrNwQ|52=20231226-07:58:04|56=cServer|98=0|108=30|141=Y|553=3873996|554=Gtlfx125|10=109|8=FIX.4.4|9=130|35=x|34=2|49=demo.ctrader.3873996|50=3873996eJPxWZeSxkA5oz0fmQrNwQ|52=20231226-07:58:05.315|56=cServer|57=TRADE|320=symbols|559=0|10=175|8=FIX.4.4|9=127|35=AN|34=3|49=demo.ctrader.3873996|50=3873996eJPxWZeSxkA5oz0fmQrNwQ|52=20231226-07:58:05.599|56=cServer|57=TRADE|710=Positions|10=140|8=FIX.4.4|9=130|35=AF|34=4|49=demo.ctrader.3873996|50=3873996eJPxWZeSxkA5oz0fmQrNwQ|52=20231226-07:58:05.599|56=cServer|57=TRADE|584=Orders|585=7|10=070|8=FIX.4.4|9=112|35=0|34=5|49=demo.ctrader.3873996|50=3873996eJPxWZeSxkA5oz0fmQrNwQ|52=20231226-07:58:38.093|56=cServer|57=TRADE|10=134|