8=FIX.4.4|9=244|35=A|34=1|49=demo.ctrader.3873996|50=3873996tyvHnoqyyDZERikTbr3KDw|52=20240104-10:11:59.820|56=cServer|57=QUOTE|49=demo.ctrader.3873996|50=3873996tyvHnoqyyDZERikTbr3KDw|52=20240104-10:11:59|56=cServer|98=0|108=30|141=Y|553=3873996|554=Gtlfx125|10=026|8=FIX.4.4|9=170|35=V|34=2|49=demo.ctrader.3873996|50=3873996tyvHnoqyyDZERikTbr3KDw|52=20240104-10:12:00.961|56=cServer|57=QUOTE|262=MARKETDATAID|263=1|264=1|267=2|269=0|269=1|146=1|55=1|10=111|8=FIX.4.4|9=170|35=V|34=3|49=demo.ctrader.3873996|50=3873996tyvHnoqyyDZERikTbr3KDw|52=20240104-10:12:00.962|56=cServer|57=QUOTE|262=MARKETDATAID|263=1|264=1|267=2|269=0|269=1|146=1|55=2|10=114|8=FIX.4.4|9=170|35=V|34=4|49=demo.ctrader.3873996|50=3873996tyvHnoqyyDZERikTbr3KDw|52=20240104-10:12:00.962|56=cServer|57=QUOTE|262=MARKETDATAID|263=1|264=1|267=2|269=0|269=1|146=1|55=3|10=116|8=FIX.4.4|9=170|35=V|34=5|49=demo.ctrader.3873996|50=3873996tyvHnoqyyDZERikTbr3KDw|52=20240104-10:12:00.962|56=cServer|57=QUOTE|262=MARKETDATAID|263=1|264=1|267=2|269=0|269=1|146=1|55=4|10=118|8=FIX.4.4|9=170|35=V|34=6|49=demo.ctrader.3873996|50=3873996tyvHnoqyyDZERikTbr3KDw|52=20240104-10:12:00.963|56=cServer|57=QUOTE|262=MARKETDATAID|263=1|264=1|267=2|269=0|269=1|146=1|55=5|10=121|8=FIX.4.4|9=170|35=V|34=7|49=demo.ctrader.3873996|50=3873996tyvHnoqyyDZERikTbr3KDw|52=20240104-10:12:00.963|56=cServer|57=QUOTE|262=MARKETDATAID|263=1|264=1|267=2|269=0|269=1|146=1|55=6|10=123|8=FIX.4.4|9=170|35=V|34=8|49=demo.ctrader.3873996|50=3873996tyvHnoqyyDZERikTbr3KDw|52=20240104-10:12:00.963|56=cServer|57=QUOTE|262=MARKETDATAID|263=1|264=1|267=2|269=0|269=1|146=1|55=7|10=125|8=FIX.4.4|9=170|35=V|34=9|49=demo.ctrader.3873996|50=3873996tyvHnoqyyDZERikTbr3KDw|52=20240104-10:12:00.963|56=cServer|57=QUOTE|262=MARKETDATAID|263=1|264=1|267=2|269=0|269=1|146=1|55=8|10=127|8=FIX.4.4|9=171|35=V|34=10|49=demo.ctrader.3873996|50=3873996tyvHnoqyyDZERikTbr3KDw|52=20240104-10:12:00.963|56=cServer|57=QUOTE|262=MARKETDATAID|263=1|264=1|267=2|269=0|269=1|146=1|55=9|10=169|8=FIX.4.4|9=172|35=V|34=11|49=demo.ctrader.3873996|50=3873996tyvHnoqyyDZERikTbr3KDw|52=20240104-10:12:00.963|56=cServer|57=QUOTE|262=MARKETDATAID|263=1|264=1|267=2|269=0|269=1|146=1|55=10|10=211|8=FIX.4.4|9=172|35=V|34=12|49=demo.ctrader.3873996|50=3873996tyvHnoqyyDZERikTbr3KDw|52=20240104-10:12:00.963|56=cServer|57=QUOTE|262=MARKETDATAID|263=1|264=1|267=2|269=0|269=1|146=1|55=11|10=213|8=FIX.4.4|9=172|35=V|34=13|49=demo.ctrader.3873996|50=3873996tyvHnoqyyDZERikTbr3KDw|52=20240104-10:12:00.963|56=cServer|57=QUOTE|262=MARKETDATAID|263=1|264=1|267=2|269=0|269=1|146=1|55=12|10=215|8=FIX.4.4|9=172|35=V|34=14|49=demo.ctrader.3873996|50=3873996tyvHnoqyyDZERikTbr3KDw|52=20240104-10:12:00.964|56=cServer|57=QUOTE|262=MARKETDATAID|263=1|264=1|267=2|269=0|269=1|146=1|55=13|10=218|8=FIX.4.4|9=172|35=V|34=15|49=demo.ctrader.3873996|50=3873996tyvHnoqyyDZERikTbr3KDw|52=20240104-10:12:00.964|56=cServer|57=QUOTE|262=MARKETDATAID|263=1|264=1|267=2|269=0|269=1|146=1|55=14|10=220|8=FIX.4.4|9=172|35=V|34=16|49=demo.ctrader.3873996|50=3873996tyvHnoqyyDZERikTbr3KDw|52=20240104-10:12:00.964|56=cServer|57=QUOTE|262=MARKETDATAID|263=1|264=1|267=2|269=0|269=1|146=1|55=15|10=222|8=FIX.4.4|9=172|35=V|34=17|49=demo.ctrader.3873996|50=3873996tyvHnoqyyDZERikTbr3KDw|52=20240104-10:12:00.964|56=cServer|57=QUOTE|262=MARKETDATAID|263=1|264=1|267=2|269=0|269=1|146=1|55=16|10=224|8=FIX.4.4|9=172|35=V|34=18|49=demo.ctrader.3873996|50=3873996tyvHnoqyyDZERikTbr3KDw|52=20240104-10:12:00.964|56=cServer|57=QUOTE|262=MARKETDATAID|263=1|264=1|267=2|269=0|269=1|146=1|55=17|10=226|8=FIX.4.4|9=172|35=V|34=19|49=demo.ctrader.3873996|50=3873996tyvHnoqyyDZERikTbr3KDw|52=20240104-10:12:00.964|56=cServer|57=QUOTE|262=MARKETDATAID|263=1|264=1|267=2|269=0|269=1|146=1|55=18|10=228|8=FIX.4.4|9=172|35=V|34=20|49=demo.ctrader.3873996|50=3873996tyvHnoqyyDZERikTbr3KDw|52=20240104-10:12:00.964|56=cServer|57=QUOTE|262=MARKETDATAID|263=1|264=1|267=2|269=0|269=1|146=1|55=19|10=221|8=FIX.4.4|9=172|35=V|34=21|49=demo.ctrader.3873996|50=3873996tyvHnoqyyDZERikTbr3KDw|52=20240104-10:12:00.964|56=cServer|57=QUOTE|262=MARKETDATAID|263=1|264=1|267=2|269=0|269=1|146=1|55=22|10=216|8=FIX.4.4|9=113|35=0|34=22|49=demo.ctrader.3873996|50=3873996tyvHnoqyyDZERikTbr3KDw|52=20240104-10:12:31.001|56=cServer|57=QUOTE|10=004|8=FIX.4.4|9=113|35=0|34=23|49=demo.ctrader.3873996|50=3873996tyvHnoqyyDZERikTbr3KDw|52=20240104-10:13:01.005|56=cServer|57=QUOTE|10=007|8=FIX.4.4|9=113|35=0|34=24|49=demo.ctrader.3873996|50=3873996tyvHnoqyyDZERikTbr3KDw|52=20240104-10:13:31.010|56=cServer|57=QUOTE|10=007|8=FIX.4.4|9=113|35=0|34=25|49=demo.ctrader.3873996|50=3873996tyvHnoqyyDZERikTbr3KDw|52=20240104-10:14:01.056|56=cServer|57=QUOTE|10=016|8=FIX.4.4|9=113|35=0|34=26|49=demo.ctrader.3873996|50=3873996tyvHnoqyyDZERikTbr3KDw|52=20240104-10:14:31.069|56=cServer|57=QUOTE|10=024|8=FIX.4.4|9=113|35=0|34=27|49=demo.ctrader.3873996|50=3873996tyvHnoqyyDZERikTbr3KDw|52=20240104-10:15:01.078|56=cServer|57=QUOTE|10=023|8=FIX.4.4|9=113|35=0|34=28|49=demo.ctrader.3873996|50=3873996tyvHnoqyyDZERikTbr3KDw|52=20240104-10:15:31.088|56=cServer|57=QUOTE|10=028|8=FIX.4.4|9=113|35=0|34=29|49=demo.ctrader.3873996|50=3873996tyvHnoqyyDZERikTbr3KDw|52=20240104-10:16:01.088|56=cServer|57=QUOTE|10=027|8=FIX.4.4|9=113|35=0|34=30|49=demo.ctrader.3873996|50=3873996tyvHnoqyyDZERikTbr3KDw|52=20240104-10:16:31.088|56=cServer|57=QUOTE|10=022|8=FIX.4.4|9=113|35=0|34=31|49=demo.ctrader.3873996|50=3873996tyvHnoqyyDZERikTbr3KDw|52=20240104-10:17:01.111|56=cServer|57=QUOTE|10=008|8=FIX.4.4|9=113|35=0|34=32|49=demo.ctrader.3873996|50=3873996tyvHnoqyyDZERikTbr3KDw|52=20240104-10:17:31.132|56=cServer|57=QUOTE|10=015|8=FIX.4.4|9=113|35=0|34=33|49=demo.ctrader.3873996|50=3873996tyvHnoqyyDZERikTbr3KDw|52=20240104-10:18:01.156|56=cServer|57=QUOTE|10=020|8=FIX.4.4|9=113|35=0|34=34|49=demo.ctrader.3873996|50=3873996tyvHnoqyyDZERikTbr3KDw|52=20240104-10:18:31.163|56=cServer|57=QUOTE|10=022|8=FIX.4.4|9=113|35=0|34=35|49=demo.ctrader.3873996|50=3873996tyvHnoqyyDZERikTbr3KDw|52=20240104-10:19:01.238|56=cServer|57=QUOTE|10=024|8=FIX.4.4|9=113|35=0|34=36|49=demo.ctrader.3873996|50=3873996tyvHnoqyyDZERikTbr3KDw|52=20240104-10:19:31.258|56=cServer|57=QUOTE|10=030|8=FIX.4.4|9=113|35=0|34=37|49=demo.ctrader.3873996|50=3873996tyvHnoqyyDZERikTbr3KDw|52=20240104-10:20:01.288|56=cServer|57=QUOTE|10=023|8=FIX.4.4|9=113|35=0|34=38|49=demo.ctrader.3873996|50=3873996tyvHnoqyyDZERikTbr3KDw|52=20240104-10:20:31.464|56=cServer|57=QUOTE|10=023|8=FIX.4.4|9=113|35=0|34=39|49=demo.ctrader.3873996|50=3873996tyvHnoqyyDZERikTbr3KDw|52=20240104-10:21:01.507|56=cServer|57=QUOTE|10=020|8=FIX.4.4|9=113|35=0|34=40|49=demo.ctrader.3873996|50=3873996tyvHnoqyyDZERikTbr3KDw|52=20240104-10:21:31.547|56=cServer|57=QUOTE|10=019|8=FIX.4.4|9=113|35=0|34=41|49=demo.ctrader.3873996|50=3873996tyvHnoqyyDZERikTbr3KDw|52=20240104-10:22:01.558|56=cServer|57=QUOTE|10=020|8=FIX.4.4|9=113|35=0|34=42|49=demo.ctrader.3873996|50=3873996tyvHnoqyyDZERikTbr3KDw|52=20240104-10:22:31.597|56=cServer|57=QUOTE|10=027|8=FIX.4.4|9=113|35=0|34=43|49=demo.ctrader.3873996|50=3873996tyvHnoqyyDZERikTbr3KDw|52=20240104-10:23:01.620|56=cServer|57=QUOTE|10=013|8=FIX.4.4|9=113|35=0|34=44|49=demo.ctrader.3873996|50=3873996tyvHnoqyyDZERikTbr3KDw|52=20240104-10:23:31.656|56=cServer|57=QUOTE|10=026|8=FIX.4.4|9=113|35=0|34=45|49=demo.ctrader.3873996|50=3873996tyvHnoqyyDZERikTbr3KDw|52=20240104-10:24:01.715|56=cServer|57=QUOTE|10=021|8=FIX.4.4|9=113|35=0|34=46|49=demo.ctrader.3873996|50=3873996tyvHnoqyyDZERikTbr3KDw|52=20240104-10:24:31.762|56=cServer|57=QUOTE|10=027|8=FIX.4.4|9=227|35=5|34=47|49=demo.ctrader.3873996|50=3873996tyvHnoqyyDZERikTbr3KDw|52=20240104-10:24:42.900|56=cServer|57=QUOTE|49=demo.ctrader.3873996|50=3873996tyvHnoqyyDZERikTbr3KDw|52=20240104-10:24:42|56=cServer|553=3873996|554=Gtlfx125|10=250|