8=FIX.4.4|9=244|35=A|34=1|49=demo.ctrader.3873996|50=3873996Beo6PsvnRtyumBg8pGuh_Q|52=20240104-12:21:54.412|56=cServer|57=QUOTE|49=demo.ctrader.3873996|50=3873996Beo6PsvnRtyumBg8pGuh_Q|52=20240104-12:21:54|56=cServer|98=0|108=30|141=Y|553=3873996|554=Gtlfx125|10=219|8=FIX.4.4|9=170|35=V|34=2|49=demo.ctrader.3873996|50=3873996Beo6PsvnRtyumBg8pGuh_Q|52=20240104-12:21:55.085|56=cServer|57=QUOTE|262=MARKETDATAID|263=1|264=1|267=2|269=0|269=1|146=1|55=1|10=092|8=FIX.4.4|9=170|35=V|34=3|49=demo.ctrader.3873996|50=3873996Beo6PsvnRtyumBg8pGuh_Q|52=20240104-12:21:55.085|56=cServer|57=QUOTE|262=MARKETDATAID|263=1|264=1|267=2|269=0|269=1|146=1|55=2|10=094|8=FIX.4.4|9=170|35=V|34=4|49=demo.ctrader.3873996|50=3873996Beo6PsvnRtyumBg8pGuh_Q|52=20240104-12:21:55.085|56=cServer|57=QUOTE|262=MARKETDATAID|263=1|264=1|267=2|269=0|269=1|146=1|55=3|10=096|8=FIX.4.4|9=170|35=V|34=5|49=demo.ctrader.3873996|50=3873996Beo6PsvnRtyumBg8pGuh_Q|52=20240104-12:21:55.086|56=cServer|57=QUOTE|262=MARKETDATAID|263=1|264=1|267=2|269=0|269=1|146=1|55=4|10=099|8=FIX.4.4|9=170|35=V|34=6|49=demo.ctrader.3873996|50=3873996Beo6PsvnRtyumBg8pGuh_Q|52=20240104-12:21:55.086|56=cServer|57=QUOTE|262=MARKETDATAID|263=1|264=1|267=2|269=0|269=1|146=1|55=5|10=101|8=FIX.4.4|9=170|35=V|34=7|49=demo.ctrader.3873996|50=3873996Beo6PsvnRtyumBg8pGuh_Q|52=20240104-12:21:55.086|56=cServer|57=QUOTE|262=MARKETDATAID|263=1|264=1|267=2|269=0|269=1|146=1|55=6|10=103|8=FIX.4.4|9=170|35=V|34=8|49=demo.ctrader.3873996|50=3873996Beo6PsvnRtyumBg8pGuh_Q|52=20240104-12:21:55.086|56=cServer|57=QUOTE|262=MARKETDATAID|263=1|264=1|267=2|269=0|269=1|146=1|55=7|10=105|8=FIX.4.4|9=170|35=V|34=9|49=demo.ctrader.3873996|50=3873996Beo6PsvnRtyumBg8pGuh_Q|52=20240104-12:21:55.086|56=cServer|57=QUOTE|262=MARKETDATAID|263=1|264=1|267=2|269=0|269=1|146=1|55=8|10=107|8=FIX.4.4|9=171|35=V|34=10|49=demo.ctrader.3873996|50=3873996Beo6PsvnRtyumBg8pGuh_Q|52=20240104-12:21:55.086|56=cServer|57=QUOTE|262=MARKETDATAID|263=1|264=1|267=2|269=0|269=1|146=1|55=9|10=149|8=FIX.4.4|9=172|35=V|34=11|49=demo.ctrader.3873996|50=3873996Beo6PsvnRtyumBg8pGuh_Q|52=20240104-12:21:55.086|56=cServer|57=QUOTE|262=MARKETDATAID|263=1|264=1|267=2|269=0|269=1|146=1|55=10|10=191|8=FIX.4.4|9=172|35=V|34=12|49=demo.ctrader.3873996|50=3873996Beo6PsvnRtyumBg8pGuh_Q|52=20240104-12:21:55.086|56=cServer|57=QUOTE|262=MARKETDATAID|263=1|264=1|267=2|269=0|269=1|146=1|55=11|10=193|8=FIX.4.4|9=172|35=V|34=13|49=demo.ctrader.3873996|50=3873996Beo6PsvnRtyumBg8pGuh_Q|52=20240104-12:21:55.086|56=cServer|57=QUOTE|262=MARKETDATAID|263=1|264=1|267=2|269=0|269=1|146=1|55=12|10=195|8=FIX.4.4|9=172|35=V|34=14|49=demo.ctrader.3873996|50=3873996Beo6PsvnRtyumBg8pGuh_Q|52=20240104-12:21:55.086|56=cServer|57=QUOTE|262=MARKETDATAID|263=1|264=1|267=2|269=0|269=1|146=1|55=13|10=197|8=FIX.4.4|9=172|35=V|34=15|49=demo.ctrader.3873996|50=3873996Beo6PsvnRtyumBg8pGuh_Q|52=20240104-12:21:55.086|56=cServer|57=QUOTE|262=MARKETDATAID|263=1|264=1|267=2|269=0|269=1|146=1|55=14|10=199|8=FIX.4.4|9=172|35=V|34=16|49=demo.ctrader.3873996|50=3873996Beo6PsvnRtyumBg8pGuh_Q|52=20240104-12:21:55.087|56=cServer|57=QUOTE|262=MARKETDATAID|263=1|264=1|267=2|269=0|269=1|146=1|55=15|10=202|8=FIX.4.4|9=172|35=V|34=17|49=demo.ctrader.3873996|50=3873996Beo6PsvnRtyumBg8pGuh_Q|52=20240104-12:21:55.087|56=cServer|57=QUOTE|262=MARKETDATAID|263=1|264=1|267=2|269=0|269=1|146=1|55=16|10=204|8=FIX.4.4|9=172|35=V|34=18|49=demo.ctrader.3873996|50=3873996Beo6PsvnRtyumBg8pGuh_Q|52=20240104-12:21:55.087|56=cServer|57=QUOTE|262=MARKETDATAID|263=1|264=1|267=2|269=0|269=1|146=1|55=17|10=206|8=FIX.4.4|9=172|35=V|34=19|49=demo.ctrader.3873996|50=3873996Beo6PsvnRtyumBg8pGuh_Q|52=20240104-12:21:55.087|56=cServer|57=QUOTE|262=MARKETDATAID|263=1|264=1|267=2|269=0|269=1|146=1|55=18|10=208|8=FIX.4.4|9=172|35=V|34=20|49=demo.ctrader.3873996|50=3873996Beo6PsvnRtyumBg8pGuh_Q|52=20240104-12:21:55.087|56=cServer|57=QUOTE|262=MARKETDATAID|263=1|264=1|267=2|269=0|269=1|146=1|55=19|10=201|8=FIX.4.4|9=172|35=V|34=21|49=demo.ctrader.3873996|50=3873996Beo6PsvnRtyumBg8pGuh_Q|52=20240104-12:21:55.087|56=cServer|57=QUOTE|262=MARKETDATAID|263=1|264=1|267=2|269=0|269=1|146=1|55=22|10=196|8=FIX.4.4|9=113|35=0|34=22|49=demo.ctrader.3873996|50=3873996Beo6PsvnRtyumBg8pGuh_Q|52=20240104-12:22:25.102|56=cServer|57=QUOTE|10=240|8=FIX.4.4|9=113|35=0|34=23|49=demo.ctrader.3873996|50=3873996Beo6PsvnRtyumBg8pGuh_Q|52=20240104-12:22:55.207|56=cServer|57=QUOTE|10=250|8=FIX.4.4|9=227|35=5|34=24|49=demo.ctrader.3873996|50=3873996Beo6PsvnRtyumBg8pGuh_Q|52=20240104-12:23:16.715|56=cServer|57=QUOTE|49=demo.ctrader.3873996|50=3873996Beo6PsvnRtyumBg8pGuh_Q|52=20240104-12:23:16|56=cServer|553=3873996|554=Gtlfx125|10=197|