8=FIX.4.4|9=244|35=A|34=1|49=demo.ctrader.3873996|50=3873996p4YWQbHMpmmDBx6zC7UE4w|52=20231226-08:02:37.011|56=cServer|57=QUOTE|49=demo.ctrader.3873996|50=3873996p4YWQbHMpmmDBx6zC7UE4w|52=20231226-08:02:37|56=cServer|98=0|108=30|141=Y|553=3873996|554=Gtlfx125|10=030|8=FIX.4.4|9=170|35=V|34=2|49=demo.ctrader.3873996|50=3873996p4YWQbHMpmmDBx6zC7UE4w|52=20231226-08:02:37.945|56=cServer|57=QUOTE|262=MARKETDATAID|263=1|264=1|267=2|269=0|269=1|146=1|55=1|10=132|8=FIX.4.4|9=170|35=V|34=3|49=demo.ctrader.3873996|50=3873996p4YWQbHMpmmDBx6zC7UE4w|52=20231226-08:02:37.946|56=cServer|57=QUOTE|262=MARKETDATAID|263=1|264=1|267=2|269=0|269=1|146=1|55=2|10=135|8=FIX.4.4|9=170|35=V|34=4|49=demo.ctrader.3873996|50=3873996p4YWQbHMpmmDBx6zC7UE4w|52=20231226-08:02:37.946|56=cServer|57=QUOTE|262=MARKETDATAID|263=1|264=1|267=2|269=0|269=1|146=1|55=3|10=137|8=FIX.4.4|9=170|35=V|34=5|49=demo.ctrader.3873996|50=3873996p4YWQbHMpmmDBx6zC7UE4w|52=20231226-08:02:37.946|56=cServer|57=QUOTE|262=MARKETDATAID|263=1|264=1|267=2|269=0|269=1|146=1|55=4|10=139|8=FIX.4.4|9=170|35=V|34=6|49=demo.ctrader.3873996|50=3873996p4YWQbHMpmmDBx6zC7UE4w|52=20231226-08:02:37.947|56=cServer|57=QUOTE|262=MARKETDATAID|263=1|264=1|267=2|269=0|269=1|146=1|55=5|10=142|8=FIX.4.4|9=170|35=V|34=7|49=demo.ctrader.3873996|50=3873996p4YWQbHMpmmDBx6zC7UE4w|52=20231226-08:02:37.947|56=cServer|57=QUOTE|262=MARKETDATAID|263=1|264=1|267=2|269=0|269=1|146=1|55=6|10=144|8=FIX.4.4|9=170|35=V|34=8|49=demo.ctrader.3873996|50=3873996p4YWQbHMpmmDBx6zC7UE4w|52=20231226-08:02:37.947|56=cServer|57=QUOTE|262=MARKETDATAID|263=1|264=1|267=2|269=0|269=1|146=1|55=7|10=146|8=FIX.4.4|9=170|35=V|34=9|49=demo.ctrader.3873996|50=3873996p4YWQbHMpmmDBx6zC7UE4w|52=20231226-08:02:37.947|56=cServer|57=QUOTE|262=MARKETDATAID|263=1|264=1|267=2|269=0|269=1|146=1|55=8|10=148|8=FIX.4.4|9=171|35=V|34=10|49=demo.ctrader.3873996|50=3873996p4YWQbHMpmmDBx6zC7UE4w|52=20231226-08:02:37.947|56=cServer|57=QUOTE|262=MARKETDATAID|263=1|264=1|267=2|269=0|269=1|146=1|55=9|10=190|8=FIX.4.4|9=172|35=V|34=11|49=demo.ctrader.3873996|50=3873996p4YWQbHMpmmDBx6zC7UE4w|52=20231226-08:02:37.947|56=cServer|57=QUOTE|262=MARKETDATAID|263=1|264=1|267=2|269=0|269=1|146=1|55=10|10=232|8=FIX.4.4|9=172|35=V|34=12|49=demo.ctrader.3873996|50=3873996p4YWQbHMpmmDBx6zC7UE4w|52=20231226-08:02:37.948|56=cServer|57=QUOTE|262=MARKETDATAID|263=1|264=1|267=2|269=0|269=1|146=1|55=11|10=235|8=FIX.4.4|9=172|35=V|34=13|49=demo.ctrader.3873996|50=3873996p4YWQbHMpmmDBx6zC7UE4w|52=20231226-08:02:37.948|56=cServer|57=QUOTE|262=MARKETDATAID|263=1|264=1|267=2|269=0|269=1|146=1|55=12|10=237|8=FIX.4.4|9=172|35=V|34=14|49=demo.ctrader.3873996|50=3873996p4YWQbHMpmmDBx6zC7UE4w|52=20231226-08:02:37.948|56=cServer|57=QUOTE|262=MARKETDATAID|263=1|264=1|267=2|269=0|269=1|146=1|55=13|10=239|8=FIX.4.4|9=172|35=V|34=15|49=demo.ctrader.3873996|50=3873996p4YWQbHMpmmDBx6zC7UE4w|52=20231226-08:02:37.948|56=cServer|57=QUOTE|262=MARKETDATAID|263=1|264=1|267=2|269=0|269=1|146=1|55=14|10=241|8=FIX.4.4|9=172|35=V|34=16|49=demo.ctrader.3873996|50=3873996p4YWQbHMpmmDBx6zC7UE4w|52=20231226-08:02:37.948|56=cServer|57=QUOTE|262=MARKETDATAID|263=1|264=1|267=2|269=0|269=1|146=1|55=15|10=243|8=FIX.4.4|9=172|35=V|34=17|49=demo.ctrader.3873996|50=3873996p4YWQbHMpmmDBx6zC7UE4w|52=20231226-08:02:37.948|56=cServer|57=QUOTE|262=MARKETDATAID|263=1|264=1|267=2|269=0|269=1|146=1|55=16|10=245|8=FIX.4.4|9=172|35=V|34=18|49=demo.ctrader.3873996|50=3873996p4YWQbHMpmmDBx6zC7UE4w|52=20231226-08:02:37.949|56=cServer|57=QUOTE|262=MARKETDATAID|263=1|264=1|267=2|269=0|269=1|146=1|55=17|10=248|8=FIX.4.4|9=172|35=V|34=19|49=demo.ctrader.3873996|50=3873996p4YWQbHMpmmDBx6zC7UE4w|52=20231226-08:02:37.949|56=cServer|57=QUOTE|262=MARKETDATAID|263=1|264=1|267=2|269=0|269=1|146=1|55=18|10=250|8=FIX.4.4|9=172|35=V|34=20|49=demo.ctrader.3873996|50=3873996p4YWQbHMpmmDBx6zC7UE4w|52=20231226-08:02:37.949|56=cServer|57=QUOTE|262=MARKETDATAID|263=1|264=1|267=2|269=0|269=1|146=1|55=19|10=243|8=FIX.4.4|9=172|35=V|34=21|49=demo.ctrader.3873996|50=3873996p4YWQbHMpmmDBx6zC7UE4w|52=20231226-08:02:37.949|56=cServer|57=QUOTE|262=MARKETDATAID|263=1|264=1|267=2|269=0|269=1|146=1|55=22|10=238|8=FIX.4.4|9=113|35=0|34=22|49=demo.ctrader.3873996|50=3873996p4YWQbHMpmmDBx6zC7UE4w|52=20231226-08:03:08.036|56=cServer|57=QUOTE|10=026|8=FIX.4.4|9=113|35=0|34=23|49=demo.ctrader.3873996|50=3873996p4YWQbHMpmmDBx6zC7UE4w|52=20231226-08:03:38.069|56=cServer|57=QUOTE|10=036|8=FIX.4.4|9=113|35=0|34=24|49=demo.ctrader.3873996|50=3873996p4YWQbHMpmmDBx6zC7UE4w|52=20231226-08:04:08.144|56=cServer|57=QUOTE|10=029|8=FIX.4.4|9=113|35=0|34=25|49=demo.ctrader.3873996|50=3873996p4YWQbHMpmmDBx6zC7UE4w|52=20231226-08:04:38.151|56=cServer|57=QUOTE|10=031|8=FIX.4.4|9=113|35=0|34=26|49=demo.ctrader.3873996|50=3873996p4YWQbHMpmmDBx6zC7UE4w|52=20231226-08:05:08.235|56=cServer|57=QUOTE|10=033|8=FIX.4.4|9=113|35=0|34=27|49=demo.ctrader.3873996|50=3873996p4YWQbHMpmmDBx6zC7UE4w|52=20231226-08:05:38.406|56=cServer|57=QUOTE|10=037|8=FIX.4.4|9=113|35=0|34=28|49=demo.ctrader.3873996|50=3873996p4YWQbHMpmmDBx6zC7UE4w|52=20231226-08:06:08.439|56=cServer|57=QUOTE|10=042|8=FIX.4.4|9=113|35=0|34=29|49=demo.ctrader.3873996|50=3873996p4YWQbHMpmmDBx6zC7UE4w|52=20231226-08:06:38.446|56=cServer|57=QUOTE|10=044|8=FIX.4.4|9=113|35=0|34=30|49=demo.ctrader.3873996|50=3873996p4YWQbHMpmmDBx6zC7UE4w|52=20231226-08:07:08.611|56=cServer|57=QUOTE|10=028|8=FIX.4.4|9=113|35=0|34=31|49=demo.ctrader.3873996|50=3873996p4YWQbHMpmmDBx6zC7UE4w|52=20231226-08:07:38.672|56=cServer|57=QUOTE|10=039|8=FIX.4.4|9=113|35=0|34=32|49=demo.ctrader.3873996|50=3873996p4YWQbHMpmmDBx6zC7UE4w|52=20231226-08:08:08.843|56=cServer|57=QUOTE|10=038|