8=FIX.4.4|9=244|35=A|34=1|49=demo.ctrader.3873996|50=387399613MeKzEtKHrsivtqA53UXg|52=20240104-09:46:27.966|56=cServer|57=TRADE|49=demo.ctrader.3873996|50=387399613MeKzEtKHrsivtqA53UXg|52=20240104-09:46:27|56=cServer|98=0|108=30|141=Y|553=3873996|554=Gtlfx125|10=141|8=FIX.4.4|9=130|35=x|34=2|49=demo.ctrader.3873996|50=387399613MeKzEtKHrsivtqA53UXg|52=20240104-09:46:28.620|56=cServer|57=TRADE|320=symbols|559=0|10=060|8=FIX.4.4|9=127|35=AN|34=3|49=demo.ctrader.3873996|50=387399613MeKzEtKHrsivtqA53UXg|52=20240104-09:46:28.871|56=cServer|57=TRADE|710=Positions|10=019|8=FIX.4.4|9=130|35=AF|34=4|49=demo.ctrader.3873996|50=387399613MeKzEtKHrsivtqA53UXg|52=20240104-09:46:28.872|56=cServer|57=TRADE|584=Orders|585=7|10=206|8=FIX.4.4|9=177|35=D|34=5|49=demo.ctrader.3873996|50=387399613MeKzEtKHrsivtqA53UXg|52=20240104-09:46:39.472|56=cServer|57=TRADE|11=68421685|38=1000|40=1|54=1|55=2|59=3|60=20240104-14:46:39.470|10=028|8=FIX.4.4|9=127|35=AN|34=6|49=demo.ctrader.3873996|50=387399613MeKzEtKHrsivtqA53UXg|52=20240104-09:46:39.965|56=cServer|57=TRADE|710=Positions|10=028|8=FIX.4.4|9=112|35=0|34=7|49=demo.ctrader.3873996|50=387399613MeKzEtKHrsivtqA53UXg|52=20240104-09:47:10.314|56=cServer|57=TRADE|10=004|8=FIX.4.4|9=112|35=0|34=8|49=demo.ctrader.3873996|50=387399613MeKzEtKHrsivtqA53UXg|52=20240104-09:47:40.613|56=cServer|57=TRADE|10=010|8=FIX.4.4|9=112|35=0|34=9|49=demo.ctrader.3873996|50=387399613MeKzEtKHrsivtqA53UXg|52=20240104-09:48:10.920|56=cServer|57=TRADE|10=010|8=FIX.4.4|9=227|35=5|34=10|49=demo.ctrader.3873996|50=387399613MeKzEtKHrsivtqA53UXg|52=20240104-09:48:28.168|56=cServer|57=TRADE|49=demo.ctrader.3873996|50=387399613MeKzEtKHrsivtqA53UXg|52=20240104-09:48:28|56=cServer|553=3873996|554=Gtlfx125|10=108|8=FIX.4.4|9=227|35=5|34=11|49=demo.ctrader.3873996|50=387399613MeKzEtKHrsivtqA53UXg|52=20240104-09:48:28.240|56=cServer|57=TRADE|49=demo.ctrader.3873996|50=387399613MeKzEtKHrsivtqA53UXg|52=20240104-09:48:28|56=cServer|553=3873996|554=Gtlfx125|10=100|