8=FIX.4.4|9=244|35=A|34=1|49=demo.ctrader.3873996|50=3873996tGOpab3LkEbU6dxTg7iHTw|52=20240104-08:56:39.596|56=cServer|57=TRADE|49=demo.ctrader.3873996|50=3873996tGOpab3LkEbU6dxTg7iHTw|52=20240104-08:56:39|56=cServer|98=0|108=30|141=Y|553=3873996|554=Gtlfx125|10=190|8=FIX.4.4|9=130|35=x|34=2|49=demo.ctrader.3873996|50=3873996tGOpab3LkEbU6dxTg7iHTw|52=20240104-08:56:40.244|56=cServer|57=TRADE|320=symbols|559=0|10=078|8=FIX.4.4|9=127|35=AN|34=3|49=demo.ctrader.3873996|50=3873996tGOpab3LkEbU6dxTg7iHTw|52=20240104-08:56:40.494|56=cServer|57=TRADE|710=Positions|10=036|8=FIX.4.4|9=130|35=AF|34=4|49=demo.ctrader.3873996|50=3873996tGOpab3LkEbU6dxTg7iHTw|52=20240104-08:56:40.495|56=cServer|57=TRADE|584=Orders|585=7|10=223|8=FIX.4.4|9=226|35=5|34=5|49=demo.ctrader.3873996|50=3873996tGOpab3LkEbU6dxTg7iHTw|52=20240104-08:57:06.330|56=cServer|57=TRADE|49=demo.ctrader.3873996|50=3873996tGOpab3LkEbU6dxTg7iHTw|52=20240104-08:57:06|56=cServer|553=3873996|554=Gtlfx125|10=088|8=FIX.4.4|9=226|35=5|34=6|49=demo.ctrader.3873996|50=3873996tGOpab3LkEbU6dxTg7iHTw|52=20240104-08:57:06.374|56=cServer|57=TRADE|49=demo.ctrader.3873996|50=3873996tGOpab3LkEbU6dxTg7iHTw|52=20240104-08:57:06|56=cServer|553=3873996|554=Gtlfx125|10=097|