8=FIX.4.4|9=244|35=A|34=1|49=demo.ctrader.3873996|50=3873996-Rc8sVvCqbeyj8HKkytYLQ|52=20240104-07:16:56.409|56=cServer|57=QUOTE|49=demo.ctrader.3873996|50=3873996-Rc8sVvCqbeyj8HKkytYLQ|52=20240104-07:16:56|56=cServer|98=0|108=30|141=Y|553=3873996|554=Gtlfx125|10=035|8=FIX.4.4|9=170|35=V|34=2|49=demo.ctrader.3873996|50=3873996-Rc8sVvCqbeyj8HKkytYLQ|52=20240104-07:16:57.327|56=cServer|57=QUOTE|262=MARKETDATAID|263=1|264=1|267=2|269=0|269=1|146=1|55=1|10=252|8=FIX.4.4|9=170|35=V|34=3|49=demo.ctrader.3873996|50=3873996-Rc8sVvCqbeyj8HKkytYLQ|52=20240104-07:16:57.328|56=cServer|57=QUOTE|262=MARKETDATAID|263=1|264=1|267=2|269=0|269=1|146=1|55=2|10=255|8=FIX.4.4|9=170|35=V|34=4|49=demo.ctrader.3873996|50=3873996-Rc8sVvCqbeyj8HKkytYLQ|52=20240104-07:16:57.328|56=cServer|57=QUOTE|262=MARKETDATAID|263=1|264=1|267=2|269=0|269=1|146=1|55=3|10=001|8=FIX.4.4|9=170|35=V|34=5|49=demo.ctrader.3873996|50=3873996-Rc8sVvCqbeyj8HKkytYLQ|52=20240104-07:16:57.328|56=cServer|57=QUOTE|262=MARKETDATAID|263=1|264=1|267=2|269=0|269=1|146=1|55=4|10=003|8=FIX.4.4|9=170|35=V|34=6|49=demo.ctrader.3873996|50=3873996-Rc8sVvCqbeyj8HKkytYLQ|52=20240104-07:16:57.329|56=cServer|57=QUOTE|262=MARKETDATAID|263=1|264=1|267=2|269=0|269=1|146=1|55=5|10=006|8=FIX.4.4|9=170|35=V|34=7|49=demo.ctrader.3873996|50=3873996-Rc8sVvCqbeyj8HKkytYLQ|52=20240104-07:16:57.329|56=cServer|57=QUOTE|262=MARKETDATAID|263=1|264=1|267=2|269=0|269=1|146=1|55=6|10=008|8=FIX.4.4|9=170|35=V|34=8|49=demo.ctrader.3873996|50=3873996-Rc8sVvCqbeyj8HKkytYLQ|52=20240104-07:16:57.329|56=cServer|57=QUOTE|262=MARKETDATAID|263=1|264=1|267=2|269=0|269=1|146=1|55=7|10=010|8=FIX.4.4|9=170|35=V|34=9|49=demo.ctrader.3873996|50=3873996-Rc8sVvCqbeyj8HKkytYLQ|52=20240104-07:16:57.329|56=cServer|57=QUOTE|262=MARKETDATAID|263=1|264=1|267=2|269=0|269=1|146=1|55=8|10=012|8=FIX.4.4|9=171|35=V|34=10|49=demo.ctrader.3873996|50=3873996-Rc8sVvCqbeyj8HKkytYLQ|52=20240104-07:16:57.329|56=cServer|57=QUOTE|262=MARKETDATAID|263=1|264=1|267=2|269=0|269=1|146=1|55=9|10=054|8=FIX.4.4|9=172|35=V|34=11|49=demo.ctrader.3873996|50=3873996-Rc8sVvCqbeyj8HKkytYLQ|52=20240104-07:16:57.329|56=cServer|57=QUOTE|262=MARKETDATAID|263=1|264=1|267=2|269=0|269=1|146=1|55=10|10=096|8=FIX.4.4|9=172|35=V|34=12|49=demo.ctrader.3873996|50=3873996-Rc8sVvCqbeyj8HKkytYLQ|52=20240104-07:16:57.330|56=cServer|57=QUOTE|262=MARKETDATAID|263=1|264=1|267=2|269=0|269=1|146=1|55=11|10=090|8=FIX.4.4|9=172|35=V|34=13|49=demo.ctrader.3873996|50=3873996-Rc8sVvCqbeyj8HKkytYLQ|52=20240104-07:16:57.330|56=cServer|57=QUOTE|262=MARKETDATAID|263=1|264=1|267=2|269=0|269=1|146=1|55=12|10=092|8=FIX.4.4|9=172|35=V|34=14|49=demo.ctrader.3873996|50=3873996-Rc8sVvCqbeyj8HKkytYLQ|52=20240104-07:16:57.330|56=cServer|57=QUOTE|262=MARKETDATAID|263=1|264=1|267=2|269=0|269=1|146=1|55=13|10=094|8=FIX.4.4|9=172|35=V|34=15|49=demo.ctrader.3873996|50=3873996-Rc8sVvCqbeyj8HKkytYLQ|52=20240104-07:16:57.330|56=cServer|57=QUOTE|262=MARKETDATAID|263=1|264=1|267=2|269=0|269=1|146=1|55=14|10=096|8=FIX.4.4|9=172|35=V|34=16|49=demo.ctrader.3873996|50=3873996-Rc8sVvCqbeyj8HKkytYLQ|52=20240104-07:16:57.330|56=cServer|57=QUOTE|262=MARKETDATAID|263=1|264=1|267=2|269=0|269=1|146=1|55=15|10=098|8=FIX.4.4|9=172|35=V|34=17|49=demo.ctrader.3873996|50=3873996-Rc8sVvCqbeyj8HKkytYLQ|52=20240104-07:16:57.331|56=cServer|57=QUOTE|262=MARKETDATAID|263=1|264=1|267=2|269=0|269=1|146=1|55=16|10=101|8=FIX.4.4|9=172|35=V|34=18|49=demo.ctrader.3873996|50=3873996-Rc8sVvCqbeyj8HKkytYLQ|52=20240104-07:16:57.331|56=cServer|57=QUOTE|262=MARKETDATAID|263=1|264=1|267=2|269=0|269=1|146=1|55=17|10=103|8=FIX.4.4|9=172|35=V|34=19|49=demo.ctrader.3873996|50=3873996-Rc8sVvCqbeyj8HKkytYLQ|52=20240104-07:16:57.331|56=cServer|57=QUOTE|262=MARKETDATAID|263=1|264=1|267=2|269=0|269=1|146=1|55=18|10=105|8=FIX.4.4|9=172|35=V|34=20|49=demo.ctrader.3873996|50=3873996-Rc8sVvCqbeyj8HKkytYLQ|52=20240104-07:16:57.331|56=cServer|57=QUOTE|262=MARKETDATAID|263=1|264=1|267=2|269=0|269=1|146=1|55=19|10=098|8=FIX.4.4|9=172|35=V|34=21|49=demo.ctrader.3873996|50=3873996-Rc8sVvCqbeyj8HKkytYLQ|52=20240104-07:16:57.331|56=cServer|57=QUOTE|262=MARKETDATAID|263=1|264=1|267=2|269=0|269=1|146=1|55=22|10=093|8=FIX.4.4|9=113|35=0|34=22|49=demo.ctrader.3873996|50=3873996-Rc8sVvCqbeyj8HKkytYLQ|52=20240104-07:17:27.334|56=cServer|57=QUOTE|10=152|8=FIX.4.4|9=113|35=0|34=23|49=demo.ctrader.3873996|50=3873996-Rc8sVvCqbeyj8HKkytYLQ|52=20240104-07:17:57.338|56=cServer|57=QUOTE|10=160|8=FIX.4.4|9=113|35=0|34=24|49=demo.ctrader.3873996|50=3873996-Rc8sVvCqbeyj8HKkytYLQ|52=20240104-07:18:27.349|56=cServer|57=QUOTE|10=161|8=FIX.4.4|9=113|35=0|34=25|49=demo.ctrader.3873996|50=3873996-Rc8sVvCqbeyj8HKkytYLQ|52=20240104-07:18:57.364|56=cServer|57=QUOTE|10=162|8=FIX.4.4|9=113|35=0|34=26|49=demo.ctrader.3873996|50=3873996-Rc8sVvCqbeyj8HKkytYLQ|52=20240104-07:19:27.533|56=cServer|57=QUOTE|10=159|8=FIX.4.4|9=113|35=0|34=27|49=demo.ctrader.3873996|50=3873996-Rc8sVvCqbeyj8HKkytYLQ|52=20240104-07:19:57.620|56=cServer|57=QUOTE|10=160|8=FIX.4.4|9=113|35=0|34=28|49=demo.ctrader.3873996|50=3873996-Rc8sVvCqbeyj8HKkytYLQ|52=20240104-07:20:27.697|56=cServer|57=QUOTE|10=164|8=FIX.4.4|9=113|35=0|34=29|49=demo.ctrader.3873996|50=3873996-Rc8sVvCqbeyj8HKkytYLQ|52=20240104-07:20:57.999|56=cServer|57=QUOTE|10=173|8=FIX.4.4|9=113|35=0|34=30|49=demo.ctrader.3873996|50=3873996-Rc8sVvCqbeyj8HKkytYLQ|52=20240104-07:21:28.106|56=cServer|57=QUOTE|10=144|8=FIX.4.4|9=113|35=0|34=31|49=demo.ctrader.3873996|50=3873996-Rc8sVvCqbeyj8HKkytYLQ|52=20240104-07:21:58.127|56=cServer|57=QUOTE|10=151|8=FIX.4.4|9=113|35=0|34=32|49=demo.ctrader.3873996|50=3873996-Rc8sVvCqbeyj8HKkytYLQ|52=20240104-07:22:28.143|56=cServer|57=QUOTE|10=148|8=FIX.4.4|9=113|35=0|34=33|49=demo.ctrader.3873996|50=3873996-Rc8sVvCqbeyj8HKkytYLQ|52=20240104-07:22:58.153|56=cServer|57=QUOTE|10=153|8=FIX.4.4|9=113|35=0|34=34|49=demo.ctrader.3873996|50=3873996-Rc8sVvCqbeyj8HKkytYLQ|52=20240104-07:23:28.200|56=cServer|57=QUOTE|10=145|8=FIX.4.4|9=113|35=0|34=35|49=demo.ctrader.3873996|50=3873996-Rc8sVvCqbeyj8HKkytYLQ|52=20240104-07:23:58.200|56=cServer|57=QUOTE|10=149|8=FIX.4.4|9=113|35=0|34=36|49=demo.ctrader.3873996|50=3873996-Rc8sVvCqbeyj8HKkytYLQ|52=20240104-07:24:28.357|56=cServer|57=QUOTE|10=161|8=FIX.4.4|9=113|35=0|34=37|49=demo.ctrader.3873996|50=3873996-Rc8sVvCqbeyj8HKkytYLQ|52=20240104-07:24:58.392|56=cServer|57=QUOTE|10=164|8=FIX.4.4|9=113|35=0|34=38|49=demo.ctrader.3873996|50=3873996-Rc8sVvCqbeyj8HKkytYLQ|52=20240104-07:25:28.396|56=cServer|57=QUOTE|10=167|8=FIX.4.4|9=113|35=0|34=39|49=demo.ctrader.3873996|50=3873996-Rc8sVvCqbeyj8HKkytYLQ|52=20240104-07:25:58.410|56=cServer|57=QUOTE|10=158|8=FIX.4.4|9=113|35=0|34=40|49=demo.ctrader.3873996|50=3873996-Rc8sVvCqbeyj8HKkytYLQ|52=20240104-07:26:28.441|56=cServer|57=QUOTE|10=152|8=FIX.4.4|9=113|35=0|34=41|49=demo.ctrader.3873996|50=3873996-Rc8sVvCqbeyj8HKkytYLQ|52=20240104-07:26:58.522|56=cServer|57=QUOTE|10=156|8=FIX.4.4|9=113|35=0|34=42|49=demo.ctrader.3873996|50=3873996-Rc8sVvCqbeyj8HKkytYLQ|52=20240104-07:27:28.523|56=cServer|57=QUOTE|10=156|8=FIX.4.4|9=113|35=0|34=43|49=demo.ctrader.3873996|50=3873996-Rc8sVvCqbeyj8HKkytYLQ|52=20240104-07:27:58.554|56=cServer|57=QUOTE|10=164|8=FIX.4.4|9=113|35=0|34=44|49=demo.ctrader.3873996|50=3873996-Rc8sVvCqbeyj8HKkytYLQ|52=20240104-07:28:28.565|56=cServer|57=QUOTE|10=165|8=FIX.4.4|9=113|35=0|34=45|49=demo.ctrader.3873996|50=3873996-Rc8sVvCqbeyj8HKkytYLQ|52=20240104-07:28:58.586|56=cServer|57=QUOTE|10=172|8=FIX.4.4|9=113|35=0|34=46|49=demo.ctrader.3873996|50=3873996-Rc8sVvCqbeyj8HKkytYLQ|52=20240104-07:29:28.627|56=cServer|57=QUOTE|10=167|8=FIX.4.4|9=113|35=0|34=47|49=demo.ctrader.3873996|50=3873996-Rc8sVvCqbeyj8HKkytYLQ|52=20240104-07:29:58.829|56=cServer|57=QUOTE|10=175|8=FIX.4.4|9=113|35=0|34=48|49=demo.ctrader.3873996|50=3873996-Rc8sVvCqbeyj8HKkytYLQ|52=20240104-07:30:28.895|56=cServer|57=QUOTE|10=168|8=FIX.4.4|9=113|35=0|34=49|49=demo.ctrader.3873996|50=3873996-Rc8sVvCqbeyj8HKkytYLQ|52=20240104-07:30:58.953|56=cServer|57=QUOTE|10=167|8=FIX.4.4|9=113|35=0|34=50|49=demo.ctrader.3873996|50=3873996-Rc8sVvCqbeyj8HKkytYLQ|52=20240104-07:31:28.959|56=cServer|57=QUOTE|10=163|8=FIX.4.4|9=113|35=0|34=51|49=demo.ctrader.3873996|50=3873996-Rc8sVvCqbeyj8HKkytYLQ|52=20240104-07:31:58.961|56=cServer|57=QUOTE|10=160|8=FIX.4.4|9=113|35=0|34=52|49=demo.ctrader.3873996|50=3873996-Rc8sVvCqbeyj8HKkytYLQ|52=20240104-07:32:28.985|56=cServer|57=QUOTE|10=165|8=FIX.4.4|9=113|35=0|34=53|49=demo.ctrader.3873996|50=3873996-Rc8sVvCqbeyj8HKkytYLQ|52=20240104-07:32:59.021|56=cServer|57=QUOTE|10=151|8=FIX.4.4|9=113|35=0|34=54|49=demo.ctrader.3873996|50=3873996-Rc8sVvCqbeyj8HKkytYLQ|52=20240104-07:33:29.050|56=cServer|57=QUOTE|10=152|8=FIX.4.4|9=113|35=0|34=55|49=demo.ctrader.3873996|50=3873996-Rc8sVvCqbeyj8HKkytYLQ|52=20240104-07:33:59.082|56=cServer|57=QUOTE|10=161|8=FIX.4.4|9=113|35=0|34=56|49=demo.ctrader.3873996|50=3873996-Rc8sVvCqbeyj8HKkytYLQ|52=20240104-07:34:29.085|56=cServer|57=QUOTE|10=163|8=FIX.4.4|9=113|35=0|34=57|49=demo.ctrader.3873996|50=3873996-Rc8sVvCqbeyj8HKkytYLQ|52=20240104-07:34:59.089|56=cServer|57=QUOTE|10=171|8=FIX.4.4|9=113|35=0|34=58|49=demo.ctrader.3873996|50=3873996-Rc8sVvCqbeyj8HKkytYLQ|52=20240104-07:35:29.189|56=cServer|57=QUOTE|10=171|8=FIX.4.4|9=113|35=0|34=59|49=demo.ctrader.3873996|50=3873996-Rc8sVvCqbeyj8HKkytYLQ|52=20240104-07:35:59.496|56=cServer|57=QUOTE|10=176|8=FIX.4.4|9=113|35=0|34=60|49=demo.ctrader.3873996|50=3873996-Rc8sVvCqbeyj8HKkytYLQ|52=20240104-07:36:29.522|56=cServer|57=QUOTE|10=156|8=FIX.4.4|9=113|35=0|34=61|49=demo.ctrader.3873996|50=3873996-Rc8sVvCqbeyj8HKkytYLQ|52=20240104-07:36:59.533|56=cServer|57=QUOTE|10=162|8=FIX.4.4|9=113|35=0|34=62|49=demo.ctrader.3873996|50=3873996-Rc8sVvCqbeyj8HKkytYLQ|52=20240104-07:37:29.583|56=cServer|57=QUOTE|10=166|8=FIX.4.4|9=113|35=0|34=63|49=demo.ctrader.3873996|50=3873996-Rc8sVvCqbeyj8HKkytYLQ|52=20240104-07:37:59.624|56=cServer|57=QUOTE|10=166|8=FIX.4.4|9=113|35=0|34=64|49=demo.ctrader.3873996|50=3873996-Rc8sVvCqbeyj8HKkytYLQ|52=20240104-07:38:29.693|56=cServer|57=QUOTE|10=171|8=FIX.4.4|9=113|35=0|34=65|49=demo.ctrader.3873996|50=3873996-Rc8sVvCqbeyj8HKkytYLQ|52=20240104-07:38:59.722|56=cServer|57=QUOTE|10=168|8=FIX.4.4|9=113|35=0|34=66|49=demo.ctrader.3873996|50=3873996-Rc8sVvCqbeyj8HKkytYLQ|52=20240104-07:39:29.804|56=cServer|57=QUOTE|10=168|8=FIX.4.4|9=113|35=0|34=67|49=demo.ctrader.3873996|50=3873996-Rc8sVvCqbeyj8HKkytYLQ|52=20240104-07:39:59.808|56=cServer|57=QUOTE|10=176|8=FIX.4.4|9=113|35=0|34=68|49=demo.ctrader.3873996|50=3873996-Rc8sVvCqbeyj8HKkytYLQ|52=20240104-07:40:29.825|56=cServer|57=QUOTE|10=165|8=FIX.4.4|9=113|35=0|34=69|49=demo.ctrader.3873996|50=3873996-Rc8sVvCqbeyj8HKkytYLQ|52=20240104-07:40:59.865|56=cServer|57=QUOTE|10=173|8=FIX.4.4|9=113|35=0|34=70|49=demo.ctrader.3873996|50=3873996-Rc8sVvCqbeyj8HKkytYLQ|52=20240104-07:41:29.921|56=cServer|57=QUOTE|10=156|8=FIX.4.4|9=113|35=0|34=71|49=demo.ctrader.3873996|50=3873996-Rc8sVvCqbeyj8HKkytYLQ|52=20240104-07:42:00.045|56=cServer|57=QUOTE|10=144|8=FIX.4.4|9=113|35=0|34=72|49=demo.ctrader.3873996|50=3873996-Rc8sVvCqbeyj8HKkytYLQ|52=20240104-07:42:30.075|56=cServer|57=QUOTE|10=151|8=FIX.4.4|9=113|35=0|34=73|49=demo.ctrader.3873996|50=3873996-Rc8sVvCqbeyj8HKkytYLQ|52=20240104-07:43:00.107|56=cServer|57=QUOTE|10=146|8=FIX.4.4|9=113|35=0|34=74|49=demo.ctrader.3873996|50=3873996-Rc8sVvCqbeyj8HKkytYLQ|52=20240104-07:43:30.120|56=cServer|57=QUOTE|10=145|8=FIX.4.4|9=113|35=0|34=75|49=demo.ctrader.3873996|50=3873996-Rc8sVvCqbeyj8HKkytYLQ|52=20240104-07:44:00.187|56=cServer|57=QUOTE|10=157|8=FIX.4.4|9=113|35=0|34=76|49=demo.ctrader.3873996|50=3873996-Rc8sVvCqbeyj8HKkytYLQ|52=20240104-07:44:30.222|56=cServer|57=QUOTE|10=151|8=FIX.4.4|9=113|35=0|34=77|49=demo.ctrader.3873996|50=3873996-Rc8sVvCqbeyj8HKkytYLQ|52=20240104-07:45:00.271|56=cServer|57=QUOTE|10=154|8=FIX.4.4|9=113|35=0|34=78|49=demo.ctrader.3873996|50=3873996-Rc8sVvCqbeyj8HKkytYLQ|52=20240104-07:45:30.304|56=cServer|57=QUOTE|10=155|8=FIX.4.4|9=113|35=0|34=79|49=demo.ctrader.3873996|50=3873996-Rc8sVvCqbeyj8HKkytYLQ|52=20240104-07:46:00.375|56=cServer|57=QUOTE|10=162|8=FIX.4.4|9=113|35=0|34=80|49=demo.ctrader.3873996|50=3873996-Rc8sVvCqbeyj8HKkytYLQ|52=20240104-07:46:30.548|56=cServer|57=QUOTE|10=159|8=FIX.4.4|9=113|35=0|34=81|49=demo.ctrader.3873996|50=3873996-Rc8sVvCqbeyj8HKkytYLQ|52=20240104-07:47:00.620|56=cServer|57=QUOTE|10=149|8=FIX.4.4|9=113|35=0|34=82|49=demo.ctrader.3873996|50=3873996-Rc8sVvCqbeyj8HKkytYLQ|52=20240104-07:47:30.628|56=cServer|57=QUOTE|10=161|8=FIX.4.4|9=113|35=0|34=83|49=demo.ctrader.3873996|50=3873996-Rc8sVvCqbeyj8HKkytYLQ|52=20240104-07:48:00.704|56=cServer|57=QUOTE|10=155|8=FIX.4.4|9=113|35=0|34=84|49=demo.ctrader.3873996|50=3873996-Rc8sVvCqbeyj8HKkytYLQ|52=20240104-07:48:30.771|56=cServer|57=QUOTE|10=163|8=FIX.4.4|9=113|35=0|34=85|49=demo.ctrader.3873996|50=3873996-Rc8sVvCqbeyj8HKkytYLQ|52=20240104-07:49:00.785|56=cServer|57=QUOTE|10=167|8=FIX.4.4|9=113|35=0|34=86|49=demo.ctrader.3873996|50=3873996-Rc8sVvCqbeyj8HKkytYLQ|52=20240104-07:49:30.895|56=cServer|57=QUOTE|10=173|8=FIX.4.4|9=113|35=0|34=87|49=demo.ctrader.3873996|50=3873996-Rc8sVvCqbeyj8HKkytYLQ|52=20240104-07:50:00.921|56=cServer|57=QUOTE|10=153|8=FIX.4.4|9=113|35=0|34=88|49=demo.ctrader.3873996|50=3873996-Rc8sVvCqbeyj8HKkytYLQ|52=20240104-07:50:30.921|56=cServer|57=QUOTE|10=157|8=FIX.4.4|9=113|35=0|34=89|49=demo.ctrader.3873996|50=3873996-Rc8sVvCqbeyj8HKkytYLQ|52=20240104-07:51:00.922|56=cServer|57=QUOTE|10=157|8=FIX.4.4|9=113|35=0|34=90|49=demo.ctrader.3873996|50=3873996-Rc8sVvCqbeyj8HKkytYLQ|52=20240104-07:51:31.002|56=cServer|57=QUOTE|10=142|8=FIX.4.4|9=113|35=0|34=91|49=demo.ctrader.3873996|50=3873996-Rc8sVvCqbeyj8HKkytYLQ|52=20240104-07:52:01.060|56=cServer|57=QUOTE|10=145|8=FIX.4.4|9=113|35=0|34=92|49=demo.ctrader.3873996|50=3873996-Rc8sVvCqbeyj8HKkytYLQ|52=20240104-07:52:31.119|56=cServer|57=QUOTE|10=154|8=FIX.4.4|9=113|35=0|34=93|49=demo.ctrader.3873996|50=3873996-Rc8sVvCqbeyj8HKkytYLQ|52=20240104-07:53:01.125|56=cServer|57=QUOTE|10=150|8=FIX.4.4|9=113|35=0|34=94|49=demo.ctrader.3873996|50=3873996-Rc8sVvCqbeyj8HKkytYLQ|52=20240104-07:53:31.548|56=cServer|57=QUOTE|10=163|8=FIX.4.4|9=113|35=0|34=95|49=demo.ctrader.3873996|50=3873996-Rc8sVvCqbeyj8HKkytYLQ|52=20240104-07:54:01.596|56=cServer|57=QUOTE|10=165|8=FIX.4.4|9=113|35=0|34=96|49=demo.ctrader.3873996|50=3873996-Rc8sVvCqbeyj8HKkytYLQ|52=20240104-07:54:31.597|56=cServer|57=QUOTE|10=170|8=FIX.4.4|9=113|35=0|34=97|49=demo.ctrader.3873996|50=3873996-Rc8sVvCqbeyj8HKkytYLQ|52=20240104-07:55:01.631|56=cServer|57=QUOTE|10=158|8=FIX.4.4|9=113|35=0|34=98|49=demo.ctrader.3873996|50=3873996-Rc8sVvCqbeyj8HKkytYLQ|52=20240104-07:55:31.636|56=cServer|57=QUOTE|10=167|8=FIX.4.4|9=113|35=0|34=99|49=demo.ctrader.3873996|50=3873996-Rc8sVvCqbeyj8HKkytYLQ|52=20240104-07:56:01.692|56=cServer|57=QUOTE|10=168|8=FIX.4.4|9=114|35=0|34=100|49=demo.ctrader.3873996|50=3873996-Rc8sVvCqbeyj8HKkytYLQ|52=20240104-07:56:31.719|56=cServer|57=QUOTE|10=203|8=FIX.4.4|9=114|35=0|34=101|49=demo.ctrader.3873996|50=3873996-Rc8sVvCqbeyj8HKkytYLQ|52=20240104-07:57:01.720|56=cServer|57=QUOTE|10=194|8=FIX.4.4|9=114|35=0|34=102|49=demo.ctrader.3873996|50=3873996-Rc8sVvCqbeyj8HKkytYLQ|52=20240104-07:57:31.747|56=cServer|57=QUOTE|10=207|8=FIX.4.4|9=114|35=0|34=103|49=demo.ctrader.3873996|50=3873996-Rc8sVvCqbeyj8HKkytYLQ|52=20240104-07:58:01.842|56=cServer|57=QUOTE|10=202|8=FIX.4.4|9=114|35=0|34=104|49=demo.ctrader.3873996|50=3873996-Rc8sVvCqbeyj8HKkytYLQ|52=20240104-07:58:31.896|56=cServer|57=QUOTE|10=215|8=FIX.4.4|9=114|35=0|34=105|49=demo.ctrader.3873996|50=3873996-Rc8sVvCqbeyj8HKkytYLQ|52=20240104-07:59:01.905|56=cServer|57=QUOTE|10=205|8=FIX.4.4|9=114|35=0|34=106|49=demo.ctrader.3873996|50=3873996-Rc8sVvCqbeyj8HKkytYLQ|52=20240104-07:59:31.923|56=cServer|57=QUOTE|10=209|8=FIX.4.4|9=114|35=0|34=107|49=demo.ctrader.3873996|50=3873996-Rc8sVvCqbeyj8HKkytYLQ|52=20240104-08:00:01.934|56=cServer|57=QUOTE|10=196|8=FIX.4.4|9=114|35=0|34=108|49=demo.ctrader.3873996|50=3873996-Rc8sVvCqbeyj8HKkytYLQ|52=20240104-08:00:31.990|56=cServer|57=QUOTE|10=202|8=FIX.4.4|9=114|35=0|34=109|49=demo.ctrader.3873996|50=3873996-Rc8sVvCqbeyj8HKkytYLQ|52=20240104-08:01:01.992|56=cServer|57=QUOTE|10=203|8=FIX.4.4|9=114|35=0|34=110|49=demo.ctrader.3873996|50=3873996-Rc8sVvCqbeyj8HKkytYLQ|52=20240104-08:01:32.028|56=cServer|57=QUOTE|10=189|8=FIX.4.4|9=114|35=0|34=111|49=demo.ctrader.3873996|50=3873996-Rc8sVvCqbeyj8HKkytYLQ|52=20240104-08:02:02.037|56=cServer|57=QUOTE|10=188|8=FIX.4.4|9=114|35=0|34=112|49=demo.ctrader.3873996|50=3873996-Rc8sVvCqbeyj8HKkytYLQ|52=20240104-08:02:32.066|56=cServer|57=QUOTE|10=194|8=FIX.4.4|9=114|35=0|34=113|49=demo.ctrader.3873996|50=3873996-Rc8sVvCqbeyj8HKkytYLQ|52=20240104-08:03:02.078|56=cServer|57=QUOTE|10=196|8=FIX.4.4|9=114|35=0|34=114|49=demo.ctrader.3873996|50=3873996-Rc8sVvCqbeyj8HKkytYLQ|52=20240104-08:03:32.116|56=cServer|57=QUOTE|10=193|8=FIX.4.4|9=114|35=0|34=115|49=demo.ctrader.3873996|50=3873996-Rc8sVvCqbeyj8HKkytYLQ|52=20240104-08:04:02.137|56=cServer|57=QUOTE|10=195|8=FIX.4.4|9=114|35=0|34=116|49=demo.ctrader.3873996|50=3873996-Rc8sVvCqbeyj8HKkytYLQ|52=20240104-08:04:32.198|56=cServer|57=QUOTE|10=206|8=FIX.4.4|9=228|35=5|34=117|49=demo.ctrader.3873996|50=3873996-Rc8sVvCqbeyj8HKkytYLQ|52=20240104-08:04:37.480|56=cServer|57=QUOTE|49=demo.ctrader.3873996|50=3873996-Rc8sVvCqbeyj8HKkytYLQ|52=20240104-08:04:37|56=cServer|553=3873996|554=Gtlfx125|10=052|