8=FIX.4.4|9=244|35=A|34=1|49=demo.ctrader.3873996|50=3873996vbrx4477Edjb9QC6whPEqQ|52=20231227-11:06:16.915|56=cServer|57=QUOTE|49=demo.ctrader.3873996|50=3873996vbrx4477Edjb9QC6whPEqQ|52=20231227-11:06:16|56=cServer|98=0|108=30|141=Y|553=3873996|554=Gtlfx125|10=009|8=FIX.4.4|9=170|35=V|34=2|49=demo.ctrader.3873996|50=3873996vbrx4477Edjb9QC6whPEqQ|52=20231227-11:06:17.730|56=cServer|57=QUOTE|262=MARKETDATAID|263=1|264=1|267=2|269=0|269=1|146=1|55=1|10=108|8=FIX.4.4|9=170|35=V|34=3|49=demo.ctrader.3873996|50=3873996vbrx4477Edjb9QC6whPEqQ|52=20231227-11:06:17.730|56=cServer|57=QUOTE|262=MARKETDATAID|263=1|264=1|267=2|269=0|269=1|146=1|55=2|10=110|8=FIX.4.4|9=170|35=V|34=4|49=demo.ctrader.3873996|50=3873996vbrx4477Edjb9QC6whPEqQ|52=20231227-11:06:17.730|56=cServer|57=QUOTE|262=MARKETDATAID|263=1|264=1|267=2|269=0|269=1|146=1|55=3|10=112|8=FIX.4.4|9=170|35=V|34=5|49=demo.ctrader.3873996|50=3873996vbrx4477Edjb9QC6whPEqQ|52=20231227-11:06:17.730|56=cServer|57=QUOTE|262=MARKETDATAID|263=1|264=1|267=2|269=0|269=1|146=1|55=4|10=114|8=FIX.4.4|9=170|35=V|34=6|49=demo.ctrader.3873996|50=3873996vbrx4477Edjb9QC6whPEqQ|52=20231227-11:06:17.731|56=cServer|57=QUOTE|262=MARKETDATAID|263=1|264=1|267=2|269=0|269=1|146=1|55=5|10=117|8=FIX.4.4|9=170|35=V|34=7|49=demo.ctrader.3873996|50=3873996vbrx4477Edjb9QC6whPEqQ|52=20231227-11:06:17.731|56=cServer|57=QUOTE|262=MARKETDATAID|263=1|264=1|267=2|269=0|269=1|146=1|55=6|10=119|8=FIX.4.4|9=170|35=V|34=8|49=demo.ctrader.3873996|50=3873996vbrx4477Edjb9QC6whPEqQ|52=20231227-11:06:17.731|56=cServer|57=QUOTE|262=MARKETDATAID|263=1|264=1|267=2|269=0|269=1|146=1|55=7|10=121|8=FIX.4.4|9=170|35=V|34=9|49=demo.ctrader.3873996|50=3873996vbrx4477Edjb9QC6whPEqQ|52=20231227-11:06:17.731|56=cServer|57=QUOTE|262=MARKETDATAID|263=1|264=1|267=2|269=0|269=1|146=1|55=8|10=123|8=FIX.4.4|9=171|35=V|34=10|49=demo.ctrader.3873996|50=3873996vbrx4477Edjb9QC6whPEqQ|52=20231227-11:06:17.731|56=cServer|57=QUOTE|262=MARKETDATAID|263=1|264=1|267=2|269=0|269=1|146=1|55=9|10=165|8=FIX.4.4|9=172|35=V|34=11|49=demo.ctrader.3873996|50=3873996vbrx4477Edjb9QC6whPEqQ|52=20231227-11:06:17.731|56=cServer|57=QUOTE|262=MARKETDATAID|263=1|264=1|267=2|269=0|269=1|146=1|55=10|10=207|8=FIX.4.4|9=172|35=V|34=12|49=demo.ctrader.3873996|50=3873996vbrx4477Edjb9QC6whPEqQ|52=20231227-11:06:17.731|56=cServer|57=QUOTE|262=MARKETDATAID|263=1|264=1|267=2|269=0|269=1|146=1|55=11|10=209|8=FIX.4.4|9=172|35=V|34=13|49=demo.ctrader.3873996|50=3873996vbrx4477Edjb9QC6whPEqQ|52=20231227-11:06:17.731|56=cServer|57=QUOTE|262=MARKETDATAID|263=1|264=1|267=2|269=0|269=1|146=1|55=12|10=211|8=FIX.4.4|9=172|35=V|34=14|49=demo.ctrader.3873996|50=3873996vbrx4477Edjb9QC6whPEqQ|52=20231227-11:06:17.731|56=cServer|57=QUOTE|262=MARKETDATAID|263=1|264=1|267=2|269=0|269=1|146=1|55=13|10=213|8=FIX.4.4|9=172|35=V|34=15|49=demo.ctrader.3873996|50=3873996vbrx4477Edjb9QC6whPEqQ|52=20231227-11:06:17.731|56=cServer|57=QUOTE|262=MARKETDATAID|263=1|264=1|267=2|269=0|269=1|146=1|55=14|10=215|8=FIX.4.4|9=172|35=V|34=16|49=demo.ctrader.3873996|50=3873996vbrx4477Edjb9QC6whPEqQ|52=20231227-11:06:17.731|56=cServer|57=QUOTE|262=MARKETDATAID|263=1|264=1|267=2|269=0|269=1|146=1|55=15|10=217|8=FIX.4.4|9=172|35=V|34=17|49=demo.ctrader.3873996|50=3873996vbrx4477Edjb9QC6whPEqQ|52=20231227-11:06:17.732|56=cServer|57=QUOTE|262=MARKETDATAID|263=1|264=1|267=2|269=0|269=1|146=1|55=16|10=220|8=FIX.4.4|9=172|35=V|34=18|49=demo.ctrader.3873996|50=3873996vbrx4477Edjb9QC6whPEqQ|52=20231227-11:06:17.732|56=cServer|57=QUOTE|262=MARKETDATAID|263=1|264=1|267=2|269=0|269=1|146=1|55=17|10=222|8=FIX.4.4|9=172|35=V|34=19|49=demo.ctrader.3873996|50=3873996vbrx4477Edjb9QC6whPEqQ|52=20231227-11:06:17.732|56=cServer|57=QUOTE|262=MARKETDATAID|263=1|264=1|267=2|269=0|269=1|146=1|55=18|10=224|8=FIX.4.4|9=172|35=V|34=20|49=demo.ctrader.3873996|50=3873996vbrx4477Edjb9QC6whPEqQ|52=20231227-11:06:17.732|56=cServer|57=QUOTE|262=MARKETDATAID|263=1|264=1|267=2|269=0|269=1|146=1|55=19|10=217|8=FIX.4.4|9=172|35=V|34=21|49=demo.ctrader.3873996|50=3873996vbrx4477Edjb9QC6whPEqQ|52=20231227-11:06:17.732|56=cServer|57=QUOTE|262=MARKETDATAID|263=1|264=1|267=2|269=0|269=1|146=1|55=22|10=212|8=FIX.4.4|9=113|35=0|34=22|49=demo.ctrader.3873996|50=3873996vbrx4477Edjb9QC6whPEqQ|52=20231227-11:06:47.871|56=cServer|57=QUOTE|10=021|8=FIX.4.4|9=113|35=0|34=23|49=demo.ctrader.3873996|50=3873996vbrx4477Edjb9QC6whPEqQ|52=20231227-11:07:18.096|56=cServer|57=QUOTE|10=020|8=FIX.4.4|9=113|35=0|34=24|49=demo.ctrader.3873996|50=3873996vbrx4477Edjb9QC6whPEqQ|52=20231227-11:07:48.163|56=cServer|57=QUOTE|10=019|8=FIX.4.4|9=113|35=0|34=25|49=demo.ctrader.3873996|50=3873996vbrx4477Edjb9QC6whPEqQ|52=20231227-11:08:18.204|56=cServer|57=QUOTE|10=014|8=FIX.4.4|9=113|35=0|34=26|49=demo.ctrader.3873996|50=3873996vbrx4477Edjb9QC6whPEqQ|52=20231227-11:08:48.257|56=cServer|57=QUOTE|10=026|8=FIX.4.4|9=113|35=0|34=27|49=demo.ctrader.3873996|50=3873996vbrx4477Edjb9QC6whPEqQ|52=20231227-11:09:18.390|56=cServer|57=QUOTE|10=023|8=FIX.4.4|9=113|35=0|34=28|49=demo.ctrader.3873996|50=3873996vbrx4477Edjb9QC6whPEqQ|52=20231227-11:09:48.441|56=cServer|57=QUOTE|10=024|8=FIX.4.4|9=113|35=0|34=29|49=demo.ctrader.3873996|50=3873996vbrx4477Edjb9QC6whPEqQ|52=20231227-11:10:18.988|56=cServer|57=QUOTE|10=030|8=FIX.4.4|9=113|35=0|34=30|49=demo.ctrader.3873996|50=3873996vbrx4477Edjb9QC6whPEqQ|52=20231227-11:10:48.994|56=cServer|57=QUOTE|10=022|