8=FIX.4.4|9=244|35=A|34=1|49=demo.ctrader.3873996|50=3873996eHNdo_7yKrfAMOk-wCrbFg|52=20240104-08:25:56.227|56=cServer|57=TRADE|49=demo.ctrader.3873996|50=3873996eHNdo_7yKrfAMOk-wCrbFg|52=20240104-08:25:56|56=cServer|98=0|108=30|141=Y|553=3873996|554=Gtlfx125|10=197|8=FIX.4.4|9=130|35=x|34=2|49=demo.ctrader.3873996|50=3873996eHNdo_7yKrfAMOk-wCrbFg|52=20240104-08:25:56.891|56=cServer|57=TRADE|320=symbols|559=0|10=102|8=FIX.4.4|9=127|35=AN|34=3|49=demo.ctrader.3873996|50=3873996eHNdo_7yKrfAMOk-wCrbFg|52=20240104-08:25:57.134|56=cServer|57=TRADE|710=Positions|10=044|8=FIX.4.4|9=130|35=AF|34=4|49=demo.ctrader.3873996|50=3873996eHNdo_7yKrfAMOk-wCrbFg|52=20240104-08:25:57.134|56=cServer|57=TRADE|584=Orders|585=7|10=230|8=FIX.4.4|9=177|35=D|34=5|49=demo.ctrader.3873996|50=3873996eHNdo_7yKrfAMOk-wCrbFg|52=20240104-08:26:05.471|56=cServer|57=TRADE|11=68421675|38=1000|40=1|54=1|55=2|59=3|60=20240104-13:26:05.470|10=041|8=FIX.4.4|9=112|35=0|34=6|49=demo.ctrader.3873996|50=3873996eHNdo_7yKrfAMOk-wCrbFg|52=20240104-08:26:35.967|56=cServer|57=TRADE|10=055|8=FIX.4.4|9=112|35=0|34=7|49=demo.ctrader.3873996|50=3873996eHNdo_7yKrfAMOk-wCrbFg|52=20240104-08:27:05.986|56=cServer|57=TRADE|10=055|8=FIX.4.4|9=112|35=0|34=8|49=demo.ctrader.3873996|50=3873996eHNdo_7yKrfAMOk-wCrbFg|52=20240104-08:27:36.963|56=cServer|57=TRADE|10=055|8=FIX.4.4|9=112|35=0|34=9|49=demo.ctrader.3873996|50=3873996eHNdo_7yKrfAMOk-wCrbFg|52=20240104-08:28:07.037|56=cServer|57=TRADE|10=047|8=FIX.4.4|9=113|35=0|34=10|49=demo.ctrader.3873996|50=3873996eHNdo_7yKrfAMOk-wCrbFg|52=20240104-08:28:37.984|56=cServer|57=TRADE|10=102|8=FIX.4.4|9=113|35=0|34=11|49=demo.ctrader.3873996|50=3873996eHNdo_7yKrfAMOk-wCrbFg|52=20240104-08:29:07.990|56=cServer|57=TRADE|10=098|8=FIX.4.4|9=113|35=0|34=12|49=demo.ctrader.3873996|50=3873996eHNdo_7yKrfAMOk-wCrbFg|52=20240104-08:29:38.988|56=cServer|57=TRADE|10=110|8=FIX.4.4|9=113|35=0|34=13|49=demo.ctrader.3873996|50=3873996eHNdo_7yKrfAMOk-wCrbFg|52=20240104-08:30:08.993|56=cServer|57=TRADE|10=096|8=FIX.4.4|9=113|35=0|34=14|49=demo.ctrader.3873996|50=3873996eHNdo_7yKrfAMOk-wCrbFg|52=20240104-08:30:39.982|56=cServer|57=TRADE|10=099|8=FIX.4.4|9=113|35=0|34=15|49=demo.ctrader.3873996|50=3873996eHNdo_7yKrfAMOk-wCrbFg|52=20240104-08:31:10.980|56=cServer|57=TRADE|10=088|8=FIX.4.4|9=113|35=0|34=16|49=demo.ctrader.3873996|50=3873996eHNdo_7yKrfAMOk-wCrbFg|52=20240104-08:31:41.009|56=cServer|57=TRADE|10=085|8=FIX.4.4|9=113|35=0|34=17|49=demo.ctrader.3873996|50=3873996eHNdo_7yKrfAMOk-wCrbFg|52=20240104-08:32:11.992|56=cServer|57=TRADE|10=095|8=FIX.4.4|9=113|35=0|34=18|49=demo.ctrader.3873996|50=3873996eHNdo_7yKrfAMOk-wCrbFg|52=20240104-08:32:42.284|56=cServer|57=TRADE|10=094|8=FIX.4.4|9=113|35=0|34=19|49=demo.ctrader.3873996|50=3873996eHNdo_7yKrfAMOk-wCrbFg|52=20240104-08:33:13.013|56=cServer|57=TRADE|10=084|8=FIX.4.4|9=113|35=0|34=20|49=demo.ctrader.3873996|50=3873996eHNdo_7yKrfAMOk-wCrbFg|52=20240104-08:33:44.013|56=cServer|57=TRADE|10=080|8=FIX.4.4|9=113|35=0|34=21|49=demo.ctrader.3873996|50=3873996eHNdo_7yKrfAMOk-wCrbFg|52=20240104-08:34:15.016|56=cServer|57=TRADE|10=083|8=FIX.4.4|9=113|35=0|34=22|49=demo.ctrader.3873996|50=3873996eHNdo_7yKrfAMOk-wCrbFg|52=20240104-08:34:46.029|56=cServer|57=TRADE|10=092|8=FIX.4.4|9=113|35=0|34=23|49=demo.ctrader.3873996|50=3873996eHNdo_7yKrfAMOk-wCrbFg|52=20240104-08:35:16.037|56=cServer|57=TRADE|10=090|8=FIX.4.4|9=113|35=0|34=24|49=demo.ctrader.3873996|50=3873996eHNdo_7yKrfAMOk-wCrbFg|52=20240104-08:35:46.054|56=cServer|57=TRADE|10=093|8=FIX.4.4|9=113|35=0|34=25|49=demo.ctrader.3873996|50=3873996eHNdo_7yKrfAMOk-wCrbFg|52=20240104-08:36:16.996|56=cServer|57=TRADE|10=107|8=FIX.4.4|9=113|35=0|34=26|49=demo.ctrader.3873996|50=3873996eHNdo_7yKrfAMOk-wCrbFg|52=20240104-08:36:47.022|56=cServer|57=TRADE|10=092|8=FIX.4.4|9=113|35=0|34=27|49=demo.ctrader.3873996|50=3873996eHNdo_7yKrfAMOk-wCrbFg|52=20240104-08:37:18.018|56=cServer|57=TRADE|10=097|8=FIX.4.4|9=113|35=0|34=28|49=demo.ctrader.3873996|50=3873996eHNdo_7yKrfAMOk-wCrbFg|52=20240104-08:37:48.033|56=cServer|57=TRADE|10=098|8=FIX.4.4|9=113|35=0|34=29|49=demo.ctrader.3873996|50=3873996eHNdo_7yKrfAMOk-wCrbFg|52=20240104-08:38:18.040|56=cServer|57=TRADE|10=095|8=FIX.4.4|9=113|35=0|34=30|49=demo.ctrader.3873996|50=3873996eHNdo_7yKrfAMOk-wCrbFg|52=20240104-08:38:48.051|56=cServer|57=TRADE|10=092|8=FIX.4.4|9=113|35=0|34=31|49=demo.ctrader.3873996|50=3873996eHNdo_7yKrfAMOk-wCrbFg|52=20240104-08:39:18.058|56=cServer|57=TRADE|10=098|8=FIX.4.4|9=113|35=0|34=32|49=demo.ctrader.3873996|50=3873996eHNdo_7yKrfAMOk-wCrbFg|52=20240104-08:39:49.043|56=cServer|57=TRADE|10=097|8=FIX.4.4|9=113|35=0|34=33|49=demo.ctrader.3873996|50=3873996eHNdo_7yKrfAMOk-wCrbFg|52=20240104-08:40:20.037|56=cServer|57=TRADE|10=082|8=FIX.4.4|9=113|35=0|34=34|49=demo.ctrader.3873996|50=3873996eHNdo_7yKrfAMOk-wCrbFg|52=20240104-08:40:50.062|56=cServer|57=TRADE|10=084|8=FIX.4.4|9=113|35=0|34=35|49=demo.ctrader.3873996|50=3873996eHNdo_7yKrfAMOk-wCrbFg|52=20240104-08:41:21.057|56=cServer|57=TRADE|10=088|8=FIX.4.4|9=113|35=0|34=36|49=demo.ctrader.3873996|50=3873996eHNdo_7yKrfAMOk-wCrbFg|52=20240104-08:41:52.042|56=cServer|57=TRADE|10=087|8=FIX.4.4|9=113|35=0|34=37|49=demo.ctrader.3873996|50=3873996eHNdo_7yKrfAMOk-wCrbFg|52=20240104-08:42:22.078|56=cServer|57=TRADE|10=095|8=FIX.4.4|9=113|35=0|34=38|49=demo.ctrader.3873996|50=3873996eHNdo_7yKrfAMOk-wCrbFg|52=20240104-08:42:53.071|56=cServer|57=TRADE|10=093|8=FIX.4.4|9=113|35=0|34=39|49=demo.ctrader.3873996|50=3873996eHNdo_7yKrfAMOk-wCrbFg|52=20240104-08:43:24.079|56=cServer|57=TRADE|10=101|8=FIX.4.4|9=113|35=0|34=40|49=demo.ctrader.3873996|50=3873996eHNdo_7yKrfAMOk-wCrbFg|52=20240104-08:43:54.099|56=cServer|57=TRADE|10=098|8=FIX.4.4|9=113|35=0|34=41|49=demo.ctrader.3873996|50=3873996eHNdo_7yKrfAMOk-wCrbFg|52=20240104-08:44:25.059|56=cServer|57=TRADE|10=094|8=FIX.4.4|9=113|35=0|34=42|49=demo.ctrader.3873996|50=3873996eHNdo_7yKrfAMOk-wCrbFg|52=20240104-08:44:55.100|56=cServer|57=TRADE|10=085|8=FIX.4.4|9=113|35=0|34=43|49=demo.ctrader.3873996|50=3873996eHNdo_7yKrfAMOk-wCrbFg|52=20240104-08:45:26.105|56=cServer|57=TRADE|10=090|8=FIX.4.4|9=227|35=5|34=44|49=demo.ctrader.3873996|50=3873996eHNdo_7yKrfAMOk-wCrbFg|52=20240104-08:45:38.432|56=cServer|57=TRADE|49=demo.ctrader.3873996|50=3873996eHNdo_7yKrfAMOk-wCrbFg|52=20240104-08:45:38|56=cServer|553=3873996|554=Gtlfx125|10=173|8=FIX.4.4|9=227|35=5|34=45|49=demo.ctrader.3873996|50=3873996eHNdo_7yKrfAMOk-wCrbFg|52=20240104-08:45:38.473|56=cServer|57=TRADE|49=demo.ctrader.3873996|50=3873996eHNdo_7yKrfAMOk-wCrbFg|52=20240104-08:45:38|56=cServer|553=3873996|554=Gtlfx125|10=179|