8=FIX.4.4|9=244|35=A|34=1|49=demo.ctrader.3873996|50=3873996ut3j0ZRIKwH8RgDiXTAfWA|52=20231227-13:27:03.846|56=cServer|57=QUOTE|49=demo.ctrader.3873996|50=3873996ut3j0ZRIKwH8RgDiXTAfWA|52=20231227-13:27:03|56=cServer|98=0|108=30|141=Y|553=3873996|554=Gtlfx125|10=254|8=FIX.4.4|9=170|35=V|34=2|49=demo.ctrader.3873996|50=3873996ut3j0ZRIKwH8RgDiXTAfWA|52=20231227-13:27:04.576|56=cServer|57=QUOTE|262=MARKETDATAID|263=1|264=1|267=2|269=0|269=1|146=1|55=1|10=109|8=FIX.4.4|9=170|35=V|34=3|49=demo.ctrader.3873996|50=3873996ut3j0ZRIKwH8RgDiXTAfWA|52=20231227-13:27:04.576|56=cServer|57=QUOTE|262=MARKETDATAID|263=1|264=1|267=2|269=0|269=1|146=1|55=2|10=111|8=FIX.4.4|9=170|35=V|34=4|49=demo.ctrader.3873996|50=3873996ut3j0ZRIKwH8RgDiXTAfWA|52=20231227-13:27:04.577|56=cServer|57=QUOTE|262=MARKETDATAID|263=1|264=1|267=2|269=0|269=1|146=1|55=3|10=114|8=FIX.4.4|9=170|35=V|34=5|49=demo.ctrader.3873996|50=3873996ut3j0ZRIKwH8RgDiXTAfWA|52=20231227-13:27:04.577|56=cServer|57=QUOTE|262=MARKETDATAID|263=1|264=1|267=2|269=0|269=1|146=1|55=4|10=116|8=FIX.4.4|9=170|35=V|34=6|49=demo.ctrader.3873996|50=3873996ut3j0ZRIKwH8RgDiXTAfWA|52=20231227-13:27:04.577|56=cServer|57=QUOTE|262=MARKETDATAID|263=1|264=1|267=2|269=0|269=1|146=1|55=5|10=118|8=FIX.4.4|9=170|35=V|34=7|49=demo.ctrader.3873996|50=3873996ut3j0ZRIKwH8RgDiXTAfWA|52=20231227-13:27:04.578|56=cServer|57=QUOTE|262=MARKETDATAID|263=1|264=1|267=2|269=0|269=1|146=1|55=6|10=121|8=FIX.4.4|9=170|35=V|34=8|49=demo.ctrader.3873996|50=3873996ut3j0ZRIKwH8RgDiXTAfWA|52=20231227-13:27:04.578|56=cServer|57=QUOTE|262=MARKETDATAID|263=1|264=1|267=2|269=0|269=1|146=1|55=7|10=123|8=FIX.4.4|9=170|35=V|34=9|49=demo.ctrader.3873996|50=3873996ut3j0ZRIKwH8RgDiXTAfWA|52=20231227-13:27:04.578|56=cServer|57=QUOTE|262=MARKETDATAID|263=1|264=1|267=2|269=0|269=1|146=1|55=8|10=125|8=FIX.4.4|9=171|35=V|34=10|49=demo.ctrader.3873996|50=3873996ut3j0ZRIKwH8RgDiXTAfWA|52=20231227-13:27:04.578|56=cServer|57=QUOTE|262=MARKETDATAID|263=1|264=1|267=2|269=0|269=1|146=1|55=9|10=167|8=FIX.4.4|9=172|35=V|34=11|49=demo.ctrader.3873996|50=3873996ut3j0ZRIKwH8RgDiXTAfWA|52=20231227-13:27:04.578|56=cServer|57=QUOTE|262=MARKETDATAID|263=1|264=1|267=2|269=0|269=1|146=1|55=10|10=209|8=FIX.4.4|9=172|35=V|34=12|49=demo.ctrader.3873996|50=3873996ut3j0ZRIKwH8RgDiXTAfWA|52=20231227-13:27:04.578|56=cServer|57=QUOTE|262=MARKETDATAID|263=1|264=1|267=2|269=0|269=1|146=1|55=11|10=211|8=FIX.4.4|9=172|35=V|34=13|49=demo.ctrader.3873996|50=3873996ut3j0ZRIKwH8RgDiXTAfWA|52=20231227-13:27:04.578|56=cServer|57=QUOTE|262=MARKETDATAID|263=1|264=1|267=2|269=0|269=1|146=1|55=12|10=213|8=FIX.4.4|9=172|35=V|34=14|49=demo.ctrader.3873996|50=3873996ut3j0ZRIKwH8RgDiXTAfWA|52=20231227-13:27:04.578|56=cServer|57=QUOTE|262=MARKETDATAID|263=1|264=1|267=2|269=0|269=1|146=1|55=13|10=215|8=FIX.4.4|9=172|35=V|34=15|49=demo.ctrader.3873996|50=3873996ut3j0ZRIKwH8RgDiXTAfWA|52=20231227-13:27:04.578|56=cServer|57=QUOTE|262=MARKETDATAID|263=1|264=1|267=2|269=0|269=1|146=1|55=14|10=217|8=FIX.4.4|9=172|35=V|34=16|49=demo.ctrader.3873996|50=3873996ut3j0ZRIKwH8RgDiXTAfWA|52=20231227-13:27:04.578|56=cServer|57=QUOTE|262=MARKETDATAID|263=1|264=1|267=2|269=0|269=1|146=1|55=15|10=219|8=FIX.4.4|9=172|35=V|34=17|49=demo.ctrader.3873996|50=3873996ut3j0ZRIKwH8RgDiXTAfWA|52=20231227-13:27:04.578|56=cServer|57=QUOTE|262=MARKETDATAID|263=1|264=1|267=2|269=0|269=1|146=1|55=16|10=221|8=FIX.4.4|9=172|35=V|34=18|49=demo.ctrader.3873996|50=3873996ut3j0ZRIKwH8RgDiXTAfWA|52=20231227-13:27:04.578|56=cServer|57=QUOTE|262=MARKETDATAID|263=1|264=1|267=2|269=0|269=1|146=1|55=17|10=223|8=FIX.4.4|9=172|35=V|34=19|49=demo.ctrader.3873996|50=3873996ut3j0ZRIKwH8RgDiXTAfWA|52=20231227-13:27:04.579|56=cServer|57=QUOTE|262=MARKETDATAID|263=1|264=1|267=2|269=0|269=1|146=1|55=18|10=226|8=FIX.4.4|9=172|35=V|34=20|49=demo.ctrader.3873996|50=3873996ut3j0ZRIKwH8RgDiXTAfWA|52=20231227-13:27:04.579|56=cServer|57=QUOTE|262=MARKETDATAID|263=1|264=1|267=2|269=0|269=1|146=1|55=19|10=219|8=FIX.4.4|9=172|35=V|34=21|49=demo.ctrader.3873996|50=3873996ut3j0ZRIKwH8RgDiXTAfWA|52=20231227-13:27:04.579|56=cServer|57=QUOTE|262=MARKETDATAID|263=1|264=1|267=2|269=0|269=1|146=1|55=22|10=214|8=FIX.4.4|9=113|35=0|34=22|49=demo.ctrader.3873996|50=3873996ut3j0ZRIKwH8RgDiXTAfWA|52=20231227-13:27:34.615|56=cServer|57=QUOTE|10=010|8=FIX.4.4|9=113|35=0|34=23|49=demo.ctrader.3873996|50=3873996ut3j0ZRIKwH8RgDiXTAfWA|52=20231227-13:28:04.740|56=cServer|57=QUOTE|10=008|8=FIX.4.4|9=113|35=0|34=24|49=demo.ctrader.3873996|50=3873996ut3j0ZRIKwH8RgDiXTAfWA|52=20231227-13:28:34.768|56=cServer|57=QUOTE|10=022|8=FIX.4.4|9=113|35=0|34=25|49=demo.ctrader.3873996|50=3873996ut3j0ZRIKwH8RgDiXTAfWA|52=20231227-13:29:05.070|56=cServer|57=QUOTE|10=008|8=FIX.4.4|9=113|35=0|34=26|49=demo.ctrader.3873996|50=3873996ut3j0ZRIKwH8RgDiXTAfWA|52=20231227-13:29:35.072|56=cServer|57=QUOTE|10=014|8=FIX.4.4|9=113|35=0|34=27|49=demo.ctrader.3873996|50=3873996ut3j0ZRIKwH8RgDiXTAfWA|52=20231227-13:30:05.128|56=cServer|57=QUOTE|10=006|8=FIX.4.4|9=113|35=0|34=28|49=demo.ctrader.3873996|50=3873996ut3j0ZRIKwH8RgDiXTAfWA|52=20231227-13:30:35.221|56=cServer|57=QUOTE|10=004|8=FIX.4.4|9=113|35=0|34=29|49=demo.ctrader.3873996|50=3873996ut3j0ZRIKwH8RgDiXTAfWA|52=20231227-13:31:05.232|56=cServer|57=QUOTE|10=005|8=FIX.4.4|9=113|35=0|34=30|49=demo.ctrader.3873996|50=3873996ut3j0ZRIKwH8RgDiXTAfWA|52=20231227-13:31:35.263|56=cServer|57=QUOTE|10=004|8=FIX.4.4|9=113|35=0|34=31|49=demo.ctrader.3873996|50=3873996ut3j0ZRIKwH8RgDiXTAfWA|52=20231227-13:32:05.270|56=cServer|57=QUOTE|10=001|8=FIX.4.4|9=113|35=0|34=32|49=demo.ctrader.3873996|50=3873996ut3j0ZRIKwH8RgDiXTAfWA|52=20231227-13:32:35.359|56=cServer|57=QUOTE|10=013|8=FIX.4.4|9=113|35=0|34=33|49=demo.ctrader.3873996|50=3873996ut3j0ZRIKwH8RgDiXTAfWA|52=20231227-13:33:05.371|56=cServer|57=QUOTE|10=006|8=FIX.4.4|9=113|35=0|34=34|49=demo.ctrader.3873996|50=3873996ut3j0ZRIKwH8RgDiXTAfWA|52=20231227-13:33:35.423|56=cServer|57=QUOTE|10=008|8=FIX.4.4|9=113|35=0|34=35|49=demo.ctrader.3873996|50=3873996ut3j0ZRIKwH8RgDiXTAfWA|52=20231227-13:34:05.426|56=cServer|57=QUOTE|10=010|8=FIX.4.4|9=113|35=0|34=36|49=demo.ctrader.3873996|50=3873996ut3j0ZRIKwH8RgDiXTAfWA|52=20231227-13:34:35.464|56=cServer|57=QUOTE|10=016|8=FIX.4.4|9=113|35=0|34=37|49=demo.ctrader.3873996|50=3873996ut3j0ZRIKwH8RgDiXTAfWA|52=20231227-13:35:05.565|56=cServer|57=QUOTE|10=017|8=FIX.4.4|9=113|35=0|34=38|49=demo.ctrader.3873996|50=3873996ut3j0ZRIKwH8RgDiXTAfWA|52=20231227-13:35:35.662|56=cServer|57=QUOTE|10=019|8=FIX.4.4|9=113|35=0|34=39|49=demo.ctrader.3873996|50=3873996ut3j0ZRIKwH8RgDiXTAfWA|52=20231227-13:36:05.670|56=cServer|57=QUOTE|10=017|8=FIX.4.4|9=113|35=0|34=40|49=demo.ctrader.3873996|50=3873996ut3j0ZRIKwH8RgDiXTAfWA|52=20231227-13:36:35.741|56=cServer|57=QUOTE|10=011|8=FIX.4.4|9=113|35=0|34=41|49=demo.ctrader.3873996|50=3873996ut3j0ZRIKwH8RgDiXTAfWA|52=20231227-13:37:05.862|56=cServer|57=QUOTE|10=014|8=FIX.4.4|9=113|35=0|34=42|49=demo.ctrader.3873996|50=3873996ut3j0ZRIKwH8RgDiXTAfWA|52=20231227-13:37:35.863|56=cServer|57=QUOTE|10=019|8=FIX.4.4|9=113|35=0|34=43|49=demo.ctrader.3873996|50=3873996ut3j0ZRIKwH8RgDiXTAfWA|52=20231227-13:38:05.863|56=cServer|57=QUOTE|10=018|8=FIX.4.4|9=113|35=0|34=44|49=demo.ctrader.3873996|50=3873996ut3j0ZRIKwH8RgDiXTAfWA|52=20231227-13:38:35.917|56=cServer|57=QUOTE|10=022|8=FIX.4.4|9=113|35=0|34=45|49=demo.ctrader.3873996|50=3873996ut3j0ZRIKwH8RgDiXTAfWA|52=20231227-13:39:06.011|56=cServer|57=QUOTE|10=007|8=FIX.4.4|9=113|35=0|34=46|49=demo.ctrader.3873996|50=3873996ut3j0ZRIKwH8RgDiXTAfWA|52=20231227-13:39:36.390|56=cServer|57=QUOTE|10=021|8=FIX.4.4|9=113|35=0|34=47|49=demo.ctrader.3873996|50=3873996ut3j0ZRIKwH8RgDiXTAfWA|52=20231227-13:40:06.406|56=cServer|57=QUOTE|10=009|8=FIX.4.4|9=113|35=0|34=48|49=demo.ctrader.3873996|50=3873996ut3j0ZRIKwH8RgDiXTAfWA|52=20231227-13:40:36.406|56=cServer|57=QUOTE|10=013|8=FIX.4.4|9=113|35=0|34=49|49=demo.ctrader.3873996|50=3873996ut3j0ZRIKwH8RgDiXTAfWA|52=20231227-13:41:06.424|56=cServer|57=QUOTE|10=012|8=FIX.4.4|9=113|35=0|34=50|49=demo.ctrader.3873996|50=3873996ut3j0ZRIKwH8RgDiXTAfWA|52=20231227-13:41:36.449|56=cServer|57=QUOTE|10=014|8=FIX.4.4|9=113|35=0|34=51|49=demo.ctrader.3873996|50=3873996ut3j0ZRIKwH8RgDiXTAfWA|52=20231227-13:42:06.563|56=cServer|57=QUOTE|10=010|8=FIX.4.4|9=113|35=0|34=52|49=demo.ctrader.3873996|50=3873996ut3j0ZRIKwH8RgDiXTAfWA|52=20231227-13:42:36.594|56=cServer|57=QUOTE|10=018|8=FIX.4.4|9=113|35=0|34=53|49=demo.ctrader.3873996|50=3873996ut3j0ZRIKwH8RgDiXTAfWA|52=20231227-13:43:06.611|56=cServer|57=QUOTE|10=007|8=FIX.4.4|9=113|35=0|34=54|49=demo.ctrader.3873996|50=3873996ut3j0ZRIKwH8RgDiXTAfWA|52=20231227-13:43:37.053|56=cServer|57=QUOTE|10=012|8=FIX.4.4|9=113|35=0|34=55|49=demo.ctrader.3873996|50=3873996ut3j0ZRIKwH8RgDiXTAfWA|52=20231227-13:44:07.091|56=cServer|57=QUOTE|10=013|8=FIX.4.4|9=113|35=0|34=56|49=demo.ctrader.3873996|50=3873996ut3j0ZRIKwH8RgDiXTAfWA|52=20231227-13:44:37.111|56=cServer|57=QUOTE|10=010|8=FIX.4.4|9=113|35=0|34=57|49=demo.ctrader.3873996|50=3873996ut3j0ZRIKwH8RgDiXTAfWA|52=20231227-13:45:07.536|56=cServer|57=QUOTE|10=020|8=FIX.4.4|9=113|35=0|34=58|49=demo.ctrader.3873996|50=3873996ut3j0ZRIKwH8RgDiXTAfWA|52=20231227-13:45:37.860|56=cServer|57=QUOTE|10=024|8=FIX.4.4|9=113|35=0|34=59|49=demo.ctrader.3873996|50=3873996ut3j0ZRIKwH8RgDiXTAfWA|52=20231227-13:46:07.863|56=cServer|57=QUOTE|10=026|8=FIX.4.4|9=113|35=0|34=60|49=demo.ctrader.3873996|50=3873996ut3j0ZRIKwH8RgDiXTAfWA|52=20231227-13:46:37.867|56=cServer|57=QUOTE|10=025|8=FIX.4.4|9=113|35=0|34=61|49=demo.ctrader.3873996|50=3873996ut3j0ZRIKwH8RgDiXTAfWA|52=20231227-13:47:07.871|56=cServer|57=QUOTE|10=019|8=FIX.4.4|9=113|35=0|34=62|49=demo.ctrader.3873996|50=3873996ut3j0ZRIKwH8RgDiXTAfWA|52=20231227-13:47:37.933|56=cServer|57=QUOTE|10=022|8=FIX.4.4|9=113|35=0|34=63|49=demo.ctrader.3873996|50=3873996ut3j0ZRIKwH8RgDiXTAfWA|52=20231227-13:48:08.207|56=cServer|57=QUOTE|10=016|8=FIX.4.4|9=113|35=0|34=64|49=demo.ctrader.3873996|50=3873996ut3j0ZRIKwH8RgDiXTAfWA|52=20231227-13:48:38.279|56=cServer|57=QUOTE|10=029|8=FIX.4.4|9=113|35=0|34=65|49=demo.ctrader.3873996|50=3873996ut3j0ZRIKwH8RgDiXTAfWA|52=20231227-13:49:08.447|56=cServer|57=QUOTE|10=025|8=FIX.4.4|9=113|35=0|34=66|49=demo.ctrader.3873996|50=3873996ut3j0ZRIKwH8RgDiXTAfWA|52=20231227-13:49:38.482|56=cServer|57=QUOTE|10=028|8=FIX.4.4|9=113|35=0|34=67|49=demo.ctrader.3873996|50=3873996ut3j0ZRIKwH8RgDiXTAfWA|52=20231227-13:50:08.615|56=cServer|57=QUOTE|10=016|8=FIX.4.4|9=113|35=0|34=68|49=demo.ctrader.3873996|50=3873996ut3j0ZRIKwH8RgDiXTAfWA|52=20231227-13:50:38.624|56=cServer|57=QUOTE|10=020|8=FIX.4.4|9=113|35=0|34=69|49=demo.ctrader.3873996|50=3873996ut3j0ZRIKwH8RgDiXTAfWA|52=20231227-13:51:08.625|56=cServer|57=QUOTE|10=020|8=FIX.4.4|9=113|35=0|34=70|49=demo.ctrader.3873996|50=3873996ut3j0ZRIKwH8RgDiXTAfWA|52=20231227-13:51:38.652|56=cServer|57=QUOTE|10=015|8=FIX.4.4|9=113|35=0|34=71|49=demo.ctrader.3873996|50=3873996ut3j0ZRIKwH8RgDiXTAfWA|52=20231227-13:52:08.661|56=cServer|57=QUOTE|10=014|8=FIX.4.4|9=113|35=0|34=72|49=demo.ctrader.3873996|50=3873996ut3j0ZRIKwH8RgDiXTAfWA|52=20231227-13:52:38.661|56=cServer|57=QUOTE|10=018|8=FIX.4.4|9=113|35=0|34=73|49=demo.ctrader.3873996|50=3873996ut3j0ZRIKwH8RgDiXTAfWA|52=20231227-13:53:08.663|56=cServer|57=QUOTE|10=019|8=FIX.4.4|9=113|35=0|34=74|49=demo.ctrader.3873996|50=3873996ut3j0ZRIKwH8RgDiXTAfWA|52=20231227-13:53:38.671|56=cServer|57=QUOTE|10=022|8=FIX.4.4|9=113|35=0|34=75|49=demo.ctrader.3873996|50=3873996ut3j0ZRIKwH8RgDiXTAfWA|52=20231227-13:54:08.671|56=cServer|57=QUOTE|10=021|8=FIX.4.4|9=113|35=0|34=76|49=demo.ctrader.3873996|50=3873996ut3j0ZRIKwH8RgDiXTAfWA|52=20231227-13:54:38.832|56=cServer|57=QUOTE|10=024|8=FIX.4.4|9=113|35=0|34=77|49=demo.ctrader.3873996|50=3873996ut3j0ZRIKwH8RgDiXTAfWA|52=20231227-13:55:09.041|56=cServer|57=QUOTE|10=016|8=FIX.4.4|9=113|35=0|34=78|49=demo.ctrader.3873996|50=3873996ut3j0ZRIKwH8RgDiXTAfWA|52=20231227-13:55:39.114|56=cServer|57=QUOTE|10=021|8=FIX.4.4|9=113|35=0|34=79|49=demo.ctrader.3873996|50=3873996ut3j0ZRIKwH8RgDiXTAfWA|52=20231227-13:56:09.160|56=cServer|57=QUOTE|10=021|8=FIX.4.4|9=113|35=0|34=80|49=demo.ctrader.3873996|50=3873996ut3j0ZRIKwH8RgDiXTAfWA|52=20231227-13:56:39.164|56=cServer|57=QUOTE|10=020|8=FIX.4.4|9=113|35=0|34=81|49=demo.ctrader.3873996|50=3873996ut3j0ZRIKwH8RgDiXTAfWA|52=20231227-13:57:09.197|56=cServer|57=QUOTE|10=025|8=FIX.4.4|9=113|35=0|34=82|49=demo.ctrader.3873996|50=3873996ut3j0ZRIKwH8RgDiXTAfWA|52=20231227-13:57:39.370|56=cServer|57=QUOTE|10=022|8=FIX.4.4|9=113|35=0|34=83|49=demo.ctrader.3873996|50=3873996ut3j0ZRIKwH8RgDiXTAfWA|52=20231227-13:58:09.405|56=cServer|57=QUOTE|10=020|8=FIX.4.4|9=113|35=0|34=84|49=demo.ctrader.3873996|50=3873996ut3j0ZRIKwH8RgDiXTAfWA|52=20231227-13:58:39.493|56=cServer|57=QUOTE|10=031|8=FIX.4.4|9=113|35=0|34=85|49=demo.ctrader.3873996|50=3873996ut3j0ZRIKwH8RgDiXTAfWA|52=20231227-13:59:09.498|56=cServer|57=QUOTE|10=035|8=FIX.4.4|9=113|35=0|34=86|49=demo.ctrader.3873996|50=3873996ut3j0ZRIKwH8RgDiXTAfWA|52=20231227-13:59:39.603|56=cServer|57=QUOTE|10=027|8=FIX.4.4|9=113|35=0|34=87|49=demo.ctrader.3873996|50=3873996ut3j0ZRIKwH8RgDiXTAfWA|52=20231227-14:00:09.625|56=cServer|57=QUOTE|10=016|8=FIX.4.4|9=113|35=0|34=88|49=demo.ctrader.3873996|50=3873996ut3j0ZRIKwH8RgDiXTAfWA|52=20231227-14:00:39.650|56=cServer|57=QUOTE|10=018|8=FIX.4.4|9=113|35=0|34=89|49=demo.ctrader.3873996|50=3873996ut3j0ZRIKwH8RgDiXTAfWA|52=20231227-14:01:09.660|56=cServer|57=QUOTE|10=018|8=FIX.4.4|9=113|35=0|34=90|49=demo.ctrader.3873996|50=3873996ut3j0ZRIKwH8RgDiXTAfWA|52=20231227-14:01:39.738|56=cServer|57=QUOTE|10=019|8=FIX.4.4|9=113|35=0|34=91|49=demo.ctrader.3873996|50=3873996ut3j0ZRIKwH8RgDiXTAfWA|52=20231227-14:02:09.780|56=cServer|57=QUOTE|10=015|8=FIX.4.4|9=113|35=0|34=92|49=demo.ctrader.3873996|50=3873996ut3j0ZRIKwH8RgDiXTAfWA|52=20231227-14:02:39.851|56=cServer|57=QUOTE|10=018|8=FIX.4.4|9=113|35=0|34=93|49=demo.ctrader.3873996|50=3873996ut3j0ZRIKwH8RgDiXTAfWA|52=20231227-14:03:09.873|56=cServer|57=QUOTE|10=021|8=FIX.4.4|9=113|35=0|34=94|49=demo.ctrader.3873996|50=3873996ut3j0ZRIKwH8RgDiXTAfWA|52=20231227-14:03:39.904|56=cServer|57=QUOTE|10=020|8=FIX.4.4|9=113|35=0|34=95|49=demo.ctrader.3873996|50=3873996ut3j0ZRIKwH8RgDiXTAfWA|52=20231227-14:04:09.926|56=cServer|57=QUOTE|10=023|8=FIX.4.4|9=113|35=0|34=96|49=demo.ctrader.3873996|50=3873996ut3j0ZRIKwH8RgDiXTAfWA|52=20231227-14:04:40.094|56=cServer|57=QUOTE|10=015|8=FIX.4.4|9=113|35=0|34=97|49=demo.ctrader.3873996|50=3873996ut3j0ZRIKwH8RgDiXTAfWA|52=20231227-14:05:10.194|56=cServer|57=QUOTE|10=015|8=FIX.4.4|9=113|35=0|34=98|49=demo.ctrader.3873996|50=3873996ut3j0ZRIKwH8RgDiXTAfWA|52=20231227-14:05:40.218|56=cServer|57=QUOTE|10=016|8=FIX.4.4|9=113|35=0|34=99|49=demo.ctrader.3873996|50=3873996ut3j0ZRIKwH8RgDiXTAfWA|52=20231227-14:06:10.275|56=cServer|57=QUOTE|10=018|8=FIX.4.4|9=114|35=0|34=100|49=demo.ctrader.3873996|50=3873996ut3j0ZRIKwH8RgDiXTAfWA|52=20231227-14:06:40.287|56=cServer|57=QUOTE|10=056|8=FIX.4.4|9=114|35=0|34=101|49=demo.ctrader.3873996|50=3873996ut3j0ZRIKwH8RgDiXTAfWA|52=20231227-14:07:10.317|56=cServer|57=QUOTE|10=049|8=FIX.4.4|9=114|35=0|34=102|49=demo.ctrader.3873996|50=3873996ut3j0ZRIKwH8RgDiXTAfWA|52=20231227-14:07:40.374|56=cServer|57=QUOTE|10=056|8=FIX.4.4|9=114|35=0|34=103|49=demo.ctrader.3873996|50=3873996ut3j0ZRIKwH8RgDiXTAfWA|52=20231227-14:08:10.378|56=cServer|57=QUOTE|10=059|8=FIX.4.4|9=114|35=0|34=104|49=demo.ctrader.3873996|50=3873996ut3j0ZRIKwH8RgDiXTAfWA|52=20231227-14:08:40.383|56=cServer|57=QUOTE|10=059|8=FIX.4.4|9=114|35=0|34=105|49=demo.ctrader.3873996|50=3873996ut3j0ZRIKwH8RgDiXTAfWA|52=20231227-14:09:10.394|56=cServer|57=QUOTE|10=060|8=FIX.4.4|9=114|35=0|34=106|49=demo.ctrader.3873996|50=3873996ut3j0ZRIKwH8RgDiXTAfWA|52=20231227-14:09:40.609|56=cServer|57=QUOTE|10=063|8=FIX.4.4|9=114|35=0|34=107|49=demo.ctrader.3873996|50=3873996ut3j0ZRIKwH8RgDiXTAfWA|52=20231227-14:10:10.660|56=cServer|57=QUOTE|10=050|8=FIX.4.4|9=114|35=0|34=108|49=demo.ctrader.3873996|50=3873996ut3j0ZRIKwH8RgDiXTAfWA|52=20231227-14:10:40.668|56=cServer|57=QUOTE|10=062|8=FIX.4.4|9=114|35=0|34=109|49=demo.ctrader.3873996|50=3873996ut3j0ZRIKwH8RgDiXTAfWA|52=20231227-14:11:10.751|56=cServer|57=QUOTE|10=054|8=FIX.4.4|9=114|35=0|34=110|49=demo.ctrader.3873996|50=3873996ut3j0ZRIKwH8RgDiXTAfWA|52=20231227-14:11:40.889|56=cServer|57=QUOTE|10=061|8=FIX.4.4|9=114|35=0|34=111|49=demo.ctrader.3873996|50=3873996ut3j0ZRIKwH8RgDiXTAfWA|52=20231227-14:12:10.898|56=cServer|57=QUOTE|10=060|8=FIX.4.4|9=114|35=0|34=112|49=demo.ctrader.3873996|50=3873996ut3j0ZRIKwH8RgDiXTAfWA|52=20231227-14:12:40.920|56=cServer|57=QUOTE|10=050|8=FIX.4.4|9=114|35=0|34=113|49=demo.ctrader.3873996|50=3873996ut3j0ZRIKwH8RgDiXTAfWA|52=20231227-14:13:11.023|56=cServer|57=QUOTE|10=044|8=FIX.4.4|9=114|35=0|34=114|49=demo.ctrader.3873996|50=3873996ut3j0ZRIKwH8RgDiXTAfWA|52=20231227-14:13:41.049|56=cServer|57=QUOTE|10=056|8=FIX.4.4|9=114|35=0|34=115|49=demo.ctrader.3873996|50=3873996ut3j0ZRIKwH8RgDiXTAfWA|52=20231227-14:14:11.120|56=cServer|57=QUOTE|10=045|8=FIX.4.4|9=114|35=0|34=116|49=demo.ctrader.3873996|50=3873996ut3j0ZRIKwH8RgDiXTAfWA|52=20231227-14:14:41.177|56=cServer|57=QUOTE|10=061|8=FIX.4.4|9=114|35=0|34=117|49=demo.ctrader.3873996|50=3873996ut3j0ZRIKwH8RgDiXTAfWA|52=20231227-14:15:11.182|56=cServer|57=QUOTE|10=056|8=FIX.4.4|9=114|35=0|34=118|49=demo.ctrader.3873996|50=3873996ut3j0ZRIKwH8RgDiXTAfWA|52=20231227-14:15:41.189|56=cServer|57=QUOTE|10=067|8=FIX.4.4|9=114|35=0|34=119|49=demo.ctrader.3873996|50=3873996ut3j0ZRIKwH8RgDiXTAfWA|52=20231227-14:16:11.192|56=cServer|57=QUOTE|10=060|8=FIX.4.4|9=114|35=0|34=120|49=demo.ctrader.3873996|50=3873996ut3j0ZRIKwH8RgDiXTAfWA|52=20231227-14:16:41.212|56=cServer|57=QUOTE|10=048|8=FIX.4.4|9=114|35=0|34=121|49=demo.ctrader.3873996|50=3873996ut3j0ZRIKwH8RgDiXTAfWA|52=20231227-14:17:11.237|56=cServer|57=QUOTE|10=054|8=FIX.4.4|9=114|35=0|34=122|49=demo.ctrader.3873996|50=3873996ut3j0ZRIKwH8RgDiXTAfWA|52=20231227-14:17:41.246|56=cServer|57=QUOTE|10=058|8=FIX.4.4|9=114|35=0|34=123|49=demo.ctrader.3873996|50=3873996ut3j0ZRIKwH8RgDiXTAfWA|52=20231227-14:18:11.259|56=cServer|57=QUOTE|10=061|8=FIX.4.4|9=114|35=0|34=124|49=demo.ctrader.3873996|50=3873996ut3j0ZRIKwH8RgDiXTAfWA|52=20231227-14:18:41.317|56=cServer|57=QUOTE|10=060|8=FIX.4.4|9=114|35=0|34=125|49=demo.ctrader.3873996|50=3873996ut3j0ZRIKwH8RgDiXTAfWA|52=20231227-14:19:11.594|56=cServer|57=QUOTE|10=066|8=FIX.4.4|9=114|35=0|34=126|49=demo.ctrader.3873996|50=3873996ut3j0ZRIKwH8RgDiXTAfWA|52=20231227-14:19:41.624|56=cServer|57=QUOTE|10=064|8=FIX.4.4|9=114|35=0|34=127|49=demo.ctrader.3873996|50=3873996ut3j0ZRIKwH8RgDiXTAfWA|52=20231227-14:20:11.624|56=cServer|57=QUOTE|10=054|8=FIX.4.4|9=114|35=0|34=128|49=demo.ctrader.3873996|50=3873996ut3j0ZRIKwH8RgDiXTAfWA|52=20231227-14:20:41.659|56=cServer|57=QUOTE|10=066|8=FIX.4.4|9=114|35=0|34=129|49=demo.ctrader.3873996|50=3873996ut3j0ZRIKwH8RgDiXTAfWA|52=20231227-14:21:11.678|56=cServer|57=QUOTE|10=066|8=FIX.4.4|9=114|35=0|34=130|49=demo.ctrader.3873996|50=3873996ut3j0ZRIKwH8RgDiXTAfWA|52=20231227-14:21:41.816|56=cServer|57=QUOTE|10=055|8=FIX.4.4|9=114|35=0|34=131|49=demo.ctrader.3873996|50=3873996ut3j0ZRIKwH8RgDiXTAfWA|52=20231227-14:22:12.062|56=cServer|57=QUOTE|10=048|8=FIX.4.4|9=114|35=0|34=132|49=demo.ctrader.3873996|50=3873996ut3j0ZRIKwH8RgDiXTAfWA|52=20231227-14:22:42.106|56=cServer|57=QUOTE|10=051|8=FIX.4.4|9=114|35=0|34=133|49=demo.ctrader.3873996|50=3873996ut3j0ZRIKwH8RgDiXTAfWA|52=20231227-14:23:12.112|56=cServer|57=QUOTE|10=047|8=FIX.4.4|9=114|35=0|34=134|49=demo.ctrader.3873996|50=3873996ut3j0ZRIKwH8RgDiXTAfWA|52=20231227-14:23:42.273|56=cServer|57=QUOTE|10=059|8=FIX.4.4|9=114|35=0|34=135|49=demo.ctrader.3873996|50=3873996ut3j0ZRIKwH8RgDiXTAfWA|52=20231227-14:24:12.317|56=cServer|57=QUOTE|10=057|8=FIX.4.4|9=114|35=0|34=136|49=demo.ctrader.3873996|50=3873996ut3j0ZRIKwH8RgDiXTAfWA|52=20231227-14:24:42.369|56=cServer|57=QUOTE|10=068|8=FIX.4.4|9=114|35=0|34=137|49=demo.ctrader.3873996|50=3873996ut3j0ZRIKwH8RgDiXTAfWA|52=20231227-14:25:12.659|56=cServer|57=QUOTE|10=069|8=FIX.4.4|9=114|35=0|34=138|49=demo.ctrader.3873996|50=3873996ut3j0ZRIKwH8RgDiXTAfWA|52=20231227-14:25:42.670|56=cServer|57=QUOTE|10=066|8=FIX.4.4|9=114|35=0|34=139|49=demo.ctrader.3873996|50=3873996ut3j0ZRIKwH8RgDiXTAfWA|52=20231227-14:26:12.693|56=cServer|57=QUOTE|10=070|8=FIX.4.4|9=114|35=0|34=140|49=demo.ctrader.3873996|50=3873996ut3j0ZRIKwH8RgDiXTAfWA|52=20231227-14:26:42.759|56=cServer|57=QUOTE|10=068|8=FIX.4.4|9=114|35=0|34=141|49=demo.ctrader.3873996|50=3873996ut3j0ZRIKwH8RgDiXTAfWA|52=20231227-14:27:13.362|56=cServer|57=QUOTE|10=058|8=FIX.4.4|9=114|35=0|34=142|49=demo.ctrader.3873996|50=3873996ut3j0ZRIKwH8RgDiXTAfWA|52=20231227-14:27:43.390|56=cServer|57=QUOTE|10=063|8=FIX.4.4|9=114|35=0|34=143|49=demo.ctrader.3873996|50=3873996ut3j0ZRIKwH8RgDiXTAfWA|52=20231227-14:28:13.517|56=cServer|57=QUOTE|10=063|8=FIX.4.4|9=114|35=0|34=144|49=demo.ctrader.3873996|50=3873996ut3j0ZRIKwH8RgDiXTAfWA|52=20231227-14:28:43.617|56=cServer|57=QUOTE|10=068|8=FIX.4.4|9=114|35=0|34=145|49=demo.ctrader.3873996|50=3873996ut3j0ZRIKwH8RgDiXTAfWA|52=20231227-14:29:13.661|56=cServer|57=QUOTE|10=066|8=FIX.4.4|9=114|35=0|34=146|49=demo.ctrader.3873996|50=3873996ut3j0ZRIKwH8RgDiXTAfWA|52=20231227-14:29:44.041|56=cServer|57=QUOTE|10=063|8=FIX.4.4|9=114|35=0|34=147|49=demo.ctrader.3873996|50=3873996ut3j0ZRIKwH8RgDiXTAfWA|52=20231227-14:30:14.062|56=cServer|57=QUOTE|10=056|8=FIX.4.4|9=114|35=0|34=148|49=demo.ctrader.3873996|50=3873996ut3j0ZRIKwH8RgDiXTAfWA|52=20231227-14:30:44.065|56=cServer|57=QUOTE|10=063|8=FIX.4.4|9=114|35=0|34=149|49=demo.ctrader.3873996|50=3873996ut3j0ZRIKwH8RgDiXTAfWA|52=20231227-14:31:14.079|56=cServer|57=QUOTE|10=067|8=FIX.4.4|9=114|35=0|34=150|49=demo.ctrader.3873996|50=3873996ut3j0ZRIKwH8RgDiXTAfWA|52=20231227-14:31:44.080|56=cServer|57=QUOTE|10=054|8=FIX.4.4|9=114|35=0|34=151|49=demo.ctrader.3873996|50=3873996ut3j0ZRIKwH8RgDiXTAfWA|52=20231227-14:32:14.091|56=cServer|57=QUOTE|10=055|8=FIX.4.4|9=114|35=0|34=152|49=demo.ctrader.3873996|50=3873996ut3j0ZRIKwH8RgDiXTAfWA|52=20231227-14:32:44.098|56=cServer|57=QUOTE|10=066|8=FIX.4.4|9=114|35=0|34=153|49=demo.ctrader.3873996|50=3873996ut3j0ZRIKwH8RgDiXTAfWA|52=20231227-14:33:14.110|56=cServer|57=QUOTE|10=050|8=FIX.4.4|9=114|35=0|34=154|49=demo.ctrader.3873996|50=3873996ut3j0ZRIKwH8RgDiXTAfWA|52=20231227-14:33:44.130|56=cServer|57=QUOTE|10=056|8=FIX.4.4|9=114|35=0|34=155|49=demo.ctrader.3873996|50=3873996ut3j0ZRIKwH8RgDiXTAfWA|52=20231227-14:34:14.162|56=cServer|57=QUOTE|10=060|8=FIX.4.4|9=114|35=0|34=156|49=demo.ctrader.3873996|50=3873996ut3j0ZRIKwH8RgDiXTAfWA|52=20231227-14:34:44.258|56=cServer|57=QUOTE|10=070|8=FIX.4.4|9=114|35=0|34=157|49=demo.ctrader.3873996|50=3873996ut3j0ZRIKwH8RgDiXTAfWA|52=20231227-14:35:14.258|56=cServer|57=QUOTE|10=069|8=FIX.4.4|9=114|35=0|34=158|49=demo.ctrader.3873996|50=3873996ut3j0ZRIKwH8RgDiXTAfWA|52=20231227-14:35:44.277|56=cServer|57=QUOTE|10=074|8=FIX.4.4|9=114|35=0|34=159|49=demo.ctrader.3873996|50=3873996ut3j0ZRIKwH8RgDiXTAfWA|52=20231227-14:36:14.399|56=cServer|57=QUOTE|10=078|8=FIX.4.4|9=114|35=0|34=160|49=demo.ctrader.3873996|50=3873996ut3j0ZRIKwH8RgDiXTAfWA|52=20231227-14:36:44.428|56=cServer|57=QUOTE|10=066|8=FIX.4.4|9=114|35=0|34=161|49=demo.ctrader.3873996|50=3873996ut3j0ZRIKwH8RgDiXTAfWA|52=20231227-14:37:14.458|56=cServer|57=QUOTE|10=068|8=FIX.4.4|9=114|35=0|34=162|49=demo.ctrader.3873996|50=3873996ut3j0ZRIKwH8RgDiXTAfWA|52=20231227-14:37:44.465|56=cServer|57=QUOTE|10=070|8=FIX.4.4|9=114|35=0|34=163|49=demo.ctrader.3873996|50=3873996ut3j0ZRIKwH8RgDiXTAfWA|52=20231227-14:38:14.737|56=cServer|57=QUOTE|10=071|8=FIX.4.4|9=114|35=0|34=164|49=demo.ctrader.3873996|50=3873996ut3j0ZRIKwH8RgDiXTAfWA|52=20231227-14:38:44.785|56=cServer|57=QUOTE|10=078|8=FIX.4.4|9=114|35=0|34=165|49=demo.ctrader.3873996|50=3873996ut3j0ZRIKwH8RgDiXTAfWA|52=20231227-14:39:14.891|56=cServer|57=QUOTE|10=075|8=FIX.4.4|9=114|35=0|34=166|49=demo.ctrader.3873996|50=3873996ut3j0ZRIKwH8RgDiXTAfWA|52=20231227-14:39:44.986|56=cServer|57=QUOTE|10=084|8=FIX.4.4|9=114|35=0|34=167|49=demo.ctrader.3873996|50=3873996ut3j0ZRIKwH8RgDiXTAfWA|52=20231227-14:40:14.986|56=cServer|57=QUOTE|10=074|8=FIX.4.4|9=114|35=0|34=168|49=demo.ctrader.3873996|50=3873996ut3j0ZRIKwH8RgDiXTAfWA|52=20231227-14:40:45.082|56=cServer|57=QUOTE|10=066|8=FIX.4.4|9=114|35=0|34=169|49=demo.ctrader.3873996|50=3873996ut3j0ZRIKwH8RgDiXTAfWA|52=20231227-14:41:15.121|56=cServer|57=QUOTE|10=059|8=FIX.4.4|9=114|35=0|34=170|49=demo.ctrader.3873996|50=3873996ut3j0ZRIKwH8RgDiXTAfWA|52=20231227-14:41:45.159|56=cServer|57=QUOTE|10=065|8=FIX.4.4|9=114|35=0|34=171|49=demo.ctrader.3873996|50=3873996ut3j0ZRIKwH8RgDiXTAfWA|52=20231227-14:42:15.168|56=cServer|57=QUOTE|10=064|8=FIX.4.4|9=114|35=0|34=172|49=demo.ctrader.3873996|50=3873996ut3j0ZRIKwH8RgDiXTAfWA|52=20231227-14:42:45.179|56=cServer|57=QUOTE|10=070|8=FIX.4.4|9=114|35=0|34=173|49=demo.ctrader.3873996|50=3873996ut3j0ZRIKwH8RgDiXTAfWA|52=20231227-14:43:15.384|56=cServer|57=QUOTE|10=067|8=FIX.4.4|9=114|35=0|34=174|49=demo.ctrader.3873996|50=3873996ut3j0ZRIKwH8RgDiXTAfWA|52=20231227-14:43:45.446|56=cServer|57=QUOTE|10=070|8=FIX.4.4|9=114|35=0|34=175|49=demo.ctrader.3873996|50=3873996ut3j0ZRIKwH8RgDiXTAfWA|52=20231227-14:44:15.457|56=cServer|57=QUOTE|10=071|8=FIX.4.4|9=114|35=0|34=176|49=demo.ctrader.3873996|50=3873996ut3j0ZRIKwH8RgDiXTAfWA|52=20231227-14:44:45.482|56=cServer|57=QUOTE|10=073|8=FIX.4.4|9=114|35=0|34=177|49=demo.ctrader.3873996|50=3873996ut3j0ZRIKwH8RgDiXTAfWA|52=20231227-14:45:15.497|56=cServer|57=QUOTE|10=078|8=FIX.4.4|9=114|35=0|34=178|49=demo.ctrader.3873996|50=3873996ut3j0ZRIKwH8RgDiXTAfWA|52=20231227-14:45:45.517|56=cServer|57=QUOTE|10=075|8=FIX.4.4|9=114|35=0|34=179|49=demo.ctrader.3873996|50=3873996ut3j0ZRIKwH8RgDiXTAfWA|52=20231227-14:46:15.556|56=cServer|57=QUOTE|10=077|8=FIX.4.4|9=114|35=0|34=180|49=demo.ctrader.3873996|50=3873996ut3j0ZRIKwH8RgDiXTAfWA|52=20231227-14:46:45.653|56=cServer|57=QUOTE|10=070|8=FIX.4.4|9=114|35=0|34=181|49=demo.ctrader.3873996|50=3873996ut3j0ZRIKwH8RgDiXTAfWA|52=20231227-14:47:15.656|56=cServer|57=QUOTE|10=072|8=FIX.4.4|9=114|35=0|34=182|49=demo.ctrader.3873996|50=3873996ut3j0ZRIKwH8RgDiXTAfWA|52=20231227-14:47:45.657|56=cServer|57=QUOTE|10=077|8=FIX.4.4|9=114|35=0|34=183|49=demo.ctrader.3873996|50=3873996ut3j0ZRIKwH8RgDiXTAfWA|52=20231227-14:48:15.658|56=cServer|57=QUOTE|10=077|8=FIX.4.4|9=114|35=0|34=184|49=demo.ctrader.3873996|50=3873996ut3j0ZRIKwH8RgDiXTAfWA|52=20231227-14:48:45.757|56=cServer|57=QUOTE|10=081|8=FIX.4.4|9=114|35=0|34=185|49=demo.ctrader.3873996|50=3873996ut3j0ZRIKwH8RgDiXTAfWA|52=20231227-14:49:15.758|56=cServer|57=QUOTE|10=081|8=FIX.4.4|9=114|35=0|34=186|49=demo.ctrader.3873996|50=3873996ut3j0ZRIKwH8RgDiXTAfWA|52=20231227-14:49:45.761|56=cServer|57=QUOTE|10=079|8=FIX.4.4|9=114|35=0|34=187|49=demo.ctrader.3873996|50=3873996ut3j0ZRIKwH8RgDiXTAfWA|52=20231227-14:50:15.788|56=cServer|57=QUOTE|10=078|8=FIX.4.4|9=114|35=0|34=188|49=demo.ctrader.3873996|50=3873996ut3j0ZRIKwH8RgDiXTAfWA|52=20231227-14:50:45.814|56=cServer|57=QUOTE|10=072|8=FIX.4.4|9=114|35=0|34=189|49=demo.ctrader.3873996|50=3873996ut3j0ZRIKwH8RgDiXTAfWA|52=20231227-14:51:15.815|56=cServer|57=QUOTE|10=072|8=FIX.4.4|9=114|35=0|34=190|49=demo.ctrader.3873996|50=3873996ut3j0ZRIKwH8RgDiXTAfWA|52=20231227-14:51:45.971|56=cServer|57=QUOTE|10=070|8=FIX.4.4|9=114|35=0|34=191|49=demo.ctrader.3873996|50=3873996ut3j0ZRIKwH8RgDiXTAfWA|52=20231227-14:52:16.007|56=cServer|57=QUOTE|10=060|8=FIX.4.4|9=114|35=0|34=192|49=demo.ctrader.3873996|50=3873996ut3j0ZRIKwH8RgDiXTAfWA|52=20231227-14:52:46.018|56=cServer|57=QUOTE|10=066|8=FIX.4.4|9=114|35=0|34=193|49=demo.ctrader.3873996|50=3873996ut3j0ZRIKwH8RgDiXTAfWA|52=20231227-14:53:16.096|56=cServer|57=QUOTE|10=071|8=FIX.4.4|9=114|35=0|34=194|49=demo.ctrader.3873996|50=3873996ut3j0ZRIKwH8RgDiXTAfWA|52=20231227-14:53:46.107|56=cServer|57=QUOTE|10=068|8=FIX.4.4|9=114|35=0|34=195|49=demo.ctrader.3873996|50=3873996ut3j0ZRIKwH8RgDiXTAfWA|52=20231227-14:54:16.110|56=cServer|57=QUOTE|10=061|8=FIX.4.4|9=114|35=0|34=196|49=demo.ctrader.3873996|50=3873996ut3j0ZRIKwH8RgDiXTAfWA|52=20231227-14:54:46.173|56=cServer|57=QUOTE|10=074|8=FIX.4.4|9=114|35=0|34=197|49=demo.ctrader.3873996|50=3873996ut3j0ZRIKwH8RgDiXTAfWA|52=20231227-14:55:16.199|56=cServer|57=QUOTE|10=081|8=FIX.4.4|9=114|35=0|34=198|49=demo.ctrader.3873996|50=3873996ut3j0ZRIKwH8RgDiXTAfWA|52=20231227-14:55:46.258|56=cServer|57=QUOTE|10=081|8=FIX.4.4|9=114|35=0|34=199|49=demo.ctrader.3873996|50=3873996ut3j0ZRIKwH8RgDiXTAfWA|52=20231227-14:56:16.280|56=cServer|57=QUOTE|10=075|8=FIX.4.4|9=114|35=0|34=200|49=demo.ctrader.3873996|50=3873996ut3j0ZRIKwH8RgDiXTAfWA|52=20231227-14:56:46.291|56=cServer|57=QUOTE|10=063|8=FIX.4.4|9=114|35=0|34=201|49=demo.ctrader.3873996|50=3873996ut3j0ZRIKwH8RgDiXTAfWA|52=20231227-14:57:16.307|56=cServer|57=QUOTE|10=060|8=FIX.4.4|9=114|35=0|34=202|49=demo.ctrader.3873996|50=3873996ut3j0ZRIKwH8RgDiXTAfWA|52=20231227-14:57:46.310|56=cServer|57=QUOTE|10=058|8=FIX.4.4|9=114|35=0|34=203|49=demo.ctrader.3873996|50=3873996ut3j0ZRIKwH8RgDiXTAfWA|52=20231227-14:58:16.327|56=cServer|57=QUOTE|10=065|8=FIX.4.4|9=114|35=0|34=204|49=demo.ctrader.3873996|50=3873996ut3j0ZRIKwH8RgDiXTAfWA|52=20231227-14:58:46.401|56=cServer|57=QUOTE|10=062|8=FIX.4.4|9=114|35=0|34=205|49=demo.ctrader.3873996|50=3873996ut3j0ZRIKwH8RgDiXTAfWA|52=20231227-14:59:16.411|56=cServer|57=QUOTE|10=062|8=FIX.4.4|9=114|35=0|34=206|49=demo.ctrader.3873996|50=3873996ut3j0ZRIKwH8RgDiXTAfWA|52=20231227-14:59:46.413|56=cServer|57=QUOTE|10=068|8=FIX.4.4|9=114|35=0|34=207|49=demo.ctrader.3873996|50=3873996ut3j0ZRIKwH8RgDiXTAfWA|52=20231227-15:00:16.433|56=cServer|57=QUOTE|10=055|8=FIX.4.4|9=114|35=0|34=208|49=demo.ctrader.3873996|50=3873996ut3j0ZRIKwH8RgDiXTAfWA|52=20231227-15:00:46.456|56=cServer|57=QUOTE|10=064|8=FIX.4.4|9=114|35=0|34=209|49=demo.ctrader.3873996|50=3873996ut3j0ZRIKwH8RgDiXTAfWA|52=20231227-15:01:16.481|56=cServer|57=QUOTE|10=061|8=FIX.4.4|9=114|35=0|34=210|49=demo.ctrader.3873996|50=3873996ut3j0ZRIKwH8RgDiXTAfWA|52=20231227-15:01:46.488|56=cServer|57=QUOTE|10=063|8=FIX.4.4|9=114|35=0|34=211|49=demo.ctrader.3873996|50=3873996ut3j0ZRIKwH8RgDiXTAfWA|52=20231227-15:02:16.549|56=cServer|57=QUOTE|10=060|8=FIX.4.4|9=114|35=0|34=212|49=demo.ctrader.3873996|50=3873996ut3j0ZRIKwH8RgDiXTAfWA|52=20231227-15:02:46.554|56=cServer|57=QUOTE|10=060|8=FIX.4.4|9=114|35=0|34=213|49=demo.ctrader.3873996|50=3873996ut3j0ZRIKwH8RgDiXTAfWA|52=20231227-15:03:16.556|56=cServer|57=QUOTE|10=061|8=FIX.4.4|9=114|35=0|34=214|49=demo.ctrader.3873996|50=3873996ut3j0ZRIKwH8RgDiXTAfWA|52=20231227-15:03:46.616|56=cServer|57=QUOTE|10=062|8=FIX.4.4|9=114|35=0|34=215|49=demo.ctrader.3873996|50=3873996ut3j0ZRIKwH8RgDiXTAfWA|52=20231227-15:04:16.647|56=cServer|57=QUOTE|10=065|8=FIX.4.4|9=114|35=0|34=216|49=demo.ctrader.3873996|50=3873996ut3j0ZRIKwH8RgDiXTAfWA|52=20231227-15:04:46.656|56=cServer|57=QUOTE|10=069|8=FIX.4.4|9=114|35=0|34=217|49=demo.ctrader.3873996|50=3873996ut3j0ZRIKwH8RgDiXTAfWA|52=20231227-15:05:16.659|56=cServer|57=QUOTE|10=071|8=FIX.4.4|9=114|35=0|34=218|49=demo.ctrader.3873996|50=3873996ut3j0ZRIKwH8RgDiXTAfWA|52=20231227-15:05:46.712|56=cServer|57=QUOTE|10=065|8=FIX.4.4|9=114|35=0|34=219|49=demo.ctrader.3873996|50=3873996ut3j0ZRIKwH8RgDiXTAfWA|52=20231227-15:06:16.757|56=cServer|57=QUOTE|10=073|8=FIX.4.4|9=114|35=0|34=220|49=demo.ctrader.3873996|50=3873996ut3j0ZRIKwH8RgDiXTAfWA|52=20231227-15:06:46.765|56=cServer|57=QUOTE|10=067|8=FIX.4.4|9=114|35=0|34=221|49=demo.ctrader.3873996|50=3873996ut3j0ZRIKwH8RgDiXTAfWA|52=20231227-15:07:16.865|56=cServer|57=QUOTE|10=067|8=FIX.4.4|9=114|35=0|34=222|49=demo.ctrader.3873996|50=3873996ut3j0ZRIKwH8RgDiXTAfWA|52=20231227-15:07:46.927|56=cServer|57=QUOTE|10=070|8=FIX.4.4|9=114|35=0|34=223|49=demo.ctrader.3873996|50=3873996ut3j0ZRIKwH8RgDiXTAfWA|52=20231227-15:08:16.940|56=cServer|57=QUOTE|10=064|8=FIX.4.4|9=114|35=0|34=224|49=demo.ctrader.3873996|50=3873996ut3j0ZRIKwH8RgDiXTAfWA|52=20231227-15:08:47.343|56=cServer|57=QUOTE|10=066|8=FIX.4.4|9=114|35=0|34=225|49=demo.ctrader.3873996|50=3873996ut3j0ZRIKwH8RgDiXTAfWA|52=20231227-15:09:17.357|56=cServer|57=QUOTE|10=070|8=FIX.4.4|9=114|35=0|34=226|49=demo.ctrader.3873996|50=3873996ut3j0ZRIKwH8RgDiXTAfWA|52=20231227-15:09:47.420|56=cServer|57=QUOTE|10=065|8=FIX.4.4|9=114|35=0|34=227|49=demo.ctrader.3873996|50=3873996ut3j0ZRIKwH8RgDiXTAfWA|52=20231227-15:10:17.447|56=cServer|57=QUOTE|10=064|8=FIX.4.4|9=114|35=0|34=228|49=demo.ctrader.3873996|50=3873996ut3j0ZRIKwH8RgDiXTAfWA|52=20231227-15:10:47.457|56=cServer|57=QUOTE|10=069|8=FIX.4.4|9=114|35=0|34=229|49=demo.ctrader.3873996|50=3873996ut3j0ZRIKwH8RgDiXTAfWA|52=20231227-15:11:17.477|56=cServer|57=QUOTE|10=070|8=FIX.4.4|9=114|35=0|34=230|49=demo.ctrader.3873996|50=3873996ut3j0ZRIKwH8RgDiXTAfWA|52=20231227-15:11:47.584|56=cServer|57=QUOTE|10=064|8=FIX.4.4|9=114|35=0|34=231|49=demo.ctrader.3873996|50=3873996ut3j0ZRIKwH8RgDiXTAfWA|52=20231227-15:12:17.586|56=cServer|57=QUOTE|10=065|8=FIX.4.4|9=114|35=0|34=232|49=demo.ctrader.3873996|50=3873996ut3j0ZRIKwH8RgDiXTAfWA|52=20231227-15:12:47.589|56=cServer|57=QUOTE|10=072|8=FIX.4.4|9=114|35=0|34=233|49=demo.ctrader.3873996|50=3873996ut3j0ZRIKwH8RgDiXTAfWA|52=20231227-15:13:17.610|56=cServer|57=QUOTE|10=056|8=FIX.4.4|9=114|35=0|34=234|49=demo.ctrader.3873996|50=3873996ut3j0ZRIKwH8RgDiXTAfWA|52=20231227-15:13:47.617|56=cServer|57=QUOTE|10=067|8=FIX.4.4|9=114|35=0|34=235|49=demo.ctrader.3873996|50=3873996ut3j0ZRIKwH8RgDiXTAfWA|52=20231227-15:14:17.626|56=cServer|57=QUOTE|10=066|8=FIX.4.4|9=114|35=0|34=236|49=demo.ctrader.3873996|50=3873996ut3j0ZRIKwH8RgDiXTAfWA|52=20231227-15:14:47.654|56=cServer|57=QUOTE|10=071|8=FIX.4.4|9=114|35=0|34=237|49=demo.ctrader.3873996|50=3873996ut3j0ZRIKwH8RgDiXTAfWA|52=20231227-15:15:17.664|56=cServer|57=QUOTE|10=071|8=FIX.4.4|9=114|35=0|34=238|49=demo.ctrader.3873996|50=3873996ut3j0ZRIKwH8RgDiXTAfWA|52=20231227-15:15:47.664|56=cServer|57=QUOTE|10=075|8=FIX.4.4|9=114|35=0|34=239|49=demo.ctrader.3873996|50=3873996ut3j0ZRIKwH8RgDiXTAfWA|52=20231227-15:16:17.676|56=cServer|57=QUOTE|10=077|8=FIX.4.4|9=114|35=0|34=240|49=demo.ctrader.3873996|50=3873996ut3j0ZRIKwH8RgDiXTAfWA|52=20231227-15:16:47.689|56=cServer|57=QUOTE|10=076|8=FIX.4.4|9=114|35=0|34=241|49=demo.ctrader.3873996|50=3873996ut3j0ZRIKwH8RgDiXTAfWA|52=20231227-15:17:17.742|56=cServer|57=QUOTE|10=065|8=FIX.4.4|9=114|35=0|34=242|49=demo.ctrader.3873996|50=3873996ut3j0ZRIKwH8RgDiXTAfWA|52=20231227-15:17:47.753|56=cServer|57=QUOTE|10=071|8=FIX.4.4|9=114|35=0|34=243|49=demo.ctrader.3873996|50=3873996ut3j0ZRIKwH8RgDiXTAfWA|52=20231227-15:18:17.755|56=cServer|57=QUOTE|10=072|8=FIX.4.4|9=114|35=0|34=244|49=demo.ctrader.3873996|50=3873996ut3j0ZRIKwH8RgDiXTAfWA|52=20231227-15:18:47.764|56=cServer|57=QUOTE|10=076|8=FIX.4.4|9=114|35=0|34=245|49=demo.ctrader.3873996|50=3873996ut3j0ZRIKwH8RgDiXTAfWA|52=20231227-15:19:17.854|56=cServer|57=QUOTE|10=075|8=FIX.4.4|9=114|35=0|34=246|49=demo.ctrader.3873996|50=3873996ut3j0ZRIKwH8RgDiXTAfWA|52=20231227-15:19:47.909|56=cServer|57=QUOTE|10=080|8=FIX.4.4|9=114|35=0|34=247|49=demo.ctrader.3873996|50=3873996ut3j0ZRIKwH8RgDiXTAfWA|52=20231227-15:20:17.985|56=cServer|57=QUOTE|10=074|8=FIX.4.4|9=114|35=0|34=248|49=demo.ctrader.3873996|50=3873996ut3j0ZRIKwH8RgDiXTAfWA|52=20231227-15:20:47.988|56=cServer|57=QUOTE|10=081|8=FIX.4.4|9=114|35=0|34=249|49=demo.ctrader.3873996|50=3873996ut3j0ZRIKwH8RgDiXTAfWA|52=20231227-15:21:18.042|56=cServer|57=QUOTE|10=062|8=FIX.4.4|9=114|35=0|34=250|49=demo.ctrader.3873996|50=3873996ut3j0ZRIKwH8RgDiXTAfWA|52=20231227-15:21:48.048|56=cServer|57=QUOTE|10=063|8=FIX.4.4|9=114|35=0|34=251|49=demo.ctrader.3873996|50=3873996ut3j0ZRIKwH8RgDiXTAfWA|52=20231227-15:22:18.063|56=cServer|57=QUOTE|10=059|8=FIX.4.4|9=114|35=0|34=252|49=demo.ctrader.3873996|50=3873996ut3j0ZRIKwH8RgDiXTAfWA|52=20231227-15:22:48.141|56=cServer|57=QUOTE|10=060|8=FIX.4.4|9=114|35=0|34=253|49=demo.ctrader.3873996|50=3873996ut3j0ZRIKwH8RgDiXTAfWA|52=20231227-15:23:18.144|56=cServer|57=QUOTE|10=062|8=FIX.4.4|9=114|35=0|34=254|49=demo.ctrader.3873996|50=3873996ut3j0ZRIKwH8RgDiXTAfWA|52=20231227-15:23:48.144|56=cServer|57=QUOTE|10=066|8=FIX.4.4|9=114|35=0|34=255|49=demo.ctrader.3873996|50=3873996ut3j0ZRIKwH8RgDiXTAfWA|52=20231227-15:24:18.156|56=cServer|57=QUOTE|10=068|8=FIX.4.4|9=114|35=0|34=256|49=demo.ctrader.3873996|50=3873996ut3j0ZRIKwH8RgDiXTAfWA|52=20231227-15:24:48.174|56=cServer|57=QUOTE|10=072|8=FIX.4.4|9=114|35=0|34=257|49=demo.ctrader.3873996|50=3873996ut3j0ZRIKwH8RgDiXTAfWA|52=20231227-15:25:18.194|56=cServer|57=QUOTE|10=073|8=FIX.4.4|9=114|35=0|34=258|49=demo.ctrader.3873996|50=3873996ut3j0ZRIKwH8RgDiXTAfWA|52=20231227-15:25:48.293|56=cServer|57=QUOTE|10=077|8=FIX.4.4|9=114|35=0|34=259|49=demo.ctrader.3873996|50=3873996ut3j0ZRIKwH8RgDiXTAfWA|52=20231227-15:26:18.344|56=cServer|57=QUOTE|10=073|8=FIX.4.4|9=114|35=0|34=260|49=demo.ctrader.3873996|50=3873996ut3j0ZRIKwH8RgDiXTAfWA|52=20231227-15:26:48.352|56=cServer|57=QUOTE|10=067|8=FIX.4.4|9=114|35=0|34=261|49=demo.ctrader.3873996|50=3873996ut3j0ZRIKwH8RgDiXTAfWA|52=20231227-15:27:18.384|56=cServer|57=QUOTE|10=071|8=FIX.4.4|9=114|35=0|34=262|49=demo.ctrader.3873996|50=3873996ut3j0ZRIKwH8RgDiXTAfWA|52=20231227-15:27:48.430|56=cServer|57=QUOTE|10=067|8=FIX.4.4|9=114|35=0|34=263|49=demo.ctrader.3873996|50=3873996ut3j0ZRIKwH8RgDiXTAfWA|52=20231227-15:28:18.486|56=cServer|57=QUOTE|10=077|8=FIX.4.4|9=114|35=0|34=264|49=demo.ctrader.3873996|50=3873996ut3j0ZRIKwH8RgDiXTAfWA|52=20231227-15:28:48.487|56=cServer|57=QUOTE|10=082|8=FIX.4.4|9=114|35=0|34=265|49=demo.ctrader.3873996|50=3873996ut3j0ZRIKwH8RgDiXTAfWA|52=20231227-15:29:18.555|56=cServer|57=QUOTE|10=077|8=FIX.4.4|9=114|35=0|34=266|49=demo.ctrader.3873996|50=3873996ut3j0ZRIKwH8RgDiXTAfWA|52=20231227-15:29:48.609|56=cServer|57=QUOTE|10=081|8=FIX.4.4|9=114|35=0|34=267|49=demo.ctrader.3873996|50=3873996ut3j0ZRIKwH8RgDiXTAfWA|52=20231227-15:30:18.693|56=cServer|57=QUOTE|10=074|