8=FIX.4.4|9=244|35=A|34=1|49=demo.ctrader.3873996|50=3873996Beo6PsvnRtyumBg8pGuh_Q|52=20240104-12:21:54.401|56=cServer|57=TRADE|49=demo.ctrader.3873996|50=3873996Beo6PsvnRtyumBg8pGuh_Q|52=20240104-12:21:54|56=cServer|98=0|108=30|141=Y|553=3873996|554=Gtlfx125|10=187|8=FIX.4.4|9=130|35=x|34=2|49=demo.ctrader.3873996|50=3873996Beo6PsvnRtyumBg8pGuh_Q|52=20240104-12:21:54.853|56=cServer|57=TRADE|320=symbols|559=0|10=226|8=FIX.4.4|9=127|35=AN|34=3|49=demo.ctrader.3873996|50=3873996Beo6PsvnRtyumBg8pGuh_Q|52=20240104-12:21:55.084|56=cServer|57=TRADE|710=Positions|10=174|8=FIX.4.4|9=130|35=AF|34=4|49=demo.ctrader.3873996|50=3873996Beo6PsvnRtyumBg8pGuh_Q|52=20240104-12:21:55.084|56=cServer|57=TRADE|584=Orders|585=7|10=104|8=FIX.4.4|9=112|35=0|34=5|49=demo.ctrader.3873996|50=3873996Beo6PsvnRtyumBg8pGuh_Q|52=20240104-12:22:25.753|56=cServer|57=TRADE|10=174|8=FIX.4.4|9=112|35=0|34=6|49=demo.ctrader.3873996|50=3873996Beo6PsvnRtyumBg8pGuh_Q|52=20240104-12:22:55.978|56=cServer|57=TRADE|10=187|8=FIX.4.4|9=226|35=5|34=7|49=demo.ctrader.3873996|50=3873996Beo6PsvnRtyumBg8pGuh_Q|52=20240104-12:23:16.715|56=cServer|57=TRADE|49=demo.ctrader.3873996|50=3873996Beo6PsvnRtyumBg8pGuh_Q|52=20240104-12:23:16|56=cServer|553=3873996|554=Gtlfx125|10=119|8=FIX.4.4|9=226|35=5|34=8|49=demo.ctrader.3873996|50=3873996Beo6PsvnRtyumBg8pGuh_Q|52=20240104-12:23:16.758|56=cServer|57=TRADE|49=demo.ctrader.3873996|50=3873996Beo6PsvnRtyumBg8pGuh_Q|52=20240104-12:23:16|56=cServer|553=3873996|554=Gtlfx125|10=127|