8=FIX.4.4|9=244|35=A|34=1|49=demo.ctrader.3873996|50=3873996C2O-9T6wLFciHk73UyQImA|52=20231215-14:41:44.333|56=cServer|57=TRADE|49=demo.ctrader.3873996|50=3873996C2O-9T6wLFciHk73UyQImA|52=20231215-14:41:44|56=cServer|98=0|108=30|141=Y|553=3873996|554=Gtlfx125|10=209|8=FIX.4.4|9=130|35=x|34=2|49=demo.ctrader.3873996|50=3873996C2O-9T6wLFciHk73UyQImA|52=20231215-14:41:44.819|56=cServer|57=TRADE|320=symbols|559=0|10=109|8=FIX.4.4|9=127|35=AN|34=3|49=demo.ctrader.3873996|50=3873996C2O-9T6wLFciHk73UyQImA|52=20231215-14:41:45.145|56=cServer|57=TRADE|710=Positions|10=053|8=FIX.4.4|9=130|35=AF|34=4|49=demo.ctrader.3873996|50=3873996C2O-9T6wLFciHk73UyQImA|52=20231215-14:41:45.146|56=cServer|57=TRADE|584=Orders|585=7|10=240|8=FIX.4.4|9=112|35=0|34=5|49=demo.ctrader.3873996|50=3873996C2O-9T6wLFciHk73UyQImA|52=20231215-14:42:15.336|56=cServer|57=TRADE|10=052|8=FIX.4.4|9=112|35=0|34=6|49=demo.ctrader.3873996|50=3873996C2O-9T6wLFciHk73UyQImA|52=20231215-14:42:46.377|56=cServer|57=TRADE|10=062|8=FIX.4.4|9=112|35=0|34=7|49=demo.ctrader.3873996|50=3873996C2O-9T6wLFciHk73UyQImA|52=20231215-14:43:17.355|56=cServer|57=TRADE|10=058|8=FIX.4.4|9=112|35=0|34=8|49=demo.ctrader.3873996|50=3873996C2O-9T6wLFciHk73UyQImA|52=20231215-14:43:47.392|56=cServer|57=TRADE|10=063|8=FIX.4.4|9=112|35=0|34=9|49=demo.ctrader.3873996|50=3873996C2O-9T6wLFciHk73UyQImA|52=20231215-14:44:18.395|56=cServer|57=TRADE|10=066|8=FIX.4.4|9=113|35=0|34=10|49=demo.ctrader.3873996|50=3873996C2O-9T6wLFciHk73UyQImA|52=20231215-14:44:48.564|56=cServer|57=TRADE|10=108|8=FIX.4.4|9=113|35=0|34=11|49=demo.ctrader.3873996|50=3873996C2O-9T6wLFciHk73UyQImA|52=20231215-14:45:18.568|56=cServer|57=TRADE|10=111|8=FIX.4.4|9=113|35=0|34=12|49=demo.ctrader.3873996|50=3873996C2O-9T6wLFciHk73UyQImA|52=20231215-14:45:49.442|56=cServer|57=TRADE|10=107|8=FIX.4.4|9=113|35=0|34=13|49=demo.ctrader.3873996|50=3873996C2O-9T6wLFciHk73UyQImA|52=20231215-14:46:19.460|56=cServer|57=TRADE|10=106|8=FIX.4.4|9=113|35=0|34=14|49=demo.ctrader.3873996|50=3873996C2O-9T6wLFciHk73UyQImA|52=20231215-14:46:50.461|56=cServer|57=TRADE|10=103|8=FIX.4.4|9=113|35=0|34=15|49=demo.ctrader.3873996|50=3873996C2O-9T6wLFciHk73UyQImA|52=20231215-14:47:20.501|56=cServer|57=TRADE|10=097|8=FIX.4.4|9=113|35=0|34=16|49=demo.ctrader.3873996|50=3873996C2O-9T6wLFciHk73UyQImA|52=20231215-14:47:51.433|56=cServer|57=TRADE|10=106|8=FIX.4.4|9=113|35=0|34=17|49=demo.ctrader.3873996|50=3873996C2O-9T6wLFciHk73UyQImA|52=20231215-14:48:22.204|56=cServer|57=TRADE|10=102|8=FIX.4.4|9=227|35=5|34=18|49=demo.ctrader.3873996|50=3873996C2O-9T6wLFciHk73UyQImA|52=20231215-14:48:24.207|56=cServer|57=TRADE|49=demo.ctrader.3873996|50=3873996C2O-9T6wLFciHk73UyQImA|52=20231215-14:48:24|56=cServer|553=3873996|554=Gtlfx125|10=194|8=FIX.4.4|9=227|35=5|34=19|49=demo.ctrader.3873996|50=3873996C2O-9T6wLFciHk73UyQImA|52=20231215-14:48:25.390|56=cServer|57=TRADE|49=demo.ctrader.3873996|50=3873996C2O-9T6wLFciHk73UyQImA|52=20231215-14:48:25|56=cServer|553=3873996|554=Gtlfx125|10=200|