8=FIX.4.4|9=244|35=A|34=1|49=demo.ctrader.3873996|50=3873996uq8hKYvaw1cjZMGUu9A4cw|52=20231226-08:57:54.208|56=cServer|57=TRADE|49=demo.ctrader.3873996|50=3873996uq8hKYvaw1cjZMGUu9A4cw|52=20231226-08:57:54|56=cServer|98=0|108=30|141=Y|553=3873996|554=Gtlfx125|10=224|8=FIX.4.4|9=130|35=x|34=2|49=demo.ctrader.3873996|50=3873996uq8hKYvaw1cjZMGUu9A4cw|52=20231226-08:57:58.028|56=cServer|57=TRADE|320=symbols|559=0|10=112|8=FIX.4.4|9=127|35=AN|34=3|49=demo.ctrader.3873996|50=3873996uq8hKYvaw1cjZMGUu9A4cw|52=20231226-08:58:00.902|56=cServer|57=TRADE|710=Positions|10=052|8=FIX.4.4|9=130|35=AF|34=4|49=demo.ctrader.3873996|50=3873996uq8hKYvaw1cjZMGUu9A4cw|52=20231226-08:58:00.902|56=cServer|57=TRADE|584=Orders|585=7|10=238|8=FIX.4.4|9=112|35=0|34=5|49=demo.ctrader.3873996|50=3873996uq8hKYvaw1cjZMGUu9A4cw|52=20231226-08:58:31.297|56=cServer|57=TRADE|10=062|8=FIX.4.4|9=112|35=0|34=6|49=demo.ctrader.3873996|50=3873996uq8hKYvaw1cjZMGUu9A4cw|52=20231226-08:59:01.570|56=cServer|57=TRADE|10=055|8=FIX.4.4|9=112|35=0|34=7|49=demo.ctrader.3873996|50=3873996uq8hKYvaw1cjZMGUu9A4cw|52=20231226-08:59:31.761|56=cServer|57=TRADE|10=061|8=FIX.4.4|9=112|35=0|34=8|49=demo.ctrader.3873996|50=3873996uq8hKYvaw1cjZMGUu9A4cw|52=20231226-09:00:01.762|56=cServer|57=TRADE|10=047|8=FIX.4.4|9=112|35=0|34=9|49=demo.ctrader.3873996|50=3873996uq8hKYvaw1cjZMGUu9A4cw|52=20231226-09:00:31.957|56=cServer|57=TRADE|10=057|8=FIX.4.4|9=113|35=0|34=10|49=demo.ctrader.3873996|50=3873996uq8hKYvaw1cjZMGUu9A4cw|52=20231226-09:01:02.789|56=cServer|57=TRADE|10=100|8=FIX.4.4|9=113|35=0|34=11|49=demo.ctrader.3873996|50=3873996uq8hKYvaw1cjZMGUu9A4cw|52=20231226-09:01:33.062|56=cServer|57=TRADE|10=089|8=FIX.4.4|9=113|35=0|34=12|49=demo.ctrader.3873996|50=3873996uq8hKYvaw1cjZMGUu9A4cw|52=20231226-09:02:03.783|56=cServer|57=TRADE|10=098|8=FIX.4.4|9=113|35=0|34=13|49=demo.ctrader.3873996|50=3873996uq8hKYvaw1cjZMGUu9A4cw|52=20231226-09:02:33.786|56=cServer|57=TRADE|10=105|8=FIX.4.4|9=113|35=0|34=14|49=demo.ctrader.3873996|50=3873996uq8hKYvaw1cjZMGUu9A4cw|52=20231226-09:03:04.796|56=cServer|57=TRADE|10=106|8=FIX.4.4|9=113|35=0|34=15|49=demo.ctrader.3873996|50=3873996uq8hKYvaw1cjZMGUu9A4cw|52=20231226-09:03:35.790|56=cServer|57=TRADE|10=105|8=FIX.4.4|9=113|35=0|34=16|49=demo.ctrader.3873996|50=3873996uq8hKYvaw1cjZMGUu9A4cw|52=20231226-09:04:06.800|56=cServer|57=TRADE|10=097|8=FIX.4.4|9=113|35=0|34=17|49=demo.ctrader.3873996|50=3873996uq8hKYvaw1cjZMGUu9A4cw|52=20231226-09:04:36.804|56=cServer|57=TRADE|10=105|8=FIX.4.4|9=113|35=0|34=18|49=demo.ctrader.3873996|50=3873996uq8hKYvaw1cjZMGUu9A4cw|52=20231226-09:05:07.804|56=cServer|57=TRADE|10=105|8=FIX.4.4|9=113|35=0|34=19|49=demo.ctrader.3873996|50=3873996uq8hKYvaw1cjZMGUu9A4cw|52=20231226-09:05:37.816|56=cServer|57=TRADE|10=112|8=FIX.4.4|9=113|35=0|34=20|49=demo.ctrader.3873996|50=3873996uq8hKYvaw1cjZMGUu9A4cw|52=20231226-09:06:07.826|56=cServer|57=TRADE|10=103|8=FIX.4.4|9=113|35=0|34=21|49=demo.ctrader.3873996|50=3873996uq8hKYvaw1cjZMGUu9A4cw|52=20231226-09:06:38.809|56=cServer|57=TRADE|10=109|8=FIX.4.4|9=113|35=0|34=22|49=demo.ctrader.3873996|50=3873996uq8hKYvaw1cjZMGUu9A4cw|52=20231226-09:07:08.813|56=cServer|57=TRADE|10=103|8=FIX.4.4|9=113|35=0|34=23|49=demo.ctrader.3873996|50=3873996uq8hKYvaw1cjZMGUu9A4cw|52=20231226-09:07:38.817|56=cServer|57=TRADE|10=111|8=FIX.4.4|9=113|35=0|34=24|49=demo.ctrader.3873996|50=3873996uq8hKYvaw1cjZMGUu9A4cw|52=20231226-09:08:09.812|56=cServer|57=TRADE|10=106|8=FIX.4.4|9=113|35=0|34=25|49=demo.ctrader.3873996|50=3873996uq8hKYvaw1cjZMGUu9A4cw|52=20231226-09:08:40.004|56=cServer|57=TRADE|10=095|8=FIX.4.4|9=113|35=0|34=26|49=demo.ctrader.3873996|50=3873996uq8hKYvaw1cjZMGUu9A4cw|52=20231226-09:09:10.994|56=cServer|57=TRADE|10=112|8=FIX.4.4|9=113|35=0|34=27|49=demo.ctrader.3873996|50=3873996uq8hKYvaw1cjZMGUu9A4cw|52=20231226-09:09:41.823|56=cServer|57=TRADE|10=108|8=FIX.4.4|9=113|35=0|34=28|49=demo.ctrader.3873996|50=3873996uq8hKYvaw1cjZMGUu9A4cw|52=20231226-09:10:11.840|56=cServer|57=TRADE|10=097|8=FIX.4.4|9=113|35=0|34=29|49=demo.ctrader.3873996|50=3873996uq8hKYvaw1cjZMGUu9A4cw|52=20231226-09:10:42.846|56=cServer|57=TRADE|10=108|8=FIX.4.4|9=113|35=0|34=30|49=demo.ctrader.3873996|50=3873996uq8hKYvaw1cjZMGUu9A4cw|52=20231226-09:11:12.918|56=cServer|57=TRADE|10=098|8=FIX.4.4|9=113|35=0|34=31|49=demo.ctrader.3873996|50=3873996uq8hKYvaw1cjZMGUu9A4cw|52=20231226-09:11:42.936|56=cServer|57=TRADE|10=102|8=FIX.4.4|9=113|35=0|34=32|49=demo.ctrader.3873996|50=3873996uq8hKYvaw1cjZMGUu9A4cw|52=20231226-09:12:13.920|56=cServer|57=TRADE|10=095|8=FIX.4.4|9=113|35=0|34=33|49=demo.ctrader.3873996|50=3873996uq8hKYvaw1cjZMGUu9A4cw|52=20231226-09:12:44.859|56=cServer|57=TRADE|10=111|8=FIX.4.4|9=113|35=0|34=34|49=demo.ctrader.3873996|50=3873996uq8hKYvaw1cjZMGUu9A4cw|52=20231226-09:13:15.019|56=cServer|57=TRADE|10=099|8=FIX.4.4|9=113|35=0|34=35|49=demo.ctrader.3873996|50=3873996uq8hKYvaw1cjZMGUu9A4cw|52=20231226-09:13:45.870|56=cServer|57=TRADE|10=108|8=FIX.4.4|9=113|35=0|34=36|49=demo.ctrader.3873996|50=3873996uq8hKYvaw1cjZMGUu9A4cw|52=20231226-09:14:16.862|56=cServer|57=TRADE|10=109|8=FIX.4.4|9=113|35=0|34=37|49=demo.ctrader.3873996|50=3873996uq8hKYvaw1cjZMGUu9A4cw|52=20231226-09:14:46.868|56=cServer|57=TRADE|10=119|8=FIX.4.4|9=113|35=0|34=38|49=demo.ctrader.3873996|50=3873996uq8hKYvaw1cjZMGUu9A4cw|52=20231226-09:15:16.873|56=cServer|57=TRADE|10=114|8=FIX.4.4|9=113|35=0|34=39|49=demo.ctrader.3873996|50=3873996uq8hKYvaw1cjZMGUu9A4cw|52=20231226-09:15:46.885|56=cServer|57=TRADE|10=121|8=FIX.4.4|9=113|35=0|34=40|49=demo.ctrader.3873996|50=3873996uq8hKYvaw1cjZMGUu9A4cw|52=20231226-09:16:17.863|56=cServer|57=TRADE|10=108|8=FIX.4.4|9=113|35=0|34=41|49=demo.ctrader.3873996|50=3873996uq8hKYvaw1cjZMGUu9A4cw|52=20231226-09:16:48.858|56=cServer|57=TRADE|10=117|8=FIX.4.4|9=113|35=0|34=42|49=demo.ctrader.3873996|50=3873996uq8hKYvaw1cjZMGUu9A4cw|52=20231226-09:17:18.883|56=cServer|57=TRADE|10=114|8=FIX.4.4|9=113|35=0|34=43|49=demo.ctrader.3873996|50=3873996uq8hKYvaw1cjZMGUu9A4cw|52=20231226-09:17:48.886|56=cServer|57=TRADE|10=121|8=FIX.4.4|9=113|35=0|34=44|49=demo.ctrader.3873996|50=3873996uq8hKYvaw1cjZMGUu9A4cw|52=20231226-09:18:18.895|56=cServer|57=TRADE|10=120|8=FIX.4.4|9=113|35=0|34=45|49=demo.ctrader.3873996|50=3873996uq8hKYvaw1cjZMGUu9A4cw|52=20231226-09:18:48.901|56=cServer|57=TRADE|10=112|8=FIX.4.4|9=113|35=0|34=46|49=demo.ctrader.3873996|50=3873996uq8hKYvaw1cjZMGUu9A4cw|52=20231226-09:19:19.885|56=cServer|57=TRADE|10=123|8=FIX.4.4|9=113|35=0|34=47|49=demo.ctrader.3873996|50=3873996uq8hKYvaw1cjZMGUu9A4cw|52=20231226-09:19:49.891|56=cServer|57=TRADE|10=124|8=FIX.4.4|9=113|35=0|34=48|49=demo.ctrader.3873996|50=3873996uq8hKYvaw1cjZMGUu9A4cw|52=20231226-09:20:19.914|56=cServer|57=TRADE|10=110|8=FIX.4.4|9=113|35=0|34=49|49=demo.ctrader.3873996|50=3873996uq8hKYvaw1cjZMGUu9A4cw|52=20231226-09:20:50.889|56=cServer|57=TRADE|10=117|8=FIX.4.4|9=113|35=0|34=50|49=demo.ctrader.3873996|50=3873996uq8hKYvaw1cjZMGUu9A4cw|52=20231226-09:21:20.990|56=cServer|57=TRADE|10=100|8=FIX.4.4|9=113|35=0|34=51|49=demo.ctrader.3873996|50=3873996uq8hKYvaw1cjZMGUu9A4cw|52=20231226-09:21:51.884|56=cServer|57=TRADE|10=107|8=FIX.4.4|9=113|35=0|34=52|49=demo.ctrader.3873996|50=3873996uq8hKYvaw1cjZMGUu9A4cw|52=20231226-09:22:21.944|56=cServer|57=TRADE|10=103|8=FIX.4.4|9=113|35=0|34=53|49=demo.ctrader.3873996|50=3873996uq8hKYvaw1cjZMGUu9A4cw|52=20231226-09:22:52.916|56=cServer|57=TRADE|10=107|8=FIX.4.4|9=113|35=0|34=54|49=demo.ctrader.3873996|50=3873996uq8hKYvaw1cjZMGUu9A4cw|52=20231226-09:23:23.863|56=cServer|57=TRADE|10=108|8=FIX.4.4|9=113|35=0|34=55|49=demo.ctrader.3873996|50=3873996uq8hKYvaw1cjZMGUu9A4cw|52=20231226-09:23:53.920|56=cServer|57=TRADE|10=106|8=FIX.4.4|9=113|35=0|34=56|49=demo.ctrader.3873996|50=3873996uq8hKYvaw1cjZMGUu9A4cw|52=20231226-09:24:23.923|56=cServer|57=TRADE|10=108|8=FIX.4.4|9=113|35=0|34=57|49=demo.ctrader.3873996|50=3873996uq8hKYvaw1cjZMGUu9A4cw|52=20231226-09:24:53.931|56=cServer|57=TRADE|10=111|8=FIX.4.4|9=113|35=0|34=58|49=demo.ctrader.3873996|50=3873996uq8hKYvaw1cjZMGUu9A4cw|52=20231226-09:25:24.897|56=cServer|57=TRADE|10=122|8=FIX.4.4|9=113|35=0|34=59|49=demo.ctrader.3873996|50=3873996uq8hKYvaw1cjZMGUu9A4cw|52=20231226-09:25:54.921|56=cServer|57=TRADE|10=114|8=FIX.4.4|9=113|35=0|34=60|49=demo.ctrader.3873996|50=3873996uq8hKYvaw1cjZMGUu9A4cw|52=20231226-09:26:25.922|56=cServer|57=TRADE|10=106|8=FIX.4.4|9=113|35=0|34=61|49=demo.ctrader.3873996|50=3873996uq8hKYvaw1cjZMGUu9A4cw|52=20231226-09:26:55.949|56=cServer|57=TRADE|10=119|8=FIX.4.4|9=113|35=0|34=62|49=demo.ctrader.3873996|50=3873996uq8hKYvaw1cjZMGUu9A4cw|52=20231226-09:27:26.949|56=cServer|57=TRADE|10=119|8=FIX.4.4|9=113|35=0|34=63|49=demo.ctrader.3873996|50=3873996uq8hKYvaw1cjZMGUu9A4cw|52=20231226-09:27:56.983|56=cServer|57=TRADE|10=121|8=FIX.4.4|9=113|35=0|34=64|49=demo.ctrader.3873996|50=3873996uq8hKYvaw1cjZMGUu9A4cw|52=20231226-09:28:27.966|56=cServer|57=TRADE|10=122|8=FIX.4.4|9=113|35=0|34=65|49=demo.ctrader.3873996|50=3873996uq8hKYvaw1cjZMGUu9A4cw|52=20231226-09:28:58.969|56=cServer|57=TRADE|10=130|8=FIX.4.4|9=113|35=0|34=66|49=demo.ctrader.3873996|50=3873996uq8hKYvaw1cjZMGUu9A4cw|52=20231226-09:29:29.967|56=cServer|57=TRADE|10=128|8=FIX.4.4|9=113|35=0|34=67|49=demo.ctrader.3873996|50=3873996uq8hKYvaw1cjZMGUu9A4cw|52=20231226-09:30:00.231|56=cServer|57=TRADE|10=094|8=FIX.4.4|9=113|35=0|34=68|49=demo.ctrader.3873996|50=3873996uq8hKYvaw1cjZMGUu9A4cw|52=20231226-09:30:31.048|56=cServer|57=TRADE|10=105|8=FIX.4.4|9=113|35=0|34=69|49=demo.ctrader.3873996|50=3873996uq8hKYvaw1cjZMGUu9A4cw|52=20231226-09:31:01.781|56=cServer|57=TRADE|10=108|8=FIX.4.4|9=113|35=0|34=70|49=demo.ctrader.3873996|50=3873996uq8hKYvaw1cjZMGUu9A4cw|52=20231226-09:31:32.771|56=cServer|57=TRADE|10=103|8=FIX.4.4|9=113|35=0|34=71|49=demo.ctrader.3873996|50=3873996uq8hKYvaw1cjZMGUu9A4cw|52=20231226-09:32:02.884|56=cServer|57=TRADE|10=107|8=FIX.4.4|9=113|35=0|34=72|49=demo.ctrader.3873996|50=3873996uq8hKYvaw1cjZMGUu9A4cw|52=20231226-09:32:33.772|56=cServer|57=TRADE|10=108|8=FIX.4.4|9=113|35=0|34=73|49=demo.ctrader.3873996|50=3873996uq8hKYvaw1cjZMGUu9A4cw|52=20231226-09:33:04.655|56=cServer|57=TRADE|10=108|8=FIX.4.4|9=113|35=0|34=74|49=demo.ctrader.3873996|50=3873996uq8hKYvaw1cjZMGUu9A4cw|52=20231226-09:33:34.789|56=cServer|57=TRADE|10=120|8=FIX.4.4|9=113|35=0|34=75|49=demo.ctrader.3873996|50=3873996uq8hKYvaw1cjZMGUu9A4cw|52=20231226-09:34:05.787|56=cServer|57=TRADE|10=118|8=FIX.4.4|9=113|35=0|34=76|49=demo.ctrader.3873996|50=3873996uq8hKYvaw1cjZMGUu9A4cw|52=20231226-09:34:35.792|56=cServer|57=TRADE|10=118|8=FIX.4.4|9=113|35=0|34=77|49=demo.ctrader.3873996|50=3873996uq8hKYvaw1cjZMGUu9A4cw|52=20231226-09:35:06.791|56=cServer|57=TRADE|10=117|8=FIX.4.4|9=113|35=0|34=78|49=demo.ctrader.3873996|50=3873996uq8hKYvaw1cjZMGUu9A4cw|52=20231226-09:35:37.797|56=cServer|57=TRADE|10=128|8=FIX.4.4|9=113|35=0|34=79|49=demo.ctrader.3873996|50=3873996uq8hKYvaw1cjZMGUu9A4cw|52=20231226-09:36:07.816|56=cServer|57=TRADE|10=119|8=FIX.4.4|9=113|35=0|34=80|49=demo.ctrader.3873996|50=3873996uq8hKYvaw1cjZMGUu9A4cw|52=20231226-09:36:38.799|56=cServer|57=TRADE|10=125|8=FIX.4.4|9=113|35=0|34=81|49=demo.ctrader.3873996|50=3873996uq8hKYvaw1cjZMGUu9A4cw|52=20231226-09:37:08.804|56=cServer|57=TRADE|10=111|8=FIX.4.4|9=113|35=0|34=82|49=demo.ctrader.3873996|50=3873996uq8hKYvaw1cjZMGUu9A4cw|52=20231226-09:37:38.815|56=cServer|57=TRADE|10=117|8=FIX.4.4|9=113|35=0|34=83|49=demo.ctrader.3873996|50=3873996uq8hKYvaw1cjZMGUu9A4cw|52=20231226-09:38:09.814|56=cServer|57=TRADE|10=116|8=FIX.4.4|9=113|35=0|34=84|49=demo.ctrader.3873996|50=3873996uq8hKYvaw1cjZMGUu9A4cw|52=20231226-09:38:39.841|56=cServer|57=TRADE|10=120|8=FIX.4.4|9=113|35=0|34=85|49=demo.ctrader.3873996|50=3873996uq8hKYvaw1cjZMGUu9A4cw|52=20231226-09:39:10.826|56=cServer|57=TRADE|10=114|8=FIX.4.4|9=113|35=0|34=86|49=demo.ctrader.3873996|50=3873996uq8hKYvaw1cjZMGUu9A4cw|52=20231226-09:39:40.839|56=cServer|57=TRADE|10=122|8=FIX.4.4|9=113|35=0|34=87|49=demo.ctrader.3873996|50=3873996uq8hKYvaw1cjZMGUu9A4cw|52=20231226-09:40:11.833|56=cServer|57=TRADE|10=107|8=FIX.4.4|9=113|35=0|34=88|49=demo.ctrader.3873996|50=3873996uq8hKYvaw1cjZMGUu9A4cw|52=20231226-09:40:41.978|56=cServer|57=TRADE|10=121|8=FIX.4.4|9=113|35=0|34=89|49=demo.ctrader.3873996|50=3873996uq8hKYvaw1cjZMGUu9A4cw|52=20231226-09:41:12.861|56=cServer|57=TRADE|10=112|8=FIX.4.4|9=113|35=0|34=90|49=demo.ctrader.3873996|50=3873996uq8hKYvaw1cjZMGUu9A4cw|52=20231226-09:41:43.846|56=cServer|57=TRADE|10=111|8=FIX.4.4|9=113|35=0|34=91|49=demo.ctrader.3873996|50=3873996uq8hKYvaw1cjZMGUu9A4cw|52=20231226-09:42:13.902|56=cServer|57=TRADE|10=103|8=FIX.4.4|9=113|35=0|34=92|49=demo.ctrader.3873996|50=3873996uq8hKYvaw1cjZMGUu9A4cw|52=20231226-09:42:43.951|56=cServer|57=TRADE|10=111|8=FIX.4.4|9=113|35=0|34=93|49=demo.ctrader.3873996|50=3873996uq8hKYvaw1cjZMGUu9A4cw|52=20231226-09:43:14.840|56=cServer|57=TRADE|10=108|8=FIX.4.4|9=113|35=0|34=94|49=demo.ctrader.3873996|50=3873996uq8hKYvaw1cjZMGUu9A4cw|52=20231226-09:43:45.842|56=cServer|57=TRADE|10=115|8=FIX.4.4|9=113|35=0|34=95|49=demo.ctrader.3873996|50=3873996uq8hKYvaw1cjZMGUu9A4cw|52=20231226-09:44:15.855|56=cServer|57=TRADE|10=118|8=FIX.4.4|9=113|35=0|34=96|49=demo.ctrader.3873996|50=3873996uq8hKYvaw1cjZMGUu9A4cw|52=20231226-09:44:46.057|56=cServer|57=TRADE|10=117|8=FIX.4.4|9=113|35=0|34=97|49=demo.ctrader.3873996|50=3873996uq8hKYvaw1cjZMGUu9A4cw|52=20231226-09:45:16.847|56=cServer|57=TRADE|10=123|8=FIX.4.4|9=113|35=0|34=98|49=demo.ctrader.3873996|50=3873996uq8hKYvaw1cjZMGUu9A4cw|52=20231226-09:45:46.933|56=cServer|57=TRADE|10=123|8=FIX.4.4|9=113|35=0|34=99|49=demo.ctrader.3873996|50=3873996uq8hKYvaw1cjZMGUu9A4cw|52=20231226-09:46:17.871|56=cServer|57=TRADE|10=124|8=FIX.4.4|9=114|35=0|34=100|49=demo.ctrader.3873996|50=3873996uq8hKYvaw1cjZMGUu9A4cw|52=20231226-09:46:48.851|56=cServer|57=TRADE|10=158|8=FIX.4.4|9=114|35=0|34=101|49=demo.ctrader.3873996|50=3873996uq8hKYvaw1cjZMGUu9A4cw|52=20231226-09:47:18.980|56=cServer|57=TRADE|10=160|8=FIX.4.4|9=114|35=0|34=102|49=demo.ctrader.3873996|50=3873996uq8hKYvaw1cjZMGUu9A4cw|52=20231226-09:47:49.893|56=cServer|57=TRADE|10=168|8=FIX.4.4|9=114|35=0|34=103|49=demo.ctrader.3873996|50=3873996uq8hKYvaw1cjZMGUu9A4cw|52=20231226-09:48:19.906|56=cServer|57=TRADE|10=162|8=FIX.4.4|9=114|35=0|34=104|49=demo.ctrader.3873996|50=3873996uq8hKYvaw1cjZMGUu9A4cw|52=20231226-09:48:50.897|56=cServer|57=TRADE|10=167|8=FIX.4.4|9=114|35=0|34=105|49=demo.ctrader.3873996|50=3873996uq8hKYvaw1cjZMGUu9A4cw|52=20231226-09:49:20.954|56=cServer|57=TRADE|10=160|8=FIX.4.4|9=114|35=0|34=106|49=demo.ctrader.3873996|50=3873996uq8hKYvaw1cjZMGUu9A4cw|52=20231226-09:49:51.232|56=cServer|57=TRADE|10=154|8=FIX.4.4|9=114|35=0|34=107|49=demo.ctrader.3873996|50=3873996uq8hKYvaw1cjZMGUu9A4cw|52=20231226-09:50:21.880|56=cServer|57=TRADE|10=153|8=FIX.4.4|9=114|35=0|34=108|49=demo.ctrader.3873996|50=3873996uq8hKYvaw1cjZMGUu9A4cw|52=20231226-09:50:51.885|56=cServer|57=TRADE|10=162|8=FIX.4.4|9=114|35=0|34=109|49=demo.ctrader.3873996|50=3873996uq8hKYvaw1cjZMGUu9A4cw|52=20231226-09:51:21.927|56=cServer|57=TRADE|10=158|8=FIX.4.4|9=114|35=0|34=110|49=demo.ctrader.3873996|50=3873996uq8hKYvaw1cjZMGUu9A4cw|52=20231226-09:51:52.933|56=cServer|57=TRADE|10=151|8=FIX.4.4|9=114|35=0|34=111|49=demo.ctrader.3873996|50=3873996uq8hKYvaw1cjZMGUu9A4cw|52=20231226-09:52:23.138|56=cServer|57=TRADE|10=148|8=FIX.4.4|9=114|35=0|34=112|49=demo.ctrader.3873996|50=3873996uq8hKYvaw1cjZMGUu9A4cw|52=20231226-09:52:54.109|56=cServer|57=TRADE|10=151|8=FIX.4.4|9=114|35=0|34=113|49=demo.ctrader.3873996|50=3873996uq8hKYvaw1cjZMGUu9A4cw|52=20231226-09:53:24.153|56=cServer|57=TRADE|10=149|8=FIX.4.4|9=114|35=0|34=114|49=demo.ctrader.3873996|50=3873996uq8hKYvaw1cjZMGUu9A4cw|52=20231226-09:53:55.102|56=cServer|57=TRADE|10=148|8=FIX.4.4|9=114|35=0|34=115|49=demo.ctrader.3873996|50=3873996uq8hKYvaw1cjZMGUu9A4cw|52=20231226-09:54:25.945|56=cServer|57=TRADE|10=162|8=FIX.4.4|9=114|35=0|34=116|49=demo.ctrader.3873996|50=3873996uq8hKYvaw1cjZMGUu9A4cw|52=20231226-09:54:56.042|56=cServer|57=TRADE|10=155|8=FIX.4.4|9=114|35=0|34=117|49=demo.ctrader.3873996|50=3873996uq8hKYvaw1cjZMGUu9A4cw|52=20231226-09:55:26.154|56=cServer|57=TRADE|10=158|8=FIX.4.4|9=114|35=0|34=118|49=demo.ctrader.3873996|50=3873996uq8hKYvaw1cjZMGUu9A4cw|52=20231226-09:55:57.009|56=cServer|57=TRADE|10=162|8=FIX.4.4|9=114|35=0|34=119|49=demo.ctrader.3873996|50=3873996uq8hKYvaw1cjZMGUu9A4cw|52=20231226-09:56:27.366|56=cServer|57=TRADE|10=167|8=FIX.4.4|9=114|35=0|34=120|49=demo.ctrader.3873996|50=3873996uq8hKYvaw1cjZMGUu9A4cw|52=20231226-09:56:57.919|56=cServer|57=TRADE|10=166|8=FIX.4.4|9=114|35=0|34=121|49=demo.ctrader.3873996|50=3873996uq8hKYvaw1cjZMGUu9A4cw|52=20231226-09:57:27.992|56=cServer|57=TRADE|10=166|8=FIX.4.4|9=114|35=0|34=122|49=demo.ctrader.3873996|50=3873996uq8hKYvaw1cjZMGUu9A4cw|52=20231226-09:57:58.984|56=cServer|57=TRADE|10=172|8=FIX.4.4|9=114|35=0|34=123|49=demo.ctrader.3873996|50=3873996uq8hKYvaw1cjZMGUu9A4cw|52=20231226-09:58:29.955|56=cServer|57=TRADE|10=170|8=FIX.4.4|9=114|35=0|34=124|49=demo.ctrader.3873996|50=3873996uq8hKYvaw1cjZMGUu9A4cw|52=20231226-09:58:59.984|56=cServer|57=TRADE|10=176|8=FIX.4.4|9=114|35=0|34=125|49=demo.ctrader.3873996|50=3873996uq8hKYvaw1cjZMGUu9A4cw|52=20231226-09:59:30.085|56=cServer|57=TRADE|10=159|8=FIX.4.4|9=114|35=0|34=126|49=demo.ctrader.3873996|50=3873996uq8hKYvaw1cjZMGUu9A4cw|52=20231226-10:00:00.088|56=cServer|57=TRADE|10=138|8=FIX.4.4|9=114|35=0|34=127|49=demo.ctrader.3873996|50=3873996uq8hKYvaw1cjZMGUu9A4cw|52=20231226-10:00:31.033|56=cServer|57=TRADE|10=133|8=FIX.4.4|9=114|35=0|34=128|49=demo.ctrader.3873996|50=3873996uq8hKYvaw1cjZMGUu9A4cw|52=20231226-10:01:01.155|56=cServer|57=TRADE|10=137|8=FIX.4.4|9=114|35=0|34=129|49=demo.ctrader.3873996|50=3873996uq8hKYvaw1cjZMGUu9A4cw|52=20231226-10:01:31.766|56=cServer|57=TRADE|10=149|8=FIX.4.4|9=114|35=0|34=130|49=demo.ctrader.3873996|50=3873996uq8hKYvaw1cjZMGUu9A4cw|52=20231226-10:02:02.770|56=cServer|57=TRADE|10=135|8=FIX.4.4|9=114|35=0|34=131|49=demo.ctrader.3873996|50=3873996uq8hKYvaw1cjZMGUu9A4cw|52=20231226-10:02:33.773|56=cServer|57=TRADE|10=143|8=FIX.4.4|9=114|35=0|34=132|49=demo.ctrader.3873996|50=3873996uq8hKYvaw1cjZMGUu9A4cw|52=20231226-10:03:04.204|56=cServer|57=TRADE|10=132|8=FIX.4.4|9=114|35=0|34=133|49=demo.ctrader.3873996|50=3873996uq8hKYvaw1cjZMGUu9A4cw|52=20231226-10:03:34.800|56=cServer|57=TRADE|10=138|8=FIX.4.4|9=114|35=0|34=134|49=demo.ctrader.3873996|50=3873996uq8hKYvaw1cjZMGUu9A4cw|52=20231226-10:04:05.783|56=cServer|57=TRADE|10=148|8=FIX.4.4|9=114|35=0|34=135|49=demo.ctrader.3873996|50=3873996uq8hKYvaw1cjZMGUu9A4cw|52=20231226-10:04:35.801|56=cServer|57=TRADE|10=143|8=FIX.4.4|9=114|35=0|34=136|49=demo.ctrader.3873996|50=3873996uq8hKYvaw1cjZMGUu9A4cw|52=20231226-10:05:05.820|56=cServer|57=TRADE|10=143|8=FIX.4.4|9=114|35=0|34=137|49=demo.ctrader.3873996|50=3873996uq8hKYvaw1cjZMGUu9A4cw|52=20231226-10:05:36.807|56=cServer|57=TRADE|10=153|8=FIX.4.4|9=114|35=0|34=138|49=demo.ctrader.3873996|50=3873996uq8hKYvaw1cjZMGUu9A4cw|52=20231226-10:06:07.809|56=cServer|57=TRADE|10=155|8=FIX.4.4|9=114|35=0|34=139|49=demo.ctrader.3873996|50=3873996uq8hKYvaw1cjZMGUu9A4cw|52=20231226-10:06:38.805|56=cServer|57=TRADE|10=156|8=FIX.4.4|9=114|35=0|34=140|49=demo.ctrader.3873996|50=3873996uq8hKYvaw1cjZMGUu9A4cw|52=20231226-10:07:08.833|56=cServer|57=TRADE|10=147|8=FIX.4.4|9=114|35=0|34=141|49=demo.ctrader.3873996|50=3873996uq8hKYvaw1cjZMGUu9A4cw|52=20231226-10:07:38.856|56=cServer|57=TRADE|10=156|8=FIX.4.4|9=114|35=0|34=142|49=demo.ctrader.3873996|50=3873996uq8hKYvaw1cjZMGUu9A4cw|52=20231226-10:08:09.828|56=cServer|57=TRADE|10=155|8=FIX.4.4|9=114|35=0|34=143|49=demo.ctrader.3873996|50=3873996uq8hKYvaw1cjZMGUu9A4cw|52=20231226-10:08:39.834|56=cServer|57=TRADE|10=156|8=FIX.4.4|9=114|35=0|34=144|49=demo.ctrader.3873996|50=3873996uq8hKYvaw1cjZMGUu9A4cw|52=20231226-10:09:09.853|56=cServer|57=TRADE|10=156|8=FIX.4.4|9=114|35=0|34=145|49=demo.ctrader.3873996|50=3873996uq8hKYvaw1cjZMGUu9A4cw|52=20231226-10:09:40.828|56=cServer|57=TRADE|10=154|8=FIX.4.4|9=114|35=0|34=146|49=demo.ctrader.3873996|50=3873996uq8hKYvaw1cjZMGUu9A4cw|52=20231226-10:10:11.820|56=cServer|57=TRADE|10=137|