8=FIX.4.4|9=244|35=A|34=1|49=demo.ctrader.3873996|50=38739969cqFXuIwfCZeG43sOa5hGg|52=20231226-07:16:28.600|56=cServer|57=QUOTE|49=demo.ctrader.3873996|50=38739969cqFXuIwfCZeG43sOa5hGg|52=20231226-07:16:28|56=cServer|98=0|108=30|141=Y|553=3873996|554=Gtlfx125|10=076|8=FIX.4.4|9=170|35=V|34=2|49=demo.ctrader.3873996|50=38739969cqFXuIwfCZeG43sOa5hGg|52=20231226-07:16:29.309|56=cServer|57=QUOTE|262=MARKETDATAID|263=1|264=1|267=2|269=0|269=1|146=1|55=1|10=148|8=FIX.4.4|9=170|35=V|34=3|49=demo.ctrader.3873996|50=38739969cqFXuIwfCZeG43sOa5hGg|52=20231226-07:16:29.309|56=cServer|57=QUOTE|262=MARKETDATAID|263=1|264=1|267=2|269=0|269=1|146=1|55=2|10=150|8=FIX.4.4|9=170|35=V|34=4|49=demo.ctrader.3873996|50=38739969cqFXuIwfCZeG43sOa5hGg|52=20231226-07:16:29.310|56=cServer|57=QUOTE|262=MARKETDATAID|263=1|264=1|267=2|269=0|269=1|146=1|55=3|10=144|8=FIX.4.4|9=170|35=V|34=5|49=demo.ctrader.3873996|50=38739969cqFXuIwfCZeG43sOa5hGg|52=20231226-07:16:29.310|56=cServer|57=QUOTE|262=MARKETDATAID|263=1|264=1|267=2|269=0|269=1|146=1|55=4|10=146|8=FIX.4.4|9=170|35=V|34=6|49=demo.ctrader.3873996|50=38739969cqFXuIwfCZeG43sOa5hGg|52=20231226-07:16:29.311|56=cServer|57=QUOTE|262=MARKETDATAID|263=1|264=1|267=2|269=0|269=1|146=1|55=5|10=149|8=FIX.4.4|9=170|35=V|34=7|49=demo.ctrader.3873996|50=38739969cqFXuIwfCZeG43sOa5hGg|52=20231226-07:16:29.311|56=cServer|57=QUOTE|262=MARKETDATAID|263=1|264=1|267=2|269=0|269=1|146=1|55=6|10=151|8=FIX.4.4|9=170|35=V|34=8|49=demo.ctrader.3873996|50=38739969cqFXuIwfCZeG43sOa5hGg|52=20231226-07:16:29.311|56=cServer|57=QUOTE|262=MARKETDATAID|263=1|264=1|267=2|269=0|269=1|146=1|55=7|10=153|8=FIX.4.4|9=170|35=V|34=9|49=demo.ctrader.3873996|50=38739969cqFXuIwfCZeG43sOa5hGg|52=20231226-07:16:29.311|56=cServer|57=QUOTE|262=MARKETDATAID|263=1|264=1|267=2|269=0|269=1|146=1|55=8|10=155|8=FIX.4.4|9=171|35=V|34=10|49=demo.ctrader.3873996|50=38739969cqFXuIwfCZeG43sOa5hGg|52=20231226-07:16:29.311|56=cServer|57=QUOTE|262=MARKETDATAID|263=1|264=1|267=2|269=0|269=1|146=1|55=9|10=197|8=FIX.4.4|9=172|35=V|34=11|49=demo.ctrader.3873996|50=38739969cqFXuIwfCZeG43sOa5hGg|52=20231226-07:16:29.311|56=cServer|57=QUOTE|262=MARKETDATAID|263=1|264=1|267=2|269=0|269=1|146=1|55=10|10=239|8=FIX.4.4|9=172|35=V|34=12|49=demo.ctrader.3873996|50=38739969cqFXuIwfCZeG43sOa5hGg|52=20231226-07:16:29.311|56=cServer|57=QUOTE|262=MARKETDATAID|263=1|264=1|267=2|269=0|269=1|146=1|55=11|10=241|8=FIX.4.4|9=172|35=V|34=13|49=demo.ctrader.3873996|50=38739969cqFXuIwfCZeG43sOa5hGg|52=20231226-07:16:29.311|56=cServer|57=QUOTE|262=MARKETDATAID|263=1|264=1|267=2|269=0|269=1|146=1|55=12|10=243|8=FIX.4.4|9=172|35=V|34=14|49=demo.ctrader.3873996|50=38739969cqFXuIwfCZeG43sOa5hGg|52=20231226-07:16:29.311|56=cServer|57=QUOTE|262=MARKETDATAID|263=1|264=1|267=2|269=0|269=1|146=1|55=13|10=245|8=FIX.4.4|9=172|35=V|34=15|49=demo.ctrader.3873996|50=38739969cqFXuIwfCZeG43sOa5hGg|52=20231226-07:16:29.312|56=cServer|57=QUOTE|262=MARKETDATAID|263=1|264=1|267=2|269=0|269=1|146=1|55=14|10=248|8=FIX.4.4|9=172|35=V|34=16|49=demo.ctrader.3873996|50=38739969cqFXuIwfCZeG43sOa5hGg|52=20231226-07:16:29.312|56=cServer|57=QUOTE|262=MARKETDATAID|263=1|264=1|267=2|269=0|269=1|146=1|55=15|10=250|8=FIX.4.4|9=172|35=V|34=17|49=demo.ctrader.3873996|50=38739969cqFXuIwfCZeG43sOa5hGg|52=20231226-07:16:29.312|56=cServer|57=QUOTE|262=MARKETDATAID|263=1|264=1|267=2|269=0|269=1|146=1|55=16|10=252|8=FIX.4.4|9=172|35=V|34=18|49=demo.ctrader.3873996|50=38739969cqFXuIwfCZeG43sOa5hGg|52=20231226-07:16:29.312|56=cServer|57=QUOTE|262=MARKETDATAID|263=1|264=1|267=2|269=0|269=1|146=1|55=17|10=254|8=FIX.4.4|9=172|35=V|34=19|49=demo.ctrader.3873996|50=38739969cqFXuIwfCZeG43sOa5hGg|52=20231226-07:16:29.312|56=cServer|57=QUOTE|262=MARKETDATAID|263=1|264=1|267=2|269=0|269=1|146=1|55=18|10=000|8=FIX.4.4|9=172|35=V|34=20|49=demo.ctrader.3873996|50=38739969cqFXuIwfCZeG43sOa5hGg|52=20231226-07:16:29.312|56=cServer|57=QUOTE|262=MARKETDATAID|263=1|264=1|267=2|269=0|269=1|146=1|55=19|10=249|8=FIX.4.4|9=172|35=V|34=21|49=demo.ctrader.3873996|50=38739969cqFXuIwfCZeG43sOa5hGg|52=20231226-07:16:29.312|56=cServer|57=QUOTE|262=MARKETDATAID|263=1|264=1|267=2|269=0|269=1|146=1|55=22|10=244|8=FIX.4.4|9=113|35=0|34=22|49=demo.ctrader.3873996|50=38739969cqFXuIwfCZeG43sOa5hGg|52=20231226-07:16:59.446|56=cServer|57=QUOTE|10=057|8=FIX.4.4|9=113|35=0|34=23|49=demo.ctrader.3873996|50=38739969cqFXuIwfCZeG43sOa5hGg|52=20231226-07:17:29.522|56=cServer|57=QUOTE|10=051|8=FIX.4.4|9=227|35=5|34=24|49=demo.ctrader.3873996|50=38739969cqFXuIwfCZeG43sOa5hGg|52=20231226-07:17:44.010|56=cServer|57=QUOTE|49=demo.ctrader.3873996|50=38739969cqFXuIwfCZeG43sOa5hGg|52=20231226-07:17:44|56=cServer|553=3873996|554=Gtlfx125|10=041|