8=FIX.4.4|9=244|35=A|34=1|49=demo.ctrader.3873996|50=3873996rh6_DNLTOZ8Hd95Kh1PkMg|52=20231227-10:55:43.727|56=cServer|57=TRADE|49=demo.ctrader.3873996|50=3873996rh6_DNLTOZ8Hd95Kh1PkMg|52=20231227-10:55:43|56=cServer|98=0|108=30|141=Y|553=3873996|554=Gtlfx125|10=068|8=FIX.4.4|9=130|35=x|34=2|49=demo.ctrader.3873996|50=3873996rh6_DNLTOZ8Hd95Kh1PkMg|52=20231227-10:55:44.280|56=cServer|57=TRADE|320=symbols|559=0|10=156|8=FIX.4.4|9=127|35=AN|34=3|49=demo.ctrader.3873996|50=3873996rh6_DNLTOZ8Hd95Kh1PkMg|52=20231227-10:55:44.985|56=cServer|57=TRADE|710=Positions|10=119|8=FIX.4.4|9=130|35=AF|34=4|49=demo.ctrader.3873996|50=3873996rh6_DNLTOZ8Hd95Kh1PkMg|52=20231227-10:55:44.985|56=cServer|57=TRADE|584=Orders|585=7|10=049|8=FIX.4.4|9=112|35=0|34=5|49=demo.ctrader.3873996|50=3873996rh6_DNLTOZ8Hd95Kh1PkMg|52=20231227-10:56:15.388|56=cServer|57=TRADE|10=114|