8=FIX.4.4|9=244|35=A|34=1|49=demo.ctrader.3873996|50=3873996cNDlO3jjJhivXjRWfOrrOQ|52=20231212-07:14:23.554|56=cServer|57=QUOTE|49=demo.ctrader.3873996|50=3873996cNDlO3jjJhivXjRWfOrrOQ|52=20231212-07:14:23|56=cServer|98=0|108=30|141=Y|553=3873996|554=Gtlfx125|10=076|8=FIX.4.4|9=112|35=0|34=2|49=demo.ctrader.3873996|50=3873996cNDlO3jjJhivXjRWfOrrOQ|52=20231212-07:14:54.168|56=cServer|57=QUOTE|10=131|8=FIX.4.4|9=112|35=0|34=3|49=demo.ctrader.3873996|50=3873996cNDlO3jjJhivXjRWfOrrOQ|52=20231212-07:15:25.166|56=cServer|57=QUOTE|10=129|8=FIX.4.4|9=112|35=0|34=4|49=demo.ctrader.3873996|50=3873996cNDlO3jjJhivXjRWfOrrOQ|52=20231212-07:15:55.170|56=cServer|57=QUOTE|10=128|8=FIX.4.4|9=112|35=0|34=5|49=demo.ctrader.3873996|50=3873996cNDlO3jjJhivXjRWfOrrOQ|52=20231212-07:16:25.176|56=cServer|57=QUOTE|10=133|8=FIX.4.4|9=112|35=0|34=6|49=demo.ctrader.3873996|50=3873996cNDlO3jjJhivXjRWfOrrOQ|52=20231212-07:17:09.401|56=cServer|57=QUOTE|10=128|8=FIX.4.4|9=112|35=0|34=7|49=demo.ctrader.3873996|50=3873996cNDlO3jjJhivXjRWfOrrOQ|52=20231212-07:17:40.281|56=cServer|57=QUOTE|10=130|8=FIX.4.4|9=112|35=0|34=8|49=demo.ctrader.3873996|50=3873996cNDlO3jjJhivXjRWfOrrOQ|52=20231212-07:18:10.300|56=cServer|57=QUOTE|10=121|8=FIX.4.4|9=112|35=0|34=9|49=demo.ctrader.3873996|50=3873996cNDlO3jjJhivXjRWfOrrOQ|52=20231212-07:18:41.299|56=cServer|57=QUOTE|10=143|8=FIX.4.4|9=113|35=0|34=10|49=demo.ctrader.3873996|50=3873996cNDlO3jjJhivXjRWfOrrOQ|52=20231212-07:19:12.946|56=cServer|57=QUOTE|10=182|8=FIX.4.4|9=113|35=0|34=11|49=demo.ctrader.3873996|50=3873996cNDlO3jjJhivXjRWfOrrOQ|52=20231212-07:19:43.321|56=cServer|57=QUOTE|10=174|8=FIX.4.4|9=113|35=0|34=12|49=demo.ctrader.3873996|50=3873996cNDlO3jjJhivXjRWfOrrOQ|52=20231212-07:20:13.568|56=cServer|57=QUOTE|10=177|8=FIX.4.4|9=113|35=0|34=13|49=demo.ctrader.3873996|50=3873996cNDlO3jjJhivXjRWfOrrOQ|52=20231212-07:20:44.306|56=cServer|57=QUOTE|10=172|8=FIX.4.4|9=113|35=0|34=14|49=demo.ctrader.3873996|50=3873996cNDlO3jjJhivXjRWfOrrOQ|52=20231212-07:21:14.317|56=cServer|57=QUOTE|10=173|8=FIX.4.4|9=113|35=0|34=15|49=demo.ctrader.3873996|50=3873996cNDlO3jjJhivXjRWfOrrOQ|52=20231212-07:21:45.319|56=cServer|57=QUOTE|10=180|8=FIX.4.4|9=113|35=0|34=16|49=demo.ctrader.3873996|50=3873996cNDlO3jjJhivXjRWfOrrOQ|52=20231212-07:22:15.348|56=cServer|57=QUOTE|10=181|