8=FIX.4.4|9=244|35=A|34=1|49=demo.ctrader.3873996|50=3873996fnFog5V2PF8o3UiX9y4vvA|52=20240104-08:23:21.194|56=cServer|57=QUOTE|49=demo.ctrader.3873996|50=3873996fnFog5V2PF8o3UiX9y4vvA|52=20240104-08:23:21|56=cServer|98=0|108=30|141=Y|553=3873996|554=Gtlfx125|10=254|8=FIX.4.4|9=170|35=V|34=2|49=demo.ctrader.3873996|50=3873996fnFog5V2PF8o3UiX9y4vvA|52=20240104-08:23:22.094|56=cServer|57=QUOTE|262=MARKETDATAID|263=1|264=1|267=2|269=0|269=1|146=1|55=1|10=106|8=FIX.4.4|9=170|35=V|34=3|49=demo.ctrader.3873996|50=3873996fnFog5V2PF8o3UiX9y4vvA|52=20240104-08:23:22.095|56=cServer|57=QUOTE|262=MARKETDATAID|263=1|264=1|267=2|269=0|269=1|146=1|55=2|10=109|8=FIX.4.4|9=170|35=V|34=4|49=demo.ctrader.3873996|50=3873996fnFog5V2PF8o3UiX9y4vvA|52=20240104-08:23:22.096|56=cServer|57=QUOTE|262=MARKETDATAID|263=1|264=1|267=2|269=0|269=1|146=1|55=3|10=112|8=FIX.4.4|9=170|35=V|34=5|49=demo.ctrader.3873996|50=3873996fnFog5V2PF8o3UiX9y4vvA|52=20240104-08:23:22.096|56=cServer|57=QUOTE|262=MARKETDATAID|263=1|264=1|267=2|269=0|269=1|146=1|55=4|10=114|8=FIX.4.4|9=170|35=V|34=6|49=demo.ctrader.3873996|50=3873996fnFog5V2PF8o3UiX9y4vvA|52=20240104-08:23:22.096|56=cServer|57=QUOTE|262=MARKETDATAID|263=1|264=1|267=2|269=0|269=1|146=1|55=5|10=116|8=FIX.4.4|9=170|35=V|34=7|49=demo.ctrader.3873996|50=3873996fnFog5V2PF8o3UiX9y4vvA|52=20240104-08:23:22.096|56=cServer|57=QUOTE|262=MARKETDATAID|263=1|264=1|267=2|269=0|269=1|146=1|55=6|10=118|8=FIX.4.4|9=170|35=V|34=8|49=demo.ctrader.3873996|50=3873996fnFog5V2PF8o3UiX9y4vvA|52=20240104-08:23:22.096|56=cServer|57=QUOTE|262=MARKETDATAID|263=1|264=1|267=2|269=0|269=1|146=1|55=7|10=120|8=FIX.4.4|9=170|35=V|34=9|49=demo.ctrader.3873996|50=3873996fnFog5V2PF8o3UiX9y4vvA|52=20240104-08:23:22.097|56=cServer|57=QUOTE|262=MARKETDATAID|263=1|264=1|267=2|269=0|269=1|146=1|55=8|10=123|8=FIX.4.4|9=171|35=V|34=10|49=demo.ctrader.3873996|50=3873996fnFog5V2PF8o3UiX9y4vvA|52=20240104-08:23:22.097|56=cServer|57=QUOTE|262=MARKETDATAID|263=1|264=1|267=2|269=0|269=1|146=1|55=9|10=165|8=FIX.4.4|9=172|35=V|34=11|49=demo.ctrader.3873996|50=3873996fnFog5V2PF8o3UiX9y4vvA|52=20240104-08:23:22.097|56=cServer|57=QUOTE|262=MARKETDATAID|263=1|264=1|267=2|269=0|269=1|146=1|55=10|10=207|8=FIX.4.4|9=172|35=V|34=12|49=demo.ctrader.3873996|50=3873996fnFog5V2PF8o3UiX9y4vvA|52=20240104-08:23:22.097|56=cServer|57=QUOTE|262=MARKETDATAID|263=1|264=1|267=2|269=0|269=1|146=1|55=11|10=209|8=FIX.4.4|9=172|35=V|34=13|49=demo.ctrader.3873996|50=3873996fnFog5V2PF8o3UiX9y4vvA|52=20240104-08:23:22.097|56=cServer|57=QUOTE|262=MARKETDATAID|263=1|264=1|267=2|269=0|269=1|146=1|55=12|10=211|8=FIX.4.4|9=172|35=V|34=14|49=demo.ctrader.3873996|50=3873996fnFog5V2PF8o3UiX9y4vvA|52=20240104-08:23:22.097|56=cServer|57=QUOTE|262=MARKETDATAID|263=1|264=1|267=2|269=0|269=1|146=1|55=13|10=213|8=FIX.4.4|9=172|35=V|34=15|49=demo.ctrader.3873996|50=3873996fnFog5V2PF8o3UiX9y4vvA|52=20240104-08:23:22.097|56=cServer|57=QUOTE|262=MARKETDATAID|263=1|264=1|267=2|269=0|269=1|146=1|55=14|10=215|8=FIX.4.4|9=172|35=V|34=16|49=demo.ctrader.3873996|50=3873996fnFog5V2PF8o3UiX9y4vvA|52=20240104-08:23:22.098|56=cServer|57=QUOTE|262=MARKETDATAID|263=1|264=1|267=2|269=0|269=1|146=1|55=15|10=218|8=FIX.4.4|9=172|35=V|34=17|49=demo.ctrader.3873996|50=3873996fnFog5V2PF8o3UiX9y4vvA|52=20240104-08:23:22.098|56=cServer|57=QUOTE|262=MARKETDATAID|263=1|264=1|267=2|269=0|269=1|146=1|55=16|10=220|8=FIX.4.4|9=172|35=V|34=18|49=demo.ctrader.3873996|50=3873996fnFog5V2PF8o3UiX9y4vvA|52=20240104-08:23:22.098|56=cServer|57=QUOTE|262=MARKETDATAID|263=1|264=1|267=2|269=0|269=1|146=1|55=17|10=222|8=FIX.4.4|9=172|35=V|34=19|49=demo.ctrader.3873996|50=3873996fnFog5V2PF8o3UiX9y4vvA|52=20240104-08:23:22.098|56=cServer|57=QUOTE|262=MARKETDATAID|263=1|264=1|267=2|269=0|269=1|146=1|55=18|10=224|8=FIX.4.4|9=172|35=V|34=20|49=demo.ctrader.3873996|50=3873996fnFog5V2PF8o3UiX9y4vvA|52=20240104-08:23:22.098|56=cServer|57=QUOTE|262=MARKETDATAID|263=1|264=1|267=2|269=0|269=1|146=1|55=19|10=217|8=FIX.4.4|9=172|35=V|34=21|49=demo.ctrader.3873996|50=3873996fnFog5V2PF8o3UiX9y4vvA|52=20240104-08:23:22.098|56=cServer|57=QUOTE|262=MARKETDATAID|263=1|264=1|267=2|269=0|269=1|146=1|55=22|10=212|8=FIX.4.4|9=113|35=0|34=22|49=demo.ctrader.3873996|50=3873996fnFog5V2PF8o3UiX9y4vvA|52=20240104-08:23:52.107|56=cServer|57=QUOTE|10=008|8=FIX.4.4|9=113|35=0|34=23|49=demo.ctrader.3873996|50=3873996fnFog5V2PF8o3UiX9y4vvA|52=20240104-08:24:22.121|56=cServer|57=QUOTE|10=003|8=FIX.4.4|9=113|35=0|34=24|49=demo.ctrader.3873996|50=3873996fnFog5V2PF8o3UiX9y4vvA|52=20240104-08:24:52.202|56=cServer|57=QUOTE|10=007|8=FIX.4.4|9=113|35=0|34=25|49=demo.ctrader.3873996|50=3873996fnFog5V2PF8o3UiX9y4vvA|52=20240104-08:25:22.262|56=cServer|57=QUOTE|10=012|8=FIX.4.4|9=227|35=5|34=26|49=demo.ctrader.3873996|50=3873996fnFog5V2PF8o3UiX9y4vvA|52=20240104-08:25:31.920|56=cServer|57=QUOTE|49=demo.ctrader.3873996|50=3873996fnFog5V2PF8o3UiX9y4vvA|52=20240104-08:25:31|56=cServer|553=3873996|554=Gtlfx125|10=231|8=FIX.4.4|9=227|35=5|34=27|49=demo.ctrader.3873996|50=3873996fnFog5V2PF8o3UiX9y4vvA|52=20240104-08:25:42.169|56=cServer|57=QUOTE|49=demo.ctrader.3873996|50=3873996fnFog5V2PF8o3UiX9y4vvA|52=20240104-08:25:42|56=cServer|553=3873996|554=Gtlfx125|10=241|