8=FIX.4.4|9=244|35=A|34=1|49=demo.ctrader.3873996|50=38739962iyodnlmVPbqPbFNAq4k3w|52=20240104-08:12:23.676|56=cServer|57=QUOTE|49=demo.ctrader.3873996|50=38739962iyodnlmVPbqPbFNAq4k3w|52=20240104-08:12:23|56=cServer|98=0|108=30|141=Y|553=3873996|554=Gtlfx125|10=071|8=FIX.4.4|9=170|35=V|34=2|49=demo.ctrader.3873996|50=38739962iyodnlmVPbqPbFNAq4k3w|52=20240104-08:12:24.583|56=cServer|57=QUOTE|262=MARKETDATAID|263=1|264=1|267=2|269=0|269=1|146=1|55=1|10=015|8=FIX.4.4|9=170|35=V|34=3|49=demo.ctrader.3873996|50=38739962iyodnlmVPbqPbFNAq4k3w|52=20240104-08:12:24.584|56=cServer|57=QUOTE|262=MARKETDATAID|263=1|264=1|267=2|269=0|269=1|146=1|55=2|10=018|8=FIX.4.4|9=170|35=V|34=4|49=demo.ctrader.3873996|50=38739962iyodnlmVPbqPbFNAq4k3w|52=20240104-08:12:24.585|56=cServer|57=QUOTE|262=MARKETDATAID|263=1|264=1|267=2|269=0|269=1|146=1|55=3|10=021|8=FIX.4.4|9=170|35=V|34=5|49=demo.ctrader.3873996|50=38739962iyodnlmVPbqPbFNAq4k3w|52=20240104-08:12:24.585|56=cServer|57=QUOTE|262=MARKETDATAID|263=1|264=1|267=2|269=0|269=1|146=1|55=4|10=023|8=FIX.4.4|9=170|35=V|34=6|49=demo.ctrader.3873996|50=38739962iyodnlmVPbqPbFNAq4k3w|52=20240104-08:12:24.585|56=cServer|57=QUOTE|262=MARKETDATAID|263=1|264=1|267=2|269=0|269=1|146=1|55=5|10=025|8=FIX.4.4|9=170|35=V|34=7|49=demo.ctrader.3873996|50=38739962iyodnlmVPbqPbFNAq4k3w|52=20240104-08:12:24.585|56=cServer|57=QUOTE|262=MARKETDATAID|263=1|264=1|267=2|269=0|269=1|146=1|55=6|10=027|8=FIX.4.4|9=170|35=V|34=8|49=demo.ctrader.3873996|50=38739962iyodnlmVPbqPbFNAq4k3w|52=20240104-08:12:24.585|56=cServer|57=QUOTE|262=MARKETDATAID|263=1|264=1|267=2|269=0|269=1|146=1|55=7|10=029|8=FIX.4.4|9=170|35=V|34=9|49=demo.ctrader.3873996|50=38739962iyodnlmVPbqPbFNAq4k3w|52=20240104-08:12:24.586|56=cServer|57=QUOTE|262=MARKETDATAID|263=1|264=1|267=2|269=0|269=1|146=1|55=8|10=032|8=FIX.4.4|9=171|35=V|34=10|49=demo.ctrader.3873996|50=38739962iyodnlmVPbqPbFNAq4k3w|52=20240104-08:12:24.586|56=cServer|57=QUOTE|262=MARKETDATAID|263=1|264=1|267=2|269=0|269=1|146=1|55=9|10=074|8=FIX.4.4|9=172|35=V|34=11|49=demo.ctrader.3873996|50=38739962iyodnlmVPbqPbFNAq4k3w|52=20240104-08:12:24.586|56=cServer|57=QUOTE|262=MARKETDATAID|263=1|264=1|267=2|269=0|269=1|146=1|55=10|10=116|8=FIX.4.4|9=172|35=V|34=12|49=demo.ctrader.3873996|50=38739962iyodnlmVPbqPbFNAq4k3w|52=20240104-08:12:24.586|56=cServer|57=QUOTE|262=MARKETDATAID|263=1|264=1|267=2|269=0|269=1|146=1|55=11|10=118|8=FIX.4.4|9=172|35=V|34=13|49=demo.ctrader.3873996|50=38739962iyodnlmVPbqPbFNAq4k3w|52=20240104-08:12:24.586|56=cServer|57=QUOTE|262=MARKETDATAID|263=1|264=1|267=2|269=0|269=1|146=1|55=12|10=120|8=FIX.4.4|9=172|35=V|34=14|49=demo.ctrader.3873996|50=38739962iyodnlmVPbqPbFNAq4k3w|52=20240104-08:12:24.586|56=cServer|57=QUOTE|262=MARKETDATAID|263=1|264=1|267=2|269=0|269=1|146=1|55=13|10=122|8=FIX.4.4|9=172|35=V|34=15|49=demo.ctrader.3873996|50=38739962iyodnlmVPbqPbFNAq4k3w|52=20240104-08:12:24.586|56=cServer|57=QUOTE|262=MARKETDATAID|263=1|264=1|267=2|269=0|269=1|146=1|55=14|10=124|8=FIX.4.4|9=172|35=V|34=16|49=demo.ctrader.3873996|50=38739962iyodnlmVPbqPbFNAq4k3w|52=20240104-08:12:24.587|56=cServer|57=QUOTE|262=MARKETDATAID|263=1|264=1|267=2|269=0|269=1|146=1|55=15|10=127|8=FIX.4.4|9=172|35=V|34=17|49=demo.ctrader.3873996|50=38739962iyodnlmVPbqPbFNAq4k3w|52=20240104-08:12:24.587|56=cServer|57=QUOTE|262=MARKETDATAID|263=1|264=1|267=2|269=0|269=1|146=1|55=16|10=129|8=FIX.4.4|9=172|35=V|34=18|49=demo.ctrader.3873996|50=38739962iyodnlmVPbqPbFNAq4k3w|52=20240104-08:12:24.587|56=cServer|57=QUOTE|262=MARKETDATAID|263=1|264=1|267=2|269=0|269=1|146=1|55=17|10=131|8=FIX.4.4|9=172|35=V|34=19|49=demo.ctrader.3873996|50=38739962iyodnlmVPbqPbFNAq4k3w|52=20240104-08:12:24.587|56=cServer|57=QUOTE|262=MARKETDATAID|263=1|264=1|267=2|269=0|269=1|146=1|55=18|10=133|8=FIX.4.4|9=172|35=V|34=20|49=demo.ctrader.3873996|50=38739962iyodnlmVPbqPbFNAq4k3w|52=20240104-08:12:24.587|56=cServer|57=QUOTE|262=MARKETDATAID|263=1|264=1|267=2|269=0|269=1|146=1|55=19|10=126|8=FIX.4.4|9=172|35=V|34=21|49=demo.ctrader.3873996|50=38739962iyodnlmVPbqPbFNAq4k3w|52=20240104-08:12:24.587|56=cServer|57=QUOTE|262=MARKETDATAID|263=1|264=1|267=2|269=0|269=1|146=1|55=22|10=121|8=FIX.4.4|9=113|35=0|34=22|49=demo.ctrader.3873996|50=38739962iyodnlmVPbqPbFNAq4k3w|52=20240104-08:12:54.598|56=cServer|57=QUOTE|10=184|8=FIX.4.4|9=113|35=0|34=23|49=demo.ctrader.3873996|50=38739962iyodnlmVPbqPbFNAq4k3w|52=20240104-08:13:24.614|56=cServer|57=QUOTE|10=172|8=FIX.4.4|9=113|35=0|34=24|49=demo.ctrader.3873996|50=38739962iyodnlmVPbqPbFNAq4k3w|52=20240104-08:13:54.628|56=cServer|57=QUOTE|10=181|8=FIX.4.4|9=113|35=0|34=25|49=demo.ctrader.3873996|50=38739962iyodnlmVPbqPbFNAq4k3w|52=20240104-08:14:24.707|56=cServer|57=QUOTE|10=178|8=FIX.4.4|9=113|35=0|34=26|49=demo.ctrader.3873996|50=38739962iyodnlmVPbqPbFNAq4k3w|52=20240104-08:14:54.804|56=cServer|57=QUOTE|10=180|8=FIX.4.4|9=113|35=0|34=27|49=demo.ctrader.3873996|50=38739962iyodnlmVPbqPbFNAq4k3w|52=20240104-08:15:24.809|56=cServer|57=QUOTE|10=184|8=FIX.4.4|9=113|35=0|34=28|49=demo.ctrader.3873996|50=38739962iyodnlmVPbqPbFNAq4k3w|52=20240104-08:15:54.823|56=cServer|57=QUOTE|10=184|8=FIX.4.4|9=113|35=0|34=29|49=demo.ctrader.3873996|50=38739962iyodnlmVPbqPbFNAq4k3w|52=20240104-08:16:24.885|56=cServer|57=QUOTE|10=191|8=FIX.4.4|9=113|35=0|34=30|49=demo.ctrader.3873996|50=38739962iyodnlmVPbqPbFNAq4k3w|52=20240104-08:16:54.992|56=cServer|57=QUOTE|10=185|8=FIX.4.4|9=113|35=0|34=31|49=demo.ctrader.3873996|50=38739962iyodnlmVPbqPbFNAq4k3w|52=20240104-08:17:25.144|56=cServer|57=QUOTE|10=174|8=FIX.4.4|9=113|35=0|34=32|49=demo.ctrader.3873996|50=38739962iyodnlmVPbqPbFNAq4k3w|52=20240104-08:17:55.213|56=cServer|57=QUOTE|10=175|8=FIX.4.4|9=113|35=0|34=33|49=demo.ctrader.3873996|50=38739962iyodnlmVPbqPbFNAq4k3w|52=20240104-08:18:25.307|56=cServer|57=QUOTE|10=178|8=FIX.4.4|9=113|35=0|34=34|49=demo.ctrader.3873996|50=38739962iyodnlmVPbqPbFNAq4k3w|52=20240104-08:18:55.336|56=cServer|57=QUOTE|10=184|8=FIX.4.4|9=113|35=0|34=35|49=demo.ctrader.3873996|50=38739962iyodnlmVPbqPbFNAq4k3w|52=20240104-08:19:25.379|56=cServer|57=QUOTE|10=190|8=FIX.4.4|9=113|35=0|34=36|49=demo.ctrader.3873996|50=38739962iyodnlmVPbqPbFNAq4k3w|52=20240104-08:19:55.408|56=cServer|57=QUOTE|10=187|8=FIX.4.4|9=113|35=0|34=37|49=demo.ctrader.3873996|50=38739962iyodnlmVPbqPbFNAq4k3w|52=20240104-08:20:25.446|56=cServer|57=QUOTE|10=179|