8=FIX.4.4|9=244|35=A|34=1|49=demo.ctrader.3873996|50=3873996L_l3gxbFZ-KJFbfevzHD4A|52=20231226-10:27:37.924|56=cServer|57=TRADE|49=demo.ctrader.3873996|50=3873996L_l3gxbFZ-KJFbfevzHD4A|52=20231226-10:27:37|56=cServer|98=0|108=30|141=Y|553=3873996|554=Gtlfx125|10=009|8=FIX.4.4|9=130|35=x|34=2|49=demo.ctrader.3873996|50=3873996L_l3gxbFZ-KJFbfevzHD4A|52=20231226-10:27:38.476|56=cServer|57=TRADE|320=symbols|559=0|10=006|8=FIX.4.4|9=127|35=AN|34=3|49=demo.ctrader.3873996|50=3873996L_l3gxbFZ-KJFbfevzHD4A|52=20231226-10:27:38.682|56=cServer|57=TRADE|710=Positions|10=212|8=FIX.4.4|9=130|35=AF|34=4|49=demo.ctrader.3873996|50=3873996L_l3gxbFZ-KJFbfevzHD4A|52=20231226-10:27:38.682|56=cServer|57=TRADE|584=Orders|585=7|10=142|