8=FIX.4.4|9=244|35=A|34=1|49=demo.ctrader.3873996|50=3873996E7cxx6BCTGTdxWtNckUjhg|52=20240103-14:46:11.379|56=cServer|57=TRADE|49=demo.ctrader.3873996|50=3873996E7cxx6BCTGTdxWtNckUjhg|52=20240103-14:46:11|56=cServer|98=0|108=30|141=Y|553=3873996|554=Gtlfx125|10=237|8=FIX.4.4|9=130|35=x|34=2|49=demo.ctrader.3873996|50=3873996E7cxx6BCTGTdxWtNckUjhg|52=20240103-14:46:12.052|56=cServer|57=TRADE|320=symbols|559=0|10=108|8=FIX.4.4|9=127|35=AN|34=3|49=demo.ctrader.3873996|50=3873996E7cxx6BCTGTdxWtNckUjhg|52=20240103-14:46:12.789|56=cServer|57=TRADE|710=Positions|10=076|8=FIX.4.4|9=130|35=AF|34=4|49=demo.ctrader.3873996|50=3873996E7cxx6BCTGTdxWtNckUjhg|52=20240103-14:46:12.789|56=cServer|57=TRADE|584=Orders|585=7|10=006|8=FIX.4.4|9=178|35=D|34=5|49=demo.ctrader.3873996|50=3873996E7cxx6BCTGTdxWtNckUjhg|52=20240103-14:46:23.957|56=cServer|57=TRADE|11=New Order|38=1000|40=1|54=2|55=1|59=3|60=20240103-19:46:23.957|10=251|8=FIX.4.4|9=127|35=AN|34=6|49=demo.ctrader.3873996|50=3873996E7cxx6BCTGTdxWtNckUjhg|52=20240103-14:46:24.468|56=cServer|57=TRADE|710=Positions|10=076|8=FIX.4.4|9=178|35=D|34=7|49=demo.ctrader.3873996|50=3873996E7cxx6BCTGTdxWtNckUjhg|52=20240103-14:46:54.365|56=cServer|57=TRADE|11=New Order|38=1000|40=1|54=2|55=1|59=3|60=20240103-19:46:54.365|10=247|8=FIX.4.4|9=127|35=AN|34=8|49=demo.ctrader.3873996|50=3873996E7cxx6BCTGTdxWtNckUjhg|52=20240103-14:46:58.506|56=cServer|57=TRADE|710=Positions|10=078|8=FIX.4.4|9=112|35=0|34=9|49=demo.ctrader.3873996|50=3873996E7cxx6BCTGTdxWtNckUjhg|52=20240103-14:47:28.972|56=cServer|57=TRADE|10=081|8=FIX.4.4|9=113|35=0|34=10|49=demo.ctrader.3873996|50=3873996E7cxx6BCTGTdxWtNckUjhg|52=20240103-14:47:59.977|56=cServer|57=TRADE|10=131|8=FIX.4.4|9=113|35=0|34=11|49=demo.ctrader.3873996|50=3873996E7cxx6BCTGTdxWtNckUjhg|52=20240103-14:48:30.033|56=cServer|57=TRADE|10=105|8=FIX.4.4|9=227|35=5|34=12|49=demo.ctrader.3873996|50=3873996E7cxx6BCTGTdxWtNckUjhg|52=20240103-14:48:41.939|56=cServer|57=TRADE|49=demo.ctrader.3873996|50=3873996E7cxx6BCTGTdxWtNckUjhg|52=20240103-14:48:41|56=cServer|553=3873996|554=Gtlfx125|10=218|8=FIX.4.4|9=227|35=5|34=13|49=demo.ctrader.3873996|50=3873996E7cxx6BCTGTdxWtNckUjhg|52=20240103-14:48:41.999|56=cServer|57=TRADE|49=demo.ctrader.3873996|50=3873996E7cxx6BCTGTdxWtNckUjhg|52=20240103-14:48:41|56=cServer|553=3873996|554=Gtlfx125|10=225|