8=FIX.4.4|9=244|35=A|34=1|49=demo.ctrader.3873996|50=3873996kOCUvnKHPSPQt1Ykz1pyaA|52=20231212-13:36:13.769|56=cServer|57=TRADE|49=demo.ctrader.3873996|50=3873996kOCUvnKHPSPQt1Ykz1pyaA|52=20231212-13:36:13|56=cServer|98=0|108=30|141=Y|553=3873996|554=Gtlfx125|10=182|8=FIX.4.4|9=130|35=x|34=2|49=demo.ctrader.3873996|50=3873996kOCUvnKHPSPQt1Ykz1pyaA|52=20231212-13:36:14.249|56=cServer|57=TRADE|320=symbols|559=0|10=087|8=FIX.4.4|9=127|35=AN|34=3|49=demo.ctrader.3873996|50=3873996kOCUvnKHPSPQt1Ykz1pyaA|52=20231212-13:36:14.596|56=cServer|57=TRADE|710=Positions|10=043|8=FIX.4.4|9=130|35=AF|34=4|49=demo.ctrader.3873996|50=3873996kOCUvnKHPSPQt1Ykz1pyaA|52=20231212-13:36:14.597|56=cServer|57=TRADE|584=Orders|585=7|10=230|8=FIX.4.4|9=112|35=0|34=5|49=demo.ctrader.3873996|50=3873996kOCUvnKHPSPQt1Ykz1pyaA|52=20231212-13:36:45.152|56=cServer|57=TRADE|10=034|8=FIX.4.4|9=112|35=0|34=6|49=demo.ctrader.3873996|50=3873996kOCUvnKHPSPQt1Ykz1pyaA|52=20231212-13:37:15.209|56=cServer|57=TRADE|10=036|8=FIX.4.4|9=112|35=0|34=7|49=demo.ctrader.3873996|50=3873996kOCUvnKHPSPQt1Ykz1pyaA|52=20231212-13:37:45.216|56=cServer|57=TRADE|10=038|8=FIX.4.4|9=112|35=0|34=8|49=demo.ctrader.3873996|50=3873996kOCUvnKHPSPQt1Ykz1pyaA|52=20231212-13:38:15.510|56=cServer|57=TRADE|10=034|8=FIX.4.4|9=112|35=0|34=9|49=demo.ctrader.3873996|50=3873996kOCUvnKHPSPQt1Ykz1pyaA|52=20231212-13:38:46.345|56=cServer|57=TRADE|10=045|8=FIX.4.4|9=113|35=0|34=10|49=demo.ctrader.3873996|50=3873996kOCUvnKHPSPQt1Ykz1pyaA|52=20231212-13:39:16.705|56=cServer|57=TRADE|10=084|8=FIX.4.4|9=227|35=5|34=11|49=demo.ctrader.3873996|50=3873996kOCUvnKHPSPQt1Ykz1pyaA|52=20231212-13:39:42.003|56=cServer|57=TRADE|49=demo.ctrader.3873996|50=3873996kOCUvnKHPSPQt1Ykz1pyaA|52=20231212-13:39:42|56=cServer|553=3873996|554=Gtlfx125|10=141|8=FIX.4.4|9=227|35=5|34=12|49=demo.ctrader.3873996|50=3873996kOCUvnKHPSPQt1Ykz1pyaA|52=20231212-13:39:43.207|56=cServer|57=TRADE|49=demo.ctrader.3873996|50=3873996kOCUvnKHPSPQt1Ykz1pyaA|52=20231212-13:39:43|56=cServer|553=3873996|554=Gtlfx125|10=150|