8=FIX.4.4|9=244|35=A|34=1|49=demo.ctrader.3873996|50=3873996-Rc8sVvCqbeyj8HKkytYLQ|52=20240104-07:16:56.409|56=cServer|57=TRADE|49=demo.ctrader.3873996|50=3873996-Rc8sVvCqbeyj8HKkytYLQ|52=20240104-07:16:56|56=cServer|98=0|108=30|141=Y|553=3873996|554=Gtlfx125|10=005|8=FIX.4.4|9=130|35=x|34=2|49=demo.ctrader.3873996|50=3873996-Rc8sVvCqbeyj8HKkytYLQ|52=20240104-07:16:57.083|56=cServer|57=TRADE|320=symbols|559=0|10=127|8=FIX.4.4|9=127|35=AN|34=3|49=demo.ctrader.3873996|50=3873996-Rc8sVvCqbeyj8HKkytYLQ|52=20240104-07:16:57.323|56=cServer|57=TRADE|710=Positions|10=075|8=FIX.4.4|9=130|35=AF|34=4|49=demo.ctrader.3873996|50=3873996-Rc8sVvCqbeyj8HKkytYLQ|52=20240104-07:16:57.324|56=cServer|57=TRADE|584=Orders|585=7|10=006|8=FIX.4.4|9=112|35=0|34=5|49=demo.ctrader.3873996|50=3873996-Rc8sVvCqbeyj8HKkytYLQ|52=20240104-07:17:27.769|56=cServer|57=TRADE|10=086|8=FIX.4.4|9=112|35=0|34=6|49=demo.ctrader.3873996|50=3873996-Rc8sVvCqbeyj8HKkytYLQ|52=20240104-07:17:57.963|56=cServer|57=TRADE|10=086|8=FIX.4.4|9=112|35=0|34=7|49=demo.ctrader.3873996|50=3873996-Rc8sVvCqbeyj8HKkytYLQ|52=20240104-07:18:27.968|56=cServer|57=TRADE|10=090|8=FIX.4.4|9=112|35=0|34=8|49=demo.ctrader.3873996|50=3873996-Rc8sVvCqbeyj8HKkytYLQ|52=20240104-07:18:58.973|56=cServer|57=TRADE|10=091|8=FIX.4.4|9=112|35=0|34=9|49=demo.ctrader.3873996|50=3873996-Rc8sVvCqbeyj8HKkytYLQ|52=20240104-07:19:29.966|56=cServer|57=TRADE|10=093|8=FIX.4.4|9=113|35=0|34=10|49=demo.ctrader.3873996|50=3873996-Rc8sVvCqbeyj8HKkytYLQ|52=20240104-07:19:59.969|56=cServer|57=TRADE|10=140|8=FIX.4.4|9=113|35=0|34=11|49=demo.ctrader.3873996|50=3873996-Rc8sVvCqbeyj8HKkytYLQ|52=20240104-07:20:29.973|56=cServer|57=TRADE|10=125|8=FIX.4.4|9=113|35=0|34=12|49=demo.ctrader.3873996|50=3873996-Rc8sVvCqbeyj8HKkytYLQ|52=20240104-07:20:59.982|56=cServer|57=TRADE|10=129|8=FIX.4.4|9=113|35=0|34=13|49=demo.ctrader.3873996|50=3873996-Rc8sVvCqbeyj8HKkytYLQ|52=20240104-07:21:29.991|56=cServer|57=TRADE|10=128|8=FIX.4.4|9=113|35=0|34=14|49=demo.ctrader.3873996|50=3873996-Rc8sVvCqbeyj8HKkytYLQ|52=20240104-07:22:00.982|56=cServer|57=TRADE|10=119|8=FIX.4.4|9=113|35=0|34=15|49=demo.ctrader.3873996|50=3873996-Rc8sVvCqbeyj8HKkytYLQ|52=20240104-07:22:30.983|56=cServer|57=TRADE|10=124|8=FIX.4.4|9=113|35=0|34=16|49=demo.ctrader.3873996|50=3873996-Rc8sVvCqbeyj8HKkytYLQ|52=20240104-07:23:00.991|56=cServer|57=TRADE|10=122|8=FIX.4.4|9=113|35=0|34=17|49=demo.ctrader.3873996|50=3873996-Rc8sVvCqbeyj8HKkytYLQ|52=20240104-07:23:31.972|56=cServer|57=TRADE|10=126|8=FIX.4.4|9=113|35=0|34=18|49=demo.ctrader.3873996|50=3873996-Rc8sVvCqbeyj8HKkytYLQ|52=20240104-07:24:01.995|56=cServer|57=TRADE|10=130|8=FIX.4.4|9=113|35=0|34=19|49=demo.ctrader.3873996|50=3873996-Rc8sVvCqbeyj8HKkytYLQ|52=20240104-07:24:32.001|56=cServer|57=TRADE|10=113|8=FIX.4.4|9=113|35=0|34=20|49=demo.ctrader.3873996|50=3873996-Rc8sVvCqbeyj8HKkytYLQ|52=20240104-07:25:03.007|56=cServer|57=TRADE|10=110|8=FIX.4.4|9=113|35=0|34=21|49=demo.ctrader.3873996|50=3873996-Rc8sVvCqbeyj8HKkytYLQ|52=20240104-07:25:33.985|56=cServer|57=TRADE|10=129|8=FIX.4.4|9=113|35=0|34=22|49=demo.ctrader.3873996|50=3873996-Rc8sVvCqbeyj8HKkytYLQ|52=20240104-07:26:04.004|56=cServer|57=TRADE|10=111|8=FIX.4.4|9=113|35=0|34=23|49=demo.ctrader.3873996|50=3873996-Rc8sVvCqbeyj8HKkytYLQ|52=20240104-07:26:34.027|56=cServer|57=TRADE|10=120|8=FIX.4.4|9=113|35=0|34=24|49=demo.ctrader.3873996|50=3873996-Rc8sVvCqbeyj8HKkytYLQ|52=20240104-07:27:05.023|56=cServer|57=TRADE|10=116|8=FIX.4.4|9=113|35=0|34=25|49=demo.ctrader.3873996|50=3873996-Rc8sVvCqbeyj8HKkytYLQ|52=20240104-07:27:36.025|56=cServer|57=TRADE|10=123|8=FIX.4.4|9=113|35=0|34=26|49=demo.ctrader.3873996|50=3873996-Rc8sVvCqbeyj8HKkytYLQ|52=20240104-07:28:06.037|56=cServer|57=TRADE|10=125|8=FIX.4.4|9=113|35=0|34=27|49=demo.ctrader.3873996|50=3873996-Rc8sVvCqbeyj8HKkytYLQ|52=20240104-07:28:37.036|56=cServer|57=TRADE|10=129|8=FIX.4.4|9=113|35=0|34=28|49=demo.ctrader.3873996|50=3873996-Rc8sVvCqbeyj8HKkytYLQ|52=20240104-07:29:08.033|56=cServer|57=TRADE|10=126|8=FIX.4.4|9=113|35=0|34=29|49=demo.ctrader.3873996|50=3873996-Rc8sVvCqbeyj8HKkytYLQ|52=20240104-07:29:39.037|56=cServer|57=TRADE|10=135|8=FIX.4.4|9=113|35=0|34=30|49=demo.ctrader.3873996|50=3873996-Rc8sVvCqbeyj8HKkytYLQ|52=20240104-07:30:10.029|56=cServer|57=TRADE|10=109|8=FIX.4.4|9=113|35=0|34=31|49=demo.ctrader.3873996|50=3873996-Rc8sVvCqbeyj8HKkytYLQ|52=20240104-07:30:40.084|56=cServer|57=TRADE|10=114|8=FIX.4.4|9=113|35=0|34=32|49=demo.ctrader.3873996|50=3873996-Rc8sVvCqbeyj8HKkytYLQ|52=20240104-07:31:11.081|56=cServer|57=TRADE|10=111|8=FIX.4.4|9=113|35=0|34=33|49=demo.ctrader.3873996|50=3873996-Rc8sVvCqbeyj8HKkytYLQ|52=20240104-07:31:42.075|56=cServer|57=TRADE|10=119|8=FIX.4.4|9=113|35=0|34=34|49=demo.ctrader.3873996|50=3873996-Rc8sVvCqbeyj8HKkytYLQ|52=20240104-07:32:13.073|56=cServer|57=TRADE|10=117|8=FIX.4.4|9=113|35=0|34=35|49=demo.ctrader.3873996|50=3873996-Rc8sVvCqbeyj8HKkytYLQ|52=20240104-07:32:44.072|56=cServer|57=TRADE|10=121|8=FIX.4.4|9=113|35=0|34=36|49=demo.ctrader.3873996|50=3873996-Rc8sVvCqbeyj8HKkytYLQ|52=20240104-07:33:14.092|56=cServer|57=TRADE|10=122|8=FIX.4.4|9=113|35=0|34=37|49=demo.ctrader.3873996|50=3873996-Rc8sVvCqbeyj8HKkytYLQ|52=20240104-07:33:45.079|56=cServer|57=TRADE|10=132|8=FIX.4.4|9=113|35=0|34=38|49=demo.ctrader.3873996|50=3873996-Rc8sVvCqbeyj8HKkytYLQ|52=20240104-07:34:16.086|56=cServer|57=TRADE|10=130|8=FIX.4.4|9=113|35=0|34=39|49=demo.ctrader.3873996|50=3873996-Rc8sVvCqbeyj8HKkytYLQ|52=20240104-07:34:46.102|56=cServer|57=TRADE|10=123|8=FIX.4.4|9=113|35=0|34=40|49=demo.ctrader.3873996|50=3873996-Rc8sVvCqbeyj8HKkytYLQ|52=20240104-07:35:17.081|56=cServer|57=TRADE|10=120|8=FIX.4.4|9=113|35=0|34=41|49=demo.ctrader.3873996|50=3873996-Rc8sVvCqbeyj8HKkytYLQ|52=20240104-07:35:47.121|56=cServer|57=TRADE|10=119|8=FIX.4.4|9=113|35=0|34=42|49=demo.ctrader.3873996|50=3873996-Rc8sVvCqbeyj8HKkytYLQ|52=20240104-07:36:17.121|56=cServer|57=TRADE|10=118|8=FIX.4.4|9=113|35=0|34=43|49=demo.ctrader.3873996|50=3873996-Rc8sVvCqbeyj8HKkytYLQ|52=20240104-07:36:47.207|56=cServer|57=TRADE|10=127|8=FIX.4.4|9=113|35=0|34=44|49=demo.ctrader.3873996|50=3873996-Rc8sVvCqbeyj8HKkytYLQ|52=20240104-07:37:18.142|56=cServer|57=TRADE|10=125|8=FIX.4.4|9=113|35=0|34=45|49=demo.ctrader.3873996|50=3873996-Rc8sVvCqbeyj8HKkytYLQ|52=20240104-07:37:48.161|56=cServer|57=TRADE|10=130|8=FIX.4.4|9=113|35=0|34=46|49=demo.ctrader.3873996|50=3873996-Rc8sVvCqbeyj8HKkytYLQ|52=20240104-07:38:18.165|56=cServer|57=TRADE|10=133|8=FIX.4.4|9=113|35=0|34=47|49=demo.ctrader.3873996|50=3873996-Rc8sVvCqbeyj8HKkytYLQ|52=20240104-07:38:49.124|56=cServer|57=TRADE|10=133|8=FIX.4.4|9=113|35=0|34=48|49=demo.ctrader.3873996|50=3873996-Rc8sVvCqbeyj8HKkytYLQ|52=20240104-07:39:20.114|56=cServer|57=TRADE|10=123|8=FIX.4.4|9=113|35=0|34=49|49=demo.ctrader.3873996|50=3873996-Rc8sVvCqbeyj8HKkytYLQ|52=20240104-07:39:50.129|56=cServer|57=TRADE|10=133|8=FIX.4.4|9=113|35=0|34=50|49=demo.ctrader.3873996|50=3873996-Rc8sVvCqbeyj8HKkytYLQ|52=20240104-07:40:20.140|56=cServer|57=TRADE|10=107|8=FIX.4.4|9=113|35=0|34=51|49=demo.ctrader.3873996|50=3873996-Rc8sVvCqbeyj8HKkytYLQ|52=20240104-07:40:50.142|56=cServer|57=TRADE|10=113|8=FIX.4.4|9=113|35=0|34=52|49=demo.ctrader.3873996|50=3873996-Rc8sVvCqbeyj8HKkytYLQ|52=20240104-07:41:20.147|56=cServer|57=TRADE|10=117|8=FIX.4.4|9=113|35=0|34=53|49=demo.ctrader.3873996|50=3873996-Rc8sVvCqbeyj8HKkytYLQ|52=20240104-07:41:51.141|56=cServer|57=TRADE|10=116|8=FIX.4.4|9=113|35=0|34=54|49=demo.ctrader.3873996|50=3873996-Rc8sVvCqbeyj8HKkytYLQ|52=20240104-07:42:21.152|56=cServer|57=TRADE|10=117|8=FIX.4.4|9=113|35=0|34=55|49=demo.ctrader.3873996|50=3873996-Rc8sVvCqbeyj8HKkytYLQ|52=20240104-07:42:51.158|56=cServer|57=TRADE|10=127|8=FIX.4.4|9=113|35=0|34=56|49=demo.ctrader.3873996|50=3873996-Rc8sVvCqbeyj8HKkytYLQ|52=20240104-07:43:22.145|56=cServer|57=TRADE|10=123|8=FIX.4.4|9=113|35=0|34=57|49=demo.ctrader.3873996|50=3873996-Rc8sVvCqbeyj8HKkytYLQ|52=20240104-07:43:53.133|56=cServer|57=TRADE|10=125|8=FIX.4.4|9=113|35=0|34=58|49=demo.ctrader.3873996|50=3873996-Rc8sVvCqbeyj8HKkytYLQ|52=20240104-07:44:23.157|56=cServer|57=TRADE|10=130|8=FIX.4.4|9=113|35=0|34=59|49=demo.ctrader.3873996|50=3873996-Rc8sVvCqbeyj8HKkytYLQ|52=20240104-07:44:53.189|56=cServer|57=TRADE|10=139|8=FIX.4.4|9=113|35=0|34=60|49=demo.ctrader.3873996|50=3873996-Rc8sVvCqbeyj8HKkytYLQ|52=20240104-07:45:23.202|56=cServer|57=TRADE|10=115|8=FIX.4.4|9=113|35=0|34=61|49=demo.ctrader.3873996|50=3873996-Rc8sVvCqbeyj8HKkytYLQ|52=20240104-07:45:54.133|56=cServer|57=TRADE|10=123|8=FIX.4.4|9=113|35=0|34=62|49=demo.ctrader.3873996|50=3873996-Rc8sVvCqbeyj8HKkytYLQ|52=20240104-07:46:24.178|56=cServer|57=TRADE|10=131|8=FIX.4.4|9=113|35=0|34=63|49=demo.ctrader.3873996|50=3873996-Rc8sVvCqbeyj8HKkytYLQ|52=20240104-07:46:55.158|56=cServer|57=TRADE|10=134|8=FIX.4.4|9=113|35=0|34=64|49=demo.ctrader.3873996|50=3873996-Rc8sVvCqbeyj8HKkytYLQ|52=20240104-07:47:25.188|56=cServer|57=TRADE|10=136|8=FIX.4.4|9=113|35=0|34=65|49=demo.ctrader.3873996|50=3873996-Rc8sVvCqbeyj8HKkytYLQ|52=20240104-07:47:56.184|56=cServer|57=TRADE|10=137|8=FIX.4.4|9=113|35=0|34=66|49=demo.ctrader.3873996|50=3873996-Rc8sVvCqbeyj8HKkytYLQ|52=20240104-07:48:26.185|56=cServer|57=TRADE|10=137|8=FIX.4.4|9=113|35=0|34=67|49=demo.ctrader.3873996|50=3873996-Rc8sVvCqbeyj8HKkytYLQ|52=20240104-07:48:56.264|56=cServer|57=TRADE|10=139|8=FIX.4.4|9=113|35=0|34=68|49=demo.ctrader.3873996|50=3873996-Rc8sVvCqbeyj8HKkytYLQ|52=20240104-07:49:27.207|56=cServer|57=TRADE|10=136|8=FIX.4.4|9=113|35=0|34=69|49=demo.ctrader.3873996|50=3873996-Rc8sVvCqbeyj8HKkytYLQ|52=20240104-07:49:57.224|56=cServer|57=TRADE|10=139|8=FIX.4.4|9=113|35=0|34=70|49=demo.ctrader.3873996|50=3873996-Rc8sVvCqbeyj8HKkytYLQ|52=20240104-07:50:27.264|56=cServer|57=TRADE|10=124|8=FIX.4.4|9=113|35=0|34=71|49=demo.ctrader.3873996|50=3873996-Rc8sVvCqbeyj8HKkytYLQ|52=20240104-07:50:57.967|56=cServer|57=TRADE|10=138|8=FIX.4.4|9=113|35=0|34=72|49=demo.ctrader.3873996|50=3873996-Rc8sVvCqbeyj8HKkytYLQ|52=20240104-07:51:27.972|56=cServer|57=TRADE|10=133|8=FIX.4.4|9=113|35=0|34=73|49=demo.ctrader.3873996|50=3873996-Rc8sVvCqbeyj8HKkytYLQ|52=20240104-07:51:58.971|56=cServer|57=TRADE|10=137|8=FIX.4.4|9=113|35=0|34=74|49=demo.ctrader.3873996|50=3873996-Rc8sVvCqbeyj8HKkytYLQ|52=20240104-07:52:29.971|56=cServer|57=TRADE|10=137|8=FIX.4.4|9=113|35=0|34=75|49=demo.ctrader.3873996|50=3873996-Rc8sVvCqbeyj8HKkytYLQ|52=20240104-07:52:59.981|56=cServer|57=TRADE|10=142|8=FIX.4.4|9=113|35=0|34=76|49=demo.ctrader.3873996|50=3873996-Rc8sVvCqbeyj8HKkytYLQ|52=20240104-07:53:30.990|56=cServer|57=TRADE|10=133|8=FIX.4.4|9=113|35=0|34=77|49=demo.ctrader.3873996|50=3873996-Rc8sVvCqbeyj8HKkytYLQ|52=20240104-07:54:00.996|56=cServer|57=TRADE|10=138|8=FIX.4.4|9=113|35=0|34=78|49=demo.ctrader.3873996|50=3873996-Rc8sVvCqbeyj8HKkytYLQ|52=20240104-07:54:31.986|56=cServer|57=TRADE|10=142|8=FIX.4.4|9=113|35=0|34=79|49=demo.ctrader.3873996|50=3873996-Rc8sVvCqbeyj8HKkytYLQ|52=20240104-07:55:02.992|56=cServer|57=TRADE|10=139|8=FIX.4.4|9=113|35=0|34=80|49=demo.ctrader.3873996|50=3873996-Rc8sVvCqbeyj8HKkytYLQ|52=20240104-07:55:33.009|56=cServer|57=TRADE|10=124|8=FIX.4.4|9=113|35=0|34=81|49=demo.ctrader.3873996|50=3873996-Rc8sVvCqbeyj8HKkytYLQ|52=20240104-07:56:03.018|56=cServer|57=TRADE|10=123|8=FIX.4.4|9=113|35=0|34=82|49=demo.ctrader.3873996|50=3873996-Rc8sVvCqbeyj8HKkytYLQ|52=20240104-07:56:34.015|56=cServer|57=TRADE|10=125|8=FIX.4.4|9=113|35=0|34=83|49=demo.ctrader.3873996|50=3873996-Rc8sVvCqbeyj8HKkytYLQ|52=20240104-07:57:05.011|56=cServer|57=TRADE|10=121|8=FIX.4.4|9=113|35=0|34=84|49=demo.ctrader.3873996|50=3873996-Rc8sVvCqbeyj8HKkytYLQ|52=20240104-07:57:36.013|56=cServer|57=TRADE|10=128|8=FIX.4.4|9=113|35=0|34=85|49=demo.ctrader.3873996|50=3873996-Rc8sVvCqbeyj8HKkytYLQ|52=20240104-07:58:06.041|56=cServer|57=TRADE|10=128|8=FIX.4.4|9=113|35=0|34=86|49=demo.ctrader.3873996|50=3873996-Rc8sVvCqbeyj8HKkytYLQ|52=20240104-07:58:37.051|56=cServer|57=TRADE|10=134|8=FIX.4.4|9=113|35=0|34=87|49=demo.ctrader.3873996|50=3873996-Rc8sVvCqbeyj8HKkytYLQ|52=20240104-07:59:08.037|56=cServer|57=TRADE|10=138|8=FIX.4.4|9=178|35=D|34=88|49=demo.ctrader.3873996|50=3873996-Rc8sVvCqbeyj8HKkytYLQ|52=20240104-07:59:36.277|56=cServer|57=TRADE|11=68397511|38=1000|40=1|54=1|55=2|59=3|60=20240104-12:59:36.276|10=160|8=FIX.4.4|9=113|35=0|34=89|49=demo.ctrader.3873996|50=3873996-Rc8sVvCqbeyj8HKkytYLQ|52=20240104-08:00:06.959|56=cServer|57=TRADE|10=138|8=FIX.4.4|9=113|35=0|34=90|49=demo.ctrader.3873996|50=3873996-Rc8sVvCqbeyj8HKkytYLQ|52=20240104-08:00:37.969|56=cServer|57=TRADE|10=135|8=FIX.4.4|9=113|35=0|34=91|49=demo.ctrader.3873996|50=3873996-Rc8sVvCqbeyj8HKkytYLQ|52=20240104-08:01:08.971|56=cServer|57=TRADE|10=128|8=FIX.4.4|9=113|35=0|34=92|49=demo.ctrader.3873996|50=3873996-Rc8sVvCqbeyj8HKkytYLQ|52=20240104-08:01:39.975|56=cServer|57=TRADE|10=137|8=FIX.4.4|9=178|35=D|34=93|49=demo.ctrader.3873996|50=3873996-Rc8sVvCqbeyj8HKkytYLQ|52=20240104-08:01:48.625|56=cServer|57=TRADE|11=68397511|38=1000|40=1|54=1|55=2|59=3|60=20240104-13:01:48.625|10=133|8=FIX.4.4|9=113|35=0|34=94|49=demo.ctrader.3873996|50=3873996-Rc8sVvCqbeyj8HKkytYLQ|52=20240104-08:02:19.306|56=cServer|57=TRADE|10=126|8=FIX.4.4|9=113|35=0|34=95|49=demo.ctrader.3873996|50=3873996-Rc8sVvCqbeyj8HKkytYLQ|52=20240104-08:02:49.605|56=cServer|57=TRADE|10=132|8=FIX.4.4|9=113|35=0|34=96|49=demo.ctrader.3873996|50=3873996-Rc8sVvCqbeyj8HKkytYLQ|52=20240104-08:03:19.858|56=cServer|57=TRADE|10=141|8=FIX.4.4|9=113|35=0|34=97|49=demo.ctrader.3873996|50=3873996-Rc8sVvCqbeyj8HKkytYLQ|52=20240104-08:03:49.975|56=cServer|57=TRADE|10=145|8=FIX.4.4|9=113|35=0|34=98|49=demo.ctrader.3873996|50=3873996-Rc8sVvCqbeyj8HKkytYLQ|52=20240104-08:04:20.966|56=cServer|57=TRADE|10=136|8=FIX.4.4|9=227|35=5|34=99|49=demo.ctrader.3873996|50=3873996-Rc8sVvCqbeyj8HKkytYLQ|52=20240104-08:04:37.479|56=cServer|57=TRADE|49=demo.ctrader.3873996|50=3873996-Rc8sVvCqbeyj8HKkytYLQ|52=20240104-08:04:37|56=cServer|553=3873996|554=Gtlfx125|10=246|8=FIX.4.4|9=228|35=5|34=100|49=demo.ctrader.3873996|50=3873996-Rc8sVvCqbeyj8HKkytYLQ|52=20240104-08:04:37.522|56=cServer|57=TRADE|49=demo.ctrader.3873996|50=3873996-Rc8sVvCqbeyj8HKkytYLQ|52=20240104-08:04:37|56=cServer|553=3873996|554=Gtlfx125|10=011|