8=FIX.4.4|9=244|35=A|34=1|49=demo.ctrader.3873996|50=3873996KuIhYAx3YTp8Z-_xMHmd-A|52=20231227-10:21:35.896|56=cServer|57=TRADE|49=demo.ctrader.3873996|50=3873996KuIhYAx3YTp8Z-_xMHmd-A|52=20231227-10:21:35|56=cServer|98=0|108=30|141=Y|553=3873996|554=Gtlfx125|10=219|8=FIX.4.4|9=130|35=x|34=2|49=demo.ctrader.3873996|50=3873996KuIhYAx3YTp8Z-_xMHmd-A|52=20231227-10:21:39.408|56=cServer|57=TRADE|320=symbols|559=0|10=233|8=FIX.4.4|9=127|35=AN|34=3|49=demo.ctrader.3873996|50=3873996KuIhYAx3YTp8Z-_xMHmd-A|52=20231227-10:21:39.933|56=cServer|57=TRADE|710=Positions|10=187|8=FIX.4.4|9=130|35=AF|34=4|49=demo.ctrader.3873996|50=3873996KuIhYAx3YTp8Z-_xMHmd-A|52=20231227-10:21:39.933|56=cServer|57=TRADE|584=Orders|585=7|10=117|8=FIX.4.4|9=112|35=0|34=5|49=demo.ctrader.3873996|50=3873996KuIhYAx3YTp8Z-_xMHmd-A|52=20231227-10:22:10.245|56=cServer|57=TRADE|10=172|8=FIX.4.4|9=112|35=0|34=6|49=demo.ctrader.3873996|50=3873996KuIhYAx3YTp8Z-_xMHmd-A|52=20231227-10:22:40.552|56=cServer|57=TRADE|10=177|8=FIX.4.4|9=112|35=0|34=7|49=demo.ctrader.3873996|50=3873996KuIhYAx3YTp8Z-_xMHmd-A|52=20231227-10:23:10.708|56=cServer|57=TRADE|10=179|