8=FIX.4.4|9=244|35=A|34=1|49=demo.ctrader.3873996|50=38739966zb64rXFyvq83VC4MH4PnA|52=20231225-09:02:22.971|56=cServer|57=QUOTE|49=demo.ctrader.3873996|50=38739966zb64rXFyvq83VC4MH4PnA|52=20231225-09:02:22|56=cServer|98=0|108=30|141=Y|553=3873996|554=Gtlfx125|10=083|8=FIX.4.4|9=170|35=V|34=2|49=demo.ctrader.3873996|50=38739966zb64rXFyvq83VC4MH4PnA|52=20231225-09:02:23.777|56=cServer|57=QUOTE|262=MARKETDATAID|263=1|264=1|267=2|269=0|269=1|146=1|55=1|10=027|8=FIX.4.4|9=170|35=V|34=3|49=demo.ctrader.3873996|50=38739966zb64rXFyvq83VC4MH4PnA|52=20231225-09:02:23.777|56=cServer|57=QUOTE|262=MARKETDATAID|263=1|264=1|267=2|269=0|269=1|146=1|55=2|10=029|8=FIX.4.4|9=170|35=V|34=4|49=demo.ctrader.3873996|50=38739966zb64rXFyvq83VC4MH4PnA|52=20231225-09:02:23.778|56=cServer|57=QUOTE|262=MARKETDATAID|263=1|264=1|267=2|269=0|269=1|146=1|55=3|10=032|8=FIX.4.4|9=170|35=V|34=5|49=demo.ctrader.3873996|50=38739966zb64rXFyvq83VC4MH4PnA|52=20231225-09:02:23.778|56=cServer|57=QUOTE|262=MARKETDATAID|263=1|264=1|267=2|269=0|269=1|146=1|55=4|10=034|8=FIX.4.4|9=170|35=V|34=6|49=demo.ctrader.3873996|50=38739966zb64rXFyvq83VC4MH4PnA|52=20231225-09:02:23.778|56=cServer|57=QUOTE|262=MARKETDATAID|263=1|264=1|267=2|269=0|269=1|146=1|55=5|10=036|8=FIX.4.4|9=170|35=V|34=7|49=demo.ctrader.3873996|50=38739966zb64rXFyvq83VC4MH4PnA|52=20231225-09:02:23.778|56=cServer|57=QUOTE|262=MARKETDATAID|263=1|264=1|267=2|269=0|269=1|146=1|55=6|10=038|8=FIX.4.4|9=170|35=V|34=8|49=demo.ctrader.3873996|50=38739966zb64rXFyvq83VC4MH4PnA|52=20231225-09:02:23.778|56=cServer|57=QUOTE|262=MARKETDATAID|263=1|264=1|267=2|269=0|269=1|146=1|55=7|10=040|8=FIX.4.4|9=170|35=V|34=9|49=demo.ctrader.3873996|50=38739966zb64rXFyvq83VC4MH4PnA|52=20231225-09:02:23.778|56=cServer|57=QUOTE|262=MARKETDATAID|263=1|264=1|267=2|269=0|269=1|146=1|55=8|10=042|8=FIX.4.4|9=171|35=V|34=10|49=demo.ctrader.3873996|50=38739966zb64rXFyvq83VC4MH4PnA|52=20231225-09:02:23.779|56=cServer|57=QUOTE|262=MARKETDATAID|263=1|264=1|267=2|269=0|269=1|146=1|55=9|10=085|8=FIX.4.4|9=172|35=V|34=11|49=demo.ctrader.3873996|50=38739966zb64rXFyvq83VC4MH4PnA|52=20231225-09:02:23.779|56=cServer|57=QUOTE|262=MARKETDATAID|263=1|264=1|267=2|269=0|269=1|146=1|55=10|10=127|8=FIX.4.4|9=172|35=V|34=12|49=demo.ctrader.3873996|50=38739966zb64rXFyvq83VC4MH4PnA|52=20231225-09:02:23.779|56=cServer|57=QUOTE|262=MARKETDATAID|263=1|264=1|267=2|269=0|269=1|146=1|55=11|10=129|8=FIX.4.4|9=172|35=V|34=13|49=demo.ctrader.3873996|50=38739966zb64rXFyvq83VC4MH4PnA|52=20231225-09:02:23.779|56=cServer|57=QUOTE|262=MARKETDATAID|263=1|264=1|267=2|269=0|269=1|146=1|55=12|10=131|8=FIX.4.4|9=172|35=V|34=14|49=demo.ctrader.3873996|50=38739966zb64rXFyvq83VC4MH4PnA|52=20231225-09:02:23.779|56=cServer|57=QUOTE|262=MARKETDATAID|263=1|264=1|267=2|269=0|269=1|146=1|55=13|10=133|8=FIX.4.4|9=172|35=V|34=15|49=demo.ctrader.3873996|50=38739966zb64rXFyvq83VC4MH4PnA|52=20231225-09:02:23.779|56=cServer|57=QUOTE|262=MARKETDATAID|263=1|264=1|267=2|269=0|269=1|146=1|55=14|10=135|8=FIX.4.4|9=172|35=V|34=16|49=demo.ctrader.3873996|50=38739966zb64rXFyvq83VC4MH4PnA|52=20231225-09:02:23.779|56=cServer|57=QUOTE|262=MARKETDATAID|263=1|264=1|267=2|269=0|269=1|146=1|55=15|10=137|8=FIX.4.4|9=172|35=V|34=17|49=demo.ctrader.3873996|50=38739966zb64rXFyvq83VC4MH4PnA|52=20231225-09:02:23.779|56=cServer|57=QUOTE|262=MARKETDATAID|263=1|264=1|267=2|269=0|269=1|146=1|55=16|10=139|8=FIX.4.4|9=172|35=V|34=18|49=demo.ctrader.3873996|50=38739966zb64rXFyvq83VC4MH4PnA|52=20231225-09:02:23.779|56=cServer|57=QUOTE|262=MARKETDATAID|263=1|264=1|267=2|269=0|269=1|146=1|55=17|10=141|8=FIX.4.4|9=172|35=V|34=19|49=demo.ctrader.3873996|50=38739966zb64rXFyvq83VC4MH4PnA|52=20231225-09:02:23.780|56=cServer|57=QUOTE|262=MARKETDATAID|263=1|264=1|267=2|269=0|269=1|146=1|55=18|10=135|8=FIX.4.4|9=172|35=V|34=20|49=demo.ctrader.3873996|50=38739966zb64rXFyvq83VC4MH4PnA|52=20231225-09:02:23.780|56=cServer|57=QUOTE|262=MARKETDATAID|263=1|264=1|267=2|269=0|269=1|146=1|55=19|10=128|8=FIX.4.4|9=172|35=V|34=21|49=demo.ctrader.3873996|50=38739966zb64rXFyvq83VC4MH4PnA|52=20231225-09:02:23.780|56=cServer|57=QUOTE|262=MARKETDATAID|263=1|264=1|267=2|269=0|269=1|146=1|55=22|10=123|8=FIX.4.4|9=113|35=0|34=22|49=demo.ctrader.3873996|50=38739966zb64rXFyvq83VC4MH4PnA|52=20231225-09:02:54.051|56=cServer|57=QUOTE|10=176|8=FIX.4.4|9=113|35=0|34=23|49=demo.ctrader.3873996|50=38739966zb64rXFyvq83VC4MH4PnA|52=20231225-09:03:24.338|56=cServer|57=QUOTE|10=183|8=FIX.4.4|9=113|35=0|34=24|49=demo.ctrader.3873996|50=38739966zb64rXFyvq83VC4MH4PnA|52=20231225-09:03:54.610|56=cServer|57=QUOTE|10=180|