8=FIX.4.4|9=244|35=A|34=1|49=demo.ctrader.3873996|50=3873996dpgRc3vsFABhP75bhzmY0Q|52=20240104-08:54:19.881|56=cServer|57=TRADE|49=demo.ctrader.3873996|50=3873996dpgRc3vsFABhP75bhzmY0Q|52=20240104-08:54:19|56=cServer|98=0|108=30|141=Y|553=3873996|554=Gtlfx125|10=117|8=FIX.4.4|9=130|35=x|34=2|49=demo.ctrader.3873996|50=3873996dpgRc3vsFABhP75bhzmY0Q|52=20240104-08:54:20.488|56=cServer|57=TRADE|320=symbols|559=0|10=053|8=FIX.4.4|9=127|35=AN|34=3|49=demo.ctrader.3873996|50=3873996dpgRc3vsFABhP75bhzmY0Q|52=20240104-08:54:20.743|56=cServer|57=TRADE|710=Positions|10=254|8=FIX.4.4|9=130|35=AF|34=4|49=demo.ctrader.3873996|50=3873996dpgRc3vsFABhP75bhzmY0Q|52=20240104-08:54:20.744|56=cServer|57=TRADE|584=Orders|585=7|10=185|8=FIX.4.4|9=177|35=D|34=5|49=demo.ctrader.3873996|50=3873996dpgRc3vsFABhP75bhzmY0Q|52=20240104-08:54:29.039|56=cServer|57=TRADE|11=68421681|38=1000|40=1|54=1|55=2|59=3|60=20240104-13:54:29.038|10=008|8=FIX.4.4|9=127|35=AN|34=6|49=demo.ctrader.3873996|50=3873996dpgRc3vsFABhP75bhzmY0Q|52=20240104-08:54:37.328|56=cServer|57=TRADE|710=Positions|10=008|8=FIX.4.4|9=112|35=0|34=7|49=demo.ctrader.3873996|50=3873996dpgRc3vsFABhP75bhzmY0Q|52=20240104-08:55:07.784|56=cServer|57=TRADE|10=010|8=FIX.4.4|9=112|35=0|34=8|49=demo.ctrader.3873996|50=3873996dpgRc3vsFABhP75bhzmY0Q|52=20240104-08:55:37.957|56=cServer|57=TRADE|10=016|8=FIX.4.4|9=112|35=0|34=9|49=demo.ctrader.3873996|50=3873996dpgRc3vsFABhP75bhzmY0Q|52=20240104-08:56:08.968|56=cServer|57=TRADE|10=018|8=FIX.4.4|9=227|35=5|34=10|49=demo.ctrader.3873996|50=3873996dpgRc3vsFABhP75bhzmY0Q|52=20240104-08:56:21.022|56=cServer|57=TRADE|49=demo.ctrader.3873996|50=3873996dpgRc3vsFABhP75bhzmY0Q|52=20240104-08:56:21|56=cServer|553=3873996|554=Gtlfx125|10=061|8=FIX.4.4|9=227|35=5|34=11|49=demo.ctrader.3873996|50=3873996dpgRc3vsFABhP75bhzmY0Q|52=20240104-08:56:21.057|56=cServer|57=TRADE|49=demo.ctrader.3873996|50=3873996dpgRc3vsFABhP75bhzmY0Q|52=20240104-08:56:21|56=cServer|553=3873996|554=Gtlfx125|10=070|