8=FIX.4.4|9=244|35=A|34=1|49=demo.ctrader.3873996|50=3873996HNunGusX3sJ0622mCX0PGQ|52=20231222-13:59:52.282|56=cServer|57=TRADE|49=demo.ctrader.3873996|50=3873996HNunGusX3sJ0622mCX0PGQ|52=20231222-13:59:52|56=cServer|98=0|108=30|141=Y|553=3873996|554=Gtlfx125|10=026|8=FIX.4.4|9=130|35=x|34=2|49=demo.ctrader.3873996|50=3873996HNunGusX3sJ0622mCX0PGQ|52=20231222-13:59:52.835|56=cServer|57=TRADE|320=symbols|559=0|10=142|8=FIX.4.4|9=127|35=AN|34=3|49=demo.ctrader.3873996|50=3873996HNunGusX3sJ0622mCX0PGQ|52=20231222-13:59:53.139|56=cServer|57=TRADE|710=Positions|10=091|8=FIX.4.4|9=130|35=AF|34=4|49=demo.ctrader.3873996|50=3873996HNunGusX3sJ0622mCX0PGQ|52=20231222-13:59:53.139|56=cServer|57=TRADE|584=Orders|585=7|10=021|8=FIX.4.4|9=112|35=0|34=5|49=demo.ctrader.3873996|50=3873996HNunGusX3sJ0622mCX0PGQ|52=20231222-14:00:24.017|56=cServer|57=TRADE|10=070|8=FIX.4.4|9=112|35=0|34=6|49=demo.ctrader.3873996|50=3873996HNunGusX3sJ0622mCX0PGQ|52=20231222-14:00:54.097|56=cServer|57=TRADE|10=082|8=FIX.4.4|9=112|35=0|34=7|49=demo.ctrader.3873996|50=3873996HNunGusX3sJ0622mCX0PGQ|52=20231222-14:01:25.109|56=cServer|57=TRADE|10=076|8=FIX.4.4|9=112|35=0|34=8|49=demo.ctrader.3873996|50=3873996HNunGusX3sJ0622mCX0PGQ|52=20231222-14:01:56.108|56=cServer|57=TRADE|10=080|8=FIX.4.4|9=112|35=0|34=9|49=demo.ctrader.3873996|50=3873996HNunGusX3sJ0622mCX0PGQ|52=20231222-14:02:26.109|56=cServer|57=TRADE|10=080|8=FIX.4.4|9=113|35=0|34=10|49=demo.ctrader.3873996|50=3873996HNunGusX3sJ0622mCX0PGQ|52=20231222-14:02:56.132|56=cServer|57=TRADE|10=120|8=FIX.4.4|9=113|35=0|34=11|49=demo.ctrader.3873996|50=3873996HNunGusX3sJ0622mCX0PGQ|52=20231222-14:03:27.136|56=cServer|57=TRADE|10=124|8=FIX.4.4|9=113|35=0|34=12|49=demo.ctrader.3873996|50=3873996HNunGusX3sJ0622mCX0PGQ|52=20231222-14:03:58.127|56=cServer|57=TRADE|10=129|8=FIX.4.4|9=113|35=0|34=13|49=demo.ctrader.3873996|50=3873996HNunGusX3sJ0622mCX0PGQ|52=20231222-14:04:28.130|56=cServer|57=TRADE|10=122|8=FIX.4.4|9=113|35=0|34=14|49=demo.ctrader.3873996|50=3873996HNunGusX3sJ0622mCX0PGQ|52=20231222-14:04:59.131|56=cServer|57=TRADE|10=128|8=FIX.4.4|9=113|35=0|34=15|49=demo.ctrader.3873996|50=3873996HNunGusX3sJ0622mCX0PGQ|52=20231222-14:05:29.139|56=cServer|57=TRADE|10=135|8=FIX.4.4|9=113|35=0|34=16|49=demo.ctrader.3873996|50=3873996HNunGusX3sJ0622mCX0PGQ|52=20231222-14:05:59.155|56=cServer|57=TRADE|10=137|8=FIX.4.4|9=113|35=0|34=17|49=demo.ctrader.3873996|50=3873996HNunGusX3sJ0622mCX0PGQ|52=20231222-14:06:29.168|56=cServer|57=TRADE|10=140|8=FIX.4.4|9=113|35=0|34=18|49=demo.ctrader.3873996|50=3873996HNunGusX3sJ0622mCX0PGQ|52=20231222-14:06:59.171|56=cServer|57=TRADE|10=138|8=FIX.4.4|9=113|35=0|34=19|49=demo.ctrader.3873996|50=3873996HNunGusX3sJ0622mCX0PGQ|52=20231222-14:07:30.132|56=cServer|57=TRADE|10=126|8=FIX.4.4|9=113|35=0|34=20|49=demo.ctrader.3873996|50=3873996HNunGusX3sJ0622mCX0PGQ|52=20231222-14:08:00.152|56=cServer|57=TRADE|10=118|8=FIX.4.4|9=113|35=0|34=21|49=demo.ctrader.3873996|50=3873996HNunGusX3sJ0622mCX0PGQ|52=20231222-14:08:31.143|56=cServer|57=TRADE|10=123|8=FIX.4.4|9=113|35=0|34=22|49=demo.ctrader.3873996|50=3873996HNunGusX3sJ0622mCX0PGQ|52=20231222-14:09:01.176|56=cServer|57=TRADE|10=128|8=FIX.4.4|9=113|35=0|34=23|49=demo.ctrader.3873996|50=3873996HNunGusX3sJ0622mCX0PGQ|52=20231222-14:09:31.177|56=cServer|57=TRADE|10=133|8=FIX.4.4|9=113|35=0|34=24|49=demo.ctrader.3873996|50=3873996HNunGusX3sJ0622mCX0PGQ|52=20231222-14:10:02.155|56=cServer|57=TRADE|10=120|8=FIX.4.4|9=113|35=0|34=25|49=demo.ctrader.3873996|50=3873996HNunGusX3sJ0622mCX0PGQ|52=20231222-14:10:33.153|56=cServer|57=TRADE|10=123|8=FIX.4.4|9=113|35=0|34=26|49=demo.ctrader.3873996|50=3873996HNunGusX3sJ0622mCX0PGQ|52=20231222-14:11:03.168|56=cServer|57=TRADE|10=128|8=FIX.4.4|9=113|35=0|34=27|49=demo.ctrader.3873996|50=3873996HNunGusX3sJ0622mCX0PGQ|52=20231222-14:11:34.157|56=cServer|57=TRADE|10=131|8=FIX.4.4|9=113|35=0|34=28|49=demo.ctrader.3873996|50=3873996HNunGusX3sJ0622mCX0PGQ|52=20231222-14:12:04.161|56=cServer|57=TRADE|10=125|8=FIX.4.4|9=113|35=0|34=29|49=demo.ctrader.3873996|50=3873996HNunGusX3sJ0622mCX0PGQ|52=20231222-14:12:34.190|56=cServer|57=TRADE|10=131|8=FIX.4.4|9=113|35=0|34=30|49=demo.ctrader.3873996|50=3873996HNunGusX3sJ0622mCX0PGQ|52=20231222-14:13:04.226|56=cServer|57=TRADE|10=121|8=FIX.4.4|9=113|35=0|34=31|49=demo.ctrader.3873996|50=3873996HNunGusX3sJ0622mCX0PGQ|52=20231222-14:13:35.216|56=cServer|57=TRADE|10=125|8=FIX.4.4|9=113|35=0|34=32|49=demo.ctrader.3873996|50=3873996HNunGusX3sJ0622mCX0PGQ|52=20231222-14:14:05.217|56=cServer|57=TRADE|10=125|8=FIX.4.4|9=113|35=0|34=33|49=demo.ctrader.3873996|50=3873996HNunGusX3sJ0622mCX0PGQ|52=20231222-14:14:36.187|56=cServer|57=TRADE|10=136|8=FIX.4.4|9=113|35=0|34=34|49=demo.ctrader.3873996|50=3873996HNunGusX3sJ0622mCX0PGQ|52=20231222-14:15:06.231|56=cServer|57=TRADE|10=125|8=FIX.4.4|9=113|35=0|34=35|49=demo.ctrader.3873996|50=3873996HNunGusX3sJ0622mCX0PGQ|52=20231222-14:15:37.192|56=cServer|57=TRADE|10=136|8=FIX.4.4|9=113|35=0|34=36|49=demo.ctrader.3873996|50=3873996HNunGusX3sJ0622mCX0PGQ|52=20231222-14:16:07.223|56=cServer|57=TRADE|10=130|8=FIX.4.4|9=113|35=0|34=37|49=demo.ctrader.3873996|50=3873996HNunGusX3sJ0622mCX0PGQ|52=20231222-14:16:38.200|56=cServer|57=TRADE|10=130|8=FIX.4.4|9=113|35=0|34=38|49=demo.ctrader.3873996|50=3873996HNunGusX3sJ0622mCX0PGQ|52=20231222-14:17:09.167|56=cServer|57=TRADE|10=142|8=FIX.4.4|9=113|35=0|34=39|49=demo.ctrader.3873996|50=3873996HNunGusX3sJ0622mCX0PGQ|52=20231222-14:17:40.165|56=cServer|57=TRADE|10=136|8=FIX.4.4|9=113|35=0|34=40|49=demo.ctrader.3873996|50=3873996HNunGusX3sJ0622mCX0PGQ|52=20231222-14:18:10.202|56=cServer|57=TRADE|10=118|8=FIX.4.4|9=113|35=0|34=41|49=demo.ctrader.3873996|50=3873996HNunGusX3sJ0622mCX0PGQ|52=20231222-14:18:41.197|56=cServer|57=TRADE|10=136|8=FIX.4.4|9=113|35=0|34=42|49=demo.ctrader.3873996|50=3873996HNunGusX3sJ0622mCX0PGQ|52=20231222-14:19:11.233|56=cServer|57=TRADE|10=126|8=FIX.4.4|9=113|35=0|34=43|49=demo.ctrader.3873996|50=3873996HNunGusX3sJ0622mCX0PGQ|52=20231222-14:19:42.242|56=cServer|57=TRADE|10=131|8=FIX.4.4|9=113|35=0|34=44|49=demo.ctrader.3873996|50=3873996HNunGusX3sJ0622mCX0PGQ|52=20231222-14:20:13.255|56=cServer|57=TRADE|10=126|8=FIX.4.4|9=113|35=0|34=45|49=demo.ctrader.3873996|50=3873996HNunGusX3sJ0622mCX0PGQ|52=20231222-14:20:44.232|56=cServer|57=TRADE|10=126|8=FIX.4.4|9=113|35=0|34=46|49=demo.ctrader.3873996|50=3873996HNunGusX3sJ0622mCX0PGQ|52=20231222-14:21:14.235|56=cServer|57=TRADE|10=128|8=FIX.4.4|9=113|35=0|34=47|49=demo.ctrader.3873996|50=3873996HNunGusX3sJ0622mCX0PGQ|52=20231222-14:21:44.253|56=cServer|57=TRADE|10=132|8=FIX.4.4|9=113|35=0|34=48|49=demo.ctrader.3873996|50=3873996HNunGusX3sJ0622mCX0PGQ|52=20231222-14:22:14.254|56=cServer|57=TRADE|10=132|8=FIX.4.4|9=113|35=0|34=49|49=demo.ctrader.3873996|50=3873996HNunGusX3sJ0622mCX0PGQ|52=20231222-14:22:44.258|56=cServer|57=TRADE|10=140|8=FIX.4.4|9=113|35=0|34=50|49=demo.ctrader.3873996|50=3873996HNunGusX3sJ0622mCX0PGQ|52=20231222-14:23:15.212|56=cServer|57=TRADE|10=121|8=FIX.4.4|9=113|35=0|34=51|49=demo.ctrader.3873996|50=3873996HNunGusX3sJ0622mCX0PGQ|52=20231222-14:23:45.294|56=cServer|57=TRADE|10=135|8=FIX.4.4|9=113|35=0|34=52|49=demo.ctrader.3873996|50=3873996HNunGusX3sJ0622mCX0PGQ|52=20231222-14:24:16.275|56=cServer|57=TRADE|10=134|8=FIX.4.4|9=113|35=0|34=53|49=demo.ctrader.3873996|50=3873996HNunGusX3sJ0622mCX0PGQ|52=20231222-14:24:47.256|56=cServer|57=TRADE|10=138|8=FIX.4.4|9=113|35=0|34=54|49=demo.ctrader.3873996|50=3873996HNunGusX3sJ0622mCX0PGQ|52=20231222-14:25:17.283|56=cServer|57=TRADE|10=137|8=FIX.4.4|9=113|35=0|34=55|49=demo.ctrader.3873996|50=3873996HNunGusX3sJ0622mCX0PGQ|52=20231222-14:25:48.268|56=cServer|57=TRADE|10=145|8=FIX.4.4|9=113|35=0|34=56|49=demo.ctrader.3873996|50=3873996HNunGusX3sJ0622mCX0PGQ|52=20231222-14:26:18.296|56=cServer|57=TRADE|10=145|8=FIX.4.4|9=113|35=0|34=57|49=demo.ctrader.3873996|50=3873996HNunGusX3sJ0622mCX0PGQ|52=20231222-14:26:48.313|56=cServer|57=TRADE|10=139|8=FIX.4.4|9=113|35=0|34=58|49=demo.ctrader.3873996|50=3873996HNunGusX3sJ0622mCX0PGQ|52=20231222-14:27:18.329|56=cServer|57=TRADE|10=145|8=FIX.4.4|9=113|35=0|34=59|49=demo.ctrader.3873996|50=3873996HNunGusX3sJ0622mCX0PGQ|52=20231222-14:27:48.351|56=cServer|57=TRADE|10=144|8=FIX.4.4|9=113|35=0|34=60|49=demo.ctrader.3873996|50=3873996HNunGusX3sJ0622mCX0PGQ|52=20231222-14:28:19.345|56=cServer|57=TRADE|10=138|8=FIX.4.4|9=113|35=0|34=61|49=demo.ctrader.3873996|50=3873996HNunGusX3sJ0622mCX0PGQ|52=20231222-14:28:50.330|56=cServer|57=TRADE|10=128|8=FIX.4.4|9=113|35=0|34=62|49=demo.ctrader.3873996|50=3873996HNunGusX3sJ0622mCX0PGQ|52=20231222-14:29:21.275|56=cServer|57=TRADE|10=136|8=FIX.4.4|9=113|35=0|34=63|49=demo.ctrader.3873996|50=3873996HNunGusX3sJ0622mCX0PGQ|52=20231222-14:29:51.300|56=cServer|57=TRADE|10=129|8=FIX.4.4|9=113|35=0|34=64|49=demo.ctrader.3873996|50=3873996HNunGusX3sJ0622mCX0PGQ|52=20231222-14:30:21.302|56=cServer|57=TRADE|10=121|8=FIX.4.4|9=113|35=0|34=65|49=demo.ctrader.3873996|50=3873996HNunGusX3sJ0622mCX0PGQ|52=20231222-14:30:51.320|56=cServer|57=TRADE|10=125|8=FIX.4.4|9=113|35=0|34=66|49=demo.ctrader.3873996|50=3873996HNunGusX3sJ0622mCX0PGQ|52=20231222-14:31:21.343|56=cServer|57=TRADE|10=129|8=FIX.4.4|9=113|35=0|34=67|49=demo.ctrader.3873996|50=3873996HNunGusX3sJ0622mCX0PGQ|52=20231222-14:31:52.306|56=cServer|57=TRADE|10=133|8=FIX.4.4|9=113|35=0|34=68|49=demo.ctrader.3873996|50=3873996HNunGusX3sJ0622mCX0PGQ|52=20231222-14:32:23.297|56=cServer|57=TRADE|10=142|8=FIX.4.4|9=113|35=0|34=69|49=demo.ctrader.3873996|50=3873996HNunGusX3sJ0622mCX0PGQ|52=20231222-14:32:53.332|56=cServer|57=TRADE|10=136|8=FIX.4.4|9=113|35=0|34=70|49=demo.ctrader.3873996|50=3873996HNunGusX3sJ0622mCX0PGQ|52=20231222-14:33:24.090|56=cServer|57=TRADE|10=128|8=FIX.4.4|9=113|35=0|34=71|49=demo.ctrader.3873996|50=3873996HNunGusX3sJ0622mCX0PGQ|52=20231222-14:33:55.091|56=cServer|57=TRADE|10=134|8=FIX.4.4|9=113|35=0|34=72|49=demo.ctrader.3873996|50=3873996HNunGusX3sJ0622mCX0PGQ|52=20231222-14:34:25.101|56=cServer|57=TRADE|10=125|8=FIX.4.4|9=113|35=0|34=73|49=demo.ctrader.3873996|50=3873996HNunGusX3sJ0622mCX0PGQ|52=20231222-14:34:55.104|56=cServer|57=TRADE|10=132|8=FIX.4.4|9=113|35=0|34=74|49=demo.ctrader.3873996|50=3873996HNunGusX3sJ0622mCX0PGQ|52=20231222-14:35:25.117|56=cServer|57=TRADE|10=135|8=FIX.4.4|9=113|35=0|34=75|49=demo.ctrader.3873996|50=3873996HNunGusX3sJ0622mCX0PGQ|52=20231222-14:35:55.144|56=cServer|57=TRADE|10=139|8=FIX.4.4|9=113|35=0|34=76|49=demo.ctrader.3873996|50=3873996HNunGusX3sJ0622mCX0PGQ|52=20231222-14:36:26.105|56=cServer|57=TRADE|10=136|8=FIX.4.4|9=113|35=0|34=77|49=demo.ctrader.3873996|50=3873996HNunGusX3sJ0622mCX0PGQ|52=20231222-14:36:56.110|56=cServer|57=TRADE|10=136|8=FIX.4.4|9=113|35=0|34=78|49=demo.ctrader.3873996|50=3873996HNunGusX3sJ0622mCX0PGQ|52=20231222-14:37:26.112|56=cServer|57=TRADE|10=137|8=FIX.4.4|9=113|35=0|34=79|49=demo.ctrader.3873996|50=3873996HNunGusX3sJ0622mCX0PGQ|52=20231222-14:37:56.117|56=cServer|57=TRADE|10=146|8=FIX.4.4|9=113|35=0|34=80|49=demo.ctrader.3873996|50=3873996HNunGusX3sJ0622mCX0PGQ|52=20231222-14:38:27.111|56=cServer|57=TRADE|10=131|8=FIX.4.4|9=113|35=0|34=81|49=demo.ctrader.3873996|50=3873996HNunGusX3sJ0622mCX0PGQ|52=20231222-14:38:57.121|56=cServer|57=TRADE|10=136|8=FIX.4.4|9=113|35=0|34=82|49=demo.ctrader.3873996|50=3873996HNunGusX3sJ0622mCX0PGQ|52=20231222-14:39:28.127|56=cServer|57=TRADE|10=142|8=FIX.4.4|9=113|35=0|34=83|49=demo.ctrader.3873996|50=3873996HNunGusX3sJ0622mCX0PGQ|52=20231222-14:39:58.133|56=cServer|57=TRADE|10=143|8=FIX.4.4|9=113|35=0|34=84|49=demo.ctrader.3873996|50=3873996HNunGusX3sJ0622mCX0PGQ|52=20231222-14:40:29.134|56=cServer|57=TRADE|10=135|8=FIX.4.4|9=113|35=0|34=85|49=demo.ctrader.3873996|50=3873996HNunGusX3sJ0622mCX0PGQ|52=20231222-14:41:00.139|56=cServer|57=TRADE|10=131|8=FIX.4.4|9=113|35=0|34=86|49=demo.ctrader.3873996|50=3873996HNunGusX3sJ0622mCX0PGQ|52=20231222-14:41:30.150|56=cServer|57=TRADE|10=128|8=FIX.4.4|9=113|35=0|34=87|49=demo.ctrader.3873996|50=3873996HNunGusX3sJ0622mCX0PGQ|52=20231222-14:42:01.142|56=cServer|57=TRADE|10=129|8=FIX.4.4|9=113|35=0|34=88|49=demo.ctrader.3873996|50=3873996HNunGusX3sJ0622mCX0PGQ|52=20231222-14:42:31.161|56=cServer|57=TRADE|10=134|8=FIX.4.4|9=113|35=0|34=89|49=demo.ctrader.3873996|50=3873996HNunGusX3sJ0622mCX0PGQ|52=20231222-14:43:01.162|56=cServer|57=TRADE|10=134|8=FIX.4.4|9=113|35=0|34=90|49=demo.ctrader.3873996|50=3873996HNunGusX3sJ0622mCX0PGQ|52=20231222-14:43:32.155|56=cServer|57=TRADE|10=132|8=FIX.4.4|9=113|35=0|34=91|49=demo.ctrader.3873996|50=3873996HNunGusX3sJ0622mCX0PGQ|52=20231222-14:44:02.193|56=cServer|57=TRADE|10=133|8=FIX.4.4|9=113|35=0|34=92|49=demo.ctrader.3873996|50=3873996HNunGusX3sJ0622mCX0PGQ|52=20231222-14:44:32.534|56=cServer|57=TRADE|10=136|8=FIX.4.4|9=113|35=0|34=93|49=demo.ctrader.3873996|50=3873996HNunGusX3sJ0622mCX0PGQ|52=20231222-14:45:03.159|56=cServer|57=TRADE|10=139|8=FIX.4.4|9=113|35=0|34=94|49=demo.ctrader.3873996|50=3873996HNunGusX3sJ0622mCX0PGQ|52=20231222-14:45:34.164|56=cServer|57=TRADE|10=140|8=FIX.4.4|9=113|35=0|34=95|49=demo.ctrader.3873996|50=3873996HNunGusX3sJ0622mCX0PGQ|52=20231222-14:46:04.167|56=cServer|57=TRADE|10=142|8=FIX.4.4|9=113|35=0|34=96|49=demo.ctrader.3873996|50=3873996HNunGusX3sJ0622mCX0PGQ|52=20231222-14:46:34.173|56=cServer|57=TRADE|10=143|8=FIX.4.4|9=113|35=0|34=97|49=demo.ctrader.3873996|50=3873996HNunGusX3sJ0622mCX0PGQ|52=20231222-14:47:05.160|56=cServer|57=TRADE|10=139|8=FIX.4.4|9=113|35=0|34=98|49=demo.ctrader.3873996|50=3873996HNunGusX3sJ0622mCX0PGQ|52=20231222-14:47:35.168|56=cServer|57=TRADE|10=151|8=FIX.4.4|9=113|35=0|34=99|49=demo.ctrader.3873996|50=3873996HNunGusX3sJ0622mCX0PGQ|52=20231222-14:48:05.182|56=cServer|57=TRADE|10=146|8=FIX.4.4|9=114|35=0|34=100|49=demo.ctrader.3873996|50=3873996HNunGusX3sJ0622mCX0PGQ|52=20231222-14:48:36.162|56=cServer|57=TRADE|10=180|8=FIX.4.4|9=114|35=0|34=101|49=demo.ctrader.3873996|50=3873996HNunGusX3sJ0622mCX0PGQ|52=20231222-14:49:06.211|56=cServer|57=TRADE|10=174|8=FIX.4.4|9=114|35=0|34=102|49=demo.ctrader.3873996|50=3873996HNunGusX3sJ0622mCX0PGQ|52=20231222-14:49:36.261|56=cServer|57=TRADE|10=183|8=FIX.4.4|9=114|35=0|34=103|49=demo.ctrader.3873996|50=3873996HNunGusX3sJ0622mCX0PGQ|52=20231222-14:50:07.221|56=cServer|57=TRADE|10=170|8=FIX.4.4|9=114|35=0|34=104|49=demo.ctrader.3873996|50=3873996HNunGusX3sJ0622mCX0PGQ|52=20231222-14:50:37.260|56=cServer|57=TRADE|10=177|8=FIX.4.4|9=114|35=0|34=105|49=demo.ctrader.3873996|50=3873996HNunGusX3sJ0622mCX0PGQ|52=20231222-14:51:08.222|56=cServer|57=TRADE|10=175|8=FIX.4.4|9=114|35=0|34=106|49=demo.ctrader.3873996|50=3873996HNunGusX3sJ0622mCX0PGQ|52=20231222-14:51:39.163|56=cServer|57=TRADE|10=184|8=FIX.4.4|9=114|35=0|34=107|49=demo.ctrader.3873996|50=3873996HNunGusX3sJ0622mCX0PGQ|52=20231222-14:52:09.273|56=cServer|57=TRADE|10=185|8=FIX.4.4|9=114|35=0|34=108|49=demo.ctrader.3873996|50=3873996HNunGusX3sJ0622mCX0PGQ|52=20231222-14:52:40.242|56=cServer|57=TRADE|10=177|8=FIX.4.4|9=114|35=0|34=109|49=demo.ctrader.3873996|50=3873996HNunGusX3sJ0622mCX0PGQ|52=20231222-14:53:10.872|56=cServer|57=TRADE|10=185|8=FIX.4.4|9=114|35=0|34=110|49=demo.ctrader.3873996|50=3873996HNunGusX3sJ0622mCX0PGQ|52=20231222-14:53:41.209|56=cServer|57=TRADE|10=175|8=FIX.4.4|9=114|35=0|34=111|49=demo.ctrader.3873996|50=3873996HNunGusX3sJ0622mCX0PGQ|52=20231222-14:54:12.190|56=cServer|57=TRADE|10=174|8=FIX.4.4|9=114|35=0|34=112|49=demo.ctrader.3873996|50=3873996HNunGusX3sJ0622mCX0PGQ|52=20231222-14:54:42.200|56=cServer|57=TRADE|10=170|8=FIX.4.4|9=114|35=0|34=113|49=demo.ctrader.3873996|50=3873996HNunGusX3sJ0622mCX0PGQ|52=20231222-14:55:12.232|56=cServer|57=TRADE|10=174|8=FIX.4.4|9=114|35=0|34=114|49=demo.ctrader.3873996|50=3873996HNunGusX3sJ0622mCX0PGQ|52=20231222-14:55:43.217|56=cServer|57=TRADE|10=182|8=FIX.4.4|9=114|35=0|34=115|49=demo.ctrader.3873996|50=3873996HNunGusX3sJ0622mCX0PGQ|52=20231222-14:56:13.235|56=cServer|57=TRADE|10=181|8=FIX.4.4|9=114|35=0|34=116|49=demo.ctrader.3873996|50=3873996HNunGusX3sJ0622mCX0PGQ|52=20231222-14:56:43.261|56=cServer|57=TRADE|10=184|8=FIX.4.4|9=114|35=0|34=117|49=demo.ctrader.3873996|50=3873996HNunGusX3sJ0622mCX0PGQ|52=20231222-14:57:13.377|56=cServer|57=TRADE|10=191|8=FIX.4.4|9=114|35=0|34=118|49=demo.ctrader.3873996|50=3873996HNunGusX3sJ0622mCX0PGQ|52=20231222-14:57:44.328|56=cServer|57=TRADE|10=192|8=FIX.4.4|9=114|35=0|34=119|49=demo.ctrader.3873996|50=3873996HNunGusX3sJ0622mCX0PGQ|52=20231222-14:58:15.226|56=cServer|57=TRADE|10=189|8=FIX.4.4|9=114|35=0|34=120|49=demo.ctrader.3873996|50=3873996HNunGusX3sJ0622mCX0PGQ|52=20231222-14:58:45.258|56=cServer|57=TRADE|10=189|8=FIX.4.4|9=114|35=0|34=121|49=demo.ctrader.3873996|50=3873996HNunGusX3sJ0622mCX0PGQ|52=20231222-14:59:15.293|56=cServer|57=TRADE|10=187|8=FIX.4.4|9=114|35=0|34=122|49=demo.ctrader.3873996|50=3873996HNunGusX3sJ0622mCX0PGQ|52=20231222-14:59:45.300|56=cServer|57=TRADE|10=180|8=FIX.4.4|9=114|35=0|34=123|49=demo.ctrader.3873996|50=3873996HNunGusX3sJ0622mCX0PGQ|52=20231222-15:00:16.271|56=cServer|57=TRADE|10=173|8=FIX.4.4|9=114|35=0|34=124|49=demo.ctrader.3873996|50=3873996HNunGusX3sJ0622mCX0PGQ|52=20231222-15:00:46.381|56=cServer|57=TRADE|10=179|8=FIX.4.4|9=114|35=0|34=125|49=demo.ctrader.3873996|50=3873996HNunGusX3sJ0622mCX0PGQ|52=20231222-15:01:17.295|56=cServer|57=TRADE|10=183|8=FIX.4.4|9=114|35=0|34=126|49=demo.ctrader.3873996|50=3873996HNunGusX3sJ0622mCX0PGQ|52=20231222-15:01:48.300|56=cServer|57=TRADE|10=175|8=FIX.4.4|9=114|35=0|34=127|49=demo.ctrader.3873996|50=3873996HNunGusX3sJ0622mCX0PGQ|52=20231222-15:02:19.272|56=cServer|57=TRADE|10=183|8=FIX.4.4|9=114|35=0|34=128|49=demo.ctrader.3873996|50=3873996HNunGusX3sJ0622mCX0PGQ|52=20231222-15:02:49.362|56=cServer|57=TRADE|10=187|8=FIX.4.4|9=114|35=0|34=129|49=demo.ctrader.3873996|50=3873996HNunGusX3sJ0622mCX0PGQ|52=20231222-15:03:20.287|56=cServer|57=TRADE|10=184|8=FIX.4.4|9=114|35=0|34=130|49=demo.ctrader.3873996|50=3873996HNunGusX3sJ0622mCX0PGQ|52=20231222-15:03:50.321|56=cServer|57=TRADE|10=168|8=FIX.4.4|9=114|35=0|34=131|49=demo.ctrader.3873996|50=3873996HNunGusX3sJ0622mCX0PGQ|52=20231222-15:04:21.312|56=cServer|57=TRADE|10=168|8=FIX.4.4|9=114|35=0|34=132|49=demo.ctrader.3873996|50=3873996HNunGusX3sJ0622mCX0PGQ|52=20231222-15:04:51.324|56=cServer|57=TRADE|10=175|8=FIX.4.4|9=114|35=0|34=133|49=demo.ctrader.3873996|50=3873996HNunGusX3sJ0622mCX0PGQ|52=20231222-15:05:21.374|56=cServer|57=TRADE|10=179|8=FIX.4.4|9=114|35=0|34=134|49=demo.ctrader.3873996|50=3873996HNunGusX3sJ0622mCX0PGQ|52=20231222-15:05:51.395|56=cServer|57=TRADE|10=186|8=FIX.4.4|9=114|35=0|34=135|49=demo.ctrader.3873996|50=3873996HNunGusX3sJ0622mCX0PGQ|52=20231222-15:06:22.333|56=cServer|57=TRADE|10=178|8=FIX.4.4|9=114|35=0|34=136|49=demo.ctrader.3873996|50=3873996HNunGusX3sJ0622mCX0PGQ|52=20231222-15:06:53.293|56=cServer|57=TRADE|10=188|8=FIX.4.4|9=114|35=0|34=137|49=demo.ctrader.3873996|50=3873996HNunGusX3sJ0622mCX0PGQ|52=20231222-15:07:23.435|56=cServer|57=TRADE|10=185|8=FIX.4.4|9=114|35=0|34=138|49=demo.ctrader.3873996|50=3873996HNunGusX3sJ0622mCX0PGQ|52=20231222-15:07:54.096|56=cServer|57=TRADE|10=193|8=FIX.4.4|9=114|35=0|34=139|49=demo.ctrader.3873996|50=3873996HNunGusX3sJ0622mCX0PGQ|52=20231222-15:08:25.096|56=cServer|57=TRADE|10=193|8=FIX.4.4|9=114|35=0|34=140|49=demo.ctrader.3873996|50=3873996HNunGusX3sJ0622mCX0PGQ|52=20231222-15:08:56.096|56=cServer|57=TRADE|10=189|8=FIX.4.4|9=114|35=0|34=141|49=demo.ctrader.3873996|50=3873996HNunGusX3sJ0622mCX0PGQ|52=20231222-15:09:26.100|56=cServer|57=TRADE|10=174|8=FIX.4.4|9=114|35=0|34=142|49=demo.ctrader.3873996|50=3873996HNunGusX3sJ0622mCX0PGQ|52=20231222-15:09:56.137|56=cServer|57=TRADE|10=188|8=FIX.4.4|9=114|35=0|34=143|49=demo.ctrader.3873996|50=3873996HNunGusX3sJ0622mCX0PGQ|52=20231222-15:10:27.108|56=cServer|57=TRADE|10=177|8=FIX.4.4|9=114|35=0|34=144|49=demo.ctrader.3873996|50=3873996HNunGusX3sJ0622mCX0PGQ|52=20231222-15:10:57.118|56=cServer|57=TRADE|10=182|8=FIX.4.4|9=114|35=0|34=145|49=demo.ctrader.3873996|50=3873996HNunGusX3sJ0622mCX0PGQ|52=20231222-15:11:28.130|56=cServer|57=TRADE|10=176|8=FIX.4.4|9=114|35=0|34=146|49=demo.ctrader.3873996|50=3873996HNunGusX3sJ0622mCX0PGQ|52=20231222-15:11:58.198|56=cServer|57=TRADE|10=194|8=FIX.4.4|9=114|35=0|34=147|49=demo.ctrader.3873996|50=3873996HNunGusX3sJ0622mCX0PGQ|52=20231222-15:12:29.165|56=cServer|57=TRADE|10=188|8=FIX.4.4|9=114|35=0|34=148|49=demo.ctrader.3873996|50=3873996HNunGusX3sJ0622mCX0PGQ|52=20231222-15:13:00.127|56=cServer|57=TRADE|10=177|8=FIX.4.4|9=114|35=0|34=149|49=demo.ctrader.3873996|50=3873996HNunGusX3sJ0622mCX0PGQ|52=20231222-15:13:30.148|56=cServer|57=TRADE|10=184|8=FIX.4.4|9=114|35=0|34=150|49=demo.ctrader.3873996|50=3873996HNunGusX3sJ0622mCX0PGQ|52=20231222-15:14:01.124|56=cServer|57=TRADE|10=169|8=FIX.4.4|9=114|35=0|34=151|49=demo.ctrader.3873996|50=3873996HNunGusX3sJ0622mCX0PGQ|52=20231222-15:14:31.500|56=cServer|57=TRADE|10=171|8=FIX.4.4|9=114|35=0|34=152|49=demo.ctrader.3873996|50=3873996HNunGusX3sJ0622mCX0PGQ|52=20231222-15:15:02.158|56=cServer|57=TRADE|10=180|8=FIX.4.4|9=114|35=0|34=153|49=demo.ctrader.3873996|50=3873996HNunGusX3sJ0622mCX0PGQ|52=20231222-15:15:32.212|56=cServer|57=TRADE|10=175|8=FIX.4.4|9=114|35=0|34=154|49=demo.ctrader.3873996|50=3873996HNunGusX3sJ0622mCX0PGQ|52=20231222-15:16:02.415|56=cServer|57=TRADE|10=179|8=FIX.4.4|9=114|35=0|34=155|49=demo.ctrader.3873996|50=3873996HNunGusX3sJ0622mCX0PGQ|52=20231222-15:16:33.124|56=cServer|57=TRADE|10=181|8=FIX.4.4|9=114|35=0|34=156|49=demo.ctrader.3873996|50=3873996HNunGusX3sJ0622mCX0PGQ|52=20231222-15:17:03.136|56=cServer|57=TRADE|10=183|8=FIX.4.4|9=114|35=0|34=157|49=demo.ctrader.3873996|50=3873996HNunGusX3sJ0622mCX0PGQ|52=20231222-15:17:33.143|56=cServer|57=TRADE|10=185|8=FIX.4.4|9=114|35=0|34=158|49=demo.ctrader.3873996|50=3873996HNunGusX3sJ0622mCX0PGQ|52=20231222-15:18:04.139|56=cServer|57=TRADE|10=190|8=FIX.4.4|9=114|35=0|34=159|49=demo.ctrader.3873996|50=3873996HNunGusX3sJ0622mCX0PGQ|52=20231222-15:18:34.165|56=cServer|57=TRADE|10=193|8=FIX.4.4|9=114|35=0|34=160|49=demo.ctrader.3873996|50=3873996HNunGusX3sJ0622mCX0PGQ|52=20231222-15:19:05.145|56=cServer|57=TRADE|10=182|8=FIX.4.4|9=114|35=0|34=161|49=demo.ctrader.3873996|50=3873996HNunGusX3sJ0622mCX0PGQ|52=20231222-15:19:35.197|56=cServer|57=TRADE|10=193|8=FIX.4.4|9=114|35=0|34=162|49=demo.ctrader.3873996|50=3873996HNunGusX3sJ0622mCX0PGQ|52=20231222-15:20:06.161|56=cServer|57=TRADE|10=175|8=FIX.4.4|9=114|35=0|34=163|49=demo.ctrader.3873996|50=3873996HNunGusX3sJ0622mCX0PGQ|52=20231222-15:20:36.167|56=cServer|57=TRADE|10=185|8=FIX.4.4|9=114|35=0|34=164|49=demo.ctrader.3873996|50=3873996HNunGusX3sJ0622mCX0PGQ|52=20231222-15:21:06.178|56=cServer|57=TRADE|10=186|8=FIX.4.4|9=114|35=0|34=165|49=demo.ctrader.3873996|50=3873996HNunGusX3sJ0622mCX0PGQ|52=20231222-15:21:37.170|56=cServer|57=TRADE|10=183|8=FIX.4.4|9=114|35=0|34=166|49=demo.ctrader.3873996|50=3873996HNunGusX3sJ0622mCX0PGQ|52=20231222-15:22:07.196|56=cServer|57=TRADE|10=190|8=FIX.4.4|9=114|35=0|34=167|49=demo.ctrader.3873996|50=3873996HNunGusX3sJ0622mCX0PGQ|52=20231222-15:22:38.191|56=cServer|57=TRADE|10=190|8=FIX.4.4|9=114|35=0|34=168|49=demo.ctrader.3873996|50=3873996HNunGusX3sJ0622mCX0PGQ|52=20231222-15:23:09.185|56=cServer|57=TRADE|10=193|8=FIX.4.4|9=114|35=0|34=169|49=demo.ctrader.3873996|50=3873996HNunGusX3sJ0622mCX0PGQ|52=20231222-15:23:39.213|56=cServer|57=TRADE|10=189|8=FIX.4.4|9=114|35=0|34=170|49=demo.ctrader.3873996|50=3873996HNunGusX3sJ0622mCX0PGQ|52=20231222-15:24:10.178|56=cServer|57=TRADE|10=181|8=FIX.4.4|9=114|35=0|34=171|49=demo.ctrader.3873996|50=3873996HNunGusX3sJ0622mCX0PGQ|52=20231222-15:24:40.193|56=cServer|57=TRADE|10=182|8=FIX.4.4|9=114|35=0|34=172|49=demo.ctrader.3873996|50=3873996HNunGusX3sJ0622mCX0PGQ|52=20231222-15:25:10.198|56=cServer|57=TRADE|10=186|8=FIX.4.4|9=114|35=0|34=173|49=demo.ctrader.3873996|50=3873996HNunGusX3sJ0622mCX0PGQ|52=20231222-15:25:41.155|56=cServer|57=TRADE|10=184|8=FIX.4.4|9=114|35=0|34=174|49=demo.ctrader.3873996|50=3873996HNunGusX3sJ0622mCX0PGQ|52=20231222-15:26:11.228|56=cServer|57=TRADE|10=184|8=FIX.4.4|9=114|35=0|34=175|49=demo.ctrader.3873996|50=3873996HNunGusX3sJ0622mCX0PGQ|52=20231222-15:26:41.548|56=cServer|57=TRADE|10=193|8=FIX.4.4|9=114|35=0|34=176|49=demo.ctrader.3873996|50=3873996HNunGusX3sJ0622mCX0PGQ|52=20231222-15:27:12.239|56=cServer|57=TRADE|10=190|8=FIX.4.4|9=114|35=0|34=177|49=demo.ctrader.3873996|50=3873996HNunGusX3sJ0622mCX0PGQ|52=20231222-15:27:42.269|56=cServer|57=TRADE|10=197|8=FIX.4.4|9=114|35=0|34=178|49=demo.ctrader.3873996|50=3873996HNunGusX3sJ0622mCX0PGQ|52=20231222-15:28:13.201|56=cServer|57=TRADE|10=183|8=FIX.4.4|9=114|35=0|34=179|49=demo.ctrader.3873996|50=3873996HNunGusX3sJ0622mCX0PGQ|52=20231222-15:28:44.202|56=cServer|57=TRADE|10=189|8=FIX.4.4|9=114|35=0|34=180|49=demo.ctrader.3873996|50=3873996HNunGusX3sJ0622mCX0PGQ|52=20231222-15:29:14.246|56=cServer|57=TRADE|10=187|8=FIX.4.4|9=114|35=0|34=181|49=demo.ctrader.3873996|50=3873996HNunGusX3sJ0622mCX0PGQ|52=20231222-15:29:45.241|56=cServer|57=TRADE|10=187|8=FIX.4.4|9=114|35=0|34=182|49=demo.ctrader.3873996|50=3873996HNunGusX3sJ0622mCX0PGQ|52=20231222-15:30:16.216|56=cServer|57=TRADE|10=180|8=FIX.4.4|9=114|35=0|34=183|49=demo.ctrader.3873996|50=3873996HNunGusX3sJ0622mCX0PGQ|52=20231222-15:30:46.225|56=cServer|57=TRADE|10=184|8=FIX.4.4|9=114|35=0|34=184|49=demo.ctrader.3873996|50=3873996HNunGusX3sJ0622mCX0PGQ|52=20231222-15:31:17.228|56=cServer|57=TRADE|10=187|8=FIX.4.4|9=114|35=0|34=185|49=demo.ctrader.3873996|50=3873996HNunGusX3sJ0622mCX0PGQ|52=20231222-15:31:47.429|56=cServer|57=TRADE|10=194|8=FIX.4.4|9=114|35=0|34=186|49=demo.ctrader.3873996|50=3873996HNunGusX3sJ0622mCX0PGQ|52=20231222-15:32:18.255|56=cServer|57=TRADE|10=191|8=FIX.4.4|9=114|35=0|34=187|49=demo.ctrader.3873996|50=3873996HNunGusX3sJ0622mCX0PGQ|52=20231222-15:32:49.239|56=cServer|57=TRADE|10=198|8=FIX.4.4|9=114|35=0|34=188|49=demo.ctrader.3873996|50=3873996HNunGusX3sJ0622mCX0PGQ|52=20231222-15:33:19.268|56=cServer|57=TRADE|10=199|8=FIX.4.4|9=114|35=0|34=189|49=demo.ctrader.3873996|50=3873996HNunGusX3sJ0622mCX0PGQ|52=20231222-15:33:50.240|56=cServer|57=TRADE|10=185|8=FIX.4.4|9=114|35=0|34=190|49=demo.ctrader.3873996|50=3873996HNunGusX3sJ0622mCX0PGQ|52=20231222-15:34:20.271|56=cServer|57=TRADE|10=179|8=FIX.4.4|9=114|35=0|34=191|49=demo.ctrader.3873996|50=3873996HNunGusX3sJ0622mCX0PGQ|52=20231222-15:34:50.284|56=cServer|57=TRADE|10=187|8=FIX.4.4|9=114|35=0|34=192|49=demo.ctrader.3873996|50=3873996HNunGusX3sJ0622mCX0PGQ|52=20231222-15:35:21.257|56=cServer|57=TRADE|10=187|8=FIX.4.4|9=114|35=0|34=193|49=demo.ctrader.3873996|50=3873996HNunGusX3sJ0622mCX0PGQ|52=20231222-15:35:51.339|56=cServer|57=TRADE|10=192|8=FIX.4.4|9=114|35=0|34=194|49=demo.ctrader.3873996|50=3873996HNunGusX3sJ0622mCX0PGQ|52=20231222-15:36:22.323|56=cServer|57=TRADE|10=185|8=FIX.4.4|9=114|35=0|34=195|49=demo.ctrader.3873996|50=3873996HNunGusX3sJ0622mCX0PGQ|52=20231222-15:36:53.297|56=cServer|57=TRADE|10=200|8=FIX.4.4|9=114|35=0|34=196|49=demo.ctrader.3873996|50=3873996HNunGusX3sJ0622mCX0PGQ|52=20231222-15:37:24.084|56=cServer|57=TRADE|10=194|8=FIX.4.4|9=114|35=0|34=197|49=demo.ctrader.3873996|50=3873996HNunGusX3sJ0622mCX0PGQ|52=20231222-15:37:54.109|56=cServer|57=TRADE|10=196|8=FIX.4.4|9=114|35=0|34=198|49=demo.ctrader.3873996|50=3873996HNunGusX3sJ0622mCX0PGQ|52=20231222-15:38:24.141|56=cServer|57=TRADE|10=191|8=FIX.4.4|9=114|35=0|34=199|49=demo.ctrader.3873996|50=3873996HNunGusX3sJ0622mCX0PGQ|52=20231222-15:38:54.180|56=cServer|57=TRADE|10=198|8=FIX.4.4|9=114|35=0|34=200|49=demo.ctrader.3873996|50=3873996HNunGusX3sJ0622mCX0PGQ|52=20231222-15:39:25.143|56=cServer|57=TRADE|10=179|8=FIX.4.4|9=114|35=0|34=201|49=demo.ctrader.3873996|50=3873996HNunGusX3sJ0622mCX0PGQ|52=20231222-15:39:56.101|56=cServer|57=TRADE|10=178|8=FIX.4.4|9=114|35=0|34=202|49=demo.ctrader.3873996|50=3873996HNunGusX3sJ0622mCX0PGQ|52=20231222-15:40:26.191|56=cServer|57=TRADE|10=177|8=FIX.4.4|9=114|35=0|34=203|49=demo.ctrader.3873996|50=3873996HNunGusX3sJ0622mCX0PGQ|52=20231222-15:40:57.122|56=cServer|57=TRADE|10=176|8=FIX.4.4|9=114|35=0|34=204|49=demo.ctrader.3873996|50=3873996HNunGusX3sJ0622mCX0PGQ|52=20231222-15:41:28.111|56=cServer|57=TRADE|10=174|8=FIX.4.4|9=114|35=0|34=205|49=demo.ctrader.3873996|50=3873996HNunGusX3sJ0622mCX0PGQ|52=20231222-15:41:58.119|56=cServer|57=TRADE|10=186|8=FIX.4.4|9=114|35=0|34=206|49=demo.ctrader.3873996|50=3873996HNunGusX3sJ0622mCX0PGQ|52=20231222-15:42:28.126|56=cServer|57=TRADE|10=183|8=FIX.4.4|9=114|35=0|34=207|49=demo.ctrader.3873996|50=3873996HNunGusX3sJ0622mCX0PGQ|52=20231222-15:42:58.137|56=cServer|57=TRADE|10=189|8=FIX.4.4|9=114|35=0|34=208|49=demo.ctrader.3873996|50=3873996HNunGusX3sJ0622mCX0PGQ|52=20231222-15:43:29.106|56=cServer|57=TRADE|10=185|8=FIX.4.4|9=114|35=0|34=209|49=demo.ctrader.3873996|50=3873996HNunGusX3sJ0622mCX0PGQ|52=20231222-15:43:59.120|56=cServer|57=TRADE|10=185|8=FIX.4.4|9=114|35=0|34=210|49=demo.ctrader.3873996|50=3873996HNunGusX3sJ0622mCX0PGQ|52=20231222-15:44:29.131|56=cServer|57=TRADE|10=177|8=FIX.4.4|9=114|35=0|34=211|49=demo.ctrader.3873996|50=3873996HNunGusX3sJ0622mCX0PGQ|52=20231222-15:45:00.119|56=cServer|57=TRADE|10=174|8=FIX.4.4|9=114|35=0|34=212|49=demo.ctrader.3873996|50=3873996HNunGusX3sJ0622mCX0PGQ|52=20231222-15:45:30.130|56=cServer|57=TRADE|10=171|8=FIX.4.4|9=114|35=0|34=213|49=demo.ctrader.3873996|50=3873996HNunGusX3sJ0622mCX0PGQ|52=20231222-15:46:01.126|56=cServer|57=TRADE|10=176|8=FIX.4.4|9=114|35=0|34=214|49=demo.ctrader.3873996|50=3873996HNunGusX3sJ0622mCX0PGQ|52=20231222-15:46:31.136|56=cServer|57=TRADE|10=181|8=FIX.4.4|9=114|35=0|34=215|49=demo.ctrader.3873996|50=3873996HNunGusX3sJ0622mCX0PGQ|52=20231222-15:47:01.152|56=cServer|57=TRADE|10=178|8=FIX.4.4|9=114|35=0|34=216|49=demo.ctrader.3873996|50=3873996HNunGusX3sJ0622mCX0PGQ|52=20231222-15:47:32.144|56=cServer|57=TRADE|10=184|8=FIX.4.4|9=114|35=0|34=217|49=demo.ctrader.3873996|50=3873996HNunGusX3sJ0622mCX0PGQ|52=20231222-15:48:03.142|56=cServer|57=TRADE|10=182|8=FIX.4.4|9=114|35=0|34=218|49=demo.ctrader.3873996|50=3873996HNunGusX3sJ0622mCX0PGQ|52=20231222-15:48:34.150|56=cServer|57=TRADE|10=186|8=FIX.4.4|9=114|35=0|34=219|49=demo.ctrader.3873996|50=3873996HNunGusX3sJ0622mCX0PGQ|52=20231222-15:49:04.164|56=cServer|57=TRADE|10=190|8=FIX.4.4|9=114|35=0|34=220|49=demo.ctrader.3873996|50=3873996HNunGusX3sJ0622mCX0PGQ|52=20231222-15:49:35.165|56=cServer|57=TRADE|10=187|8=FIX.4.4|9=114|35=0|34=221|49=demo.ctrader.3873996|50=3873996HNunGusX3sJ0622mCX0PGQ|52=20231222-15:50:06.171|56=cServer|57=TRADE|10=175|8=FIX.4.4|9=114|35=0|34=222|49=demo.ctrader.3873996|50=3873996HNunGusX3sJ0622mCX0PGQ|52=20231222-15:50:36.173|56=cServer|57=TRADE|10=181|8=FIX.4.4|9=114|35=0|34=223|49=demo.ctrader.3873996|50=3873996HNunGusX3sJ0622mCX0PGQ|52=20231222-15:51:06.189|56=cServer|57=TRADE|10=187|8=FIX.4.4|9=114|35=0|34=224|49=demo.ctrader.3873996|50=3873996HNunGusX3sJ0622mCX0PGQ|52=20231222-15:51:37.166|56=cServer|57=TRADE|10=187|8=FIX.4.4|9=114|35=0|34=225|49=demo.ctrader.3873996|50=3873996HNunGusX3sJ0622mCX0PGQ|52=20231222-15:52:08.160|56=cServer|57=TRADE|10=181|8=FIX.4.4|9=114|35=0|34=226|49=demo.ctrader.3873996|50=3873996HNunGusX3sJ0622mCX0PGQ|52=20231222-15:52:38.175|56=cServer|57=TRADE|10=191|8=FIX.4.4|9=114|35=0|34=227|49=demo.ctrader.3873996|50=3873996HNunGusX3sJ0622mCX0PGQ|52=20231222-15:53:09.170|56=cServer|57=TRADE|10=186|8=FIX.4.4|9=114|35=0|34=228|49=demo.ctrader.3873996|50=3873996HNunGusX3sJ0622mCX0PGQ|52=20231222-15:53:39.253|56=cServer|57=TRADE|10=192|8=FIX.4.4|9=114|35=0|34=229|49=demo.ctrader.3873996|50=3873996HNunGusX3sJ0622mCX0PGQ|52=20231222-15:54:10.168|56=cServer|57=TRADE|10=188|8=FIX.4.4|9=114|35=0|34=230|49=demo.ctrader.3873996|50=3873996HNunGusX3sJ0622mCX0PGQ|52=20231222-15:54:40.194|56=cServer|57=TRADE|10=182|8=FIX.4.4|9=114|35=0|34=231|49=demo.ctrader.3873996|50=3873996HNunGusX3sJ0622mCX0PGQ|52=20231222-15:55:10.212|56=cServer|57=TRADE|10=172|8=FIX.4.4|9=114|35=0|34=232|49=demo.ctrader.3873996|50=3873996HNunGusX3sJ0622mCX0PGQ|52=20231222-15:55:41.192|56=cServer|57=TRADE|10=184|8=FIX.4.4|9=114|35=0|34=233|49=demo.ctrader.3873996|50=3873996HNunGusX3sJ0622mCX0PGQ|52=20231222-15:56:12.205|56=cServer|57=TRADE|10=179|8=FIX.4.4|9=114|35=0|34=234|49=demo.ctrader.3873996|50=3873996HNunGusX3sJ0622mCX0PGQ|52=20231222-15:56:42.205|56=cServer|57=TRADE|10=183|8=FIX.4.4|9=114|35=0|34=235|49=demo.ctrader.3873996|50=3873996HNunGusX3sJ0622mCX0PGQ|52=20231222-15:57:13.222|56=cServer|57=TRADE|10=182|8=FIX.4.4|9=114|35=0|34=236|49=demo.ctrader.3873996|50=3873996HNunGusX3sJ0622mCX0PGQ|52=20231222-15:57:44.205|56=cServer|57=TRADE|10=188|8=FIX.4.4|9=114|35=0|34=237|49=demo.ctrader.3873996|50=3873996HNunGusX3sJ0622mCX0PGQ|52=20231222-15:58:15.201|56=cServer|57=TRADE|10=184|8=FIX.4.4|9=114|35=0|34=238|49=demo.ctrader.3873996|50=3873996HNunGusX3sJ0622mCX0PGQ|52=20231222-15:58:45.225|56=cServer|57=TRADE|10=194|8=FIX.4.4|9=114|35=0|34=239|49=demo.ctrader.3873996|50=3873996HNunGusX3sJ0622mCX0PGQ|52=20231222-15:59:15.264|56=cServer|57=TRADE|10=196|8=FIX.4.4|9=114|35=0|34=240|49=demo.ctrader.3873996|50=3873996HNunGusX3sJ0622mCX0PGQ|52=20231222-15:59:46.206|56=cServer|57=TRADE|10=188|8=FIX.4.4|9=114|35=0|34=241|49=demo.ctrader.3873996|50=3873996HNunGusX3sJ0622mCX0PGQ|52=20231222-16:00:16.239|56=cServer|57=TRADE|10=179|8=FIX.4.4|9=114|35=0|34=242|49=demo.ctrader.3873996|50=3873996HNunGusX3sJ0622mCX0PGQ|52=20231222-16:00:47.243|56=cServer|57=TRADE|10=179|8=FIX.4.4|9=114|35=0|34=243|49=demo.ctrader.3873996|50=3873996HNunGusX3sJ0622mCX0PGQ|52=20231222-16:01:17.284|56=cServer|57=TRADE|10=183|8=FIX.4.4|9=114|35=0|34=244|49=demo.ctrader.3873996|50=3873996HNunGusX3sJ0622mCX0PGQ|52=20231222-16:01:48.243|56=cServer|57=TRADE|10=183|8=FIX.4.4|9=114|35=0|34=245|49=demo.ctrader.3873996|50=3873996HNunGusX3sJ0622mCX0PGQ|52=20231222-16:02:18.259|56=cServer|57=TRADE|10=189|8=FIX.4.4|9=114|35=0|34=246|49=demo.ctrader.3873996|50=3873996HNunGusX3sJ0622mCX0PGQ|52=20231222-16:02:48.267|56=cServer|57=TRADE|10=192|8=FIX.4.4|9=114|35=0|34=247|49=demo.ctrader.3873996|50=3873996HNunGusX3sJ0622mCX0PGQ|52=20231222-16:03:18.336|56=cServer|57=TRADE|10=188|8=FIX.4.4|9=114|35=0|34=248|49=demo.ctrader.3873996|50=3873996HNunGusX3sJ0622mCX0PGQ|52=20231222-16:03:49.261|56=cServer|57=TRADE|10=190|8=FIX.4.4|9=114|35=0|34=249|49=demo.ctrader.3873996|50=3873996HNunGusX3sJ0622mCX0PGQ|52=20231222-16:04:20.237|56=cServer|57=TRADE|10=184|8=FIX.4.4|9=114|35=0|34=250|49=demo.ctrader.3873996|50=3873996HNunGusX3sJ0622mCX0PGQ|52=20231222-16:04:50.256|56=cServer|57=TRADE|10=180|8=FIX.4.4|9=114|35=0|34=251|49=demo.ctrader.3873996|50=3873996HNunGusX3sJ0622mCX0PGQ|52=20231222-16:05:20.263|56=cServer|57=TRADE|10=177|8=FIX.4.4|9=114|35=0|34=252|49=demo.ctrader.3873996|50=3873996HNunGusX3sJ0622mCX0PGQ|52=20231222-16:05:50.277|56=cServer|57=TRADE|10=186|8=FIX.4.4|9=114|35=0|34=253|49=demo.ctrader.3873996|50=3873996HNunGusX3sJ0622mCX0PGQ|52=20231222-16:06:21.275|56=cServer|57=TRADE|10=184|8=FIX.4.4|9=114|35=0|34=254|49=demo.ctrader.3873996|50=3873996HNunGusX3sJ0622mCX0PGQ|52=20231222-16:06:51.279|56=cServer|57=TRADE|10=192|8=FIX.4.4|9=114|35=0|34=255|49=demo.ctrader.3873996|50=3873996HNunGusX3sJ0622mCX0PGQ|52=20231222-16:07:22.280|56=cServer|57=TRADE|10=184|8=FIX.4.4|9=114|35=0|34=256|49=demo.ctrader.3873996|50=3873996HNunGusX3sJ0622mCX0PGQ|52=20231222-16:07:53.254|56=cServer|57=TRADE|10=190|8=FIX.4.4|9=114|35=0|34=257|49=demo.ctrader.3873996|50=3873996HNunGusX3sJ0622mCX0PGQ|52=20231222-16:08:23.276|56=cServer|57=TRADE|10=193|8=FIX.4.4|9=114|35=0|34=258|49=demo.ctrader.3873996|50=3873996HNunGusX3sJ0622mCX0PGQ|52=20231222-16:08:54.083|56=cServer|57=TRADE|10=194|8=FIX.4.4|9=114|35=0|34=259|49=demo.ctrader.3873996|50=3873996HNunGusX3sJ0622mCX0PGQ|52=20231222-16:09:25.095|56=cServer|57=TRADE|10=197|8=FIX.4.4|9=114|35=0|34=260|49=demo.ctrader.3873996|50=3873996HNunGusX3sJ0622mCX0PGQ|52=20231222-16:09:55.096|56=cServer|57=TRADE|10=193|8=FIX.4.4|9=114|35=0|34=261|49=demo.ctrader.3873996|50=3873996HNunGusX3sJ0622mCX0PGQ|52=20231222-16:10:25.098|56=cServer|57=TRADE|10=185|8=FIX.4.4|9=114|35=0|34=262|49=demo.ctrader.3873996|50=3873996HNunGusX3sJ0622mCX0PGQ|52=20231222-16:10:56.110|56=cServer|57=TRADE|10=175|8=FIX.4.4|9=114|35=0|34=263|49=demo.ctrader.3873996|50=3873996HNunGusX3sJ0622mCX0PGQ|52=20231222-16:11:27.101|56=cServer|57=TRADE|10=175|8=FIX.4.4|9=114|35=0|34=264|49=demo.ctrader.3873996|50=3873996HNunGusX3sJ0622mCX0PGQ|52=20231222-16:11:57.101|56=cServer|57=TRADE|10=179|