8=FIX.4.4|9=244|35=A|34=1|49=demo.ctrader.3873996|50=3873996FcTcEckUhmMtIJqSSZzkew|52=20231222-13:16:04.168|56=cServer|57=TRADE|49=demo.ctrader.3873996|50=3873996FcTcEckUhmMtIJqSSZzkew|52=20231222-13:16:04|56=cServer|98=0|108=30|141=Y|553=3873996|554=Gtlfx125|10=155|8=FIX.4.4|9=130|35=x|34=2|49=demo.ctrader.3873996|50=3873996FcTcEckUhmMtIJqSSZzkew|52=20231222-13:16:04.719|56=cServer|57=TRADE|320=symbols|559=0|10=206|8=FIX.4.4|9=127|35=AN|34=3|49=demo.ctrader.3873996|50=3873996FcTcEckUhmMtIJqSSZzkew|52=20231222-13:16:04.964|56=cServer|57=TRADE|710=Positions|10=159|8=FIX.4.4|9=130|35=AF|34=4|49=demo.ctrader.3873996|50=3873996FcTcEckUhmMtIJqSSZzkew|52=20231222-13:16:04.965|56=cServer|57=TRADE|584=Orders|585=7|10=090|8=FIX.4.4|9=112|35=0|34=5|49=demo.ctrader.3873996|50=3873996FcTcEckUhmMtIJqSSZzkew|52=20231222-13:16:35.409|56=cServer|57=TRADE|10=156|8=FIX.4.4|9=121|35=1|34=6|49=demo.ctrader.3873996|50=3873996FcTcEckUhmMtIJqSSZzkew|52=20231222-13:17:25.316|56=cServer|57=TRADE|112=TEST|10=173|8=FIX.4.4|9=121|35=0|34=7|49=demo.ctrader.3873996|50=3873996FcTcEckUhmMtIJqSSZzkew|52=20231222-13:17:25.317|56=cServer|57=TRADE|112=TEST|10=174|