8=FIX.4.4|9=244|35=A|34=1|49=demo.ctrader.3873996|50=3873996lpC268b_vaBZlyF9KsTm9w|52=20231228-06:32:15.075|56=cServer|57=TRADE|49=demo.ctrader.3873996|50=3873996lpC268b_vaBZlyF9KsTm9w|52=20231228-06:32:15|56=cServer|98=0|108=30|141=Y|553=3873996|554=Gtlfx125|10=110|8=FIX.4.4|9=130|35=x|34=2|49=demo.ctrader.3873996|50=3873996lpC268b_vaBZlyF9KsTm9w|52=20231228-06:32:15.661|56=cServer|57=TRADE|320=symbols|559=0|10=053|8=FIX.4.4|9=127|35=AN|34=3|49=demo.ctrader.3873996|50=3873996lpC268b_vaBZlyF9KsTm9w|52=20231228-06:32:15.931|56=cServer|57=TRADE|710=Positions|10=004|8=FIX.4.4|9=130|35=AF|34=4|49=demo.ctrader.3873996|50=3873996lpC268b_vaBZlyF9KsTm9w|52=20231228-06:32:15.932|56=cServer|57=TRADE|584=Orders|585=7|10=191|8=FIX.4.4|9=112|35=0|34=5|49=demo.ctrader.3873996|50=3873996lpC268b_vaBZlyF9KsTm9w|52=20231228-06:32:46.333|56=cServer|57=TRADE|10=003|8=FIX.4.4|9=112|35=0|34=6|49=demo.ctrader.3873996|50=3873996lpC268b_vaBZlyF9KsTm9w|52=20231228-06:33:16.637|56=cServer|57=TRADE|10=009|8=FIX.4.4|9=112|35=0|34=7|49=demo.ctrader.3873996|50=3873996lpC268b_vaBZlyF9KsTm9w|52=20231228-06:33:46.827|56=cServer|57=TRADE|10=014|8=FIX.4.4|9=112|35=0|34=8|49=demo.ctrader.3873996|50=3873996lpC268b_vaBZlyF9KsTm9w|52=20231228-06:34:16.828|56=cServer|57=TRADE|10=014|8=FIX.4.4|9=112|35=0|34=9|49=demo.ctrader.3873996|50=3873996lpC268b_vaBZlyF9KsTm9w|52=20231228-06:34:46.878|56=cServer|57=TRADE|10=023|8=FIX.4.4|9=113|35=0|34=10|49=demo.ctrader.3873996|50=3873996lpC268b_vaBZlyF9KsTm9w|52=20231228-06:35:17.838|56=cServer|57=TRADE|10=059|8=FIX.4.4|9=113|35=0|34=11|49=demo.ctrader.3873996|50=3873996lpC268b_vaBZlyF9KsTm9w|52=20231228-06:35:47.842|56=cServer|57=TRADE|10=058|8=FIX.4.4|9=113|35=0|34=12|49=demo.ctrader.3873996|50=3873996lpC268b_vaBZlyF9KsTm9w|52=20231228-06:36:18.841|56=cServer|57=TRADE|10=057|8=FIX.4.4|9=113|35=0|34=13|49=demo.ctrader.3873996|50=3873996lpC268b_vaBZlyF9KsTm9w|52=20231228-06:36:48.849|56=cServer|57=TRADE|10=069|8=FIX.4.4|9=113|35=0|34=14|49=demo.ctrader.3873996|50=3873996lpC268b_vaBZlyF9KsTm9w|52=20231228-06:37:18.852|56=cServer|57=TRADE|10=062|8=FIX.4.4|9=113|35=0|34=15|49=demo.ctrader.3873996|50=3873996lpC268b_vaBZlyF9KsTm9w|52=20231228-06:37:48.859|56=cServer|57=TRADE|10=073|8=FIX.4.4|9=113|35=0|34=16|49=demo.ctrader.3873996|50=3873996lpC268b_vaBZlyF9KsTm9w|52=20231228-06:38:19.854|56=cServer|57=TRADE|10=068|8=FIX.4.4|9=113|35=0|34=17|49=demo.ctrader.3873996|50=3873996lpC268b_vaBZlyF9KsTm9w|52=20231228-06:38:49.899|56=cServer|57=TRADE|10=081|8=FIX.4.4|9=113|35=0|34=18|49=demo.ctrader.3873996|50=3873996lpC268b_vaBZlyF9KsTm9w|52=20231228-06:39:20.891|56=cServer|57=TRADE|10=064|8=FIX.4.4|9=113|35=0|34=19|49=demo.ctrader.3873996|50=3873996lpC268b_vaBZlyF9KsTm9w|52=20231228-06:39:50.968|56=cServer|57=TRADE|10=073|8=FIX.4.4|9=113|35=0|34=20|49=demo.ctrader.3873996|50=3873996lpC268b_vaBZlyF9KsTm9w|52=20231228-06:40:21.864|56=cServer|57=TRADE|10=050|8=FIX.4.4|9=113|35=0|34=21|49=demo.ctrader.3873996|50=3873996lpC268b_vaBZlyF9KsTm9w|52=20231228-06:40:52.853|56=cServer|57=TRADE|10=053|8=FIX.4.4|9=113|35=0|34=22|49=demo.ctrader.3873996|50=3873996lpC268b_vaBZlyF9KsTm9w|52=20231228-06:41:22.888|56=cServer|57=TRADE|10=060|8=FIX.4.4|9=113|35=0|34=23|49=demo.ctrader.3873996|50=3873996lpC268b_vaBZlyF9KsTm9w|52=20231228-06:41:53.890|56=cServer|57=TRADE|10=058|8=FIX.4.4|9=113|35=0|34=24|49=demo.ctrader.3873996|50=3873996lpC268b_vaBZlyF9KsTm9w|52=20231228-06:42:24.866|56=cServer|57=TRADE|10=061|8=FIX.4.4|9=113|35=0|34=25|49=demo.ctrader.3873996|50=3873996lpC268b_vaBZlyF9KsTm9w|52=20231228-06:42:54.888|56=cServer|57=TRADE|10=069|8=FIX.4.4|9=113|35=0|34=26|49=demo.ctrader.3873996|50=3873996lpC268b_vaBZlyF9KsTm9w|52=20231228-06:43:24.905|56=cServer|57=TRADE|10=058|8=FIX.4.4|9=113|35=0|34=27|49=demo.ctrader.3873996|50=3873996lpC268b_vaBZlyF9KsTm9w|52=20231228-06:43:55.888|56=cServer|57=TRADE|10=073|8=FIX.4.4|9=113|35=0|34=28|49=demo.ctrader.3873996|50=3873996lpC268b_vaBZlyF9KsTm9w|52=20231228-06:44:25.895|56=cServer|57=TRADE|10=070|8=FIX.4.4|9=113|35=0|34=29|49=demo.ctrader.3873996|50=3873996lpC268b_vaBZlyF9KsTm9w|52=20231228-06:44:56.901|56=cServer|57=TRADE|10=063|8=FIX.4.4|9=113|35=0|34=30|49=demo.ctrader.3873996|50=3873996lpC268b_vaBZlyF9KsTm9w|52=20231228-06:45:27.902|56=cServer|57=TRADE|10=055|8=FIX.4.4|9=113|35=0|34=31|49=demo.ctrader.3873996|50=3873996lpC268b_vaBZlyF9KsTm9w|52=20231228-06:45:58.892|56=cServer|57=TRADE|10=068|8=FIX.4.4|9=113|35=0|34=32|49=demo.ctrader.3873996|50=3873996lpC268b_vaBZlyF9KsTm9w|52=20231228-06:46:28.942|56=cServer|57=TRADE|10=063|8=FIX.4.4|9=113|35=0|34=33|49=demo.ctrader.3873996|50=3873996lpC268b_vaBZlyF9KsTm9w|52=20231228-06:46:59.950|56=cServer|57=TRADE|10=067|8=FIX.4.4|9=113|35=0|34=34|49=demo.ctrader.3873996|50=3873996lpC268b_vaBZlyF9KsTm9w|52=20231228-06:47:30.953|56=cServer|57=TRADE|10=061|8=FIX.4.4|9=113|35=0|34=35|49=demo.ctrader.3873996|50=3873996lpC268b_vaBZlyF9KsTm9w|52=20231228-06:48:00.958|56=cServer|57=TRADE|10=065|8=FIX.4.4|9=113|35=0|34=36|49=demo.ctrader.3873996|50=3873996lpC268b_vaBZlyF9KsTm9w|52=20231228-06:48:31.944|56=cServer|57=TRADE|10=065|8=FIX.4.4|9=113|35=0|34=37|49=demo.ctrader.3873996|50=3873996lpC268b_vaBZlyF9KsTm9w|52=20231228-06:49:01.963|56=cServer|57=TRADE|10=065|8=FIX.4.4|9=113|35=0|34=38|49=demo.ctrader.3873996|50=3873996lpC268b_vaBZlyF9KsTm9w|52=20231228-06:49:32.954|56=cServer|57=TRADE|10=070|8=FIX.4.4|9=113|35=0|34=39|49=demo.ctrader.3873996|50=3873996lpC268b_vaBZlyF9KsTm9w|52=20231228-06:50:03.942|56=cServer|57=TRADE|10=058|8=FIX.4.4|9=113|35=0|34=40|49=demo.ctrader.3873996|50=3873996lpC268b_vaBZlyF9KsTm9w|52=20231228-06:50:33.978|56=cServer|57=TRADE|10=062|8=FIX.4.4|9=113|35=0|34=41|49=demo.ctrader.3873996|50=3873996lpC268b_vaBZlyF9KsTm9w|52=20231228-06:51:04.979|56=cServer|57=TRADE|10=063|8=FIX.4.4|9=113|35=0|34=42|49=demo.ctrader.3873996|50=3873996lpC268b_vaBZlyF9KsTm9w|52=20231228-06:51:35.982|56=cServer|57=TRADE|10=062|8=FIX.4.4|9=113|35=0|34=43|49=demo.ctrader.3873996|50=3873996lpC268b_vaBZlyF9KsTm9w|52=20231228-06:52:05.987|56=cServer|57=TRADE|10=066|8=FIX.4.4|9=113|35=0|34=44|49=demo.ctrader.3873996|50=3873996lpC268b_vaBZlyF9KsTm9w|52=20231228-06:52:36.012|56=cServer|57=TRADE|10=050|8=FIX.4.4|9=113|35=0|34=45|49=demo.ctrader.3873996|50=3873996lpC268b_vaBZlyF9KsTm9w|52=20231228-06:53:06.971|56=cServer|57=TRADE|10=063|8=FIX.4.4|9=113|35=0|34=46|49=demo.ctrader.3873996|50=3873996lpC268b_vaBZlyF9KsTm9w|52=20231228-06:53:37.941|56=cServer|57=TRADE|10=065|8=FIX.4.4|9=113|35=0|34=47|49=demo.ctrader.3873996|50=3873996lpC268b_vaBZlyF9KsTm9w|52=20231228-06:54:07.981|56=cServer|57=TRADE|10=068|8=FIX.4.4|9=113|35=0|34=48|49=demo.ctrader.3873996|50=3873996lpC268b_vaBZlyF9KsTm9w|52=20231228-06:54:38.955|56=cServer|57=TRADE|10=074|8=FIX.4.4|9=113|35=0|34=49|49=demo.ctrader.3873996|50=3873996lpC268b_vaBZlyF9KsTm9w|52=20231228-06:55:08.995|56=cServer|57=TRADE|10=077|8=FIX.4.4|9=113|35=0|34=50|49=demo.ctrader.3873996|50=3873996lpC268b_vaBZlyF9KsTm9w|52=20231228-06:55:39.012|56=cServer|57=TRADE|10=053|8=FIX.4.4|9=113|35=0|34=51|49=demo.ctrader.3873996|50=3873996lpC268b_vaBZlyF9KsTm9w|52=20231228-06:56:09.089|56=cServer|57=TRADE|10=066|8=FIX.4.4|9=113|35=0|34=52|49=demo.ctrader.3873996|50=3873996lpC268b_vaBZlyF9KsTm9w|52=20231228-06:56:39.991|56=cServer|57=TRADE|10=072|8=FIX.4.4|9=113|35=0|34=53|49=demo.ctrader.3873996|50=3873996lpC268b_vaBZlyF9KsTm9w|52=20231228-06:57:09.997|56=cServer|57=TRADE|10=077|8=FIX.4.4|9=113|35=0|34=54|49=demo.ctrader.3873996|50=3873996lpC268b_vaBZlyF9KsTm9w|52=20231228-06:57:40.382|56=cServer|57=TRADE|10=061|8=FIX.4.4|9=113|35=0|34=55|49=demo.ctrader.3873996|50=3873996lpC268b_vaBZlyF9KsTm9w|52=20231228-06:58:11.013|56=cServer|57=TRADE|10=052|8=FIX.4.4|9=113|35=0|34=56|49=demo.ctrader.3873996|50=3873996lpC268b_vaBZlyF9KsTm9w|52=20231228-06:58:42.012|56=cServer|57=TRADE|10=056|8=FIX.4.4|9=113|35=0|34=57|49=demo.ctrader.3873996|50=3873996lpC268b_vaBZlyF9KsTm9w|52=20231228-06:59:13.009|56=cServer|57=TRADE|10=062|8=FIX.4.4|9=113|35=0|34=58|49=demo.ctrader.3873996|50=3873996lpC268b_vaBZlyF9KsTm9w|52=20231228-06:59:43.043|56=cServer|57=TRADE|10=064|8=FIX.4.4|9=113|35=0|34=59|49=demo.ctrader.3873996|50=3873996lpC268b_vaBZlyF9KsTm9w|52=20231228-07:00:14.044|56=cServer|57=TRADE|10=051|8=FIX.4.4|9=113|35=0|34=60|49=demo.ctrader.3873996|50=3873996lpC268b_vaBZlyF9KsTm9w|52=20231228-07:00:45.017|56=cServer|57=TRADE|10=047|8=FIX.4.4|9=113|35=0|34=61|49=demo.ctrader.3873996|50=3873996lpC268b_vaBZlyF9KsTm9w|52=20231228-07:01:15.088|56=cServer|57=TRADE|10=054|8=FIX.4.4|9=113|35=0|34=62|49=demo.ctrader.3873996|50=3873996lpC268b_vaBZlyF9KsTm9w|52=20231228-07:01:46.064|56=cServer|57=TRADE|10=053|8=FIX.4.4|9=113|35=0|34=63|49=demo.ctrader.3873996|50=3873996lpC268b_vaBZlyF9KsTm9w|52=20231228-07:02:16.843|56=cServer|57=TRADE|10=057|8=FIX.4.4|9=113|35=0|34=64|49=demo.ctrader.3873996|50=3873996lpC268b_vaBZlyF9KsTm9w|52=20231228-07:02:46.843|56=cServer|57=TRADE|10=061|8=FIX.4.4|9=113|35=0|34=65|49=demo.ctrader.3873996|50=3873996lpC268b_vaBZlyF9KsTm9w|52=20231228-07:03:17.836|56=cServer|57=TRADE|10=063|8=FIX.4.4|9=113|35=0|34=66|49=demo.ctrader.3873996|50=3873996lpC268b_vaBZlyF9KsTm9w|52=20231228-07:03:48.844|56=cServer|57=TRADE|10=067|8=FIX.4.4|9=113|35=0|34=67|49=demo.ctrader.3873996|50=3873996lpC268b_vaBZlyF9KsTm9w|52=20231228-07:04:18.879|56=cServer|57=TRADE|10=074|8=FIX.4.4|9=113|35=0|34=68|49=demo.ctrader.3873996|50=3873996lpC268b_vaBZlyF9KsTm9w|52=20231228-07:04:49.137|56=cServer|57=TRADE|10=066|8=FIX.4.4|9=113|35=0|34=69|49=demo.ctrader.3873996|50=3873996lpC268b_vaBZlyF9KsTm9w|52=20231228-07:05:19.909|56=cServer|57=TRADE|10=072|8=FIX.4.4|9=113|35=0|34=70|49=demo.ctrader.3873996|50=3873996lpC268b_vaBZlyF9KsTm9w|52=20231228-07:05:50.844|56=cServer|57=TRADE|10=057|8=FIX.4.4|9=113|35=0|34=71|49=demo.ctrader.3873996|50=3873996lpC268b_vaBZlyF9KsTm9w|52=20231228-07:06:20.856|56=cServer|57=TRADE|10=059|8=FIX.4.4|9=113|35=0|34=72|49=demo.ctrader.3873996|50=3873996lpC268b_vaBZlyF9KsTm9w|52=20231228-07:06:50.868|56=cServer|57=TRADE|10=066|8=FIX.4.4|9=113|35=0|34=73|49=demo.ctrader.3873996|50=3873996lpC268b_vaBZlyF9KsTm9w|52=20231228-07:07:21.850|56=cServer|57=TRADE|10=057|8=FIX.4.4|9=113|35=0|34=74|49=demo.ctrader.3873996|50=3873996lpC268b_vaBZlyF9KsTm9w|52=20231228-07:07:51.859|56=cServer|57=TRADE|10=070|8=FIX.4.4|9=113|35=0|34=75|49=demo.ctrader.3873996|50=3873996lpC268b_vaBZlyF9KsTm9w|52=20231228-07:08:21.884|56=cServer|57=TRADE|10=067|8=FIX.4.4|9=113|35=0|34=76|49=demo.ctrader.3873996|50=3873996lpC268b_vaBZlyF9KsTm9w|52=20231228-07:08:52.879|56=cServer|57=TRADE|10=076|8=FIX.4.4|9=113|35=0|34=77|49=demo.ctrader.3873996|50=3873996lpC268b_vaBZlyF9KsTm9w|52=20231228-07:09:23.871|56=cServer|57=TRADE|10=068|8=FIX.4.4|9=113|35=0|34=78|49=demo.ctrader.3873996|50=3873996lpC268b_vaBZlyF9KsTm9w|52=20231228-07:09:53.895|56=cServer|57=TRADE|10=078|8=FIX.4.4|9=113|35=0|34=79|49=demo.ctrader.3873996|50=3873996lpC268b_vaBZlyF9KsTm9w|52=20231228-07:10:23.902|56=cServer|57=TRADE|10=057|8=FIX.4.4|9=113|35=0|34=80|49=demo.ctrader.3873996|50=3873996lpC268b_vaBZlyF9KsTm9w|52=20231228-07:10:54.904|56=cServer|57=TRADE|10=055|8=FIX.4.4|9=113|35=0|34=81|49=demo.ctrader.3873996|50=3873996lpC268b_vaBZlyF9KsTm9w|52=20231228-07:11:25.896|56=cServer|57=TRADE|10=065|8=FIX.4.4|9=113|35=0|34=82|49=demo.ctrader.3873996|50=3873996lpC268b_vaBZlyF9KsTm9w|52=20231228-07:11:55.912|56=cServer|57=TRADE|10=058|8=FIX.4.4|9=113|35=0|34=83|49=demo.ctrader.3873996|50=3873996lpC268b_vaBZlyF9KsTm9w|52=20231228-07:12:25.941|56=cServer|57=TRADE|10=059|8=FIX.4.4|9=113|35=0|34=84|49=demo.ctrader.3873996|50=3873996lpC268b_vaBZlyF9KsTm9w|52=20231228-07:12:56.903|56=cServer|57=TRADE|10=062|8=FIX.4.4|9=113|35=0|34=85|49=demo.ctrader.3873996|50=3873996lpC268b_vaBZlyF9KsTm9w|52=20231228-07:13:27.030|56=cServer|57=TRADE|10=053|8=FIX.4.4|9=113|35=0|34=86|49=demo.ctrader.3873996|50=3873996lpC268b_vaBZlyF9KsTm9w|52=20231228-07:13:57.947|56=cServer|57=TRADE|10=074|8=FIX.4.4|9=113|35=0|34=87|49=demo.ctrader.3873996|50=3873996lpC268b_vaBZlyF9KsTm9w|52=20231228-07:14:28.914|56=cServer|57=TRADE|10=068|8=FIX.4.4|9=113|35=0|34=88|49=demo.ctrader.3873996|50=3873996lpC268b_vaBZlyF9KsTm9w|52=20231228-07:14:58.926|56=cServer|57=TRADE|10=075|8=FIX.4.4|9=113|35=0|34=89|49=demo.ctrader.3873996|50=3873996lpC268b_vaBZlyF9KsTm9w|52=20231228-07:15:29.927|56=cServer|57=TRADE|10=076|8=FIX.4.4|9=113|35=0|34=90|49=demo.ctrader.3873996|50=3873996lpC268b_vaBZlyF9KsTm9w|52=20231228-07:16:00.928|56=cServer|57=TRADE|10=059|8=FIX.4.4|9=113|35=0|34=91|49=demo.ctrader.3873996|50=3873996lpC268b_vaBZlyF9KsTm9w|52=20231228-07:16:30.944|56=cServer|57=TRADE|10=061|8=FIX.4.4|9=113|35=0|34=92|49=demo.ctrader.3873996|50=3873996lpC268b_vaBZlyF9KsTm9w|52=20231228-07:17:01.945|56=cServer|57=TRADE|10=062|8=FIX.4.4|9=113|35=0|34=93|49=demo.ctrader.3873996|50=3873996lpC268b_vaBZlyF9KsTm9w|52=20231228-07:17:31.999|56=cServer|57=TRADE|10=075|8=FIX.4.4|9=113|35=0|34=94|49=demo.ctrader.3873996|50=3873996lpC268b_vaBZlyF9KsTm9w|52=20231228-07:18:02.942|56=cServer|57=TRADE|10=063|8=FIX.4.4|9=113|35=0|34=95|49=demo.ctrader.3873996|50=3873996lpC268b_vaBZlyF9KsTm9w|52=20231228-07:18:32.984|56=cServer|57=TRADE|10=073|8=FIX.4.4|9=113|35=0|34=96|49=demo.ctrader.3873996|50=3873996lpC268b_vaBZlyF9KsTm9w|52=20231228-07:19:03.955|56=cServer|57=TRADE|10=071|8=FIX.4.4|9=113|35=0|34=97|49=demo.ctrader.3873996|50=3873996lpC268b_vaBZlyF9KsTm9w|52=20231228-07:19:34.959|56=cServer|57=TRADE|10=080|8=FIX.4.4|9=113|35=0|34=98|49=demo.ctrader.3873996|50=3873996lpC268b_vaBZlyF9KsTm9w|52=20231228-07:20:04.980|56=cServer|57=TRADE|10=064|