8=FIX.4.4|9=244|35=A|34=1|49=demo.ctrader.3873996|50=3873996SYMgnrV7VA2tpvZiiMY0Kw|52=20231227-10:52:19.663|56=cServer|57=TRADE|49=demo.ctrader.3873996|50=3873996SYMgnrV7VA2tpvZiiMY0Kw|52=20231227-10:52:19|56=cServer|98=0|108=30|141=Y|553=3873996|554=Gtlfx125|10=205|8=FIX.4.4|9=130|35=x|34=2|49=demo.ctrader.3873996|50=3873996SYMgnrV7VA2tpvZiiMY0Kw|52=20231227-10:52:20.246|56=cServer|57=TRADE|320=symbols|559=0|10=090|8=FIX.4.4|9=127|35=AN|34=3|49=demo.ctrader.3873996|50=3873996SYMgnrV7VA2tpvZiiMY0Kw|52=20231227-10:52:20.803|56=cServer|57=TRADE|710=Positions|10=040|8=FIX.4.4|9=130|35=AF|34=4|49=demo.ctrader.3873996|50=3873996SYMgnrV7VA2tpvZiiMY0Kw|52=20231227-10:52:20.804|56=cServer|57=TRADE|584=Orders|585=7|10=227|8=FIX.4.4|9=112|35=0|34=5|49=demo.ctrader.3873996|50=3873996SYMgnrV7VA2tpvZiiMY0Kw|52=20231227-10:52:51.246|56=cServer|57=TRADE|10=044|8=FIX.4.4|9=112|35=0|34=6|49=demo.ctrader.3873996|50=3873996SYMgnrV7VA2tpvZiiMY0Kw|52=20231227-10:53:21.525|56=cServer|57=TRADE|10=043|8=FIX.4.4|9=112|35=0|34=7|49=demo.ctrader.3873996|50=3873996SYMgnrV7VA2tpvZiiMY0Kw|52=20231227-10:53:51.706|56=cServer|57=TRADE|10=048|8=FIX.4.4|9=112|35=0|34=8|49=demo.ctrader.3873996|50=3873996SYMgnrV7VA2tpvZiiMY0Kw|52=20231227-10:54:21.740|56=cServer|57=TRADE|10=045|8=FIX.4.4|9=112|35=0|34=9|49=demo.ctrader.3873996|50=3873996SYMgnrV7VA2tpvZiiMY0Kw|52=20231227-10:54:52.706|56=cServer|57=TRADE|10=052|8=FIX.4.4|9=113|35=0|34=10|49=demo.ctrader.3873996|50=3873996SYMgnrV7VA2tpvZiiMY0Kw|52=20231227-10:55:22.716|56=cServer|57=TRADE|10=092|8=FIX.4.4|9=113|35=0|34=11|49=demo.ctrader.3873996|50=3873996SYMgnrV7VA2tpvZiiMY0Kw|52=20231227-10:55:53.719|56=cServer|57=TRADE|10=100|8=FIX.4.4|9=113|35=0|34=12|49=demo.ctrader.3873996|50=3873996SYMgnrV7VA2tpvZiiMY0Kw|52=20231227-10:56:23.730|56=cServer|57=TRADE|10=092|