8=FIX.4.4|9=244|35=A|34=1|49=demo.ctrader.3873996|50=38739965JInJSeLRPc6MMCsQe3SOQ|52=20231212-07:03:49.376|56=cServer|57=TRADE|49=demo.ctrader.3873996|50=38739965JInJSeLRPc6MMCsQe3SOQ|52=20231212-07:03:49|56=cServer|98=0|108=30|141=Y|553=3873996|554=Gtlfx125|10=058|8=FIX.4.4|9=130|35=x|34=2|49=demo.ctrader.3873996|50=38739965JInJSeLRPc6MMCsQe3SOQ|52=20231212-07:03:49.976|56=cServer|57=TRADE|320=symbols|559=0|10=162|8=FIX.4.4|9=127|35=AN|34=3|49=demo.ctrader.3873996|50=38739965JInJSeLRPc6MMCsQe3SOQ|52=20231212-07:03:50.162|56=cServer|57=TRADE|710=Positions|10=092|8=FIX.4.4|9=130|35=AF|34=4|49=demo.ctrader.3873996|50=38739965JInJSeLRPc6MMCsQe3SOQ|52=20231212-07:03:50.162|56=cServer|57=TRADE|584=Orders|585=7|10=022|8=FIX.4.4|9=112|35=0|34=5|49=demo.ctrader.3873996|50=38739965JInJSeLRPc6MMCsQe3SOQ|52=20231212-07:04:20.618|56=cServer|57=TRADE|10=095|8=FIX.4.4|9=112|35=0|34=6|49=demo.ctrader.3873996|50=38739965JInJSeLRPc6MMCsQe3SOQ|52=20231212-07:04:50.940|56=cServer|57=TRADE|10=097|8=FIX.4.4|9=112|35=0|34=7|49=demo.ctrader.3873996|50=38739965JInJSeLRPc6MMCsQe3SOQ|52=20231212-07:05:21.231|56=cServer|57=TRADE|10=090|8=FIX.4.4|9=112|35=0|34=8|49=demo.ctrader.3873996|50=38739965JInJSeLRPc6MMCsQe3SOQ|52=20231212-07:05:51.231|56=cServer|57=TRADE|10=094|8=FIX.4.4|9=112|35=0|34=9|49=demo.ctrader.3873996|50=38739965JInJSeLRPc6MMCsQe3SOQ|52=20231212-07:06:34.758|56=cServer|57=TRADE|10=111|8=FIX.4.4|9=113|35=0|34=10|49=demo.ctrader.3873996|50=38739965JInJSeLRPc6MMCsQe3SOQ|52=20231212-07:07:05.613|56=cServer|57=TRADE|10=141|8=FIX.4.4|9=113|35=0|34=11|49=demo.ctrader.3873996|50=38739965JInJSeLRPc6MMCsQe3SOQ|52=20231212-07:08:00.896|56=cServer|57=TRADE|10=151|8=FIX.4.4|9=122|35=0|34=12|49=demo.ctrader.3873996|50=38739965JInJSeLRPc6MMCsQe3SOQ|52=20231212-07:08:00.898|56=cServer|57=TRADE|112=TEST|10=172|8=FIX.4.4|9=113|35=0|34=13|49=demo.ctrader.3873996|50=38739965JInJSeLRPc6MMCsQe3SOQ|52=20231212-07:08:31.378|56=cServer|57=TRADE|10=152|8=FIX.4.4|9=113|35=0|34=14|49=demo.ctrader.3873996|50=38739965JInJSeLRPc6MMCsQe3SOQ|52=20231212-07:09:02.933|56=cServer|57=TRADE|10=149|8=FIX.4.4|9=113|35=0|34=15|49=demo.ctrader.3873996|50=38739965JInJSeLRPc6MMCsQe3SOQ|52=20231212-07:09:38.739|56=cServer|57=TRADE|10=163|8=FIX.4.4|9=113|35=0|34=16|49=demo.ctrader.3873996|50=38739965JInJSeLRPc6MMCsQe3SOQ|52=20231212-07:10:17.450|56=cServer|57=TRADE|10=143|8=FIX.4.4|9=113|35=0|34=17|49=demo.ctrader.3873996|50=38739965JInJSeLRPc6MMCsQe3SOQ|52=20231212-07:10:51.172|56=cServer|57=TRADE|10=143|