8=FIX.4.4|9=244|35=A|34=1|49=demo.ctrader.3873996|50=3873996hAuEOYV6yDifq-BsGOcmhQ|52=20231227-10:50:50.308|56=cServer|57=QUOTE|49=demo.ctrader.3873996|50=3873996hAuEOYV6yDifq-BsGOcmhQ|52=20231227-10:50:50|56=cServer|98=0|108=30|141=Y|553=3873996|554=Gtlfx125|10=155|8=FIX.4.4|9=170|35=V|34=2|49=demo.ctrader.3873996|50=3873996hAuEOYV6yDifq-BsGOcmhQ|52=20231227-10:50:51.165|56=cServer|57=QUOTE|262=MARKETDATAID|263=1|264=1|267=2|269=0|269=1|146=1|55=1|10=185|8=FIX.4.4|9=170|35=V|34=3|49=demo.ctrader.3873996|50=3873996hAuEOYV6yDifq-BsGOcmhQ|52=20231227-10:50:51.166|56=cServer|57=QUOTE|262=MARKETDATAID|263=1|264=1|267=2|269=0|269=1|146=1|55=2|10=188|8=FIX.4.4|9=170|35=V|34=4|49=demo.ctrader.3873996|50=3873996hAuEOYV6yDifq-BsGOcmhQ|52=20231227-10:50:51.167|56=cServer|57=QUOTE|262=MARKETDATAID|263=1|264=1|267=2|269=0|269=1|146=1|55=3|10=191|8=FIX.4.4|9=170|35=V|34=5|49=demo.ctrader.3873996|50=3873996hAuEOYV6yDifq-BsGOcmhQ|52=20231227-10:50:51.167|56=cServer|57=QUOTE|262=MARKETDATAID|263=1|264=1|267=2|269=0|269=1|146=1|55=4|10=193|8=FIX.4.4|9=170|35=V|34=6|49=demo.ctrader.3873996|50=3873996hAuEOYV6yDifq-BsGOcmhQ|52=20231227-10:50:51.167|56=cServer|57=QUOTE|262=MARKETDATAID|263=1|264=1|267=2|269=0|269=1|146=1|55=5|10=195|8=FIX.4.4|9=170|35=V|34=7|49=demo.ctrader.3873996|50=3873996hAuEOYV6yDifq-BsGOcmhQ|52=20231227-10:50:51.167|56=cServer|57=QUOTE|262=MARKETDATAID|263=1|264=1|267=2|269=0|269=1|146=1|55=6|10=197|8=FIX.4.4|9=170|35=V|34=8|49=demo.ctrader.3873996|50=3873996hAuEOYV6yDifq-BsGOcmhQ|52=20231227-10:50:51.168|56=cServer|57=QUOTE|262=MARKETDATAID|263=1|264=1|267=2|269=0|269=1|146=1|55=7|10=200|8=FIX.4.4|9=170|35=V|34=9|49=demo.ctrader.3873996|50=3873996hAuEOYV6yDifq-BsGOcmhQ|52=20231227-10:50:51.168|56=cServer|57=QUOTE|262=MARKETDATAID|263=1|264=1|267=2|269=0|269=1|146=1|55=8|10=202|8=FIX.4.4|9=171|35=V|34=10|49=demo.ctrader.3873996|50=3873996hAuEOYV6yDifq-BsGOcmhQ|52=20231227-10:50:51.168|56=cServer|57=QUOTE|262=MARKETDATAID|263=1|264=1|267=2|269=0|269=1|146=1|55=9|10=244|8=FIX.4.4|9=172|35=V|34=11|49=demo.ctrader.3873996|50=3873996hAuEOYV6yDifq-BsGOcmhQ|52=20231227-10:50:51.168|56=cServer|57=QUOTE|262=MARKETDATAID|263=1|264=1|267=2|269=0|269=1|146=1|55=10|10=030|8=FIX.4.4|9=172|35=V|34=12|49=demo.ctrader.3873996|50=3873996hAuEOYV6yDifq-BsGOcmhQ|52=20231227-10:50:51.168|56=cServer|57=QUOTE|262=MARKETDATAID|263=1|264=1|267=2|269=0|269=1|146=1|55=11|10=032|8=FIX.4.4|9=172|35=V|34=13|49=demo.ctrader.3873996|50=3873996hAuEOYV6yDifq-BsGOcmhQ|52=20231227-10:50:51.168|56=cServer|57=QUOTE|262=MARKETDATAID|263=1|264=1|267=2|269=0|269=1|146=1|55=12|10=034|8=FIX.4.4|9=172|35=V|34=14|49=demo.ctrader.3873996|50=3873996hAuEOYV6yDifq-BsGOcmhQ|52=20231227-10:50:51.169|56=cServer|57=QUOTE|262=MARKETDATAID|263=1|264=1|267=2|269=0|269=1|146=1|55=13|10=037|8=FIX.4.4|9=172|35=V|34=15|49=demo.ctrader.3873996|50=3873996hAuEOYV6yDifq-BsGOcmhQ|52=20231227-10:50:51.169|56=cServer|57=QUOTE|262=MARKETDATAID|263=1|264=1|267=2|269=0|269=1|146=1|55=14|10=039|8=FIX.4.4|9=172|35=V|34=16|49=demo.ctrader.3873996|50=3873996hAuEOYV6yDifq-BsGOcmhQ|52=20231227-10:50:51.169|56=cServer|57=QUOTE|262=MARKETDATAID|263=1|264=1|267=2|269=0|269=1|146=1|55=15|10=041|8=FIX.4.4|9=172|35=V|34=17|49=demo.ctrader.3873996|50=3873996hAuEOYV6yDifq-BsGOcmhQ|52=20231227-10:50:51.169|56=cServer|57=QUOTE|262=MARKETDATAID|263=1|264=1|267=2|269=0|269=1|146=1|55=16|10=043|8=FIX.4.4|9=172|35=V|34=18|49=demo.ctrader.3873996|50=3873996hAuEOYV6yDifq-BsGOcmhQ|52=20231227-10:50:51.169|56=cServer|57=QUOTE|262=MARKETDATAID|263=1|264=1|267=2|269=0|269=1|146=1|55=17|10=045|8=FIX.4.4|9=172|35=V|34=19|49=demo.ctrader.3873996|50=3873996hAuEOYV6yDifq-BsGOcmhQ|52=20231227-10:50:51.169|56=cServer|57=QUOTE|262=MARKETDATAID|263=1|264=1|267=2|269=0|269=1|146=1|55=18|10=047|8=FIX.4.4|9=172|35=V|34=20|49=demo.ctrader.3873996|50=3873996hAuEOYV6yDifq-BsGOcmhQ|52=20231227-10:50:51.170|56=cServer|57=QUOTE|262=MARKETDATAID|263=1|264=1|267=2|269=0|269=1|146=1|55=19|10=032|8=FIX.4.4|9=172|35=V|34=21|49=demo.ctrader.3873996|50=3873996hAuEOYV6yDifq-BsGOcmhQ|52=20231227-10:50:51.170|56=cServer|57=QUOTE|262=MARKETDATAID|263=1|264=1|267=2|269=0|269=1|146=1|55=22|10=027|8=FIX.4.4|9=113|35=0|34=22|49=demo.ctrader.3873996|50=3873996hAuEOYV6yDifq-BsGOcmhQ|52=20231227-10:51:21.205|56=cServer|57=QUOTE|10=082|8=FIX.4.4|9=113|35=0|34=23|49=demo.ctrader.3873996|50=3873996hAuEOYV6yDifq-BsGOcmhQ|52=20231227-10:51:51.476|56=cServer|57=QUOTE|10=096|