8=FIX.4.4|9=244|35=A|34=1|49=demo.ctrader.3873996|50=3873996tyvHnoqyyDZERikTbr3KDw|52=20240104-10:11:59.793|56=cServer|57=TRADE|49=demo.ctrader.3873996|50=3873996tyvHnoqyyDZERikTbr3KDw|52=20240104-10:11:59|56=cServer|98=0|108=30|141=Y|553=3873996|554=Gtlfx125|10=005|8=FIX.4.4|9=130|35=x|34=2|49=demo.ctrader.3873996|50=3873996tyvHnoqyyDZERikTbr3KDw|52=20240104-10:12:00.462|56=cServer|57=TRADE|320=symbols|559=0|10=239|8=FIX.4.4|9=127|35=AN|34=3|49=demo.ctrader.3873996|50=3873996tyvHnoqyyDZERikTbr3KDw|52=20240104-10:12:00.957|56=cServer|57=TRADE|710=Positions|10=199|8=FIX.4.4|9=130|35=AF|34=4|49=demo.ctrader.3873996|50=3873996tyvHnoqyyDZERikTbr3KDw|52=20240104-10:12:00.958|56=cServer|57=TRADE|584=Orders|585=7|10=130|8=FIX.4.4|9=177|35=D|34=5|49=demo.ctrader.3873996|50=3873996tyvHnoqyyDZERikTbr3KDw|52=20240104-10:12:12.201|56=cServer|57=TRADE|11=68421688|38=1000|40=1|54=1|55=2|59=3|60=20240104-15:12:12.200|10=173|8=FIX.4.4|9=127|35=AN|34=6|49=demo.ctrader.3873996|50=3873996tyvHnoqyyDZERikTbr3KDw|52=20240104-10:12:12.604|56=cServer|57=TRADE|710=Positions|10=194|8=FIX.4.4|9=112|35=0|34=7|49=demo.ctrader.3873996|50=3873996tyvHnoqyyDZERikTbr3KDw|52=20240104-10:12:42.951|56=cServer|57=TRADE|10=200|8=FIX.4.4|9=112|35=0|34=8|49=demo.ctrader.3873996|50=3873996tyvHnoqyyDZERikTbr3KDw|52=20240104-10:13:12.952|56=cServer|57=TRADE|10=200|8=FIX.4.4|9=112|35=0|34=9|49=demo.ctrader.3873996|50=3873996tyvHnoqyyDZERikTbr3KDw|52=20240104-10:13:43.957|56=cServer|57=TRADE|10=210|8=FIX.4.4|9=113|35=0|34=10|49=demo.ctrader.3873996|50=3873996tyvHnoqyyDZERikTbr3KDw|52=20240104-10:14:13.958|56=cServer|57=TRADE|10=250|8=FIX.4.4|9=113|35=0|34=11|49=demo.ctrader.3873996|50=3873996tyvHnoqyyDZERikTbr3KDw|52=20240104-10:14:44.960|56=cServer|57=TRADE|10=248|8=FIX.4.4|9=113|35=0|34=12|49=demo.ctrader.3873996|50=3873996tyvHnoqyyDZERikTbr3KDw|52=20240104-10:15:14.971|56=cServer|57=TRADE|10=249|8=FIX.4.4|9=113|35=0|34=13|49=demo.ctrader.3873996|50=3873996tyvHnoqyyDZERikTbr3KDw|52=20240104-10:15:45.979|56=cServer|57=TRADE|10=006|8=FIX.4.4|9=113|35=0|34=14|49=demo.ctrader.3873996|50=3873996tyvHnoqyyDZERikTbr3KDw|52=20240104-10:16:16.962|56=cServer|57=TRADE|10=254|8=FIX.4.4|9=113|35=0|34=15|49=demo.ctrader.3873996|50=3873996tyvHnoqyyDZERikTbr3KDw|52=20240104-10:16:46.986|56=cServer|57=TRADE|10=008|8=FIX.4.4|9=113|35=0|34=16|49=demo.ctrader.3873996|50=3873996tyvHnoqyyDZERikTbr3KDw|52=20240104-10:17:16.990|56=cServer|57=TRADE|10=002|8=FIX.4.4|9=113|35=0|34=17|49=demo.ctrader.3873996|50=3873996tyvHnoqyyDZERikTbr3KDw|52=20240104-10:17:47.983|56=cServer|57=TRADE|10=009|8=FIX.4.4|9=113|35=0|34=18|49=demo.ctrader.3873996|50=3873996tyvHnoqyyDZERikTbr3KDw|52=20240104-10:18:17.992|56=cServer|57=TRADE|10=008|8=FIX.4.4|9=113|35=0|34=19|49=demo.ctrader.3873996|50=3873996tyvHnoqyyDZERikTbr3KDw|52=20240104-10:18:48.989|56=cServer|57=TRADE|10=019|8=FIX.4.4|9=113|35=0|34=20|49=demo.ctrader.3873996|50=3873996tyvHnoqyyDZERikTbr3KDw|52=20240104-10:19:18.996|56=cServer|57=TRADE|10=007|8=FIX.4.4|9=113|35=0|34=21|49=demo.ctrader.3873996|50=3873996tyvHnoqyyDZERikTbr3KDw|52=20240104-10:19:49.002|56=cServer|57=TRADE|10=246|8=FIX.4.4|9=113|35=0|34=22|49=demo.ctrader.3873996|50=3873996tyvHnoqyyDZERikTbr3KDw|52=20240104-10:20:19.007|56=cServer|57=TRADE|10=241|8=FIX.4.4|9=113|35=0|34=23|49=demo.ctrader.3873996|50=3873996tyvHnoqyyDZERikTbr3KDw|52=20240104-10:20:50.001|56=cServer|57=TRADE|10=231|8=FIX.4.4|9=113|35=0|34=24|49=demo.ctrader.3873996|50=3873996tyvHnoqyyDZERikTbr3KDw|52=20240104-10:21:20.009|56=cServer|57=TRADE|10=238|8=FIX.4.4|9=113|35=0|34=25|49=demo.ctrader.3873996|50=3873996tyvHnoqyyDZERikTbr3KDw|52=20240104-10:21:51.021|56=cServer|57=TRADE|10=237|8=FIX.4.4|9=113|35=0|34=26|49=demo.ctrader.3873996|50=3873996tyvHnoqyyDZERikTbr3KDw|52=20240104-10:22:21.982|56=cServer|57=TRADE|10=252|8=FIX.4.4|9=113|35=0|34=27|49=demo.ctrader.3873996|50=3873996tyvHnoqyyDZERikTbr3KDw|52=20240104-10:22:52.004|56=cServer|57=TRADE|10=242|8=FIX.4.4|9=113|35=0|34=28|49=demo.ctrader.3873996|50=3873996tyvHnoqyyDZERikTbr3KDw|52=20240104-10:23:22.026|56=cServer|57=TRADE|10=245|8=FIX.4.4|9=113|35=0|34=29|49=demo.ctrader.3873996|50=3873996tyvHnoqyyDZERikTbr3KDw|52=20240104-10:23:53.023|56=cServer|57=TRADE|10=247|8=FIX.4.4|9=113|35=0|34=30|49=demo.ctrader.3873996|50=3873996tyvHnoqyyDZERikTbr3KDw|52=20240104-10:24:23.058|56=cServer|57=TRADE|10=245|8=FIX.4.4|9=227|35=5|34=31|49=demo.ctrader.3873996|50=3873996tyvHnoqyyDZERikTbr3KDw|52=20240104-10:24:42.900|56=cServer|57=TRADE|49=demo.ctrader.3873996|50=3873996tyvHnoqyyDZERikTbr3KDw|52=20240104-10:24:42|56=cServer|553=3873996|554=Gtlfx125|10=213|8=FIX.4.4|9=227|35=5|34=32|49=demo.ctrader.3873996|50=3873996tyvHnoqyyDZERikTbr3KDw|52=20240104-10:24:42.944|56=cServer|57=TRADE|49=demo.ctrader.3873996|50=3873996tyvHnoqyyDZERikTbr3KDw|52=20240104-10:24:42|56=cServer|553=3873996|554=Gtlfx125|10=222|