8=FIX.4.4|9=244|35=A|34=1|49=demo.ctrader.3873996|50=3873996KQPhhH-DenKiRPv4iK7yhg|52=20231227-11:11:14.432|56=cServer|57=QUOTE|49=demo.ctrader.3873996|50=3873996KQPhhH-DenKiRPv4iK7yhg|52=20231227-11:11:14|56=cServer|98=0|108=30|141=Y|553=3873996|554=Gtlfx125|10=097|8=FIX.4.4|9=170|35=V|34=2|49=demo.ctrader.3873996|50=3873996KQPhhH-DenKiRPv4iK7yhg|52=20231227-11:11:15.286|56=cServer|57=QUOTE|262=MARKETDATAID|263=1|264=1|267=2|269=0|269=1|146=1|55=1|10=161|8=FIX.4.4|9=170|35=V|34=3|49=demo.ctrader.3873996|50=3873996KQPhhH-DenKiRPv4iK7yhg|52=20231227-11:11:15.287|56=cServer|57=QUOTE|262=MARKETDATAID|263=1|264=1|267=2|269=0|269=1|146=1|55=2|10=164|8=FIX.4.4|9=170|35=V|34=4|49=demo.ctrader.3873996|50=3873996KQPhhH-DenKiRPv4iK7yhg|52=20231227-11:11:15.288|56=cServer|57=QUOTE|262=MARKETDATAID|263=1|264=1|267=2|269=0|269=1|146=1|55=3|10=167|8=FIX.4.4|9=170|35=V|34=5|49=demo.ctrader.3873996|50=3873996KQPhhH-DenKiRPv4iK7yhg|52=20231227-11:11:15.288|56=cServer|57=QUOTE|262=MARKETDATAID|263=1|264=1|267=2|269=0|269=1|146=1|55=4|10=169|8=FIX.4.4|9=170|35=V|34=6|49=demo.ctrader.3873996|50=3873996KQPhhH-DenKiRPv4iK7yhg|52=20231227-11:11:15.288|56=cServer|57=QUOTE|262=MARKETDATAID|263=1|264=1|267=2|269=0|269=1|146=1|55=5|10=171|8=FIX.4.4|9=170|35=V|34=7|49=demo.ctrader.3873996|50=3873996KQPhhH-DenKiRPv4iK7yhg|52=20231227-11:11:15.288|56=cServer|57=QUOTE|262=MARKETDATAID|263=1|264=1|267=2|269=0|269=1|146=1|55=6|10=173|8=FIX.4.4|9=170|35=V|34=8|49=demo.ctrader.3873996|50=3873996KQPhhH-DenKiRPv4iK7yhg|52=20231227-11:11:15.289|56=cServer|57=QUOTE|262=MARKETDATAID|263=1|264=1|267=2|269=0|269=1|146=1|55=7|10=176|8=FIX.4.4|9=170|35=V|34=9|49=demo.ctrader.3873996|50=3873996KQPhhH-DenKiRPv4iK7yhg|52=20231227-11:11:15.289|56=cServer|57=QUOTE|262=MARKETDATAID|263=1|264=1|267=2|269=0|269=1|146=1|55=8|10=178|8=FIX.4.4|9=171|35=V|34=10|49=demo.ctrader.3873996|50=3873996KQPhhH-DenKiRPv4iK7yhg|52=20231227-11:11:15.289|56=cServer|57=QUOTE|262=MARKETDATAID|263=1|264=1|267=2|269=0|269=1|146=1|55=9|10=220|8=FIX.4.4|9=172|35=V|34=11|49=demo.ctrader.3873996|50=3873996KQPhhH-DenKiRPv4iK7yhg|52=20231227-11:11:15.289|56=cServer|57=QUOTE|262=MARKETDATAID|263=1|264=1|267=2|269=0|269=1|146=1|55=10|10=006|8=FIX.4.4|9=172|35=V|34=12|49=demo.ctrader.3873996|50=3873996KQPhhH-DenKiRPv4iK7yhg|52=20231227-11:11:15.289|56=cServer|57=QUOTE|262=MARKETDATAID|263=1|264=1|267=2|269=0|269=1|146=1|55=11|10=008|8=FIX.4.4|9=172|35=V|34=13|49=demo.ctrader.3873996|50=3873996KQPhhH-DenKiRPv4iK7yhg|52=20231227-11:11:15.289|56=cServer|57=QUOTE|262=MARKETDATAID|263=1|264=1|267=2|269=0|269=1|146=1|55=12|10=010|8=FIX.4.4|9=172|35=V|34=14|49=demo.ctrader.3873996|50=3873996KQPhhH-DenKiRPv4iK7yhg|52=20231227-11:11:15.289|56=cServer|57=QUOTE|262=MARKETDATAID|263=1|264=1|267=2|269=0|269=1|146=1|55=13|10=012|8=FIX.4.4|9=172|35=V|34=15|49=demo.ctrader.3873996|50=3873996KQPhhH-DenKiRPv4iK7yhg|52=20231227-11:11:15.290|56=cServer|57=QUOTE|262=MARKETDATAID|263=1|264=1|267=2|269=0|269=1|146=1|55=14|10=006|8=FIX.4.4|9=172|35=V|34=16|49=demo.ctrader.3873996|50=3873996KQPhhH-DenKiRPv4iK7yhg|52=20231227-11:11:15.290|56=cServer|57=QUOTE|262=MARKETDATAID|263=1|264=1|267=2|269=0|269=1|146=1|55=15|10=008|8=FIX.4.4|9=172|35=V|34=17|49=demo.ctrader.3873996|50=3873996KQPhhH-DenKiRPv4iK7yhg|52=20231227-11:11:15.290|56=cServer|57=QUOTE|262=MARKETDATAID|263=1|264=1|267=2|269=0|269=1|146=1|55=16|10=010|8=FIX.4.4|9=172|35=V|34=18|49=demo.ctrader.3873996|50=3873996KQPhhH-DenKiRPv4iK7yhg|52=20231227-11:11:15.290|56=cServer|57=QUOTE|262=MARKETDATAID|263=1|264=1|267=2|269=0|269=1|146=1|55=17|10=012|8=FIX.4.4|9=172|35=V|34=19|49=demo.ctrader.3873996|50=3873996KQPhhH-DenKiRPv4iK7yhg|52=20231227-11:11:15.290|56=cServer|57=QUOTE|262=MARKETDATAID|263=1|264=1|267=2|269=0|269=1|146=1|55=18|10=014|8=FIX.4.4|9=172|35=V|34=20|49=demo.ctrader.3873996|50=3873996KQPhhH-DenKiRPv4iK7yhg|52=20231227-11:11:15.290|56=cServer|57=QUOTE|262=MARKETDATAID|263=1|264=1|267=2|269=0|269=1|146=1|55=19|10=007|8=FIX.4.4|9=172|35=V|34=21|49=demo.ctrader.3873996|50=3873996KQPhhH-DenKiRPv4iK7yhg|52=20231227-11:11:15.290|56=cServer|57=QUOTE|262=MARKETDATAID|263=1|264=1|267=2|269=0|269=1|146=1|55=22|10=002|8=FIX.4.4|9=113|35=0|34=22|49=demo.ctrader.3873996|50=3873996KQPhhH-DenKiRPv4iK7yhg|52=20231227-11:11:45.391|56=cServer|57=QUOTE|10=065|8=FIX.4.4|9=113|35=0|34=23|49=demo.ctrader.3873996|50=3873996KQPhhH-DenKiRPv4iK7yhg|52=20231227-11:12:15.498|56=cServer|57=QUOTE|10=072|8=FIX.4.4|9=113|35=0|34=24|49=demo.ctrader.3873996|50=3873996KQPhhH-DenKiRPv4iK7yhg|52=20231227-11:12:45.499|56=cServer|57=QUOTE|10=077|8=FIX.4.4|9=113|35=0|34=25|49=demo.ctrader.3873996|50=3873996KQPhhH-DenKiRPv4iK7yhg|52=20231227-11:13:15.678|56=cServer|57=QUOTE|10=075|8=FIX.4.4|9=113|35=0|34=26|49=demo.ctrader.3873996|50=3873996KQPhhH-DenKiRPv4iK7yhg|52=20231227-11:13:45.900|56=cServer|57=QUOTE|10=067|8=FIX.4.4|9=113|35=0|34=27|49=demo.ctrader.3873996|50=3873996KQPhhH-DenKiRPv4iK7yhg|52=20231227-11:14:16.127|56=cServer|57=QUOTE|10=068|8=FIX.4.4|9=113|35=0|34=28|49=demo.ctrader.3873996|50=3873996KQPhhH-DenKiRPv4iK7yhg|52=20231227-11:14:46.209|56=cServer|57=QUOTE|10=073|8=FIX.4.4|9=113|35=0|34=29|49=demo.ctrader.3873996|50=3873996KQPhhH-DenKiRPv4iK7yhg|52=20231227-11:15:16.211|56=cServer|57=QUOTE|10=065|8=FIX.4.4|9=113|35=0|34=30|49=demo.ctrader.3873996|50=3873996KQPhhH-DenKiRPv4iK7yhg|52=20231227-11:15:46.262|56=cServer|57=QUOTE|10=066|8=FIX.4.4|9=113|35=0|34=31|49=demo.ctrader.3873996|50=3873996KQPhhH-DenKiRPv4iK7yhg|52=20231227-11:16:16.327|56=cServer|57=QUOTE|10=067|