8=FIX.4.4|9=244|35=A|34=1|49=demo.ctrader.3873996|50=3873996vbrx4477Edjb9QC6whPEqQ|52=20231227-11:06:16.879|56=cServer|57=TRADE|49=demo.ctrader.3873996|50=3873996vbrx4477Edjb9QC6whPEqQ|52=20231227-11:06:16|56=cServer|98=0|108=30|141=Y|553=3873996|554=Gtlfx125|10=244|8=FIX.4.4|9=130|35=x|34=2|49=demo.ctrader.3873996|50=3873996vbrx4477Edjb9QC6whPEqQ|52=20231227-11:06:17.453|56=cServer|57=TRADE|320=symbols|559=0|10=242|8=FIX.4.4|9=127|35=AN|34=3|49=demo.ctrader.3873996|50=3873996vbrx4477Edjb9QC6whPEqQ|52=20231227-11:06:17.729|56=cServer|57=TRADE|710=Positions|10=199|8=FIX.4.4|9=130|35=AF|34=4|49=demo.ctrader.3873996|50=3873996vbrx4477Edjb9QC6whPEqQ|52=20231227-11:06:17.729|56=cServer|57=TRADE|584=Orders|585=7|10=129|8=FIX.4.4|9=112|35=0|34=5|49=demo.ctrader.3873996|50=3873996vbrx4477Edjb9QC6whPEqQ|52=20231227-11:06:48.233|56=cServer|57=TRADE|10=192|8=FIX.4.4|9=112|35=0|34=6|49=demo.ctrader.3873996|50=3873996vbrx4477Edjb9QC6whPEqQ|52=20231227-11:07:18.572|56=cServer|57=TRADE|10=197|8=FIX.4.4|9=112|35=0|34=7|49=demo.ctrader.3873996|50=3873996vbrx4477Edjb9QC6whPEqQ|52=20231227-11:07:48.705|56=cServer|57=TRADE|10=199|8=FIX.4.4|9=112|35=0|34=8|49=demo.ctrader.3873996|50=3873996vbrx4477Edjb9QC6whPEqQ|52=20231227-11:08:19.711|56=cServer|57=TRADE|10=196|8=FIX.4.4|9=112|35=0|34=9|49=demo.ctrader.3873996|50=3873996vbrx4477Edjb9QC6whPEqQ|52=20231227-11:08:49.714|56=cServer|57=TRADE|10=203|8=FIX.4.4|9=113|35=0|34=10|49=demo.ctrader.3873996|50=3873996vbrx4477Edjb9QC6whPEqQ|52=20231227-11:09:20.720|56=cServer|57=TRADE|10=231|8=FIX.4.4|9=113|35=0|34=11|49=demo.ctrader.3873996|50=3873996vbrx4477Edjb9QC6whPEqQ|52=20231227-11:09:51.728|56=cServer|57=TRADE|10=244|8=FIX.4.4|9=113|35=0|34=12|49=demo.ctrader.3873996|50=3873996vbrx4477Edjb9QC6whPEqQ|52=20231227-11:10:21.757|56=cServer|57=TRADE|10=236|8=FIX.4.4|9=113|35=0|34=13|49=demo.ctrader.3873996|50=3873996vbrx4477Edjb9QC6whPEqQ|52=20231227-11:10:51.767|56=cServer|57=TRADE|10=241|