8=FIX.4.4|9=244|35=A|34=1|49=demo.ctrader.3873996|50=38739961qRHpK_RAWhZJ1nirZjm4w|52=20231226-10:24:38.788|56=cServer|57=TRADE|49=demo.ctrader.3873996|50=38739961qRHpK_RAWhZJ1nirZjm4w|52=20231226-10:24:38|56=cServer|98=0|108=30|141=Y|553=3873996|554=Gtlfx125|10=175|8=FIX.4.4|9=130|35=x|34=2|49=demo.ctrader.3873996|50=38739961qRHpK_RAWhZJ1nirZjm4w|52=20231226-10:24:39.322|56=cServer|57=TRADE|320=symbols|559=0|10=075|8=FIX.4.4|9=127|35=AN|34=3|49=demo.ctrader.3873996|50=38739961qRHpK_RAWhZJ1nirZjm4w|52=20231226-10:24:40.836|56=cServer|57=TRADE|710=Positions|10=028|8=FIX.4.4|9=130|35=AF|34=4|49=demo.ctrader.3873996|50=38739961qRHpK_RAWhZJ1nirZjm4w|52=20231226-10:24:40.837|56=cServer|57=TRADE|584=Orders|585=7|10=215|8=FIX.4.4|9=112|35=0|34=5|49=demo.ctrader.3873996|50=38739961qRHpK_RAWhZJ1nirZjm4w|52=20231226-10:25:11.310|56=cServer|57=TRADE|10=013|8=FIX.4.4|9=112|35=0|34=6|49=demo.ctrader.3873996|50=38739961qRHpK_RAWhZJ1nirZjm4w|52=20231226-10:25:41.701|56=cServer|57=TRADE|10=021|8=FIX.4.4|9=112|35=0|34=7|49=demo.ctrader.3873996|50=38739961qRHpK_RAWhZJ1nirZjm4w|52=20231226-10:26:11.746|56=cServer|57=TRADE|10=029|