8=FIX.4.4|9=226|35=5|34=1|49=demo.ctrader.3873996|50=3873996kaLBj3yiR3kvVm-YXOOv6g|52=20231225-08:00:50.135|56=cServer|57=TRADE|49=demo.ctrader.3873996|50=3873996kaLBj3yiR3kvVm-YXOOv6g|52=20231225-08:00:50|56=cServer|553=3873996|554=Gtlfx125|10=033|