8=FIX.4.4|9=244|35=A|34=1|49=demo.ctrader.3873996|50=3873996JZAmiXtz6HPl6KrBtfowPw|52=20231219-13:33:41.162|56=cServer|57=TRADE|49=demo.ctrader.3873996|50=3873996JZAmiXtz6HPl6KrBtfowPw|52=20231219-13:33:41|56=cServer|98=0|108=30|141=Y|553=3873996|554=Gtlfx125|10=073|8=FIX.4.4|9=130|35=x|34=2|49=demo.ctrader.3873996|50=3873996JZAmiXtz6HPl6KrBtfowPw|52=20231219-13:33:41.704|56=cServer|57=TRADE|320=symbols|559=0|10=162|8=FIX.4.4|9=127|35=AN|34=3|49=demo.ctrader.3873996|50=3873996JZAmiXtz6HPl6KrBtfowPw|52=20231219-13:33:42.059|56=cServer|57=TRADE|710=Positions|10=117|8=FIX.4.4|9=130|35=AF|34=4|49=demo.ctrader.3873996|50=3873996JZAmiXtz6HPl6KrBtfowPw|52=20231219-13:33:42.059|56=cServer|57=TRADE|584=Orders|585=7|10=047|8=FIX.4.4|9=112|35=0|34=5|49=demo.ctrader.3873996|50=3873996JZAmiXtz6HPl6KrBtfowPw|52=20231219-13:34:12.491|56=cServer|57=TRADE|10=114|8=FIX.4.4|9=112|35=0|34=6|49=demo.ctrader.3873996|50=3873996JZAmiXtz6HPl6KrBtfowPw|52=20231219-13:34:42.753|56=cServer|57=TRADE|10=119|8=FIX.4.4|9=112|35=0|34=7|49=demo.ctrader.3873996|50=3873996JZAmiXtz6HPl6KrBtfowPw|52=20231219-13:35:13.079|56=cServer|57=TRADE|10=120|8=FIX.4.4|9=112|35=0|34=8|49=demo.ctrader.3873996|50=3873996JZAmiXtz6HPl6KrBtfowPw|52=20231219-13:35:43.197|56=cServer|57=TRADE|10=125|8=FIX.4.4|9=112|35=0|34=9|49=demo.ctrader.3873996|50=3873996JZAmiXtz6HPl6KrBtfowPw|52=20231219-13:36:14.201|56=cServer|57=TRADE|10=111|8=FIX.4.4|9=113|35=0|34=10|49=demo.ctrader.3873996|50=3873996JZAmiXtz6HPl6KrBtfowPw|52=20231219-13:36:44.211|56=cServer|57=TRADE|10=156|8=FIX.4.4|9=113|35=0|34=11|49=demo.ctrader.3873996|50=3873996JZAmiXtz6HPl6KrBtfowPw|52=20231219-13:37:15.218|56=cServer|57=TRADE|10=163|8=FIX.4.4|9=113|35=0|34=12|49=demo.ctrader.3873996|50=3873996JZAmiXtz6HPl6KrBtfowPw|52=20231219-13:37:45.241|56=cServer|57=TRADE|10=163|8=FIX.4.4|9=113|35=0|34=13|49=demo.ctrader.3873996|50=3873996JZAmiXtz6HPl6KrBtfowPw|52=20231219-13:38:16.224|56=cServer|57=TRADE|10=164|8=FIX.4.4|9=113|35=0|34=14|49=demo.ctrader.3873996|50=3873996JZAmiXtz6HPl6KrBtfowPw|52=20231219-13:38:46.224|56=cServer|57=TRADE|10=168|8=FIX.4.4|9=113|35=0|34=15|49=demo.ctrader.3873996|50=3873996JZAmiXtz6HPl6KrBtfowPw|52=20231219-13:39:16.228|56=cServer|57=TRADE|10=171|8=FIX.4.4|9=113|35=0|34=16|49=demo.ctrader.3873996|50=3873996JZAmiXtz6HPl6KrBtfowPw|52=20231219-13:39:47.220|56=cServer|57=TRADE|10=168|8=FIX.4.4|9=113|35=0|34=17|49=demo.ctrader.3873996|50=3873996JZAmiXtz6HPl6KrBtfowPw|52=20231219-13:40:17.223|56=cServer|57=TRADE|10=161|8=FIX.4.4|9=113|35=0|34=18|49=demo.ctrader.3873996|50=3873996JZAmiXtz6HPl6KrBtfowPw|52=20231219-13:40:47.229|56=cServer|57=TRADE|10=171|8=FIX.4.4|9=113|35=0|34=19|49=demo.ctrader.3873996|50=3873996JZAmiXtz6HPl6KrBtfowPw|52=20231219-13:41:17.235|56=cServer|57=TRADE|10=167|8=FIX.4.4|9=113|35=0|34=20|49=demo.ctrader.3873996|50=3873996JZAmiXtz6HPl6KrBtfowPw|52=20231219-13:41:48.232|56=cServer|57=TRADE|10=160|8=FIX.4.4|9=113|35=0|34=21|49=demo.ctrader.3873996|50=3873996JZAmiXtz6HPl6KrBtfowPw|52=20231219-13:42:18.241|56=cServer|57=TRADE|10=159|8=FIX.4.4|9=113|35=0|34=22|49=demo.ctrader.3873996|50=3873996JZAmiXtz6HPl6KrBtfowPw|52=20231219-13:42:48.265|56=cServer|57=TRADE|10=169|8=FIX.4.4|9=113|35=0|34=23|49=demo.ctrader.3873996|50=3873996JZAmiXtz6HPl6KrBtfowPw|52=20231219-13:43:19.238|56=cServer|57=TRADE|10=169|8=FIX.4.4|9=113|35=0|34=24|49=demo.ctrader.3873996|50=3873996JZAmiXtz6HPl6KrBtfowPw|52=20231219-13:43:50.238|56=cServer|57=TRADE|10=165|8=FIX.4.4|9=113|35=0|34=25|49=demo.ctrader.3873996|50=3873996JZAmiXtz6HPl6KrBtfowPw|52=20231219-13:44:20.276|56=cServer|57=TRADE|10=166|8=FIX.4.4|9=113|35=0|34=26|49=demo.ctrader.3873996|50=3873996JZAmiXtz6HPl6KrBtfowPw|52=20231219-13:44:51.244|56=cServer|57=TRADE|10=166|8=FIX.4.4|9=113|35=0|34=27|49=demo.ctrader.3873996|50=3873996JZAmiXtz6HPl6KrBtfowPw|52=20231219-13:45:21.259|56=cServer|57=TRADE|10=171|8=FIX.4.4|9=113|35=0|34=28|49=demo.ctrader.3873996|50=3873996JZAmiXtz6HPl6KrBtfowPw|52=20231219-13:45:51.268|56=cServer|57=TRADE|10=175|8=FIX.4.4|9=113|35=0|34=29|49=demo.ctrader.3873996|50=3873996JZAmiXtz6HPl6KrBtfowPw|52=20231219-13:46:22.246|56=cServer|57=TRADE|10=171|8=FIX.4.4|9=113|35=0|34=30|49=demo.ctrader.3873996|50=3873996JZAmiXtz6HPl6KrBtfowPw|52=20231219-13:46:52.260|56=cServer|57=TRADE|10=162|8=FIX.4.4|9=113|35=0|34=31|49=demo.ctrader.3873996|50=3873996JZAmiXtz6HPl6KrBtfowPw|52=20231219-13:47:23.272|56=cServer|57=TRADE|10=165|8=FIX.4.4|9=113|35=0|34=32|49=demo.ctrader.3873996|50=3873996JZAmiXtz6HPl6KrBtfowPw|52=20231219-13:47:53.279|56=cServer|57=TRADE|10=176|8=FIX.4.4|9=113|35=0|34=33|49=demo.ctrader.3873996|50=3873996JZAmiXtz6HPl6KrBtfowPw|52=20231219-13:48:23.281|56=cServer|57=TRADE|10=168|8=FIX.4.4|9=113|35=0|34=34|49=demo.ctrader.3873996|50=3873996JZAmiXtz6HPl6KrBtfowPw|52=20231219-13:48:54.291|56=cServer|57=TRADE|10=174|8=FIX.4.4|9=113|35=0|34=35|49=demo.ctrader.3873996|50=3873996JZAmiXtz6HPl6KrBtfowPw|52=20231219-13:49:24.300|56=cServer|57=TRADE|10=164|8=FIX.4.4|9=113|35=0|34=36|49=demo.ctrader.3873996|50=3873996JZAmiXtz6HPl6KrBtfowPw|52=20231219-13:49:55.290|56=cServer|57=TRADE|10=177|8=FIX.4.4|9=113|35=0|34=37|49=demo.ctrader.3873996|50=3873996JZAmiXtz6HPl6KrBtfowPw|52=20231219-13:50:25.296|56=cServer|57=TRADE|10=173|8=FIX.4.4|9=113|35=0|34=38|49=demo.ctrader.3873996|50=3873996JZAmiXtz6HPl6KrBtfowPw|52=20231219-13:50:56.294|56=cServer|57=TRADE|10=176|8=FIX.4.4|9=113|35=0|34=39|49=demo.ctrader.3873996|50=3873996JZAmiXtz6HPl6KrBtfowPw|52=20231219-13:51:26.300|56=cServer|57=TRADE|10=163|8=FIX.4.4|9=113|35=0|34=40|49=demo.ctrader.3873996|50=3873996JZAmiXtz6HPl6KrBtfowPw|52=20231219-13:51:57.285|56=cServer|57=TRADE|10=171|8=FIX.4.4|9=113|35=0|34=41|49=demo.ctrader.3873996|50=3873996JZAmiXtz6HPl6KrBtfowPw|52=20231219-13:52:27.291|56=cServer|57=TRADE|10=167|8=FIX.4.4|9=113|35=0|34=42|49=demo.ctrader.3873996|50=3873996JZAmiXtz6HPl6KrBtfowPw|52=20231219-13:52:57.358|56=cServer|57=TRADE|10=175|8=FIX.4.4|9=113|35=0|34=43|49=demo.ctrader.3873996|50=3873996JZAmiXtz6HPl6KrBtfowPw|52=20231219-13:53:28.301|56=cServer|57=TRADE|10=163|8=FIX.4.4|9=113|35=0|34=44|49=demo.ctrader.3873996|50=3873996JZAmiXtz6HPl6KrBtfowPw|52=20231219-13:53:58.312|56=cServer|57=TRADE|10=169|8=FIX.4.4|9=113|35=0|34=45|49=demo.ctrader.3873996|50=3873996JZAmiXtz6HPl6KrBtfowPw|52=20231219-13:54:28.318|56=cServer|57=TRADE|10=174|8=FIX.4.4|9=113|35=0|34=46|49=demo.ctrader.3873996|50=3873996JZAmiXtz6HPl6KrBtfowPw|52=20231219-13:54:58.330|56=cServer|57=TRADE|10=172|8=FIX.4.4|9=113|35=0|34=47|49=demo.ctrader.3873996|50=3873996JZAmiXtz6HPl6KrBtfowPw|52=20231219-13:55:29.318|56=cServer|57=TRADE|10=178|8=FIX.4.4|9=113|35=0|34=48|49=demo.ctrader.3873996|50=3873996JZAmiXtz6HPl6KrBtfowPw|52=20231219-13:56:00.307|56=cServer|57=TRADE|10=167|8=FIX.4.4|9=113|35=0|34=49|49=demo.ctrader.3873996|50=3873996JZAmiXtz6HPl6KrBtfowPw|52=20231219-13:56:30.311|56=cServer|57=TRADE|10=166|8=FIX.4.4|9=113|35=0|34=50|49=demo.ctrader.3873996|50=3873996JZAmiXtz6HPl6KrBtfowPw|52=20231219-13:57:01.304|56=cServer|57=TRADE|10=159|8=FIX.4.4|9=113|35=0|34=51|49=demo.ctrader.3873996|50=3873996JZAmiXtz6HPl6KrBtfowPw|52=20231219-13:57:31.343|56=cServer|57=TRADE|10=166|8=FIX.4.4|9=113|35=0|34=52|49=demo.ctrader.3873996|50=3873996JZAmiXtz6HPl6KrBtfowPw|52=20231219-13:58:02.345|56=cServer|57=TRADE|10=168|8=FIX.4.4|9=113|35=0|34=53|49=demo.ctrader.3873996|50=3873996JZAmiXtz6HPl6KrBtfowPw|52=20231219-13:58:32.389|56=cServer|57=TRADE|10=180|8=FIX.4.4|9=113|35=0|34=54|49=demo.ctrader.3873996|50=3873996JZAmiXtz6HPl6KrBtfowPw|52=20231219-13:59:03.335|56=cServer|57=TRADE|10=171|8=FIX.4.4|9=113|35=0|34=55|49=demo.ctrader.3873996|50=3873996JZAmiXtz6HPl6KrBtfowPw|52=20231219-13:59:33.376|56=cServer|57=TRADE|10=180|8=FIX.4.4|9=113|35=0|34=56|49=demo.ctrader.3873996|50=3873996JZAmiXtz6HPl6KrBtfowPw|52=20231219-14:00:04.342|56=cServer|57=TRADE|10=159|8=FIX.4.4|9=113|35=0|34=57|49=demo.ctrader.3873996|50=3873996JZAmiXtz6HPl6KrBtfowPw|52=20231219-14:00:35.353|56=cServer|57=TRADE|10=166|8=FIX.4.4|9=113|35=0|34=58|49=demo.ctrader.3873996|50=3873996JZAmiXtz6HPl6KrBtfowPw|52=20231219-14:01:06.348|56=cServer|57=TRADE|10=170|8=FIX.4.4|9=113|35=0|34=59|49=demo.ctrader.3873996|50=3873996JZAmiXtz6HPl6KrBtfowPw|52=20231219-14:01:36.378|56=cServer|57=TRADE|10=177|8=FIX.4.4|9=113|35=0|34=60|49=demo.ctrader.3873996|50=3873996JZAmiXtz6HPl6KrBtfowPw|52=20231219-14:02:07.385|56=cServer|57=TRADE|10=166|8=FIX.4.4|9=113|35=0|34=61|49=demo.ctrader.3873996|50=3873996JZAmiXtz6HPl6KrBtfowPw|52=20231219-14:02:38.383|56=cServer|57=TRADE|10=169|8=FIX.4.4|9=113|35=0|34=62|49=demo.ctrader.3873996|50=3873996JZAmiXtz6HPl6KrBtfowPw|52=20231219-14:03:08.391|56=cServer|57=TRADE|10=167|8=FIX.4.4|9=113|35=0|34=63|49=demo.ctrader.3873996|50=3873996JZAmiXtz6HPl6KrBtfowPw|52=20231219-14:03:39.383|56=cServer|57=TRADE|10=173|8=FIX.4.4|9=113|35=0|34=64|49=demo.ctrader.3873996|50=3873996JZAmiXtz6HPl6KrBtfowPw|52=20231219-14:04:09.388|56=cServer|57=TRADE|10=177|8=FIX.4.4|9=113|35=0|34=65|49=demo.ctrader.3873996|50=3873996JZAmiXtz6HPl6KrBtfowPw|52=20231219-14:04:39.401|56=cServer|57=TRADE|10=167|8=FIX.4.4|9=113|35=0|34=66|49=demo.ctrader.3873996|50=3873996JZAmiXtz6HPl6KrBtfowPw|52=20231219-14:05:09.403|56=cServer|57=TRADE|10=168|8=FIX.4.4|9=113|35=0|34=67|49=demo.ctrader.3873996|50=3873996JZAmiXtz6HPl6KrBtfowPw|52=20231219-14:05:39.423|56=cServer|57=TRADE|10=174|8=FIX.4.4|9=113|35=0|34=68|49=demo.ctrader.3873996|50=3873996JZAmiXtz6HPl6KrBtfowPw|52=20231219-14:06:10.398|56=cServer|57=TRADE|10=176|8=FIX.4.4|9=113|35=0|34=69|49=demo.ctrader.3873996|50=3873996JZAmiXtz6HPl6KrBtfowPw|52=20231219-14:06:41.397|56=cServer|57=TRADE|10=180|8=FIX.4.4|9=113|35=0|34=70|49=demo.ctrader.3873996|50=3873996JZAmiXtz6HPl6KrBtfowPw|52=20231219-14:07:11.413|56=cServer|57=TRADE|10=159|8=FIX.4.4|9=113|35=0|34=71|49=demo.ctrader.3873996|50=3873996JZAmiXtz6HPl6KrBtfowPw|52=20231219-14:07:41.419|56=cServer|57=TRADE|10=169|8=FIX.4.4|9=113|35=0|34=72|49=demo.ctrader.3873996|50=3873996JZAmiXtz6HPl6KrBtfowPw|52=20231219-14:08:12.401|56=cServer|57=TRADE|10=160|8=FIX.4.4|9=113|35=0|34=73|49=demo.ctrader.3873996|50=3873996JZAmiXtz6HPl6KrBtfowPw|52=20231219-14:08:42.702|56=cServer|57=TRADE|10=168|8=FIX.4.4|9=113|35=0|34=74|49=demo.ctrader.3873996|50=3873996JZAmiXtz6HPl6KrBtfowPw|52=20231219-14:09:13.196|56=cServer|57=TRADE|10=175|8=FIX.4.4|9=113|35=0|34=75|49=demo.ctrader.3873996|50=3873996JZAmiXtz6HPl6KrBtfowPw|52=20231219-14:09:43.202|56=cServer|57=TRADE|10=167|8=FIX.4.4|9=113|35=0|34=76|49=demo.ctrader.3873996|50=3873996JZAmiXtz6HPl6KrBtfowPw|52=20231219-14:10:14.210|56=cServer|57=TRADE|10=157|8=FIX.4.4|9=113|35=0|34=77|49=demo.ctrader.3873996|50=3873996JZAmiXtz6HPl6KrBtfowPw|52=20231219-14:10:44.244|56=cServer|57=TRADE|10=168|8=FIX.4.4|9=113|35=0|34=78|49=demo.ctrader.3873996|50=3873996JZAmiXtz6HPl6KrBtfowPw|52=20231219-14:11:15.212|56=cServer|57=TRADE|10=163|8=FIX.4.4|9=113|35=0|34=79|49=demo.ctrader.3873996|50=3873996JZAmiXtz6HPl6KrBtfowPw|52=20231219-14:11:46.247|56=cServer|57=TRADE|10=176|8=FIX.4.4|9=113|35=0|34=80|49=demo.ctrader.3873996|50=3873996JZAmiXtz6HPl6KrBtfowPw|52=20231219-14:12:17.233|56=cServer|57=TRADE|10=162|8=FIX.4.4|9=113|35=0|34=81|49=demo.ctrader.3873996|50=3873996JZAmiXtz6HPl6KrBtfowPw|52=20231219-14:12:47.240|56=cServer|57=TRADE|10=164|8=FIX.4.4|9=113|35=0|34=82|49=demo.ctrader.3873996|50=3873996JZAmiXtz6HPl6KrBtfowPw|52=20231219-14:13:18.234|56=cServer|57=TRADE|10=167|8=FIX.4.4|9=113|35=0|34=83|49=demo.ctrader.3873996|50=3873996JZAmiXtz6HPl6KrBtfowPw|52=20231219-14:13:49.241|56=cServer|57=TRADE|10=170|8=FIX.4.4|9=113|35=0|34=84|49=demo.ctrader.3873996|50=3873996JZAmiXtz6HPl6KrBtfowPw|52=20231219-14:14:20.245|56=cServer|57=TRADE|10=165|8=FIX.4.4|9=113|35=0|34=85|49=demo.ctrader.3873996|50=3873996JZAmiXtz6HPl6KrBtfowPw|52=20231219-14:14:50.261|56=cServer|57=TRADE|10=167|8=FIX.4.4|9=113|35=0|34=86|49=demo.ctrader.3873996|50=3873996JZAmiXtz6HPl6KrBtfowPw|52=20231219-14:15:21.244|56=cServer|57=TRADE|10=168|8=FIX.4.4|9=113|35=0|34=87|49=demo.ctrader.3873996|50=3873996JZAmiXtz6HPl6KrBtfowPw|52=20231219-14:15:51.562|56=cServer|57=TRADE|10=175|8=FIX.4.4|9=113|35=0|34=88|49=demo.ctrader.3873996|50=3873996JZAmiXtz6HPl6KrBtfowPw|52=20231219-14:16:22.246|56=cServer|57=TRADE|10=174|8=FIX.4.4|9=113|35=0|34=89|49=demo.ctrader.3873996|50=3873996JZAmiXtz6HPl6KrBtfowPw|52=20231219-14:16:53.243|56=cServer|57=TRADE|10=176|8=FIX.4.4|9=113|35=0|34=90|49=demo.ctrader.3873996|50=3873996JZAmiXtz6HPl6KrBtfowPw|52=20231219-14:17:23.267|56=cServer|57=TRADE|10=172|8=FIX.4.4|9=113|35=0|34=91|49=demo.ctrader.3873996|50=3873996JZAmiXtz6HPl6KrBtfowPw|52=20231219-14:17:54.269|56=cServer|57=TRADE|10=179|8=FIX.4.4|9=113|35=0|34=92|49=demo.ctrader.3873996|50=3873996JZAmiXtz6HPl6KrBtfowPw|52=20231219-14:18:25.261|56=cServer|57=TRADE|10=171|8=FIX.4.4|9=113|35=0|34=93|49=demo.ctrader.3873996|50=3873996JZAmiXtz6HPl6KrBtfowPw|52=20231219-14:18:55.329|56=cServer|57=TRADE|10=180|8=FIX.4.4|9=113|35=0|34=94|49=demo.ctrader.3873996|50=3873996JZAmiXtz6HPl6KrBtfowPw|52=20231219-14:19:25.342|56=cServer|57=TRADE|10=174|8=FIX.4.4|9=113|35=0|34=95|49=demo.ctrader.3873996|50=3873996JZAmiXtz6HPl6KrBtfowPw|52=20231219-14:19:56.299|56=cServer|57=TRADE|10=190|8=FIX.4.4|9=113|35=0|34=96|49=demo.ctrader.3873996|50=3873996JZAmiXtz6HPl6KrBtfowPw|52=20231219-14:20:26.301|56=cServer|57=TRADE|10=164|8=FIX.4.4|9=113|35=0|34=97|49=demo.ctrader.3873996|50=3873996JZAmiXtz6HPl6KrBtfowPw|52=20231219-14:20:57.282|56=cServer|57=TRADE|10=177|8=FIX.4.4|9=113|35=0|34=98|49=demo.ctrader.3873996|50=3873996JZAmiXtz6HPl6KrBtfowPw|52=20231219-14:21:27.305|56=cServer|57=TRADE|10=172|8=FIX.4.4|9=113|35=0|34=99|49=demo.ctrader.3873996|50=3873996JZAmiXtz6HPl6KrBtfowPw|52=20231219-14:21:57.333|56=cServer|57=TRADE|10=177|8=FIX.4.4|9=114|35=0|34=100|49=demo.ctrader.3873996|50=3873996JZAmiXtz6HPl6KrBtfowPw|52=20231219-14:22:27.376|56=cServer|57=TRADE|10=214|8=FIX.4.4|9=114|35=0|34=101|49=demo.ctrader.3873996|50=3873996JZAmiXtz6HPl6KrBtfowPw|52=20231219-14:22:58.306|56=cServer|57=TRADE|10=212|8=FIX.4.4|9=114|35=0|34=102|49=demo.ctrader.3873996|50=3873996JZAmiXtz6HPl6KrBtfowPw|52=20231219-14:23:28.836|56=cServer|57=TRADE|10=219|8=FIX.4.4|9=114|35=0|34=103|49=demo.ctrader.3873996|50=3873996JZAmiXtz6HPl6KrBtfowPw|52=20231219-14:23:59.313|56=cServer|57=TRADE|10=214|8=FIX.4.4|9=114|35=0|34=104|49=demo.ctrader.3873996|50=3873996JZAmiXtz6HPl6KrBtfowPw|52=20231219-14:24:29.331|56=cServer|57=TRADE|10=213|8=FIX.4.4|9=114|35=0|34=105|49=demo.ctrader.3873996|50=3873996JZAmiXtz6HPl6KrBtfowPw|52=20231219-14:25:00.340|56=cServer|57=TRADE|10=204|8=FIX.4.4|9=114|35=0|34=106|49=demo.ctrader.3873996|50=3873996JZAmiXtz6HPl6KrBtfowPw|52=20231219-14:25:30.349|56=cServer|57=TRADE|10=217|8=FIX.4.4|9=114|35=0|34=107|49=demo.ctrader.3873996|50=3873996JZAmiXtz6HPl6KrBtfowPw|52=20231219-14:26:01.327|56=cServer|57=TRADE|10=213|8=FIX.4.4|9=114|35=0|34=108|49=demo.ctrader.3873996|50=3873996JZAmiXtz6HPl6KrBtfowPw|52=20231219-14:26:31.358|56=cServer|57=TRADE|10=221|8=FIX.4.4|9=114|35=0|34=109|49=demo.ctrader.3873996|50=3873996JZAmiXtz6HPl6KrBtfowPw|52=20231219-14:27:02.350|56=cServer|57=TRADE|10=213|8=FIX.4.4|9=114|35=0|34=110|49=demo.ctrader.3873996|50=3873996JZAmiXtz6HPl6KrBtfowPw|52=20231219-14:27:33.387|56=cServer|57=TRADE|10=219|8=FIX.4.4|9=114|35=0|34=111|49=demo.ctrader.3873996|50=3873996JZAmiXtz6HPl6KrBtfowPw|52=20231219-14:28:04.353|56=cServer|57=TRADE|10=212|8=FIX.4.4|9=114|35=0|34=112|49=demo.ctrader.3873996|50=3873996JZAmiXtz6HPl6KrBtfowPw|52=20231219-14:28:35.340|56=cServer|57=TRADE|10=213|8=FIX.4.4|9=114|35=0|34=113|49=demo.ctrader.3873996|50=3873996JZAmiXtz6HPl6KrBtfowPw|52=20231219-14:29:05.349|56=cServer|57=TRADE|10=221|8=FIX.4.4|9=114|35=0|34=114|49=demo.ctrader.3873996|50=3873996JZAmiXtz6HPl6KrBtfowPw|52=20231219-14:29:36.324|56=cServer|57=TRADE|10=219|8=FIX.4.4|9=114|35=0|34=115|49=demo.ctrader.3873996|50=3873996JZAmiXtz6HPl6KrBtfowPw|52=20231219-14:30:06.370|56=cServer|57=TRADE|10=210|8=FIX.4.4|9=114|35=0|34=116|49=demo.ctrader.3873996|50=3873996JZAmiXtz6HPl6KrBtfowPw|52=20231219-14:30:36.435|56=cServer|57=TRADE|10=216|8=FIX.4.4|9=114|35=0|34=117|49=demo.ctrader.3873996|50=3873996JZAmiXtz6HPl6KrBtfowPw|52=20231219-14:31:06.488|56=cServer|57=TRADE|10=223|8=FIX.4.4|9=114|35=0|34=118|49=demo.ctrader.3873996|50=3873996JZAmiXtz6HPl6KrBtfowPw|52=20231219-14:31:37.421|56=cServer|57=TRADE|10=215|