8=FIX.4.4|9=244|35=A|34=1|49=demo.ctrader.3873996|50=3873996HDLZStHLB1gD96W67UR92g|52=20240104-09:51:23.292|56=cServer|57=QUOTE|49=demo.ctrader.3873996|50=3873996HDLZStHLB1gD96W67UR92g|52=20240104-09:51:23|56=cServer|98=0|108=30|141=Y|553=3873996|554=Gtlfx125|10=039|8=FIX.4.4|9=170|35=V|34=2|49=demo.ctrader.3873996|50=3873996HDLZStHLB1gD96W67UR92g|52=20240104-09:51:24.265|56=cServer|57=QUOTE|262=MARKETDATAID|263=1|264=1|267=2|269=0|269=1|146=1|55=1|10=127|8=FIX.4.4|9=170|35=V|34=3|49=demo.ctrader.3873996|50=3873996HDLZStHLB1gD96W67UR92g|52=20240104-09:51:24.266|56=cServer|57=QUOTE|262=MARKETDATAID|263=1|264=1|267=2|269=0|269=1|146=1|55=2|10=130|8=FIX.4.4|9=170|35=V|34=4|49=demo.ctrader.3873996|50=3873996HDLZStHLB1gD96W67UR92g|52=20240104-09:51:24.267|56=cServer|57=QUOTE|262=MARKETDATAID|263=1|264=1|267=2|269=0|269=1|146=1|55=3|10=133|8=FIX.4.4|9=170|35=V|34=5|49=demo.ctrader.3873996|50=3873996HDLZStHLB1gD96W67UR92g|52=20240104-09:51:24.267|56=cServer|57=QUOTE|262=MARKETDATAID|263=1|264=1|267=2|269=0|269=1|146=1|55=4|10=135|8=FIX.4.4|9=170|35=V|34=6|49=demo.ctrader.3873996|50=3873996HDLZStHLB1gD96W67UR92g|52=20240104-09:51:24.267|56=cServer|57=QUOTE|262=MARKETDATAID|263=1|264=1|267=2|269=0|269=1|146=1|55=5|10=137|8=FIX.4.4|9=170|35=V|34=7|49=demo.ctrader.3873996|50=3873996HDLZStHLB1gD96W67UR92g|52=20240104-09:51:24.267|56=cServer|57=QUOTE|262=MARKETDATAID|263=1|264=1|267=2|269=0|269=1|146=1|55=6|10=139|8=FIX.4.4|9=170|35=V|34=8|49=demo.ctrader.3873996|50=3873996HDLZStHLB1gD96W67UR92g|52=20240104-09:51:24.267|56=cServer|57=QUOTE|262=MARKETDATAID|263=1|264=1|267=2|269=0|269=1|146=1|55=7|10=141|8=FIX.4.4|9=170|35=V|34=9|49=demo.ctrader.3873996|50=3873996HDLZStHLB1gD96W67UR92g|52=20240104-09:51:24.267|56=cServer|57=QUOTE|262=MARKETDATAID|263=1|264=1|267=2|269=0|269=1|146=1|55=8|10=143|8=FIX.4.4|9=171|35=V|34=10|49=demo.ctrader.3873996|50=3873996HDLZStHLB1gD96W67UR92g|52=20240104-09:51:24.268|56=cServer|57=QUOTE|262=MARKETDATAID|263=1|264=1|267=2|269=0|269=1|146=1|55=9|10=186|8=FIX.4.4|9=172|35=V|34=11|49=demo.ctrader.3873996|50=3873996HDLZStHLB1gD96W67UR92g|52=20240104-09:51:24.268|56=cServer|57=QUOTE|262=MARKETDATAID|263=1|264=1|267=2|269=0|269=1|146=1|55=10|10=228|8=FIX.4.4|9=172|35=V|34=12|49=demo.ctrader.3873996|50=3873996HDLZStHLB1gD96W67UR92g|52=20240104-09:51:24.268|56=cServer|57=QUOTE|262=MARKETDATAID|263=1|264=1|267=2|269=0|269=1|146=1|55=11|10=230|8=FIX.4.4|9=172|35=V|34=13|49=demo.ctrader.3873996|50=3873996HDLZStHLB1gD96W67UR92g|52=20240104-09:51:24.268|56=cServer|57=QUOTE|262=MARKETDATAID|263=1|264=1|267=2|269=0|269=1|146=1|55=12|10=232|8=FIX.4.4|9=172|35=V|34=14|49=demo.ctrader.3873996|50=3873996HDLZStHLB1gD96W67UR92g|52=20240104-09:51:24.268|56=cServer|57=QUOTE|262=MARKETDATAID|263=1|264=1|267=2|269=0|269=1|146=1|55=13|10=234|8=FIX.4.4|9=172|35=V|34=15|49=demo.ctrader.3873996|50=3873996HDLZStHLB1gD96W67UR92g|52=20240104-09:51:24.268|56=cServer|57=QUOTE|262=MARKETDATAID|263=1|264=1|267=2|269=0|269=1|146=1|55=14|10=236|8=FIX.4.4|9=172|35=V|34=16|49=demo.ctrader.3873996|50=3873996HDLZStHLB1gD96W67UR92g|52=20240104-09:51:24.269|56=cServer|57=QUOTE|262=MARKETDATAID|263=1|264=1|267=2|269=0|269=1|146=1|55=15|10=239|8=FIX.4.4|9=172|35=V|34=17|49=demo.ctrader.3873996|50=3873996HDLZStHLB1gD96W67UR92g|52=20240104-09:51:24.269|56=cServer|57=QUOTE|262=MARKETDATAID|263=1|264=1|267=2|269=0|269=1|146=1|55=16|10=241|8=FIX.4.4|9=172|35=V|34=18|49=demo.ctrader.3873996|50=3873996HDLZStHLB1gD96W67UR92g|52=20240104-09:51:24.269|56=cServer|57=QUOTE|262=MARKETDATAID|263=1|264=1|267=2|269=0|269=1|146=1|55=17|10=243|8=FIX.4.4|9=172|35=V|34=19|49=demo.ctrader.3873996|50=3873996HDLZStHLB1gD96W67UR92g|52=20240104-09:51:24.269|56=cServer|57=QUOTE|262=MARKETDATAID|263=1|264=1|267=2|269=0|269=1|146=1|55=18|10=245|8=FIX.4.4|9=172|35=V|34=20|49=demo.ctrader.3873996|50=3873996HDLZStHLB1gD96W67UR92g|52=20240104-09:51:24.269|56=cServer|57=QUOTE|262=MARKETDATAID|263=1|264=1|267=2|269=0|269=1|146=1|55=19|10=238|8=FIX.4.4|9=172|35=V|34=21|49=demo.ctrader.3873996|50=3873996HDLZStHLB1gD96W67UR92g|52=20240104-09:51:24.269|56=cServer|57=QUOTE|262=MARKETDATAID|263=1|264=1|267=2|269=0|269=1|146=1|55=22|10=233|8=FIX.4.4|9=113|35=0|34=22|49=demo.ctrader.3873996|50=3873996HDLZStHLB1gD96W67UR92g|52=20240104-09:51:54.285|56=cServer|57=QUOTE|10=036|8=FIX.4.4|9=113|35=0|34=23|49=demo.ctrader.3873996|50=3873996HDLZStHLB1gD96W67UR92g|52=20240104-09:52:24.289|56=cServer|57=QUOTE|10=039|8=FIX.4.4|9=113|35=0|34=24|49=demo.ctrader.3873996|50=3873996HDLZStHLB1gD96W67UR92g|52=20240104-09:52:54.308|56=cServer|57=QUOTE|10=035|8=FIX.4.4|9=113|35=0|34=25|49=demo.ctrader.3873996|50=3873996HDLZStHLB1gD96W67UR92g|52=20240104-09:53:24.355|56=cServer|57=QUOTE|10=036|8=FIX.4.4|9=113|35=0|34=26|49=demo.ctrader.3873996|50=3873996HDLZStHLB1gD96W67UR92g|52=20240104-09:53:54.383|56=cServer|57=QUOTE|10=041|8=FIX.4.4|9=113|35=0|34=27|49=demo.ctrader.3873996|50=3873996HDLZStHLB1gD96W67UR92g|52=20240104-09:54:24.393|56=cServer|57=QUOTE|10=041|8=FIX.4.4|9=113|35=0|34=28|49=demo.ctrader.3873996|50=3873996HDLZStHLB1gD96W67UR92g|52=20240104-09:54:54.413|56=cServer|57=QUOTE|10=038|8=FIX.4.4|9=113|35=0|34=29|49=demo.ctrader.3873996|50=3873996HDLZStHLB1gD96W67UR92g|52=20240104-09:55:24.413|56=cServer|57=QUOTE|10=037|8=FIX.4.4|9=113|35=0|34=30|49=demo.ctrader.3873996|50=3873996HDLZStHLB1gD96W67UR92g|52=20240104-09:55:54.440|56=cServer|57=QUOTE|10=032|8=FIX.4.4|9=113|35=0|34=31|49=demo.ctrader.3873996|50=3873996HDLZStHLB1gD96W67UR92g|52=20240104-09:56:24.530|56=cServer|57=QUOTE|10=031|8=FIX.4.4|9=113|35=0|34=32|49=demo.ctrader.3873996|50=3873996HDLZStHLB1gD96W67UR92g|52=20240104-09:56:54.640|56=cServer|57=QUOTE|10=037|8=FIX.4.4|9=113|35=0|34=33|49=demo.ctrader.3873996|50=3873996HDLZStHLB1gD96W67UR92g|52=20240104-09:57:24.674|56=cServer|57=QUOTE|10=043|8=FIX.4.4|9=113|35=0|34=34|49=demo.ctrader.3873996|50=3873996HDLZStHLB1gD96W67UR92g|52=20240104-09:57:54.703|56=cServer|57=QUOTE|10=040|8=FIX.4.4|9=113|35=0|34=35|49=demo.ctrader.3873996|50=3873996HDLZStHLB1gD96W67UR92g|52=20240104-09:58:24.739|56=cServer|57=QUOTE|10=048|8=FIX.4.4|9=113|35=0|34=36|49=demo.ctrader.3873996|50=3873996HDLZStHLB1gD96W67UR92g|52=20240104-09:58:54.849|56=cServer|57=QUOTE|10=054|8=FIX.4.4|9=113|35=0|34=37|49=demo.ctrader.3873996|50=3873996HDLZStHLB1gD96W67UR92g|52=20240104-09:59:25.163|56=cServer|57=QUOTE|10=043|8=FIX.4.4|9=113|35=0|34=38|49=demo.ctrader.3873996|50=3873996HDLZStHLB1gD96W67UR92g|52=20240104-09:59:55.197|56=cServer|57=QUOTE|10=054|8=FIX.4.4|9=113|35=0|34=39|49=demo.ctrader.3873996|50=3873996HDLZStHLB1gD96W67UR92g|52=20240104-10:00:25.243|56=cServer|57=QUOTE|10=022|8=FIX.4.4|9=113|35=0|34=40|49=demo.ctrader.3873996|50=3873996HDLZStHLB1gD96W67UR92g|52=20240104-10:00:55.310|56=cServer|57=QUOTE|10=012|8=FIX.4.4|9=113|35=0|34=41|49=demo.ctrader.3873996|50=3873996HDLZStHLB1gD96W67UR92g|52=20240104-10:01:25.324|56=cServer|57=QUOTE|10=016|8=FIX.4.4|9=113|35=0|34=42|49=demo.ctrader.3873996|50=3873996HDLZStHLB1gD96W67UR92g|52=20240104-10:01:55.325|56=cServer|57=QUOTE|10=021|8=FIX.4.4|9=113|35=0|34=43|49=demo.ctrader.3873996|50=3873996HDLZStHLB1gD96W67UR92g|52=20240104-10:02:25.410|56=cServer|57=QUOTE|10=015|8=FIX.4.4|9=113|35=0|34=44|49=demo.ctrader.3873996|50=3873996HDLZStHLB1gD96W67UR92g|52=20240104-10:02:55.454|56=cServer|57=QUOTE|10=027|8=FIX.4.4|9=113|35=0|34=45|49=demo.ctrader.3873996|50=3873996HDLZStHLB1gD96W67UR92g|52=20240104-10:03:25.497|56=cServer|57=QUOTE|10=033|8=FIX.4.4|9=113|35=0|34=46|49=demo.ctrader.3873996|50=3873996HDLZStHLB1gD96W67UR92g|52=20240104-10:03:55.510|56=cServer|57=QUOTE|10=023|8=FIX.4.4|9=113|35=0|34=47|49=demo.ctrader.3873996|50=3873996HDLZStHLB1gD96W67UR92g|52=20240104-10:04:25.550|56=cServer|57=QUOTE|10=026|8=FIX.4.4|9=113|35=0|34=48|49=demo.ctrader.3873996|50=3873996HDLZStHLB1gD96W67UR92g|52=20240104-10:04:55.611|56=cServer|57=QUOTE|10=028|8=FIX.4.4|9=113|35=0|34=49|49=demo.ctrader.3873996|50=3873996HDLZStHLB1gD96W67UR92g|52=20240104-10:05:26.015|56=cServer|57=QUOTE|10=026|8=FIX.4.4|9=113|35=0|34=50|49=demo.ctrader.3873996|50=3873996HDLZStHLB1gD96W67UR92g|52=20240104-10:05:56.015|56=cServer|57=QUOTE|10=021|8=FIX.4.4|9=113|35=0|34=51|49=demo.ctrader.3873996|50=3873996HDLZStHLB1gD96W67UR92g|52=20240104-10:06:26.077|56=cServer|57=QUOTE|10=028|