8=FIX.4.4|9=244|35=A|34=1|49=demo.ctrader.3873996|50=3873996uRuttjde2P91BWzlxjhQVg|52=20240104-08:05:07.498|56=cServer|57=TRADE|49=demo.ctrader.3873996|50=3873996uRuttjde2P91BWzlxjhQVg|52=20240104-08:05:07|56=cServer|98=0|108=30|141=Y|553=3873996|554=Gtlfx125|10=151|8=FIX.4.4|9=130|35=x|34=2|49=demo.ctrader.3873996|50=3873996uRuttjde2P91BWzlxjhQVg|52=20240104-08:05:08.136|56=cServer|57=TRADE|320=symbols|559=0|10=195|8=FIX.4.4|9=127|35=AN|34=3|49=demo.ctrader.3873996|50=3873996uRuttjde2P91BWzlxjhQVg|52=20240104-08:05:08.398|56=cServer|57=TRADE|710=Positions|10=156|8=FIX.4.4|9=130|35=AF|34=4|49=demo.ctrader.3873996|50=3873996uRuttjde2P91BWzlxjhQVg|52=20240104-08:05:08.399|56=cServer|57=TRADE|584=Orders|585=7|10=087|8=FIX.4.4|9=177|35=D|34=5|49=demo.ctrader.3873996|50=3873996uRuttjde2P91BWzlxjhQVg|52=20240104-08:05:35.519|56=cServer|57=TRADE|11=68421324|38=1000|40=1|54=1|55=2|59=3|60=20240104-13:05:35.518|10=144|8=FIX.4.4|9=127|35=AN|34=6|49=demo.ctrader.3873996|50=3873996uRuttjde2P91BWzlxjhQVg|52=20240104-08:06:02.017|56=cServer|57=TRADE|710=Positions|10=142|8=FIX.4.4|9=112|35=0|34=7|49=demo.ctrader.3873996|50=3873996uRuttjde2P91BWzlxjhQVg|52=20240104-08:06:32.485|56=cServer|57=TRADE|10=152|8=FIX.4.4|9=112|35=0|34=8|49=demo.ctrader.3873996|50=3873996uRuttjde2P91BWzlxjhQVg|52=20240104-08:07:02.752|56=cServer|57=TRADE|10=148|8=FIX.4.4|9=112|35=0|34=9|49=demo.ctrader.3873996|50=3873996uRuttjde2P91BWzlxjhQVg|52=20240104-08:07:32.957|56=cServer|57=TRADE|10=159|8=FIX.4.4|9=113|35=0|34=10|49=demo.ctrader.3873996|50=3873996uRuttjde2P91BWzlxjhQVg|52=20240104-08:08:03.963|56=cServer|57=TRADE|10=196|8=FIX.4.4|9=113|35=0|34=11|49=demo.ctrader.3873996|50=3873996uRuttjde2P91BWzlxjhQVg|52=20240104-08:08:33.964|56=cServer|57=TRADE|10=201|8=FIX.4.4|9=178|35=D|34=12|49=demo.ctrader.3873996|50=3873996uRuttjde2P91BWzlxjhQVg|52=20240104-08:08:34.920|56=cServer|57=TRADE|11=68421325|38=1000|40=1|54=1|55=2|59=3|60=20240104-13:08:34.920|10=189|8=FIX.4.4|9=113|35=0|34=13|49=demo.ctrader.3873996|50=3873996uRuttjde2P91BWzlxjhQVg|52=20240104-08:09:05.527|56=cServer|57=TRADE|10=198|8=FIX.4.4|9=113|35=0|34=14|49=demo.ctrader.3873996|50=3873996uRuttjde2P91BWzlxjhQVg|52=20240104-08:09:35.788|56=cServer|57=TRADE|10=211|8=FIX.4.4|9=178|35=D|34=15|49=demo.ctrader.3873996|50=3873996uRuttjde2P91BWzlxjhQVg|52=20240104-08:09:45.923|56=cServer|57=TRADE|11=68421326|38=1000|40=1|54=1|55=2|59=3|60=20240104-13:09:45.923|10=205|8=FIX.4.4|9=113|35=0|34=16|49=demo.ctrader.3873996|50=3873996uRuttjde2P91BWzlxjhQVg|52=20240104-08:10:16.620|56=cServer|57=TRADE|10=189|8=FIX.4.4|9=113|35=0|34=17|49=demo.ctrader.3873996|50=3873996uRuttjde2P91BWzlxjhQVg|52=20240104-08:10:46.808|56=cServer|57=TRADE|10=201|8=FIX.4.4|9=178|35=D|34=18|49=demo.ctrader.3873996|50=3873996uRuttjde2P91BWzlxjhQVg|52=20240104-08:10:48.919|56=cServer|57=TRADE|11=68421327|38=1000|40=1|54=1|55=2|59=3|60=20240104-13:10:48.919|10=209|8=FIX.4.4|9=113|35=0|34=19|49=demo.ctrader.3873996|50=3873996uRuttjde2P91BWzlxjhQVg|52=20240104-08:11:19.623|56=cServer|57=TRADE|10=199|8=FIX.4.4|9=227|35=5|34=20|49=demo.ctrader.3873996|50=3873996uRuttjde2P91BWzlxjhQVg|52=20240104-08:11:44.340|56=cServer|57=TRADE|49=demo.ctrader.3873996|50=3873996uRuttjde2P91BWzlxjhQVg|52=20240104-08:11:44|56=cServer|553=3873996|554=Gtlfx125|10=101|8=FIX.4.4|9=227|35=5|34=21|49=demo.ctrader.3873996|50=3873996uRuttjde2P91BWzlxjhQVg|52=20240104-08:11:44.390|56=cServer|57=TRADE|49=demo.ctrader.3873996|50=3873996uRuttjde2P91BWzlxjhQVg|52=20240104-08:11:44|56=cServer|553=3873996|554=Gtlfx125|10=107|