8=FIX.4.4|9=244|35=A|34=1|49=demo.ctrader.3873996|50=3873996ab7pLX_qz8ByNCzmJO_noA|52=20231212-07:23:58.294|56=cServer|57=TRADE|49=demo.ctrader.3873996|50=3873996ab7pLX_qz8ByNCzmJO_noA|52=20231212-07:23:58|56=cServer|98=0|108=30|141=Y|553=3873996|554=Gtlfx125|10=025|8=FIX.4.4|9=130|35=x|34=2|49=demo.ctrader.3873996|50=3873996ab7pLX_qz8ByNCzmJO_noA|52=20231212-07:24:08.917|56=cServer|57=TRADE|320=symbols|559=0|10=137|8=FIX.4.4|9=127|35=AN|34=3|49=demo.ctrader.3873996|50=3873996ab7pLX_qz8ByNCzmJO_noA|52=20231212-07:24:10.533|56=cServer|57=TRADE|710=Positions|10=075|8=FIX.4.4|9=130|35=AF|34=4|49=demo.ctrader.3873996|50=3873996ab7pLX_qz8ByNCzmJO_noA|52=20231212-07:24:10.534|56=cServer|57=TRADE|584=Orders|585=7|10=006|8=FIX.4.4|9=112|35=0|34=5|49=demo.ctrader.3873996|50=3873996ab7pLX_qz8ByNCzmJO_noA|52=20231212-07:24:40.901|56=cServer|57=TRADE|10=076|8=FIX.4.4|9=112|35=0|34=6|49=demo.ctrader.3873996|50=3873996ab7pLX_qz8ByNCzmJO_noA|52=20231212-07:25:11.207|56=cServer|57=TRADE|10=075|