8=FIX.4.4|9=244|35=A|34=1|49=demo.ctrader.3873996|50=3873996m7M-7Zv89SGM2sgQqjcKzQ|52=20240104-08:20:45.461|56=cServer|57=TRADE|49=demo.ctrader.3873996|50=3873996m7M-7Zv89SGM2sgQqjcKzQ|52=20240104-08:20:45|56=cServer|98=0|108=30|141=Y|553=3873996|554=Gtlfx125|10=179|8=FIX.4.4|9=130|35=x|34=2|49=demo.ctrader.3873996|50=3873996m7M-7Zv89SGM2sgQqjcKzQ|52=20240104-08:20:46.179|56=cServer|57=TRADE|320=symbols|559=0|10=221|8=FIX.4.4|9=127|35=AN|34=3|49=demo.ctrader.3873996|50=3873996m7M-7Zv89SGM2sgQqjcKzQ|52=20240104-08:20:46.508|56=cServer|57=TRADE|710=Positions|10=168|8=FIX.4.4|9=130|35=AF|34=4|49=demo.ctrader.3873996|50=3873996m7M-7Zv89SGM2sgQqjcKzQ|52=20240104-08:20:46.508|56=cServer|57=TRADE|584=Orders|585=7|10=098|8=FIX.4.4|9=177|35=D|34=5|49=demo.ctrader.3873996|50=3873996m7M-7Zv89SGM2sgQqjcKzQ|52=20240104-08:21:12.699|56=cServer|57=TRADE|11=68421508|38=1000|40=1|54=1|55=2|59=3|60=20240104-13:21:12.698|10=172|8=FIX.4.4|9=127|35=AN|34=6|49=demo.ctrader.3873996|50=3873996m7M-7Zv89SGM2sgQqjcKzQ|52=20240104-08:21:13.146|56=cServer|57=TRADE|710=Positions|10=164|8=FIX.4.4|9=112|35=0|34=7|49=demo.ctrader.3873996|50=3873996m7M-7Zv89SGM2sgQqjcKzQ|52=20240104-08:21:43.643|56=cServer|57=TRADE|10=167|8=FIX.4.4|9=177|35=D|34=8|49=demo.ctrader.3873996|50=3873996m7M-7Zv89SGM2sgQqjcKzQ|52=20240104-08:21:48.793|56=cServer|57=TRADE|11=68421509|38=1000|40=1|54=1|55=2|59=3|60=20240104-13:21:48.793|10=185|8=FIX.4.4|9=127|35=AN|34=9|49=demo.ctrader.3873996|50=3873996m7M-7Zv89SGM2sgQqjcKzQ|52=20240104-08:21:49.251|56=cServer|57=TRADE|710=Positions|10=173|8=FIX.4.4|9=113|35=0|34=10|49=demo.ctrader.3873996|50=3873996m7M-7Zv89SGM2sgQqjcKzQ|52=20240104-08:22:19.785|56=cServer|57=TRADE|10=221|8=FIX.4.4|9=227|35=5|34=11|49=demo.ctrader.3873996|50=3873996m7M-7Zv89SGM2sgQqjcKzQ|52=20240104-08:22:32.603|56=cServer|57=TRADE|49=demo.ctrader.3873996|50=3873996m7M-7Zv89SGM2sgQqjcKzQ|52=20240104-08:22:32|56=cServer|553=3873996|554=Gtlfx125|10=141|8=FIX.4.4|9=227|35=5|34=12|49=demo.ctrader.3873996|50=3873996m7M-7Zv89SGM2sgQqjcKzQ|52=20240104-08:22:32.646|56=cServer|57=TRADE|49=demo.ctrader.3873996|50=3873996m7M-7Zv89SGM2sgQqjcKzQ|52=20240104-08:22:32|56=cServer|553=3873996|554=Gtlfx125|10=149|