8=FIX.4.4|9=244|35=A|34=1|49=demo.ctrader.3873996|50=3873996MUTQRXa5mNB58PGEBqTDrg|52=20231227-08:11:21.975|56=cServer|57=TRADE|49=demo.ctrader.3873996|50=3873996MUTQRXa5mNB58PGEBqTDrg|52=20231227-08:11:21|56=cServer|98=0|108=30|141=Y|553=3873996|554=Gtlfx125|10=067|8=FIX.4.4|9=130|35=x|34=2|49=demo.ctrader.3873996|50=3873996MUTQRXa5mNB58PGEBqTDrg|52=20231227-08:11:22.591|56=cServer|57=TRADE|320=symbols|559=0|10=158|8=FIX.4.4|9=127|35=AN|34=3|49=demo.ctrader.3873996|50=3873996MUTQRXa5mNB58PGEBqTDrg|52=20231227-08:11:22.951|56=cServer|57=TRADE|710=Positions|10=109|8=FIX.4.4|9=130|35=AF|34=4|49=demo.ctrader.3873996|50=3873996MUTQRXa5mNB58PGEBqTDrg|52=20231227-08:11:22.952|56=cServer|57=TRADE|584=Orders|585=7|10=040|8=FIX.4.4|9=112|35=0|34=5|49=demo.ctrader.3873996|50=3873996MUTQRXa5mNB58PGEBqTDrg|52=20231227-08:11:53.379|56=cServer|57=TRADE|10=116|8=FIX.4.4|9=112|35=0|34=6|49=demo.ctrader.3873996|50=3873996MUTQRXa5mNB58PGEBqTDrg|52=20231227-08:12:23.660|56=cServer|57=TRADE|10=108|8=FIX.4.4|9=112|35=0|34=7|49=demo.ctrader.3873996|50=3873996MUTQRXa5mNB58PGEBqTDrg|52=20231227-08:12:53.720|56=cServer|57=TRADE|10=109|8=FIX.4.4|9=112|35=0|34=8|49=demo.ctrader.3873996|50=3873996MUTQRXa5mNB58PGEBqTDrg|52=20231227-08:13:23.722|56=cServer|57=TRADE|10=110|8=FIX.4.4|9=112|35=0|34=9|49=demo.ctrader.3873996|50=3873996MUTQRXa5mNB58PGEBqTDrg|52=20231227-08:13:54.730|56=cServer|57=TRADE|10=114|8=FIX.4.4|9=113|35=0|34=10|49=demo.ctrader.3873996|50=3873996MUTQRXa5mNB58PGEBqTDrg|52=20231227-08:14:25.730|56=cServer|57=TRADE|10=154|8=FIX.4.4|9=113|35=0|34=11|49=demo.ctrader.3873996|50=3873996MUTQRXa5mNB58PGEBqTDrg|52=20231227-08:14:55.737|56=cServer|57=TRADE|10=165|8=FIX.4.4|9=113|35=0|34=12|49=demo.ctrader.3873996|50=3873996MUTQRXa5mNB58PGEBqTDrg|52=20231227-08:15:26.736|56=cServer|57=TRADE|10=164|8=FIX.4.4|9=113|35=0|34=13|49=demo.ctrader.3873996|50=3873996MUTQRXa5mNB58PGEBqTDrg|52=20231227-08:15:57.736|56=cServer|57=TRADE|10=169|8=FIX.4.4|9=113|35=0|34=14|49=demo.ctrader.3873996|50=3873996MUTQRXa5mNB58PGEBqTDrg|52=20231227-08:16:27.762|56=cServer|57=TRADE|10=167|8=FIX.4.4|9=113|35=0|34=15|49=demo.ctrader.3873996|50=3873996MUTQRXa5mNB58PGEBqTDrg|52=20231227-08:16:57.767|56=cServer|57=TRADE|10=176|8=FIX.4.4|9=113|35=0|34=16|49=demo.ctrader.3873996|50=3873996MUTQRXa5mNB58PGEBqTDrg|52=20231227-08:17:28.754|56=cServer|57=TRADE|10=172|8=FIX.4.4|9=113|35=0|34=17|49=demo.ctrader.3873996|50=3873996MUTQRXa5mNB58PGEBqTDrg|52=20231227-08:17:58.811|56=cServer|57=TRADE|10=170|8=FIX.4.4|9=113|35=0|34=18|49=demo.ctrader.3873996|50=3873996MUTQRXa5mNB58PGEBqTDrg|52=20231227-08:18:29.770|56=cServer|57=TRADE|10=174|8=FIX.4.4|9=113|35=0|34=19|49=demo.ctrader.3873996|50=3873996MUTQRXa5mNB58PGEBqTDrg|52=20231227-08:19:00.765|56=cServer|57=TRADE|10=169|8=FIX.4.4|9=113|35=0|34=20|49=demo.ctrader.3873996|50=3873996MUTQRXa5mNB58PGEBqTDrg|52=20231227-08:19:30.799|56=cServer|57=TRADE|10=171|8=FIX.4.4|9=113|35=0|34=21|49=demo.ctrader.3873996|50=3873996MUTQRXa5mNB58PGEBqTDrg|52=20231227-08:20:01.786|56=cServer|57=TRADE|10=158|8=FIX.4.4|9=113|35=0|34=22|49=demo.ctrader.3873996|50=3873996MUTQRXa5mNB58PGEBqTDrg|52=20231227-08:20:32.792|56=cServer|57=TRADE|10=160|8=FIX.4.4|9=113|35=0|34=23|49=demo.ctrader.3873996|50=3873996MUTQRXa5mNB58PGEBqTDrg|52=20231227-08:21:03.779|56=cServer|57=TRADE|10=165|8=FIX.4.4|9=113|35=0|34=24|49=demo.ctrader.3873996|50=3873996MUTQRXa5mNB58PGEBqTDrg|52=20231227-08:21:33.851|56=cServer|57=TRADE|10=160|8=FIX.4.4|9=113|35=0|34=25|49=demo.ctrader.3873996|50=3873996MUTQRXa5mNB58PGEBqTDrg|52=20231227-08:22:04.781|56=cServer|57=TRADE|10=162|8=FIX.4.4|9=113|35=0|34=26|49=demo.ctrader.3873996|50=3873996MUTQRXa5mNB58PGEBqTDrg|52=20231227-08:22:34.825|56=cServer|57=TRADE|10=165|8=FIX.4.4|9=113|35=0|34=27|49=demo.ctrader.3873996|50=3873996MUTQRXa5mNB58PGEBqTDrg|52=20231227-08:23:05.809|56=cServer|57=TRADE|10=167|8=FIX.4.4|9=113|35=0|34=28|49=demo.ctrader.3873996|50=3873996MUTQRXa5mNB58PGEBqTDrg|52=20231227-08:23:35.818|56=cServer|57=TRADE|10=171|8=FIX.4.4|9=113|35=0|34=29|49=demo.ctrader.3873996|50=3873996MUTQRXa5mNB58PGEBqTDrg|52=20231227-08:24:06.794|56=cServer|57=TRADE|10=174|8=FIX.4.4|9=113|35=0|34=30|49=demo.ctrader.3873996|50=3873996MUTQRXa5mNB58PGEBqTDrg|52=20231227-08:24:36.915|56=cServer|57=TRADE|10=164|8=FIX.4.4|9=113|35=0|34=31|49=demo.ctrader.3873996|50=3873996MUTQRXa5mNB58PGEBqTDrg|52=20231227-08:25:07.023|56=cServer|57=TRADE|10=154|8=FIX.4.4|9=113|35=0|34=32|49=demo.ctrader.3873996|50=3873996MUTQRXa5mNB58PGEBqTDrg|52=20231227-08:25:37.833|56=cServer|57=TRADE|10=167|8=FIX.4.4|9=113|35=0|34=33|49=demo.ctrader.3873996|50=3873996MUTQRXa5mNB58PGEBqTDrg|52=20231227-08:26:08.804|56=cServer|57=TRADE|10=165|8=FIX.4.4|9=113|35=0|34=34|49=demo.ctrader.3873996|50=3873996MUTQRXa5mNB58PGEBqTDrg|52=20231227-08:26:38.848|56=cServer|57=TRADE|10=177|8=FIX.4.4|9=113|35=0|34=35|49=demo.ctrader.3873996|50=3873996MUTQRXa5mNB58PGEBqTDrg|52=20231227-08:27:09.841|56=cServer|57=TRADE|10=170|8=FIX.4.4|9=113|35=0|34=36|49=demo.ctrader.3873996|50=3873996MUTQRXa5mNB58PGEBqTDrg|52=20231227-08:27:39.854|56=cServer|57=TRADE|10=178|8=FIX.4.4|9=113|35=0|34=37|49=demo.ctrader.3873996|50=3873996MUTQRXa5mNB58PGEBqTDrg|52=20231227-08:28:09.854|56=cServer|57=TRADE|10=177|8=FIX.4.4|9=113|35=0|34=38|49=demo.ctrader.3873996|50=3873996MUTQRXa5mNB58PGEBqTDrg|52=20231227-08:28:40.845|56=cServer|57=TRADE|10=173|8=FIX.4.4|9=113|35=0|34=39|49=demo.ctrader.3873996|50=3873996MUTQRXa5mNB58PGEBqTDrg|52=20231227-08:29:10.856|56=cServer|57=TRADE|10=174|8=FIX.4.4|9=113|35=0|34=40|49=demo.ctrader.3873996|50=3873996MUTQRXa5mNB58PGEBqTDrg|52=20231227-08:29:41.847|56=cServer|57=TRADE|10=170|8=FIX.4.4|9=113|35=0|34=41|49=demo.ctrader.3873996|50=3873996MUTQRXa5mNB58PGEBqTDrg|52=20231227-08:30:11.947|56=cServer|57=TRADE|10=161|8=FIX.4.4|9=113|35=0|34=42|49=demo.ctrader.3873996|50=3873996MUTQRXa5mNB58PGEBqTDrg|52=20231227-08:30:42.858|56=cServer|57=TRADE|10=167|8=FIX.4.4|9=113|35=0|34=43|49=demo.ctrader.3873996|50=3873996MUTQRXa5mNB58PGEBqTDrg|52=20231227-08:31:13.867|56=cServer|57=TRADE|10=167|8=FIX.4.4|9=113|35=0|34=44|49=demo.ctrader.3873996|50=3873996MUTQRXa5mNB58PGEBqTDrg|52=20231227-08:31:44.835|56=cServer|57=TRADE|10=167|8=FIX.4.4|9=113|35=0|34=45|49=demo.ctrader.3873996|50=3873996MUTQRXa5mNB58PGEBqTDrg|52=20231227-08:32:15.032|56=cServer|57=TRADE|10=156|8=FIX.4.4|9=113|35=0|34=46|49=demo.ctrader.3873996|50=3873996MUTQRXa5mNB58PGEBqTDrg|52=20231227-08:32:45.877|56=cServer|57=TRADE|10=177|8=FIX.4.4|9=113|35=0|34=47|49=demo.ctrader.3873996|50=3873996MUTQRXa5mNB58PGEBqTDrg|52=20231227-08:33:16.879|56=cServer|57=TRADE|10=179|8=FIX.4.4|9=113|35=0|34=48|49=demo.ctrader.3873996|50=3873996MUTQRXa5mNB58PGEBqTDrg|52=20231227-08:33:46.914|56=cServer|57=TRADE|10=173|8=FIX.4.4|9=113|35=0|34=49|49=demo.ctrader.3873996|50=3873996MUTQRXa5mNB58PGEBqTDrg|52=20231227-08:34:17.872|56=cServer|57=TRADE|10=176|8=FIX.4.4|9=113|35=0|34=50|49=demo.ctrader.3873996|50=3873996MUTQRXa5mNB58PGEBqTDrg|52=20231227-08:34:47.906|56=cServer|57=TRADE|10=169|8=FIX.4.4|9=113|35=0|34=51|49=demo.ctrader.3873996|50=3873996MUTQRXa5mNB58PGEBqTDrg|52=20231227-08:35:17.908|56=cServer|57=TRADE|10=170|8=FIX.4.4|9=113|35=0|34=52|49=demo.ctrader.3873996|50=3873996MUTQRXa5mNB58PGEBqTDrg|52=20231227-08:35:48.894|56=cServer|57=TRADE|10=179|8=FIX.4.4|9=113|35=0|34=53|49=demo.ctrader.3873996|50=3873996MUTQRXa5mNB58PGEBqTDrg|52=20231227-08:36:18.920|56=cServer|57=TRADE|10=168|8=FIX.4.4|9=113|35=0|34=54|49=demo.ctrader.3873996|50=3873996MUTQRXa5mNB58PGEBqTDrg|52=20231227-08:36:49.905|56=cServer|57=TRADE|10=176|8=FIX.4.4|9=113|35=0|34=55|49=demo.ctrader.3873996|50=3873996MUTQRXa5mNB58PGEBqTDrg|52=20231227-08:37:20.895|56=cServer|57=TRADE|10=175|8=FIX.4.4|9=113|35=0|34=56|49=demo.ctrader.3873996|50=3873996MUTQRXa5mNB58PGEBqTDrg|52=20231227-08:37:51.859|56=cServer|57=TRADE|10=180|8=FIX.4.4|9=113|35=0|34=57|49=demo.ctrader.3873996|50=3873996MUTQRXa5mNB58PGEBqTDrg|52=20231227-08:38:22.031|56=cServer|57=TRADE|10=162|8=FIX.4.4|9=113|35=0|34=58|49=demo.ctrader.3873996|50=3873996MUTQRXa5mNB58PGEBqTDrg|52=20231227-08:38:52.930|56=cServer|57=TRADE|10=174|8=FIX.4.4|9=113|35=0|34=59|49=demo.ctrader.3873996|50=3873996MUTQRXa5mNB58PGEBqTDrg|52=20231227-08:39:23.713|56=cServer|57=TRADE|10=173|8=FIX.4.4|9=113|35=0|34=60|49=demo.ctrader.3873996|50=3873996MUTQRXa5mNB58PGEBqTDrg|52=20231227-08:39:53.739|56=cServer|57=TRADE|10=176|8=FIX.4.4|9=113|35=0|34=61|49=demo.ctrader.3873996|50=3873996MUTQRXa5mNB58PGEBqTDrg|52=20231227-08:40:24.716|56=cServer|57=TRADE|10=162|8=FIX.4.4|9=113|35=0|34=62|49=demo.ctrader.3873996|50=3873996MUTQRXa5mNB58PGEBqTDrg|52=20231227-08:40:54.724|56=cServer|57=TRADE|10=165|8=FIX.4.4|9=113|35=0|34=63|49=demo.ctrader.3873996|50=3873996MUTQRXa5mNB58PGEBqTDrg|52=20231227-08:41:25.722|56=cServer|57=TRADE|10=163|8=FIX.4.4|9=113|35=0|34=64|49=demo.ctrader.3873996|50=3873996MUTQRXa5mNB58PGEBqTDrg|52=20231227-08:41:55.793|56=cServer|57=TRADE|10=175|8=FIX.4.4|9=113|35=0|34=65|49=demo.ctrader.3873996|50=3873996MUTQRXa5mNB58PGEBqTDrg|52=20231227-08:42:26.724|56=cServer|57=TRADE|10=169|8=FIX.4.4|9=113|35=0|34=66|49=demo.ctrader.3873996|50=3873996MUTQRXa5mNB58PGEBqTDrg|52=20231227-08:42:56.749|56=cServer|57=TRADE|10=180|8=FIX.4.4|9=113|35=0|34=67|49=demo.ctrader.3873996|50=3873996MUTQRXa5mNB58PGEBqTDrg|52=20231227-08:43:27.746|56=cServer|57=TRADE|10=177|8=FIX.4.4|9=113|35=0|34=68|49=demo.ctrader.3873996|50=3873996MUTQRXa5mNB58PGEBqTDrg|52=20231227-08:43:58.749|56=cServer|57=TRADE|10=185|8=FIX.4.4|9=113|35=0|34=69|49=demo.ctrader.3873996|50=3873996MUTQRXa5mNB58PGEBqTDrg|52=20231227-08:44:28.804|56=cServer|57=TRADE|10=176|8=FIX.4.4|9=113|35=0|34=70|49=demo.ctrader.3873996|50=3873996MUTQRXa5mNB58PGEBqTDrg|52=20231227-08:44:59.752|56=cServer|57=TRADE|10=174|8=FIX.4.4|9=113|35=0|34=71|49=demo.ctrader.3873996|50=3873996MUTQRXa5mNB58PGEBqTDrg|52=20231227-08:45:30.746|56=cServer|57=TRADE|10=168|8=FIX.4.4|9=113|35=0|34=72|49=demo.ctrader.3873996|50=3873996MUTQRXa5mNB58PGEBqTDrg|52=20231227-08:46:00.774|56=cServer|57=TRADE|10=168|8=FIX.4.4|9=113|35=0|34=73|49=demo.ctrader.3873996|50=3873996MUTQRXa5mNB58PGEBqTDrg|52=20231227-08:46:31.752|56=cServer|57=TRADE|10=169|8=FIX.4.4|9=113|35=0|34=74|49=demo.ctrader.3873996|50=3873996MUTQRXa5mNB58PGEBqTDrg|52=20231227-08:47:01.799|56=cServer|57=TRADE|10=179|8=FIX.4.4|9=113|35=0|34=75|49=demo.ctrader.3873996|50=3873996MUTQRXa5mNB58PGEBqTDrg|52=20231227-08:47:32.771|56=cServer|57=TRADE|10=174|8=FIX.4.4|9=113|35=0|34=76|49=demo.ctrader.3873996|50=3873996MUTQRXa5mNB58PGEBqTDrg|52=20231227-08:48:02.793|56=cServer|57=TRADE|10=177|8=FIX.4.4|9=113|35=0|34=77|49=demo.ctrader.3873996|50=3873996MUTQRXa5mNB58PGEBqTDrg|52=20231227-08:48:33.791|56=cServer|57=TRADE|10=180|8=FIX.4.4|9=113|35=0|34=78|49=demo.ctrader.3873996|50=3873996MUTQRXa5mNB58PGEBqTDrg|52=20231227-08:49:03.815|56=cServer|57=TRADE|10=176|8=FIX.4.4|9=113|35=0|34=79|49=demo.ctrader.3873996|50=3873996MUTQRXa5mNB58PGEBqTDrg|52=20231227-08:49:34.820|56=cServer|57=TRADE|10=177|8=FIX.4.4|9=113|35=0|34=80|49=demo.ctrader.3873996|50=3873996MUTQRXa5mNB58PGEBqTDrg|52=20231227-08:50:05.817|56=cServer|57=TRADE|10=165|8=FIX.4.4|9=113|35=0|34=81|49=demo.ctrader.3873996|50=3873996MUTQRXa5mNB58PGEBqTDrg|52=20231227-08:50:36.807|56=cServer|57=TRADE|10=169|8=FIX.4.4|9=113|35=0|34=82|49=demo.ctrader.3873996|50=3873996MUTQRXa5mNB58PGEBqTDrg|52=20231227-08:51:06.831|56=cServer|57=TRADE|10=165|8=FIX.4.4|9=113|35=0|34=83|49=demo.ctrader.3873996|50=3873996MUTQRXa5mNB58PGEBqTDrg|52=20231227-08:51:37.812|56=cServer|57=TRADE|10=169|8=FIX.4.4|9=113|35=0|34=84|49=demo.ctrader.3873996|50=3873996MUTQRXa5mNB58PGEBqTDrg|52=20231227-08:52:07.952|56=cServer|57=TRADE|10=173|8=FIX.4.4|9=113|35=0|34=85|49=demo.ctrader.3873996|50=3873996MUTQRXa5mNB58PGEBqTDrg|52=20231227-08:52:38.808|56=cServer|57=TRADE|10=178|8=FIX.4.4|9=113|35=0|34=86|49=demo.ctrader.3873996|50=3873996MUTQRXa5mNB58PGEBqTDrg|52=20231227-08:53:08.857|56=cServer|57=TRADE|10=181|8=FIX.4.4|9=113|35=0|34=87|49=demo.ctrader.3873996|50=3873996MUTQRXa5mNB58PGEBqTDrg|52=20231227-08:53:39.819|56=cServer|57=TRADE|10=184|8=FIX.4.4|9=113|35=0|34=88|49=demo.ctrader.3873996|50=3873996MUTQRXa5mNB58PGEBqTDrg|52=20231227-08:54:10.831|56=cServer|57=TRADE|10=169|8=FIX.4.4|9=113|35=0|34=89|49=demo.ctrader.3873996|50=3873996MUTQRXa5mNB58PGEBqTDrg|52=20231227-08:54:40.843|56=cServer|57=TRADE|10=176|8=FIX.4.4|9=113|35=0|34=90|49=demo.ctrader.3873996|50=3873996MUTQRXa5mNB58PGEBqTDrg|52=20231227-08:55:11.809|56=cServer|57=TRADE|10=169|8=FIX.4.4|9=113|35=0|34=91|49=demo.ctrader.3873996|50=3873996MUTQRXa5mNB58PGEBqTDrg|52=20231227-08:55:41.851|56=cServer|57=TRADE|10=170|8=FIX.4.4|9=113|35=0|34=92|49=demo.ctrader.3873996|50=3873996MUTQRXa5mNB58PGEBqTDrg|52=20231227-08:56:11.854|56=cServer|57=TRADE|10=172|8=FIX.4.4|9=113|35=0|34=93|49=demo.ctrader.3873996|50=3873996MUTQRXa5mNB58PGEBqTDrg|52=20231227-08:56:42.818|56=cServer|57=TRADE|10=177|8=FIX.4.4|9=113|35=0|34=94|49=demo.ctrader.3873996|50=3873996MUTQRXa5mNB58PGEBqTDrg|52=20231227-08:57:12.886|56=cServer|57=TRADE|10=181|8=FIX.4.4|9=113|35=0|34=95|49=demo.ctrader.3873996|50=3873996MUTQRXa5mNB58PGEBqTDrg|52=20231227-08:57:43.860|56=cServer|57=TRADE|10=178|8=FIX.4.4|9=113|35=0|34=96|49=demo.ctrader.3873996|50=3873996MUTQRXa5mNB58PGEBqTDrg|52=20231227-08:58:14.838|56=cServer|57=TRADE|10=183|8=FIX.4.4|9=113|35=0|34=97|49=demo.ctrader.3873996|50=3873996MUTQRXa5mNB58PGEBqTDrg|52=20231227-08:58:44.879|56=cServer|57=TRADE|10=192|8=FIX.4.4|9=113|35=0|34=98|49=demo.ctrader.3873996|50=3873996MUTQRXa5mNB58PGEBqTDrg|52=20231227-08:59:14.911|56=cServer|57=TRADE|10=178|8=FIX.4.4|9=113|35=0|34=99|49=demo.ctrader.3873996|50=3873996MUTQRXa5mNB58PGEBqTDrg|52=20231227-08:59:45.897|56=cServer|57=TRADE|10=196|8=FIX.4.4|9=114|35=0|34=100|49=demo.ctrader.3873996|50=3873996MUTQRXa5mNB58PGEBqTDrg|52=20231227-09:00:16.855|56=cServer|57=TRADE|10=207|8=FIX.4.4|9=114|35=0|34=101|49=demo.ctrader.3873996|50=3873996MUTQRXa5mNB58PGEBqTDrg|52=20231227-09:00:46.967|56=cServer|57=TRADE|10=215|8=FIX.4.4|9=114|35=0|34=102|49=demo.ctrader.3873996|50=3873996MUTQRXa5mNB58PGEBqTDrg|52=20231227-09:01:17.055|56=cServer|57=TRADE|10=203|8=FIX.4.4|9=114|35=0|34=103|49=demo.ctrader.3873996|50=3873996MUTQRXa5mNB58PGEBqTDrg|52=20231227-09:01:47.910|56=cServer|57=TRADE|10=207|8=FIX.4.4|9=114|35=0|34=104|49=demo.ctrader.3873996|50=3873996MUTQRXa5mNB58PGEBqTDrg|52=20231227-09:02:18.880|56=cServer|57=TRADE|10=213|8=FIX.4.4|9=114|35=0|34=105|49=demo.ctrader.3873996|50=3873996MUTQRXa5mNB58PGEBqTDrg|52=20231227-09:02:48.913|56=cServer|57=TRADE|10=214|8=FIX.4.4|9=114|35=0|34=106|49=demo.ctrader.3873996|50=3873996MUTQRXa5mNB58PGEBqTDrg|52=20231227-09:03:19.896|56=cServer|57=TRADE|10=224|8=FIX.4.4|9=114|35=0|34=107|49=demo.ctrader.3873996|50=3873996MUTQRXa5mNB58PGEBqTDrg|52=20231227-09:03:50.894|56=cServer|57=TRADE|10=218|8=FIX.4.4|9=114|35=0|34=108|49=demo.ctrader.3873996|50=3873996MUTQRXa5mNB58PGEBqTDrg|52=20231227-09:04:21.893|56=cServer|57=TRADE|10=217|8=FIX.4.4|9=114|35=0|34=109|49=demo.ctrader.3873996|50=3873996MUTQRXa5mNB58PGEBqTDrg|52=20231227-09:04:51.898|56=cServer|57=TRADE|10=226|8=FIX.4.4|9=114|35=0|34=110|49=demo.ctrader.3873996|50=3873996MUTQRXa5mNB58PGEBqTDrg|52=20231227-09:05:22.876|56=cServer|57=TRADE|10=213|8=FIX.4.4|9=114|35=0|34=111|49=demo.ctrader.3873996|50=3873996MUTQRXa5mNB58PGEBqTDrg|52=20231227-09:05:52.933|56=cServer|57=TRADE|10=211|8=FIX.4.4|9=114|35=0|34=112|49=demo.ctrader.3873996|50=3873996MUTQRXa5mNB58PGEBqTDrg|52=20231227-09:06:23.723|56=cServer|57=TRADE|10=208|8=FIX.4.4|9=114|35=0|34=113|49=demo.ctrader.3873996|50=3873996MUTQRXa5mNB58PGEBqTDrg|52=20231227-09:06:53.822|56=cServer|57=TRADE|10=212|8=FIX.4.4|9=114|35=0|34=114|49=demo.ctrader.3873996|50=3873996MUTQRXa5mNB58PGEBqTDrg|52=20231227-09:07:24.716|56=cServer|57=TRADE|10=214|8=FIX.4.4|9=114|35=0|34=115|49=demo.ctrader.3873996|50=3873996MUTQRXa5mNB58PGEBqTDrg|52=20231227-09:07:54.847|56=cServer|57=TRADE|10=223|8=FIX.4.4|9=114|35=0|34=116|49=demo.ctrader.3873996|50=3873996MUTQRXa5mNB58PGEBqTDrg|52=20231227-09:08:25.728|56=cServer|57=TRADE|10=221|8=FIX.4.4|9=114|35=0|34=117|49=demo.ctrader.3873996|50=3873996MUTQRXa5mNB58PGEBqTDrg|52=20231227-09:08:55.733|56=cServer|57=TRADE|10=221|8=FIX.4.4|9=114|35=0|34=118|49=demo.ctrader.3873996|50=3873996MUTQRXa5mNB58PGEBqTDrg|52=20231227-09:09:26.733|56=cServer|57=TRADE|10=221|8=FIX.4.4|9=114|35=0|34=119|49=demo.ctrader.3873996|50=3873996MUTQRXa5mNB58PGEBqTDrg|52=20231227-09:09:56.733|56=cServer|57=TRADE|10=225|8=FIX.4.4|9=114|35=0|34=120|49=demo.ctrader.3873996|50=3873996MUTQRXa5mNB58PGEBqTDrg|52=20231227-09:10:26.746|56=cServer|57=TRADE|10=210|8=FIX.4.4|9=114|35=0|34=121|49=demo.ctrader.3873996|50=3873996MUTQRXa5mNB58PGEBqTDrg|52=20231227-09:10:57.745|56=cServer|57=TRADE|10=214|8=FIX.4.4|9=114|35=0|34=122|49=demo.ctrader.3873996|50=3873996MUTQRXa5mNB58PGEBqTDrg|52=20231227-09:11:27.746|56=cServer|57=TRADE|10=214|8=FIX.4.4|9=114|35=0|34=123|49=demo.ctrader.3873996|50=3873996MUTQRXa5mNB58PGEBqTDrg|52=20231227-09:11:58.745|56=cServer|57=TRADE|10=218|8=FIX.4.4|9=114|35=0|34=124|49=demo.ctrader.3873996|50=3873996MUTQRXa5mNB58PGEBqTDrg|52=20231227-09:12:28.781|56=cServer|57=TRADE|10=217|8=FIX.4.4|9=114|35=0|34=125|49=demo.ctrader.3873996|50=3873996MUTQRXa5mNB58PGEBqTDrg|52=20231227-09:12:59.760|56=cServer|57=TRADE|10=219|8=FIX.4.4|9=114|35=0|34=126|49=demo.ctrader.3873996|50=3873996MUTQRXa5mNB58PGEBqTDrg|52=20231227-09:13:29.763|56=cServer|57=TRADE|10=221|8=FIX.4.4|9=114|35=0|34=127|49=demo.ctrader.3873996|50=3873996MUTQRXa5mNB58PGEBqTDrg|52=20231227-09:14:00.752|56=cServer|57=TRADE|10=210|8=FIX.4.4|9=114|35=0|34=128|49=demo.ctrader.3873996|50=3873996MUTQRXa5mNB58PGEBqTDrg|52=20231227-09:14:31.752|56=cServer|57=TRADE|10=215|8=FIX.4.4|9=114|35=0|34=129|49=demo.ctrader.3873996|50=3873996MUTQRXa5mNB58PGEBqTDrg|52=20231227-09:15:01.783|56=cServer|57=TRADE|10=218|8=FIX.4.4|9=114|35=0|34=130|49=demo.ctrader.3873996|50=3873996MUTQRXa5mNB58PGEBqTDrg|52=20231227-09:15:32.783|56=cServer|57=TRADE|10=214|8=FIX.4.4|9=114|35=0|34=131|49=demo.ctrader.3873996|50=3873996MUTQRXa5mNB58PGEBqTDrg|52=20231227-09:16:02.795|56=cServer|57=TRADE|10=216|8=FIX.4.4|9=114|35=0|34=132|49=demo.ctrader.3873996|50=3873996MUTQRXa5mNB58PGEBqTDrg|52=20231227-09:16:33.788|56=cServer|57=TRADE|10=223|8=FIX.4.4|9=114|35=0|34=133|49=demo.ctrader.3873996|50=3873996MUTQRXa5mNB58PGEBqTDrg|52=20231227-09:17:03.803|56=cServer|57=TRADE|10=210|8=FIX.4.4|9=114|35=0|34=134|49=demo.ctrader.3873996|50=3873996MUTQRXa5mNB58PGEBqTDrg|52=20231227-09:17:33.809|56=cServer|57=TRADE|10=220|8=FIX.4.4|9=114|35=0|34=135|49=demo.ctrader.3873996|50=3873996MUTQRXa5mNB58PGEBqTDrg|52=20231227-09:18:04.795|56=cServer|57=TRADE|10=224|8=FIX.4.4|9=114|35=0|34=136|49=demo.ctrader.3873996|50=3873996MUTQRXa5mNB58PGEBqTDrg|52=20231227-09:18:35.798|56=cServer|57=TRADE|10=232|8=FIX.4.4|9=114|35=0|34=137|49=demo.ctrader.3873996|50=3873996MUTQRXa5mNB58PGEBqTDrg|52=20231227-09:19:05.814|56=cServer|57=TRADE|10=220|8=FIX.4.4|9=114|35=0|34=138|49=demo.ctrader.3873996|50=3873996MUTQRXa5mNB58PGEBqTDrg|52=20231227-09:19:36.783|56=cServer|57=TRADE|10=230|8=FIX.4.4|9=114|35=0|34=139|49=demo.ctrader.3873996|50=3873996MUTQRXa5mNB58PGEBqTDrg|52=20231227-09:20:06.787|56=cServer|57=TRADE|10=224|8=FIX.4.4|9=114|35=0|34=140|49=demo.ctrader.3873996|50=3873996MUTQRXa5mNB58PGEBqTDrg|52=20231227-09:20:36.845|56=cServer|57=TRADE|10=214|8=FIX.4.4|9=114|35=0|34=141|49=demo.ctrader.3873996|50=3873996MUTQRXa5mNB58PGEBqTDrg|52=20231227-09:21:07.812|56=cServer|57=TRADE|10=208|8=FIX.4.4|9=114|35=0|34=142|49=demo.ctrader.3873996|50=3873996MUTQRXa5mNB58PGEBqTDrg|52=20231227-09:21:37.834|56=cServer|57=TRADE|10=216|8=FIX.4.4|9=114|35=0|34=143|49=demo.ctrader.3873996|50=3873996MUTQRXa5mNB58PGEBqTDrg|52=20231227-09:22:08.803|56=cServer|57=TRADE|10=212|8=FIX.4.4|9=114|35=0|34=144|49=demo.ctrader.3873996|50=3873996MUTQRXa5mNB58PGEBqTDrg|52=20231227-09:22:38.809|56=cServer|57=TRADE|10=222|8=FIX.4.4|9=114|35=0|34=145|49=demo.ctrader.3873996|50=3873996MUTQRXa5mNB58PGEBqTDrg|52=20231227-09:23:08.854|56=cServer|57=TRADE|10=221|8=FIX.4.4|9=114|35=0|34=146|49=demo.ctrader.3873996|50=3873996MUTQRXa5mNB58PGEBqTDrg|52=20231227-09:23:39.842|56=cServer|57=TRADE|10=223|8=FIX.4.4|9=114|35=0|34=147|49=demo.ctrader.3873996|50=3873996MUTQRXa5mNB58PGEBqTDrg|52=20231227-09:24:09.853|56=cServer|57=TRADE|10=224|8=FIX.4.4|9=114|35=0|34=148|49=demo.ctrader.3873996|50=3873996MUTQRXa5mNB58PGEBqTDrg|52=20231227-09:24:40.853|56=cServer|57=TRADE|10=220|8=FIX.4.4|9=114|35=0|34=149|49=demo.ctrader.3873996|50=3873996MUTQRXa5mNB58PGEBqTDrg|52=20231227-09:25:10.872|56=cServer|57=TRADE|10=220|8=FIX.4.4|9=114|35=0|34=150|49=demo.ctrader.3873996|50=3873996MUTQRXa5mNB58PGEBqTDrg|52=20231227-09:25:41.829|56=cServer|57=TRADE|10=218|8=FIX.4.4|9=114|35=0|34=151|49=demo.ctrader.3873996|50=3873996MUTQRXa5mNB58PGEBqTDrg|52=20231227-09:26:11.888|56=cServer|57=TRADE|10=222|8=FIX.4.4|9=114|35=0|34=152|49=demo.ctrader.3873996|50=3873996MUTQRXa5mNB58PGEBqTDrg|52=20231227-09:26:42.837|56=cServer|57=TRADE|10=221|8=FIX.4.4|9=114|35=0|34=153|49=demo.ctrader.3873996|50=3873996MUTQRXa5mNB58PGEBqTDrg|52=20231227-09:27:13.808|56=cServer|57=TRADE|10=219|8=FIX.4.4|9=114|35=0|34=154|49=demo.ctrader.3873996|50=3873996MUTQRXa5mNB58PGEBqTDrg|52=20231227-09:27:44.082|56=cServer|57=TRADE|10=218|8=FIX.4.4|9=114|35=0|34=155|49=demo.ctrader.3873996|50=3873996MUTQRXa5mNB58PGEBqTDrg|52=20231227-09:28:14.882|56=cServer|57=TRADE|10=225|8=FIX.4.4|9=114|35=0|34=156|49=demo.ctrader.3873996|50=3873996MUTQRXa5mNB58PGEBqTDrg|52=20231227-09:28:45.868|56=cServer|57=TRADE|10=234|8=FIX.4.4|9=114|35=0|34=157|49=demo.ctrader.3873996|50=3873996MUTQRXa5mNB58PGEBqTDrg|52=20231227-09:29:16.855|56=cServer|57=TRADE|10=230|8=FIX.4.4|9=114|35=0|34=158|49=demo.ctrader.3873996|50=3873996MUTQRXa5mNB58PGEBqTDrg|52=20231227-09:29:46.876|56=cServer|57=TRADE|10=237|8=FIX.4.4|9=114|35=0|34=159|49=demo.ctrader.3873996|50=3873996MUTQRXa5mNB58PGEBqTDrg|52=20231227-09:30:16.906|56=cServer|57=TRADE|10=221|8=FIX.4.4|9=114|35=0|34=160|49=demo.ctrader.3873996|50=3873996MUTQRXa5mNB58PGEBqTDrg|52=20231227-09:30:46.924|56=cServer|57=TRADE|10=216|8=FIX.4.4|9=114|35=0|34=161|49=demo.ctrader.3873996|50=3873996MUTQRXa5mNB58PGEBqTDrg|52=20231227-09:31:17.879|56=cServer|57=TRADE|10=225|8=FIX.4.4|9=114|35=0|34=162|49=demo.ctrader.3873996|50=3873996MUTQRXa5mNB58PGEBqTDrg|52=20231227-09:31:47.900|56=cServer|57=TRADE|10=214|8=FIX.4.4|9=114|35=0|34=163|49=demo.ctrader.3873996|50=3873996MUTQRXa5mNB58PGEBqTDrg|52=20231227-09:32:18.900|56=cServer|57=TRADE|10=214|8=FIX.4.4|9=114|35=0|34=164|49=demo.ctrader.3873996|50=3873996MUTQRXa5mNB58PGEBqTDrg|52=20231227-09:32:49.879|56=cServer|57=TRADE|10=234|8=FIX.4.4|9=114|35=0|34=165|49=demo.ctrader.3873996|50=3873996MUTQRXa5mNB58PGEBqTDrg|52=20231227-09:33:19.891|56=cServer|57=TRADE|10=227|8=FIX.4.4|9=114|35=0|34=166|49=demo.ctrader.3873996|50=3873996MUTQRXa5mNB58PGEBqTDrg|52=20231227-09:33:50.886|56=cServer|57=TRADE|10=227|8=FIX.4.4|9=114|35=0|34=167|49=demo.ctrader.3873996|50=3873996MUTQRXa5mNB58PGEBqTDrg|52=20231227-09:34:20.905|56=cServer|57=TRADE|10=218|8=FIX.4.4|9=114|35=0|34=168|49=demo.ctrader.3873996|50=3873996MUTQRXa5mNB58PGEBqTDrg|52=20231227-09:34:51.880|56=cServer|57=TRADE|10=225|8=FIX.4.4|9=114|35=0|34=169|49=demo.ctrader.3873996|50=3873996MUTQRXa5mNB58PGEBqTDrg|52=20231227-09:35:21.903|56=cServer|57=TRADE|10=220|8=FIX.4.4|9=114|35=0|34=170|49=demo.ctrader.3873996|50=3873996MUTQRXa5mNB58PGEBqTDrg|52=20231227-09:35:51.915|56=cServer|57=TRADE|10=218|8=FIX.4.4|9=114|35=0|34=171|49=demo.ctrader.3873996|50=3873996MUTQRXa5mNB58PGEBqTDrg|52=20231227-09:36:22.914|56=cServer|57=TRADE|10=217|8=FIX.4.4|9=114|35=0|34=172|49=demo.ctrader.3873996|50=3873996MUTQRXa5mNB58PGEBqTDrg|52=20231227-09:36:52.933|56=cServer|57=TRADE|10=222|8=FIX.4.4|9=114|35=0|34=173|49=demo.ctrader.3873996|50=3873996MUTQRXa5mNB58PGEBqTDrg|52=20231227-09:37:22.935|56=cServer|57=TRADE|10=223|8=FIX.4.4|9=114|35=0|34=174|49=demo.ctrader.3873996|50=3873996MUTQRXa5mNB58PGEBqTDrg|52=20231227-09:37:53.710|56=cServer|57=TRADE|10=219|8=FIX.4.4|9=114|35=0|34=175|49=demo.ctrader.3873996|50=3873996MUTQRXa5mNB58PGEBqTDrg|52=20231227-09:38:23.712|56=cServer|57=TRADE|10=220|8=FIX.4.4|9=114|35=0|34=176|49=demo.ctrader.3873996|50=3873996MUTQRXa5mNB58PGEBqTDrg|52=20231227-09:38:54.722|56=cServer|57=TRADE|10=226|8=FIX.4.4|9=114|35=0|34=177|49=demo.ctrader.3873996|50=3873996MUTQRXa5mNB58PGEBqTDrg|52=20231227-09:39:25.723|56=cServer|57=TRADE|10=227|8=FIX.4.4|9=114|35=0|34=178|49=demo.ctrader.3873996|50=3873996MUTQRXa5mNB58PGEBqTDrg|52=20231227-09:39:55.725|56=cServer|57=TRADE|10=233|8=FIX.4.4|9=114|35=0|34=179|49=demo.ctrader.3873996|50=3873996MUTQRXa5mNB58PGEBqTDrg|52=20231227-09:40:26.732|56=cServer|57=TRADE|10=222|8=FIX.4.4|9=114|35=0|34=180|49=demo.ctrader.3873996|50=3873996MUTQRXa5mNB58PGEBqTDrg|52=20231227-09:40:56.740|56=cServer|57=TRADE|10=216|8=FIX.4.4|9=114|35=0|34=181|49=demo.ctrader.3873996|50=3873996MUTQRXa5mNB58PGEBqTDrg|52=20231227-09:41:27.730|56=cServer|57=TRADE|10=215|8=FIX.4.4|9=114|35=0|34=182|49=demo.ctrader.3873996|50=3873996MUTQRXa5mNB58PGEBqTDrg|52=20231227-09:41:57.738|56=cServer|57=TRADE|10=227|8=FIX.4.4|9=114|35=0|34=183|49=demo.ctrader.3873996|50=3873996MUTQRXa5mNB58PGEBqTDrg|52=20231227-09:42:28.722|56=cServer|57=TRADE|10=220|8=FIX.4.4|9=114|35=0|34=184|49=demo.ctrader.3873996|50=3873996MUTQRXa5mNB58PGEBqTDrg|52=20231227-09:42:58.932|56=cServer|57=TRADE|10=227|8=FIX.4.4|9=114|35=0|34=185|49=demo.ctrader.3873996|50=3873996MUTQRXa5mNB58PGEBqTDrg|52=20231227-09:43:29.739|56=cServer|57=TRADE|10=232|8=FIX.4.4|9=114|35=0|34=186|49=demo.ctrader.3873996|50=3873996MUTQRXa5mNB58PGEBqTDrg|52=20231227-09:43:59.765|56=cServer|57=TRADE|10=235|8=FIX.4.4|9=114|35=0|34=187|49=demo.ctrader.3873996|50=3873996MUTQRXa5mNB58PGEBqTDrg|52=20231227-09:44:30.762|56=cServer|57=TRADE|10=223|8=FIX.4.4|9=114|35=0|34=188|49=demo.ctrader.3873996|50=3873996MUTQRXa5mNB58PGEBqTDrg|52=20231227-09:45:01.760|56=cServer|57=TRADE|10=221|8=FIX.4.4|9=114|35=0|34=189|49=demo.ctrader.3873996|50=3873996MUTQRXa5mNB58PGEBqTDrg|52=20231227-09:45:31.768|56=cServer|57=TRADE|10=233|8=FIX.4.4|9=114|35=0|34=190|49=demo.ctrader.3873996|50=3873996MUTQRXa5mNB58PGEBqTDrg|52=20231227-09:46:01.771|56=cServer|57=TRADE|10=217|8=FIX.4.4|9=114|35=0|34=191|49=demo.ctrader.3873996|50=3873996MUTQRXa5mNB58PGEBqTDrg|52=20231227-09:46:31.782|56=cServer|57=TRADE|10=223|8=FIX.4.4|9=114|35=0|34=192|49=demo.ctrader.3873996|50=3873996MUTQRXa5mNB58PGEBqTDrg|52=20231227-09:47:02.781|56=cServer|57=TRADE|10=222|8=FIX.4.4|9=114|35=0|34=193|49=demo.ctrader.3873996|50=3873996MUTQRXa5mNB58PGEBqTDrg|52=20231227-09:47:33.784|56=cServer|57=TRADE|10=230|8=FIX.4.4|9=114|35=0|34=194|49=demo.ctrader.3873996|50=3873996MUTQRXa5mNB58PGEBqTDrg|52=20231227-09:48:04.782|56=cServer|57=TRADE|10=228|8=FIX.4.4|9=114|35=0|34=195|49=demo.ctrader.3873996|50=3873996MUTQRXa5mNB58PGEBqTDrg|52=20231227-09:48:34.783|56=cServer|57=TRADE|10=233|8=FIX.4.4|9=114|35=0|34=196|49=demo.ctrader.3873996|50=3873996MUTQRXa5mNB58PGEBqTDrg|52=20231227-09:49:04.798|56=cServer|57=TRADE|10=238|8=FIX.4.4|9=114|35=0|34=197|49=demo.ctrader.3873996|50=3873996MUTQRXa5mNB58PGEBqTDrg|52=20231227-09:49:34.858|56=cServer|57=TRADE|10=239|8=FIX.4.4|9=114|35=0|34=198|49=demo.ctrader.3873996|50=3873996MUTQRXa5mNB58PGEBqTDrg|52=20231227-09:50:05.796|56=cServer|57=TRADE|10=231|8=FIX.4.4|9=114|35=0|34=199|49=demo.ctrader.3873996|50=3873996MUTQRXa5mNB58PGEBqTDrg|52=20231227-09:50:35.797|56=cServer|57=TRADE|10=236|8=FIX.4.4|9=114|35=0|34=200|49=demo.ctrader.3873996|50=3873996MUTQRXa5mNB58PGEBqTDrg|52=20231227-09:51:05.797|56=cServer|57=TRADE|10=217|8=FIX.4.4|9=114|35=0|34=201|49=demo.ctrader.3873996|50=3873996MUTQRXa5mNB58PGEBqTDrg|52=20231227-09:51:36.782|56=cServer|57=TRADE|10=216|8=FIX.4.4|9=114|35=0|34=202|49=demo.ctrader.3873996|50=3873996MUTQRXa5mNB58PGEBqTDrg|52=20231227-09:52:06.815|56=cServer|57=TRADE|10=212|8=FIX.4.4|9=114|35=0|34=203|49=demo.ctrader.3873996|50=3873996MUTQRXa5mNB58PGEBqTDrg|52=20231227-09:52:37.805|56=cServer|57=TRADE|10=216|8=FIX.4.4|9=114|35=0|34=204|49=demo.ctrader.3873996|50=3873996MUTQRXa5mNB58PGEBqTDrg|52=20231227-09:53:07.839|56=cServer|57=TRADE|10=222|8=FIX.4.4|9=114|35=0|34=205|49=demo.ctrader.3873996|50=3873996MUTQRXa5mNB58PGEBqTDrg|52=20231227-09:53:38.811|56=cServer|57=TRADE|10=217|8=FIX.4.4|9=114|35=0|34=206|49=demo.ctrader.3873996|50=3873996MUTQRXa5mNB58PGEBqTDrg|52=20231227-09:54:08.831|56=cServer|57=TRADE|10=218|8=FIX.4.4|9=114|35=0|34=207|49=demo.ctrader.3873996|50=3873996MUTQRXa5mNB58PGEBqTDrg|52=20231227-09:54:39.798|56=cServer|57=TRADE|10=235|8=FIX.4.4|9=114|35=0|34=208|49=demo.ctrader.3873996|50=3873996MUTQRXa5mNB58PGEBqTDrg|52=20231227-09:55:09.823|56=cServer|57=TRADE|10=223|8=FIX.4.4|9=114|35=0|34=209|49=demo.ctrader.3873996|50=3873996MUTQRXa5mNB58PGEBqTDrg|52=20231227-09:55:39.854|56=cServer|57=TRADE|10=231|8=FIX.4.4|9=114|35=0|34=210|49=demo.ctrader.3873996|50=3873996MUTQRXa5mNB58PGEBqTDrg|52=20231227-09:56:10.819|56=cServer|57=TRADE|10=214|8=FIX.4.4|9=114|35=0|34=211|49=demo.ctrader.3873996|50=3873996MUTQRXa5mNB58PGEBqTDrg|52=20231227-09:56:40.864|56=cServer|57=TRADE|10=218|8=FIX.4.4|9=114|35=0|34=212|49=demo.ctrader.3873996|50=3873996MUTQRXa5mNB58PGEBqTDrg|52=20231227-09:57:11.850|56=cServer|57=TRADE|10=213|8=FIX.4.4|9=114|35=0|34=213|49=demo.ctrader.3873996|50=3873996MUTQRXa5mNB58PGEBqTDrg|52=20231227-09:57:42.861|56=cServer|57=TRADE|10=220|8=FIX.4.4|9=114|35=0|34=214|49=demo.ctrader.3873996|50=3873996MUTQRXa5mNB58PGEBqTDrg|52=20231227-09:58:13.868|56=cServer|57=TRADE|10=227|8=FIX.4.4|9=114|35=0|34=215|49=demo.ctrader.3873996|50=3873996MUTQRXa5mNB58PGEBqTDrg|52=20231227-09:58:44.859|56=cServer|57=TRADE|10=232|8=FIX.4.4|9=114|35=0|34=216|49=demo.ctrader.3873996|50=3873996MUTQRXa5mNB58PGEBqTDrg|52=20231227-09:59:14.883|56=cServer|57=TRADE|10=228|8=FIX.4.4|9=114|35=0|34=217|49=demo.ctrader.3873996|50=3873996MUTQRXa5mNB58PGEBqTDrg|52=20231227-09:59:45.884|56=cServer|57=TRADE|10=234|8=FIX.4.4|9=114|35=0|34=218|49=demo.ctrader.3873996|50=3873996MUTQRXa5mNB58PGEBqTDrg|52=20231227-10:00:16.845|56=cServer|57=TRADE|10=208|8=FIX.4.4|9=114|35=0|34=219|49=demo.ctrader.3873996|50=3873996MUTQRXa5mNB58PGEBqTDrg|52=20231227-10:00:46.875|56=cServer|57=TRADE|10=215|8=FIX.4.4|9=114|35=0|34=220|49=demo.ctrader.3873996|50=3873996MUTQRXa5mNB58PGEBqTDrg|52=20231227-10:01:17.867|56=cServer|57=TRADE|10=207|8=FIX.4.4|9=114|35=0|34=221|49=demo.ctrader.3873996|50=3873996MUTQRXa5mNB58PGEBqTDrg|52=20231227-10:01:48.854|56=cServer|57=TRADE|10=208|8=FIX.4.4|9=114|35=0|34=222|49=demo.ctrader.3873996|50=3873996MUTQRXa5mNB58PGEBqTDrg|52=20231227-10:02:18.929|56=cServer|57=TRADE|10=210|8=FIX.4.4|9=114|35=0|34=223|49=demo.ctrader.3873996|50=3873996MUTQRXa5mNB58PGEBqTDrg|52=20231227-10:02:49.897|56=cServer|57=TRADE|10=219|8=FIX.4.4|9=114|35=0|34=224|49=demo.ctrader.3873996|50=3873996MUTQRXa5mNB58PGEBqTDrg|52=20231227-10:03:20.885|56=cServer|57=TRADE|10=207|8=FIX.4.4|9=114|35=0|34=225|49=demo.ctrader.3873996|50=3873996MUTQRXa5mNB58PGEBqTDrg|52=20231227-10:03:50.921|56=cServer|57=TRADE|10=202|8=FIX.4.4|9=114|35=0|34=226|49=demo.ctrader.3873996|50=3873996MUTQRXa5mNB58PGEBqTDrg|52=20231227-10:04:20.939|56=cServer|57=TRADE|10=210|8=FIX.4.4|9=114|35=0|34=227|49=demo.ctrader.3873996|50=3873996MUTQRXa5mNB58PGEBqTDrg|52=20231227-10:04:51.902|56=cServer|57=TRADE|10=205|8=FIX.4.4|9=114|35=0|34=228|49=demo.ctrader.3873996|50=3873996MUTQRXa5mNB58PGEBqTDrg|52=20231227-10:05:22.890|56=cServer|57=TRADE|10=211|8=FIX.4.4|9=114|35=0|34=229|49=demo.ctrader.3873996|50=3873996MUTQRXa5mNB58PGEBqTDrg|52=20231227-10:05:52.938|56=cServer|57=TRADE|10=218|8=FIX.4.4|9=114|35=0|34=230|49=demo.ctrader.3873996|50=3873996MUTQRXa5mNB58PGEBqTDrg|52=20231227-10:06:22.940|56=cServer|57=TRADE|10=201|8=FIX.4.4|9=114|35=0|34=231|49=demo.ctrader.3873996|50=3873996MUTQRXa5mNB58PGEBqTDrg|52=20231227-10:06:52.962|56=cServer|57=TRADE|10=209|8=FIX.4.4|9=114|35=0|34=232|49=demo.ctrader.3873996|50=3873996MUTQRXa5mNB58PGEBqTDrg|52=20231227-10:07:23.707|56=cServer|57=TRADE|10=206|8=FIX.4.4|9=114|35=0|34=233|49=demo.ctrader.3873996|50=3873996MUTQRXa5mNB58PGEBqTDrg|52=20231227-10:07:53.723|56=cServer|57=TRADE|10=208|8=FIX.4.4|9=114|35=0|34=234|49=demo.ctrader.3873996|50=3873996MUTQRXa5mNB58PGEBqTDrg|52=20231227-10:08:24.726|56=cServer|57=TRADE|10=211|8=FIX.4.4|9=114|35=0|34=235|49=demo.ctrader.3873996|50=3873996MUTQRXa5mNB58PGEBqTDrg|52=20231227-10:08:55.724|56=cServer|57=TRADE|10=214|8=FIX.4.4|9=114|35=0|34=236|49=demo.ctrader.3873996|50=3873996MUTQRXa5mNB58PGEBqTDrg|52=20231227-10:09:26.729|56=cServer|57=TRADE|10=219|8=FIX.4.4|9=114|35=0|34=237|49=demo.ctrader.3873996|50=3873996MUTQRXa5mNB58PGEBqTDrg|52=20231227-10:09:56.785|56=cServer|57=TRADE|10=225|8=FIX.4.4|9=114|35=0|34=238|49=demo.ctrader.3873996|50=3873996MUTQRXa5mNB58PGEBqTDrg|52=20231227-10:10:27.743|56=cServer|57=TRADE|10=210|8=FIX.4.4|9=114|35=0|34=239|49=demo.ctrader.3873996|50=3873996MUTQRXa5mNB58PGEBqTDrg|52=20231227-10:10:58.746|56=cServer|57=TRADE|10=218|8=FIX.4.4|9=114|35=0|34=240|49=demo.ctrader.3873996|50=3873996MUTQRXa5mNB58PGEBqTDrg|52=20231227-10:11:29.746|56=cServer|57=TRADE|10=209|8=FIX.4.4|9=114|35=0|34=241|49=demo.ctrader.3873996|50=3873996MUTQRXa5mNB58PGEBqTDrg|52=20231227-10:11:59.766|56=cServer|57=TRADE|10=215|8=FIX.4.4|9=114|35=0|34=242|49=demo.ctrader.3873996|50=3873996MUTQRXa5mNB58PGEBqTDrg|52=20231227-10:12:29.773|56=cServer|57=TRADE|10=212|8=FIX.4.4|9=114|35=0|34=243|49=demo.ctrader.3873996|50=3873996MUTQRXa5mNB58PGEBqTDrg|52=20231227-10:13:00.769|56=cServer|57=TRADE|10=208|8=FIX.4.4|9=114|35=0|34=244|49=demo.ctrader.3873996|50=3873996MUTQRXa5mNB58PGEBqTDrg|52=20231227-10:13:30.770|56=cServer|57=TRADE|10=204|8=FIX.4.4|9=114|35=0|34=245|49=demo.ctrader.3873996|50=3873996MUTQRXa5mNB58PGEBqTDrg|52=20231227-10:14:00.791|56=cServer|57=TRADE|10=206|8=FIX.4.4|9=114|35=0|34=246|49=demo.ctrader.3873996|50=3873996MUTQRXa5mNB58PGEBqTDrg|52=20231227-10:14:30.914|56=cServer|57=TRADE|10=207|8=FIX.4.4|9=114|35=0|34=247|49=demo.ctrader.3873996|50=3873996MUTQRXa5mNB58PGEBqTDrg|52=20231227-10:15:01.758|56=cServer|57=TRADE|10=213|8=FIX.4.4|9=114|35=0|34=248|49=demo.ctrader.3873996|50=3873996MUTQRXa5mNB58PGEBqTDrg|52=20231227-10:15:31.762|56=cServer|57=TRADE|10=212|8=FIX.4.4|9=114|35=0|34=249|49=demo.ctrader.3873996|50=3873996MUTQRXa5mNB58PGEBqTDrg|52=20231227-10:16:02.770|56=cServer|57=TRADE|10=211|8=FIX.4.4|9=114|35=0|34=250|49=demo.ctrader.3873996|50=3873996MUTQRXa5mNB58PGEBqTDrg|52=20231227-10:16:32.946|56=cServer|57=TRADE|10=211|8=FIX.4.4|9=114|35=0|34=251|49=demo.ctrader.3873996|50=3873996MUTQRXa5mNB58PGEBqTDrg|52=20231227-10:17:03.773|56=cServer|57=TRADE|10=209|