8=FIX.4.4|9=244|35=A|34=1|49=demo.ctrader.3873996|50=3873996S3PWlHCNn4S_un3J5zu1ZQ|52=20240104-14:10:48.220|56=cServer|57=TRADE|49=demo.ctrader.3873996|50=3873996S3PWlHCNn4S_un3J5zu1ZQ|52=20240104-14:10:48|56=cServer|98=0|108=30|141=Y|553=3873996|554=Gtlfx125|10=154|8=FIX.4.4|9=130|35=x|34=2|49=demo.ctrader.3873996|50=3873996S3PWlHCNn4S_un3J5zu1ZQ|52=20240104-14:10:48.856|56=cServer|57=TRADE|320=symbols|559=0|10=213|8=FIX.4.4|9=127|35=AN|34=3|49=demo.ctrader.3873996|50=3873996S3PWlHCNn4S_un3J5zu1ZQ|52=20240104-14:10:49.163|56=cServer|57=TRADE|710=Positions|10=156|8=FIX.4.4|9=130|35=AF|34=4|49=demo.ctrader.3873996|50=3873996S3PWlHCNn4S_un3J5zu1ZQ|52=20240104-14:10:49.164|56=cServer|57=TRADE|584=Orders|585=7|10=087|8=FIX.4.4|9=112|35=0|34=5|49=demo.ctrader.3873996|50=3873996S3PWlHCNn4S_un3J5zu1ZQ|52=20240104-14:11:19.772|56=cServer|57=TRADE|10=159|8=FIX.4.4|9=112|35=0|34=6|49=demo.ctrader.3873996|50=3873996S3PWlHCNn4S_un3J5zu1ZQ|52=20240104-14:11:49.939|56=cServer|57=TRADE|10=168|8=FIX.4.4|9=127|35=AN|34=7|49=demo.ctrader.3873996|50=3873996S3PWlHCNn4S_un3J5zu1ZQ|52=20240104-14:12:12.389|56=cServer|57=TRADE|710=Positions|10=162|8=FIX.4.4|9=112|35=0|34=8|49=demo.ctrader.3873996|50=3873996S3PWlHCNn4S_un3J5zu1ZQ|52=20240104-14:12:42.946|56=cServer|57=TRADE|10=162|8=FIX.4.4|9=112|35=0|34=9|49=demo.ctrader.3873996|50=3873996S3PWlHCNn4S_un3J5zu1ZQ|52=20240104-14:13:13.948|56=cServer|57=TRADE|10=164|8=FIX.4.4|9=113|35=0|34=10|49=demo.ctrader.3873996|50=3873996S3PWlHCNn4S_un3J5zu1ZQ|52=20240104-14:13:44.026|56=cServer|57=TRADE|10=196|8=FIX.4.4|9=113|35=0|34=11|49=demo.ctrader.3873996|50=3873996S3PWlHCNn4S_un3J5zu1ZQ|52=20240104-14:14:14.953|56=cServer|57=TRADE|10=204|8=FIX.4.4|9=113|35=0|34=12|49=demo.ctrader.3873996|50=3873996S3PWlHCNn4S_un3J5zu1ZQ|52=20240104-14:14:45.004|56=cServer|57=TRADE|10=196|8=FIX.4.4|9=113|35=0|34=13|49=demo.ctrader.3873996|50=3873996S3PWlHCNn4S_un3J5zu1ZQ|52=20240104-14:15:15.970|56=cServer|57=TRADE|10=207|8=FIX.4.4|9=113|35=0|34=14|49=demo.ctrader.3873996|50=3873996S3PWlHCNn4S_un3J5zu1ZQ|52=20240104-14:15:46.981|56=cServer|57=TRADE|10=214|8=FIX.4.4|9=113|35=0|34=15|49=demo.ctrader.3873996|50=3873996S3PWlHCNn4S_un3J5zu1ZQ|52=20240104-14:16:16.985|56=cServer|57=TRADE|10=217|8=FIX.4.4|9=113|35=0|34=16|49=demo.ctrader.3873996|50=3873996S3PWlHCNn4S_un3J5zu1ZQ|52=20240104-14:16:46.989|56=cServer|57=TRADE|10=225|8=FIX.4.4|9=113|35=0|34=17|49=demo.ctrader.3873996|50=3873996S3PWlHCNn4S_un3J5zu1ZQ|52=20240104-14:17:17.025|56=cServer|57=TRADE|10=206|8=FIX.4.4|9=113|35=0|34=18|49=demo.ctrader.3873996|50=3873996S3PWlHCNn4S_un3J5zu1ZQ|52=20240104-14:17:47.988|56=cServer|57=TRADE|10=228|8=FIX.4.4|9=113|35=0|34=19|49=demo.ctrader.3873996|50=3873996S3PWlHCNn4S_un3J5zu1ZQ|52=20240104-14:18:18.040|56=cServer|57=TRADE|10=207|8=FIX.4.4|9=113|35=0|34=20|49=demo.ctrader.3873996|50=3873996S3PWlHCNn4S_un3J5zu1ZQ|52=20240104-14:18:49.048|56=cServer|57=TRADE|10=211|8=FIX.4.4|9=113|35=0|34=21|49=demo.ctrader.3873996|50=3873996S3PWlHCNn4S_un3J5zu1ZQ|52=20240104-14:19:19.063|56=cServer|57=TRADE|10=207|8=FIX.4.4|9=113|35=0|34=22|49=demo.ctrader.3873996|50=3873996S3PWlHCNn4S_un3J5zu1ZQ|52=20240104-14:19:50.049|56=cServer|57=TRADE|10=207|8=FIX.4.4|9=113|35=0|34=23|49=demo.ctrader.3873996|50=3873996S3PWlHCNn4S_un3J5zu1ZQ|52=20240104-14:20:20.994|56=cServer|57=TRADE|10=206|8=FIX.4.4|9=113|35=0|34=24|49=demo.ctrader.3873996|50=3873996S3PWlHCNn4S_un3J5zu1ZQ|52=20240104-14:20:51.018|56=cServer|57=TRADE|10=198|8=FIX.4.4|9=113|35=0|34=25|49=demo.ctrader.3873996|50=3873996S3PWlHCNn4S_un3J5zu1ZQ|52=20240104-14:21:22.016|56=cServer|57=TRADE|10=196|8=FIX.4.4|9=113|35=0|34=26|49=demo.ctrader.3873996|50=3873996S3PWlHCNn4S_un3J5zu1ZQ|52=20240104-14:21:52.039|56=cServer|57=TRADE|10=205|8=FIX.4.4|9=113|35=0|34=27|49=demo.ctrader.3873996|50=3873996S3PWlHCNn4S_un3J5zu1ZQ|52=20240104-14:22:23.000|56=cServer|57=TRADE|10=193|8=FIX.4.4|9=113|35=0|34=28|49=demo.ctrader.3873996|50=3873996S3PWlHCNn4S_un3J5zu1ZQ|52=20240104-14:22:53.025|56=cServer|57=TRADE|10=204|8=FIX.4.4|9=113|35=0|34=29|49=demo.ctrader.3873996|50=3873996S3PWlHCNn4S_un3J5zu1ZQ|52=20240104-14:23:23.053|56=cServer|57=TRADE|10=204|8=FIX.4.4|9=113|35=0|34=30|49=demo.ctrader.3873996|50=3873996S3PWlHCNn4S_un3J5zu1ZQ|52=20240104-14:23:54.034|56=cServer|57=TRADE|10=199|8=FIX.4.4|9=113|35=0|34=31|49=demo.ctrader.3873996|50=3873996S3PWlHCNn4S_un3J5zu1ZQ|52=20240104-14:24:24.071|56=cServer|57=TRADE|10=199|8=FIX.4.4|9=113|35=0|34=32|49=demo.ctrader.3873996|50=3873996S3PWlHCNn4S_un3J5zu1ZQ|52=20240104-14:24:55.052|56=cServer|57=TRADE|10=203|8=FIX.4.4|9=113|35=0|34=33|49=demo.ctrader.3873996|50=3873996S3PWlHCNn4S_un3J5zu1ZQ|52=20240104-14:25:26.039|56=cServer|57=TRADE|10=208|8=FIX.4.4|9=113|35=0|34=34|49=demo.ctrader.3873996|50=3873996S3PWlHCNn4S_un3J5zu1ZQ|52=20240104-14:25:56.076|56=cServer|57=TRADE|10=213|8=FIX.4.4|9=113|35=0|34=35|49=demo.ctrader.3873996|50=3873996S3PWlHCNn4S_un3J5zu1ZQ|52=20240104-14:26:27.037|56=cServer|57=TRADE|10=210|8=FIX.4.4|9=113|35=0|34=36|49=demo.ctrader.3873996|50=3873996S3PWlHCNn4S_un3J5zu1ZQ|52=20240104-14:26:57.057|56=cServer|57=TRADE|10=216|8=FIX.4.4|9=113|35=0|34=37|49=demo.ctrader.3873996|50=3873996S3PWlHCNn4S_un3J5zu1ZQ|52=20240104-14:27:28.046|56=cServer|57=TRADE|10=214|8=FIX.4.4|9=113|35=0|34=38|49=demo.ctrader.3873996|50=3873996S3PWlHCNn4S_un3J5zu1ZQ|52=20240104-14:27:58.096|56=cServer|57=TRADE|10=223|8=FIX.4.4|9=113|35=0|34=39|49=demo.ctrader.3873996|50=3873996S3PWlHCNn4S_un3J5zu1ZQ|52=20240104-14:28:29.056|56=cServer|57=TRADE|10=219|8=FIX.4.4|9=113|35=0|34=40|49=demo.ctrader.3873996|50=3873996S3PWlHCNn4S_un3J5zu1ZQ|52=20240104-14:28:59.070|56=cServer|57=TRADE|10=210|8=FIX.4.4|9=113|35=0|34=41|49=demo.ctrader.3873996|50=3873996S3PWlHCNn4S_un3J5zu1ZQ|52=20240104-14:29:29.180|56=cServer|57=TRADE|10=211|8=FIX.4.4|9=113|35=0|34=42|49=demo.ctrader.3873996|50=3873996S3PWlHCNn4S_un3J5zu1ZQ|52=20240104-14:30:00.114|56=cServer|57=TRADE|10=190|8=FIX.4.4|9=113|35=0|34=43|49=demo.ctrader.3873996|50=3873996S3PWlHCNn4S_un3J5zu1ZQ|52=20240104-14:30:30.133|56=cServer|57=TRADE|10=195|8=FIX.4.4|9=113|35=0|34=44|49=demo.ctrader.3873996|50=3873996S3PWlHCNn4S_un3J5zu1ZQ|52=20240104-14:31:00.485|56=cServer|57=TRADE|10=204|8=FIX.4.4|9=113|35=0|34=45|49=demo.ctrader.3873996|50=3873996S3PWlHCNn4S_un3J5zu1ZQ|52=20240104-14:31:31.200|56=cServer|57=TRADE|10=194|8=FIX.4.4|9=113|35=0|34=46|49=demo.ctrader.3873996|50=3873996S3PWlHCNn4S_un3J5zu1ZQ|52=20240104-14:32:01.393|56=cServer|57=TRADE|10=206|8=FIX.4.4|9=113|35=0|34=47|49=demo.ctrader.3873996|50=3873996S3PWlHCNn4S_un3J5zu1ZQ|52=20240104-14:32:32.151|56=cServer|57=TRADE|10=203|8=FIX.4.4|9=113|35=0|34=48|49=demo.ctrader.3873996|50=3873996S3PWlHCNn4S_un3J5zu1ZQ|52=20240104-14:33:03.073|56=cServer|57=TRADE|10=206|8=FIX.4.4|9=113|35=0|34=49|49=demo.ctrader.3873996|50=3873996S3PWlHCNn4S_un3J5zu1ZQ|52=20240104-14:33:33.293|56=cServer|57=TRADE|10=214|8=FIX.4.4|9=113|35=0|34=50|49=demo.ctrader.3873996|50=3873996S3PWlHCNn4S_un3J5zu1ZQ|52=20240104-14:34:03.306|56=cServer|57=TRADE|10=199|8=FIX.4.4|9=113|35=0|34=51|49=demo.ctrader.3873996|50=3873996S3PWlHCNn4S_un3J5zu1ZQ|52=20240104-14:34:33.398|56=cServer|57=TRADE|10=214|8=FIX.4.4|9=113|35=0|34=52|49=demo.ctrader.3873996|50=3873996S3PWlHCNn4S_un3J5zu1ZQ|52=20240104-14:35:04.284|56=cServer|57=TRADE|10=208|8=FIX.4.4|9=113|35=0|34=53|49=demo.ctrader.3873996|50=3873996S3PWlHCNn4S_un3J5zu1ZQ|52=20240104-14:35:35.151|56=cServer|57=TRADE|10=206|8=FIX.4.4|9=113|35=0|34=54|49=demo.ctrader.3873996|50=3873996S3PWlHCNn4S_un3J5zu1ZQ|52=20240104-14:36:06.163|56=cServer|57=TRADE|10=209|8=FIX.4.4|9=113|35=0|34=55|49=demo.ctrader.3873996|50=3873996S3PWlHCNn4S_un3J5zu1ZQ|52=20240104-14:36:36.226|56=cServer|57=TRADE|10=213|8=FIX.4.4|9=113|35=0|34=56|49=demo.ctrader.3873996|50=3873996S3PWlHCNn4S_un3J5zu1ZQ|52=20240104-14:37:07.198|56=cServer|57=TRADE|10=221|8=FIX.4.4|9=113|35=0|34=57|49=demo.ctrader.3873996|50=3873996S3PWlHCNn4S_un3J5zu1ZQ|52=20240104-14:37:37.477|56=cServer|57=TRADE|10=225|8=FIX.4.4|9=113|35=0|34=58|49=demo.ctrader.3873996|50=3873996S3PWlHCNn4S_un3J5zu1ZQ|52=20240104-14:38:08.265|56=cServer|57=TRADE|10=220|8=FIX.4.4|9=113|35=0|34=59|49=demo.ctrader.3873996|50=3873996S3PWlHCNn4S_un3J5zu1ZQ|52=20240104-14:38:38.293|56=cServer|57=TRADE|10=225|8=FIX.4.4|9=113|35=0|34=60|49=demo.ctrader.3873996|50=3873996S3PWlHCNn4S_un3J5zu1ZQ|52=20240104-14:39:08.373|56=cServer|57=TRADE|10=214|8=FIX.4.4|9=113|35=0|34=61|49=demo.ctrader.3873996|50=3873996S3PWlHCNn4S_un3J5zu1ZQ|52=20240104-14:39:39.231|56=cServer|57=TRADE|10=212|8=FIX.4.4|9=113|35=0|34=62|49=demo.ctrader.3873996|50=3873996S3PWlHCNn4S_un3J5zu1ZQ|52=20240104-14:40:09.302|56=cServer|57=TRADE|10=201|8=FIX.4.4|9=113|35=0|34=63|49=demo.ctrader.3873996|50=3873996S3PWlHCNn4S_un3J5zu1ZQ|52=20240104-14:40:40.156|56=cServer|57=TRADE|10=204|8=FIX.4.4|9=113|35=0|34=64|49=demo.ctrader.3873996|50=3873996S3PWlHCNn4S_un3J5zu1ZQ|52=20240104-14:41:11.160|56=cServer|57=TRADE|10=199|8=FIX.4.4|9=113|35=0|34=65|49=demo.ctrader.3873996|50=3873996S3PWlHCNn4S_un3J5zu1ZQ|52=20240104-14:41:41.196|56=cServer|57=TRADE|10=212|8=FIX.4.4|9=113|35=0|34=66|49=demo.ctrader.3873996|50=3873996S3PWlHCNn4S_un3J5zu1ZQ|52=20240104-14:42:12.196|56=cServer|57=TRADE|10=212|8=FIX.4.4|9=113|35=0|34=67|49=demo.ctrader.3873996|50=3873996S3PWlHCNn4S_un3J5zu1ZQ|52=20240104-14:42:42.218|56=cServer|57=TRADE|10=211|8=FIX.4.4|9=113|35=0|34=68|49=demo.ctrader.3873996|50=3873996S3PWlHCNn4S_un3J5zu1ZQ|52=20240104-14:43:12.241|56=cServer|57=TRADE|10=206|8=FIX.4.4|9=113|35=0|34=69|49=demo.ctrader.3873996|50=3873996S3PWlHCNn4S_un3J5zu1ZQ|52=20240104-14:43:42.934|56=cServer|57=TRADE|10=219|8=FIX.4.4|9=113|35=0|34=70|49=demo.ctrader.3873996|50=3873996S3PWlHCNn4S_un3J5zu1ZQ|52=20240104-14:44:12.943|56=cServer|57=TRADE|10=209|8=FIX.4.4|9=113|35=0|34=71|49=demo.ctrader.3873996|50=3873996S3PWlHCNn4S_un3J5zu1ZQ|52=20240104-14:44:43.944|56=cServer|57=TRADE|10=215|8=FIX.4.4|9=113|35=0|34=72|49=demo.ctrader.3873996|50=3873996S3PWlHCNn4S_un3J5zu1ZQ|52=20240104-14:45:13.948|56=cServer|57=TRADE|10=218|8=FIX.4.4|9=113|35=0|34=73|49=demo.ctrader.3873996|50=3873996S3PWlHCNn4S_un3J5zu1ZQ|52=20240104-14:45:44.951|56=cServer|57=TRADE|10=217|8=FIX.4.4|9=113|35=0|34=74|49=demo.ctrader.3873996|50=3873996S3PWlHCNn4S_un3J5zu1ZQ|52=20240104-14:46:15.957|56=cServer|57=TRADE|10=223|8=FIX.4.4|9=113|35=0|34=75|49=demo.ctrader.3873996|50=3873996S3PWlHCNn4S_un3J5zu1ZQ|52=20240104-14:46:46.019|56=cServer|57=TRADE|10=217|8=FIX.4.4|9=113|35=0|34=76|49=demo.ctrader.3873996|50=3873996S3PWlHCNn4S_un3J5zu1ZQ|52=20240104-14:47:16.963|56=cServer|57=TRADE|10=224|8=FIX.4.4|9=113|35=0|34=77|49=demo.ctrader.3873996|50=3873996S3PWlHCNn4S_un3J5zu1ZQ|52=20240104-14:47:47.037|56=cServer|57=TRADE|10=221|8=FIX.4.4|9=113|35=0|34=78|49=demo.ctrader.3873996|50=3873996S3PWlHCNn4S_un3J5zu1ZQ|52=20240104-14:48:17.950|56=cServer|57=TRADE|10=224|8=FIX.4.4|9=113|35=0|34=79|49=demo.ctrader.3873996|50=3873996S3PWlHCNn4S_un3J5zu1ZQ|52=20240104-14:48:47.972|56=cServer|57=TRADE|10=232|8=FIX.4.4|9=113|35=0|34=80|49=demo.ctrader.3873996|50=3873996S3PWlHCNn4S_un3J5zu1ZQ|52=20240104-14:49:18.973|56=cServer|57=TRADE|10=224|8=FIX.4.4|9=113|35=0|34=81|49=demo.ctrader.3873996|50=3873996S3PWlHCNn4S_un3J5zu1ZQ|52=20240104-14:49:49.026|56=cServer|57=TRADE|10=218|8=FIX.4.4|9=113|35=0|34=82|49=demo.ctrader.3873996|50=3873996S3PWlHCNn4S_un3J5zu1ZQ|52=20240104-14:50:19.999|56=cServer|57=TRADE|10=227|8=FIX.4.4|9=113|35=0|34=83|49=demo.ctrader.3873996|50=3873996S3PWlHCNn4S_un3J5zu1ZQ|52=20240104-14:50:50.992|56=cServer|57=TRADE|10=216|8=FIX.4.4|9=113|35=0|34=84|49=demo.ctrader.3873996|50=3873996S3PWlHCNn4S_un3J5zu1ZQ|52=20240104-14:51:21.038|56=cServer|57=TRADE|10=207|8=FIX.4.4|9=113|35=0|34=85|49=demo.ctrader.3873996|50=3873996S3PWlHCNn4S_un3J5zu1ZQ|52=20240104-14:51:52.033|56=cServer|57=TRADE|10=207|8=FIX.4.4|9=113|35=0|34=86|49=demo.ctrader.3873996|50=3873996S3PWlHCNn4S_un3J5zu1ZQ|52=20240104-14:52:23.001|56=cServer|57=TRADE|10=202|8=FIX.4.4|9=113|35=0|34=87|49=demo.ctrader.3873996|50=3873996S3PWlHCNn4S_un3J5zu1ZQ|52=20240104-14:52:53.008|56=cServer|57=TRADE|10=213|8=FIX.4.4|9=113|35=0|34=88|49=demo.ctrader.3873996|50=3873996S3PWlHCNn4S_un3J5zu1ZQ|52=20240104-14:53:23.010|56=cServer|57=TRADE|10=205|8=FIX.4.4|9=113|35=0|34=89|49=demo.ctrader.3873996|50=3873996S3PWlHCNn4S_un3J5zu1ZQ|52=20240104-14:53:54.007|56=cServer|57=TRADE|10=216|8=FIX.4.4|9=113|35=0|34=90|49=demo.ctrader.3873996|50=3873996S3PWlHCNn4S_un3J5zu1ZQ|52=20240104-14:54:24.031|56=cServer|57=TRADE|10=203|8=FIX.4.4|9=113|35=0|34=91|49=demo.ctrader.3873996|50=3873996S3PWlHCNn4S_un3J5zu1ZQ|52=20240104-14:54:54.051|56=cServer|57=TRADE|10=209|8=FIX.4.4|9=113|35=0|34=92|49=demo.ctrader.3873996|50=3873996S3PWlHCNn4S_un3J5zu1ZQ|52=20240104-14:55:25.026|56=cServer|57=TRADE|10=211|8=FIX.4.4|9=113|35=0|34=93|49=demo.ctrader.3873996|50=3873996S3PWlHCNn4S_un3J5zu1ZQ|52=20240104-14:55:55.028|56=cServer|57=TRADE|10=217|