8=FIX.4.4|9=244|35=A|34=1|49=demo.ctrader.3873996|50=3873996XZwYPzWFVXyCmF9dJBcZnQ|52=20231221-08:12:53.066|56=cServer|57=TRADE|49=demo.ctrader.3873996|50=3873996XZwYPzWFVXyCmF9dJBcZnQ|52=20231221-08:12:53|56=cServer|98=0|108=30|141=Y|553=3873996|554=Gtlfx125|10=174|8=FIX.4.4|9=130|35=x|34=2|49=demo.ctrader.3873996|50=3873996XZwYPzWFVXyCmF9dJBcZnQ|52=20231221-08:12:53.515|56=cServer|57=TRADE|320=symbols|559=0|10=083|8=FIX.4.4|9=127|35=AN|34=3|49=demo.ctrader.3873996|50=3873996XZwYPzWFVXyCmF9dJBcZnQ|52=20231221-08:12:53.682|56=cServer|57=TRADE|710=Positions|10=039|8=FIX.4.4|9=130|35=AF|34=4|49=demo.ctrader.3873996|50=3873996XZwYPzWFVXyCmF9dJBcZnQ|52=20231221-08:12:53.682|56=cServer|57=TRADE|584=Orders|585=7|10=225|8=FIX.4.4|9=112|35=0|34=5|49=demo.ctrader.3873996|50=3873996XZwYPzWFVXyCmF9dJBcZnQ|52=20231221-08:13:24.107|56=cServer|57=TRADE|10=029|8=FIX.4.4|9=112|35=0|34=6|49=demo.ctrader.3873996|50=3873996XZwYPzWFVXyCmF9dJBcZnQ|52=20231221-08:13:54.148|56=cServer|57=TRADE|10=038|8=FIX.4.4|9=112|35=0|34=7|49=demo.ctrader.3873996|50=3873996XZwYPzWFVXyCmF9dJBcZnQ|52=20231221-08:14:24.150|56=cServer|57=TRADE|10=030|8=FIX.4.4|9=112|35=0|34=8|49=demo.ctrader.3873996|50=3873996XZwYPzWFVXyCmF9dJBcZnQ|52=20231221-08:14:55.161|56=cServer|57=TRADE|10=037|8=FIX.4.4|9=112|35=0|34=9|49=demo.ctrader.3873996|50=3873996XZwYPzWFVXyCmF9dJBcZnQ|52=20231221-08:15:25.175|56=cServer|57=TRADE|10=041|8=FIX.4.4|9=113|35=0|34=10|49=demo.ctrader.3873996|50=3873996XZwYPzWFVXyCmF9dJBcZnQ|52=20231221-08:15:55.290|56=cServer|57=TRADE|10=083|8=FIX.4.4|9=113|35=0|34=11|49=demo.ctrader.3873996|50=3873996XZwYPzWFVXyCmF9dJBcZnQ|52=20231221-08:16:26.171|56=cServer|57=TRADE|10=081|8=FIX.4.4|9=113|35=0|34=12|49=demo.ctrader.3873996|50=3873996XZwYPzWFVXyCmF9dJBcZnQ|52=20231221-08:16:57.157|56=cServer|57=TRADE|10=090|8=FIX.4.4|9=113|35=0|34=13|49=demo.ctrader.3873996|50=3873996XZwYPzWFVXyCmF9dJBcZnQ|52=20231221-08:17:27.164|56=cServer|57=TRADE|10=087|8=FIX.4.4|9=113|35=0|34=14|49=demo.ctrader.3873996|50=3873996XZwYPzWFVXyCmF9dJBcZnQ|52=20231221-08:17:57.173|56=cServer|57=TRADE|10=091|8=FIX.4.4|9=113|35=0|34=15|49=demo.ctrader.3873996|50=3873996XZwYPzWFVXyCmF9dJBcZnQ|52=20231221-08:18:27.182|56=cServer|57=TRADE|10=090|8=FIX.4.4|9=113|35=0|34=16|49=demo.ctrader.3873996|50=3873996XZwYPzWFVXyCmF9dJBcZnQ|52=20231221-08:18:57.758|56=cServer|57=TRADE|10=103|8=FIX.4.4|9=113|35=0|34=17|49=demo.ctrader.3873996|50=3873996XZwYPzWFVXyCmF9dJBcZnQ|52=20231221-08:19:28.619|56=cServer|57=TRADE|10=099|8=FIX.4.4|9=113|35=0|34=18|49=demo.ctrader.3873996|50=3873996XZwYPzWFVXyCmF9dJBcZnQ|52=20231221-08:19:59.244|56=cServer|57=TRADE|10=098|8=FIX.4.4|9=113|35=0|34=19|49=demo.ctrader.3873996|50=3873996XZwYPzWFVXyCmF9dJBcZnQ|52=20231221-08:20:30.203|56=cServer|57=TRADE|10=075|8=FIX.4.4|9=113|35=0|34=20|49=demo.ctrader.3873996|50=3873996XZwYPzWFVXyCmF9dJBcZnQ|52=20231221-08:21:00.342|56=cServer|57=TRADE|10=069|8=FIX.4.4|9=113|35=0|34=21|49=demo.ctrader.3873996|50=3873996XZwYPzWFVXyCmF9dJBcZnQ|52=20231221-08:21:30.358|56=cServer|57=TRADE|10=080|8=FIX.4.4|9=113|35=0|34=22|49=demo.ctrader.3873996|50=3873996XZwYPzWFVXyCmF9dJBcZnQ|52=20231221-08:22:01.219|56=cServer|57=TRADE|10=076|8=FIX.4.4|9=113|35=0|34=23|49=demo.ctrader.3873996|50=3873996XZwYPzWFVXyCmF9dJBcZnQ|52=20231221-08:22:31.422|56=cServer|57=TRADE|10=076|8=FIX.4.4|9=113|35=0|34=24|49=demo.ctrader.3873996|50=3873996XZwYPzWFVXyCmF9dJBcZnQ|52=20231221-08:23:01.908|56=cServer|57=TRADE|10=084|8=FIX.4.4|9=113|35=0|34=25|49=demo.ctrader.3873996|50=3873996XZwYPzWFVXyCmF9dJBcZnQ|52=20231221-08:23:33.098|56=cServer|57=TRADE|10=090|8=FIX.4.4|9=113|35=0|34=26|49=demo.ctrader.3873996|50=3873996XZwYPzWFVXyCmF9dJBcZnQ|52=20231221-08:24:03.205|56=cServer|57=TRADE|10=079|8=FIX.4.4|9=227|35=5|34=27|49=demo.ctrader.3873996|50=3873996XZwYPzWFVXyCmF9dJBcZnQ|52=20231221-08:24:18.709|56=cServer|57=TRADE|49=demo.ctrader.3873996|50=3873996XZwYPzWFVXyCmF9dJBcZnQ|52=20231221-08:24:18|56=cServer|553=3873996|554=Gtlfx125|10=161|8=FIX.4.4|9=227|35=5|34=28|49=demo.ctrader.3873996|50=3873996XZwYPzWFVXyCmF9dJBcZnQ|52=20231221-08:24:18.754|56=cServer|57=TRADE|49=demo.ctrader.3873996|50=3873996XZwYPzWFVXyCmF9dJBcZnQ|52=20231221-08:24:18|56=cServer|553=3873996|554=Gtlfx125|10=162|