8=FIX.4.4|9=244|35=A|34=1|49=demo.ctrader.3873996|50=3873996fnFog5V2PF8o3UiX9y4vvA|52=20240104-08:23:21.193|56=cServer|57=TRADE|49=demo.ctrader.3873996|50=3873996fnFog5V2PF8o3UiX9y4vvA|52=20240104-08:23:21|56=cServer|98=0|108=30|141=Y|553=3873996|554=Gtlfx125|10=223|8=FIX.4.4|9=130|35=x|34=2|49=demo.ctrader.3873996|50=3873996fnFog5V2PF8o3UiX9y4vvA|52=20240104-08:23:21.848|56=cServer|57=TRADE|320=symbols|559=0|10=244|8=FIX.4.4|9=127|35=AN|34=3|49=demo.ctrader.3873996|50=3873996fnFog5V2PF8o3UiX9y4vvA|52=20240104-08:23:22.090|56=cServer|57=TRADE|710=Positions|10=185|8=FIX.4.4|9=130|35=AF|34=4|49=demo.ctrader.3873996|50=3873996fnFog5V2PF8o3UiX9y4vvA|52=20240104-08:23:22.091|56=cServer|57=TRADE|584=Orders|585=7|10=116|8=FIX.4.4|9=177|35=D|34=5|49=demo.ctrader.3873996|50=3873996fnFog5V2PF8o3UiX9y4vvA|52=20240104-08:23:50.785|56=cServer|57=TRADE|11=68421674|38=1000|40=1|54=1|55=2|59=3|60=20240104-13:23:50.784|10=200|8=FIX.4.4|9=112|35=0|34=6|49=demo.ctrader.3873996|50=3873996fnFog5V2PF8o3UiX9y4vvA|52=20240104-08:24:21.478|56=cServer|57=TRADE|10=195|8=FIX.4.4|9=177|35=D|34=7|49=demo.ctrader.3873996|50=3873996fnFog5V2PF8o3UiX9y4vvA|52=20240104-08:24:37.963|56=cServer|57=TRADE|11=68421675|38=1000|40=1|54=1|55=2|59=3|60=20240104-13:24:37.962|10=211|8=FIX.4.4|9=112|35=0|34=8|49=demo.ctrader.3873996|50=3873996fnFog5V2PF8o3UiX9y4vvA|52=20240104-08:25:08.584|56=cServer|57=TRADE|10=201|8=FIX.4.4|9=226|35=5|34=9|49=demo.ctrader.3873996|50=3873996fnFog5V2PF8o3UiX9y4vvA|52=20240104-08:25:31.920|56=cServer|57=TRADE|49=demo.ctrader.3873996|50=3873996fnFog5V2PF8o3UiX9y4vvA|52=20240104-08:25:31|56=cServer|553=3873996|554=Gtlfx125|10=153|8=FIX.4.4|9=227|35=5|34=10|49=demo.ctrader.3873996|50=3873996fnFog5V2PF8o3UiX9y4vvA|52=20240104-08:25:31.961|56=cServer|57=TRADE|49=demo.ctrader.3873996|50=3873996fnFog5V2PF8o3UiX9y4vvA|52=20240104-08:25:31|56=cServer|553=3873996|554=Gtlfx125|10=199|