8=FIX.4.4|9=244|35=A|34=1|49=demo.ctrader.3873996|50=38739961qRHpK_RAWhZJ1nirZjm4w|52=20231226-10:24:38.788|56=cServer|57=QUOTE|49=demo.ctrader.3873996|50=38739961qRHpK_RAWhZJ1nirZjm4w|52=20231226-10:24:38|56=cServer|98=0|108=30|141=Y|553=3873996|554=Gtlfx125|10=205|8=FIX.4.4|9=170|35=V|34=2|49=demo.ctrader.3873996|50=38739961qRHpK_RAWhZJ1nirZjm4w|52=20231226-10:24:40.839|56=cServer|57=QUOTE|262=MARKETDATAID|263=1|264=1|267=2|269=0|269=1|146=1|55=1|10=204|8=FIX.4.4|9=170|35=V|34=3|49=demo.ctrader.3873996|50=38739961qRHpK_RAWhZJ1nirZjm4w|52=20231226-10:24:40.840|56=cServer|57=QUOTE|262=MARKETDATAID|263=1|264=1|267=2|269=0|269=1|146=1|55=2|10=198|8=FIX.4.4|9=170|35=V|34=4|49=demo.ctrader.3873996|50=38739961qRHpK_RAWhZJ1nirZjm4w|52=20231226-10:24:40.841|56=cServer|57=QUOTE|262=MARKETDATAID|263=1|264=1|267=2|269=0|269=1|146=1|55=3|10=201|8=FIX.4.4|9=170|35=V|34=5|49=demo.ctrader.3873996|50=38739961qRHpK_RAWhZJ1nirZjm4w|52=20231226-10:24:40.841|56=cServer|57=QUOTE|262=MARKETDATAID|263=1|264=1|267=2|269=0|269=1|146=1|55=4|10=203|8=FIX.4.4|9=170|35=V|34=6|49=demo.ctrader.3873996|50=38739961qRHpK_RAWhZJ1nirZjm4w|52=20231226-10:24:40.841|56=cServer|57=QUOTE|262=MARKETDATAID|263=1|264=1|267=2|269=0|269=1|146=1|55=5|10=205|8=FIX.4.4|9=170|35=V|34=7|49=demo.ctrader.3873996|50=38739961qRHpK_RAWhZJ1nirZjm4w|52=20231226-10:24:40.841|56=cServer|57=QUOTE|262=MARKETDATAID|263=1|264=1|267=2|269=0|269=1|146=1|55=6|10=207|8=FIX.4.4|9=170|35=V|34=8|49=demo.ctrader.3873996|50=38739961qRHpK_RAWhZJ1nirZjm4w|52=20231226-10:24:40.841|56=cServer|57=QUOTE|262=MARKETDATAID|263=1|264=1|267=2|269=0|269=1|146=1|55=7|10=209|8=FIX.4.4|9=170|35=V|34=9|49=demo.ctrader.3873996|50=38739961qRHpK_RAWhZJ1nirZjm4w|52=20231226-10:24:40.842|56=cServer|57=QUOTE|262=MARKETDATAID|263=1|264=1|267=2|269=0|269=1|146=1|55=8|10=212|8=FIX.4.4|9=171|35=V|34=10|49=demo.ctrader.3873996|50=38739961qRHpK_RAWhZJ1nirZjm4w|52=20231226-10:24:40.842|56=cServer|57=QUOTE|262=MARKETDATAID|263=1|264=1|267=2|269=0|269=1|146=1|55=9|10=254|8=FIX.4.4|9=172|35=V|34=11|49=demo.ctrader.3873996|50=38739961qRHpK_RAWhZJ1nirZjm4w|52=20231226-10:24:40.842|56=cServer|57=QUOTE|262=MARKETDATAID|263=1|264=1|267=2|269=0|269=1|146=1|55=10|10=040|8=FIX.4.4|9=172|35=V|34=12|49=demo.ctrader.3873996|50=38739961qRHpK_RAWhZJ1nirZjm4w|52=20231226-10:24:40.842|56=cServer|57=QUOTE|262=MARKETDATAID|263=1|264=1|267=2|269=0|269=1|146=1|55=11|10=042|8=FIX.4.4|9=172|35=V|34=13|49=demo.ctrader.3873996|50=38739961qRHpK_RAWhZJ1nirZjm4w|52=20231226-10:24:40.842|56=cServer|57=QUOTE|262=MARKETDATAID|263=1|264=1|267=2|269=0|269=1|146=1|55=12|10=044|8=FIX.4.4|9=172|35=V|34=14|49=demo.ctrader.3873996|50=38739961qRHpK_RAWhZJ1nirZjm4w|52=20231226-10:24:40.842|56=cServer|57=QUOTE|262=MARKETDATAID|263=1|264=1|267=2|269=0|269=1|146=1|55=13|10=046|8=FIX.4.4|9=172|35=V|34=15|49=demo.ctrader.3873996|50=38739961qRHpK_RAWhZJ1nirZjm4w|52=20231226-10:24:40.842|56=cServer|57=QUOTE|262=MARKETDATAID|263=1|264=1|267=2|269=0|269=1|146=1|55=14|10=048|8=FIX.4.4|9=172|35=V|34=16|49=demo.ctrader.3873996|50=38739961qRHpK_RAWhZJ1nirZjm4w|52=20231226-10:24:40.842|56=cServer|57=QUOTE|262=MARKETDATAID|263=1|264=1|267=2|269=0|269=1|146=1|55=15|10=050|8=FIX.4.4|9=172|35=V|34=17|49=demo.ctrader.3873996|50=38739961qRHpK_RAWhZJ1nirZjm4w|52=20231226-10:24:40.843|56=cServer|57=QUOTE|262=MARKETDATAID|263=1|264=1|267=2|269=0|269=1|146=1|55=16|10=053|8=FIX.4.4|9=172|35=V|34=18|49=demo.ctrader.3873996|50=38739961qRHpK_RAWhZJ1nirZjm4w|52=20231226-10:24:40.843|56=cServer|57=QUOTE|262=MARKETDATAID|263=1|264=1|267=2|269=0|269=1|146=1|55=17|10=055|8=FIX.4.4|9=172|35=V|34=19|49=demo.ctrader.3873996|50=38739961qRHpK_RAWhZJ1nirZjm4w|52=20231226-10:24:40.843|56=cServer|57=QUOTE|262=MARKETDATAID|263=1|264=1|267=2|269=0|269=1|146=1|55=18|10=057|8=FIX.4.4|9=172|35=V|34=20|49=demo.ctrader.3873996|50=38739961qRHpK_RAWhZJ1nirZjm4w|52=20231226-10:24:40.843|56=cServer|57=QUOTE|262=MARKETDATAID|263=1|264=1|267=2|269=0|269=1|146=1|55=19|10=050|8=FIX.4.4|9=172|35=V|34=21|49=demo.ctrader.3873996|50=38739961qRHpK_RAWhZJ1nirZjm4w|52=20231226-10:24:40.843|56=cServer|57=QUOTE|262=MARKETDATAID|263=1|264=1|267=2|269=0|269=1|146=1|55=22|10=045|8=FIX.4.4|9=113|35=0|34=22|49=demo.ctrader.3873996|50=38739961qRHpK_RAWhZJ1nirZjm4w|52=20231226-10:25:10.936|56=cServer|57=QUOTE|10=104|8=FIX.4.4|9=113|35=0|34=23|49=demo.ctrader.3873996|50=38739961qRHpK_RAWhZJ1nirZjm4w|52=20231226-10:25:40.947|56=cServer|57=QUOTE|10=110|8=FIX.4.4|9=113|35=0|34=24|49=demo.ctrader.3873996|50=38739961qRHpK_RAWhZJ1nirZjm4w|52=20231226-10:26:10.986|56=cServer|57=QUOTE|10=112|