8=FIX.4.4|9=244|35=A|34=1|49=demo.ctrader.3873996|50=3873996sY4s7f_2dKqFc7PtC6-ZjA|52=20231214-07:29:22.494|56=cServer|57=TRADE|49=demo.ctrader.3873996|50=3873996sY4s7f_2dKqFc7PtC6-ZjA|52=20231214-07:29:22|56=cServer|98=0|108=30|141=Y|553=3873996|554=Gtlfx125|10=135|8=FIX.4.4|9=130|35=x|34=2|49=demo.ctrader.3873996|50=3873996sY4s7f_2dKqFc7PtC6-ZjA|52=20231214-07:29:23.110|56=cServer|57=TRADE|320=symbols|559=0|10=181|8=FIX.4.4|9=127|35=AN|34=3|49=demo.ctrader.3873996|50=3873996sY4s7f_2dKqFc7PtC6-ZjA|52=20231214-07:29:23.556|56=cServer|57=TRADE|710=Positions|10=146|8=FIX.4.4|9=130|35=AF|34=4|49=demo.ctrader.3873996|50=3873996sY4s7f_2dKqFc7PtC6-ZjA|52=20231214-07:29:23.556|56=cServer|57=TRADE|584=Orders|585=7|10=076|8=FIX.4.4|9=112|35=0|34=5|49=demo.ctrader.3873996|50=3873996sY4s7f_2dKqFc7PtC6-ZjA|52=20231214-07:29:53.941|56=cServer|57=TRADE|10=146|8=FIX.4.4|9=112|35=0|34=6|49=demo.ctrader.3873996|50=3873996sY4s7f_2dKqFc7PtC6-ZjA|52=20231214-07:30:24.202|56=cServer|57=TRADE|10=127|8=FIX.4.4|9=112|35=0|34=7|49=demo.ctrader.3873996|50=3873996sY4s7f_2dKqFc7PtC6-ZjA|52=20231214-07:30:54.206|56=cServer|57=TRADE|10=135|8=FIX.4.4|9=112|35=0|34=8|49=demo.ctrader.3873996|50=3873996sY4s7f_2dKqFc7PtC6-ZjA|52=20231214-07:31:24.207|56=cServer|57=TRADE|10=135|8=FIX.4.4|9=112|35=0|34=9|49=demo.ctrader.3873996|50=3873996sY4s7f_2dKqFc7PtC6-ZjA|52=20231214-07:31:55.211|56=cServer|57=TRADE|10=135|8=FIX.4.4|9=227|35=5|34=10|49=demo.ctrader.3873996|50=3873996sY4s7f_2dKqFc7PtC6-ZjA|52=20231214-07:32:04.599|56=cServer|57=TRADE|49=demo.ctrader.3873996|50=3873996sY4s7f_2dKqFc7PtC6-ZjA|52=20231214-07:32:04|56=cServer|553=3873996|554=Gtlfx125|10=096|8=FIX.4.4|9=227|35=5|34=11|49=demo.ctrader.3873996|50=3873996sY4s7f_2dKqFc7PtC6-ZjA|52=20231214-07:32:05.727|56=cServer|57=TRADE|49=demo.ctrader.3873996|50=3873996sY4s7f_2dKqFc7PtC6-ZjA|52=20231214-07:32:05|56=cServer|553=3873996|554=Gtlfx125|10=092|