8=FIX.4.4|9=244|35=A|34=1|49=demo.ctrader.3873996|50=3873996eeQ7bOmFf3OWT7VjKRWIqA|52=20231212-13:40:18.368|56=cServer|57=TRADE|49=demo.ctrader.3873996|50=3873996eeQ7bOmFf3OWT7VjKRWIqA|52=20231212-13:40:18|56=cServer|98=0|108=30|141=Y|553=3873996|554=Gtlfx125|10=183|8=FIX.4.4|9=130|35=x|34=2|49=demo.ctrader.3873996|50=3873996eeQ7bOmFf3OWT7VjKRWIqA|52=20231212-13:40:18.879|56=cServer|57=TRADE|320=symbols|559=0|10=226|8=FIX.4.4|9=127|35=AN|34=3|49=demo.ctrader.3873996|50=3873996eeQ7bOmFf3OWT7VjKRWIqA|52=20231212-13:40:19.591|56=cServer|57=TRADE|710=Positions|10=169|8=FIX.4.4|9=130|35=AF|34=4|49=demo.ctrader.3873996|50=3873996eeQ7bOmFf3OWT7VjKRWIqA|52=20231212-13:40:19.591|56=cServer|57=TRADE|584=Orders|585=7|10=099|8=FIX.4.4|9=112|35=0|34=5|49=demo.ctrader.3873996|50=3873996eeQ7bOmFf3OWT7VjKRWIqA|52=20231212-13:40:49.683|56=cServer|57=TRADE|10=173|8=FIX.4.4|9=226|35=5|34=6|49=demo.ctrader.3873996|50=3873996eeQ7bOmFf3OWT7VjKRWIqA|52=20231212-13:41:06.015|56=cServer|57=TRADE|49=demo.ctrader.3873996|50=3873996eeQ7bOmFf3OWT7VjKRWIqA|52=20231212-13:41:06|56=cServer|553=3873996|554=Gtlfx125|10=091|8=FIX.4.4|9=226|35=5|34=7|49=demo.ctrader.3873996|50=3873996eeQ7bOmFf3OWT7VjKRWIqA|52=20231212-13:41:06.353|56=cServer|57=TRADE|49=demo.ctrader.3873996|50=3873996eeQ7bOmFf3OWT7VjKRWIqA|52=20231212-13:41:06|56=cServer|553=3873996|554=Gtlfx125|10=097|