8=FIX.4.4|9=244|35=A|34=1|49=demo.ctrader.3873996|50=3873996M8xJHCr-au7hPiv8IvY4kA|52=20240104-13:54:42.552|56=cServer|57=QUOTE|49=demo.ctrader.3873996|50=3873996M8xJHCr-au7hPiv8IvY4kA|52=20240104-13:54:42|56=cServer|98=0|108=30|141=Y|553=3873996|554=Gtlfx125|10=000|8=FIX.4.4|9=170|35=V|34=2|49=demo.ctrader.3873996|50=3873996M8xJHCr-au7hPiv8IvY4kA|52=20240104-13:54:43.249|56=cServer|57=QUOTE|262=MARKETDATAID|263=1|264=1|267=2|269=0|269=1|146=1|55=1|10=110|8=FIX.4.4|9=170|35=V|34=3|49=demo.ctrader.3873996|50=3873996M8xJHCr-au7hPiv8IvY4kA|52=20240104-13:54:43.249|56=cServer|57=QUOTE|262=MARKETDATAID|263=1|264=1|267=2|269=0|269=1|146=1|55=2|10=112|8=FIX.4.4|9=170|35=V|34=4|49=demo.ctrader.3873996|50=3873996M8xJHCr-au7hPiv8IvY4kA|52=20240104-13:54:43.251|56=cServer|57=QUOTE|262=MARKETDATAID|263=1|264=1|267=2|269=0|269=1|146=1|55=3|10=107|8=FIX.4.4|9=170|35=V|34=5|49=demo.ctrader.3873996|50=3873996M8xJHCr-au7hPiv8IvY4kA|52=20240104-13:54:43.251|56=cServer|57=QUOTE|262=MARKETDATAID|263=1|264=1|267=2|269=0|269=1|146=1|55=4|10=109|8=FIX.4.4|9=170|35=V|34=6|49=demo.ctrader.3873996|50=3873996M8xJHCr-au7hPiv8IvY4kA|52=20240104-13:54:43.251|56=cServer|57=QUOTE|262=MARKETDATAID|263=1|264=1|267=2|269=0|269=1|146=1|55=5|10=111|8=FIX.4.4|9=170|35=V|34=7|49=demo.ctrader.3873996|50=3873996M8xJHCr-au7hPiv8IvY4kA|52=20240104-13:54:43.251|56=cServer|57=QUOTE|262=MARKETDATAID|263=1|264=1|267=2|269=0|269=1|146=1|55=6|10=113|8=FIX.4.4|9=170|35=V|34=8|49=demo.ctrader.3873996|50=3873996M8xJHCr-au7hPiv8IvY4kA|52=20240104-13:54:43.252|56=cServer|57=QUOTE|262=MARKETDATAID|263=1|264=1|267=2|269=0|269=1|146=1|55=7|10=116|8=FIX.4.4|9=170|35=V|34=9|49=demo.ctrader.3873996|50=3873996M8xJHCr-au7hPiv8IvY4kA|52=20240104-13:54:43.252|56=cServer|57=QUOTE|262=MARKETDATAID|263=1|264=1|267=2|269=0|269=1|146=1|55=8|10=118|8=FIX.4.4|9=171|35=V|34=10|49=demo.ctrader.3873996|50=3873996M8xJHCr-au7hPiv8IvY4kA|52=20240104-13:54:43.252|56=cServer|57=QUOTE|262=MARKETDATAID|263=1|264=1|267=2|269=0|269=1|146=1|55=9|10=160|8=FIX.4.4|9=172|35=V|34=11|49=demo.ctrader.3873996|50=3873996M8xJHCr-au7hPiv8IvY4kA|52=20240104-13:54:43.252|56=cServer|57=QUOTE|262=MARKETDATAID|263=1|264=1|267=2|269=0|269=1|146=1|55=10|10=202|8=FIX.4.4|9=172|35=V|34=12|49=demo.ctrader.3873996|50=3873996M8xJHCr-au7hPiv8IvY4kA|52=20240104-13:54:43.252|56=cServer|57=QUOTE|262=MARKETDATAID|263=1|264=1|267=2|269=0|269=1|146=1|55=11|10=204|8=FIX.4.4|9=172|35=V|34=13|49=demo.ctrader.3873996|50=3873996M8xJHCr-au7hPiv8IvY4kA|52=20240104-13:54:43.252|56=cServer|57=QUOTE|262=MARKETDATAID|263=1|264=1|267=2|269=0|269=1|146=1|55=12|10=206|8=FIX.4.4|9=172|35=V|34=14|49=demo.ctrader.3873996|50=3873996M8xJHCr-au7hPiv8IvY4kA|52=20240104-13:54:43.252|56=cServer|57=QUOTE|262=MARKETDATAID|263=1|264=1|267=2|269=0|269=1|146=1|55=13|10=208|8=FIX.4.4|9=172|35=V|34=15|49=demo.ctrader.3873996|50=3873996M8xJHCr-au7hPiv8IvY4kA|52=20240104-13:54:43.252|56=cServer|57=QUOTE|262=MARKETDATAID|263=1|264=1|267=2|269=0|269=1|146=1|55=14|10=210|8=FIX.4.4|9=172|35=V|34=16|49=demo.ctrader.3873996|50=3873996M8xJHCr-au7hPiv8IvY4kA|52=20240104-13:54:43.252|56=cServer|57=QUOTE|262=MARKETDATAID|263=1|264=1|267=2|269=0|269=1|146=1|55=15|10=212|8=FIX.4.4|9=172|35=V|34=17|49=demo.ctrader.3873996|50=3873996M8xJHCr-au7hPiv8IvY4kA|52=20240104-13:54:43.252|56=cServer|57=QUOTE|262=MARKETDATAID|263=1|264=1|267=2|269=0|269=1|146=1|55=16|10=214|8=FIX.4.4|9=172|35=V|34=18|49=demo.ctrader.3873996|50=3873996M8xJHCr-au7hPiv8IvY4kA|52=20240104-13:54:43.252|56=cServer|57=QUOTE|262=MARKETDATAID|263=1|264=1|267=2|269=0|269=1|146=1|55=17|10=216|8=FIX.4.4|9=172|35=V|34=19|49=demo.ctrader.3873996|50=3873996M8xJHCr-au7hPiv8IvY4kA|52=20240104-13:54:43.252|56=cServer|57=QUOTE|262=MARKETDATAID|263=1|264=1|267=2|269=0|269=1|146=1|55=18|10=218|8=FIX.4.4|9=172|35=V|34=20|49=demo.ctrader.3873996|50=3873996M8xJHCr-au7hPiv8IvY4kA|52=20240104-13:54:43.253|56=cServer|57=QUOTE|262=MARKETDATAID|263=1|264=1|267=2|269=0|269=1|146=1|55=19|10=212|8=FIX.4.4|9=172|35=V|34=21|49=demo.ctrader.3873996|50=3873996M8xJHCr-au7hPiv8IvY4kA|52=20240104-13:54:43.253|56=cServer|57=QUOTE|262=MARKETDATAID|263=1|264=1|267=2|269=0|269=1|146=1|55=22|10=207|8=FIX.4.4|9=113|35=0|34=22|49=demo.ctrader.3873996|50=3873996M8xJHCr-au7hPiv8IvY4kA|52=20240104-13:55:13.256|56=cServer|57=QUOTE|10=010|8=FIX.4.4|9=113|35=0|34=23|49=demo.ctrader.3873996|50=3873996M8xJHCr-au7hPiv8IvY4kA|52=20240104-13:55:43.329|56=cServer|57=QUOTE|10=015|8=FIX.4.4|9=113|35=0|34=24|49=demo.ctrader.3873996|50=3873996M8xJHCr-au7hPiv8IvY4kA|52=20240104-13:56:13.369|56=cServer|57=QUOTE|10=018|8=FIX.4.4|9=113|35=0|34=25|49=demo.ctrader.3873996|50=3873996M8xJHCr-au7hPiv8IvY4kA|52=20240104-13:56:43.372|56=cServer|57=QUOTE|10=016|8=FIX.4.4|9=113|35=0|34=26|49=demo.ctrader.3873996|50=3873996M8xJHCr-au7hPiv8IvY4kA|52=20240104-13:57:13.399|56=cServer|57=QUOTE|10=024|8=FIX.4.4|9=113|35=0|34=27|49=demo.ctrader.3873996|50=3873996M8xJHCr-au7hPiv8IvY4kA|52=20240104-13:57:43.402|56=cServer|57=QUOTE|10=013|8=FIX.4.4|9=113|35=0|34=28|49=demo.ctrader.3873996|50=3873996M8xJHCr-au7hPiv8IvY4kA|52=20240104-13:58:13.466|56=cServer|57=QUOTE|10=022|8=FIX.4.4|9=113|35=0|34=29|49=demo.ctrader.3873996|50=3873996M8xJHCr-au7hPiv8IvY4kA|52=20240104-13:58:43.469|56=cServer|57=QUOTE|10=029|8=FIX.4.4|9=113|35=0|34=30|49=demo.ctrader.3873996|50=3873996M8xJHCr-au7hPiv8IvY4kA|52=20240104-13:59:13.481|56=cServer|57=QUOTE|10=013|8=FIX.4.4|9=113|35=0|34=31|49=demo.ctrader.3873996|50=3873996M8xJHCr-au7hPiv8IvY4kA|52=20240104-13:59:43.508|56=cServer|57=QUOTE|10=017|8=FIX.4.4|9=113|35=0|34=32|49=demo.ctrader.3873996|50=3873996M8xJHCr-au7hPiv8IvY4kA|52=20240104-14:00:13.608|56=cServer|57=QUOTE|10=003|8=FIX.4.4|9=113|35=0|34=33|49=demo.ctrader.3873996|50=3873996M8xJHCr-au7hPiv8IvY4kA|52=20240104-14:00:43.633|56=cServer|57=QUOTE|10=005|8=FIX.4.4|9=113|35=0|34=34|49=demo.ctrader.3873996|50=3873996M8xJHCr-au7hPiv8IvY4kA|52=20240104-14:01:13.662|56=cServer|57=QUOTE|10=006|8=FIX.4.4|9=113|35=0|34=35|49=demo.ctrader.3873996|50=3873996M8xJHCr-au7hPiv8IvY4kA|52=20240104-14:01:43.698|56=cServer|57=QUOTE|10=019|8=FIX.4.4|9=113|35=0|34=36|49=demo.ctrader.3873996|50=3873996M8xJHCr-au7hPiv8IvY4kA|52=20240104-14:02:13.719|56=cServer|57=QUOTE|10=012|8=FIX.4.4|9=113|35=0|34=37|49=demo.ctrader.3873996|50=3873996M8xJHCr-au7hPiv8IvY4kA|52=20240104-14:02:43.769|56=cServer|57=QUOTE|10=021|8=FIX.4.4|9=113|35=0|34=38|49=demo.ctrader.3873996|50=3873996M8xJHCr-au7hPiv8IvY4kA|52=20240104-14:03:13.789|56=cServer|57=QUOTE|10=022|8=FIX.4.4|9=113|35=0|34=39|49=demo.ctrader.3873996|50=3873996M8xJHCr-au7hPiv8IvY4kA|52=20240104-14:03:43.801|56=cServer|57=QUOTE|10=011|8=FIX.4.4|9=113|35=0|34=40|49=demo.ctrader.3873996|50=3873996M8xJHCr-au7hPiv8IvY4kA|52=20240104-14:04:13.817|56=cServer|57=QUOTE|10=008|8=FIX.4.4|9=113|35=0|34=41|49=demo.ctrader.3873996|50=3873996M8xJHCr-au7hPiv8IvY4kA|52=20240104-14:04:43.846|56=cServer|57=QUOTE|10=014|8=FIX.4.4|9=113|35=0|34=42|49=demo.ctrader.3873996|50=3873996M8xJHCr-au7hPiv8IvY4kA|52=20240104-14:05:13.976|56=cServer|57=QUOTE|10=017|8=FIX.4.4|9=113|35=0|34=43|49=demo.ctrader.3873996|50=3873996M8xJHCr-au7hPiv8IvY4kA|52=20240104-14:05:43.994|56=cServer|57=QUOTE|10=021|8=FIX.4.4|9=113|35=0|34=44|49=demo.ctrader.3873996|50=3873996M8xJHCr-au7hPiv8IvY4kA|52=20240104-14:06:14.004|56=cServer|57=QUOTE|10=003|8=FIX.4.4|9=113|35=0|34=45|49=demo.ctrader.3873996|50=3873996M8xJHCr-au7hPiv8IvY4kA|52=20240104-14:06:44.038|56=cServer|57=QUOTE|10=014|8=FIX.4.4|9=113|35=0|34=46|49=demo.ctrader.3873996|50=3873996M8xJHCr-au7hPiv8IvY4kA|52=20240104-14:07:14.098|56=cServer|57=QUOTE|10=019|8=FIX.4.4|9=113|35=0|34=47|49=demo.ctrader.3873996|50=3873996M8xJHCr-au7hPiv8IvY4kA|52=20240104-14:07:44.099|56=cServer|57=QUOTE|10=024|8=FIX.4.4|9=113|35=0|34=48|49=demo.ctrader.3873996|50=3873996M8xJHCr-au7hPiv8IvY4kA|52=20240104-14:08:14.130|56=cServer|57=QUOTE|10=009|8=FIX.4.4|9=113|35=0|34=49|49=demo.ctrader.3873996|50=3873996M8xJHCr-au7hPiv8IvY4kA|52=20240104-14:08:44.166|56=cServer|57=QUOTE|10=022|8=FIX.4.4|9=113|35=0|34=50|49=demo.ctrader.3873996|50=3873996M8xJHCr-au7hPiv8IvY4kA|52=20240104-14:09:14.209|56=cServer|57=QUOTE|10=010|8=FIX.4.4|9=113|35=0|34=51|49=demo.ctrader.3873996|50=3873996M8xJHCr-au7hPiv8IvY4kA|52=20240104-14:09:44.240|56=cServer|57=QUOTE|10=009|8=FIX.4.4|9=113|35=0|34=52|49=demo.ctrader.3873996|50=3873996M8xJHCr-au7hPiv8IvY4kA|52=20240104-14:10:14.294|56=cServer|57=QUOTE|10=008|8=FIX.4.4|9=227|35=5|34=53|49=demo.ctrader.3873996|50=3873996M8xJHCr-au7hPiv8IvY4kA|52=20240104-14:10:25.863|56=cServer|57=QUOTE|49=demo.ctrader.3873996|50=3873996M8xJHCr-au7hPiv8IvY4kA|52=20240104-14:10:25|56=cServer|553=3873996|554=Gtlfx125|10=223|