8=FIX.4.4|9=244|35=A|34=1|49=demo.ctrader.3873996|50=3873996EBX5w1iUP70IeX6OOXn8dw|52=20231215-09:26:02.815|56=cServer|57=TRADE|49=demo.ctrader.3873996|50=3873996EBX5w1iUP70IeX6OOXn8dw|52=20231215-09:26:02|56=cServer|98=0|108=30|141=Y|553=3873996|554=Gtlfx125|10=040|8=FIX.4.4|9=130|35=x|34=2|49=demo.ctrader.3873996|50=3873996EBX5w1iUP70IeX6OOXn8dw|52=20231215-09:26:05.461|56=cServer|57=TRADE|320=symbols|559=0|10=146|8=FIX.4.4|9=226|35=5|34=3|49=demo.ctrader.3873996|50=3873996EBX5w1iUP70IeX6OOXn8dw|52=20231215-09:26:31.603|56=cServer|57=TRADE|49=demo.ctrader.3873996|50=3873996EBX5w1iUP70IeX6OOXn8dw|52=20231215-09:26:31|56=cServer|553=3873996|554=Gtlfx125|10=215|8=FIX.4.4|9=226|35=5|34=4|49=demo.ctrader.3873996|50=3873996EBX5w1iUP70IeX6OOXn8dw|52=20231215-09:26:32.631|56=cServer|57=TRADE|49=demo.ctrader.3873996|50=3873996EBX5w1iUP70IeX6OOXn8dw|52=20231215-09:26:32|56=cServer|553=3873996|554=Gtlfx125|10=219|8=FIX.4.4|9=121|35=1|34=5|49=demo.ctrader.3873996|50=3873996EBX5w1iUP70IeX6OOXn8dw|52=20231215-09:26:41.883|56=cServer|57=TRADE|112=TEST|10=123|