8=FIX.4.4|9=244|35=A|34=1|49=demo.ctrader.3873996|50=3873996lxc3uNCgvHmJz90h_JSdTQ|52=20240104-08:46:14.539|56=cServer|57=QUOTE|49=demo.ctrader.3873996|50=3873996lxc3uNCgvHmJz90h_JSdTQ|52=20240104-08:46:14|56=cServer|98=0|108=30|141=Y|553=3873996|554=Gtlfx125|10=219|8=FIX.4.4|9=170|35=V|34=2|49=demo.ctrader.3873996|50=3873996lxc3uNCgvHmJz90h_JSdTQ|52=20240104-08:46:15.497|56=cServer|57=QUOTE|262=MARKETDATAID|263=1|264=1|267=2|269=0|269=1|146=1|55=1|10=222|8=FIX.4.4|9=170|35=V|34=3|49=demo.ctrader.3873996|50=3873996lxc3uNCgvHmJz90h_JSdTQ|52=20240104-08:46:15.498|56=cServer|57=QUOTE|262=MARKETDATAID|263=1|264=1|267=2|269=0|269=1|146=1|55=2|10=225|8=FIX.4.4|9=170|35=V|34=4|49=demo.ctrader.3873996|50=3873996lxc3uNCgvHmJz90h_JSdTQ|52=20240104-08:46:15.499|56=cServer|57=QUOTE|262=MARKETDATAID|263=1|264=1|267=2|269=0|269=1|146=1|55=3|10=228|8=FIX.4.4|9=170|35=V|34=5|49=demo.ctrader.3873996|50=3873996lxc3uNCgvHmJz90h_JSdTQ|52=20240104-08:46:15.499|56=cServer|57=QUOTE|262=MARKETDATAID|263=1|264=1|267=2|269=0|269=1|146=1|55=4|10=230|8=FIX.4.4|9=170|35=V|34=6|49=demo.ctrader.3873996|50=3873996lxc3uNCgvHmJz90h_JSdTQ|52=20240104-08:46:15.499|56=cServer|57=QUOTE|262=MARKETDATAID|263=1|264=1|267=2|269=0|269=1|146=1|55=5|10=232|8=FIX.4.4|9=170|35=V|34=7|49=demo.ctrader.3873996|50=3873996lxc3uNCgvHmJz90h_JSdTQ|52=20240104-08:46:15.500|56=cServer|57=QUOTE|262=MARKETDATAID|263=1|264=1|267=2|269=0|269=1|146=1|55=6|10=217|8=FIX.4.4|9=170|35=V|34=8|49=demo.ctrader.3873996|50=3873996lxc3uNCgvHmJz90h_JSdTQ|52=20240104-08:46:15.500|56=cServer|57=QUOTE|262=MARKETDATAID|263=1|264=1|267=2|269=0|269=1|146=1|55=7|10=219|8=FIX.4.4|9=170|35=V|34=9|49=demo.ctrader.3873996|50=3873996lxc3uNCgvHmJz90h_JSdTQ|52=20240104-08:46:15.500|56=cServer|57=QUOTE|262=MARKETDATAID|263=1|264=1|267=2|269=0|269=1|146=1|55=8|10=221|8=FIX.4.4|9=171|35=V|34=10|49=demo.ctrader.3873996|50=3873996lxc3uNCgvHmJz90h_JSdTQ|52=20240104-08:46:15.500|56=cServer|57=QUOTE|262=MARKETDATAID|263=1|264=1|267=2|269=0|269=1|146=1|55=9|10=007|8=FIX.4.4|9=172|35=V|34=11|49=demo.ctrader.3873996|50=3873996lxc3uNCgvHmJz90h_JSdTQ|52=20240104-08:46:15.500|56=cServer|57=QUOTE|262=MARKETDATAID|263=1|264=1|267=2|269=0|269=1|146=1|55=10|10=049|8=FIX.4.4|9=172|35=V|34=12|49=demo.ctrader.3873996|50=3873996lxc3uNCgvHmJz90h_JSdTQ|52=20240104-08:46:15.500|56=cServer|57=QUOTE|262=MARKETDATAID|263=1|264=1|267=2|269=0|269=1|146=1|55=11|10=051|8=FIX.4.4|9=172|35=V|34=13|49=demo.ctrader.3873996|50=3873996lxc3uNCgvHmJz90h_JSdTQ|52=20240104-08:46:15.500|56=cServer|57=QUOTE|262=MARKETDATAID|263=1|264=1|267=2|269=0|269=1|146=1|55=12|10=053|8=FIX.4.4|9=172|35=V|34=14|49=demo.ctrader.3873996|50=3873996lxc3uNCgvHmJz90h_JSdTQ|52=20240104-08:46:15.501|56=cServer|57=QUOTE|262=MARKETDATAID|263=1|264=1|267=2|269=0|269=1|146=1|55=13|10=056|8=FIX.4.4|9=172|35=V|34=15|49=demo.ctrader.3873996|50=3873996lxc3uNCgvHmJz90h_JSdTQ|52=20240104-08:46:15.501|56=cServer|57=QUOTE|262=MARKETDATAID|263=1|264=1|267=2|269=0|269=1|146=1|55=14|10=058|8=FIX.4.4|9=172|35=V|34=16|49=demo.ctrader.3873996|50=3873996lxc3uNCgvHmJz90h_JSdTQ|52=20240104-08:46:15.501|56=cServer|57=QUOTE|262=MARKETDATAID|263=1|264=1|267=2|269=0|269=1|146=1|55=15|10=060|8=FIX.4.4|9=172|35=V|34=17|49=demo.ctrader.3873996|50=3873996lxc3uNCgvHmJz90h_JSdTQ|52=20240104-08:46:15.501|56=cServer|57=QUOTE|262=MARKETDATAID|263=1|264=1|267=2|269=0|269=1|146=1|55=16|10=062|8=FIX.4.4|9=172|35=V|34=18|49=demo.ctrader.3873996|50=3873996lxc3uNCgvHmJz90h_JSdTQ|52=20240104-08:46:15.501|56=cServer|57=QUOTE|262=MARKETDATAID|263=1|264=1|267=2|269=0|269=1|146=1|55=17|10=064|8=FIX.4.4|9=172|35=V|34=19|49=demo.ctrader.3873996|50=3873996lxc3uNCgvHmJz90h_JSdTQ|52=20240104-08:46:15.501|56=cServer|57=QUOTE|262=MARKETDATAID|263=1|264=1|267=2|269=0|269=1|146=1|55=18|10=066|8=FIX.4.4|9=172|35=V|34=20|49=demo.ctrader.3873996|50=3873996lxc3uNCgvHmJz90h_JSdTQ|52=20240104-08:46:15.502|56=cServer|57=QUOTE|262=MARKETDATAID|263=1|264=1|267=2|269=0|269=1|146=1|55=19|10=060|8=FIX.4.4|9=172|35=V|34=21|49=demo.ctrader.3873996|50=3873996lxc3uNCgvHmJz90h_JSdTQ|52=20240104-08:46:15.502|56=cServer|57=QUOTE|262=MARKETDATAID|263=1|264=1|267=2|269=0|269=1|146=1|55=22|10=055|8=FIX.4.4|9=113|35=0|34=22|49=demo.ctrader.3873996|50=3873996lxc3uNCgvHmJz90h_JSdTQ|52=20240104-08:46:45.510|56=cServer|57=QUOTE|10=115|8=FIX.4.4|9=113|35=0|34=23|49=demo.ctrader.3873996|50=3873996lxc3uNCgvHmJz90h_JSdTQ|52=20240104-08:47:15.511|56=cServer|57=QUOTE|10=115|8=FIX.4.4|9=227|35=5|34=24|49=demo.ctrader.3873996|50=3873996lxc3uNCgvHmJz90h_JSdTQ|52=20240104-08:47:43.850|56=cServer|57=QUOTE|49=demo.ctrader.3873996|50=3873996lxc3uNCgvHmJz90h_JSdTQ|52=20240104-08:47:43|56=cServer|553=3873996|554=Gtlfx125|10=193|