8=FIX.4.4|9=244|35=A|34=1|49=demo.ctrader.3873996|50=3873996Vu23oNsuaZgvUY0w1fLVmA|52=20231212-14:04:08.943|56=cServer|57=TRADE|49=demo.ctrader.3873996|50=3873996Vu23oNsuaZgvUY0w1fLVmA|52=20231212-14:04:08|56=cServer|98=0|108=30|141=Y|553=3873996|554=Gtlfx125|10=170|8=FIX.4.4|9=130|35=x|34=2|49=demo.ctrader.3873996|50=3873996Vu23oNsuaZgvUY0w1fLVmA|52=20231212-14:04:09.481|56=cServer|57=TRADE|320=symbols|559=0|10=082|8=FIX.4.4|9=127|35=AN|34=3|49=demo.ctrader.3873996|50=3873996Vu23oNsuaZgvUY0w1fLVmA|52=20231212-14:04:10.377|56=cServer|57=TRADE|710=Positions|10=029|8=FIX.4.4|9=130|35=AF|34=4|49=demo.ctrader.3873996|50=3873996Vu23oNsuaZgvUY0w1fLVmA|52=20231212-14:04:10.378|56=cServer|57=TRADE|584=Orders|585=7|10=216|8=FIX.4.4|9=112|35=0|34=5|49=demo.ctrader.3873996|50=3873996Vu23oNsuaZgvUY0w1fLVmA|52=20231212-14:04:40.731|56=cServer|57=TRADE|10=025|8=FIX.4.4|9=112|35=0|34=6|49=demo.ctrader.3873996|50=3873996Vu23oNsuaZgvUY0w1fLVmA|52=20231212-14:05:11.029|56=cServer|57=TRADE|10=025|8=FIX.4.4|9=112|35=0|34=7|49=demo.ctrader.3873996|50=3873996Vu23oNsuaZgvUY0w1fLVmA|52=20231212-14:05:41.206|56=cServer|57=TRADE|10=026|8=FIX.4.4|9=112|35=0|34=8|49=demo.ctrader.3873996|50=3873996Vu23oNsuaZgvUY0w1fLVmA|52=20231212-14:06:11.363|56=cServer|57=TRADE|10=029|8=FIX.4.4|9=112|35=0|34=9|49=demo.ctrader.3873996|50=3873996Vu23oNsuaZgvUY0w1fLVmA|52=20231212-14:06:42.348|56=cServer|57=TRADE|10=037|8=FIX.4.4|9=113|35=0|34=10|49=demo.ctrader.3873996|50=3873996Vu23oNsuaZgvUY0w1fLVmA|52=20231212-14:07:12.356|56=cServer|57=TRADE|10=075|8=FIX.4.4|9=113|35=0|34=11|49=demo.ctrader.3873996|50=3873996Vu23oNsuaZgvUY0w1fLVmA|52=20231212-14:07:42.536|56=cServer|57=TRADE|10=079|8=FIX.4.4|9=113|35=0|34=12|49=demo.ctrader.3873996|50=3873996Vu23oNsuaZgvUY0w1fLVmA|52=20231212-14:08:13.319|56=cServer|57=TRADE|10=078|8=FIX.4.4|9=113|35=0|34=13|49=demo.ctrader.3873996|50=3873996Vu23oNsuaZgvUY0w1fLVmA|52=20231212-14:08:44.271|56=cServer|57=TRADE|10=080|8=FIX.4.4|9=113|35=0|34=14|49=demo.ctrader.3873996|50=3873996Vu23oNsuaZgvUY0w1fLVmA|52=20231212-14:09:14.433|56=cServer|57=TRADE|10=079|8=FIX.4.4|9=113|35=0|34=15|49=demo.ctrader.3873996|50=3873996Vu23oNsuaZgvUY0w1fLVmA|52=20231212-14:09:44.472|56=cServer|57=TRADE|10=086|8=FIX.4.4|9=113|35=0|34=16|49=demo.ctrader.3873996|50=3873996Vu23oNsuaZgvUY0w1fLVmA|52=20231212-14:10:14.679|56=cServer|57=TRADE|10=085|8=FIX.4.4|9=113|35=0|34=17|49=demo.ctrader.3873996|50=3873996Vu23oNsuaZgvUY0w1fLVmA|52=20231212-14:10:45.706|56=cServer|57=TRADE|10=081|8=FIX.4.4|9=113|35=0|34=18|49=demo.ctrader.3873996|50=3873996Vu23oNsuaZgvUY0w1fLVmA|52=20231212-14:11:16.592|56=cServer|57=TRADE|10=084|8=FIX.4.4|9=113|35=0|34=19|49=demo.ctrader.3873996|50=3873996Vu23oNsuaZgvUY0w1fLVmA|52=20231212-14:11:47.486|56=cServer|57=TRADE|10=091|8=FIX.4.4|9=113|35=0|34=20|49=demo.ctrader.3873996|50=3873996Vu23oNsuaZgvUY0w1fLVmA|52=20231212-14:12:18.491|56=cServer|57=TRADE|10=078|8=FIX.4.4|9=113|35=0|34=21|49=demo.ctrader.3873996|50=3873996Vu23oNsuaZgvUY0w1fLVmA|52=20231212-14:12:49.449|56=cServer|57=TRADE|10=086|8=FIX.4.4|9=113|35=0|34=22|49=demo.ctrader.3873996|50=3873996Vu23oNsuaZgvUY0w1fLVmA|52=20231212-14:13:20.434|56=cServer|57=TRADE|10=071|8=FIX.4.4|9=113|35=0|34=23|49=demo.ctrader.3873996|50=3873996Vu23oNsuaZgvUY0w1fLVmA|52=20231212-14:13:50.448|56=cServer|57=TRADE|10=080|8=FIX.4.4|9=113|35=0|34=24|49=demo.ctrader.3873996|50=3873996Vu23oNsuaZgvUY0w1fLVmA|52=20231212-14:14:21.446|56=cServer|57=TRADE|10=078|8=FIX.4.4|9=113|35=0|34=25|49=demo.ctrader.3873996|50=3873996Vu23oNsuaZgvUY0w1fLVmA|52=20231212-14:14:51.503|56=cServer|57=TRADE|10=076|8=FIX.4.4|9=113|35=0|34=26|49=demo.ctrader.3873996|50=3873996Vu23oNsuaZgvUY0w1fLVmA|52=20231212-14:15:22.493|56=cServer|57=TRADE|10=084|8=FIX.4.4|9=113|35=0|34=27|49=demo.ctrader.3873996|50=3873996Vu23oNsuaZgvUY0w1fLVmA|52=20231212-14:15:52.522|56=cServer|57=TRADE|10=081|8=FIX.4.4|9=113|35=0|34=28|49=demo.ctrader.3873996|50=3873996Vu23oNsuaZgvUY0w1fLVmA|52=20231212-14:16:22.557|56=cServer|57=TRADE|10=088|8=FIX.4.4|9=113|35=0|34=29|49=demo.ctrader.3873996|50=3873996Vu23oNsuaZgvUY0w1fLVmA|52=20231212-14:16:52.689|56=cServer|57=TRADE|10=098|8=FIX.4.4|9=113|35=0|34=30|49=demo.ctrader.3873996|50=3873996Vu23oNsuaZgvUY0w1fLVmA|52=20231212-14:17:23.599|56=cServer|57=TRADE|10=089|8=FIX.4.4|9=113|35=0|34=31|49=demo.ctrader.3873996|50=3873996Vu23oNsuaZgvUY0w1fLVmA|52=20231212-14:17:53.649|56=cServer|57=TRADE|10=089|8=FIX.4.4|9=113|35=0|34=32|49=demo.ctrader.3873996|50=3873996Vu23oNsuaZgvUY0w1fLVmA|52=20231212-14:18:24.552|56=cServer|57=TRADE|10=082|8=FIX.4.4|9=113|35=0|34=33|49=demo.ctrader.3873996|50=3873996Vu23oNsuaZgvUY0w1fLVmA|52=20231212-14:18:54.743|56=cServer|57=TRADE|10=088|8=FIX.4.4|9=113|35=0|34=34|49=demo.ctrader.3873996|50=3873996Vu23oNsuaZgvUY0w1fLVmA|52=20231212-14:19:25.585|56=cServer|57=TRADE|10=092|8=FIX.4.4|9=113|35=0|34=35|49=demo.ctrader.3873996|50=3873996Vu23oNsuaZgvUY0w1fLVmA|52=20231212-14:19:56.747|56=cServer|57=TRADE|10=097|8=FIX.4.4|9=113|35=0|34=36|49=demo.ctrader.3873996|50=3873996Vu23oNsuaZgvUY0w1fLVmA|52=20231212-14:20:27.768|56=cServer|57=TRADE|10=091|8=FIX.4.4|9=113|35=0|34=37|49=demo.ctrader.3873996|50=3873996Vu23oNsuaZgvUY0w1fLVmA|52=20231212-14:20:57.972|56=cServer|57=TRADE|10=092|8=FIX.4.4|9=113|35=0|34=38|49=demo.ctrader.3873996|50=3873996Vu23oNsuaZgvUY0w1fLVmA|52=20231212-14:21:28.885|56=cServer|57=TRADE|10=095|8=FIX.4.4|9=113|35=0|34=39|49=demo.ctrader.3873996|50=3873996Vu23oNsuaZgvUY0w1fLVmA|52=20231212-14:21:59.848|56=cServer|57=TRADE|10=099|8=FIX.4.4|9=113|35=0|34=40|49=demo.ctrader.3873996|50=3873996Vu23oNsuaZgvUY0w1fLVmA|52=20231212-14:22:30.822|56=cServer|57=TRADE|10=073|8=FIX.4.4|9=113|35=0|34=41|49=demo.ctrader.3873996|50=3873996Vu23oNsuaZgvUY0w1fLVmA|52=20231212-14:23:01.791|56=cServer|57=TRADE|10=078|8=FIX.4.4|9=113|35=0|34=42|49=demo.ctrader.3873996|50=3873996Vu23oNsuaZgvUY0w1fLVmA|52=20231212-14:23:31.822|56=cServer|57=TRADE|10=077|8=FIX.4.4|9=113|35=0|34=43|49=demo.ctrader.3873996|50=3873996Vu23oNsuaZgvUY0w1fLVmA|52=20231212-14:24:01.879|56=cServer|57=TRADE|10=088|8=FIX.4.4|9=113|35=0|34=44|49=demo.ctrader.3873996|50=3873996Vu23oNsuaZgvUY0w1fLVmA|52=20231212-14:24:32.825|56=cServer|57=TRADE|10=084|8=FIX.4.4|9=113|35=0|34=45|49=demo.ctrader.3873996|50=3873996Vu23oNsuaZgvUY0w1fLVmA|52=20231212-14:25:02.993|56=cServer|57=TRADE|10=089|8=FIX.4.4|9=113|35=0|34=46|49=demo.ctrader.3873996|50=3873996Vu23oNsuaZgvUY0w1fLVmA|52=20231212-14:25:33.762|56=cServer|57=TRADE|10=088|8=FIX.4.4|9=113|35=0|34=47|49=demo.ctrader.3873996|50=3873996Vu23oNsuaZgvUY0w1fLVmA|52=20231212-14:26:03.929|56=cServer|57=TRADE|10=092|8=FIX.4.4|9=113|35=0|34=48|49=demo.ctrader.3873996|50=3873996Vu23oNsuaZgvUY0w1fLVmA|52=20231212-14:26:34.010|56=cServer|57=TRADE|10=078|8=FIX.4.4|9=113|35=0|34=49|49=demo.ctrader.3873996|50=3873996Vu23oNsuaZgvUY0w1fLVmA|52=20231212-14:27:04.807|56=cServer|57=TRADE|10=091|8=FIX.4.4|9=113|35=0|34=50|49=demo.ctrader.3873996|50=3873996Vu23oNsuaZgvUY0w1fLVmA|52=20231212-14:27:35.629|56=cServer|57=TRADE|10=089|8=FIX.4.4|9=113|35=0|34=51|49=demo.ctrader.3873996|50=3873996Vu23oNsuaZgvUY0w1fLVmA|52=20231212-14:28:06.370|56=cServer|57=TRADE|10=082|8=FIX.4.4|9=113|35=0|34=52|49=demo.ctrader.3873996|50=3873996Vu23oNsuaZgvUY0w1fLVmA|52=20231212-14:28:36.529|56=cServer|57=TRADE|10=092|8=FIX.4.4|9=113|35=0|34=53|49=demo.ctrader.3873996|50=3873996Vu23oNsuaZgvUY0w1fLVmA|52=20231212-14:29:07.512|56=cServer|57=TRADE|10=084|8=FIX.4.4|9=113|35=0|34=54|49=demo.ctrader.3873996|50=3873996Vu23oNsuaZgvUY0w1fLVmA|52=20231212-14:29:38.403|56=cServer|57=TRADE|10=088|