8=FIX.4.4|9=244|35=A|34=1|49=demo.ctrader.3873996|50=3873996VbgXxbI2CyJAe_1w5afs3g|52=20231212-07:51:38.656|56=cServer|57=TRADE|49=demo.ctrader.3873996|50=3873996VbgXxbI2CyJAe_1w5afs3g|52=20231212-07:51:38|56=cServer|98=0|108=30|141=Y|553=3873996|554=Gtlfx125|10=119|8=FIX.4.4|9=130|35=x|34=2|49=demo.ctrader.3873996|50=3873996VbgXxbI2CyJAe_1w5afs3g|52=20231212-07:51:39.251|56=cServer|57=TRADE|320=symbols|559=0|10=051|8=FIX.4.4|9=127|35=AN|34=3|49=demo.ctrader.3873996|50=3873996VbgXxbI2CyJAe_1w5afs3g|52=20231212-07:51:39.447|56=cServer|57=TRADE|710=Positions|10=009|8=FIX.4.4|9=130|35=AF|34=4|49=demo.ctrader.3873996|50=3873996VbgXxbI2CyJAe_1w5afs3g|52=20231212-07:51:39.447|56=cServer|57=TRADE|584=Orders|585=7|10=195|8=FIX.4.4|9=112|35=0|34=5|49=demo.ctrader.3873996|50=3873996VbgXxbI2CyJAe_1w5afs3g|52=20231212-07:52:09.910|56=cServer|57=TRADE|10=001|8=FIX.4.4|9=112|35=0|34=6|49=demo.ctrader.3873996|50=3873996VbgXxbI2CyJAe_1w5afs3g|52=20231212-07:52:40.126|56=cServer|57=TRADE|10=252|