8=FIX.4.4|9=244|35=A|34=1|49=demo.ctrader.3873996|50=3873996WED3QCyb7tPCwQVCbYykmA|52=20231211-17:20:03.703|56=cServer|57=QUOTE|49=demo.ctrader.3873996|50=3873996WED3QCyb7tPCwQVCbYykmA|52=20231211-17:20:03|56=cServer|98=0|108=30|141=Y|553=3873996|554=Gtlfx125|10=066|8=FIX.4.4|9=112|35=0|34=2|49=demo.ctrader.3873996|50=3873996WED3QCyb7tPCwQVCbYykmA|52=20231211-17:20:34.557|56=cServer|57=QUOTE|10=002|8=FIX.4.4|9=121|35=1|34=3|49=demo.ctrader.3873996|50=3873996WED3QCyb7tPCwQVCbYykmA|52=20231211-17:20:40.617|56=cServer|57=QUOTE|112=TEST|10=016|8=FIX.4.4|9=112|35=0|34=4|49=demo.ctrader.3873996|50=3873996WED3QCyb7tPCwQVCbYykmA|52=20231211-17:21:10.887|56=cServer|57=QUOTE|10=005|