8=FIX.4.4|9=244|35=A|34=1|49=demo.ctrader.3873996|50=3873996VzXycdSXPnwpvZsBNZqwsw|52=20240103-14:16:08.818|56=cServer|57=TRADE|49=demo.ctrader.3873996|50=3873996VzXycdSXPnwpvZsBNZqwsw|52=20240103-14:16:08|56=cServer|98=0|108=30|141=Y|553=3873996|554=Gtlfx125|10=203|8=FIX.4.4|9=130|35=x|34=2|49=demo.ctrader.3873996|50=3873996VzXycdSXPnwpvZsBNZqwsw|52=20240103-14:16:09.404|56=cServer|57=TRADE|320=symbols|559=0|10=093|8=FIX.4.4|9=127|35=AN|34=3|49=demo.ctrader.3873996|50=3873996VzXycdSXPnwpvZsBNZqwsw|52=20240103-14:16:09.795|56=cServer|57=TRADE|710=Positions|10=057|8=FIX.4.4|9=130|35=AF|34=4|49=demo.ctrader.3873996|50=3873996VzXycdSXPnwpvZsBNZqwsw|52=20240103-14:16:09.796|56=cServer|57=TRADE|584=Orders|585=7|10=244|8=FIX.4.4|9=112|35=0|34=5|49=demo.ctrader.3873996|50=3873996VzXycdSXPnwpvZsBNZqwsw|52=20240103-14:16:40.267|56=cServer|57=TRADE|10=045|8=FIX.4.4|9=176|35=D|34=6|49=demo.ctrader.3873996|50=3873996VzXycdSXPnwpvZsBNZqwsw|52=20240103-14:16:44.643|56=cServer|57=TRADE|11=6819221|38=1000|40=1|54=2|55=1|59=3|60=20240103-19:16:44.642|10=253|8=FIX.4.4|9=127|35=AN|34=7|49=demo.ctrader.3873996|50=3873996VzXycdSXPnwpvZsBNZqwsw|52=20240103-14:16:45.186|56=cServer|57=TRADE|710=Positions|10=055|8=FIX.4.4|9=112|35=0|34=8|49=demo.ctrader.3873996|50=3873996VzXycdSXPnwpvZsBNZqwsw|52=20240103-14:17:15.602|56=cServer|57=TRADE|10=044|8=FIX.4.4|9=112|35=0|34=9|49=demo.ctrader.3873996|50=3873996VzXycdSXPnwpvZsBNZqwsw|52=20240103-14:17:45.873|56=cServer|57=TRADE|10=058|