8=FIX.4.4|9=244|35=A|34=1|49=demo.ctrader.3873996|50=3873996hAuEOYV6yDifq-BsGOcmhQ|52=20231227-10:50:50.310|56=cServer|57=TRADE|49=demo.ctrader.3873996|50=3873996hAuEOYV6yDifq-BsGOcmhQ|52=20231227-10:50:50|56=cServer|98=0|108=30|141=Y|553=3873996|554=Gtlfx125|10=118|8=FIX.4.4|9=130|35=x|34=2|49=demo.ctrader.3873996|50=3873996hAuEOYV6yDifq-BsGOcmhQ|52=20231227-10:50:50.892|56=cServer|57=TRADE|320=symbols|559=0|10=067|8=FIX.4.4|9=127|35=AN|34=3|49=demo.ctrader.3873996|50=3873996hAuEOYV6yDifq-BsGOcmhQ|52=20231227-10:50:51.162|56=cServer|57=TRADE|710=Positions|10=009|8=FIX.4.4|9=130|35=AF|34=4|49=demo.ctrader.3873996|50=3873996hAuEOYV6yDifq-BsGOcmhQ|52=20231227-10:50:51.163|56=cServer|57=TRADE|584=Orders|585=7|10=196|8=FIX.4.4|9=112|35=0|34=5|49=demo.ctrader.3873996|50=3873996hAuEOYV6yDifq-BsGOcmhQ|52=20231227-10:51:21.600|56=cServer|57=TRADE|10=003|8=FIX.4.4|9=112|35=0|34=6|49=demo.ctrader.3873996|50=3873996hAuEOYV6yDifq-BsGOcmhQ|52=20231227-10:51:51.704|56=cServer|57=TRADE|10=012|