8=FIX.4.4|9=244|35=A|34=1|49=demo.ctrader.3873996|50=3873996Ng0KJ-K244KRPqJ7kFOUeQ|52=20231226-10:28:17.658|56=cServer|57=TRADE|49=demo.ctrader.3873996|50=3873996Ng0KJ-K244KRPqJ7kFOUeQ|52=20231226-10:28:17|56=cServer|98=0|108=30|141=Y|553=3873996|554=Gtlfx125|10=085|8=FIX.4.4|9=130|35=x|34=2|49=demo.ctrader.3873996|50=3873996Ng0KJ-K244KRPqJ7kFOUeQ|52=20231226-10:28:18.283|56=cServer|57=TRADE|320=symbols|559=0|10=038|8=FIX.4.4|9=127|35=AN|34=3|49=demo.ctrader.3873996|50=3873996Ng0KJ-K244KRPqJ7kFOUeQ|52=20231226-10:28:19.058|56=cServer|57=TRADE|710=Positions|10=246|8=FIX.4.4|9=130|35=AF|34=4|49=demo.ctrader.3873996|50=3873996Ng0KJ-K244KRPqJ7kFOUeQ|52=20231226-10:28:19.058|56=cServer|57=TRADE|584=Orders|585=7|10=176|8=FIX.4.4|9=112|35=0|34=5|49=demo.ctrader.3873996|50=3873996Ng0KJ-K244KRPqJ7kFOUeQ|52=20231226-10:28:49.557|56=cServer|57=TRADE|10=252|8=FIX.4.4|9=112|35=0|34=6|49=demo.ctrader.3873996|50=3873996Ng0KJ-K244KRPqJ7kFOUeQ|52=20231226-10:29:19.786|56=cServer|57=TRADE|10=255|8=FIX.4.4|9=112|35=0|34=7|49=demo.ctrader.3873996|50=3873996Ng0KJ-K244KRPqJ7kFOUeQ|52=20231226-10:29:50.774|56=cServer|57=TRADE|10=248|8=FIX.4.4|9=112|35=0|34=8|49=demo.ctrader.3873996|50=3873996Ng0KJ-K244KRPqJ7kFOUeQ|52=20231226-10:30:21.786|56=cServer|57=TRADE|10=242|8=FIX.4.4|9=112|35=0|34=9|49=demo.ctrader.3873996|50=3873996Ng0KJ-K244KRPqJ7kFOUeQ|52=20231226-10:30:52.796|56=cServer|57=TRADE|10=248|8=FIX.4.4|9=113|35=0|34=10|49=demo.ctrader.3873996|50=3873996Ng0KJ-K244KRPqJ7kFOUeQ|52=20231226-10:31:23.364|56=cServer|57=TRADE|10=023|8=FIX.4.4|9=113|35=0|34=11|49=demo.ctrader.3873996|50=3873996Ng0KJ-K244KRPqJ7kFOUeQ|52=20231226-10:31:53.888|56=cServer|57=TRADE|10=038|8=FIX.4.4|9=113|35=0|34=12|49=demo.ctrader.3873996|50=3873996Ng0KJ-K244KRPqJ7kFOUeQ|52=20231226-10:32:24.816|56=cServer|57=TRADE|10=029|8=FIX.4.4|9=113|35=0|34=13|49=demo.ctrader.3873996|50=3873996Ng0KJ-K244KRPqJ7kFOUeQ|52=20231226-10:32:55.795|56=cServer|57=TRADE|10=040|