8=FIX.4.4|9=244|35=A|34=1|49=demo.ctrader.3873996|50=3873996Vu23oNsuaZgvUY0w1fLVmA|52=20231212-14:04:08.943|56=cServer|57=QUOTE|49=demo.ctrader.3873996|50=3873996Vu23oNsuaZgvUY0w1fLVmA|52=20231212-14:04:08|56=cServer|98=0|108=30|141=Y|553=3873996|554=Gtlfx125|10=200|8=FIX.4.4|9=170|35=V|34=2|49=demo.ctrader.3873996|50=3873996Vu23oNsuaZgvUY0w1fLVmA|52=20231212-14:04:10.382|56=cServer|57=QUOTE|262=MARKETDATAID|263=1|264=1|267=2|269=0|269=1|146=1|55=1|10=198|8=FIX.4.4|9=170|35=V|34=3|49=demo.ctrader.3873996|50=3873996Vu23oNsuaZgvUY0w1fLVmA|52=20231212-14:04:10.383|56=cServer|57=QUOTE|262=MARKETDATAID|263=1|264=1|267=2|269=0|269=1|146=1|55=2|10=201|8=FIX.4.4|9=170|35=V|34=4|49=demo.ctrader.3873996|50=3873996Vu23oNsuaZgvUY0w1fLVmA|52=20231212-14:04:10.385|56=cServer|57=QUOTE|262=MARKETDATAID|263=1|264=1|267=2|269=0|269=1|146=1|55=3|10=205|8=FIX.4.4|9=170|35=V|34=5|49=demo.ctrader.3873996|50=3873996Vu23oNsuaZgvUY0w1fLVmA|52=20231212-14:04:10.386|56=cServer|57=QUOTE|262=MARKETDATAID|263=1|264=1|267=2|269=0|269=1|146=1|55=4|10=208|8=FIX.4.4|9=170|35=V|34=6|49=demo.ctrader.3873996|50=3873996Vu23oNsuaZgvUY0w1fLVmA|52=20231212-14:04:10.386|56=cServer|57=QUOTE|262=MARKETDATAID|263=1|264=1|267=2|269=0|269=1|146=1|55=5|10=210|8=FIX.4.4|9=170|35=V|34=7|49=demo.ctrader.3873996|50=3873996Vu23oNsuaZgvUY0w1fLVmA|52=20231212-14:04:10.386|56=cServer|57=QUOTE|262=MARKETDATAID|263=1|264=1|267=2|269=0|269=1|146=1|55=6|10=212|8=FIX.4.4|9=170|35=V|34=8|49=demo.ctrader.3873996|50=3873996Vu23oNsuaZgvUY0w1fLVmA|52=20231212-14:04:10.387|56=cServer|57=QUOTE|262=MARKETDATAID|263=1|264=1|267=2|269=0|269=1|146=1|55=7|10=215|8=FIX.4.4|9=170|35=V|34=9|49=demo.ctrader.3873996|50=3873996Vu23oNsuaZgvUY0w1fLVmA|52=20231212-14:04:10.387|56=cServer|57=QUOTE|262=MARKETDATAID|263=1|264=1|267=2|269=0|269=1|146=1|55=8|10=217|8=FIX.4.4|9=171|35=V|34=10|49=demo.ctrader.3873996|50=3873996Vu23oNsuaZgvUY0w1fLVmA|52=20231212-14:04:10.387|56=cServer|57=QUOTE|262=MARKETDATAID|263=1|264=1|267=2|269=0|269=1|146=1|55=9|10=003|8=FIX.4.4|9=172|35=V|34=11|49=demo.ctrader.3873996|50=3873996Vu23oNsuaZgvUY0w1fLVmA|52=20231212-14:04:10.388|56=cServer|57=QUOTE|262=MARKETDATAID|263=1|264=1|267=2|269=0|269=1|146=1|55=10|10=046|8=FIX.4.4|9=172|35=V|34=12|49=demo.ctrader.3873996|50=3873996Vu23oNsuaZgvUY0w1fLVmA|52=20231212-14:04:10.388|56=cServer|57=QUOTE|262=MARKETDATAID|263=1|264=1|267=2|269=0|269=1|146=1|55=11|10=048|8=FIX.4.4|9=172|35=V|34=13|49=demo.ctrader.3873996|50=3873996Vu23oNsuaZgvUY0w1fLVmA|52=20231212-14:04:10.388|56=cServer|57=QUOTE|262=MARKETDATAID|263=1|264=1|267=2|269=0|269=1|146=1|55=12|10=050|8=FIX.4.4|9=172|35=V|34=14|49=demo.ctrader.3873996|50=3873996Vu23oNsuaZgvUY0w1fLVmA|52=20231212-14:04:10.388|56=cServer|57=QUOTE|262=MARKETDATAID|263=1|264=1|267=2|269=0|269=1|146=1|55=13|10=052|8=FIX.4.4|9=172|35=V|34=15|49=demo.ctrader.3873996|50=3873996Vu23oNsuaZgvUY0w1fLVmA|52=20231212-14:04:10.388|56=cServer|57=QUOTE|262=MARKETDATAID|263=1|264=1|267=2|269=0|269=1|146=1|55=14|10=054|8=FIX.4.4|9=172|35=V|34=16|49=demo.ctrader.3873996|50=3873996Vu23oNsuaZgvUY0w1fLVmA|52=20231212-14:04:10.389|56=cServer|57=QUOTE|262=MARKETDATAID|263=1|264=1|267=2|269=0|269=1|146=1|55=15|10=057|8=FIX.4.4|9=172|35=V|34=17|49=demo.ctrader.3873996|50=3873996Vu23oNsuaZgvUY0w1fLVmA|52=20231212-14:04:10.389|56=cServer|57=QUOTE|262=MARKETDATAID|263=1|264=1|267=2|269=0|269=1|146=1|55=16|10=059|8=FIX.4.4|9=172|35=V|34=18|49=demo.ctrader.3873996|50=3873996Vu23oNsuaZgvUY0w1fLVmA|52=20231212-14:04:10.389|56=cServer|57=QUOTE|262=MARKETDATAID|263=1|264=1|267=2|269=0|269=1|146=1|55=17|10=061|8=FIX.4.4|9=172|35=V|34=19|49=demo.ctrader.3873996|50=3873996Vu23oNsuaZgvUY0w1fLVmA|52=20231212-14:04:10.389|56=cServer|57=QUOTE|262=MARKETDATAID|263=1|264=1|267=2|269=0|269=1|146=1|55=18|10=063|8=FIX.4.4|9=172|35=V|34=20|49=demo.ctrader.3873996|50=3873996Vu23oNsuaZgvUY0w1fLVmA|52=20231212-14:04:10.389|56=cServer|57=QUOTE|262=MARKETDATAID|263=1|264=1|267=2|269=0|269=1|146=1|55=19|10=056|8=FIX.4.4|9=172|35=V|34=21|49=demo.ctrader.3873996|50=3873996Vu23oNsuaZgvUY0w1fLVmA|52=20231212-14:04:10.389|56=cServer|57=QUOTE|262=MARKETDATAID|263=1|264=1|267=2|269=0|269=1|146=1|55=22|10=051|8=FIX.4.4|9=172|35=V|34=22|49=demo.ctrader.3873996|50=3873996Vu23oNsuaZgvUY0w1fLVmA|52=20231212-14:04:10.390|56=cServer|57=QUOTE|262=MARKETDATAID|263=1|264=1|267=2|269=0|269=1|146=1|55=23|10=045|8=FIX.4.4|9=172|35=V|34=23|49=demo.ctrader.3873996|50=3873996Vu23oNsuaZgvUY0w1fLVmA|52=20231212-14:04:10.390|56=cServer|57=QUOTE|262=MARKETDATAID|263=1|264=1|267=2|269=0|269=1|146=1|55=24|10=047|8=FIX.4.4|9=172|35=V|34=24|49=demo.ctrader.3873996|50=3873996Vu23oNsuaZgvUY0w1fLVmA|52=20231212-14:04:10.390|56=cServer|57=QUOTE|262=MARKETDATAID|263=1|264=1|267=2|269=0|269=1|146=1|55=25|10=049|8=FIX.4.4|9=172|35=V|34=25|49=demo.ctrader.3873996|50=3873996Vu23oNsuaZgvUY0w1fLVmA|52=20231212-14:04:10.390|56=cServer|57=QUOTE|262=MARKETDATAID|263=1|264=1|267=2|269=0|269=1|146=1|55=27|10=052|8=FIX.4.4|9=172|35=V|34=26|49=demo.ctrader.3873996|50=3873996Vu23oNsuaZgvUY0w1fLVmA|52=20231212-14:04:10.390|56=cServer|57=QUOTE|262=MARKETDATAID|263=1|264=1|267=2|269=0|269=1|146=1|55=29|10=055|8=FIX.4.4|9=172|35=V|34=27|49=demo.ctrader.3873996|50=3873996Vu23oNsuaZgvUY0w1fLVmA|52=20231212-14:04:10.390|56=cServer|57=QUOTE|262=MARKETDATAID|263=1|264=1|267=2|269=0|269=1|146=1|55=40|10=049|8=FIX.4.4|9=172|35=V|34=28|49=demo.ctrader.3873996|50=3873996Vu23oNsuaZgvUY0w1fLVmA|52=20231212-14:04:10.391|56=cServer|57=QUOTE|262=MARKETDATAID|263=1|264=1|267=2|269=0|269=1|146=1|55=41|10=052|8=FIX.4.4|9=172|35=V|34=29|49=demo.ctrader.3873996|50=3873996Vu23oNsuaZgvUY0w1fLVmA|52=20231212-14:04:10.391|56=cServer|57=QUOTE|262=MARKETDATAID|263=1|264=1|267=2|269=0|269=1|146=1|55=42|10=054|8=FIX.4.4|9=172|35=V|34=30|49=demo.ctrader.3873996|50=3873996Vu23oNsuaZgvUY0w1fLVmA|52=20231212-14:04:10.391|56=cServer|57=QUOTE|262=MARKETDATAID|263=1|264=1|267=2|269=0|269=1|146=1|55=43|10=047|8=FIX.4.4|9=172|35=V|34=31|49=demo.ctrader.3873996|50=3873996Vu23oNsuaZgvUY0w1fLVmA|52=20231212-14:04:10.391|56=cServer|57=QUOTE|262=MARKETDATAID|263=1|264=1|267=2|269=0|269=1|146=1|55=44|10=049|8=FIX.4.4|9=172|35=V|34=32|49=demo.ctrader.3873996|50=3873996Vu23oNsuaZgvUY0w1fLVmA|52=20231212-14:04:10.391|56=cServer|57=QUOTE|262=MARKETDATAID|263=1|264=1|267=2|269=0|269=1|146=1|55=45|10=051|8=FIX.4.4|9=172|35=V|34=33|49=demo.ctrader.3873996|50=3873996Vu23oNsuaZgvUY0w1fLVmA|52=20231212-14:04:10.391|56=cServer|57=QUOTE|262=MARKETDATAID|263=1|264=1|267=2|269=0|269=1|146=1|55=46|10=053|8=FIX.4.4|9=172|35=V|34=34|49=demo.ctrader.3873996|50=3873996Vu23oNsuaZgvUY0w1fLVmA|52=20231212-14:04:10.391|56=cServer|57=QUOTE|262=MARKETDATAID|263=1|264=1|267=2|269=0|269=1|146=1|55=47|10=055|8=FIX.4.4|9=172|35=V|34=35|49=demo.ctrader.3873996|50=3873996Vu23oNsuaZgvUY0w1fLVmA|52=20231212-14:04:10.392|56=cServer|57=QUOTE|262=MARKETDATAID|263=1|264=1|267=2|269=0|269=1|146=1|55=48|10=058|8=FIX.4.4|9=172|35=V|34=36|49=demo.ctrader.3873996|50=3873996Vu23oNsuaZgvUY0w1fLVmA|52=20231212-14:04:10.392|56=cServer|57=QUOTE|262=MARKETDATAID|263=1|264=1|267=2|269=0|269=1|146=1|55=49|10=060|8=FIX.4.4|9=172|35=V|34=37|49=demo.ctrader.3873996|50=3873996Vu23oNsuaZgvUY0w1fLVmA|52=20231212-14:04:10.392|56=cServer|57=QUOTE|262=MARKETDATAID|263=1|264=1|267=2|269=0|269=1|146=1|55=50|10=053|8=FIX.4.4|9=172|35=V|34=38|49=demo.ctrader.3873996|50=3873996Vu23oNsuaZgvUY0w1fLVmA|52=20231212-14:04:10.392|56=cServer|57=QUOTE|262=MARKETDATAID|263=1|264=1|267=2|269=0|269=1|146=1|55=51|10=055|8=FIX.4.4|9=172|35=V|34=39|49=demo.ctrader.3873996|50=3873996Vu23oNsuaZgvUY0w1fLVmA|52=20231212-14:04:10.392|56=cServer|57=QUOTE|262=MARKETDATAID|263=1|264=1|267=2|269=0|269=1|146=1|55=52|10=057|8=FIX.4.4|9=172|35=V|34=40|49=demo.ctrader.3873996|50=3873996Vu23oNsuaZgvUY0w1fLVmA|52=20231212-14:04:10.392|56=cServer|57=QUOTE|262=MARKETDATAID|263=1|264=1|267=2|269=0|269=1|146=1|55=53|10=050|8=FIX.4.4|9=172|35=V|34=41|49=demo.ctrader.3873996|50=3873996Vu23oNsuaZgvUY0w1fLVmA|52=20231212-14:04:10.393|56=cServer|57=QUOTE|262=MARKETDATAID|263=1|264=1|267=2|269=0|269=1|146=1|55=54|10=053|8=FIX.4.4|9=172|35=V|34=42|49=demo.ctrader.3873996|50=3873996Vu23oNsuaZgvUY0w1fLVmA|52=20231212-14:04:10.393|56=cServer|57=QUOTE|262=MARKETDATAID|263=1|264=1|267=2|269=0|269=1|146=1|55=55|10=055|8=FIX.4.4|9=172|35=V|34=43|49=demo.ctrader.3873996|50=3873996Vu23oNsuaZgvUY0w1fLVmA|52=20231212-14:04:10.393|56=cServer|57=QUOTE|262=MARKETDATAID|263=1|264=1|267=2|269=0|269=1|146=1|55=56|10=057|8=FIX.4.4|9=172|35=V|34=44|49=demo.ctrader.3873996|50=3873996Vu23oNsuaZgvUY0w1fLVmA|52=20231212-14:04:10.393|56=cServer|57=QUOTE|262=MARKETDATAID|263=1|264=1|267=2|269=0|269=1|146=1|55=57|10=059|8=FIX.4.4|9=172|35=V|34=45|49=demo.ctrader.3873996|50=3873996Vu23oNsuaZgvUY0w1fLVmA|52=20231212-14:04:10.393|56=cServer|57=QUOTE|262=MARKETDATAID|263=1|264=1|267=2|269=0|269=1|146=1|55=58|10=061|8=FIX.4.4|9=172|35=V|34=46|49=demo.ctrader.3873996|50=3873996Vu23oNsuaZgvUY0w1fLVmA|52=20231212-14:04:10.393|56=cServer|57=QUOTE|262=MARKETDATAID|263=1|264=1|267=2|269=0|269=1|146=1|55=59|10=063|8=FIX.4.4|9=172|35=V|34=47|49=demo.ctrader.3873996|50=3873996Vu23oNsuaZgvUY0w1fLVmA|52=20231212-14:04:10.393|56=cServer|57=QUOTE|262=MARKETDATAID|263=1|264=1|267=2|269=0|269=1|146=1|55=60|10=056|8=FIX.4.4|9=172|35=V|34=48|49=demo.ctrader.3873996|50=3873996Vu23oNsuaZgvUY0w1fLVmA|52=20231212-14:04:10.394|56=cServer|57=QUOTE|262=MARKETDATAID|263=1|264=1|267=2|269=0|269=1|146=1|55=61|10=059|8=FIX.4.4|9=172|35=V|34=49|49=demo.ctrader.3873996|50=3873996Vu23oNsuaZgvUY0w1fLVmA|52=20231212-14:04:10.394|56=cServer|57=QUOTE|262=MARKETDATAID|263=1|264=1|267=2|269=0|269=1|146=1|55=62|10=061|8=FIX.4.4|9=172|35=V|34=50|49=demo.ctrader.3873996|50=3873996Vu23oNsuaZgvUY0w1fLVmA|52=20231212-14:04:10.395|56=cServer|57=QUOTE|262=MARKETDATAID|263=1|264=1|267=2|269=0|269=1|146=1|55=63|10=055|8=FIX.4.4|9=172|35=V|34=51|49=demo.ctrader.3873996|50=3873996Vu23oNsuaZgvUY0w1fLVmA|52=20231212-14:04:10.395|56=cServer|57=QUOTE|262=MARKETDATAID|263=1|264=1|267=2|269=0|269=1|146=1|55=64|10=057|8=FIX.4.4|9=172|35=V|34=52|49=demo.ctrader.3873996|50=3873996Vu23oNsuaZgvUY0w1fLVmA|52=20231212-14:04:10.395|56=cServer|57=QUOTE|262=MARKETDATAID|263=1|264=1|267=2|269=0|269=1|146=1|55=65|10=059|8=FIX.4.4|9=172|35=V|34=53|49=demo.ctrader.3873996|50=3873996Vu23oNsuaZgvUY0w1fLVmA|52=20231212-14:04:10.395|56=cServer|57=QUOTE|262=MARKETDATAID|263=1|264=1|267=2|269=0|269=1|146=1|55=66|10=061|8=FIX.4.4|9=172|35=V|34=54|49=demo.ctrader.3873996|50=3873996Vu23oNsuaZgvUY0w1fLVmA|52=20231212-14:04:10.395|56=cServer|57=QUOTE|262=MARKETDATAID|263=1|264=1|267=2|269=0|269=1|146=1|55=67|10=063|8=FIX.4.4|9=172|35=V|34=55|49=demo.ctrader.3873996|50=3873996Vu23oNsuaZgvUY0w1fLVmA|52=20231212-14:04:10.395|56=cServer|57=QUOTE|262=MARKETDATAID|263=1|264=1|267=2|269=0|269=1|146=1|55=68|10=065|8=FIX.4.4|9=172|35=V|34=56|49=demo.ctrader.3873996|50=3873996Vu23oNsuaZgvUY0w1fLVmA|52=20231212-14:04:10.395|56=cServer|57=QUOTE|262=MARKETDATAID|263=1|264=1|267=2|269=0|269=1|146=1|55=69|10=067|8=FIX.4.4|9=172|35=V|34=57|49=demo.ctrader.3873996|50=3873996Vu23oNsuaZgvUY0w1fLVmA|52=20231212-14:04:10.395|56=cServer|57=QUOTE|262=MARKETDATAID|263=1|264=1|267=2|269=0|269=1|146=1|55=70|10=060|8=FIX.4.4|9=172|35=V|34=58|49=demo.ctrader.3873996|50=3873996Vu23oNsuaZgvUY0w1fLVmA|52=20231212-14:04:10.395|56=cServer|57=QUOTE|262=MARKETDATAID|263=1|264=1|267=2|269=0|269=1|146=1|55=71|10=062|8=FIX.4.4|9=172|35=V|34=59|49=demo.ctrader.3873996|50=3873996Vu23oNsuaZgvUY0w1fLVmA|52=20231212-14:04:10.396|56=cServer|57=QUOTE|262=MARKETDATAID|263=1|264=1|267=2|269=0|269=1|146=1|55=72|10=065|8=FIX.4.4|9=172|35=V|34=60|49=demo.ctrader.3873996|50=3873996Vu23oNsuaZgvUY0w1fLVmA|52=20231212-14:04:10.396|56=cServer|57=QUOTE|262=MARKETDATAID|263=1|264=1|267=2|269=0|269=1|146=1|55=73|10=058|8=FIX.4.4|9=172|35=V|34=61|49=demo.ctrader.3873996|50=3873996Vu23oNsuaZgvUY0w1fLVmA|52=20231212-14:04:10.396|56=cServer|57=QUOTE|262=MARKETDATAID|263=1|264=1|267=2|269=0|269=1|146=1|55=74|10=060|8=FIX.4.4|9=175|35=V|34=62|49=demo.ctrader.3873996|50=3873996Vu23oNsuaZgvUY0w1fLVmA|52=20231212-14:04:10.396|56=cServer|57=QUOTE|262=MARKETDATAID|263=1|264=1|267=2|269=0|269=1|146=1|55=10075|10=210|8=FIX.4.4|9=175|35=V|34=63|49=demo.ctrader.3873996|50=3873996Vu23oNsuaZgvUY0w1fLVmA|52=20231212-14:04:10.396|56=cServer|57=QUOTE|262=MARKETDATAID|263=1|264=1|267=2|269=0|269=1|146=1|55=10076|10=212|8=FIX.4.4|9=175|35=V|34=64|49=demo.ctrader.3873996|50=3873996Vu23oNsuaZgvUY0w1fLVmA|52=20231212-14:04:10.396|56=cServer|57=QUOTE|262=MARKETDATAID|263=1|264=1|267=2|269=0|269=1|146=1|55=10077|10=214|8=FIX.4.4|9=175|35=V|34=65|49=demo.ctrader.3873996|50=3873996Vu23oNsuaZgvUY0w1fLVmA|52=20231212-14:04:10.396|56=cServer|57=QUOTE|262=MARKETDATAID|263=1|264=1|267=2|269=0|269=1|146=1|55=10078|10=216|8=FIX.4.4|9=175|35=V|34=66|49=demo.ctrader.3873996|50=3873996Vu23oNsuaZgvUY0w1fLVmA|52=20231212-14:04:10.396|56=cServer|57=QUOTE|262=MARKETDATAID|263=1|264=1|267=2|269=0|269=1|146=1|55=10079|10=218|8=FIX.4.4|9=175|35=V|34=67|49=demo.ctrader.3873996|50=3873996Vu23oNsuaZgvUY0w1fLVmA|52=20231212-14:04:10.397|56=cServer|57=QUOTE|262=MARKETDATAID|263=1|264=1|267=2|269=0|269=1|146=1|55=10080|10=212|8=FIX.4.4|9=175|35=V|34=68|49=demo.ctrader.3873996|50=3873996Vu23oNsuaZgvUY0w1fLVmA|52=20231212-14:04:10.397|56=cServer|57=QUOTE|262=MARKETDATAID|263=1|264=1|267=2|269=0|269=1|146=1|55=10081|10=214|8=FIX.4.4|9=175|35=V|34=69|49=demo.ctrader.3873996|50=3873996Vu23oNsuaZgvUY0w1fLVmA|52=20231212-14:04:10.397|56=cServer|57=QUOTE|262=MARKETDATAID|263=1|264=1|267=2|269=0|269=1|146=1|55=10082|10=216|8=FIX.4.4|9=175|35=V|34=70|49=demo.ctrader.3873996|50=3873996Vu23oNsuaZgvUY0w1fLVmA|52=20231212-14:04:10.397|56=cServer|57=QUOTE|262=MARKETDATAID|263=1|264=1|267=2|269=0|269=1|146=1|55=10083|10=209|8=FIX.4.4|9=175|35=V|34=71|49=demo.ctrader.3873996|50=3873996Vu23oNsuaZgvUY0w1fLVmA|52=20231212-14:04:10.397|56=cServer|57=QUOTE|262=MARKETDATAID|263=1|264=1|267=2|269=0|269=1|146=1|55=10084|10=211|8=FIX.4.4|9=175|35=V|34=72|49=demo.ctrader.3873996|50=3873996Vu23oNsuaZgvUY0w1fLVmA|52=20231212-14:04:10.397|56=cServer|57=QUOTE|262=MARKETDATAID|263=1|264=1|267=2|269=0|269=1|146=1|55=10085|10=213|8=FIX.4.4|9=175|35=V|34=73|49=demo.ctrader.3873996|50=3873996Vu23oNsuaZgvUY0w1fLVmA|52=20231212-14:04:10.397|56=cServer|57=QUOTE|262=MARKETDATAID|263=1|264=1|267=2|269=0|269=1|146=1|55=10086|10=215|8=FIX.4.4|9=175|35=V|34=74|49=demo.ctrader.3873996|50=3873996Vu23oNsuaZgvUY0w1fLVmA|52=20231212-14:04:10.397|56=cServer|57=QUOTE|262=MARKETDATAID|263=1|264=1|267=2|269=0|269=1|146=1|55=10087|10=217|8=FIX.4.4|9=175|35=V|34=75|49=demo.ctrader.3873996|50=3873996Vu23oNsuaZgvUY0w1fLVmA|52=20231212-14:04:10.398|56=cServer|57=QUOTE|262=MARKETDATAID|263=1|264=1|267=2|269=0|269=1|146=1|55=10088|10=220|8=FIX.4.4|9=175|35=V|34=76|49=demo.ctrader.3873996|50=3873996Vu23oNsuaZgvUY0w1fLVmA|52=20231212-14:04:10.398|56=cServer|57=QUOTE|262=MARKETDATAID|263=1|264=1|267=2|269=0|269=1|146=1|55=10089|10=222|8=FIX.4.4|9=175|35=V|34=77|49=demo.ctrader.3873996|50=3873996Vu23oNsuaZgvUY0w1fLVmA|52=20231212-14:04:10.398|56=cServer|57=QUOTE|262=MARKETDATAID|263=1|264=1|267=2|269=0|269=1|146=1|55=10090|10=215|8=FIX.4.4|9=175|35=V|34=78|49=demo.ctrader.3873996|50=3873996Vu23oNsuaZgvUY0w1fLVmA|52=20231212-14:04:10.398|56=cServer|57=QUOTE|262=MARKETDATAID|263=1|264=1|267=2|269=0|269=1|146=1|55=10091|10=217|8=FIX.4.4|9=175|35=V|34=79|49=demo.ctrader.3873996|50=3873996Vu23oNsuaZgvUY0w1fLVmA|52=20231212-14:04:10.398|56=cServer|57=QUOTE|262=MARKETDATAID|263=1|264=1|267=2|269=0|269=1|146=1|55=10092|10=219|8=FIX.4.4|9=175|35=V|34=80|49=demo.ctrader.3873996|50=3873996Vu23oNsuaZgvUY0w1fLVmA|52=20231212-14:04:10.398|56=cServer|57=QUOTE|262=MARKETDATAID|263=1|264=1|267=2|269=0|269=1|146=1|55=10093|10=212|8=FIX.4.4|9=175|35=V|34=81|49=demo.ctrader.3873996|50=3873996Vu23oNsuaZgvUY0w1fLVmA|52=20231212-14:04:10.398|56=cServer|57=QUOTE|262=MARKETDATAID|263=1|264=1|267=2|269=0|269=1|146=1|55=10094|10=214|8=FIX.4.4|9=175|35=V|34=82|49=demo.ctrader.3873996|50=3873996Vu23oNsuaZgvUY0w1fLVmA|52=20231212-14:04:10.398|56=cServer|57=QUOTE|262=MARKETDATAID|263=1|264=1|267=2|269=0|269=1|146=1|55=10095|10=216|8=FIX.4.4|9=175|35=V|34=83|49=demo.ctrader.3873996|50=3873996Vu23oNsuaZgvUY0w1fLVmA|52=20231212-14:04:10.398|56=cServer|57=QUOTE|262=MARKETDATAID|263=1|264=1|267=2|269=0|269=1|146=1|55=10096|10=218|8=FIX.4.4|9=175|35=V|34=84|49=demo.ctrader.3873996|50=3873996Vu23oNsuaZgvUY0w1fLVmA|52=20231212-14:04:10.398|56=cServer|57=QUOTE|262=MARKETDATAID|263=1|264=1|267=2|269=0|269=1|146=1|55=20009|10=214|8=FIX.4.4|9=175|35=V|34=85|49=demo.ctrader.3873996|50=3873996Vu23oNsuaZgvUY0w1fLVmA|52=20231212-14:04:10.399|56=cServer|57=QUOTE|262=MARKETDATAID|263=1|264=1|267=2|269=0|269=1|146=1|55=20011|10=209|8=FIX.4.4|9=175|35=V|34=86|49=demo.ctrader.3873996|50=3873996Vu23oNsuaZgvUY0w1fLVmA|52=20231212-14:04:10.399|56=cServer|57=QUOTE|262=MARKETDATAID|263=1|264=1|267=2|269=0|269=1|146=1|55=20012|10=211|8=FIX.4.4|9=175|35=V|34=87|49=demo.ctrader.3873996|50=3873996Vu23oNsuaZgvUY0w1fLVmA|52=20231212-14:04:10.399|56=cServer|57=QUOTE|262=MARKETDATAID|263=1|264=1|267=2|269=0|269=1|146=1|55=20013|10=213|8=FIX.4.4|9=175|35=V|34=88|49=demo.ctrader.3873996|50=3873996Vu23oNsuaZgvUY0w1fLVmA|52=20231212-14:04:10.399|56=cServer|57=QUOTE|262=MARKETDATAID|263=1|264=1|267=2|269=0|269=1|146=1|55=20014|10=215|8=FIX.4.4|9=175|35=V|34=89|49=demo.ctrader.3873996|50=3873996Vu23oNsuaZgvUY0w1fLVmA|52=20231212-14:04:10.399|56=cServer|57=QUOTE|262=MARKETDATAID|263=1|264=1|267=2|269=0|269=1|146=1|55=20015|10=217|8=FIX.4.4|9=175|35=V|34=90|49=demo.ctrader.3873996|50=3873996Vu23oNsuaZgvUY0w1fLVmA|52=20231212-14:04:10.399|56=cServer|57=QUOTE|262=MARKETDATAID|263=1|264=1|267=2|269=0|269=1|146=1|55=20016|10=210|8=FIX.4.4|9=175|35=V|34=91|49=demo.ctrader.3873996|50=3873996Vu23oNsuaZgvUY0w1fLVmA|52=20231212-14:04:10.399|56=cServer|57=QUOTE|262=MARKETDATAID|263=1|264=1|267=2|269=0|269=1|146=1|55=20017|10=212|8=FIX.4.4|9=175|35=V|34=92|49=demo.ctrader.3873996|50=3873996Vu23oNsuaZgvUY0w1fLVmA|52=20231212-14:04:10.399|56=cServer|57=QUOTE|262=MARKETDATAID|263=1|264=1|267=2|269=0|269=1|146=1|55=20018|10=214|8=FIX.4.4|9=175|35=V|34=93|49=demo.ctrader.3873996|50=3873996Vu23oNsuaZgvUY0w1fLVmA|52=20231212-14:04:10.399|56=cServer|57=QUOTE|262=MARKETDATAID|263=1|264=1|267=2|269=0|269=1|146=1|55=20019|10=216|8=FIX.4.4|9=175|35=V|34=94|49=demo.ctrader.3873996|50=3873996Vu23oNsuaZgvUY0w1fLVmA|52=20231212-14:04:10.399|56=cServer|57=QUOTE|262=MARKETDATAID|263=1|264=1|267=2|269=0|269=1|146=1|55=20020|10=209|8=FIX.4.4|9=175|35=V|34=95|49=demo.ctrader.3873996|50=3873996Vu23oNsuaZgvUY0w1fLVmA|52=20231212-14:04:10.400|56=cServer|57=QUOTE|262=MARKETDATAID|263=1|264=1|267=2|269=0|269=1|146=1|55=20021|10=194|8=FIX.4.4|9=175|35=V|34=96|49=demo.ctrader.3873996|50=3873996Vu23oNsuaZgvUY0w1fLVmA|52=20231212-14:04:10.400|56=cServer|57=QUOTE|262=MARKETDATAID|263=1|264=1|267=2|269=0|269=1|146=1|55=20022|10=196|8=FIX.4.4|9=175|35=V|34=97|49=demo.ctrader.3873996|50=3873996Vu23oNsuaZgvUY0w1fLVmA|52=20231212-14:04:10.400|56=cServer|57=QUOTE|262=MARKETDATAID|263=1|264=1|267=2|269=0|269=1|146=1|55=20023|10=198|8=FIX.4.4|9=175|35=V|34=98|49=demo.ctrader.3873996|50=3873996Vu23oNsuaZgvUY0w1fLVmA|52=20231212-14:04:10.400|56=cServer|57=QUOTE|262=MARKETDATAID|263=1|264=1|267=2|269=0|269=1|146=1|55=20024|10=200|8=FIX.4.4|9=175|35=V|34=99|49=demo.ctrader.3873996|50=3873996Vu23oNsuaZgvUY0w1fLVmA|52=20231212-14:04:10.400|56=cServer|57=QUOTE|262=MARKETDATAID|263=1|264=1|267=2|269=0|269=1|146=1|55=20025|10=202|8=FIX.4.4|9=176|35=V|34=100|49=demo.ctrader.3873996|50=3873996Vu23oNsuaZgvUY0w1fLVmA|52=20231212-14:04:10.400|56=cServer|57=QUOTE|262=MARKETDATAID|263=1|264=1|267=2|269=0|269=1|146=1|55=20026|10=235|8=FIX.4.4|9=176|35=V|34=101|49=demo.ctrader.3873996|50=3873996Vu23oNsuaZgvUY0w1fLVmA|52=20231212-14:04:10.400|56=cServer|57=QUOTE|262=MARKETDATAID|263=1|264=1|267=2|269=0|269=1|146=1|55=20027|10=237|8=FIX.4.4|9=176|35=V|34=102|49=demo.ctrader.3873996|50=3873996Vu23oNsuaZgvUY0w1fLVmA|52=20231212-14:04:10.400|56=cServer|57=QUOTE|262=MARKETDATAID|263=1|264=1|267=2|269=0|269=1|146=1|55=20028|10=239|8=FIX.4.4|9=176|35=V|34=103|49=demo.ctrader.3873996|50=3873996Vu23oNsuaZgvUY0w1fLVmA|52=20231212-14:04:10.400|56=cServer|57=QUOTE|262=MARKETDATAID|263=1|264=1|267=2|269=0|269=1|146=1|55=20029|10=241|8=FIX.4.4|9=176|35=V|34=104|49=demo.ctrader.3873996|50=3873996Vu23oNsuaZgvUY0w1fLVmA|52=20231212-14:04:10.400|56=cServer|57=QUOTE|262=MARKETDATAID|263=1|264=1|267=2|269=0|269=1|146=1|55=20030|10=234|8=FIX.4.4|9=176|35=V|34=105|49=demo.ctrader.3873996|50=3873996Vu23oNsuaZgvUY0w1fLVmA|52=20231212-14:04:10.401|56=cServer|57=QUOTE|262=MARKETDATAID|263=1|264=1|267=2|269=0|269=1|146=1|55=20031|10=237|8=FIX.4.4|9=176|35=V|34=106|49=demo.ctrader.3873996|50=3873996Vu23oNsuaZgvUY0w1fLVmA|52=20231212-14:04:10.401|56=cServer|57=QUOTE|262=MARKETDATAID|263=1|264=1|267=2|269=0|269=1|146=1|55=20032|10=239|8=FIX.4.4|9=176|35=V|34=107|49=demo.ctrader.3873996|50=3873996Vu23oNsuaZgvUY0w1fLVmA|52=20231212-14:04:10.401|56=cServer|57=QUOTE|262=MARKETDATAID|263=1|264=1|267=2|269=0|269=1|146=1|55=20033|10=241|8=FIX.4.4|9=176|35=V|34=108|49=demo.ctrader.3873996|50=3873996Vu23oNsuaZgvUY0w1fLVmA|52=20231212-14:04:10.401|56=cServer|57=QUOTE|262=MARKETDATAID|263=1|264=1|267=2|269=0|269=1|146=1|55=20034|10=243|8=FIX.4.4|9=176|35=V|34=109|49=demo.ctrader.3873996|50=3873996Vu23oNsuaZgvUY0w1fLVmA|52=20231212-14:04:10.401|56=cServer|57=QUOTE|262=MARKETDATAID|263=1|264=1|267=2|269=0|269=1|146=1|55=20035|10=245|8=FIX.4.4|9=176|35=V|34=110|49=demo.ctrader.3873996|50=3873996Vu23oNsuaZgvUY0w1fLVmA|52=20231212-14:04:10.401|56=cServer|57=QUOTE|262=MARKETDATAID|263=1|264=1|267=2|269=0|269=1|146=1|55=20036|10=238|8=FIX.4.4|9=176|35=V|34=111|49=demo.ctrader.3873996|50=3873996Vu23oNsuaZgvUY0w1fLVmA|52=20231212-14:04:10.401|56=cServer|57=QUOTE|262=MARKETDATAID|263=1|264=1|267=2|269=0|269=1|146=1|55=20037|10=240|8=FIX.4.4|9=176|35=V|34=112|49=demo.ctrader.3873996|50=3873996Vu23oNsuaZgvUY0w1fLVmA|52=20231212-14:04:10.401|56=cServer|57=QUOTE|262=MARKETDATAID|263=1|264=1|267=2|269=0|269=1|146=1|55=20038|10=242|8=FIX.4.4|9=176|35=V|34=113|49=demo.ctrader.3873996|50=3873996Vu23oNsuaZgvUY0w1fLVmA|52=20231212-14:04:10.401|56=cServer|57=QUOTE|262=MARKETDATAID|263=1|264=1|267=2|269=0|269=1|146=1|55=20039|10=244|8=FIX.4.4|9=176|35=V|34=114|49=demo.ctrader.3873996|50=3873996Vu23oNsuaZgvUY0w1fLVmA|52=20231212-14:04:10.401|56=cServer|57=QUOTE|262=MARKETDATAID|263=1|264=1|267=2|269=0|269=1|146=1|55=20040|10=237|8=FIX.4.4|9=176|35=V|34=115|49=demo.ctrader.3873996|50=3873996Vu23oNsuaZgvUY0w1fLVmA|52=20231212-14:04:10.401|56=cServer|57=QUOTE|262=MARKETDATAID|263=1|264=1|267=2|269=0|269=1|146=1|55=20041|10=239|8=FIX.4.4|9=176|35=V|34=116|49=demo.ctrader.3873996|50=3873996Vu23oNsuaZgvUY0w1fLVmA|52=20231212-14:04:10.402|56=cServer|57=QUOTE|262=MARKETDATAID|263=1|264=1|267=2|269=0|269=1|146=1|55=20042|10=242|8=FIX.4.4|9=176|35=V|34=117|49=demo.ctrader.3873996|50=3873996Vu23oNsuaZgvUY0w1fLVmA|52=20231212-14:04:10.402|56=cServer|57=QUOTE|262=MARKETDATAID|263=1|264=1|267=2|269=0|269=1|146=1|55=20043|10=244|8=FIX.4.4|9=176|35=V|34=118|49=demo.ctrader.3873996|50=3873996Vu23oNsuaZgvUY0w1fLVmA|52=20231212-14:04:10.402|56=cServer|57=QUOTE|262=MARKETDATAID|263=1|264=1|267=2|269=0|269=1|146=1|55=20044|10=246|8=FIX.4.4|9=176|35=V|34=119|49=demo.ctrader.3873996|50=3873996Vu23oNsuaZgvUY0w1fLVmA|52=20231212-14:04:10.402|56=cServer|57=QUOTE|262=MARKETDATAID|263=1|264=1|267=2|269=0|269=1|146=1|55=20045|10=248|8=FIX.4.4|9=176|35=V|34=120|49=demo.ctrader.3873996|50=3873996Vu23oNsuaZgvUY0w1fLVmA|52=20231212-14:04:10.402|56=cServer|57=QUOTE|262=MARKETDATAID|263=1|264=1|267=2|269=0|269=1|146=1|55=20046|10=241|8=FIX.4.4|9=176|35=V|34=121|49=demo.ctrader.3873996|50=3873996Vu23oNsuaZgvUY0w1fLVmA|52=20231212-14:04:10.402|56=cServer|57=QUOTE|262=MARKETDATAID|263=1|264=1|267=2|269=0|269=1|146=1|55=20047|10=243|8=FIX.4.4|9=176|35=V|34=122|49=demo.ctrader.3873996|50=3873996Vu23oNsuaZgvUY0w1fLVmA|52=20231212-14:04:10.402|56=cServer|57=QUOTE|262=MARKETDATAID|263=1|264=1|267=2|269=0|269=1|146=1|55=20048|10=245|8=FIX.4.4|9=176|35=V|34=123|49=demo.ctrader.3873996|50=3873996Vu23oNsuaZgvUY0w1fLVmA|52=20231212-14:04:10.402|56=cServer|57=QUOTE|262=MARKETDATAID|263=1|264=1|267=2|269=0|269=1|146=1|55=20049|10=247|8=FIX.4.4|9=176|35=V|34=124|49=demo.ctrader.3873996|50=3873996Vu23oNsuaZgvUY0w1fLVmA|52=20231212-14:04:10.402|56=cServer|57=QUOTE|262=MARKETDATAID|263=1|264=1|267=2|269=0|269=1|146=1|55=20050|10=240|8=FIX.4.4|9=176|35=V|34=125|49=demo.ctrader.3873996|50=3873996Vu23oNsuaZgvUY0w1fLVmA|52=20231212-14:04:10.402|56=cServer|57=QUOTE|262=MARKETDATAID|263=1|264=1|267=2|269=0|269=1|146=1|55=20051|10=242|8=FIX.4.4|9=176|35=V|34=126|49=demo.ctrader.3873996|50=3873996Vu23oNsuaZgvUY0w1fLVmA|52=20231212-14:04:10.402|56=cServer|57=QUOTE|262=MARKETDATAID|263=1|264=1|267=2|269=0|269=1|146=1|55=20052|10=244|8=FIX.4.4|9=176|35=V|34=127|49=demo.ctrader.3873996|50=3873996Vu23oNsuaZgvUY0w1fLVmA|52=20231212-14:04:10.402|56=cServer|57=QUOTE|262=MARKETDATAID|263=1|264=1|267=2|269=0|269=1|146=1|55=20053|10=246|8=FIX.4.4|9=176|35=V|34=128|49=demo.ctrader.3873996|50=3873996Vu23oNsuaZgvUY0w1fLVmA|52=20231212-14:04:10.403|56=cServer|57=QUOTE|262=MARKETDATAID|263=1|264=1|267=2|269=0|269=1|146=1|55=20054|10=249|8=FIX.4.4|9=176|35=V|34=129|49=demo.ctrader.3873996|50=3873996Vu23oNsuaZgvUY0w1fLVmA|52=20231212-14:04:10.403|56=cServer|57=QUOTE|262=MARKETDATAID|263=1|264=1|267=2|269=0|269=1|146=1|55=20055|10=251|8=FIX.4.4|9=176|35=V|34=130|49=demo.ctrader.3873996|50=3873996Vu23oNsuaZgvUY0w1fLVmA|52=20231212-14:04:10.403|56=cServer|57=QUOTE|262=MARKETDATAID|263=1|264=1|267=2|269=0|269=1|146=1|55=20056|10=244|8=FIX.4.4|9=176|35=V|34=131|49=demo.ctrader.3873996|50=3873996Vu23oNsuaZgvUY0w1fLVmA|52=20231212-14:04:10.403|56=cServer|57=QUOTE|262=MARKETDATAID|263=1|264=1|267=2|269=0|269=1|146=1|55=20057|10=246|8=FIX.4.4|9=176|35=V|34=132|49=demo.ctrader.3873996|50=3873996Vu23oNsuaZgvUY0w1fLVmA|52=20231212-14:04:10.403|56=cServer|57=QUOTE|262=MARKETDATAID|263=1|264=1|267=2|269=0|269=1|146=1|55=20058|10=248|8=FIX.4.4|9=176|35=V|34=133|49=demo.ctrader.3873996|50=3873996Vu23oNsuaZgvUY0w1fLVmA|52=20231212-14:04:10.403|56=cServer|57=QUOTE|262=MARKETDATAID|263=1|264=1|267=2|269=0|269=1|146=1|55=20059|10=250|8=FIX.4.4|9=176|35=V|34=134|49=demo.ctrader.3873996|50=3873996Vu23oNsuaZgvUY0w1fLVmA|52=20231212-14:04:10.403|56=cServer|57=QUOTE|262=MARKETDATAID|263=1|264=1|267=2|269=0|269=1|146=1|55=20060|10=243|8=FIX.4.4|9=176|35=V|34=135|49=demo.ctrader.3873996|50=3873996Vu23oNsuaZgvUY0w1fLVmA|52=20231212-14:04:10.403|56=cServer|57=QUOTE|262=MARKETDATAID|263=1|264=1|267=2|269=0|269=1|146=1|55=20061|10=245|8=FIX.4.4|9=176|35=V|34=136|49=demo.ctrader.3873996|50=3873996Vu23oNsuaZgvUY0w1fLVmA|52=20231212-14:04:10.403|56=cServer|57=QUOTE|262=MARKETDATAID|263=1|264=1|267=2|269=0|269=1|146=1|55=20062|10=247|8=FIX.4.4|9=176|35=V|34=137|49=demo.ctrader.3873996|50=3873996Vu23oNsuaZgvUY0w1fLVmA|52=20231212-14:04:10.403|56=cServer|57=QUOTE|262=MARKETDATAID|263=1|264=1|267=2|269=0|269=1|146=1|55=20063|10=249|8=FIX.4.4|9=176|35=V|34=138|49=demo.ctrader.3873996|50=3873996Vu23oNsuaZgvUY0w1fLVmA|52=20231212-14:04:10.403|56=cServer|57=QUOTE|262=MARKETDATAID|263=1|264=1|267=2|269=0|269=1|146=1|55=20064|10=251|8=FIX.4.4|9=176|35=V|34=139|49=demo.ctrader.3873996|50=3873996Vu23oNsuaZgvUY0w1fLVmA|52=20231212-14:04:10.404|56=cServer|57=QUOTE|262=MARKETDATAID|263=1|264=1|267=2|269=0|269=1|146=1|55=20065|10=254|8=FIX.4.4|9=176|35=V|34=140|49=demo.ctrader.3873996|50=3873996Vu23oNsuaZgvUY0w1fLVmA|52=20231212-14:04:10.404|56=cServer|57=QUOTE|262=MARKETDATAID|263=1|264=1|267=2|269=0|269=1|146=1|55=20066|10=247|8=FIX.4.4|9=176|35=V|34=141|49=demo.ctrader.3873996|50=3873996Vu23oNsuaZgvUY0w1fLVmA|52=20231212-14:04:10.404|56=cServer|57=QUOTE|262=MARKETDATAID|263=1|264=1|267=2|269=0|269=1|146=1|55=20067|10=249|8=FIX.4.4|9=176|35=V|34=142|49=demo.ctrader.3873996|50=3873996Vu23oNsuaZgvUY0w1fLVmA|52=20231212-14:04:10.404|56=cServer|57=QUOTE|262=MARKETDATAID|263=1|264=1|267=2|269=0|269=1|146=1|55=20068|10=251|8=FIX.4.4|9=176|35=V|34=143|49=demo.ctrader.3873996|50=3873996Vu23oNsuaZgvUY0w1fLVmA|52=20231212-14:04:10.404|56=cServer|57=QUOTE|262=MARKETDATAID|263=1|264=1|267=2|269=0|269=1|146=1|55=20069|10=253|8=FIX.4.4|9=176|35=V|34=144|49=demo.ctrader.3873996|50=3873996Vu23oNsuaZgvUY0w1fLVmA|52=20231212-14:04:10.404|56=cServer|57=QUOTE|262=MARKETDATAID|263=1|264=1|267=2|269=0|269=1|146=1|55=20070|10=246|8=FIX.4.4|9=176|35=V|34=145|49=demo.ctrader.3873996|50=3873996Vu23oNsuaZgvUY0w1fLVmA|52=20231212-14:04:10.404|56=cServer|57=QUOTE|262=MARKETDATAID|263=1|264=1|267=2|269=0|269=1|146=1|55=20071|10=248|8=FIX.4.4|9=176|35=V|34=146|49=demo.ctrader.3873996|50=3873996Vu23oNsuaZgvUY0w1fLVmA|52=20231212-14:04:10.404|56=cServer|57=QUOTE|262=MARKETDATAID|263=1|264=1|267=2|269=0|269=1|146=1|55=20072|10=250|8=FIX.4.4|9=176|35=V|34=147|49=demo.ctrader.3873996|50=3873996Vu23oNsuaZgvUY0w1fLVmA|52=20231212-14:04:10.405|56=cServer|57=QUOTE|262=MARKETDATAID|263=1|264=1|267=2|269=0|269=1|146=1|55=20073|10=253|8=FIX.4.4|9=176|35=V|34=148|49=demo.ctrader.3873996|50=3873996Vu23oNsuaZgvUY0w1fLVmA|52=20231212-14:04:10.405|56=cServer|57=QUOTE|262=MARKETDATAID|263=1|264=1|267=2|269=0|269=1|146=1|55=20074|10=255|8=FIX.4.4|9=176|35=V|34=149|49=demo.ctrader.3873996|50=3873996Vu23oNsuaZgvUY0w1fLVmA|52=20231212-14:04:10.405|56=cServer|57=QUOTE|262=MARKETDATAID|263=1|264=1|267=2|269=0|269=1|146=1|55=20075|10=001|8=FIX.4.4|9=176|35=V|34=150|49=demo.ctrader.3873996|50=3873996Vu23oNsuaZgvUY0w1fLVmA|52=20231212-14:04:10.405|56=cServer|57=QUOTE|262=MARKETDATAID|263=1|264=1|267=2|269=0|269=1|146=1|55=20076|10=250|8=FIX.4.4|9=176|35=V|34=151|49=demo.ctrader.3873996|50=3873996Vu23oNsuaZgvUY0w1fLVmA|52=20231212-14:04:10.405|56=cServer|57=QUOTE|262=MARKETDATAID|263=1|264=1|267=2|269=0|269=1|146=1|55=20077|10=252|8=FIX.4.4|9=176|35=V|34=152|49=demo.ctrader.3873996|50=3873996Vu23oNsuaZgvUY0w1fLVmA|52=20231212-14:04:10.406|56=cServer|57=QUOTE|262=MARKETDATAID|263=1|264=1|267=2|269=0|269=1|146=1|55=20078|10=255|8=FIX.4.4|9=176|35=V|34=153|49=demo.ctrader.3873996|50=3873996Vu23oNsuaZgvUY0w1fLVmA|52=20231212-14:04:10.406|56=cServer|57=QUOTE|262=MARKETDATAID|263=1|264=1|267=2|269=0|269=1|146=1|55=20079|10=001|8=FIX.4.4|9=176|35=V|34=154|49=demo.ctrader.3873996|50=3873996Vu23oNsuaZgvUY0w1fLVmA|52=20231212-14:04:10.406|56=cServer|57=QUOTE|262=MARKETDATAID|263=1|264=1|267=2|269=0|269=1|146=1|55=20080|10=250|8=FIX.4.4|9=176|35=V|34=155|49=demo.ctrader.3873996|50=3873996Vu23oNsuaZgvUY0w1fLVmA|52=20231212-14:04:10.406|56=cServer|57=QUOTE|262=MARKETDATAID|263=1|264=1|267=2|269=0|269=1|146=1|55=20081|10=252|8=FIX.4.4|9=176|35=V|34=156|49=demo.ctrader.3873996|50=3873996Vu23oNsuaZgvUY0w1fLVmA|52=20231212-14:04:10.406|56=cServer|57=QUOTE|262=MARKETDATAID|263=1|264=1|267=2|269=0|269=1|146=1|55=20082|10=254|8=FIX.4.4|9=176|35=V|34=157|49=demo.ctrader.3873996|50=3873996Vu23oNsuaZgvUY0w1fLVmA|52=20231212-14:04:10.407|56=cServer|57=QUOTE|262=MARKETDATAID|263=1|264=1|267=2|269=0|269=1|146=1|55=20083|10=001|8=FIX.4.4|9=176|35=V|34=158|49=demo.ctrader.3873996|50=3873996Vu23oNsuaZgvUY0w1fLVmA|52=20231212-14:04:10.407|56=cServer|57=QUOTE|262=MARKETDATAID|263=1|264=1|267=2|269=0|269=1|146=1|55=20084|10=003|8=FIX.4.4|9=176|35=V|34=159|49=demo.ctrader.3873996|50=3873996Vu23oNsuaZgvUY0w1fLVmA|52=20231212-14:04:10.407|56=cServer|57=QUOTE|262=MARKETDATAID|263=1|264=1|267=2|269=0|269=1|146=1|55=20085|10=005|8=FIX.4.4|9=176|35=V|34=160|49=demo.ctrader.3873996|50=3873996Vu23oNsuaZgvUY0w1fLVmA|52=20231212-14:04:10.407|56=cServer|57=QUOTE|262=MARKETDATAID|263=1|264=1|267=2|269=0|269=1|146=1|55=20086|10=254|8=FIX.4.4|9=176|35=V|34=161|49=demo.ctrader.3873996|50=3873996Vu23oNsuaZgvUY0w1fLVmA|52=20231212-14:04:10.407|56=cServer|57=QUOTE|262=MARKETDATAID|263=1|264=1|267=2|269=0|269=1|146=1|55=20087|10=000|8=FIX.4.4|9=176|35=V|34=162|49=demo.ctrader.3873996|50=3873996Vu23oNsuaZgvUY0w1fLVmA|52=20231212-14:04:10.407|56=cServer|57=QUOTE|262=MARKETDATAID|263=1|264=1|267=2|269=0|269=1|146=1|55=20088|10=002|8=FIX.4.4|9=176|35=V|34=163|49=demo.ctrader.3873996|50=3873996Vu23oNsuaZgvUY0w1fLVmA|52=20231212-14:04:10.408|56=cServer|57=QUOTE|262=MARKETDATAID|263=1|264=1|267=2|269=0|269=1|146=1|55=20089|10=005|8=FIX.4.4|9=176|35=V|34=164|49=demo.ctrader.3873996|50=3873996Vu23oNsuaZgvUY0w1fLVmA|52=20231212-14:04:10.408|56=cServer|57=QUOTE|262=MARKETDATAID|263=1|264=1|267=2|269=0|269=1|146=1|55=20090|10=254|8=FIX.4.4|9=176|35=V|34=165|49=demo.ctrader.3873996|50=3873996Vu23oNsuaZgvUY0w1fLVmA|52=20231212-14:04:10.408|56=cServer|57=QUOTE|262=MARKETDATAID|263=1|264=1|267=2|269=0|269=1|146=1|55=20091|10=000|8=FIX.4.4|9=176|35=V|34=166|49=demo.ctrader.3873996|50=3873996Vu23oNsuaZgvUY0w1fLVmA|52=20231212-14:04:10.408|56=cServer|57=QUOTE|262=MARKETDATAID|263=1|264=1|267=2|269=0|269=1|146=1|55=20092|10=002|8=FIX.4.4|9=176|35=V|34=167|49=demo.ctrader.3873996|50=3873996Vu23oNsuaZgvUY0w1fLVmA|52=20231212-14:04:10.409|56=cServer|57=QUOTE|262=MARKETDATAID|263=1|264=1|267=2|269=0|269=1|146=1|55=20093|10=005|8=FIX.4.4|9=176|35=V|34=168|49=demo.ctrader.3873996|50=3873996Vu23oNsuaZgvUY0w1fLVmA|52=20231212-14:04:10.409|56=cServer|57=QUOTE|262=MARKETDATAID|263=1|264=1|267=2|269=0|269=1|146=1|55=20094|10=007|8=FIX.4.4|9=176|35=V|34=169|49=demo.ctrader.3873996|50=3873996Vu23oNsuaZgvUY0w1fLVmA|52=20231212-14:04:10.410|56=cServer|57=QUOTE|262=MARKETDATAID|263=1|264=1|267=2|269=0|269=1|146=1|55=20095|10=001|8=FIX.4.4|9=176|35=V|34=170|49=demo.ctrader.3873996|50=3873996Vu23oNsuaZgvUY0w1fLVmA|52=20231212-14:04:10.410|56=cServer|57=QUOTE|262=MARKETDATAID|263=1|264=1|267=2|269=0|269=1|146=1|55=20096|10=250|8=FIX.4.4|9=176|35=V|34=171|49=demo.ctrader.3873996|50=3873996Vu23oNsuaZgvUY0w1fLVmA|52=20231212-14:04:10.410|56=cServer|57=QUOTE|262=MARKETDATAID|263=1|264=1|267=2|269=0|269=1|146=1|55=20097|10=252|8=FIX.4.4|9=176|35=V|34=172|49=demo.ctrader.3873996|50=3873996Vu23oNsuaZgvUY0w1fLVmA|52=20231212-14:04:10.410|56=cServer|57=QUOTE|262=MARKETDATAID|263=1|264=1|267=2|269=0|269=1|146=1|55=20098|10=254|8=FIX.4.4|9=176|35=V|34=173|49=demo.ctrader.3873996|50=3873996Vu23oNsuaZgvUY0w1fLVmA|52=20231212-14:04:10.410|56=cServer|57=QUOTE|262=MARKETDATAID|263=1|264=1|267=2|269=0|269=1|146=1|55=20099|10=000|8=FIX.4.4|9=176|35=V|34=174|49=demo.ctrader.3873996|50=3873996Vu23oNsuaZgvUY0w1fLVmA|52=20231212-14:04:10.411|56=cServer|57=QUOTE|262=MARKETDATAID|263=1|264=1|267=2|269=0|269=1|146=1|55=20100|10=241|8=FIX.4.4|9=176|35=V|34=175|49=demo.ctrader.3873996|50=3873996Vu23oNsuaZgvUY0w1fLVmA|52=20231212-14:04:10.411|56=cServer|57=QUOTE|262=MARKETDATAID|263=1|264=1|267=2|269=0|269=1|146=1|55=20101|10=243|8=FIX.4.4|9=176|35=V|34=176|49=demo.ctrader.3873996|50=3873996Vu23oNsuaZgvUY0w1fLVmA|52=20231212-14:04:10.411|56=cServer|57=QUOTE|262=MARKETDATAID|263=1|264=1|267=2|269=0|269=1|146=1|55=20102|10=245|8=FIX.4.4|9=176|35=V|34=177|49=demo.ctrader.3873996|50=3873996Vu23oNsuaZgvUY0w1fLVmA|52=20231212-14:04:10.411|56=cServer|57=QUOTE|262=MARKETDATAID|263=1|264=1|267=2|269=0|269=1|146=1|55=20103|10=247|8=FIX.4.4|9=176|35=V|34=178|49=demo.ctrader.3873996|50=3873996Vu23oNsuaZgvUY0w1fLVmA|52=20231212-14:04:10.411|56=cServer|57=QUOTE|262=MARKETDATAID|263=1|264=1|267=2|269=0|269=1|146=1|55=20104|10=249|8=FIX.4.4|9=176|35=V|34=179|49=demo.ctrader.3873996|50=3873996Vu23oNsuaZgvUY0w1fLVmA|52=20231212-14:04:10.411|56=cServer|57=QUOTE|262=MARKETDATAID|263=1|264=1|267=2|269=0|269=1|146=1|55=20105|10=251|8=FIX.4.4|9=176|35=V|34=180|49=demo.ctrader.3873996|50=3873996Vu23oNsuaZgvUY0w1fLVmA|52=20231212-14:04:10.411|56=cServer|57=QUOTE|262=MARKETDATAID|263=1|264=1|267=2|269=0|269=1|146=1|55=20106|10=244|8=FIX.4.4|9=176|35=V|34=181|49=demo.ctrader.3873996|50=3873996Vu23oNsuaZgvUY0w1fLVmA|52=20231212-14:04:10.412|56=cServer|57=QUOTE|262=MARKETDATAID|263=1|264=1|267=2|269=0|269=1|146=1|55=20107|10=247|8=FIX.4.4|9=176|35=V|34=182|49=demo.ctrader.3873996|50=3873996Vu23oNsuaZgvUY0w1fLVmA|52=20231212-14:04:10.412|56=cServer|57=QUOTE|262=MARKETDATAID|263=1|264=1|267=2|269=0|269=1|146=1|55=20108|10=249|8=FIX.4.4|9=176|35=V|34=183|49=demo.ctrader.3873996|50=3873996Vu23oNsuaZgvUY0w1fLVmA|52=20231212-14:04:10.412|56=cServer|57=QUOTE|262=MARKETDATAID|263=1|264=1|267=2|269=0|269=1|146=1|55=20109|10=251|8=FIX.4.4|9=176|35=V|34=184|49=demo.ctrader.3873996|50=3873996Vu23oNsuaZgvUY0w1fLVmA|52=20231212-14:04:10.412|56=cServer|57=QUOTE|262=MARKETDATAID|263=1|264=1|267=2|269=0|269=1|146=1|55=20110|10=244|8=FIX.4.4|9=176|35=V|34=185|49=demo.ctrader.3873996|50=3873996Vu23oNsuaZgvUY0w1fLVmA|52=20231212-14:04:10.412|56=cServer|57=QUOTE|262=MARKETDATAID|263=1|264=1|267=2|269=0|269=1|146=1|55=20111|10=246|8=FIX.4.4|9=176|35=V|34=186|49=demo.ctrader.3873996|50=3873996Vu23oNsuaZgvUY0w1fLVmA|52=20231212-14:04:10.412|56=cServer|57=QUOTE|262=MARKETDATAID|263=1|264=1|267=2|269=0|269=1|146=1|55=20112|10=248|8=FIX.4.4|9=176|35=V|34=187|49=demo.ctrader.3873996|50=3873996Vu23oNsuaZgvUY0w1fLVmA|52=20231212-14:04:10.412|56=cServer|57=QUOTE|262=MARKETDATAID|263=1|264=1|267=2|269=0|269=1|146=1|55=20113|10=250|8=FIX.4.4|9=176|35=V|34=188|49=demo.ctrader.3873996|50=3873996Vu23oNsuaZgvUY0w1fLVmA|52=20231212-14:04:10.413|56=cServer|57=QUOTE|262=MARKETDATAID|263=1|264=1|267=2|269=0|269=1|146=1|55=20114|10=253|8=FIX.4.4|9=176|35=V|34=189|49=demo.ctrader.3873996|50=3873996Vu23oNsuaZgvUY0w1fLVmA|52=20231212-14:04:10.413|56=cServer|57=QUOTE|262=MARKETDATAID|263=1|264=1|267=2|269=0|269=1|146=1|55=20115|10=255|8=FIX.4.4|9=176|35=V|34=190|49=demo.ctrader.3873996|50=3873996Vu23oNsuaZgvUY0w1fLVmA|52=20231212-14:04:10.413|56=cServer|57=QUOTE|262=MARKETDATAID|263=1|264=1|267=2|269=0|269=1|146=1|55=20116|10=248|8=FIX.4.4|9=176|35=V|34=191|49=demo.ctrader.3873996|50=3873996Vu23oNsuaZgvUY0w1fLVmA|52=20231212-14:04:10.413|56=cServer|57=QUOTE|262=MARKETDATAID|263=1|264=1|267=2|269=0|269=1|146=1|55=20117|10=250|8=FIX.4.4|9=176|35=V|34=192|49=demo.ctrader.3873996|50=3873996Vu23oNsuaZgvUY0w1fLVmA|52=20231212-14:04:10.413|56=cServer|57=QUOTE|262=MARKETDATAID|263=1|264=1|267=2|269=0|269=1|146=1|55=20118|10=252|8=FIX.4.4|9=176|35=V|34=193|49=demo.ctrader.3873996|50=3873996Vu23oNsuaZgvUY0w1fLVmA|52=20231212-14:04:10.413|56=cServer|57=QUOTE|262=MARKETDATAID|263=1|264=1|267=2|269=0|269=1|146=1|55=20119|10=254|8=FIX.4.4|9=176|35=V|34=194|49=demo.ctrader.3873996|50=3873996Vu23oNsuaZgvUY0w1fLVmA|52=20231212-14:04:10.413|56=cServer|57=QUOTE|262=MARKETDATAID|263=1|264=1|267=2|269=0|269=1|146=1|55=20120|10=247|8=FIX.4.4|9=176|35=V|34=195|49=demo.ctrader.3873996|50=3873996Vu23oNsuaZgvUY0w1fLVmA|52=20231212-14:04:10.413|56=cServer|57=QUOTE|262=MARKETDATAID|263=1|264=1|267=2|269=0|269=1|146=1|55=20121|10=249|8=FIX.4.4|9=176|35=V|34=196|49=demo.ctrader.3873996|50=3873996Vu23oNsuaZgvUY0w1fLVmA|52=20231212-14:04:10.414|56=cServer|57=QUOTE|262=MARKETDATAID|263=1|264=1|267=2|269=0|269=1|146=1|55=20122|10=252|8=FIX.4.4|9=176|35=V|34=197|49=demo.ctrader.3873996|50=3873996Vu23oNsuaZgvUY0w1fLVmA|52=20231212-14:04:10.414|56=cServer|57=QUOTE|262=MARKETDATAID|263=1|264=1|267=2|269=0|269=1|146=1|55=20123|10=254|8=FIX.4.4|9=176|35=V|34=198|49=demo.ctrader.3873996|50=3873996Vu23oNsuaZgvUY0w1fLVmA|52=20231212-14:04:10.414|56=cServer|57=QUOTE|262=MARKETDATAID|263=1|264=1|267=2|269=0|269=1|146=1|55=20124|10=000|8=FIX.4.4|9=176|35=V|34=199|49=demo.ctrader.3873996|50=3873996Vu23oNsuaZgvUY0w1fLVmA|52=20231212-14:04:10.414|56=cServer|57=QUOTE|262=MARKETDATAID|263=1|264=1|267=2|269=0|269=1|146=1|55=20125|10=002|8=FIX.4.4|9=176|35=V|34=200|49=demo.ctrader.3873996|50=3873996Vu23oNsuaZgvUY0w1fLVmA|52=20231212-14:04:10.414|56=cServer|57=QUOTE|262=MARKETDATAID|263=1|264=1|267=2|269=0|269=1|146=1|55=20126|10=242|8=FIX.4.4|9=176|35=V|34=201|49=demo.ctrader.3873996|50=3873996Vu23oNsuaZgvUY0w1fLVmA|52=20231212-14:04:10.414|56=cServer|57=QUOTE|262=MARKETDATAID|263=1|264=1|267=2|269=0|269=1|146=1|55=20127|10=244|8=FIX.4.4|9=176|35=V|34=202|49=demo.ctrader.3873996|50=3873996Vu23oNsuaZgvUY0w1fLVmA|52=20231212-14:04:10.414|56=cServer|57=QUOTE|262=MARKETDATAID|263=1|264=1|267=2|269=0|269=1|146=1|55=20128|10=246|8=FIX.4.4|9=176|35=V|34=203|49=demo.ctrader.3873996|50=3873996Vu23oNsuaZgvUY0w1fLVmA|52=20231212-14:04:10.414|56=cServer|57=QUOTE|262=MARKETDATAID|263=1|264=1|267=2|269=0|269=1|146=1|55=20129|10=248|8=FIX.4.4|9=176|35=V|34=204|49=demo.ctrader.3873996|50=3873996Vu23oNsuaZgvUY0w1fLVmA|52=20231212-14:04:10.414|56=cServer|57=QUOTE|262=MARKETDATAID|263=1|264=1|267=2|269=0|269=1|146=1|55=20130|10=241|8=FIX.4.4|9=176|35=V|34=205|49=demo.ctrader.3873996|50=3873996Vu23oNsuaZgvUY0w1fLVmA|52=20231212-14:04:10.415|56=cServer|57=QUOTE|262=MARKETDATAID|263=1|264=1|267=2|269=0|269=1|146=1|55=20131|10=244|8=FIX.4.4|9=176|35=V|34=206|49=demo.ctrader.3873996|50=3873996Vu23oNsuaZgvUY0w1fLVmA|52=20231212-14:04:10.415|56=cServer|57=QUOTE|262=MARKETDATAID|263=1|264=1|267=2|269=0|269=1|146=1|55=20132|10=246|8=FIX.4.4|9=176|35=V|34=207|49=demo.ctrader.3873996|50=3873996Vu23oNsuaZgvUY0w1fLVmA|52=20231212-14:04:10.415|56=cServer|57=QUOTE|262=MARKETDATAID|263=1|264=1|267=2|269=0|269=1|146=1|55=20133|10=248|8=FIX.4.4|9=176|35=V|34=208|49=demo.ctrader.3873996|50=3873996Vu23oNsuaZgvUY0w1fLVmA|52=20231212-14:04:10.415|56=cServer|57=QUOTE|262=MARKETDATAID|263=1|264=1|267=2|269=0|269=1|146=1|55=20134|10=250|8=FIX.4.4|9=176|35=V|34=209|49=demo.ctrader.3873996|50=3873996Vu23oNsuaZgvUY0w1fLVmA|52=20231212-14:04:10.416|56=cServer|57=QUOTE|262=MARKETDATAID|263=1|264=1|267=2|269=0|269=1|146=1|55=20135|10=253|8=FIX.4.4|9=176|35=V|34=210|49=demo.ctrader.3873996|50=3873996Vu23oNsuaZgvUY0w1fLVmA|52=20231212-14:04:10.416|56=cServer|57=QUOTE|262=MARKETDATAID|263=1|264=1|267=2|269=0|269=1|146=1|55=20136|10=246|8=FIX.4.4|9=176|35=V|34=211|49=demo.ctrader.3873996|50=3873996Vu23oNsuaZgvUY0w1fLVmA|52=20231212-14:04:10.417|56=cServer|57=QUOTE|262=MARKETDATAID|263=1|264=1|267=2|269=0|269=1|146=1|55=20137|10=249|8=FIX.4.4|9=176|35=V|34=212|49=demo.ctrader.3873996|50=3873996Vu23oNsuaZgvUY0w1fLVmA|52=20231212-14:04:10.417|56=cServer|57=QUOTE|262=MARKETDATAID|263=1|264=1|267=2|269=0|269=1|146=1|55=20138|10=251|8=FIX.4.4|9=176|35=V|34=213|49=demo.ctrader.3873996|50=3873996Vu23oNsuaZgvUY0w1fLVmA|52=20231212-14:04:10.417|56=cServer|57=QUOTE|262=MARKETDATAID|263=1|264=1|267=2|269=0|269=1|146=1|55=20139|10=253|8=FIX.4.4|9=176|35=V|34=214|49=demo.ctrader.3873996|50=3873996Vu23oNsuaZgvUY0w1fLVmA|52=20231212-14:04:10.417|56=cServer|57=QUOTE|262=MARKETDATAID|263=1|264=1|267=2|269=0|269=1|146=1|55=20140|10=246|8=FIX.4.4|9=176|35=V|34=215|49=demo.ctrader.3873996|50=3873996Vu23oNsuaZgvUY0w1fLVmA|52=20231212-14:04:10.417|56=cServer|57=QUOTE|262=MARKETDATAID|263=1|264=1|267=2|269=0|269=1|146=1|55=20141|10=248|8=FIX.4.4|9=176|35=V|34=216|49=demo.ctrader.3873996|50=3873996Vu23oNsuaZgvUY0w1fLVmA|52=20231212-14:04:10.417|56=cServer|57=QUOTE|262=MARKETDATAID|263=1|264=1|267=2|269=0|269=1|146=1|55=20142|10=250|8=FIX.4.4|9=176|35=V|34=217|49=demo.ctrader.3873996|50=3873996Vu23oNsuaZgvUY0w1fLVmA|52=20231212-14:04:10.418|56=cServer|57=QUOTE|262=MARKETDATAID|263=1|264=1|267=2|269=0|269=1|146=1|55=20143|10=253|8=FIX.4.4|9=176|35=V|34=218|49=demo.ctrader.3873996|50=3873996Vu23oNsuaZgvUY0w1fLVmA|52=20231212-14:04:10.419|56=cServer|57=QUOTE|262=MARKETDATAID|263=1|264=1|267=2|269=0|269=1|146=1|55=20144|10=000|8=FIX.4.4|9=176|35=V|34=219|49=demo.ctrader.3873996|50=3873996Vu23oNsuaZgvUY0w1fLVmA|52=20231212-14:04:10.419|56=cServer|57=QUOTE|262=MARKETDATAID|263=1|264=1|267=2|269=0|269=1|146=1|55=20145|10=002|8=FIX.4.4|9=176|35=V|34=220|49=demo.ctrader.3873996|50=3873996Vu23oNsuaZgvUY0w1fLVmA|52=20231212-14:04:10.419|56=cServer|57=QUOTE|262=MARKETDATAID|263=1|264=1|267=2|269=0|269=1|146=1|55=20146|10=251|8=FIX.4.4|9=176|35=V|34=221|49=demo.ctrader.3873996|50=3873996Vu23oNsuaZgvUY0w1fLVmA|52=20231212-14:04:10.420|56=cServer|57=QUOTE|262=MARKETDATAID|263=1|264=1|267=2|269=0|269=1|146=1|55=20147|10=245|8=FIX.4.4|9=176|35=V|34=222|49=demo.ctrader.3873996|50=3873996Vu23oNsuaZgvUY0w1fLVmA|52=20231212-14:04:10.420|56=cServer|57=QUOTE|262=MARKETDATAID|263=1|264=1|267=2|269=0|269=1|146=1|55=20148|10=247|8=FIX.4.4|9=176|35=V|34=223|49=demo.ctrader.3873996|50=3873996Vu23oNsuaZgvUY0w1fLVmA|52=20231212-14:04:10.420|56=cServer|57=QUOTE|262=MARKETDATAID|263=1|264=1|267=2|269=0|269=1|146=1|55=20149|10=249|8=FIX.4.4|9=176|35=V|34=224|49=demo.ctrader.3873996|50=3873996Vu23oNsuaZgvUY0w1fLVmA|52=20231212-14:04:10.420|56=cServer|57=QUOTE|262=MARKETDATAID|263=1|264=1|267=2|269=0|269=1|146=1|55=20150|10=242|8=FIX.4.4|9=176|35=V|34=225|49=demo.ctrader.3873996|50=3873996Vu23oNsuaZgvUY0w1fLVmA|52=20231212-14:04:10.420|56=cServer|57=QUOTE|262=MARKETDATAID|263=1|264=1|267=2|269=0|269=1|146=1|55=20151|10=244|8=FIX.4.4|9=176|35=V|34=226|49=demo.ctrader.3873996|50=3873996Vu23oNsuaZgvUY0w1fLVmA|52=20231212-14:04:10.420|56=cServer|57=QUOTE|262=MARKETDATAID|263=1|264=1|267=2|269=0|269=1|146=1|55=20152|10=246|8=FIX.4.4|9=176|35=V|34=227|49=demo.ctrader.3873996|50=3873996Vu23oNsuaZgvUY0w1fLVmA|52=20231212-14:04:10.420|56=cServer|57=QUOTE|262=MARKETDATAID|263=1|264=1|267=2|269=0|269=1|146=1|55=20153|10=248|8=FIX.4.4|9=176|35=V|34=228|49=demo.ctrader.3873996|50=3873996Vu23oNsuaZgvUY0w1fLVmA|52=20231212-14:04:10.420|56=cServer|57=QUOTE|262=MARKETDATAID|263=1|264=1|267=2|269=0|269=1|146=1|55=20154|10=250|8=FIX.4.4|9=176|35=V|34=229|49=demo.ctrader.3873996|50=3873996Vu23oNsuaZgvUY0w1fLVmA|52=20231212-14:04:10.420|56=cServer|57=QUOTE|262=MARKETDATAID|263=1|264=1|267=2|269=0|269=1|146=1|55=20155|10=252|8=FIX.4.4|9=176|35=V|34=230|49=demo.ctrader.3873996|50=3873996Vu23oNsuaZgvUY0w1fLVmA|52=20231212-14:04:10.420|56=cServer|57=QUOTE|262=MARKETDATAID|263=1|264=1|267=2|269=0|269=1|146=1|55=20156|10=245|8=FIX.4.4|9=176|35=V|34=231|49=demo.ctrader.3873996|50=3873996Vu23oNsuaZgvUY0w1fLVmA|52=20231212-14:04:10.421|56=cServer|57=QUOTE|262=MARKETDATAID|263=1|264=1|267=2|269=0|269=1|146=1|55=20157|10=248|8=FIX.4.4|9=176|35=V|34=232|49=demo.ctrader.3873996|50=3873996Vu23oNsuaZgvUY0w1fLVmA|52=20231212-14:04:10.421|56=cServer|57=QUOTE|262=MARKETDATAID|263=1|264=1|267=2|269=0|269=1|146=1|55=20158|10=250|8=FIX.4.4|9=176|35=V|34=233|49=demo.ctrader.3873996|50=3873996Vu23oNsuaZgvUY0w1fLVmA|52=20231212-14:04:10.421|56=cServer|57=QUOTE|262=MARKETDATAID|263=1|264=1|267=2|269=0|269=1|146=1|55=20159|10=252|8=FIX.4.4|9=176|35=V|34=234|49=demo.ctrader.3873996|50=3873996Vu23oNsuaZgvUY0w1fLVmA|52=20231212-14:04:10.421|56=cServer|57=QUOTE|262=MARKETDATAID|263=1|264=1|267=2|269=0|269=1|146=1|55=20160|10=245|8=FIX.4.4|9=176|35=V|34=235|49=demo.ctrader.3873996|50=3873996Vu23oNsuaZgvUY0w1fLVmA|52=20231212-14:04:10.421|56=cServer|57=QUOTE|262=MARKETDATAID|263=1|264=1|267=2|269=0|269=1|146=1|55=20161|10=247|8=FIX.4.4|9=176|35=V|34=236|49=demo.ctrader.3873996|50=3873996Vu23oNsuaZgvUY0w1fLVmA|52=20231212-14:04:10.421|56=cServer|57=QUOTE|262=MARKETDATAID|263=1|264=1|267=2|269=0|269=1|146=1|55=20162|10=249|8=FIX.4.4|9=176|35=V|34=237|49=demo.ctrader.3873996|50=3873996Vu23oNsuaZgvUY0w1fLVmA|52=20231212-14:04:10.421|56=cServer|57=QUOTE|262=MARKETDATAID|263=1|264=1|267=2|269=0|269=1|146=1|55=20163|10=251|8=FIX.4.4|9=176|35=V|34=238|49=demo.ctrader.3873996|50=3873996Vu23oNsuaZgvUY0w1fLVmA|52=20231212-14:04:10.421|56=cServer|57=QUOTE|262=MARKETDATAID|263=1|264=1|267=2|269=0|269=1|146=1|55=20164|10=253|8=FIX.4.4|9=176|35=V|34=239|49=demo.ctrader.3873996|50=3873996Vu23oNsuaZgvUY0w1fLVmA|52=20231212-14:04:10.421|56=cServer|57=QUOTE|262=MARKETDATAID|263=1|264=1|267=2|269=0|269=1|146=1|55=20165|10=255|8=FIX.4.4|9=176|35=V|34=240|49=demo.ctrader.3873996|50=3873996Vu23oNsuaZgvUY0w1fLVmA|52=20231212-14:04:10.421|56=cServer|57=QUOTE|262=MARKETDATAID|263=1|264=1|267=2|269=0|269=1|146=1|55=20166|10=248|8=FIX.4.4|9=176|35=V|34=241|49=demo.ctrader.3873996|50=3873996Vu23oNsuaZgvUY0w1fLVmA|52=20231212-14:04:10.421|56=cServer|57=QUOTE|262=MARKETDATAID|263=1|264=1|267=2|269=0|269=1|146=1|55=20167|10=250|8=FIX.4.4|9=176|35=V|34=242|49=demo.ctrader.3873996|50=3873996Vu23oNsuaZgvUY0w1fLVmA|52=20231212-14:04:10.421|56=cServer|57=QUOTE|262=MARKETDATAID|263=1|264=1|267=2|269=0|269=1|146=1|55=20168|10=252|8=FIX.4.4|9=176|35=V|34=243|49=demo.ctrader.3873996|50=3873996Vu23oNsuaZgvUY0w1fLVmA|52=20231212-14:04:10.422|56=cServer|57=QUOTE|262=MARKETDATAID|263=1|264=1|267=2|269=0|269=1|146=1|55=20169|10=255|8=FIX.4.4|9=176|35=V|34=244|49=demo.ctrader.3873996|50=3873996Vu23oNsuaZgvUY0w1fLVmA|52=20231212-14:04:10.422|56=cServer|57=QUOTE|262=MARKETDATAID|263=1|264=1|267=2|269=0|269=1|146=1|55=20170|10=248|8=FIX.4.4|9=176|35=V|34=245|49=demo.ctrader.3873996|50=3873996Vu23oNsuaZgvUY0w1fLVmA|52=20231212-14:04:10.422|56=cServer|57=QUOTE|262=MARKETDATAID|263=1|264=1|267=2|269=0|269=1|146=1|55=20171|10=250|8=FIX.4.4|9=176|35=V|34=246|49=demo.ctrader.3873996|50=3873996Vu23oNsuaZgvUY0w1fLVmA|52=20231212-14:04:10.422|56=cServer|57=QUOTE|262=MARKETDATAID|263=1|264=1|267=2|269=0|269=1|146=1|55=20172|10=252|8=FIX.4.4|9=176|35=V|34=247|49=demo.ctrader.3873996|50=3873996Vu23oNsuaZgvUY0w1fLVmA|52=20231212-14:04:10.422|56=cServer|57=QUOTE|262=MARKETDATAID|263=1|264=1|267=2|269=0|269=1|146=1|55=20173|10=254|8=FIX.4.4|9=176|35=V|34=248|49=demo.ctrader.3873996|50=3873996Vu23oNsuaZgvUY0w1fLVmA|52=20231212-14:04:10.422|56=cServer|57=QUOTE|262=MARKETDATAID|263=1|264=1|267=2|269=0|269=1|146=1|55=20174|10=000|8=FIX.4.4|9=176|35=V|34=249|49=demo.ctrader.3873996|50=3873996Vu23oNsuaZgvUY0w1fLVmA|52=20231212-14:04:10.422|56=cServer|57=QUOTE|262=MARKETDATAID|263=1|264=1|267=2|269=0|269=1|146=1|55=20175|10=002|8=FIX.4.4|9=176|35=V|34=250|49=demo.ctrader.3873996|50=3873996Vu23oNsuaZgvUY0w1fLVmA|52=20231212-14:04:10.423|56=cServer|57=QUOTE|262=MARKETDATAID|263=1|264=1|267=2|269=0|269=1|146=1|55=20176|10=252|8=FIX.4.4|9=176|35=V|34=251|49=demo.ctrader.3873996|50=3873996Vu23oNsuaZgvUY0w1fLVmA|52=20231212-14:04:10.423|56=cServer|57=QUOTE|262=MARKETDATAID|263=1|264=1|267=2|269=0|269=1|146=1|55=20177|10=254|8=FIX.4.4|9=176|35=V|34=252|49=demo.ctrader.3873996|50=3873996Vu23oNsuaZgvUY0w1fLVmA|52=20231212-14:04:10.423|56=cServer|57=QUOTE|262=MARKETDATAID|263=1|264=1|267=2|269=0|269=1|146=1|55=20178|10=000|8=FIX.4.4|9=176|35=V|34=253|49=demo.ctrader.3873996|50=3873996Vu23oNsuaZgvUY0w1fLVmA|52=20231212-14:04:10.423|56=cServer|57=QUOTE|262=MARKETDATAID|263=1|264=1|267=2|269=0|269=1|146=1|55=20179|10=002|8=FIX.4.4|9=176|35=V|34=254|49=demo.ctrader.3873996|50=3873996Vu23oNsuaZgvUY0w1fLVmA|52=20231212-14:04:10.423|56=cServer|57=QUOTE|262=MARKETDATAID|263=1|264=1|267=2|269=0|269=1|146=1|55=20180|10=251|8=FIX.4.4|9=176|35=V|34=255|49=demo.ctrader.3873996|50=3873996Vu23oNsuaZgvUY0w1fLVmA|52=20231212-14:04:10.423|56=cServer|57=QUOTE|262=MARKETDATAID|263=1|264=1|267=2|269=0|269=1|146=1|55=20181|10=253|8=FIX.4.4|9=176|35=V|34=256|49=demo.ctrader.3873996|50=3873996Vu23oNsuaZgvUY0w1fLVmA|52=20231212-14:04:10.424|56=cServer|57=QUOTE|262=MARKETDATAID|263=1|264=1|267=2|269=0|269=1|146=1|55=20182|10=000|8=FIX.4.4|9=176|35=V|34=257|49=demo.ctrader.3873996|50=3873996Vu23oNsuaZgvUY0w1fLVmA|52=20231212-14:04:10.424|56=cServer|57=QUOTE|262=MARKETDATAID|263=1|264=1|267=2|269=0|269=1|146=1|55=20183|10=002|8=FIX.4.4|9=176|35=V|34=258|49=demo.ctrader.3873996|50=3873996Vu23oNsuaZgvUY0w1fLVmA|52=20231212-14:04:10.424|56=cServer|57=QUOTE|262=MARKETDATAID|263=1|264=1|267=2|269=0|269=1|146=1|55=20184|10=004|8=FIX.4.4|9=176|35=V|34=259|49=demo.ctrader.3873996|50=3873996Vu23oNsuaZgvUY0w1fLVmA|52=20231212-14:04:10.424|56=cServer|57=QUOTE|262=MARKETDATAID|263=1|264=1|267=2|269=0|269=1|146=1|55=20185|10=006|8=FIX.4.4|9=176|35=V|34=260|49=demo.ctrader.3873996|50=3873996Vu23oNsuaZgvUY0w1fLVmA|52=20231212-14:04:10.424|56=cServer|57=QUOTE|262=MARKETDATAID|263=1|264=1|267=2|269=0|269=1|146=1|55=20186|10=255|8=FIX.4.4|9=176|35=V|34=261|49=demo.ctrader.3873996|50=3873996Vu23oNsuaZgvUY0w1fLVmA|52=20231212-14:04:10.424|56=cServer|57=QUOTE|262=MARKETDATAID|263=1|264=1|267=2|269=0|269=1|146=1|55=20187|10=001|8=FIX.4.4|9=176|35=V|34=262|49=demo.ctrader.3873996|50=3873996Vu23oNsuaZgvUY0w1fLVmA|52=20231212-14:04:10.424|56=cServer|57=QUOTE|262=MARKETDATAID|263=1|264=1|267=2|269=0|269=1|146=1|55=20188|10=003|8=FIX.4.4|9=176|35=V|34=263|49=demo.ctrader.3873996|50=3873996Vu23oNsuaZgvUY0w1fLVmA|52=20231212-14:04:10.425|56=cServer|57=QUOTE|262=MARKETDATAID|263=1|264=1|267=2|269=0|269=1|146=1|55=20189|10=006|8=FIX.4.4|9=176|35=V|34=264|49=demo.ctrader.3873996|50=3873996Vu23oNsuaZgvUY0w1fLVmA|52=20231212-14:04:10.425|56=cServer|57=QUOTE|262=MARKETDATAID|263=1|264=1|267=2|269=0|269=1|146=1|55=20190|10=255|8=FIX.4.4|9=176|35=V|34=265|49=demo.ctrader.3873996|50=3873996Vu23oNsuaZgvUY0w1fLVmA|52=20231212-14:04:10.425|56=cServer|57=QUOTE|262=MARKETDATAID|263=1|264=1|267=2|269=0|269=1|146=1|55=20191|10=001|8=FIX.4.4|9=176|35=V|34=266|49=demo.ctrader.3873996|50=3873996Vu23oNsuaZgvUY0w1fLVmA|52=20231212-14:04:10.425|56=cServer|57=QUOTE|262=MARKETDATAID|263=1|264=1|267=2|269=0|269=1|146=1|55=20192|10=003|8=FIX.4.4|9=176|35=V|34=267|49=demo.ctrader.3873996|50=3873996Vu23oNsuaZgvUY0w1fLVmA|52=20231212-14:04:10.425|56=cServer|57=QUOTE|262=MARKETDATAID|263=1|264=1|267=2|269=0|269=1|146=1|55=20193|10=005|8=FIX.4.4|9=176|35=V|34=268|49=demo.ctrader.3873996|50=3873996Vu23oNsuaZgvUY0w1fLVmA|52=20231212-14:04:10.425|56=cServer|57=QUOTE|262=MARKETDATAID|263=1|264=1|267=2|269=0|269=1|146=1|55=20194|10=007|8=FIX.4.4|9=176|35=V|34=269|49=demo.ctrader.3873996|50=3873996Vu23oNsuaZgvUY0w1fLVmA|52=20231212-14:04:10.425|56=cServer|57=QUOTE|262=MARKETDATAID|263=1|264=1|267=2|269=0|269=1|146=1|55=20195|10=009|8=FIX.4.4|9=176|35=V|34=270|49=demo.ctrader.3873996|50=3873996Vu23oNsuaZgvUY0w1fLVmA|52=20231212-14:04:10.425|56=cServer|57=QUOTE|262=MARKETDATAID|263=1|264=1|267=2|269=0|269=1|146=1|55=20196|10=002|8=FIX.4.4|9=176|35=V|34=271|49=demo.ctrader.3873996|50=3873996Vu23oNsuaZgvUY0w1fLVmA|52=20231212-14:04:10.425|56=cServer|57=QUOTE|262=MARKETDATAID|263=1|264=1|267=2|269=0|269=1|146=1|55=20197|10=004|8=FIX.4.4|9=176|35=V|34=272|49=demo.ctrader.3873996|50=3873996Vu23oNsuaZgvUY0w1fLVmA|52=20231212-14:04:10.425|56=cServer|57=QUOTE|262=MARKETDATAID|263=1|264=1|267=2|269=0|269=1|146=1|55=20198|10=006|8=FIX.4.4|9=176|35=V|34=273|49=demo.ctrader.3873996|50=3873996Vu23oNsuaZgvUY0w1fLVmA|52=20231212-14:04:10.425|56=cServer|57=QUOTE|262=MARKETDATAID|263=1|264=1|267=2|269=0|269=1|146=1|55=20199|10=008|8=FIX.4.4|9=176|35=V|34=274|49=demo.ctrader.3873996|50=3873996Vu23oNsuaZgvUY0w1fLVmA|52=20231212-14:04:10.426|56=cServer|57=QUOTE|262=MARKETDATAID|263=1|264=1|267=2|269=0|269=1|146=1|55=20200|10=249|8=FIX.4.4|9=176|35=V|34=275|49=demo.ctrader.3873996|50=3873996Vu23oNsuaZgvUY0w1fLVmA|52=20231212-14:04:10.426|56=cServer|57=QUOTE|262=MARKETDATAID|263=1|264=1|267=2|269=0|269=1|146=1|55=20201|10=251|8=FIX.4.4|9=176|35=V|34=276|49=demo.ctrader.3873996|50=3873996Vu23oNsuaZgvUY0w1fLVmA|52=20231212-14:04:10.426|56=cServer|57=QUOTE|262=MARKETDATAID|263=1|264=1|267=2|269=0|269=1|146=1|55=20202|10=253|8=FIX.4.4|9=176|35=V|34=277|49=demo.ctrader.3873996|50=3873996Vu23oNsuaZgvUY0w1fLVmA|52=20231212-14:04:10.426|56=cServer|57=QUOTE|262=MARKETDATAID|263=1|264=1|267=2|269=0|269=1|146=1|55=20203|10=255|8=FIX.4.4|9=176|35=V|34=278|49=demo.ctrader.3873996|50=3873996Vu23oNsuaZgvUY0w1fLVmA|52=20231212-14:04:10.426|56=cServer|57=QUOTE|262=MARKETDATAID|263=1|264=1|267=2|269=0|269=1|146=1|55=20204|10=001|8=FIX.4.4|9=176|35=V|34=279|49=demo.ctrader.3873996|50=3873996Vu23oNsuaZgvUY0w1fLVmA|52=20231212-14:04:10.426|56=cServer|57=QUOTE|262=MARKETDATAID|263=1|264=1|267=2|269=0|269=1|146=1|55=20205|10=003|8=FIX.4.4|9=176|35=V|34=280|49=demo.ctrader.3873996|50=3873996Vu23oNsuaZgvUY0w1fLVmA|52=20231212-14:04:10.426|56=cServer|57=QUOTE|262=MARKETDATAID|263=1|264=1|267=2|269=0|269=1|146=1|55=20206|10=252|8=FIX.4.4|9=176|35=V|34=281|49=demo.ctrader.3873996|50=3873996Vu23oNsuaZgvUY0w1fLVmA|52=20231212-14:04:10.426|56=cServer|57=QUOTE|262=MARKETDATAID|263=1|264=1|267=2|269=0|269=1|146=1|55=20207|10=254|8=FIX.4.4|9=176|35=V|34=282|49=demo.ctrader.3873996|50=3873996Vu23oNsuaZgvUY0w1fLVmA|52=20231212-14:04:10.426|56=cServer|57=QUOTE|262=MARKETDATAID|263=1|264=1|267=2|269=0|269=1|146=1|55=20208|10=000|8=FIX.4.4|9=176|35=V|34=283|49=demo.ctrader.3873996|50=3873996Vu23oNsuaZgvUY0w1fLVmA|52=20231212-14:04:10.426|56=cServer|57=QUOTE|262=MARKETDATAID|263=1|264=1|267=2|269=0|269=1|146=1|55=20209|10=002|8=FIX.4.4|9=176|35=V|34=284|49=demo.ctrader.3873996|50=3873996Vu23oNsuaZgvUY0w1fLVmA|52=20231212-14:04:10.426|56=cServer|57=QUOTE|262=MARKETDATAID|263=1|264=1|267=2|269=0|269=1|146=1|55=20210|10=251|8=FIX.4.4|9=176|35=V|34=285|49=demo.ctrader.3873996|50=3873996Vu23oNsuaZgvUY0w1fLVmA|52=20231212-14:04:10.426|56=cServer|57=QUOTE|262=MARKETDATAID|263=1|264=1|267=2|269=0|269=1|146=1|55=20211|10=253|8=FIX.4.4|9=176|35=V|34=286|49=demo.ctrader.3873996|50=3873996Vu23oNsuaZgvUY0w1fLVmA|52=20231212-14:04:10.427|56=cServer|57=QUOTE|262=MARKETDATAID|263=1|264=1|267=2|269=0|269=1|146=1|55=20212|10=000|8=FIX.4.4|9=176|35=V|34=287|49=demo.ctrader.3873996|50=3873996Vu23oNsuaZgvUY0w1fLVmA|52=20231212-14:04:10.427|56=cServer|57=QUOTE|262=MARKETDATAID|263=1|264=1|267=2|269=0|269=1|146=1|55=20213|10=002|8=FIX.4.4|9=176|35=V|34=288|49=demo.ctrader.3873996|50=3873996Vu23oNsuaZgvUY0w1fLVmA|52=20231212-14:04:10.427|56=cServer|57=QUOTE|262=MARKETDATAID|263=1|264=1|267=2|269=0|269=1|146=1|55=20214|10=004|8=FIX.4.4|9=176|35=V|34=289|49=demo.ctrader.3873996|50=3873996Vu23oNsuaZgvUY0w1fLVmA|52=20231212-14:04:10.427|56=cServer|57=QUOTE|262=MARKETDATAID|263=1|264=1|267=2|269=0|269=1|146=1|55=20215|10=006|8=FIX.4.4|9=176|35=V|34=290|49=demo.ctrader.3873996|50=3873996Vu23oNsuaZgvUY0w1fLVmA|52=20231212-14:04:10.427|56=cServer|57=QUOTE|262=MARKETDATAID|263=1|264=1|267=2|269=0|269=1|146=1|55=20216|10=255|8=FIX.4.4|9=176|35=V|34=291|49=demo.ctrader.3873996|50=3873996Vu23oNsuaZgvUY0w1fLVmA|52=20231212-14:04:10.427|56=cServer|57=QUOTE|262=MARKETDATAID|263=1|264=1|267=2|269=0|269=1|146=1|55=20217|10=001|8=FIX.4.4|9=176|35=V|34=292|49=demo.ctrader.3873996|50=3873996Vu23oNsuaZgvUY0w1fLVmA|52=20231212-14:04:10.427|56=cServer|57=QUOTE|262=MARKETDATAID|263=1|264=1|267=2|269=0|269=1|146=1|55=20218|10=003|8=FIX.4.4|9=176|35=V|34=293|49=demo.ctrader.3873996|50=3873996Vu23oNsuaZgvUY0w1fLVmA|52=20231212-14:04:10.427|56=cServer|57=QUOTE|262=MARKETDATAID|263=1|264=1|267=2|269=0|269=1|146=1|55=20219|10=005|8=FIX.4.4|9=176|35=V|34=294|49=demo.ctrader.3873996|50=3873996Vu23oNsuaZgvUY0w1fLVmA|52=20231212-14:04:10.427|56=cServer|57=QUOTE|262=MARKETDATAID|263=1|264=1|267=2|269=0|269=1|146=1|55=20220|10=254|8=FIX.4.4|9=176|35=V|34=295|49=demo.ctrader.3873996|50=3873996Vu23oNsuaZgvUY0w1fLVmA|52=20231212-14:04:10.427|56=cServer|57=QUOTE|262=MARKETDATAID|263=1|264=1|267=2|269=0|269=1|146=1|55=20221|10=000|8=FIX.4.4|9=176|35=V|34=296|49=demo.ctrader.3873996|50=3873996Vu23oNsuaZgvUY0w1fLVmA|52=20231212-14:04:10.428|56=cServer|57=QUOTE|262=MARKETDATAID|263=1|264=1|267=2|269=0|269=1|146=1|55=20222|10=003|8=FIX.4.4|9=176|35=V|34=297|49=demo.ctrader.3873996|50=3873996Vu23oNsuaZgvUY0w1fLVmA|52=20231212-14:04:10.428|56=cServer|57=QUOTE|262=MARKETDATAID|263=1|264=1|267=2|269=0|269=1|146=1|55=20223|10=005|8=FIX.4.4|9=176|35=V|34=298|49=demo.ctrader.3873996|50=3873996Vu23oNsuaZgvUY0w1fLVmA|52=20231212-14:04:10.428|56=cServer|57=QUOTE|262=MARKETDATAID|263=1|264=1|267=2|269=0|269=1|146=1|55=20224|10=007|8=FIX.4.4|9=176|35=V|34=299|49=demo.ctrader.3873996|50=3873996Vu23oNsuaZgvUY0w1fLVmA|52=20231212-14:04:10.428|56=cServer|57=QUOTE|262=MARKETDATAID|263=1|264=1|267=2|269=0|269=1|146=1|55=20225|10=009|8=FIX.4.4|9=176|35=V|34=300|49=demo.ctrader.3873996|50=3873996Vu23oNsuaZgvUY0w1fLVmA|52=20231212-14:04:10.428|56=cServer|57=QUOTE|262=MARKETDATAID|263=1|264=1|267=2|269=0|269=1|146=1|55=20226|10=249|8=FIX.4.4|9=176|35=V|34=301|49=demo.ctrader.3873996|50=3873996Vu23oNsuaZgvUY0w1fLVmA|52=20231212-14:04:10.428|56=cServer|57=QUOTE|262=MARKETDATAID|263=1|264=1|267=2|269=0|269=1|146=1|55=20227|10=251|8=FIX.4.4|9=176|35=V|34=302|49=demo.ctrader.3873996|50=3873996Vu23oNsuaZgvUY0w1fLVmA|52=20231212-14:04:10.428|56=cServer|57=QUOTE|262=MARKETDATAID|263=1|264=1|267=2|269=0|269=1|146=1|55=20228|10=253|8=FIX.4.4|9=176|35=V|34=303|49=demo.ctrader.3873996|50=3873996Vu23oNsuaZgvUY0w1fLVmA|52=20231212-14:04:10.428|56=cServer|57=QUOTE|262=MARKETDATAID|263=1|264=1|267=2|269=0|269=1|146=1|55=20229|10=255|8=FIX.4.4|9=176|35=V|34=304|49=demo.ctrader.3873996|50=3873996Vu23oNsuaZgvUY0w1fLVmA|52=20231212-14:04:10.428|56=cServer|57=QUOTE|262=MARKETDATAID|263=1|264=1|267=2|269=0|269=1|146=1|55=20230|10=248|8=FIX.4.4|9=176|35=V|34=305|49=demo.ctrader.3873996|50=3873996Vu23oNsuaZgvUY0w1fLVmA|52=20231212-14:04:10.428|56=cServer|57=QUOTE|262=MARKETDATAID|263=1|264=1|267=2|269=0|269=1|146=1|55=20231|10=250|8=FIX.4.4|9=176|35=V|34=306|49=demo.ctrader.3873996|50=3873996Vu23oNsuaZgvUY0w1fLVmA|52=20231212-14:04:10.428|56=cServer|57=QUOTE|262=MARKETDATAID|263=1|264=1|267=2|269=0|269=1|146=1|55=20232|10=252|8=FIX.4.4|9=176|35=V|34=307|49=demo.ctrader.3873996|50=3873996Vu23oNsuaZgvUY0w1fLVmA|52=20231212-14:04:10.429|56=cServer|57=QUOTE|262=MARKETDATAID|263=1|264=1|267=2|269=0|269=1|146=1|55=20233|10=255|8=FIX.4.4|9=176|35=V|34=308|49=demo.ctrader.3873996|50=3873996Vu23oNsuaZgvUY0w1fLVmA|52=20231212-14:04:10.429|56=cServer|57=QUOTE|262=MARKETDATAID|263=1|264=1|267=2|269=0|269=1|146=1|55=20234|10=001|8=FIX.4.4|9=176|35=V|34=309|49=demo.ctrader.3873996|50=3873996Vu23oNsuaZgvUY0w1fLVmA|52=20231212-14:04:10.429|56=cServer|57=QUOTE|262=MARKETDATAID|263=1|264=1|267=2|269=0|269=1|146=1|55=20235|10=003|8=FIX.4.4|9=176|35=V|34=310|49=demo.ctrader.3873996|50=3873996Vu23oNsuaZgvUY0w1fLVmA|52=20231212-14:04:10.429|56=cServer|57=QUOTE|262=MARKETDATAID|263=1|264=1|267=2|269=0|269=1|146=1|55=20236|10=252|8=FIX.4.4|9=176|35=V|34=311|49=demo.ctrader.3873996|50=3873996Vu23oNsuaZgvUY0w1fLVmA|52=20231212-14:04:10.429|56=cServer|57=QUOTE|262=MARKETDATAID|263=1|264=1|267=2|269=0|269=1|146=1|55=20237|10=254|8=FIX.4.4|9=176|35=V|34=312|49=demo.ctrader.3873996|50=3873996Vu23oNsuaZgvUY0w1fLVmA|52=20231212-14:04:10.429|56=cServer|57=QUOTE|262=MARKETDATAID|263=1|264=1|267=2|269=0|269=1|146=1|55=20238|10=000|8=FIX.4.4|9=176|35=V|34=313|49=demo.ctrader.3873996|50=3873996Vu23oNsuaZgvUY0w1fLVmA|52=20231212-14:04:10.429|56=cServer|57=QUOTE|262=MARKETDATAID|263=1|264=1|267=2|269=0|269=1|146=1|55=20239|10=002|8=FIX.4.4|9=176|35=V|34=314|49=demo.ctrader.3873996|50=3873996Vu23oNsuaZgvUY0w1fLVmA|52=20231212-14:04:10.429|56=cServer|57=QUOTE|262=MARKETDATAID|263=1|264=1|267=2|269=0|269=1|146=1|55=20240|10=251|8=FIX.4.4|9=176|35=V|34=315|49=demo.ctrader.3873996|50=3873996Vu23oNsuaZgvUY0w1fLVmA|52=20231212-14:04:10.429|56=cServer|57=QUOTE|262=MARKETDATAID|263=1|264=1|267=2|269=0|269=1|146=1|55=20241|10=253|8=FIX.4.4|9=176|35=V|34=316|49=demo.ctrader.3873996|50=3873996Vu23oNsuaZgvUY0w1fLVmA|52=20231212-14:04:10.429|56=cServer|57=QUOTE|262=MARKETDATAID|263=1|264=1|267=2|269=0|269=1|146=1|55=20242|10=255|8=FIX.4.4|9=176|35=V|34=317|49=demo.ctrader.3873996|50=3873996Vu23oNsuaZgvUY0w1fLVmA|52=20231212-14:04:10.429|56=cServer|57=QUOTE|262=MARKETDATAID|263=1|264=1|267=2|269=0|269=1|146=1|55=20243|10=001|8=FIX.4.4|9=176|35=V|34=318|49=demo.ctrader.3873996|50=3873996Vu23oNsuaZgvUY0w1fLVmA|52=20231212-14:04:10.429|56=cServer|57=QUOTE|262=MARKETDATAID|263=1|264=1|267=2|269=0|269=1|146=1|55=20244|10=003|8=FIX.4.4|9=176|35=V|34=319|49=demo.ctrader.3873996|50=3873996Vu23oNsuaZgvUY0w1fLVmA|52=20231212-14:04:10.430|56=cServer|57=QUOTE|262=MARKETDATAID|263=1|264=1|267=2|269=0|269=1|146=1|55=20245|10=253|8=FIX.4.4|9=176|35=V|34=320|49=demo.ctrader.3873996|50=3873996Vu23oNsuaZgvUY0w1fLVmA|52=20231212-14:04:10.430|56=cServer|57=QUOTE|262=MARKETDATAID|263=1|264=1|267=2|269=0|269=1|146=1|55=20246|10=246|8=FIX.4.4|9=176|35=V|34=321|49=demo.ctrader.3873996|50=3873996Vu23oNsuaZgvUY0w1fLVmA|52=20231212-14:04:10.430|56=cServer|57=QUOTE|262=MARKETDATAID|263=1|264=1|267=2|269=0|269=1|146=1|55=20247|10=248|8=FIX.4.4|9=176|35=V|34=322|49=demo.ctrader.3873996|50=3873996Vu23oNsuaZgvUY0w1fLVmA|52=20231212-14:04:10.430|56=cServer|57=QUOTE|262=MARKETDATAID|263=1|264=1|267=2|269=0|269=1|146=1|55=20248|10=250|8=FIX.4.4|9=176|35=V|34=323|49=demo.ctrader.3873996|50=3873996Vu23oNsuaZgvUY0w1fLVmA|52=20231212-14:04:10.430|56=cServer|57=QUOTE|262=MARKETDATAID|263=1|264=1|267=2|269=0|269=1|146=1|55=20249|10=252|8=FIX.4.4|9=176|35=V|34=324|49=demo.ctrader.3873996|50=3873996Vu23oNsuaZgvUY0w1fLVmA|52=20231212-14:04:10.430|56=cServer|57=QUOTE|262=MARKETDATAID|263=1|264=1|267=2|269=0|269=1|146=1|55=20250|10=245|8=FIX.4.4|9=176|35=V|34=325|49=demo.ctrader.3873996|50=3873996Vu23oNsuaZgvUY0w1fLVmA|52=20231212-14:04:10.430|56=cServer|57=QUOTE|262=MARKETDATAID|263=1|264=1|267=2|269=0|269=1|146=1|55=20251|10=247|8=FIX.4.4|9=176|35=V|34=326|49=demo.ctrader.3873996|50=3873996Vu23oNsuaZgvUY0w1fLVmA|52=20231212-14:04:10.430|56=cServer|57=QUOTE|262=MARKETDATAID|263=1|264=1|267=2|269=0|269=1|146=1|55=20252|10=249|8=FIX.4.4|9=176|35=V|34=327|49=demo.ctrader.3873996|50=3873996Vu23oNsuaZgvUY0w1fLVmA|52=20231212-14:04:10.430|56=cServer|57=QUOTE|262=MARKETDATAID|263=1|264=1|267=2|269=0|269=1|146=1|55=20253|10=251|8=FIX.4.4|9=176|35=V|34=328|49=demo.ctrader.3873996|50=3873996Vu23oNsuaZgvUY0w1fLVmA|52=20231212-14:04:10.430|56=cServer|57=QUOTE|262=MARKETDATAID|263=1|264=1|267=2|269=0|269=1|146=1|55=20254|10=253|8=FIX.4.4|9=176|35=V|34=329|49=demo.ctrader.3873996|50=3873996Vu23oNsuaZgvUY0w1fLVmA|52=20231212-14:04:10.431|56=cServer|57=QUOTE|262=MARKETDATAID|263=1|264=1|267=2|269=0|269=1|146=1|55=20255|10=000|8=FIX.4.4|9=176|35=V|34=330|49=demo.ctrader.3873996|50=3873996Vu23oNsuaZgvUY0w1fLVmA|52=20231212-14:04:10.431|56=cServer|57=QUOTE|262=MARKETDATAID|263=1|264=1|267=2|269=0|269=1|146=1|55=20256|10=249|8=FIX.4.4|9=176|35=V|34=331|49=demo.ctrader.3873996|50=3873996Vu23oNsuaZgvUY0w1fLVmA|52=20231212-14:04:10.431|56=cServer|57=QUOTE|262=MARKETDATAID|263=1|264=1|267=2|269=0|269=1|146=1|55=20257|10=251|8=FIX.4.4|9=176|35=V|34=332|49=demo.ctrader.3873996|50=3873996Vu23oNsuaZgvUY0w1fLVmA|52=20231212-14:04:10.431|56=cServer|57=QUOTE|262=MARKETDATAID|263=1|264=1|267=2|269=0|269=1|146=1|55=20258|10=253|8=FIX.4.4|9=176|35=V|34=333|49=demo.ctrader.3873996|50=3873996Vu23oNsuaZgvUY0w1fLVmA|52=20231212-14:04:10.431|56=cServer|57=QUOTE|262=MARKETDATAID|263=1|264=1|267=2|269=0|269=1|146=1|55=20259|10=255|8=FIX.4.4|9=176|35=V|34=334|49=demo.ctrader.3873996|50=3873996Vu23oNsuaZgvUY0w1fLVmA|52=20231212-14:04:10.492|56=cServer|57=QUOTE|262=MARKETDATAID|263=1|264=1|267=2|269=0|269=1|146=1|55=20260|10=255|8=FIX.4.4|9=176|35=V|34=335|49=demo.ctrader.3873996|50=3873996Vu23oNsuaZgvUY0w1fLVmA|52=20231212-14:04:10.494|56=cServer|57=QUOTE|262=MARKETDATAID|263=1|264=1|267=2|269=0|269=1|146=1|55=20261|10=003|8=FIX.4.4|9=176|35=V|34=336|49=demo.ctrader.3873996|50=3873996Vu23oNsuaZgvUY0w1fLVmA|52=20231212-14:04:10.494|56=cServer|57=QUOTE|262=MARKETDATAID|263=1|264=1|267=2|269=0|269=1|146=1|55=20262|10=005|8=FIX.4.4|9=176|35=V|34=337|49=demo.ctrader.3873996|50=3873996Vu23oNsuaZgvUY0w1fLVmA|52=20231212-14:04:10.494|56=cServer|57=QUOTE|262=MARKETDATAID|263=1|264=1|267=2|269=0|269=1|146=1|55=20263|10=007|8=FIX.4.4|9=176|35=V|34=338|49=demo.ctrader.3873996|50=3873996Vu23oNsuaZgvUY0w1fLVmA|52=20231212-14:04:10.495|56=cServer|57=QUOTE|262=MARKETDATAID|263=1|264=1|267=2|269=0|269=1|146=1|55=20264|10=010|8=FIX.4.4|9=176|35=V|34=339|49=demo.ctrader.3873996|50=3873996Vu23oNsuaZgvUY0w1fLVmA|52=20231212-14:04:10.495|56=cServer|57=QUOTE|262=MARKETDATAID|263=1|264=1|267=2|269=0|269=1|146=1|55=20265|10=012|8=FIX.4.4|9=176|35=V|34=340|49=demo.ctrader.3873996|50=3873996Vu23oNsuaZgvUY0w1fLVmA|52=20231212-14:04:10.495|56=cServer|57=QUOTE|262=MARKETDATAID|263=1|264=1|267=2|269=0|269=1|146=1|55=20266|10=005|8=FIX.4.4|9=176|35=V|34=341|49=demo.ctrader.3873996|50=3873996Vu23oNsuaZgvUY0w1fLVmA|52=20231212-14:04:10.497|56=cServer|57=QUOTE|262=MARKETDATAID|263=1|264=1|267=2|269=0|269=1|146=1|55=20267|10=009|8=FIX.4.4|9=176|35=V|34=342|49=demo.ctrader.3873996|50=3873996Vu23oNsuaZgvUY0w1fLVmA|52=20231212-14:04:10.497|56=cServer|57=QUOTE|262=MARKETDATAID|263=1|264=1|267=2|269=0|269=1|146=1|55=20268|10=011|8=FIX.4.4|9=176|35=V|34=343|49=demo.ctrader.3873996|50=3873996Vu23oNsuaZgvUY0w1fLVmA|52=20231212-14:04:10.497|56=cServer|57=QUOTE|262=MARKETDATAID|263=1|264=1|267=2|269=0|269=1|146=1|55=20269|10=013|8=FIX.4.4|9=176|35=V|34=344|49=demo.ctrader.3873996|50=3873996Vu23oNsuaZgvUY0w1fLVmA|52=20231212-14:04:10.497|56=cServer|57=QUOTE|262=MARKETDATAID|263=1|264=1|267=2|269=0|269=1|146=1|55=20270|10=006|8=FIX.4.4|9=176|35=V|34=345|49=demo.ctrader.3873996|50=3873996Vu23oNsuaZgvUY0w1fLVmA|52=20231212-14:04:10.566|56=cServer|57=QUOTE|262=MARKETDATAID|263=1|264=1|267=2|269=0|269=1|146=1|55=20271|10=005|8=FIX.4.4|9=176|35=V|34=346|49=demo.ctrader.3873996|50=3873996Vu23oNsuaZgvUY0w1fLVmA|52=20231212-14:04:10.567|56=cServer|57=QUOTE|262=MARKETDATAID|263=1|264=1|267=2|269=0|269=1|146=1|55=20272|10=008|8=FIX.4.4|9=176|35=V|34=347|49=demo.ctrader.3873996|50=3873996Vu23oNsuaZgvUY0w1fLVmA|52=20231212-14:04:10.567|56=cServer|57=QUOTE|262=MARKETDATAID|263=1|264=1|267=2|269=0|269=1|146=1|55=20273|10=010|8=FIX.4.4|9=176|35=V|34=348|49=demo.ctrader.3873996|50=3873996Vu23oNsuaZgvUY0w1fLVmA|52=20231212-14:04:10.568|56=cServer|57=QUOTE|262=MARKETDATAID|263=1|264=1|267=2|269=0|269=1|146=1|55=20274|10=013|8=FIX.4.4|9=176|35=V|34=349|49=demo.ctrader.3873996|50=3873996Vu23oNsuaZgvUY0w1fLVmA|52=20231212-14:04:10.568|56=cServer|57=QUOTE|262=MARKETDATAID|263=1|264=1|267=2|269=0|269=1|146=1|55=20275|10=015|8=FIX.4.4|9=176|35=V|34=350|49=demo.ctrader.3873996|50=3873996Vu23oNsuaZgvUY0w1fLVmA|52=20231212-14:04:10.568|56=cServer|57=QUOTE|262=MARKETDATAID|263=1|264=1|267=2|269=0|269=1|146=1|55=20276|10=008|8=FIX.4.4|9=176|35=V|34=351|49=demo.ctrader.3873996|50=3873996Vu23oNsuaZgvUY0w1fLVmA|52=20231212-14:04:10.569|56=cServer|57=QUOTE|262=MARKETDATAID|263=1|264=1|267=2|269=0|269=1|146=1|55=20277|10=011|8=FIX.4.4|9=176|35=V|34=352|49=demo.ctrader.3873996|50=3873996Vu23oNsuaZgvUY0w1fLVmA|52=20231212-14:04:10.569|56=cServer|57=QUOTE|262=MARKETDATAID|263=1|264=1|267=2|269=0|269=1|146=1|55=20278|10=013|8=FIX.4.4|9=176|35=V|34=353|49=demo.ctrader.3873996|50=3873996Vu23oNsuaZgvUY0w1fLVmA|52=20231212-14:04:10.569|56=cServer|57=QUOTE|262=MARKETDATAID|263=1|264=1|267=2|269=0|269=1|146=1|55=20279|10=015|8=FIX.4.4|9=176|35=V|34=354|49=demo.ctrader.3873996|50=3873996Vu23oNsuaZgvUY0w1fLVmA|52=20231212-14:04:10.569|56=cServer|57=QUOTE|262=MARKETDATAID|263=1|264=1|267=2|269=0|269=1|146=1|55=20280|10=008|8=FIX.4.4|9=176|35=V|34=355|49=demo.ctrader.3873996|50=3873996Vu23oNsuaZgvUY0w1fLVmA|52=20231212-14:04:10.570|56=cServer|57=QUOTE|262=MARKETDATAID|263=1|264=1|267=2|269=0|269=1|146=1|55=20281|10=002|8=FIX.4.4|9=176|35=V|34=356|49=demo.ctrader.3873996|50=3873996Vu23oNsuaZgvUY0w1fLVmA|52=20231212-14:04:10.570|56=cServer|57=QUOTE|262=MARKETDATAID|263=1|264=1|267=2|269=0|269=1|146=1|55=20282|10=004|8=FIX.4.4|9=176|35=V|34=357|49=demo.ctrader.3873996|50=3873996Vu23oNsuaZgvUY0w1fLVmA|52=20231212-14:04:10.571|56=cServer|57=QUOTE|262=MARKETDATAID|263=1|264=1|267=2|269=0|269=1|146=1|55=20283|10=007|8=FIX.4.4|9=176|35=V|34=358|49=demo.ctrader.3873996|50=3873996Vu23oNsuaZgvUY0w1fLVmA|52=20231212-14:04:10.571|56=cServer|57=QUOTE|262=MARKETDATAID|263=1|264=1|267=2|269=0|269=1|146=1|55=20284|10=009|8=FIX.4.4|9=176|35=V|34=359|49=demo.ctrader.3873996|50=3873996Vu23oNsuaZgvUY0w1fLVmA|52=20231212-14:04:10.571|56=cServer|57=QUOTE|262=MARKETDATAID|263=1|264=1|267=2|269=0|269=1|146=1|55=20285|10=011|8=FIX.4.4|9=176|35=V|34=360|49=demo.ctrader.3873996|50=3873996Vu23oNsuaZgvUY0w1fLVmA|52=20231212-14:04:10.571|56=cServer|57=QUOTE|262=MARKETDATAID|263=1|264=1|267=2|269=0|269=1|146=1|55=20286|10=004|8=FIX.4.4|9=176|35=V|34=361|49=demo.ctrader.3873996|50=3873996Vu23oNsuaZgvUY0w1fLVmA|52=20231212-14:04:10.572|56=cServer|57=QUOTE|262=MARKETDATAID|263=1|264=1|267=2|269=0|269=1|146=1|55=20287|10=007|8=FIX.4.4|9=176|35=V|34=362|49=demo.ctrader.3873996|50=3873996Vu23oNsuaZgvUY0w1fLVmA|52=20231212-14:04:10.572|56=cServer|57=QUOTE|262=MARKETDATAID|263=1|264=1|267=2|269=0|269=1|146=1|55=20288|10=009|8=FIX.4.4|9=176|35=V|34=363|49=demo.ctrader.3873996|50=3873996Vu23oNsuaZgvUY0w1fLVmA|52=20231212-14:04:10.572|56=cServer|57=QUOTE|262=MARKETDATAID|263=1|264=1|267=2|269=0|269=1|146=1|55=20289|10=011|8=FIX.4.4|9=176|35=V|34=364|49=demo.ctrader.3873996|50=3873996Vu23oNsuaZgvUY0w1fLVmA|52=20231212-14:04:10.573|56=cServer|57=QUOTE|262=MARKETDATAID|263=1|264=1|267=2|269=0|269=1|146=1|55=20290|10=005|8=FIX.4.4|9=176|35=V|34=365|49=demo.ctrader.3873996|50=3873996Vu23oNsuaZgvUY0w1fLVmA|52=20231212-14:04:10.573|56=cServer|57=QUOTE|262=MARKETDATAID|263=1|264=1|267=2|269=0|269=1|146=1|55=20291|10=007|8=FIX.4.4|9=176|35=V|34=366|49=demo.ctrader.3873996|50=3873996Vu23oNsuaZgvUY0w1fLVmA|52=20231212-14:04:10.573|56=cServer|57=QUOTE|262=MARKETDATAID|263=1|264=1|267=2|269=0|269=1|146=1|55=20292|10=009|8=FIX.4.4|9=176|35=V|34=367|49=demo.ctrader.3873996|50=3873996Vu23oNsuaZgvUY0w1fLVmA|52=20231212-14:04:10.573|56=cServer|57=QUOTE|262=MARKETDATAID|263=1|264=1|267=2|269=0|269=1|146=1|55=20293|10=011|8=FIX.4.4|9=176|35=V|34=368|49=demo.ctrader.3873996|50=3873996Vu23oNsuaZgvUY0w1fLVmA|52=20231212-14:04:10.574|56=cServer|57=QUOTE|262=MARKETDATAID|263=1|264=1|267=2|269=0|269=1|146=1|55=20294|10=014|8=FIX.4.4|9=176|35=V|34=369|49=demo.ctrader.3873996|50=3873996Vu23oNsuaZgvUY0w1fLVmA|52=20231212-14:04:10.580|56=cServer|57=QUOTE|262=MARKETDATAID|263=1|264=1|267=2|269=0|269=1|146=1|55=20295|10=013|8=FIX.4.4|9=176|35=V|34=370|49=demo.ctrader.3873996|50=3873996Vu23oNsuaZgvUY0w1fLVmA|52=20231212-14:04:10.580|56=cServer|57=QUOTE|262=MARKETDATAID|263=1|264=1|267=2|269=0|269=1|146=1|55=20296|10=006|8=FIX.4.4|9=176|35=V|34=371|49=demo.ctrader.3873996|50=3873996Vu23oNsuaZgvUY0w1fLVmA|52=20231212-14:04:10.581|56=cServer|57=QUOTE|262=MARKETDATAID|263=1|264=1|267=2|269=0|269=1|146=1|55=20297|10=009|8=FIX.4.4|9=176|35=V|34=372|49=demo.ctrader.3873996|50=3873996Vu23oNsuaZgvUY0w1fLVmA|52=20231212-14:04:10.581|56=cServer|57=QUOTE|262=MARKETDATAID|263=1|264=1|267=2|269=0|269=1|146=1|55=20298|10=011|8=FIX.4.4|9=176|35=V|34=373|49=demo.ctrader.3873996|50=3873996Vu23oNsuaZgvUY0w1fLVmA|52=20231212-14:04:10.581|56=cServer|57=QUOTE|262=MARKETDATAID|263=1|264=1|267=2|269=0|269=1|146=1|55=20299|10=013|8=FIX.4.4|9=176|35=V|34=374|49=demo.ctrader.3873996|50=3873996Vu23oNsuaZgvUY0w1fLVmA|52=20231212-14:04:10.582|56=cServer|57=QUOTE|262=MARKETDATAID|263=1|264=1|267=2|269=0|269=1|146=1|55=20300|10=254|8=FIX.4.4|9=176|35=V|34=375|49=demo.ctrader.3873996|50=3873996Vu23oNsuaZgvUY0w1fLVmA|52=20231212-14:04:10.582|56=cServer|57=QUOTE|262=MARKETDATAID|263=1|264=1|267=2|269=0|269=1|146=1|55=20301|10=000|8=FIX.4.4|9=176|35=V|34=376|49=demo.ctrader.3873996|50=3873996Vu23oNsuaZgvUY0w1fLVmA|52=20231212-14:04:10.582|56=cServer|57=QUOTE|262=MARKETDATAID|263=1|264=1|267=2|269=0|269=1|146=1|55=20302|10=002|8=FIX.4.4|9=176|35=V|34=377|49=demo.ctrader.3873996|50=3873996Vu23oNsuaZgvUY0w1fLVmA|52=20231212-14:04:10.738|56=cServer|57=QUOTE|262=MARKETDATAID|263=1|264=1|267=2|269=0|269=1|146=1|55=20303|10=007|8=FIX.4.4|9=176|35=V|34=378|49=demo.ctrader.3873996|50=3873996Vu23oNsuaZgvUY0w1fLVmA|52=20231212-14:04:10.738|56=cServer|57=QUOTE|262=MARKETDATAID|263=1|264=1|267=2|269=0|269=1|146=1|55=20304|10=009|8=FIX.4.4|9=176|35=V|34=379|49=demo.ctrader.3873996|50=3873996Vu23oNsuaZgvUY0w1fLVmA|52=20231212-14:04:10.738|56=cServer|57=QUOTE|262=MARKETDATAID|263=1|264=1|267=2|269=0|269=1|146=1|55=20305|10=011|8=FIX.4.4|9=176|35=V|34=380|49=demo.ctrader.3873996|50=3873996Vu23oNsuaZgvUY0w1fLVmA|52=20231212-14:04:10.752|56=cServer|57=QUOTE|262=MARKETDATAID|263=1|264=1|267=2|269=0|269=1|146=1|55=20306|10=000|8=FIX.4.4|9=176|35=V|34=381|49=demo.ctrader.3873996|50=3873996Vu23oNsuaZgvUY0w1fLVmA|52=20231212-14:04:10.752|56=cServer|57=QUOTE|262=MARKETDATAID|263=1|264=1|267=2|269=0|269=1|146=1|55=20307|10=002|8=FIX.4.4|9=176|35=V|34=382|49=demo.ctrader.3873996|50=3873996Vu23oNsuaZgvUY0w1fLVmA|52=20231212-14:04:10.752|56=cServer|57=QUOTE|262=MARKETDATAID|263=1|264=1|267=2|269=0|269=1|146=1|55=20308|10=004|8=FIX.4.4|9=176|35=V|34=383|49=demo.ctrader.3873996|50=3873996Vu23oNsuaZgvUY0w1fLVmA|52=20231212-14:04:10.753|56=cServer|57=QUOTE|262=MARKETDATAID|263=1|264=1|267=2|269=0|269=1|146=1|55=20309|10=007|8=FIX.4.4|9=176|35=V|34=384|49=demo.ctrader.3873996|50=3873996Vu23oNsuaZgvUY0w1fLVmA|52=20231212-14:04:10.753|56=cServer|57=QUOTE|262=MARKETDATAID|263=1|264=1|267=2|269=0|269=1|146=1|55=20310|10=000|8=FIX.4.4|9=176|35=V|34=385|49=demo.ctrader.3873996|50=3873996Vu23oNsuaZgvUY0w1fLVmA|52=20231212-14:04:10.753|56=cServer|57=QUOTE|262=MARKETDATAID|263=1|264=1|267=2|269=0|269=1|146=1|55=20311|10=002|8=FIX.4.4|9=176|35=V|34=386|49=demo.ctrader.3873996|50=3873996Vu23oNsuaZgvUY0w1fLVmA|52=20231212-14:04:10.753|56=cServer|57=QUOTE|262=MARKETDATAID|263=1|264=1|267=2|269=0|269=1|146=1|55=20312|10=004|8=FIX.4.4|9=176|35=V|34=387|49=demo.ctrader.3873996|50=3873996Vu23oNsuaZgvUY0w1fLVmA|52=20231212-14:04:10.753|56=cServer|57=QUOTE|262=MARKETDATAID|263=1|264=1|267=2|269=0|269=1|146=1|55=20313|10=006|8=FIX.4.4|9=176|35=V|34=388|49=demo.ctrader.3873996|50=3873996Vu23oNsuaZgvUY0w1fLVmA|52=20231212-14:04:10.753|56=cServer|57=QUOTE|262=MARKETDATAID|263=1|264=1|267=2|269=0|269=1|146=1|55=20314|10=008|8=FIX.4.4|9=176|35=V|34=389|49=demo.ctrader.3873996|50=3873996Vu23oNsuaZgvUY0w1fLVmA|52=20231212-14:04:10.753|56=cServer|57=QUOTE|262=MARKETDATAID|263=1|264=1|267=2|269=0|269=1|146=1|55=20315|10=010|8=FIX.4.4|9=176|35=V|34=390|49=demo.ctrader.3873996|50=3873996Vu23oNsuaZgvUY0w1fLVmA|52=20231212-14:04:10.753|56=cServer|57=QUOTE|262=MARKETDATAID|263=1|264=1|267=2|269=0|269=1|146=1|55=20316|10=003|8=FIX.4.4|9=176|35=V|34=391|49=demo.ctrader.3873996|50=3873996Vu23oNsuaZgvUY0w1fLVmA|52=20231212-14:04:10.753|56=cServer|57=QUOTE|262=MARKETDATAID|263=1|264=1|267=2|269=0|269=1|146=1|55=20317|10=005|8=FIX.4.4|9=176|35=V|34=392|49=demo.ctrader.3873996|50=3873996Vu23oNsuaZgvUY0w1fLVmA|52=20231212-14:04:10.754|56=cServer|57=QUOTE|262=MARKETDATAID|263=1|264=1|267=2|269=0|269=1|146=1|55=20318|10=008|8=FIX.4.4|9=176|35=V|34=393|49=demo.ctrader.3873996|50=3873996Vu23oNsuaZgvUY0w1fLVmA|52=20231212-14:04:10.754|56=cServer|57=QUOTE|262=MARKETDATAID|263=1|264=1|267=2|269=0|269=1|146=1|55=20319|10=010|8=FIX.4.4|9=176|35=V|34=394|49=demo.ctrader.3873996|50=3873996Vu23oNsuaZgvUY0w1fLVmA|52=20231212-14:04:10.754|56=cServer|57=QUOTE|262=MARKETDATAID|263=1|264=1|267=2|269=0|269=1|146=1|55=20320|10=003|8=FIX.4.4|9=176|35=V|34=395|49=demo.ctrader.3873996|50=3873996Vu23oNsuaZgvUY0w1fLVmA|52=20231212-14:04:10.754|56=cServer|57=QUOTE|262=MARKETDATAID|263=1|264=1|267=2|269=0|269=1|146=1|55=20321|10=005|8=FIX.4.4|9=176|35=V|34=396|49=demo.ctrader.3873996|50=3873996Vu23oNsuaZgvUY0w1fLVmA|52=20231212-14:04:10.754|56=cServer|57=QUOTE|262=MARKETDATAID|263=1|264=1|267=2|269=0|269=1|146=1|55=20322|10=007|8=FIX.4.4|9=176|35=V|34=397|49=demo.ctrader.3873996|50=3873996Vu23oNsuaZgvUY0w1fLVmA|52=20231212-14:04:10.754|56=cServer|57=QUOTE|262=MARKETDATAID|263=1|264=1|267=2|269=0|269=1|146=1|55=20323|10=009|8=FIX.4.4|9=176|35=V|34=398|49=demo.ctrader.3873996|50=3873996Vu23oNsuaZgvUY0w1fLVmA|52=20231212-14:04:10.754|56=cServer|57=QUOTE|262=MARKETDATAID|263=1|264=1|267=2|269=0|269=1|146=1|55=20324|10=011|8=FIX.4.4|9=176|35=V|34=399|49=demo.ctrader.3873996|50=3873996Vu23oNsuaZgvUY0w1fLVmA|52=20231212-14:04:10.754|56=cServer|57=QUOTE|262=MARKETDATAID|263=1|264=1|267=2|269=0|269=1|146=1|55=20325|10=013|8=FIX.4.4|9=176|35=V|34=400|49=demo.ctrader.3873996|50=3873996Vu23oNsuaZgvUY0w1fLVmA|52=20231212-14:04:10.754|56=cServer|57=QUOTE|262=MARKETDATAID|263=1|264=1|267=2|269=0|269=1|146=1|55=20326|10=253|8=FIX.4.4|9=176|35=V|34=401|49=demo.ctrader.3873996|50=3873996Vu23oNsuaZgvUY0w1fLVmA|52=20231212-14:04:10.755|56=cServer|57=QUOTE|262=MARKETDATAID|263=1|264=1|267=2|269=0|269=1|146=1|55=20327|10=000|8=FIX.4.4|9=176|35=V|34=402|49=demo.ctrader.3873996|50=3873996Vu23oNsuaZgvUY0w1fLVmA|52=20231212-14:04:10.755|56=cServer|57=QUOTE|262=MARKETDATAID|263=1|264=1|267=2|269=0|269=1|146=1|55=20328|10=002|8=FIX.4.4|9=176|35=V|34=403|49=demo.ctrader.3873996|50=3873996Vu23oNsuaZgvUY0w1fLVmA|52=20231212-14:04:10.755|56=cServer|57=QUOTE|262=MARKETDATAID|263=1|264=1|267=2|269=0|269=1|146=1|55=20329|10=004|8=FIX.4.4|9=176|35=V|34=404|49=demo.ctrader.3873996|50=3873996Vu23oNsuaZgvUY0w1fLVmA|52=20231212-14:04:10.755|56=cServer|57=QUOTE|262=MARKETDATAID|263=1|264=1|267=2|269=0|269=1|146=1|55=20330|10=253|8=FIX.4.4|9=176|35=V|34=405|49=demo.ctrader.3873996|50=3873996Vu23oNsuaZgvUY0w1fLVmA|52=20231212-14:04:10.755|56=cServer|57=QUOTE|262=MARKETDATAID|263=1|264=1|267=2|269=0|269=1|146=1|55=20331|10=255|8=FIX.4.4|9=176|35=V|34=406|49=demo.ctrader.3873996|50=3873996Vu23oNsuaZgvUY0w1fLVmA|52=20231212-14:04:10.755|56=cServer|57=QUOTE|262=MARKETDATAID|263=1|264=1|267=2|269=0|269=1|146=1|55=20332|10=001|8=FIX.4.4|9=176|35=V|34=407|49=demo.ctrader.3873996|50=3873996Vu23oNsuaZgvUY0w1fLVmA|52=20231212-14:04:10.755|56=cServer|57=QUOTE|262=MARKETDATAID|263=1|264=1|267=2|269=0|269=1|146=1|55=20333|10=003|8=FIX.4.4|9=176|35=V|34=408|49=demo.ctrader.3873996|50=3873996Vu23oNsuaZgvUY0w1fLVmA|52=20231212-14:04:10.756|56=cServer|57=QUOTE|262=MARKETDATAID|263=1|264=1|267=2|269=0|269=1|146=1|55=20334|10=006|8=FIX.4.4|9=176|35=V|34=409|49=demo.ctrader.3873996|50=3873996Vu23oNsuaZgvUY0w1fLVmA|52=20231212-14:04:10.756|56=cServer|57=QUOTE|262=MARKETDATAID|263=1|264=1|267=2|269=0|269=1|146=1|55=20335|10=008|8=FIX.4.4|9=176|35=V|34=410|49=demo.ctrader.3873996|50=3873996Vu23oNsuaZgvUY0w1fLVmA|52=20231212-14:04:10.756|56=cServer|57=QUOTE|262=MARKETDATAID|263=1|264=1|267=2|269=0|269=1|146=1|55=20336|10=001|8=FIX.4.4|9=176|35=V|34=411|49=demo.ctrader.3873996|50=3873996Vu23oNsuaZgvUY0w1fLVmA|52=20231212-14:04:10.756|56=cServer|57=QUOTE|262=MARKETDATAID|263=1|264=1|267=2|269=0|269=1|146=1|55=20337|10=003|8=FIX.4.4|9=176|35=V|34=412|49=demo.ctrader.3873996|50=3873996Vu23oNsuaZgvUY0w1fLVmA|52=20231212-14:04:10.756|56=cServer|57=QUOTE|262=MARKETDATAID|263=1|264=1|267=2|269=0|269=1|146=1|55=20338|10=005|8=FIX.4.4|9=176|35=V|34=413|49=demo.ctrader.3873996|50=3873996Vu23oNsuaZgvUY0w1fLVmA|52=20231212-14:04:10.756|56=cServer|57=QUOTE|262=MARKETDATAID|263=1|264=1|267=2|269=0|269=1|146=1|55=20339|10=007|8=FIX.4.4|9=176|35=V|34=414|49=demo.ctrader.3873996|50=3873996Vu23oNsuaZgvUY0w1fLVmA|52=20231212-14:04:10.759|56=cServer|57=QUOTE|262=MARKETDATAID|263=1|264=1|267=2|269=0|269=1|146=1|55=20340|10=003|8=FIX.4.4|9=176|35=V|34=415|49=demo.ctrader.3873996|50=3873996Vu23oNsuaZgvUY0w1fLVmA|52=20231212-14:04:10.759|56=cServer|57=QUOTE|262=MARKETDATAID|263=1|264=1|267=2|269=0|269=1|146=1|55=20341|10=005|8=FIX.4.4|9=176|35=V|34=416|49=demo.ctrader.3873996|50=3873996Vu23oNsuaZgvUY0w1fLVmA|52=20231212-14:04:10.759|56=cServer|57=QUOTE|262=MARKETDATAID|263=1|264=1|267=2|269=0|269=1|146=1|55=20342|10=007|8=FIX.4.4|9=176|35=V|34=417|49=demo.ctrader.3873996|50=3873996Vu23oNsuaZgvUY0w1fLVmA|52=20231212-14:04:10.760|56=cServer|57=QUOTE|262=MARKETDATAID|263=1|264=1|267=2|269=0|269=1|146=1|55=20343|10=001|8=FIX.4.4|9=176|35=V|34=418|49=demo.ctrader.3873996|50=3873996Vu23oNsuaZgvUY0w1fLVmA|52=20231212-14:04:10.760|56=cServer|57=QUOTE|262=MARKETDATAID|263=1|264=1|267=2|269=0|269=1|146=1|55=20344|10=003|8=FIX.4.4|9=176|35=V|34=419|49=demo.ctrader.3873996|50=3873996Vu23oNsuaZgvUY0w1fLVmA|52=20231212-14:04:10.760|56=cServer|57=QUOTE|262=MARKETDATAID|263=1|264=1|267=2|269=0|269=1|146=1|55=20345|10=005|8=FIX.4.4|9=176|35=V|34=420|49=demo.ctrader.3873996|50=3873996Vu23oNsuaZgvUY0w1fLVmA|52=20231212-14:04:10.760|56=cServer|57=QUOTE|262=MARKETDATAID|263=1|264=1|267=2|269=0|269=1|146=1|55=20346|10=254|8=FIX.4.4|9=176|35=V|34=421|49=demo.ctrader.3873996|50=3873996Vu23oNsuaZgvUY0w1fLVmA|52=20231212-14:04:10.760|56=cServer|57=QUOTE|262=MARKETDATAID|263=1|264=1|267=2|269=0|269=1|146=1|55=20347|10=000|8=FIX.4.4|9=176|35=V|34=422|49=demo.ctrader.3873996|50=3873996Vu23oNsuaZgvUY0w1fLVmA|52=20231212-14:04:10.760|56=cServer|57=QUOTE|262=MARKETDATAID|263=1|264=1|267=2|269=0|269=1|146=1|55=20348|10=002|8=FIX.4.4|9=176|35=V|34=423|49=demo.ctrader.3873996|50=3873996Vu23oNsuaZgvUY0w1fLVmA|52=20231212-14:04:10.760|56=cServer|57=QUOTE|262=MARKETDATAID|263=1|264=1|267=2|269=0|269=1|146=1|55=20349|10=004|8=FIX.4.4|9=176|35=V|34=424|49=demo.ctrader.3873996|50=3873996Vu23oNsuaZgvUY0w1fLVmA|52=20231212-14:04:10.760|56=cServer|57=QUOTE|262=MARKETDATAID|263=1|264=1|267=2|269=0|269=1|146=1|55=20350|10=253|8=FIX.4.4|9=176|35=V|34=425|49=demo.ctrader.3873996|50=3873996Vu23oNsuaZgvUY0w1fLVmA|52=20231212-14:04:10.760|56=cServer|57=QUOTE|262=MARKETDATAID|263=1|264=1|267=2|269=0|269=1|146=1|55=20351|10=255|8=FIX.4.4|9=176|35=V|34=426|49=demo.ctrader.3873996|50=3873996Vu23oNsuaZgvUY0w1fLVmA|52=20231212-14:04:10.760|56=cServer|57=QUOTE|262=MARKETDATAID|263=1|264=1|267=2|269=0|269=1|146=1|55=20352|10=001|8=FIX.4.4|9=176|35=V|34=427|49=demo.ctrader.3873996|50=3873996Vu23oNsuaZgvUY0w1fLVmA|52=20231212-14:04:10.761|56=cServer|57=QUOTE|262=MARKETDATAID|263=1|264=1|267=2|269=0|269=1|146=1|55=20353|10=004|8=FIX.4.4|9=176|35=V|34=428|49=demo.ctrader.3873996|50=3873996Vu23oNsuaZgvUY0w1fLVmA|52=20231212-14:04:10.779|56=cServer|57=QUOTE|262=MARKETDATAID|263=1|264=1|267=2|269=0|269=1|146=1|55=20354|10=015|8=FIX.4.4|9=176|35=V|34=429|49=demo.ctrader.3873996|50=3873996Vu23oNsuaZgvUY0w1fLVmA|52=20231212-14:04:10.779|56=cServer|57=QUOTE|262=MARKETDATAID|263=1|264=1|267=2|269=0|269=1|146=1|55=20355|10=017|8=FIX.4.4|9=176|35=V|34=430|49=demo.ctrader.3873996|50=3873996Vu23oNsuaZgvUY0w1fLVmA|52=20231212-14:04:10.779|56=cServer|57=QUOTE|262=MARKETDATAID|263=1|264=1|267=2|269=0|269=1|146=1|55=20356|10=010|8=FIX.4.4|9=176|35=V|34=431|49=demo.ctrader.3873996|50=3873996Vu23oNsuaZgvUY0w1fLVmA|52=20231212-14:04:10.779|56=cServer|57=QUOTE|262=MARKETDATAID|263=1|264=1|267=2|269=0|269=1|146=1|55=20357|10=012|8=FIX.4.4|9=176|35=V|34=432|49=demo.ctrader.3873996|50=3873996Vu23oNsuaZgvUY0w1fLVmA|52=20231212-14:04:10.779|56=cServer|57=QUOTE|262=MARKETDATAID|263=1|264=1|267=2|269=0|269=1|146=1|55=20358|10=014|8=FIX.4.4|9=176|35=V|34=433|49=demo.ctrader.3873996|50=3873996Vu23oNsuaZgvUY0w1fLVmA|52=20231212-14:04:10.779|56=cServer|57=QUOTE|262=MARKETDATAID|263=1|264=1|267=2|269=0|269=1|146=1|55=20359|10=016|8=FIX.4.4|9=176|35=V|34=434|49=demo.ctrader.3873996|50=3873996Vu23oNsuaZgvUY0w1fLVmA|52=20231212-14:04:10.779|56=cServer|57=QUOTE|262=MARKETDATAID|263=1|264=1|267=2|269=0|269=1|146=1|55=20360|10=009|8=FIX.4.4|9=176|35=V|34=435|49=demo.ctrader.3873996|50=3873996Vu23oNsuaZgvUY0w1fLVmA|52=20231212-14:04:10.780|56=cServer|57=QUOTE|262=MARKETDATAID|263=1|264=1|267=2|269=0|269=1|146=1|55=20361|10=003|8=FIX.4.4|9=176|35=V|34=436|49=demo.ctrader.3873996|50=3873996Vu23oNsuaZgvUY0w1fLVmA|52=20231212-14:04:10.780|56=cServer|57=QUOTE|262=MARKETDATAID|263=1|264=1|267=2|269=0|269=1|146=1|55=20362|10=005|8=FIX.4.4|9=176|35=V|34=437|49=demo.ctrader.3873996|50=3873996Vu23oNsuaZgvUY0w1fLVmA|52=20231212-14:04:10.780|56=cServer|57=QUOTE|262=MARKETDATAID|263=1|264=1|267=2|269=0|269=1|146=1|55=20363|10=007|8=FIX.4.4|9=176|35=V|34=438|49=demo.ctrader.3873996|50=3873996Vu23oNsuaZgvUY0w1fLVmA|52=20231212-14:04:10.780|56=cServer|57=QUOTE|262=MARKETDATAID|263=1|264=1|267=2|269=0|269=1|146=1|55=20364|10=009|8=FIX.4.4|9=176|35=V|34=439|49=demo.ctrader.3873996|50=3873996Vu23oNsuaZgvUY0w1fLVmA|52=20231212-14:04:10.780|56=cServer|57=QUOTE|262=MARKETDATAID|263=1|264=1|267=2|269=0|269=1|146=1|55=20365|10=011|8=FIX.4.4|9=176|35=V|34=440|49=demo.ctrader.3873996|50=3873996Vu23oNsuaZgvUY0w1fLVmA|52=20231212-14:04:10.780|56=cServer|57=QUOTE|262=MARKETDATAID|263=1|264=1|267=2|269=0|269=1|146=1|55=20366|10=004|8=FIX.4.4|9=176|35=V|34=441|49=demo.ctrader.3873996|50=3873996Vu23oNsuaZgvUY0w1fLVmA|52=20231212-14:04:10.780|56=cServer|57=QUOTE|262=MARKETDATAID|263=1|264=1|267=2|269=0|269=1|146=1|55=20367|10=006|8=FIX.4.4|9=176|35=V|34=442|49=demo.ctrader.3873996|50=3873996Vu23oNsuaZgvUY0w1fLVmA|52=20231212-14:04:10.780|56=cServer|57=QUOTE|262=MARKETDATAID|263=1|264=1|267=2|269=0|269=1|146=1|55=20368|10=008|8=FIX.4.4|9=176|35=V|34=443|49=demo.ctrader.3873996|50=3873996Vu23oNsuaZgvUY0w1fLVmA|52=20231212-14:04:10.780|56=cServer|57=QUOTE|262=MARKETDATAID|263=1|264=1|267=2|269=0|269=1|146=1|55=20369|10=010|8=FIX.4.4|9=176|35=V|34=444|49=demo.ctrader.3873996|50=3873996Vu23oNsuaZgvUY0w1fLVmA|52=20231212-14:04:10.780|56=cServer|57=QUOTE|262=MARKETDATAID|263=1|264=1|267=2|269=0|269=1|146=1|55=20370|10=003|8=FIX.4.4|9=176|35=V|34=445|49=demo.ctrader.3873996|50=3873996Vu23oNsuaZgvUY0w1fLVmA|52=20231212-14:04:10.780|56=cServer|57=QUOTE|262=MARKETDATAID|263=1|264=1|267=2|269=0|269=1|146=1|55=20371|10=005|8=FIX.4.4|9=176|35=V|34=446|49=demo.ctrader.3873996|50=3873996Vu23oNsuaZgvUY0w1fLVmA|52=20231212-14:04:10.781|56=cServer|57=QUOTE|262=MARKETDATAID|263=1|264=1|267=2|269=0|269=1|146=1|55=20372|10=008|8=FIX.4.4|9=176|35=V|34=447|49=demo.ctrader.3873996|50=3873996Vu23oNsuaZgvUY0w1fLVmA|52=20231212-14:04:10.781|56=cServer|57=QUOTE|262=MARKETDATAID|263=1|264=1|267=2|269=0|269=1|146=1|55=20373|10=010|8=FIX.4.4|9=176|35=V|34=448|49=demo.ctrader.3873996|50=3873996Vu23oNsuaZgvUY0w1fLVmA|52=20231212-14:04:10.781|56=cServer|57=QUOTE|262=MARKETDATAID|263=1|264=1|267=2|269=0|269=1|146=1|55=20374|10=012|8=FIX.4.4|9=176|35=V|34=449|49=demo.ctrader.3873996|50=3873996Vu23oNsuaZgvUY0w1fLVmA|52=20231212-14:04:10.781|56=cServer|57=QUOTE|262=MARKETDATAID|263=1|264=1|267=2|269=0|269=1|146=1|55=20375|10=014|8=FIX.4.4|9=176|35=V|34=450|49=demo.ctrader.3873996|50=3873996Vu23oNsuaZgvUY0w1fLVmA|52=20231212-14:04:10.781|56=cServer|57=QUOTE|262=MARKETDATAID|263=1|264=1|267=2|269=0|269=1|146=1|55=20376|10=007|8=FIX.4.4|9=176|35=V|34=451|49=demo.ctrader.3873996|50=3873996Vu23oNsuaZgvUY0w1fLVmA|52=20231212-14:04:10.781|56=cServer|57=QUOTE|262=MARKETDATAID|263=1|264=1|267=2|269=0|269=1|146=1|55=20377|10=009|8=FIX.4.4|9=176|35=V|34=452|49=demo.ctrader.3873996|50=3873996Vu23oNsuaZgvUY0w1fLVmA|52=20231212-14:04:10.781|56=cServer|57=QUOTE|262=MARKETDATAID|263=1|264=1|267=2|269=0|269=1|146=1|55=20378|10=011|8=FIX.4.4|9=176|35=V|34=453|49=demo.ctrader.3873996|50=3873996Vu23oNsuaZgvUY0w1fLVmA|52=20231212-14:04:10.781|56=cServer|57=QUOTE|262=MARKETDATAID|263=1|264=1|267=2|269=0|269=1|146=1|55=20379|10=013|8=FIX.4.4|9=176|35=V|34=454|49=demo.ctrader.3873996|50=3873996Vu23oNsuaZgvUY0w1fLVmA|52=20231212-14:04:10.781|56=cServer|57=QUOTE|262=MARKETDATAID|263=1|264=1|267=2|269=0|269=1|146=1|55=20380|10=006|8=FIX.4.4|9=176|35=V|34=455|49=demo.ctrader.3873996|50=3873996Vu23oNsuaZgvUY0w1fLVmA|52=20231212-14:04:10.781|56=cServer|57=QUOTE|262=MARKETDATAID|263=1|264=1|267=2|269=0|269=1|146=1|55=20381|10=008|8=FIX.4.4|9=176|35=V|34=456|49=demo.ctrader.3873996|50=3873996Vu23oNsuaZgvUY0w1fLVmA|52=20231212-14:04:10.781|56=cServer|57=QUOTE|262=MARKETDATAID|263=1|264=1|267=2|269=0|269=1|146=1|55=20382|10=010|8=FIX.4.4|9=176|35=V|34=457|49=demo.ctrader.3873996|50=3873996Vu23oNsuaZgvUY0w1fLVmA|52=20231212-14:04:10.781|56=cServer|57=QUOTE|262=MARKETDATAID|263=1|264=1|267=2|269=0|269=1|146=1|55=20383|10=012|8=FIX.4.4|9=176|35=V|34=458|49=demo.ctrader.3873996|50=3873996Vu23oNsuaZgvUY0w1fLVmA|52=20231212-14:04:10.782|56=cServer|57=QUOTE|262=MARKETDATAID|263=1|264=1|267=2|269=0|269=1|146=1|55=20384|10=015|8=FIX.4.4|9=176|35=V|34=459|49=demo.ctrader.3873996|50=3873996Vu23oNsuaZgvUY0w1fLVmA|52=20231212-14:04:10.782|56=cServer|57=QUOTE|262=MARKETDATAID|263=1|264=1|267=2|269=0|269=1|146=1|55=20385|10=017|8=FIX.4.4|9=176|35=V|34=460|49=demo.ctrader.3873996|50=3873996Vu23oNsuaZgvUY0w1fLVmA|52=20231212-14:04:10.782|56=cServer|57=QUOTE|262=MARKETDATAID|263=1|264=1|267=2|269=0|269=1|146=1|55=20386|10=010|8=FIX.4.4|9=176|35=V|34=461|49=demo.ctrader.3873996|50=3873996Vu23oNsuaZgvUY0w1fLVmA|52=20231212-14:04:10.782|56=cServer|57=QUOTE|262=MARKETDATAID|263=1|264=1|267=2|269=0|269=1|146=1|55=20387|10=012|8=FIX.4.4|9=176|35=V|34=462|49=demo.ctrader.3873996|50=3873996Vu23oNsuaZgvUY0w1fLVmA|52=20231212-14:04:10.782|56=cServer|57=QUOTE|262=MARKETDATAID|263=1|264=1|267=2|269=0|269=1|146=1|55=20388|10=014|8=FIX.4.4|9=176|35=V|34=463|49=demo.ctrader.3873996|50=3873996Vu23oNsuaZgvUY0w1fLVmA|52=20231212-14:04:10.782|56=cServer|57=QUOTE|262=MARKETDATAID|263=1|264=1|267=2|269=0|269=1|146=1|55=20389|10=016|8=FIX.4.4|9=176|35=V|34=464|49=demo.ctrader.3873996|50=3873996Vu23oNsuaZgvUY0w1fLVmA|52=20231212-14:04:10.782|56=cServer|57=QUOTE|262=MARKETDATAID|263=1|264=1|267=2|269=0|269=1|146=1|55=20390|10=009|8=FIX.4.4|9=176|35=V|34=465|49=demo.ctrader.3873996|50=3873996Vu23oNsuaZgvUY0w1fLVmA|52=20231212-14:04:10.782|56=cServer|57=QUOTE|262=MARKETDATAID|263=1|264=1|267=2|269=0|269=1|146=1|55=20391|10=011|8=FIX.4.4|9=176|35=V|34=466|49=demo.ctrader.3873996|50=3873996Vu23oNsuaZgvUY0w1fLVmA|52=20231212-14:04:10.782|56=cServer|57=QUOTE|262=MARKETDATAID|263=1|264=1|267=2|269=0|269=1|146=1|55=20392|10=013|8=FIX.4.4|9=176|35=V|34=467|49=demo.ctrader.3873996|50=3873996Vu23oNsuaZgvUY0w1fLVmA|52=20231212-14:04:10.782|56=cServer|57=QUOTE|262=MARKETDATAID|263=1|264=1|267=2|269=0|269=1|146=1|55=20393|10=015|8=FIX.4.4|9=176|35=V|34=468|49=demo.ctrader.3873996|50=3873996Vu23oNsuaZgvUY0w1fLVmA|52=20231212-14:04:10.782|56=cServer|57=QUOTE|262=MARKETDATAID|263=1|264=1|267=2|269=0|269=1|146=1|55=20394|10=017|8=FIX.4.4|9=176|35=V|34=469|49=demo.ctrader.3873996|50=3873996Vu23oNsuaZgvUY0w1fLVmA|52=20231212-14:04:10.782|56=cServer|57=QUOTE|262=MARKETDATAID|263=1|264=1|267=2|269=0|269=1|146=1|55=20395|10=019|8=FIX.4.4|9=176|35=V|34=470|49=demo.ctrader.3873996|50=3873996Vu23oNsuaZgvUY0w1fLVmA|52=20231212-14:04:10.782|56=cServer|57=QUOTE|262=MARKETDATAID|263=1|264=1|267=2|269=0|269=1|146=1|55=20396|10=012|8=FIX.4.4|9=176|35=V|34=471|49=demo.ctrader.3873996|50=3873996Vu23oNsuaZgvUY0w1fLVmA|52=20231212-14:04:10.783|56=cServer|57=QUOTE|262=MARKETDATAID|263=1|264=1|267=2|269=0|269=1|146=1|55=20397|10=015|8=FIX.4.4|9=176|35=V|34=472|49=demo.ctrader.3873996|50=3873996Vu23oNsuaZgvUY0w1fLVmA|52=20231212-14:04:10.783|56=cServer|57=QUOTE|262=MARKETDATAID|263=1|264=1|267=2|269=0|269=1|146=1|55=20398|10=017|8=FIX.4.4|9=176|35=V|34=473|49=demo.ctrader.3873996|50=3873996Vu23oNsuaZgvUY0w1fLVmA|52=20231212-14:04:10.783|56=cServer|57=QUOTE|262=MARKETDATAID|263=1|264=1|267=2|269=0|269=1|146=1|55=20399|10=019|8=FIX.4.4|9=176|35=V|34=474|49=demo.ctrader.3873996|50=3873996Vu23oNsuaZgvUY0w1fLVmA|52=20231212-14:04:10.783|56=cServer|57=QUOTE|262=MARKETDATAID|263=1|264=1|267=2|269=0|269=1|146=1|55=20400|10=003|8=FIX.4.4|9=176|35=V|34=475|49=demo.ctrader.3873996|50=3873996Vu23oNsuaZgvUY0w1fLVmA|52=20231212-14:04:10.783|56=cServer|57=QUOTE|262=MARKETDATAID|263=1|264=1|267=2|269=0|269=1|146=1|55=20401|10=005|8=FIX.4.4|9=176|35=V|34=476|49=demo.ctrader.3873996|50=3873996Vu23oNsuaZgvUY0w1fLVmA|52=20231212-14:04:10.783|56=cServer|57=QUOTE|262=MARKETDATAID|263=1|264=1|267=2|269=0|269=1|146=1|55=20402|10=007|8=FIX.4.4|9=176|35=V|34=477|49=demo.ctrader.3873996|50=3873996Vu23oNsuaZgvUY0w1fLVmA|52=20231212-14:04:10.783|56=cServer|57=QUOTE|262=MARKETDATAID|263=1|264=1|267=2|269=0|269=1|146=1|55=20403|10=009|8=FIX.4.4|9=176|35=V|34=478|49=demo.ctrader.3873996|50=3873996Vu23oNsuaZgvUY0w1fLVmA|52=20231212-14:04:10.783|56=cServer|57=QUOTE|262=MARKETDATAID|263=1|264=1|267=2|269=0|269=1|146=1|55=20404|10=011|8=FIX.4.4|9=176|35=V|34=479|49=demo.ctrader.3873996|50=3873996Vu23oNsuaZgvUY0w1fLVmA|52=20231212-14:04:10.783|56=cServer|57=QUOTE|262=MARKETDATAID|263=1|264=1|267=2|269=0|269=1|146=1|55=20405|10=013|8=FIX.4.4|9=176|35=V|34=480|49=demo.ctrader.3873996|50=3873996Vu23oNsuaZgvUY0w1fLVmA|52=20231212-14:04:10.783|56=cServer|57=QUOTE|262=MARKETDATAID|263=1|264=1|267=2|269=0|269=1|146=1|55=20406|10=006|8=FIX.4.4|9=176|35=V|34=481|49=demo.ctrader.3873996|50=3873996Vu23oNsuaZgvUY0w1fLVmA|52=20231212-14:04:10.783|56=cServer|57=QUOTE|262=MARKETDATAID|263=1|264=1|267=2|269=0|269=1|146=1|55=20407|10=008|8=FIX.4.4|9=176|35=V|34=482|49=demo.ctrader.3873996|50=3873996Vu23oNsuaZgvUY0w1fLVmA|52=20231212-14:04:10.783|56=cServer|57=QUOTE|262=MARKETDATAID|263=1|264=1|267=2|269=0|269=1|146=1|55=20408|10=010|8=FIX.4.4|9=176|35=V|34=483|49=demo.ctrader.3873996|50=3873996Vu23oNsuaZgvUY0w1fLVmA|52=20231212-14:04:10.784|56=cServer|57=QUOTE|262=MARKETDATAID|263=1|264=1|267=2|269=0|269=1|146=1|55=20409|10=013|8=FIX.4.4|9=176|35=V|34=484|49=demo.ctrader.3873996|50=3873996Vu23oNsuaZgvUY0w1fLVmA|52=20231212-14:04:10.784|56=cServer|57=QUOTE|262=MARKETDATAID|263=1|264=1|267=2|269=0|269=1|146=1|55=20410|10=006|8=FIX.4.4|9=176|35=V|34=485|49=demo.ctrader.3873996|50=3873996Vu23oNsuaZgvUY0w1fLVmA|52=20231212-14:04:10.784|56=cServer|57=QUOTE|262=MARKETDATAID|263=1|264=1|267=2|269=0|269=1|146=1|55=20411|10=008|8=FIX.4.4|9=176|35=V|34=486|49=demo.ctrader.3873996|50=3873996Vu23oNsuaZgvUY0w1fLVmA|52=20231212-14:04:10.784|56=cServer|57=QUOTE|262=MARKETDATAID|263=1|264=1|267=2|269=0|269=1|146=1|55=20412|10=010|8=FIX.4.4|9=176|35=V|34=487|49=demo.ctrader.3873996|50=3873996Vu23oNsuaZgvUY0w1fLVmA|52=20231212-14:04:10.784|56=cServer|57=QUOTE|262=MARKETDATAID|263=1|264=1|267=2|269=0|269=1|146=1|55=20413|10=012|8=FIX.4.4|9=176|35=V|34=488|49=demo.ctrader.3873996|50=3873996Vu23oNsuaZgvUY0w1fLVmA|52=20231212-14:04:10.784|56=cServer|57=QUOTE|262=MARKETDATAID|263=1|264=1|267=2|269=0|269=1|146=1|55=20414|10=014|8=FIX.4.4|9=176|35=V|34=489|49=demo.ctrader.3873996|50=3873996Vu23oNsuaZgvUY0w1fLVmA|52=20231212-14:04:10.784|56=cServer|57=QUOTE|262=MARKETDATAID|263=1|264=1|267=2|269=0|269=1|146=1|55=20415|10=016|8=FIX.4.4|9=176|35=V|34=490|49=demo.ctrader.3873996|50=3873996Vu23oNsuaZgvUY0w1fLVmA|52=20231212-14:04:10.784|56=cServer|57=QUOTE|262=MARKETDATAID|263=1|264=1|267=2|269=0|269=1|146=1|55=20416|10=009|8=FIX.4.4|9=176|35=V|34=491|49=demo.ctrader.3873996|50=3873996Vu23oNsuaZgvUY0w1fLVmA|52=20231212-14:04:10.784|56=cServer|57=QUOTE|262=MARKETDATAID|263=1|264=1|267=2|269=0|269=1|146=1|55=20417|10=011|8=FIX.4.4|9=176|35=V|34=492|49=demo.ctrader.3873996|50=3873996Vu23oNsuaZgvUY0w1fLVmA|52=20231212-14:04:10.793|56=cServer|57=QUOTE|262=MARKETDATAID|263=1|264=1|267=2|269=0|269=1|146=1|55=20418|10=013|8=FIX.4.4|9=176|35=V|34=493|49=demo.ctrader.3873996|50=3873996Vu23oNsuaZgvUY0w1fLVmA|52=20231212-14:04:10.794|56=cServer|57=QUOTE|262=MARKETDATAID|263=1|264=1|267=2|269=0|269=1|146=1|55=20419|10=016|8=FIX.4.4|9=176|35=V|34=494|49=demo.ctrader.3873996|50=3873996Vu23oNsuaZgvUY0w1fLVmA|52=20231212-14:04:10.794|56=cServer|57=QUOTE|262=MARKETDATAID|263=1|264=1|267=2|269=0|269=1|146=1|55=20420|10=009|8=FIX.4.4|9=176|35=V|34=495|49=demo.ctrader.3873996|50=3873996Vu23oNsuaZgvUY0w1fLVmA|52=20231212-14:04:10.794|56=cServer|57=QUOTE|262=MARKETDATAID|263=1|264=1|267=2|269=0|269=1|146=1|55=20421|10=011|8=FIX.4.4|9=176|35=V|34=496|49=demo.ctrader.3873996|50=3873996Vu23oNsuaZgvUY0w1fLVmA|52=20231212-14:04:10.794|56=cServer|57=QUOTE|262=MARKETDATAID|263=1|264=1|267=2|269=0|269=1|146=1|55=20422|10=013|8=FIX.4.4|9=176|35=V|34=497|49=demo.ctrader.3873996|50=3873996Vu23oNsuaZgvUY0w1fLVmA|52=20231212-14:04:10.794|56=cServer|57=QUOTE|262=MARKETDATAID|263=1|264=1|267=2|269=0|269=1|146=1|55=20423|10=015|8=FIX.4.4|9=176|35=V|34=498|49=demo.ctrader.3873996|50=3873996Vu23oNsuaZgvUY0w1fLVmA|52=20231212-14:04:10.794|56=cServer|57=QUOTE|262=MARKETDATAID|263=1|264=1|267=2|269=0|269=1|146=1|55=20424|10=017|8=FIX.4.4|9=176|35=V|34=499|49=demo.ctrader.3873996|50=3873996Vu23oNsuaZgvUY0w1fLVmA|52=20231212-14:04:10.795|56=cServer|57=QUOTE|262=MARKETDATAID|263=1|264=1|267=2|269=0|269=1|146=1|55=20425|10=020|8=FIX.4.4|9=176|35=V|34=500|49=demo.ctrader.3873996|50=3873996Vu23oNsuaZgvUY0w1fLVmA|52=20231212-14:04:10.795|56=cServer|57=QUOTE|262=MARKETDATAID|263=1|264=1|267=2|269=0|269=1|146=1|55=20426|10=004|8=FIX.4.4|9=176|35=V|34=501|49=demo.ctrader.3873996|50=3873996Vu23oNsuaZgvUY0w1fLVmA|52=20231212-14:04:10.795|56=cServer|57=QUOTE|262=MARKETDATAID|263=1|264=1|267=2|269=0|269=1|146=1|55=20427|10=006|8=FIX.4.4|9=176|35=V|34=502|49=demo.ctrader.3873996|50=3873996Vu23oNsuaZgvUY0w1fLVmA|52=20231212-14:04:10.795|56=cServer|57=QUOTE|262=MARKETDATAID|263=1|264=1|267=2|269=0|269=1|146=1|55=20428|10=008|8=FIX.4.4|9=176|35=V|34=503|49=demo.ctrader.3873996|50=3873996Vu23oNsuaZgvUY0w1fLVmA|52=20231212-14:04:10.795|56=cServer|57=QUOTE|262=MARKETDATAID|263=1|264=1|267=2|269=0|269=1|146=1|55=20429|10=010|8=FIX.4.4|9=176|35=V|34=504|49=demo.ctrader.3873996|50=3873996Vu23oNsuaZgvUY0w1fLVmA|52=20231212-14:04:10.795|56=cServer|57=QUOTE|