8=FIX.4.4|9=244|35=A|34=1|49=demo.ctrader.3873996|50=38739960PNoyT3UIPrZ8-DhsUDMPQ|52=20231226-06:53:04.774|56=cServer|57=TRADE|49=demo.ctrader.3873996|50=38739960PNoyT3UIPrZ8-DhsUDMPQ|52=20231226-06:53:04|56=cServer|98=0|108=30|141=Y|553=3873996|554=Gtlfx125|10=106|8=FIX.4.4|9=130|35=x|34=2|49=demo.ctrader.3873996|50=38739960PNoyT3UIPrZ8-DhsUDMPQ|52=20231226-06:53:05.322|56=cServer|57=TRADE|320=symbols|559=0|10=171|8=FIX.4.4|9=127|35=AN|34=3|49=demo.ctrader.3873996|50=38739960PNoyT3UIPrZ8-DhsUDMPQ|52=20231226-06:53:05.617|56=cServer|57=TRADE|710=Positions|10=129|8=FIX.4.4|9=130|35=AF|34=4|49=demo.ctrader.3873996|50=38739960PNoyT3UIPrZ8-DhsUDMPQ|52=20231226-06:53:05.617|56=cServer|57=TRADE|584=Orders|585=7|10=059|8=FIX.4.4|9=178|35=D|34=5|49=demo.ctrader.3873996|50=38739960PNoyT3UIPrZ8-DhsUDMPQ|52=20231226-06:53:16.744|56=cServer|57=TRADE|11=New Order|38=1000|40=1|54=1|55=6|59=3|60=20231226-11:53:16.744|10=048|8=FIX.4.4|9=127|35=AN|34=6|49=demo.ctrader.3873996|50=38739960PNoyT3UIPrZ8-DhsUDMPQ|52=20231226-06:53:17.209|56=cServer|57=TRADE|710=Positions|10=132|8=FIX.4.4|9=127|35=AN|34=7|49=demo.ctrader.3873996|50=38739960PNoyT3UIPrZ8-DhsUDMPQ|52=20231226-06:53:29.472|56=cServer|57=TRADE|710=Positions|10=138|8=FIX.4.4|9=112|35=0|34=8|49=demo.ctrader.3873996|50=38739960PNoyT3UIPrZ8-DhsUDMPQ|52=20231226-06:53:59.769|56=cServer|57=TRADE|10=148|8=FIX.4.4|9=112|35=0|34=9|49=demo.ctrader.3873996|50=38739960PNoyT3UIPrZ8-DhsUDMPQ|52=20231226-06:54:30.777|56=cServer|57=TRADE|10=138|8=FIX.4.4|9=113|35=0|34=10|49=demo.ctrader.3873996|50=38739960PNoyT3UIPrZ8-DhsUDMPQ|52=20231226-06:55:01.787|56=cServer|57=TRADE|10=179|8=FIX.4.4|9=113|35=0|34=11|49=demo.ctrader.3873996|50=38739960PNoyT3UIPrZ8-DhsUDMPQ|52=20231226-06:55:31.821|56=cServer|57=TRADE|10=172|8=FIX.4.4|9=113|35=0|34=12|49=demo.ctrader.3873996|50=38739960PNoyT3UIPrZ8-DhsUDMPQ|52=20231226-06:56:02.011|56=cServer|57=TRADE|10=163|8=FIX.4.4|9=113|35=0|34=13|49=demo.ctrader.3873996|50=38739960PNoyT3UIPrZ8-DhsUDMPQ|52=20231226-06:56:32.784|56=cServer|57=TRADE|10=184|8=FIX.4.4|9=113|35=0|34=14|49=demo.ctrader.3873996|50=38739960PNoyT3UIPrZ8-DhsUDMPQ|52=20231226-06:57:03.792|56=cServer|57=TRADE|10=183|8=FIX.4.4|9=113|35=0|34=15|49=demo.ctrader.3873996|50=38739960PNoyT3UIPrZ8-DhsUDMPQ|52=20231226-06:57:33.823|56=cServer|57=TRADE|10=182|8=FIX.4.4|9=113|35=0|34=16|49=demo.ctrader.3873996|50=38739960PNoyT3UIPrZ8-DhsUDMPQ|52=20231226-06:58:04.805|56=cServer|57=TRADE|10=182|8=FIX.4.4|9=113|35=0|34=17|49=demo.ctrader.3873996|50=38739960PNoyT3UIPrZ8-DhsUDMPQ|52=20231226-06:58:34.835|56=cServer|57=TRADE|10=189|8=FIX.4.4|9=113|35=0|34=18|49=demo.ctrader.3873996|50=38739960PNoyT3UIPrZ8-DhsUDMPQ|52=20231226-06:59:05.839|56=cServer|57=TRADE|10=193|8=FIX.4.4|9=113|35=0|34=19|49=demo.ctrader.3873996|50=38739960PNoyT3UIPrZ8-DhsUDMPQ|52=20231226-06:59:35.944|56=cServer|57=TRADE|10=194|8=FIX.4.4|9=113|35=0|34=20|49=demo.ctrader.3873996|50=38739960PNoyT3UIPrZ8-DhsUDMPQ|52=20231226-07:00:06.812|56=cServer|57=TRADE|10=165|8=FIX.4.4|9=113|35=0|34=21|49=demo.ctrader.3873996|50=38739960PNoyT3UIPrZ8-DhsUDMPQ|52=20231226-07:00:36.861|56=cServer|57=TRADE|10=173|8=FIX.4.4|9=113|35=0|34=22|49=demo.ctrader.3873996|50=38739960PNoyT3UIPrZ8-DhsUDMPQ|52=20231226-07:01:07.836|56=cServer|57=TRADE|10=175|8=FIX.4.4|9=113|35=0|34=23|49=demo.ctrader.3873996|50=38739960PNoyT3UIPrZ8-DhsUDMPQ|52=20231226-07:01:37.846|56=cServer|57=TRADE|10=180|8=FIX.4.4|9=113|35=0|34=24|49=demo.ctrader.3873996|50=38739960PNoyT3UIPrZ8-DhsUDMPQ|52=20231226-07:02:08.849|56=cServer|57=TRADE|10=183|8=FIX.4.4|9=113|35=0|34=25|49=demo.ctrader.3873996|50=38739960PNoyT3UIPrZ8-DhsUDMPQ|52=20231226-07:02:39.846|56=cServer|57=TRADE|10=185|8=FIX.4.4|9=113|35=0|34=26|49=demo.ctrader.3873996|50=38739960PNoyT3UIPrZ8-DhsUDMPQ|52=20231226-07:03:09.867|56=cServer|57=TRADE|10=187|8=FIX.4.4|9=113|35=0|34=27|49=demo.ctrader.3873996|50=38739960PNoyT3UIPrZ8-DhsUDMPQ|52=20231226-07:03:40.867|56=cServer|57=TRADE|10=183|8=FIX.4.4|9=113|35=0|34=28|49=demo.ctrader.3873996|50=38739960PNoyT3UIPrZ8-DhsUDMPQ|52=20231226-07:04:11.867|56=cServer|57=TRADE|10=183|8=FIX.4.4|9=113|35=0|34=29|49=demo.ctrader.3873996|50=38739960PNoyT3UIPrZ8-DhsUDMPQ|52=20231226-07:04:41.892|56=cServer|57=TRADE|10=185|8=FIX.4.4|9=113|35=0|34=30|49=demo.ctrader.3873996|50=38739960PNoyT3UIPrZ8-DhsUDMPQ|52=20231226-07:05:12.887|56=cServer|57=TRADE|10=180|8=FIX.4.4|9=113|35=0|34=31|49=demo.ctrader.3873996|50=38739960PNoyT3UIPrZ8-DhsUDMPQ|52=20231226-07:05:43.893|56=cServer|57=TRADE|10=182|8=FIX.4.4|9=113|35=0|34=32|49=demo.ctrader.3873996|50=38739960PNoyT3UIPrZ8-DhsUDMPQ|52=20231226-07:06:14.146|56=cServer|57=TRADE|10=173|8=FIX.4.4|9=113|35=0|34=33|49=demo.ctrader.3873996|50=38739960PNoyT3UIPrZ8-DhsUDMPQ|52=20231226-07:06:44.910|56=cServer|57=TRADE|10=176|8=FIX.4.4|9=113|35=0|34=34|49=demo.ctrader.3873996|50=38739960PNoyT3UIPrZ8-DhsUDMPQ|52=20231226-07:07:15.903|56=cServer|57=TRADE|10=178|8=FIX.4.4|9=113|35=0|34=35|49=demo.ctrader.3873996|50=38739960PNoyT3UIPrZ8-DhsUDMPQ|52=20231226-07:07:45.908|56=cServer|57=TRADE|10=187|8=FIX.4.4|9=113|35=0|34=36|49=demo.ctrader.3873996|50=38739960PNoyT3UIPrZ8-DhsUDMPQ|52=20231226-07:08:16.868|56=cServer|57=TRADE|10=192|8=FIX.4.4|9=113|35=0|34=37|49=demo.ctrader.3873996|50=38739960PNoyT3UIPrZ8-DhsUDMPQ|52=20231226-07:08:47.041|56=cServer|57=TRADE|10=180|8=FIX.4.4|9=113|35=0|34=38|49=demo.ctrader.3873996|50=38739960PNoyT3UIPrZ8-DhsUDMPQ|52=20231226-07:09:17.916|56=cServer|57=TRADE|10=190|8=FIX.4.4|9=113|35=0|34=39|49=demo.ctrader.3873996|50=38739960PNoyT3UIPrZ8-DhsUDMPQ|52=20231226-07:09:47.972|56=cServer|57=TRADE|10=196|8=FIX.4.4|9=113|35=0|34=40|49=demo.ctrader.3873996|50=38739960PNoyT3UIPrZ8-DhsUDMPQ|52=20231226-07:10:18.972|56=cServer|57=TRADE|10=178|8=FIX.4.4|9=113|35=0|34=41|49=demo.ctrader.3873996|50=38739960PNoyT3UIPrZ8-DhsUDMPQ|52=20231226-07:10:48.976|56=cServer|57=TRADE|10=186|8=FIX.4.4|9=113|35=0|34=42|49=demo.ctrader.3873996|50=38739960PNoyT3UIPrZ8-DhsUDMPQ|52=20231226-07:11:19.934|56=cServer|57=TRADE|10=180|