8=FIX.4.4|9=244|35=A|34=1|49=demo.ctrader.3873996|50=3873996uN6ruXKiW08FV7mFfrHynA|52=20231212-07:19:05.217|56=cServer|57=TRADE|49=demo.ctrader.3873996|50=3873996uN6ruXKiW08FV7mFfrHynA|52=20231212-07:19:05|56=cServer|98=0|108=30|141=Y|553=3873996|554=Gtlfx125|10=078|8=FIX.4.4|9=130|35=x|34=2|49=demo.ctrader.3873996|50=3873996uN6ruXKiW08FV7mFfrHynA|52=20231212-07:19:19.667|56=cServer|57=TRADE|320=symbols|559=0|10=049|8=FIX.4.4|9=127|35=AN|34=3|49=demo.ctrader.3873996|50=3873996uN6ruXKiW08FV7mFfrHynA|52=20231212-07:19:23.347|56=cServer|57=TRADE|710=Positions|10=246|8=FIX.4.4|9=130|35=AF|34=4|49=demo.ctrader.3873996|50=3873996uN6ruXKiW08FV7mFfrHynA|52=20231212-07:19:23.347|56=cServer|57=TRADE|584=Orders|585=7|10=176|8=FIX.4.4|9=112|35=0|34=5|49=demo.ctrader.3873996|50=3873996uN6ruXKiW08FV7mFfrHynA|52=20231212-07:19:53.772|56=cServer|57=TRADE|10=250|8=FIX.4.4|9=112|35=0|34=6|49=demo.ctrader.3873996|50=3873996uN6ruXKiW08FV7mFfrHynA|52=20231212-07:20:24.217|56=cServer|57=TRADE|10=235|8=FIX.4.4|9=112|35=0|34=7|49=demo.ctrader.3873996|50=3873996uN6ruXKiW08FV7mFfrHynA|52=20231212-07:20:54.228|56=cServer|57=TRADE|10=241|8=FIX.4.4|9=112|35=0|34=8|49=demo.ctrader.3873996|50=3873996uN6ruXKiW08FV7mFfrHynA|52=20231212-07:21:25.229|56=cServer|57=TRADE|10=242|8=FIX.4.4|9=112|35=0|34=9|49=demo.ctrader.3873996|50=3873996uN6ruXKiW08FV7mFfrHynA|52=20231212-07:21:55.243|56=cServer|57=TRADE|10=242|