8=FIX.4.4|9=244|35=A|34=1|49=demo.ctrader.3873996|50=3873996Z26fKAX_lXtetMN4Pepo0Q|52=20231219-09:24:39.801|56=cServer|57=QUOTE|49=demo.ctrader.3873996|50=3873996Z26fKAX_lXtetMN4Pepo0Q|52=20231219-09:24:39|56=cServer|98=0|108=30|141=Y|553=3873996|554=Gtlfx125|10=081|8=FIX.4.4|9=112|35=0|34=2|49=demo.ctrader.3873996|50=3873996Z26fKAX_lXtetMN4Pepo0Q|52=20231219-09:25:10.587|56=cServer|57=QUOTE|10=255|8=FIX.4.4|9=112|35=0|34=3|49=demo.ctrader.3873996|50=3873996Z26fKAX_lXtetMN4Pepo0Q|52=20231219-09:25:40.871|56=cServer|57=QUOTE|10=255|8=FIX.4.4|9=112|35=0|34=4|49=demo.ctrader.3873996|50=3873996Z26fKAX_lXtetMN4Pepo0Q|52=20231219-09:26:11.185|56=cServer|57=QUOTE|10=253|8=FIX.4.4|9=112|35=0|34=5|49=demo.ctrader.3873996|50=3873996Z26fKAX_lXtetMN4Pepo0Q|52=20231219-09:26:42.154|56=cServer|57=QUOTE|10=254|8=FIX.4.4|9=112|35=0|34=6|49=demo.ctrader.3873996|50=3873996Z26fKAX_lXtetMN4Pepo0Q|52=20231219-09:27:12.162|56=cServer|57=QUOTE|10=252|8=FIX.4.4|9=112|35=0|34=7|49=demo.ctrader.3873996|50=3873996Z26fKAX_lXtetMN4Pepo0Q|52=20231219-09:27:42.445|56=cServer|57=QUOTE|10=004|8=FIX.4.4|9=112|35=0|34=8|49=demo.ctrader.3873996|50=3873996Z26fKAX_lXtetMN4Pepo0Q|52=20231219-09:28:12.664|56=cServer|57=QUOTE|10=006|8=FIX.4.4|9=112|35=0|34=9|49=demo.ctrader.3873996|50=3873996Z26fKAX_lXtetMN4Pepo0Q|52=20231219-09:28:43.174|56=cServer|57=QUOTE|10=007|8=FIX.4.4|9=113|35=0|34=10|49=demo.ctrader.3873996|50=3873996Z26fKAX_lXtetMN4Pepo0Q|52=20231219-09:29:14.166|56=cServer|57=QUOTE|10=048|8=FIX.4.4|9=113|35=0|34=11|49=demo.ctrader.3873996|50=3873996Z26fKAX_lXtetMN4Pepo0Q|52=20231219-09:29:44.172|56=cServer|57=QUOTE|10=049|8=FIX.4.4|9=113|35=0|34=12|49=demo.ctrader.3873996|50=3873996Z26fKAX_lXtetMN4Pepo0Q|52=20231219-09:30:15.175|56=cServer|57=QUOTE|10=043|8=FIX.4.4|9=113|35=0|34=13|49=demo.ctrader.3873996|50=3873996Z26fKAX_lXtetMN4Pepo0Q|52=20231219-09:30:45.188|56=cServer|57=QUOTE|10=051|8=FIX.4.4|9=113|35=0|34=14|49=demo.ctrader.3873996|50=3873996Z26fKAX_lXtetMN4Pepo0Q|52=20231219-09:31:16.180|56=cServer|57=QUOTE|10=043|8=FIX.4.4|9=113|35=0|34=15|49=demo.ctrader.3873996|50=3873996Z26fKAX_lXtetMN4Pepo0Q|52=20231219-09:31:47.186|56=cServer|57=QUOTE|10=054|8=FIX.4.4|9=113|35=0|34=16|49=demo.ctrader.3873996|50=3873996Z26fKAX_lXtetMN4Pepo0Q|52=20231219-09:32:17.197|56=cServer|57=QUOTE|10=055|8=FIX.4.4|9=113|35=0|34=17|49=demo.ctrader.3873996|50=3873996Z26fKAX_lXtetMN4Pepo0Q|52=20231219-09:32:47.200|56=cServer|57=QUOTE|10=044|8=FIX.4.4|9=113|35=0|34=18|49=demo.ctrader.3873996|50=3873996Z26fKAX_lXtetMN4Pepo0Q|52=20231219-09:33:18.202|56=cServer|57=QUOTE|10=046|8=FIX.4.4|9=113|35=0|34=19|49=demo.ctrader.3873996|50=3873996Z26fKAX_lXtetMN4Pepo0Q|52=20231219-09:33:49.207|56=cServer|57=QUOTE|10=056|8=FIX.4.4|9=113|35=0|34=20|49=demo.ctrader.3873996|50=3873996Z26fKAX_lXtetMN4Pepo0Q|52=20231219-09:34:19.217|56=cServer|57=QUOTE|10=047|8=FIX.4.4|9=113|35=0|34=21|49=demo.ctrader.3873996|50=3873996Z26fKAX_lXtetMN4Pepo0Q|52=20231219-09:34:50.219|56=cServer|57=QUOTE|10=045|