8=FIX.4.4|9=244|35=A|34=1|49=demo.ctrader.3873996|50=3873996HDLZStHLB1gD96W67UR92g|52=20240104-09:51:23.292|56=cServer|57=TRADE|49=demo.ctrader.3873996|50=3873996HDLZStHLB1gD96W67UR92g|52=20240104-09:51:23|56=cServer|98=0|108=30|141=Y|553=3873996|554=Gtlfx125|10=009|8=FIX.4.4|9=130|35=x|34=2|49=demo.ctrader.3873996|50=3873996HDLZStHLB1gD96W67UR92g|52=20240104-09:51:23.979|56=cServer|57=TRADE|320=symbols|559=0|10=014|8=FIX.4.4|9=127|35=AN|34=3|49=demo.ctrader.3873996|50=3873996HDLZStHLB1gD96W67UR92g|52=20240104-09:51:24.262|56=cServer|57=TRADE|710=Positions|10=207|8=FIX.4.4|9=130|35=AF|34=4|49=demo.ctrader.3873996|50=3873996HDLZStHLB1gD96W67UR92g|52=20240104-09:51:24.262|56=cServer|57=TRADE|584=Orders|585=7|10=137|8=FIX.4.4|9=177|35=D|34=5|49=demo.ctrader.3873996|50=3873996HDLZStHLB1gD96W67UR92g|52=20240104-09:51:33.513|56=cServer|57=TRADE|11=68421687|38=1000|40=1|54=1|55=2|59=3|60=20240104-14:51:33.512|10=205|8=FIX.4.4|9=127|35=AN|34=6|49=demo.ctrader.3873996|50=3873996HDLZStHLB1gD96W67UR92g|52=20240104-09:51:33.965|56=cServer|57=TRADE|710=Positions|10=220|8=FIX.4.4|9=112|35=0|34=7|49=demo.ctrader.3873996|50=3873996HDLZStHLB1gD96W67UR92g|52=20240104-09:52:04.150|56=cServer|57=TRADE|10=203|8=FIX.4.4|9=112|35=0|34=8|49=demo.ctrader.3873996|50=3873996HDLZStHLB1gD96W67UR92g|52=20240104-09:52:34.389|56=cServer|57=TRADE|10=221|8=FIX.4.4|9=112|35=0|34=9|49=demo.ctrader.3873996|50=3873996HDLZStHLB1gD96W67UR92g|52=20240104-09:53:04.690|56=cServer|57=TRADE|10=215|8=FIX.4.4|9=113|35=0|34=10|49=demo.ctrader.3873996|50=3873996HDLZStHLB1gD96W67UR92g|52=20240104-09:53:34.956|56=cServer|57=TRADE|10=008|8=FIX.4.4|9=113|35=0|34=11|49=demo.ctrader.3873996|50=3873996HDLZStHLB1gD96W67UR92g|52=20240104-09:54:05.964|56=cServer|57=TRADE|10=007|8=FIX.4.4|9=113|35=0|34=12|49=demo.ctrader.3873996|50=3873996HDLZStHLB1gD96W67UR92g|52=20240104-09:54:36.966|56=cServer|57=TRADE|10=014|8=FIX.4.4|9=113|35=0|34=13|49=demo.ctrader.3873996|50=3873996HDLZStHLB1gD96W67UR92g|52=20240104-09:55:06.973|56=cServer|57=TRADE|10=011|8=FIX.4.4|9=113|35=0|34=14|49=demo.ctrader.3873996|50=3873996HDLZStHLB1gD96W67UR92g|52=20240104-09:55:36.977|56=cServer|57=TRADE|10=019|8=FIX.4.4|9=113|35=0|34=15|49=demo.ctrader.3873996|50=3873996HDLZStHLB1gD96W67UR92g|52=20240104-09:56:07.054|56=cServer|57=TRADE|10=005|8=FIX.4.4|9=113|35=0|34=16|49=demo.ctrader.3873996|50=3873996HDLZStHLB1gD96W67UR92g|52=20240104-09:56:37.972|56=cServer|57=TRADE|10=018|8=FIX.4.4|9=113|35=0|34=17|49=demo.ctrader.3873996|50=3873996HDLZStHLB1gD96W67UR92g|52=20240104-09:57:07.979|56=cServer|57=TRADE|10=024|8=FIX.4.4|9=113|35=0|34=18|49=demo.ctrader.3873996|50=3873996HDLZStHLB1gD96W67UR92g|52=20240104-09:57:37.980|56=cServer|57=TRADE|10=020|8=FIX.4.4|9=113|35=0|34=19|49=demo.ctrader.3873996|50=3873996HDLZStHLB1gD96W67UR92g|52=20240104-09:58:07.987|56=cServer|57=TRADE|10=026|8=FIX.4.4|9=113|35=0|34=20|49=demo.ctrader.3873996|50=3873996HDLZStHLB1gD96W67UR92g|52=20240104-09:58:38.973|56=cServer|57=TRADE|10=017|8=FIX.4.4|9=113|35=0|34=21|49=demo.ctrader.3873996|50=3873996HDLZStHLB1gD96W67UR92g|52=20240104-09:59:08.980|56=cServer|57=TRADE|10=014|8=FIX.4.4|9=113|35=0|34=22|49=demo.ctrader.3873996|50=3873996HDLZStHLB1gD96W67UR92g|52=20240104-09:59:38.988|56=cServer|57=TRADE|10=026|8=FIX.4.4|9=113|35=0|34=23|49=demo.ctrader.3873996|50=3873996HDLZStHLB1gD96W67UR92g|52=20240104-10:00:08.989|56=cServer|57=TRADE|10=003|8=FIX.4.4|9=113|35=0|34=24|49=demo.ctrader.3873996|50=3873996HDLZStHLB1gD96W67UR92g|52=20240104-10:00:39.990|56=cServer|57=TRADE|10=000|8=FIX.4.4|9=113|35=0|34=25|49=demo.ctrader.3873996|50=3873996HDLZStHLB1gD96W67UR92g|52=20240104-10:01:09.995|56=cServer|57=TRADE|10=004|8=FIX.4.4|9=113|35=0|34=26|49=demo.ctrader.3873996|50=3873996HDLZStHLB1gD96W67UR92g|52=20240104-10:01:40.992|56=cServer|57=TRADE|10=253|8=FIX.4.4|9=113|35=0|34=27|49=demo.ctrader.3873996|50=3873996HDLZStHLB1gD96W67UR92g|52=20240104-10:02:11.002|56=cServer|57=TRADE|10=235|8=FIX.4.4|9=113|35=0|34=28|49=demo.ctrader.3873996|50=3873996HDLZStHLB1gD96W67UR92g|52=20240104-10:02:42.006|56=cServer|57=TRADE|10=244|8=FIX.4.4|9=113|35=0|34=29|49=demo.ctrader.3873996|50=3873996HDLZStHLB1gD96W67UR92g|52=20240104-10:03:12.010|56=cServer|57=TRADE|10=238|8=FIX.4.4|9=113|35=0|34=30|49=demo.ctrader.3873996|50=3873996HDLZStHLB1gD96W67UR92g|52=20240104-10:03:42.017|56=cServer|57=TRADE|10=240|8=FIX.4.4|9=113|35=0|34=31|49=demo.ctrader.3873996|50=3873996HDLZStHLB1gD96W67UR92g|52=20240104-10:04:13.018|56=cServer|57=TRADE|10=241|8=FIX.4.4|9=113|35=0|34=32|49=demo.ctrader.3873996|50=3873996HDLZStHLB1gD96W67UR92g|52=20240104-10:04:44.023|56=cServer|57=TRADE|10=242|8=FIX.4.4|9=113|35=0|34=33|49=demo.ctrader.3873996|50=3873996HDLZStHLB1gD96W67UR92g|52=20240104-10:05:15.029|56=cServer|57=TRADE|10=248|8=FIX.4.4|9=113|35=0|34=34|49=demo.ctrader.3873996|50=3873996HDLZStHLB1gD96W67UR92g|52=20240104-10:05:46.039|56=cServer|57=TRADE|10=254|8=FIX.4.4|9=113|35=0|34=35|49=demo.ctrader.3873996|50=3873996HDLZStHLB1gD96W67UR92g|52=20240104-10:06:17.045|56=cServer|57=TRADE|10=251|