8=FIX.4.4|9=244|35=A|34=1|49=demo.ctrader.3873996|50=38739963bkpHl1u5LxUzNNIfIzOhw|52=20240104-09:01:20.609|56=cServer|57=TRADE|49=demo.ctrader.3873996|50=38739963bkpHl1u5LxUzNNIfIzOhw|52=20240104-09:01:20|56=cServer|98=0|108=30|141=Y|553=3873996|554=Gtlfx125|10=233|8=FIX.4.4|9=130|35=x|34=2|49=demo.ctrader.3873996|50=38739963bkpHl1u5LxUzNNIfIzOhw|52=20240104-09:01:21.323|56=cServer|57=TRADE|320=symbols|559=0|10=109|8=FIX.4.4|9=127|35=AN|34=3|49=demo.ctrader.3873996|50=38739963bkpHl1u5LxUzNNIfIzOhw|52=20240104-09:01:21.587|56=cServer|57=TRADE|710=Positions|10=072|8=FIX.4.4|9=130|35=AF|34=4|49=demo.ctrader.3873996|50=38739963bkpHl1u5LxUzNNIfIzOhw|52=20240104-09:01:21.588|56=cServer|57=TRADE|584=Orders|585=7|10=003|8=FIX.4.4|9=177|35=D|34=5|49=demo.ctrader.3873996|50=38739963bkpHl1u5LxUzNNIfIzOhw|52=20240104-09:01:32.452|56=cServer|57=TRADE|11=68421682|38=1000|40=1|54=1|55=2|59=3|60=20240104-14:01:32.451|10=055|8=FIX.4.4|9=127|35=AN|34=6|49=demo.ctrader.3873996|50=38739963bkpHl1u5LxUzNNIfIzOhw|52=20240104-09:01:32.949|56=cServer|57=TRADE|710=Positions|10=079|8=FIX.4.4|9=112|35=0|34=7|49=demo.ctrader.3873996|50=38739963bkpHl1u5LxUzNNIfIzOhw|52=20240104-09:02:03.439|56=cServer|57=TRADE|10=070|8=FIX.4.4|9=112|35=0|34=8|49=demo.ctrader.3873996|50=38739963bkpHl1u5LxUzNNIfIzOhw|52=20240104-09:02:33.660|56=cServer|57=TRADE|10=070|8=FIX.4.4|9=112|35=0|34=9|49=demo.ctrader.3873996|50=38739963bkpHl1u5LxUzNNIfIzOhw|52=20240104-09:03:03.931|56=cServer|57=TRADE|10=070|8=FIX.4.4|9=113|35=0|34=10|49=demo.ctrader.3873996|50=38739963bkpHl1u5LxUzNNIfIzOhw|52=20240104-09:03:33.955|56=cServer|57=TRADE|10=120|