8=FIX.4.4|9=244|35=A|34=1|49=demo.ctrader.3873996|50=3873996Q3LiXPpGyuMSpY-WmdLSZA|52=20231227-11:17:35.504|56=cServer|57=QUOTE|49=demo.ctrader.3873996|50=3873996Q3LiXPpGyuMSpY-WmdLSZA|52=20231227-11:17:35|56=cServer|98=0|108=30|141=Y|553=3873996|554=Gtlfx125|10=121|8=FIX.4.4|9=170|35=V|34=2|49=demo.ctrader.3873996|50=3873996Q3LiXPpGyuMSpY-WmdLSZA|52=20231227-11:17:36.368|56=cServer|57=QUOTE|262=MARKETDATAID|263=1|264=1|267=2|269=0|269=1|146=1|55=1|10=174|8=FIX.4.4|9=170|35=V|34=3|49=demo.ctrader.3873996|50=3873996Q3LiXPpGyuMSpY-WmdLSZA|52=20231227-11:17:36.369|56=cServer|57=QUOTE|262=MARKETDATAID|263=1|264=1|267=2|269=0|269=1|146=1|55=2|10=177|8=FIX.4.4|9=170|35=V|34=4|49=demo.ctrader.3873996|50=3873996Q3LiXPpGyuMSpY-WmdLSZA|52=20231227-11:17:36.369|56=cServer|57=QUOTE|262=MARKETDATAID|263=1|264=1|267=2|269=0|269=1|146=1|55=3|10=179|8=FIX.4.4|9=170|35=V|34=5|49=demo.ctrader.3873996|50=3873996Q3LiXPpGyuMSpY-WmdLSZA|52=20231227-11:17:36.370|56=cServer|57=QUOTE|262=MARKETDATAID|263=1|264=1|267=2|269=0|269=1|146=1|55=4|10=173|8=FIX.4.4|9=170|35=V|34=6|49=demo.ctrader.3873996|50=3873996Q3LiXPpGyuMSpY-WmdLSZA|52=20231227-11:17:36.370|56=cServer|57=QUOTE|262=MARKETDATAID|263=1|264=1|267=2|269=0|269=1|146=1|55=5|10=175|8=FIX.4.4|9=170|35=V|34=7|49=demo.ctrader.3873996|50=3873996Q3LiXPpGyuMSpY-WmdLSZA|52=20231227-11:17:36.370|56=cServer|57=QUOTE|262=MARKETDATAID|263=1|264=1|267=2|269=0|269=1|146=1|55=6|10=177|8=FIX.4.4|9=170|35=V|34=8|49=demo.ctrader.3873996|50=3873996Q3LiXPpGyuMSpY-WmdLSZA|52=20231227-11:17:36.370|56=cServer|57=QUOTE|262=MARKETDATAID|263=1|264=1|267=2|269=0|269=1|146=1|55=7|10=179|8=FIX.4.4|9=170|35=V|34=9|49=demo.ctrader.3873996|50=3873996Q3LiXPpGyuMSpY-WmdLSZA|52=20231227-11:17:36.370|56=cServer|57=QUOTE|262=MARKETDATAID|263=1|264=1|267=2|269=0|269=1|146=1|55=8|10=181|8=FIX.4.4|9=171|35=V|34=10|49=demo.ctrader.3873996|50=3873996Q3LiXPpGyuMSpY-WmdLSZA|52=20231227-11:17:36.370|56=cServer|57=QUOTE|262=MARKETDATAID|263=1|264=1|267=2|269=0|269=1|146=1|55=9|10=223|8=FIX.4.4|9=172|35=V|34=11|49=demo.ctrader.3873996|50=3873996Q3LiXPpGyuMSpY-WmdLSZA|52=20231227-11:17:36.370|56=cServer|57=QUOTE|262=MARKETDATAID|263=1|264=1|267=2|269=0|269=1|146=1|55=10|10=009|8=FIX.4.4|9=172|35=V|34=12|49=demo.ctrader.3873996|50=3873996Q3LiXPpGyuMSpY-WmdLSZA|52=20231227-11:17:36.371|56=cServer|57=QUOTE|262=MARKETDATAID|263=1|264=1|267=2|269=0|269=1|146=1|55=11|10=012|8=FIX.4.4|9=172|35=V|34=13|49=demo.ctrader.3873996|50=3873996Q3LiXPpGyuMSpY-WmdLSZA|52=20231227-11:17:36.371|56=cServer|57=QUOTE|262=MARKETDATAID|263=1|264=1|267=2|269=0|269=1|146=1|55=12|10=014|8=FIX.4.4|9=172|35=V|34=14|49=demo.ctrader.3873996|50=3873996Q3LiXPpGyuMSpY-WmdLSZA|52=20231227-11:17:36.371|56=cServer|57=QUOTE|262=MARKETDATAID|263=1|264=1|267=2|269=0|269=1|146=1|55=13|10=016|8=FIX.4.4|9=172|35=V|34=15|49=demo.ctrader.3873996|50=3873996Q3LiXPpGyuMSpY-WmdLSZA|52=20231227-11:17:36.371|56=cServer|57=QUOTE|262=MARKETDATAID|263=1|264=1|267=2|269=0|269=1|146=1|55=14|10=018|8=FIX.4.4|9=172|35=V|34=16|49=demo.ctrader.3873996|50=3873996Q3LiXPpGyuMSpY-WmdLSZA|52=20231227-11:17:36.372|56=cServer|57=QUOTE|262=MARKETDATAID|263=1|264=1|267=2|269=0|269=1|146=1|55=15|10=021|8=FIX.4.4|9=172|35=V|34=17|49=demo.ctrader.3873996|50=3873996Q3LiXPpGyuMSpY-WmdLSZA|52=20231227-11:17:36.372|56=cServer|57=QUOTE|262=MARKETDATAID|263=1|264=1|267=2|269=0|269=1|146=1|55=16|10=023|8=FIX.4.4|9=172|35=V|34=18|49=demo.ctrader.3873996|50=3873996Q3LiXPpGyuMSpY-WmdLSZA|52=20231227-11:17:36.372|56=cServer|57=QUOTE|262=MARKETDATAID|263=1|264=1|267=2|269=0|269=1|146=1|55=17|10=025|8=FIX.4.4|9=172|35=V|34=19|49=demo.ctrader.3873996|50=3873996Q3LiXPpGyuMSpY-WmdLSZA|52=20231227-11:17:36.372|56=cServer|57=QUOTE|262=MARKETDATAID|263=1|264=1|267=2|269=0|269=1|146=1|55=18|10=027|8=FIX.4.4|9=172|35=V|34=20|49=demo.ctrader.3873996|50=3873996Q3LiXPpGyuMSpY-WmdLSZA|52=20231227-11:17:36.372|56=cServer|57=QUOTE|262=MARKETDATAID|263=1|264=1|267=2|269=0|269=1|146=1|55=19|10=020|8=FIX.4.4|9=172|35=V|34=21|49=demo.ctrader.3873996|50=3873996Q3LiXPpGyuMSpY-WmdLSZA|52=20231227-11:17:36.372|56=cServer|57=QUOTE|262=MARKETDATAID|263=1|264=1|267=2|269=0|269=1|146=1|55=22|10=015|8=FIX.4.4|9=113|35=0|34=22|49=demo.ctrader.3873996|50=3873996Q3LiXPpGyuMSpY-WmdLSZA|52=20231227-11:18:06.670|56=cServer|57=QUOTE|10=072|8=FIX.4.4|9=113|35=0|34=23|49=demo.ctrader.3873996|50=3873996Q3LiXPpGyuMSpY-WmdLSZA|52=20231227-11:18:36.990|56=cServer|57=QUOTE|10=081|8=FIX.4.4|9=113|35=0|34=24|49=demo.ctrader.3873996|50=3873996Q3LiXPpGyuMSpY-WmdLSZA|52=20231227-11:19:07.040|56=cServer|57=QUOTE|10=067|8=FIX.4.4|9=113|35=0|34=25|49=demo.ctrader.3873996|50=3873996Q3LiXPpGyuMSpY-WmdLSZA|52=20231227-11:19:37.070|56=cServer|57=QUOTE|10=074|8=FIX.4.4|9=113|35=0|34=26|49=demo.ctrader.3873996|50=3873996Q3LiXPpGyuMSpY-WmdLSZA|52=20231227-11:20:07.125|56=cServer|57=QUOTE|10=065|8=FIX.4.4|9=113|35=0|34=27|49=demo.ctrader.3873996|50=3873996Q3LiXPpGyuMSpY-WmdLSZA|52=20231227-11:20:37.133|56=cServer|57=QUOTE|10=068|8=FIX.4.4|9=113|35=0|34=28|49=demo.ctrader.3873996|50=3873996Q3LiXPpGyuMSpY-WmdLSZA|52=20231227-11:21:07.170|56=cServer|57=QUOTE|10=068|8=FIX.4.4|9=113|35=0|34=29|49=demo.ctrader.3873996|50=3873996Q3LiXPpGyuMSpY-WmdLSZA|52=20231227-11:21:37.471|56=cServer|57=QUOTE|10=076|8=FIX.4.4|9=113|35=0|34=30|49=demo.ctrader.3873996|50=3873996Q3LiXPpGyuMSpY-WmdLSZA|52=20231227-11:22:07.673|56=cServer|57=QUOTE|10=070|8=FIX.4.4|9=113|35=0|34=31|49=demo.ctrader.3873996|50=3873996Q3LiXPpGyuMSpY-WmdLSZA|52=20231227-11:22:37.771|56=cServer|57=QUOTE|10=073|8=FIX.4.4|9=113|35=0|34=32|49=demo.ctrader.3873996|50=3873996Q3LiXPpGyuMSpY-WmdLSZA|52=20231227-11:23:07.829|56=cServer|57=QUOTE|10=076|8=FIX.4.4|9=113|35=0|34=33|49=demo.ctrader.3873996|50=3873996Q3LiXPpGyuMSpY-WmdLSZA|52=20231227-11:23:38.041|56=cServer|57=QUOTE|10=067|8=FIX.4.4|9=113|35=0|34=34|49=demo.ctrader.3873996|50=3873996Q3LiXPpGyuMSpY-WmdLSZA|52=20231227-11:24:08.389|56=cServer|57=QUOTE|10=081|8=FIX.4.4|9=113|35=0|34=35|49=demo.ctrader.3873996|50=3873996Q3LiXPpGyuMSpY-WmdLSZA|52=20231227-11:24:38.408|56=cServer|57=QUOTE|10=077|8=FIX.4.4|9=113|35=0|34=36|49=demo.ctrader.3873996|50=3873996Q3LiXPpGyuMSpY-WmdLSZA|52=20231227-11:25:08.537|56=cServer|57=QUOTE|10=079|8=FIX.4.4|9=113|35=0|34=37|49=demo.ctrader.3873996|50=3873996Q3LiXPpGyuMSpY-WmdLSZA|52=20231227-11:25:38.577|56=cServer|57=QUOTE|10=087|8=FIX.4.4|9=113|35=0|34=38|49=demo.ctrader.3873996|50=3873996Q3LiXPpGyuMSpY-WmdLSZA|52=20231227-11:26:08.607|56=cServer|57=QUOTE|10=080|