8=FIX.4.4|9=244|35=A|34=1|49=demo.ctrader.3873996|50=38739962p9cU7O3YXoF7yLJI1fm1w|52=20231226-11:57:05.347|56=cServer|57=TRADE|49=demo.ctrader.3873996|50=38739962p9cU7O3YXoF7yLJI1fm1w|52=20231226-11:57:05|56=cServer|98=0|108=30|141=Y|553=3873996|554=Gtlfx125|10=062|8=FIX.4.4|9=112|35=0|34=2|49=demo.ctrader.3873996|50=38739962p9cU7O3YXoF7yLJI1fm1w|52=20231226-11:57:35.537|56=cServer|57=TRADE|10=108|8=FIX.4.4|9=121|35=1|34=3|49=demo.ctrader.3873996|50=38739962p9cU7O3YXoF7yLJI1fm1w|52=20231226-11:57:48.619|56=cServer|57=TRADE|112=TEST|10=133|8=FIX.4.4|9=112|35=0|34=4|49=demo.ctrader.3873996|50=38739962p9cU7O3YXoF7yLJI1fm1w|52=20231226-11:58:18.982|56=cServer|57=TRADE|10=116|8=FIX.4.4|9=112|35=0|34=5|49=demo.ctrader.3873996|50=38739962p9cU7O3YXoF7yLJI1fm1w|52=20231226-11:58:49.641|56=cServer|57=TRADE|10=113|8=FIX.4.4|9=112|35=0|34=6|49=demo.ctrader.3873996|50=38739962p9cU7O3YXoF7yLJI1fm1w|52=20231226-11:59:19.768|56=cServer|57=TRADE|10=122|8=FIX.4.4|9=112|35=0|34=7|49=demo.ctrader.3873996|50=38739962p9cU7O3YXoF7yLJI1fm1w|52=20231226-11:59:49.799|56=cServer|57=TRADE|10=130|8=FIX.4.4|9=112|35=0|34=8|49=demo.ctrader.3873996|50=38739962p9cU7O3YXoF7yLJI1fm1w|52=20231226-12:00:20.764|56=cServer|57=TRADE|10=099|8=FIX.4.4|9=112|35=0|34=9|49=demo.ctrader.3873996|50=38739962p9cU7O3YXoF7yLJI1fm1w|52=20231226-12:00:50.765|56=cServer|57=TRADE|10=104|8=FIX.4.4|9=113|35=0|34=10|49=demo.ctrader.3873996|50=38739962p9cU7O3YXoF7yLJI1fm1w|52=20231226-12:01:20.844|56=cServer|57=TRADE|10=141|8=FIX.4.4|9=113|35=0|34=11|49=demo.ctrader.3873996|50=38739962p9cU7O3YXoF7yLJI1fm1w|52=20231226-12:01:51.780|56=cServer|57=TRADE|10=145|8=FIX.4.4|9=113|35=0|34=12|49=demo.ctrader.3873996|50=38739962p9cU7O3YXoF7yLJI1fm1w|52=20231226-12:02:22.767|56=cServer|57=TRADE|10=150|8=FIX.4.4|9=113|35=0|34=13|49=demo.ctrader.3873996|50=38739962p9cU7O3YXoF7yLJI1fm1w|52=20231226-12:02:52.804|56=cServer|57=TRADE|10=146|8=FIX.4.4|9=113|35=0|34=14|49=demo.ctrader.3873996|50=38739962p9cU7O3YXoF7yLJI1fm1w|52=20231226-12:03:23.789|56=cServer|57=TRADE|10=158|8=FIX.4.4|9=113|35=0|34=15|49=demo.ctrader.3873996|50=38739962p9cU7O3YXoF7yLJI1fm1w|52=20231226-12:03:54.794|56=cServer|57=TRADE|10=159|8=FIX.4.4|9=113|35=0|34=16|49=demo.ctrader.3873996|50=38739962p9cU7O3YXoF7yLJI1fm1w|52=20231226-12:04:24.801|56=cServer|57=TRADE|10=147|8=FIX.4.4|9=113|35=0|34=17|49=demo.ctrader.3873996|50=38739962p9cU7O3YXoF7yLJI1fm1w|52=20231226-12:04:55.806|56=cServer|57=TRADE|10=157|8=FIX.4.4|9=113|35=0|34=18|49=demo.ctrader.3873996|50=38739962p9cU7O3YXoF7yLJI1fm1w|52=20231226-12:05:26.809|56=cServer|57=TRADE|10=160|8=FIX.4.4|9=113|35=0|34=19|49=demo.ctrader.3873996|50=38739962p9cU7O3YXoF7yLJI1fm1w|52=20231226-12:05:57.789|56=cServer|57=TRADE|10=172|8=FIX.4.4|9=113|35=0|34=20|49=demo.ctrader.3873996|50=38739962p9cU7O3YXoF7yLJI1fm1w|52=20231226-12:06:27.823|56=cServer|57=TRADE|10=151|8=FIX.4.4|9=113|35=0|34=21|49=demo.ctrader.3873996|50=38739962p9cU7O3YXoF7yLJI1fm1w|52=20231226-12:06:57.859|56=cServer|57=TRADE|10=164|8=FIX.4.4|9=113|35=0|34=22|49=demo.ctrader.3873996|50=38739962p9cU7O3YXoF7yLJI1fm1w|52=20231226-12:07:27.871|56=cServer|57=TRADE|10=157|8=FIX.4.4|9=113|35=0|34=23|49=demo.ctrader.3873996|50=38739962p9cU7O3YXoF7yLJI1fm1w|52=20231226-12:07:57.906|56=cServer|57=TRADE|10=160|8=FIX.4.4|9=113|35=0|34=24|49=demo.ctrader.3873996|50=38739962p9cU7O3YXoF7yLJI1fm1w|52=20231226-12:08:27.915|56=cServer|57=TRADE|10=159|8=FIX.4.4|9=113|35=0|34=25|49=demo.ctrader.3873996|50=38739962p9cU7O3YXoF7yLJI1fm1w|52=20231226-12:08:58.842|56=cServer|57=TRADE|10=163|8=FIX.4.4|9=113|35=0|34=26|49=demo.ctrader.3873996|50=38739962p9cU7O3YXoF7yLJI1fm1w|52=20231226-12:09:29.847|56=cServer|57=TRADE|10=168|8=FIX.4.4|9=113|35=0|34=27|49=demo.ctrader.3873996|50=38739962p9cU7O3YXoF7yLJI1fm1w|52=20231226-12:10:00.842|56=cServer|57=TRADE|10=145|8=FIX.4.4|9=113|35=0|34=28|49=demo.ctrader.3873996|50=38739962p9cU7O3YXoF7yLJI1fm1w|52=20231226-12:10:30.884|56=cServer|57=TRADE|10=155|8=FIX.4.4|9=113|35=0|34=29|49=demo.ctrader.3873996|50=38739962p9cU7O3YXoF7yLJI1fm1w|52=20231226-12:11:01.844|56=cServer|57=TRADE|10=151|8=FIX.4.4|9=113|35=0|34=30|49=demo.ctrader.3873996|50=38739962p9cU7O3YXoF7yLJI1fm1w|52=20231226-12:11:31.880|56=cServer|57=TRADE|10=146|8=FIX.4.4|9=113|35=0|34=31|49=demo.ctrader.3873996|50=38739962p9cU7O3YXoF7yLJI1fm1w|52=20231226-12:12:02.887|56=cServer|57=TRADE|10=153|8=FIX.4.4|9=113|35=0|34=32|49=demo.ctrader.3873996|50=38739962p9cU7O3YXoF7yLJI1fm1w|52=20231226-12:12:33.869|56=cServer|57=TRADE|10=158|8=FIX.4.4|9=113|35=0|34=33|49=demo.ctrader.3873996|50=38739962p9cU7O3YXoF7yLJI1fm1w|52=20231226-12:13:03.877|56=cServer|57=TRADE|10=156|8=FIX.4.4|9=113|35=0|34=34|49=demo.ctrader.3873996|50=38739962p9cU7O3YXoF7yLJI1fm1w|52=20231226-12:13:33.885|56=cServer|57=TRADE|10=159|8=FIX.4.4|9=113|35=0|34=35|49=demo.ctrader.3873996|50=38739962p9cU7O3YXoF7yLJI1fm1w|52=20231226-12:14:04.894|56=cServer|57=TRADE|10=159|8=FIX.4.4|9=113|35=0|34=36|49=demo.ctrader.3873996|50=38739962p9cU7O3YXoF7yLJI1fm1w|52=20231226-12:14:34.907|56=cServer|57=TRADE|10=158|8=FIX.4.4|9=113|35=0|34=37|49=demo.ctrader.3873996|50=38739962p9cU7O3YXoF7yLJI1fm1w|52=20231226-12:15:05.894|56=cServer|57=TRADE|10=163|8=FIX.4.4|9=113|35=0|34=38|49=demo.ctrader.3873996|50=38739962p9cU7O3YXoF7yLJI1fm1w|52=20231226-12:15:35.928|56=cServer|57=TRADE|10=165|8=FIX.4.4|9=113|35=0|34=39|49=demo.ctrader.3873996|50=38739962p9cU7O3YXoF7yLJI1fm1w|52=20231226-12:16:06.900|56=cServer|57=TRADE|10=155|8=FIX.4.4|9=113|35=0|34=40|49=demo.ctrader.3873996|50=38739962p9cU7O3YXoF7yLJI1fm1w|52=20231226-12:16:36.905|56=cServer|57=TRADE|10=155|8=FIX.4.4|9=113|35=0|34=41|49=demo.ctrader.3873996|50=38739962p9cU7O3YXoF7yLJI1fm1w|52=20231226-12:17:06.907|56=cServer|57=TRADE|10=156|8=FIX.4.4|9=113|35=0|34=42|49=demo.ctrader.3873996|50=38739962p9cU7O3YXoF7yLJI1fm1w|52=20231226-12:17:36.931|56=cServer|57=TRADE|10=157|8=FIX.4.4|9=113|35=0|34=43|49=demo.ctrader.3873996|50=38739962p9cU7O3YXoF7yLJI1fm1w|52=20231226-12:18:07.929|56=cServer|57=TRADE|10=164|8=FIX.4.4|9=113|35=0|34=44|49=demo.ctrader.3873996|50=38739962p9cU7O3YXoF7yLJI1fm1w|52=20231226-12:18:37.936|56=cServer|57=TRADE|10=166|8=FIX.4.4|9=113|35=0|34=45|49=demo.ctrader.3873996|50=38739962p9cU7O3YXoF7yLJI1fm1w|52=20231226-12:19:08.921|56=cServer|57=TRADE|10=160|8=FIX.4.4|9=113|35=0|34=46|49=demo.ctrader.3873996|50=38739962p9cU7O3YXoF7yLJI1fm1w|52=20231226-12:19:38.936|56=cServer|57=TRADE|10=170|8=FIX.4.4|9=113|35=0|34=47|49=demo.ctrader.3873996|50=38739962p9cU7O3YXoF7yLJI1fm1w|52=20231226-12:20:09.936|56=cServer|57=TRADE|10=161|8=FIX.4.4|9=113|35=0|34=48|49=demo.ctrader.3873996|50=38739962p9cU7O3YXoF7yLJI1fm1w|52=20231226-12:20:39.959|56=cServer|57=TRADE|10=170|8=FIX.4.4|9=113|35=0|34=49|49=demo.ctrader.3873996|50=38739962p9cU7O3YXoF7yLJI1fm1w|52=20231226-12:21:10.940|56=cServer|57=TRADE|10=151|8=FIX.4.4|9=113|35=0|34=50|49=demo.ctrader.3873996|50=38739962p9cU7O3YXoF7yLJI1fm1w|52=20231226-12:21:40.964|56=cServer|57=TRADE|10=152|8=FIX.4.4|9=113|35=0|34=51|49=demo.ctrader.3873996|50=38739962p9cU7O3YXoF7yLJI1fm1w|52=20231226-12:22:11.959|56=cServer|57=TRADE|10=156|8=FIX.4.4|9=113|35=0|34=52|49=demo.ctrader.3873996|50=38739962p9cU7O3YXoF7yLJI1fm1w|52=20231226-12:22:41.973|56=cServer|57=TRADE|10=156|8=FIX.4.4|9=113|35=0|34=53|49=demo.ctrader.3873996|50=38739962p9cU7O3YXoF7yLJI1fm1w|52=20231226-12:23:12.959|56=cServer|57=TRADE|10=160|8=FIX.4.4|9=113|35=0|34=54|49=demo.ctrader.3873996|50=38739962p9cU7O3YXoF7yLJI1fm1w|52=20231226-12:23:42.990|56=cServer|57=TRADE|10=159|8=FIX.4.4|9=113|35=0|34=55|49=demo.ctrader.3873996|50=38739962p9cU7O3YXoF7yLJI1fm1w|52=20231226-12:24:13.966|56=cServer|57=TRADE|10=162|8=FIX.4.4|9=113|35=0|34=56|49=demo.ctrader.3873996|50=38739962p9cU7O3YXoF7yLJI1fm1w|52=20231226-12:24:43.978|56=cServer|57=TRADE|10=169|8=FIX.4.4|9=113|35=0|34=57|49=demo.ctrader.3873996|50=38739962p9cU7O3YXoF7yLJI1fm1w|52=20231226-12:25:14.986|56=cServer|57=TRADE|10=168|8=FIX.4.4|9=113|35=0|34=58|49=demo.ctrader.3873996|50=38739962p9cU7O3YXoF7yLJI1fm1w|52=20231226-12:25:45.980|56=cServer|57=TRADE|10=167|8=FIX.4.4|9=113|35=0|34=59|49=demo.ctrader.3873996|50=38739962p9cU7O3YXoF7yLJI1fm1w|52=20231226-12:26:16.903|56=cServer|57=TRADE|10=162|8=FIX.4.4|9=113|35=0|34=60|49=demo.ctrader.3873996|50=38739962p9cU7O3YXoF7yLJI1fm1w|52=20231226-12:26:46.975|56=cServer|57=TRADE|10=166|8=FIX.4.4|9=113|35=0|34=61|49=demo.ctrader.3873996|50=38739962p9cU7O3YXoF7yLJI1fm1w|52=20231226-12:27:17.948|56=cServer|57=TRADE|10=166|8=FIX.4.4|9=113|35=0|34=62|49=demo.ctrader.3873996|50=38739962p9cU7O3YXoF7yLJI1fm1w|52=20231226-12:27:48.036|56=cServer|57=TRADE|10=159|8=FIX.4.4|9=113|35=0|34=63|49=demo.ctrader.3873996|50=38739962p9cU7O3YXoF7yLJI1fm1w|52=20231226-12:28:18.746|56=cServer|57=TRADE|10=166|8=FIX.4.4|9=113|35=0|34=64|49=demo.ctrader.3873996|50=38739962p9cU7O3YXoF7yLJI1fm1w|52=20231226-12:28:48.772|56=cServer|57=TRADE|10=169|8=FIX.4.4|9=113|35=0|34=65|49=demo.ctrader.3873996|50=38739962p9cU7O3YXoF7yLJI1fm1w|52=20231226-12:29:19.755|56=cServer|57=TRADE|10=170|8=FIX.4.4|9=113|35=0|34=66|49=demo.ctrader.3873996|50=38739962p9cU7O3YXoF7yLJI1fm1w|52=20231226-12:29:49.760|56=cServer|57=TRADE|10=170|8=FIX.4.4|9=113|35=0|34=67|49=demo.ctrader.3873996|50=38739962p9cU7O3YXoF7yLJI1fm1w|52=20231226-12:30:20.771|56=cServer|57=TRADE|10=154|8=FIX.4.4|9=113|35=0|34=68|49=demo.ctrader.3873996|50=38739962p9cU7O3YXoF7yLJI1fm1w|52=20231226-12:30:51.774|56=cServer|57=TRADE|10=162|8=FIX.4.4|9=113|35=0|34=69|49=demo.ctrader.3873996|50=38739962p9cU7O3YXoF7yLJI1fm1w|52=20231226-12:31:21.774|56=cServer|57=TRADE|10=161|8=FIX.4.4|9=113|35=0|34=70|49=demo.ctrader.3873996|50=38739962p9cU7O3YXoF7yLJI1fm1w|52=20231226-12:31:51.793|56=cServer|57=TRADE|10=157|8=FIX.4.4|9=113|35=0|34=71|49=demo.ctrader.3873996|50=38739962p9cU7O3YXoF7yLJI1fm1w|52=20231226-12:32:22.782|56=cServer|57=TRADE|10=155|8=FIX.4.4|9=113|35=0|34=72|49=demo.ctrader.3873996|50=38739962p9cU7O3YXoF7yLJI1fm1w|52=20231226-12:32:52.788|56=cServer|57=TRADE|10=165|8=FIX.4.4|9=113|35=0|34=73|49=demo.ctrader.3873996|50=38739962p9cU7O3YXoF7yLJI1fm1w|52=20231226-12:33:23.790|56=cServer|57=TRADE|10=158|8=FIX.4.4|9=113|35=0|34=74|49=demo.ctrader.3873996|50=38739962p9cU7O3YXoF7yLJI1fm1w|52=20231226-12:33:54.798|56=cServer|57=TRADE|10=171|8=FIX.4.4|9=113|35=0|34=75|49=demo.ctrader.3873996|50=38739962p9cU7O3YXoF7yLJI1fm1w|52=20231226-12:34:25.807|56=cServer|57=TRADE|10=162|8=FIX.4.4|9=113|35=0|34=76|49=demo.ctrader.3873996|50=38739962p9cU7O3YXoF7yLJI1fm1w|52=20231226-12:34:56.817|56=cServer|57=TRADE|10=168|8=FIX.4.4|9=113|35=0|34=77|49=demo.ctrader.3873996|50=38739962p9cU7O3YXoF7yLJI1fm1w|52=20231226-12:35:27.827|56=cServer|57=TRADE|10=169|8=FIX.4.4|9=113|35=0|34=78|49=demo.ctrader.3873996|50=38739962p9cU7O3YXoF7yLJI1fm1w|52=20231226-12:35:58.832|56=cServer|57=TRADE|10=170|8=FIX.4.4|9=113|35=0|34=79|49=demo.ctrader.3873996|50=38739962p9cU7O3YXoF7yLJI1fm1w|52=20231226-12:36:29.827|56=cServer|57=TRADE|10=174|8=FIX.4.4|9=113|35=0|34=80|49=demo.ctrader.3873996|50=38739962p9cU7O3YXoF7yLJI1fm1w|52=20231226-12:36:59.833|56=cServer|57=TRADE|10=166|8=FIX.4.4|9=113|35=0|34=81|49=demo.ctrader.3873996|50=38739962p9cU7O3YXoF7yLJI1fm1w|52=20231226-12:37:30.839|56=cServer|57=TRADE|10=163|8=FIX.4.4|9=113|35=0|34=82|49=demo.ctrader.3873996|50=38739962p9cU7O3YXoF7yLJI1fm1w|52=20231226-12:38:00.843|56=cServer|57=TRADE|10=157|8=FIX.4.4|9=113|35=0|34=83|49=demo.ctrader.3873996|50=38739962p9cU7O3YXoF7yLJI1fm1w|52=20231226-12:38:30.853|56=cServer|57=TRADE|10=162|8=FIX.4.4|9=113|35=0|34=84|49=demo.ctrader.3873996|50=38739962p9cU7O3YXoF7yLJI1fm1w|52=20231226-12:39:01.851|56=cServer|57=TRADE|10=160|8=FIX.4.4|9=113|35=0|34=85|49=demo.ctrader.3873996|50=38739962p9cU7O3YXoF7yLJI1fm1w|52=20231226-12:39:31.873|56=cServer|57=TRADE|10=168|8=FIX.4.4|9=113|35=0|34=86|49=demo.ctrader.3873996|50=38739962p9cU7O3YXoF7yLJI1fm1w|52=20231226-12:40:02.857|56=cServer|57=TRADE|10=161|8=FIX.4.4|9=113|35=0|34=87|49=demo.ctrader.3873996|50=38739962p9cU7O3YXoF7yLJI1fm1w|52=20231226-12:40:32.906|56=cServer|57=TRADE|10=160|8=FIX.4.4|9=113|35=0|34=88|49=demo.ctrader.3873996|50=38739962p9cU7O3YXoF7yLJI1fm1w|52=20231226-12:41:03.873|56=cServer|57=TRADE|10=163|8=FIX.4.4|9=113|35=0|34=89|49=demo.ctrader.3873996|50=38739962p9cU7O3YXoF7yLJI1fm1w|52=20231226-12:41:33.903|56=cServer|57=TRADE|10=161|8=FIX.4.4|9=113|35=0|34=90|49=demo.ctrader.3873996|50=38739962p9cU7O3YXoF7yLJI1fm1w|52=20231226-12:42:04.861|56=cServer|57=TRADE|10=155|8=FIX.4.4|9=113|35=0|34=91|49=demo.ctrader.3873996|50=38739962p9cU7O3YXoF7yLJI1fm1w|52=20231226-12:42:34.889|56=cServer|57=TRADE|10=169|8=FIX.4.4|9=113|35=0|34=92|49=demo.ctrader.3873996|50=38739962p9cU7O3YXoF7yLJI1fm1w|52=20231226-12:43:04.891|56=cServer|57=TRADE|10=161|8=FIX.4.4|9=113|35=0|34=93|49=demo.ctrader.3873996|50=38739962p9cU7O3YXoF7yLJI1fm1w|52=20231226-12:43:35.875|56=cServer|57=TRADE|10=168|8=FIX.4.4|9=113|35=0|34=94|49=demo.ctrader.3873996|50=38739962p9cU7O3YXoF7yLJI1fm1w|52=20231226-12:44:05.899|56=cServer|57=TRADE|10=173|8=FIX.4.4|9=113|35=0|34=95|49=demo.ctrader.3873996|50=38739962p9cU7O3YXoF7yLJI1fm1w|52=20231226-12:44:36.891|56=cServer|57=TRADE|10=170|8=FIX.4.4|9=113|35=0|34=96|49=demo.ctrader.3873996|50=38739962p9cU7O3YXoF7yLJI1fm1w|52=20231226-12:45:06.921|56=cServer|57=TRADE|10=163|8=FIX.4.4|9=113|35=0|34=97|49=demo.ctrader.3873996|50=38739962p9cU7O3YXoF7yLJI1fm1w|52=20231226-12:45:37.910|56=cServer|57=TRADE|10=166|8=FIX.4.4|9=113|35=0|34=98|49=demo.ctrader.3873996|50=38739962p9cU7O3YXoF7yLJI1fm1w|52=20231226-12:46:08.908|56=cServer|57=TRADE|10=173|8=FIX.4.4|9=113|35=0|34=99|49=demo.ctrader.3873996|50=38739962p9cU7O3YXoF7yLJI1fm1w|52=20231226-12:46:39.876|56=cServer|57=TRADE|10=182|8=FIX.4.4|9=114|35=0|34=100|49=demo.ctrader.3873996|50=38739962p9cU7O3YXoF7yLJI1fm1w|52=20231226-12:47:09.949|56=cServer|57=TRADE|10=213|8=FIX.4.4|9=114|35=0|34=101|49=demo.ctrader.3873996|50=38739962p9cU7O3YXoF7yLJI1fm1w|52=20231226-12:47:40.933|56=cServer|57=TRADE|10=202|8=FIX.4.4|9=114|35=0|34=102|49=demo.ctrader.3873996|50=38739962p9cU7O3YXoF7yLJI1fm1w|52=20231226-12:48:11.924|56=cServer|57=TRADE|10=202|8=FIX.4.4|9=114|35=0|34=103|49=demo.ctrader.3873996|50=38739962p9cU7O3YXoF7yLJI1fm1w|52=20231226-12:48:42.924|56=cServer|57=TRADE|10=207|8=FIX.4.4|9=114|35=0|34=104|49=demo.ctrader.3873996|50=38739962p9cU7O3YXoF7yLJI1fm1w|52=20231226-12:49:12.938|56=cServer|57=TRADE|10=211|8=FIX.4.4|9=114|35=0|34=105|49=demo.ctrader.3873996|50=38739962p9cU7O3YXoF7yLJI1fm1w|52=20231226-12:49:42.965|56=cServer|57=TRADE|10=215|8=FIX.4.4|9=114|35=0|34=106|49=demo.ctrader.3873996|50=38739962p9cU7O3YXoF7yLJI1fm1w|52=20231226-12:50:13.925|56=cServer|57=TRADE|10=202|8=FIX.4.4|9=114|35=0|34=107|49=demo.ctrader.3873996|50=38739962p9cU7O3YXoF7yLJI1fm1w|52=20231226-12:50:43.988|56=cServer|57=TRADE|10=215|8=FIX.4.4|9=114|35=0|34=108|49=demo.ctrader.3873996|50=38739962p9cU7O3YXoF7yLJI1fm1w|52=20231226-12:51:14.013|56=cServer|57=TRADE|10=194|8=FIX.4.4|9=114|35=0|34=109|49=demo.ctrader.3873996|50=38739962p9cU7O3YXoF7yLJI1fm1w|52=20231226-12:51:44.976|56=cServer|57=TRADE|10=216|8=FIX.4.4|9=114|35=0|34=110|49=demo.ctrader.3873996|50=38739962p9cU7O3YXoF7yLJI1fm1w|52=20231226-12:52:15.953|56=cServer|57=TRADE|10=202|8=FIX.4.4|9=114|35=0|34=111|49=demo.ctrader.3873996|50=38739962p9cU7O3YXoF7yLJI1fm1w|52=20231226-12:52:45.979|56=cServer|57=TRADE|10=214|8=FIX.4.4|9=114|35=0|34=112|49=demo.ctrader.3873996|50=38739962p9cU7O3YXoF7yLJI1fm1w|52=20231226-12:53:16.956|56=cServer|57=TRADE|10=209|8=FIX.4.4|9=114|35=0|34=113|49=demo.ctrader.3873996|50=38739962p9cU7O3YXoF7yLJI1fm1w|52=20231226-12:53:47.951|56=cServer|57=TRADE|10=209|8=FIX.4.4|9=114|35=0|34=114|49=demo.ctrader.3873996|50=38739962p9cU7O3YXoF7yLJI1fm1w|52=20231226-12:54:18.010|56=cServer|57=TRADE|10=195|8=FIX.4.4|9=114|35=0|34=115|49=demo.ctrader.3873996|50=38739962p9cU7O3YXoF7yLJI1fm1w|52=20231226-12:54:48.745|56=cServer|57=TRADE|10=214|8=FIX.4.4|9=114|35=0|34=116|49=demo.ctrader.3873996|50=38739962p9cU7O3YXoF7yLJI1fm1w|52=20231226-12:55:18.748|56=cServer|57=TRADE|10=216|8=FIX.4.4|9=114|35=0|34=117|49=demo.ctrader.3873996|50=38739962p9cU7O3YXoF7yLJI1fm1w|52=20231226-12:55:49.761|56=cServer|57=TRADE|10=216|8=FIX.4.4|9=114|35=0|34=118|49=demo.ctrader.3873996|50=38739962p9cU7O3YXoF7yLJI1fm1w|52=20231226-12:56:20.758|56=cServer|57=TRADE|10=213|8=FIX.4.4|9=114|35=0|34=119|49=demo.ctrader.3873996|50=38739962p9cU7O3YXoF7yLJI1fm1w|52=20231226-12:56:50.774|56=cServer|57=TRADE|10=215|8=FIX.4.4|9=114|35=0|34=120|49=demo.ctrader.3873996|50=38739962p9cU7O3YXoF7yLJI1fm1w|52=20231226-12:57:21.773|56=cServer|57=TRADE|10=205|8=FIX.4.4|9=114|35=0|34=121|49=demo.ctrader.3873996|50=38739962p9cU7O3YXoF7yLJI1fm1w|52=20231226-12:57:52.784|56=cServer|57=TRADE|10=212|8=FIX.4.4|9=114|35=0|34=122|49=demo.ctrader.3873996|50=38739962p9cU7O3YXoF7yLJI1fm1w|52=20231226-12:58:23.784|56=cServer|57=TRADE|10=212|8=FIX.4.4|9=114|35=0|34=123|49=demo.ctrader.3873996|50=38739962p9cU7O3YXoF7yLJI1fm1w|52=20231226-12:58:53.793|56=cServer|57=TRADE|10=216|8=FIX.4.4|9=114|35=0|34=124|49=demo.ctrader.3873996|50=38739962p9cU7O3YXoF7yLJI1fm1w|52=20231226-12:59:23.805|56=cServer|57=TRADE|10=209|8=FIX.4.4|9=114|35=0|34=125|49=demo.ctrader.3873996|50=38739962p9cU7O3YXoF7yLJI1fm1w|52=20231226-12:59:54.804|56=cServer|57=TRADE|10=213|8=FIX.4.4|9=114|35=0|34=126|49=demo.ctrader.3873996|50=38739962p9cU7O3YXoF7yLJI1fm1w|52=20231226-13:00:25.799|56=cServer|57=TRADE|10=212|8=FIX.4.4|9=114|35=0|34=127|49=demo.ctrader.3873996|50=38739962p9cU7O3YXoF7yLJI1fm1w|52=20231226-13:00:55.815|56=cServer|57=TRADE|10=205|8=FIX.4.4|9=114|35=0|34=128|49=demo.ctrader.3873996|50=38739962p9cU7O3YXoF7yLJI1fm1w|52=20231226-13:01:26.818|56=cServer|57=TRADE|10=208|8=FIX.4.4|9=114|35=0|34=129|49=demo.ctrader.3873996|50=38739962p9cU7O3YXoF7yLJI1fm1w|52=20231226-13:01:56.841|56=cServer|57=TRADE|10=208|8=FIX.4.4|9=114|35=0|34=130|49=demo.ctrader.3873996|50=38739962p9cU7O3YXoF7yLJI1fm1w|52=20231226-13:02:27.801|56=cServer|57=TRADE|10=195|8=FIX.4.4|9=114|35=0|34=131|49=demo.ctrader.3873996|50=38739962p9cU7O3YXoF7yLJI1fm1w|52=20231226-13:02:57.825|56=cServer|57=TRADE|10=205|8=FIX.4.4|9=114|35=0|34=132|49=demo.ctrader.3873996|50=38739962p9cU7O3YXoF7yLJI1fm1w|52=20231226-13:03:28.821|56=cServer|57=TRADE|10=201|8=FIX.4.4|9=114|35=0|34=133|49=demo.ctrader.3873996|50=38739962p9cU7O3YXoF7yLJI1fm1w|52=20231226-13:03:58.827|56=cServer|57=TRADE|10=211|8=FIX.4.4|9=114|35=0|34=134|49=demo.ctrader.3873996|50=38739962p9cU7O3YXoF7yLJI1fm1w|52=20231226-13:04:28.839|56=cServer|57=TRADE|10=213|8=FIX.4.4|9=114|35=0|34=135|49=demo.ctrader.3873996|50=38739962p9cU7O3YXoF7yLJI1fm1w|52=20231226-13:04:59.840|56=cServer|57=TRADE|10=210|8=FIX.4.4|9=114|35=0|34=136|49=demo.ctrader.3873996|50=38739962p9cU7O3YXoF7yLJI1fm1w|52=20231226-13:05:30.825|56=cServer|57=TRADE|10=204|8=FIX.4.4|9=114|35=0|34=137|49=demo.ctrader.3873996|50=38739962p9cU7O3YXoF7yLJI1fm1w|52=20231226-13:06:00.843|56=cServer|57=TRADE|10=203|8=FIX.4.4|9=114|35=0|34=138|49=demo.ctrader.3873996|50=38739962p9cU7O3YXoF7yLJI1fm1w|52=20231226-13:06:31.839|56=cServer|57=TRADE|10=213|8=FIX.4.4|9=114|35=0|34=139|49=demo.ctrader.3873996|50=38739962p9cU7O3YXoF7yLJI1fm1w|52=20231226-13:07:02.117|56=cServer|57=TRADE|10=202|8=FIX.4.4|9=114|35=0|34=140|49=demo.ctrader.3873996|50=38739962p9cU7O3YXoF7yLJI1fm1w|52=20231226-13:07:32.834|56=cServer|57=TRADE|10=203|8=FIX.4.4|9=114|35=0|34=141|49=demo.ctrader.3873996|50=38739962p9cU7O3YXoF7yLJI1fm1w|52=20231226-13:08:02.889|56=cServer|57=TRADE|10=212|8=FIX.4.4|9=114|35=0|34=142|49=demo.ctrader.3873996|50=38739962p9cU7O3YXoF7yLJI1fm1w|52=20231226-13:08:33.875|56=cServer|57=TRADE|10=212|8=FIX.4.4|9=114|35=0|34=143|49=demo.ctrader.3873996|50=38739962p9cU7O3YXoF7yLJI1fm1w|52=20231226-13:09:04.882|56=cServer|57=TRADE|10=210|8=FIX.4.4|9=114|35=0|34=144|49=demo.ctrader.3873996|50=38739962p9cU7O3YXoF7yLJI1fm1w|52=20231226-13:09:34.884|56=cServer|57=TRADE|10=216|8=FIX.4.4|9=114|35=0|34=145|49=demo.ctrader.3873996|50=38739962p9cU7O3YXoF7yLJI1fm1w|52=20231226-13:10:05.859|56=cServer|57=TRADE|10=209|8=FIX.4.4|9=114|35=0|34=146|49=demo.ctrader.3873996|50=38739962p9cU7O3YXoF7yLJI1fm1w|52=20231226-13:10:35.873|56=cServer|57=TRADE|10=209|8=FIX.4.4|9=114|35=0|34=147|49=demo.ctrader.3873996|50=38739962p9cU7O3YXoF7yLJI1fm1w|52=20231226-13:11:06.855|56=cServer|57=TRADE|10=209|8=FIX.4.4|9=114|35=0|34=148|49=demo.ctrader.3873996|50=38739962p9cU7O3YXoF7yLJI1fm1w|52=20231226-13:11:36.856|56=cServer|57=TRADE|10=214|8=FIX.4.4|9=114|35=0|34=149|49=demo.ctrader.3873996|50=38739962p9cU7O3YXoF7yLJI1fm1w|52=20231226-13:12:06.865|56=cServer|57=TRADE|10=213|8=FIX.4.4|9=114|35=0|34=150|49=demo.ctrader.3873996|50=38739962p9cU7O3YXoF7yLJI1fm1w|52=20231226-13:12:36.888|56=cServer|57=TRADE|10=213|8=FIX.4.4|9=114|35=0|34=151|49=demo.ctrader.3873996|50=38739962p9cU7O3YXoF7yLJI1fm1w|52=20231226-13:13:07.876|56=cServer|57=TRADE|10=210|8=FIX.4.4|9=114|35=0|34=152|49=demo.ctrader.3873996|50=38739962p9cU7O3YXoF7yLJI1fm1w|52=20231226-13:13:37.887|56=cServer|57=TRADE|10=216|8=FIX.4.4|9=114|35=0|34=153|49=demo.ctrader.3873996|50=38739962p9cU7O3YXoF7yLJI1fm1w|52=20231226-13:14:07.922|56=cServer|57=TRADE|10=205|8=FIX.4.4|9=114|35=0|34=154|49=demo.ctrader.3873996|50=38739962p9cU7O3YXoF7yLJI1fm1w|52=20231226-13:14:38.898|56=cServer|57=TRADE|10=222|8=FIX.4.4|9=114|35=0|34=155|49=demo.ctrader.3873996|50=38739962p9cU7O3YXoF7yLJI1fm1w|52=20231226-13:15:09.878|56=cServer|57=TRADE|10=220|8=FIX.4.4|9=114|35=0|34=156|49=demo.ctrader.3873996|50=38739962p9cU7O3YXoF7yLJI1fm1w|52=20231226-13:15:39.916|56=cServer|57=TRADE|10=217|8=FIX.4.4|9=114|35=0|34=157|49=demo.ctrader.3873996|50=38739962p9cU7O3YXoF7yLJI1fm1w|52=20231226-13:16:10.906|56=cServer|57=TRADE|10=207|8=FIX.4.4|9=114|35=0|34=158|49=demo.ctrader.3873996|50=38739962p9cU7O3YXoF7yLJI1fm1w|52=20231226-13:16:41.878|56=cServer|57=TRADE|10=220|8=FIX.4.4|9=114|35=0|34=159|49=demo.ctrader.3873996|50=38739962p9cU7O3YXoF7yLJI1fm1w|52=20231226-13:17:11.949|56=cServer|57=TRADE|10=218|8=FIX.4.4|9=114|35=0|34=160|49=demo.ctrader.3873996|50=38739962p9cU7O3YXoF7yLJI1fm1w|52=20231226-13:17:42.900|56=cServer|57=TRADE|10=201|8=FIX.4.4|9=114|35=0|34=161|49=demo.ctrader.3873996|50=38739962p9cU7O3YXoF7yLJI1fm1w|52=20231226-13:18:12.902|56=cServer|57=TRADE|10=202|8=FIX.4.4|9=114|35=0|34=162|49=demo.ctrader.3873996|50=38739962p9cU7O3YXoF7yLJI1fm1w|52=20231226-13:18:42.906|56=cServer|57=TRADE|10=210|8=FIX.4.4|9=114|35=0|34=163|49=demo.ctrader.3873996|50=38739962p9cU7O3YXoF7yLJI1fm1w|52=20231226-13:19:12.928|56=cServer|57=TRADE|10=213|8=FIX.4.4|9=114|35=0|34=164|49=demo.ctrader.3873996|50=38739962p9cU7O3YXoF7yLJI1fm1w|52=20231226-13:19:43.895|56=cServer|57=TRADE|10=221|8=FIX.4.4|9=114|35=0|34=165|49=demo.ctrader.3873996|50=38739962p9cU7O3YXoF7yLJI1fm1w|52=20231226-13:20:14.002|56=cServer|57=TRADE|10=192|8=FIX.4.4|9=114|35=0|34=166|49=demo.ctrader.3873996|50=38739962p9cU7O3YXoF7yLJI1fm1w|52=20231226-13:20:44.900|56=cServer|57=TRADE|10=203|8=FIX.4.4|9=114|35=0|34=167|49=demo.ctrader.3873996|50=38739962p9cU7O3YXoF7yLJI1fm1w|52=20231226-13:21:14.922|56=cServer|57=TRADE|10=206|8=FIX.4.4|9=114|35=0|34=168|49=demo.ctrader.3873996|50=38739962p9cU7O3YXoF7yLJI1fm1w|52=20231226-13:21:44.937|56=cServer|57=TRADE|10=216|8=FIX.4.4|9=114|35=0|34=169|49=demo.ctrader.3873996|50=38739962p9cU7O3YXoF7yLJI1fm1w|52=20231226-13:22:15.905|56=cServer|57=TRADE|10=211|8=FIX.4.4|9=114|35=0|34=170|49=demo.ctrader.3873996|50=38739962p9cU7O3YXoF7yLJI1fm1w|52=20231226-13:22:45.932|56=cServer|57=TRADE|10=206|8=FIX.4.4|9=114|35=0|34=171|49=demo.ctrader.3873996|50=38739962p9cU7O3YXoF7yLJI1fm1w|52=20231226-13:23:15.934|56=cServer|57=TRADE|10=207|8=FIX.4.4|9=114|35=0|34=172|49=demo.ctrader.3873996|50=38739962p9cU7O3YXoF7yLJI1fm1w|52=20231226-13:23:46.937|56=cServer|57=TRADE|10=215|8=FIX.4.4|9=114|35=0|34=173|49=demo.ctrader.3873996|50=38739962p9cU7O3YXoF7yLJI1fm1w|52=20231226-13:24:17.945|56=cServer|57=TRADE|10=214|8=FIX.4.4|9=114|35=0|34=174|49=demo.ctrader.3873996|50=38739962p9cU7O3YXoF7yLJI1fm1w|52=20231226-13:24:48.745|56=cServer|57=TRADE|10=217|8=FIX.4.4|9=114|35=0|34=175|49=demo.ctrader.3873996|50=38739962p9cU7O3YXoF7yLJI1fm1w|52=20231226-13:25:19.745|56=cServer|57=TRADE|10=217|8=FIX.4.4|9=114|35=0|34=176|49=demo.ctrader.3873996|50=38739962p9cU7O3YXoF7yLJI1fm1w|52=20231226-13:25:49.757|56=cServer|57=TRADE|10=224|8=FIX.4.4|9=114|35=0|34=177|49=demo.ctrader.3873996|50=38739962p9cU7O3YXoF7yLJI1fm1w|52=20231226-13:26:20.763|56=cServer|57=TRADE|10=212|8=FIX.4.4|9=114|35=0|34=178|49=demo.ctrader.3873996|50=38739962p9cU7O3YXoF7yLJI1fm1w|52=20231226-13:26:51.763|56=cServer|57=TRADE|10=217|8=FIX.4.4|9=114|35=0|34=179|49=demo.ctrader.3873996|50=38739962p9cU7O3YXoF7yLJI1fm1w|52=20231226-13:27:21.850|56=cServer|57=TRADE|10=213|8=FIX.4.4|9=114|35=0|34=180|49=demo.ctrader.3873996|50=38739962p9cU7O3YXoF7yLJI1fm1w|52=20231226-13:27:52.783|56=cServer|57=TRADE|10=214|8=FIX.4.4|9=114|35=0|34=181|49=demo.ctrader.3873996|50=38739962p9cU7O3YXoF7yLJI1fm1w|52=20231226-13:28:22.787|56=cServer|57=TRADE|10=217|8=FIX.4.4|9=114|35=0|34=182|49=demo.ctrader.3873996|50=38739962p9cU7O3YXoF7yLJI1fm1w|52=20231226-13:28:53.781|56=cServer|57=TRADE|10=216|8=FIX.4.4|9=114|35=0|34=183|49=demo.ctrader.3873996|50=38739962p9cU7O3YXoF7yLJI1fm1w|52=20231226-13:29:24.781|56=cServer|57=TRADE|10=216|8=FIX.4.4|9=114|35=0|34=184|49=demo.ctrader.3873996|50=38739962p9cU7O3YXoF7yLJI1fm1w|52=20231226-13:29:54.786|56=cServer|57=TRADE|10=225|8=FIX.4.4|9=114|35=0|34=185|49=demo.ctrader.3873996|50=38739962p9cU7O3YXoF7yLJI1fm1w|52=20231226-13:30:24.792|56=cServer|57=TRADE|10=212|8=FIX.4.4|9=114|35=0|34=186|49=demo.ctrader.3873996|50=38739962p9cU7O3YXoF7yLJI1fm1w|52=20231226-13:30:54.798|56=cServer|57=TRADE|10=222|8=FIX.4.4|9=114|35=0|34=187|49=demo.ctrader.3873996|50=38739962p9cU7O3YXoF7yLJI1fm1w|52=20231226-13:31:25.797|56=cServer|57=TRADE|10=221|8=FIX.4.4|9=114|35=0|34=188|49=demo.ctrader.3873996|50=38739962p9cU7O3YXoF7yLJI1fm1w|52=20231226-13:31:56.796|56=cServer|57=TRADE|10=225|8=FIX.4.4|9=114|35=0|34=189|49=demo.ctrader.3873996|50=38739962p9cU7O3YXoF7yLJI1fm1w|52=20231226-13:32:26.800|56=cServer|57=TRADE|10=210|8=FIX.4.4|9=114|35=0|34=190|49=demo.ctrader.3873996|50=38739962p9cU7O3YXoF7yLJI1fm1w|52=20231226-13:32:56.930|56=cServer|57=TRADE|10=209|8=FIX.4.4|9=114|35=0|34=191|49=demo.ctrader.3873996|50=38739962p9cU7O3YXoF7yLJI1fm1w|52=20231226-13:33:27.809|56=cServer|57=TRADE|10=214|8=FIX.4.4|9=114|35=0|34=192|49=demo.ctrader.3873996|50=38739962p9cU7O3YXoF7yLJI1fm1w|52=20231226-13:33:58.814|56=cServer|57=TRADE|10=215|8=FIX.4.4|9=114|35=0|34=193|49=demo.ctrader.3873996|50=38739962p9cU7O3YXoF7yLJI1fm1w|52=20231226-13:34:29.810|56=cServer|57=TRADE|10=211|8=FIX.4.4|9=114|35=0|34=194|49=demo.ctrader.3873996|50=38739962p9cU7O3YXoF7yLJI1fm1w|52=20231226-13:34:59.813|56=cServer|57=TRADE|10=218|8=FIX.4.4|9=114|35=0|34=195|49=demo.ctrader.3873996|50=38739962p9cU7O3YXoF7yLJI1fm1w|52=20231226-13:35:30.821|56=cServer|57=TRADE|10=208|8=FIX.4.4|9=114|35=0|34=196|49=demo.ctrader.3873996|50=38739962p9cU7O3YXoF7yLJI1fm1w|52=20231226-13:36:00.831|56=cServer|57=TRADE|10=208|8=FIX.4.4|9=114|35=0|34=197|49=demo.ctrader.3873996|50=38739962p9cU7O3YXoF7yLJI1fm1w|52=20231226-13:36:30.843|56=cServer|57=TRADE|10=215|8=FIX.4.4|9=114|35=0|34=198|49=demo.ctrader.3873996|50=38739962p9cU7O3YXoF7yLJI1fm1w|52=20231226-13:37:00.843|56=cServer|57=TRADE|10=214|8=FIX.4.4|9=114|35=0|34=199|49=demo.ctrader.3873996|50=38739962p9cU7O3YXoF7yLJI1fm1w|52=20231226-13:37:31.834|56=cServer|57=TRADE|10=219|8=FIX.4.4|9=114|35=0|34=200|49=demo.ctrader.3873996|50=38739962p9cU7O3YXoF7yLJI1fm1w|52=20231226-13:38:01.843|56=cServer|57=TRADE|10=200|8=FIX.4.4|9=114|35=0|34=201|49=demo.ctrader.3873996|50=38739962p9cU7O3YXoF7yLJI1fm1w|52=20231226-13:38:32.829|56=cServer|57=TRADE|10=209|8=FIX.4.4|9=114|35=0|34=202|49=demo.ctrader.3873996|50=38739962p9cU7O3YXoF7yLJI1fm1w|52=20231226-13:39:02.857|56=cServer|57=TRADE|10=209|8=FIX.4.4|9=114|35=0|34=203|49=demo.ctrader.3873996|50=38739962p9cU7O3YXoF7yLJI1fm1w|52=20231226-13:39:33.860|56=cServer|57=TRADE|10=208|8=FIX.4.4|9=114|35=0|34=204|49=demo.ctrader.3873996|50=38739962p9cU7O3YXoF7yLJI1fm1w|52=20231226-13:40:03.899|56=cServer|57=TRADE|10=210|8=FIX.4.4|9=114|35=0|34=205|49=demo.ctrader.3873996|50=38739962p9cU7O3YXoF7yLJI1fm1w|52=20231226-13:40:33.962|56=cServer|57=TRADE|10=205|8=FIX.4.4|9=114|35=0|34=206|49=demo.ctrader.3873996|50=38739962p9cU7O3YXoF7yLJI1fm1w|52=20231226-13:41:04.903|56=cServer|57=TRADE|10=200|8=FIX.4.4|9=114|35=0|34=207|49=demo.ctrader.3873996|50=38739962p9cU7O3YXoF7yLJI1fm1w|52=20231226-13:41:34.913|56=cServer|57=TRADE|10=205|8=FIX.4.4|9=114|35=0|34=208|49=demo.ctrader.3873996|50=38739962p9cU7O3YXoF7yLJI1fm1w|52=20231226-13:42:05.835|56=cServer|57=TRADE|10=208|8=FIX.4.4|9=114|35=0|34=209|49=demo.ctrader.3873996|50=38739962p9cU7O3YXoF7yLJI1fm1w|52=20231226-13:42:35.860|56=cServer|57=TRADE|10=210|8=FIX.4.4|9=114|35=0|34=210|49=demo.ctrader.3873996|50=38739962p9cU7O3YXoF7yLJI1fm1w|52=20231226-13:43:05.864|56=cServer|57=TRADE|10=204|8=FIX.4.4|9=114|35=0|34=211|49=demo.ctrader.3873996|50=38739962p9cU7O3YXoF7yLJI1fm1w|52=20231226-13:43:35.868|56=cServer|57=TRADE|10=212|8=FIX.4.4|9=114|35=0|34=212|49=demo.ctrader.3873996|50=38739962p9cU7O3YXoF7yLJI1fm1w|52=20231226-13:44:06.861|56=cServer|57=TRADE|10=205|8=FIX.4.4|9=114|35=0|34=213|49=demo.ctrader.3873996|50=38739962p9cU7O3YXoF7yLJI1fm1w|52=20231226-13:44:37.867|56=cServer|57=TRADE|10=216|8=FIX.4.4|9=114|35=0|34=214|49=demo.ctrader.3873996|50=38739962p9cU7O3YXoF7yLJI1fm1w|52=20231226-13:45:08.868|56=cServer|57=TRADE|10=217|8=FIX.4.4|9=114|35=0|34=215|49=demo.ctrader.3873996|50=38739962p9cU7O3YXoF7yLJI1fm1w|52=20231226-13:45:38.980|56=cServer|57=TRADE|10=216|8=FIX.4.4|9=114|35=0|34=216|49=demo.ctrader.3873996|50=38739962p9cU7O3YXoF7yLJI1fm1w|52=20231226-13:46:09.908|56=cServer|57=TRADE|10=216|8=FIX.4.4|9=114|35=0|34=217|49=demo.ctrader.3873996|50=38739962p9cU7O3YXoF7yLJI1fm1w|52=20231226-13:46:40.883|56=cServer|57=TRADE|10=214|8=FIX.4.4|9=114|35=0|34=218|49=demo.ctrader.3873996|50=38739962p9cU7O3YXoF7yLJI1fm1w|52=20231226-13:47:10.979|56=cServer|57=TRADE|10=219|8=FIX.4.4|9=114|35=0|34=219|49=demo.ctrader.3873996|50=38739962p9cU7O3YXoF7yLJI1fm1w|52=20231226-13:47:41.929|56=cServer|57=TRADE|10=219|8=FIX.4.4|9=114|35=0|34=220|49=demo.ctrader.3873996|50=38739962p9cU7O3YXoF7yLJI1fm1w|52=20231226-13:48:12.892|56=cServer|57=TRADE|10=209|8=FIX.4.4|9=114|35=0|34=221|49=demo.ctrader.3873996|50=38739962p9cU7O3YXoF7yLJI1fm1w|52=20231226-13:48:42.917|56=cServer|57=TRADE|10=211|8=FIX.4.4|9=114|35=0|34=222|49=demo.ctrader.3873996|50=38739962p9cU7O3YXoF7yLJI1fm1w|52=20231226-13:49:13.929|56=cServer|57=TRADE|10=214|8=FIX.4.4|9=114|35=0|34=223|49=demo.ctrader.3873996|50=38739962p9cU7O3YXoF7yLJI1fm1w|52=20231226-13:49:43.960|56=cServer|57=TRADE|10=213|8=FIX.4.4|9=114|35=0|34=224|49=demo.ctrader.3873996|50=38739962p9cU7O3YXoF7yLJI1fm1w|52=20231226-13:50:14.963|56=cServer|57=TRADE|10=207|8=FIX.4.4|9=114|35=0|34=225|49=demo.ctrader.3873996|50=38739962p9cU7O3YXoF7yLJI1fm1w|52=20231226-13:50:45.925|56=cServer|57=TRADE|10=210|8=FIX.4.4|9=114|35=0|34=226|49=demo.ctrader.3873996|50=38739962p9cU7O3YXoF7yLJI1fm1w|52=20231226-13:51:16.084|56=cServer|57=TRADE|10=206|8=FIX.4.4|9=114|35=0|34=227|49=demo.ctrader.3873996|50=38739962p9cU7O3YXoF7yLJI1fm1w|52=20231226-13:51:46.968|56=cServer|57=TRADE|10=221|8=FIX.4.4|9=114|35=0|34=228|49=demo.ctrader.3873996|50=38739962p9cU7O3YXoF7yLJI1fm1w|52=20231226-13:52:17.967|56=cServer|57=TRADE|10=220|8=FIX.4.4|9=114|35=0|34=229|49=demo.ctrader.3873996|50=38739962p9cU7O3YXoF7yLJI1fm1w|52=20231226-13:52:48.749|56=cServer|57=TRADE|10=223|8=FIX.4.4|9=114|35=0|34=230|49=demo.ctrader.3873996|50=38739962p9cU7O3YXoF7yLJI1fm1w|52=20231226-13:53:19.751|56=cServer|57=TRADE|10=207|8=FIX.4.4|9=114|35=0|34=231|49=demo.ctrader.3873996|50=38739962p9cU7O3YXoF7yLJI1fm1w|52=20231226-13:53:49.758|56=cServer|57=TRADE|10=218|8=FIX.4.4|9=114|35=0|34=232|49=demo.ctrader.3873996|50=38739962p9cU7O3YXoF7yLJI1fm1w|52=20231226-13:54:20.759|56=cServer|57=TRADE|10=210|8=FIX.4.4|9=114|35=0|34=233|49=demo.ctrader.3873996|50=38739962p9cU7O3YXoF7yLJI1fm1w|52=20231226-13:54:50.766|56=cServer|57=TRADE|10=212|8=FIX.4.4|9=114|35=0|34=234|49=demo.ctrader.3873996|50=38739962p9cU7O3YXoF7yLJI1fm1w|52=20231226-13:55:21.763|56=cServer|57=TRADE|10=209|8=FIX.4.4|9=114|35=0|34=235|49=demo.ctrader.3873996|50=38739962p9cU7O3YXoF7yLJI1fm1w|52=20231226-13:55:51.777|56=cServer|57=TRADE|10=218|8=FIX.4.4|9=114|35=0|34=236|49=demo.ctrader.3873996|50=38739962p9cU7O3YXoF7yLJI1fm1w|52=20231226-13:56:21.791|56=cServer|57=TRADE|10=213|8=FIX.4.4|9=114|35=0|34=237|49=demo.ctrader.3873996|50=38739962p9cU7O3YXoF7yLJI1fm1w|52=20231226-13:56:52.777|56=cServer|57=TRADE|10=222|8=FIX.4.4|9=114|35=0|34=238|49=demo.ctrader.3873996|50=38739962p9cU7O3YXoF7yLJI1fm1w|52=20231226-13:57:23.763|56=cServer|57=TRADE|10=217|8=FIX.4.4|9=114|35=0|34=239|49=demo.ctrader.3873996|50=38739962p9cU7O3YXoF7yLJI1fm1w|52=20231226-13:57:53.770|56=cServer|57=TRADE|10=219|8=FIX.4.4|9=114|35=0|34=240|49=demo.ctrader.3873996|50=38739962p9cU7O3YXoF7yLJI1fm1w|52=20231226-13:58:23.786|56=cServer|57=TRADE|10=216|8=FIX.4.4|9=114|35=0|34=241|49=demo.ctrader.3873996|50=38739962p9cU7O3YXoF7yLJI1fm1w|52=20231226-13:58:54.786|56=cServer|57=TRADE|10=221|8=FIX.4.4|9=114|35=0|34=242|49=demo.ctrader.3873996|50=38739962p9cU7O3YXoF7yLJI1fm1w|52=20231226-13:59:24.796|56=cServer|57=TRADE|10=221|8=FIX.4.4|9=114|35=0|34=243|49=demo.ctrader.3873996|50=38739962p9cU7O3YXoF7yLJI1fm1w|52=20231226-13:59:55.787|56=cServer|57=TRADE|10=226|8=FIX.4.4|9=114|35=0|34=244|49=demo.ctrader.3873996|50=38739962p9cU7O3YXoF7yLJI1fm1w|52=20231226-14:00:25.801|56=cServer|57=TRADE|10=198|8=FIX.4.4|9=114|35=0|34=245|49=demo.ctrader.3873996|50=38739962p9cU7O3YXoF7yLJI1fm1w|52=20231226-14:00:56.802|56=cServer|57=TRADE|10=204|8=FIX.4.4|9=114|35=0|34=246|49=demo.ctrader.3873996|50=38739962p9cU7O3YXoF7yLJI1fm1w|52=20231226-14:01:26.804|56=cServer|57=TRADE|10=205|8=FIX.4.4|9=114|35=0|34=247|49=demo.ctrader.3873996|50=38739962p9cU7O3YXoF7yLJI1fm1w|52=20231226-14:01:57.799|56=cServer|57=TRADE|10=223|8=FIX.4.4|9=114|35=0|34=248|49=demo.ctrader.3873996|50=38739962p9cU7O3YXoF7yLJI1fm1w|52=20231226-14:02:27.808|56=cServer|57=TRADE|10=213|8=FIX.4.4|9=114|35=0|34=249|49=demo.ctrader.3873996|50=38739962p9cU7O3YXoF7yLJI1fm1w|52=20231226-14:02:57.820|56=cServer|57=TRADE|10=211|8=FIX.4.4|9=114|35=0|34=250|49=demo.ctrader.3873996|50=38739962p9cU7O3YXoF7yLJI1fm1w|52=20231226-14:03:28.264|56=cServer|57=TRADE|10=204|8=FIX.4.4|9=114|35=0|34=251|49=demo.ctrader.3873996|50=38739962p9cU7O3YXoF7yLJI1fm1w|52=20231226-14:03:58.816|56=cServer|57=TRADE|10=211|8=FIX.4.4|9=114|35=0|34=252|49=demo.ctrader.3873996|50=38739962p9cU7O3YXoF7yLJI1fm1w|52=20231226-14:04:29.814|56=cServer|57=TRADE|10=209|8=FIX.4.4|9=114|35=0|34=253|49=demo.ctrader.3873996|50=38739962p9cU7O3YXoF7yLJI1fm1w|52=20231226-14:05:00.815|56=cServer|57=TRADE|10=201|8=FIX.4.4|9=114|35=0|34=254|49=demo.ctrader.3873996|50=38739962p9cU7O3YXoF7yLJI1fm1w|52=20231226-14:05:30.847|56=cServer|57=TRADE|10=210|8=FIX.4.4|9=114|35=0|34=255|49=demo.ctrader.3873996|50=38739962p9cU7O3YXoF7yLJI1fm1w|52=20231226-14:06:00.848|56=cServer|57=TRADE|10=210|8=FIX.4.4|9=114|35=0|34=256|49=demo.ctrader.3873996|50=38739962p9cU7O3YXoF7yLJI1fm1w|52=20231226-14:06:31.845|56=cServer|57=TRADE|10=212|8=FIX.4.4|9=114|35=0|34=257|49=demo.ctrader.3873996|50=38739962p9cU7O3YXoF7yLJI1fm1w|52=20231226-14:07:01.969|56=cServer|57=TRADE|10=218|8=FIX.4.4|9=114|35=0|34=258|49=demo.ctrader.3873996|50=38739962p9cU7O3YXoF7yLJI1fm1w|52=20231226-14:07:32.847|56=cServer|57=TRADE|10=218|8=FIX.4.4|9=114|35=0|34=259|49=demo.ctrader.3873996|50=38739962p9cU7O3YXoF7yLJI1fm1w|52=20231226-14:08:03.843|56=cServer|57=TRADE|10=214|8=FIX.4.4|9=114|35=0|34=260|49=demo.ctrader.3873996|50=38739962p9cU7O3YXoF7yLJI1fm1w|52=20231226-14:08:33.854|56=cServer|57=TRADE|10=211|8=FIX.4.4|9=114|35=0|34=261|49=demo.ctrader.3873996|50=38739962p9cU7O3YXoF7yLJI1fm1w|52=20231226-14:09:03.874|56=cServer|57=TRADE|10=212|8=FIX.4.4|9=114|35=0|34=262|49=demo.ctrader.3873996|50=38739962p9cU7O3YXoF7yLJI1fm1w|52=20231226-14:09:33.874|56=cServer|57=TRADE|10=216|8=FIX.4.4|9=114|35=0|34=263|49=demo.ctrader.3873996|50=38739962p9cU7O3YXoF7yLJI1fm1w|52=20231226-14:10:04.863|56=cServer|57=TRADE|10=205|8=FIX.4.4|9=114|35=0|34=264|49=demo.ctrader.3873996|50=38739962p9cU7O3YXoF7yLJI1fm1w|52=20231226-14:10:35.870|56=cServer|57=TRADE|10=208|8=FIX.4.4|9=114|35=0|34=265|49=demo.ctrader.3873996|50=38739962p9cU7O3YXoF7yLJI1fm1w|52=20231226-14:11:06.872|56=cServer|57=TRADE|10=210|8=FIX.4.4|9=114|35=0|34=266|49=demo.ctrader.3873996|50=38739962p9cU7O3YXoF7yLJI1fm1w|52=20231226-14:11:36.879|56=cServer|57=TRADE|10=221|8=FIX.4.4|9=114|35=0|34=267|49=demo.ctrader.3873996|50=38739962p9cU7O3YXoF7yLJI1fm1w|52=20231226-14:12:07.886|56=cServer|57=TRADE|10=219|8=FIX.4.4|9=114|35=0|34=268|49=demo.ctrader.3873996|50=38739962p9cU7O3YXoF7yLJI1fm1w|52=20231226-14:12:38.878|56=cServer|57=TRADE|10=225|8=FIX.4.4|9=114|35=0|34=269|49=demo.ctrader.3873996|50=38739962p9cU7O3YXoF7yLJI1fm1w|52=20231226-14:13:08.879|56=cServer|57=TRADE|10=225|8=FIX.4.4|9=114|35=0|34=270|49=demo.ctrader.3873996|50=38739962p9cU7O3YXoF7yLJI1fm1w|52=20231226-14:13:38.882|56=cServer|57=TRADE|10=214|8=FIX.4.4|9=114|35=0|34=271|49=demo.ctrader.3873996|50=38739962p9cU7O3YXoF7yLJI1fm1w|52=20231226-14:14:08.899|56=cServer|57=TRADE|10=221|8=FIX.4.4|9=114|35=0|34=272|49=demo.ctrader.3873996|50=38739962p9cU7O3YXoF7yLJI1fm1w|52=20231226-14:14:39.889|56=cServer|57=TRADE|10=225|8=FIX.4.4|9=114|35=0|34=273|49=demo.ctrader.3873996|50=38739962p9cU7O3YXoF7yLJI1fm1w|52=20231226-14:15:09.913|56=cServer|57=TRADE|10=212|8=FIX.4.4|9=114|35=0|34=274|49=demo.ctrader.3873996|50=38739962p9cU7O3YXoF7yLJI1fm1w|52=20231226-14:15:39.916|56=cServer|57=TRADE|10=219|8=FIX.4.4|9=114|35=0|34=275|49=demo.ctrader.3873996|50=38739962p9cU7O3YXoF7yLJI1fm1w|52=20231226-14:16:10.911|56=cServer|57=TRADE|10=205|8=FIX.4.4|9=114|35=0|34=276|49=demo.ctrader.3873996|50=38739962p9cU7O3YXoF7yLJI1fm1w|52=20231226-14:16:41.909|56=cServer|57=TRADE|10=217|8=FIX.4.4|9=114|35=0|34=277|49=demo.ctrader.3873996|50=38739962p9cU7O3YXoF7yLJI1fm1w|52=20231226-14:17:12.908|56=cServer|57=TRADE|10=216|8=FIX.4.4|9=114|35=0|34=278|49=demo.ctrader.3873996|50=38739962p9cU7O3YXoF7yLJI1fm1w|52=20231226-14:17:42.960|56=cServer|57=TRADE|10=218|8=FIX.4.4|9=114|35=0|34=279|49=demo.ctrader.3873996|50=38739962p9cU7O3YXoF7yLJI1fm1w|52=20231226-14:18:13.944|56=cServer|57=TRADE|10=220|8=FIX.4.4|9=114|35=0|34=280|49=demo.ctrader.3873996|50=38739962p9cU7O3YXoF7yLJI1fm1w|52=20231226-14:18:44.196|56=cServer|57=TRADE|10=215|8=FIX.4.4|9=114|35=0|34=281|49=demo.ctrader.3873996|50=38739962p9cU7O3YXoF7yLJI1fm1w|52=20231226-14:19:14.952|56=cServer|57=TRADE|10=214|8=FIX.4.4|9=114|35=0|34=282|49=demo.ctrader.3873996|50=38739962p9cU7O3YXoF7yLJI1fm1w|52=20231226-14:19:45.930|56=cServer|57=TRADE|10=215|8=FIX.4.4|9=114|35=0|34=283|49=demo.ctrader.3873996|50=38739962p9cU7O3YXoF7yLJI1fm1w|52=20231226-14:20:15.948|56=cServer|57=TRADE|10=214|8=FIX.4.4|9=114|35=0|34=284|49=demo.ctrader.3873996|50=38739962p9cU7O3YXoF7yLJI1fm1w|52=20231226-14:20:46.934|56=cServer|57=TRADE|10=214|8=FIX.4.4|9=114|35=0|34=285|49=demo.ctrader.3873996|50=38739962p9cU7O3YXoF7yLJI1fm1w|52=20231226-14:21:16.961|56=cServer|57=TRADE|10=213|8=FIX.4.4|9=114|35=0|34=286|49=demo.ctrader.3873996|50=38739962p9cU7O3YXoF7yLJI1fm1w|52=20231226-14:21:47.928|56=cServer|57=TRADE|10=221|8=FIX.4.4|9=114|35=0|34=287|49=demo.ctrader.3873996|50=38739962p9cU7O3YXoF7yLJI1fm1w|52=20231226-14:22:17.934|56=cServer|57=TRADE|10=217|8=FIX.4.4|9=114|35=0|34=288|49=demo.ctrader.3873996|50=38739962p9cU7O3YXoF7yLJI1fm1w|52=20231226-14:22:48.752|56=cServer|57=TRADE|10=220|8=FIX.4.4|9=114|35=0|34=289|49=demo.ctrader.3873996|50=38739962p9cU7O3YXoF7yLJI1fm1w|52=20231226-14:23:19.751|56=cServer|57=TRADE|10=219|8=FIX.4.4|9=114|35=0|34=290|49=demo.ctrader.3873996|50=38739962p9cU7O3YXoF7yLJI1fm1w|52=20231226-14:23:50.751|56=cServer|57=TRADE|10=206|8=FIX.4.4|9=114|35=0|34=291|49=demo.ctrader.3873996|50=38739962p9cU7O3YXoF7yLJI1fm1w|52=20231226-14:24:20.758|56=cServer|57=TRADE|10=212|8=FIX.4.4|9=114|35=0|34=292|49=demo.ctrader.3873996|50=38739962p9cU7O3YXoF7yLJI1fm1w|52=20231226-14:24:50.777|56=cServer|57=TRADE|10=217|8=FIX.4.4|9=114|35=0|34=293|49=demo.ctrader.3873996|50=38739962p9cU7O3YXoF7yLJI1fm1w|52=20231226-14:25:21.754|56=cServer|57=TRADE|10=212|8=FIX.4.4|9=114|35=0|34=294|49=demo.ctrader.3873996|50=38739962p9cU7O3YXoF7yLJI1fm1w|52=20231226-14:25:51.760|56=cServer|57=TRADE|10=213|8=FIX.4.4|9=114|35=0|34=295|49=demo.ctrader.3873996|50=38739962p9cU7O3YXoF7yLJI1fm1w|52=20231226-14:26:21.768|56=cServer|57=TRADE|10=220|8=FIX.4.4|9=114|35=0|34=296|49=demo.ctrader.3873996|50=38739962p9cU7O3YXoF7yLJI1fm1w|52=20231226-14:26:52.766|56=cServer|57=TRADE|10=223|8=FIX.4.4|9=114|35=0|34=297|49=demo.ctrader.3873996|50=38739962p9cU7O3YXoF7yLJI1fm1w|52=20231226-14:27:22.775|56=cServer|57=TRADE|10=222|8=FIX.4.4|9=114|35=0|34=298|49=demo.ctrader.3873996|50=38739962p9cU7O3YXoF7yLJI1fm1w|52=20231226-14:27:53.769|56=cServer|57=TRADE|10=230|8=FIX.4.4|9=114|35=0|34=299|49=demo.ctrader.3873996|50=38739962p9cU7O3YXoF7yLJI1fm1w|52=20231226-14:28:23.792|56=cServer|57=TRADE|10=225|8=FIX.4.4|9=114|35=0|34=300|49=demo.ctrader.3873996|50=38739962p9cU7O3YXoF7yLJI1fm1w|52=20231226-14:28:54.790|56=cServer|57=TRADE|10=210|8=FIX.4.4|9=114|35=0|34=301|49=demo.ctrader.3873996|50=38739962p9cU7O3YXoF7yLJI1fm1w|52=20231226-14:29:24.798|56=cServer|57=TRADE|10=217|8=FIX.4.4|9=114|35=0|34=302|49=demo.ctrader.3873996|50=38739962p9cU7O3YXoF7yLJI1fm1w|52=20231226-14:29:54.798|56=cServer|57=TRADE|10=221|8=FIX.4.4|9=114|35=0|34=303|49=demo.ctrader.3873996|50=38739962p9cU7O3YXoF7yLJI1fm1w|52=20231226-14:30:25.789|56=cServer|57=TRADE|10=212|8=FIX.4.4|9=114|35=0|34=304|49=demo.ctrader.3873996|50=38739962p9cU7O3YXoF7yLJI1fm1w|52=20231226-14:30:55.800|56=cServer|57=TRADE|10=200|8=FIX.4.4|9=114|35=0|34=305|49=demo.ctrader.3873996|50=38739962p9cU7O3YXoF7yLJI1fm1w|52=20231226-14:31:26.778|56=cServer|57=TRADE|10=214|8=FIX.4.4|9=114|35=0|34=306|49=demo.ctrader.3873996|50=38739962p9cU7O3YXoF7yLJI1fm1w|52=20231226-14:31:56.788|56=cServer|57=TRADE|10=219|8=FIX.4.4|9=114|35=0|34=307|49=demo.ctrader.3873996|50=38739962p9cU7O3YXoF7yLJI1fm1w|52=20231226-14:32:26.814|56=cServer|57=TRADE|10=208|8=FIX.4.4|9=114|35=0|34=308|49=demo.ctrader.3873996|50=38739962p9cU7O3YXoF7yLJI1fm1w|52=20231226-14:32:57.809|56=cServer|57=TRADE|10=217|8=FIX.4.4|9=114|35=0|34=309|49=demo.ctrader.3873996|50=38739962p9cU7O3YXoF7yLJI1fm1w|52=20231226-14:33:28.805|56=cServer|57=TRADE|10=213|8=FIX.4.4|9=114|35=0|34=310|49=demo.ctrader.3873996|50=38739962p9cU7O3YXoF7yLJI1fm1w|52=20231226-14:33:58.809|56=cServer|57=TRADE|10=212|8=FIX.4.4|9=114|35=0|34=311|49=demo.ctrader.3873996|50=38739962p9cU7O3YXoF7yLJI1fm1w|52=20231226-14:34:29.814|56=cServer|57=TRADE|10=208|8=FIX.4.4|9=114|35=0|34=312|49=demo.ctrader.3873996|50=38739962p9cU7O3YXoF7yLJI1fm1w|52=20231226-14:34:59.840|56=cServer|57=TRADE|10=211|8=FIX.4.4|9=114|35=0|34=313|49=demo.ctrader.3873996|50=38739962p9cU7O3YXoF7yLJI1fm1w|52=20231226-14:35:30.834|56=cServer|57=TRADE|10=205|8=FIX.4.4|9=114|35=0|34=314|49=demo.ctrader.3873996|50=38739962p9cU7O3YXoF7yLJI1fm1w|52=20231226-14:36:00.842|56=cServer|57=TRADE|10=203|8=FIX.4.4|9=114|35=0|34=315|49=demo.ctrader.3873996|50=38739962p9cU7O3YXoF7yLJI1fm1w|52=20231226-14:36:31.821|56=cServer|57=TRADE|10=205|8=FIX.4.4|9=114|35=0|34=316|49=demo.ctrader.3873996|50=38739962p9cU7O3YXoF7yLJI1fm1w|52=20231226-14:37:01.824|56=cServer|57=TRADE|10=207|8=FIX.4.4|9=114|35=0|34=317|49=demo.ctrader.3873996|50=38739962p9cU7O3YXoF7yLJI1fm1w|52=20231226-14:37:31.835|56=cServer|57=TRADE|10=213|8=FIX.4.4|9=114|35=0|34=318|49=demo.ctrader.3873996|50=38739962p9cU7O3YXoF7yLJI1fm1w|52=20231226-14:38:02.827|56=cServer|57=TRADE|10=214|8=FIX.4.4|9=114|35=0|34=319|49=demo.ctrader.3873996|50=38739962p9cU7O3YXoF7yLJI1fm1w|52=20231226-14:38:32.839|56=cServer|57=TRADE|10=221|8=FIX.4.4|9=114|35=0|34=320|49=demo.ctrader.3873996|50=38739962p9cU7O3YXoF7yLJI1fm1w|52=20231226-14:39:03.814|56=cServer|57=TRADE|10=205|8=FIX.4.4|9=114|35=0|34=321|49=demo.ctrader.3873996|50=38739962p9cU7O3YXoF7yLJI1fm1w|52=20231226-14:39:33.856|56=cServer|57=TRADE|10=215|8=FIX.4.4|9=114|35=0|34=322|49=demo.ctrader.3873996|50=38739962p9cU7O3YXoF7yLJI1fm1w|52=20231226-14:40:04.860|56=cServer|57=TRADE|10=201|8=FIX.4.4|9=114|35=0|34=323|49=demo.ctrader.3873996|50=38739962p9cU7O3YXoF7yLJI1fm1w|52=20231226-14:40:35.858|56=cServer|57=TRADE|10=213|8=FIX.4.4|9=114|35=0|34=324|49=demo.ctrader.3873996|50=38739962p9cU7O3YXoF7yLJI1fm1w|52=20231226-14:41:06.835|56=cServer|57=TRADE|10=208|8=FIX.4.4|9=114|35=0|34=325|49=demo.ctrader.3873996|50=38739962p9cU7O3YXoF7yLJI1fm1w|52=20231226-14:41:36.884|56=cServer|57=TRADE|10=216|8=FIX.4.4|9=114|35=0|34=326|49=demo.ctrader.3873996|50=38739962p9cU7O3YXoF7yLJI1fm1w|52=20231226-14:42:07.858|56=cServer|57=TRADE|10=217|8=FIX.4.4|9=114|35=0|34=327|49=demo.ctrader.3873996|50=38739962p9cU7O3YXoF7yLJI1fm1w|52=20231226-14:42:37.890|56=cServer|57=TRADE|10=217|8=FIX.4.4|9=114|35=0|34=328|49=demo.ctrader.3873996|50=38739962p9cU7O3YXoF7yLJI1fm1w|52=20231226-14:43:08.859|56=cServer|57=TRADE|10=222|8=FIX.4.4|9=114|35=0|34=329|49=demo.ctrader.3873996|50=38739962p9cU7O3YXoF7yLJI1fm1w|52=20231226-14:43:38.895|56=cServer|57=TRADE|10=226|8=FIX.4.4|9=114|35=0|34=330|49=demo.ctrader.3873996|50=38739962p9cU7O3YXoF7yLJI1fm1w|52=20231226-14:44:09.888|56=cServer|57=TRADE|10=219|8=FIX.4.4|9=114|35=0|34=331|49=demo.ctrader.3873996|50=38739962p9cU7O3YXoF7yLJI1fm1w|52=20231226-14:44:39.906|56=cServer|57=TRADE|10=214|8=FIX.4.4|9=114|35=0|34=332|49=demo.ctrader.3873996|50=38739962p9cU7O3YXoF7yLJI1fm1w|52=20231226-14:45:10.886|56=cServer|57=TRADE|10=212|8=FIX.4.4|9=114|35=0|34=333|49=demo.ctrader.3873996|50=38739962p9cU7O3YXoF7yLJI1fm1w|52=20231226-14:45:41.869|56=cServer|57=TRADE|10=218|8=FIX.4.4|9=114|35=0|34=334|49=demo.ctrader.3873996|50=38739962p9cU7O3YXoF7yLJI1fm1w|52=20231226-14:46:11.910|56=cServer|57=TRADE|10=204|8=FIX.4.4|9=114|35=0|34=335|49=demo.ctrader.3873996|50=38739962p9cU7O3YXoF7yLJI1fm1w|52=20231226-14:46:42.915|56=cServer|57=TRADE|10=214|8=FIX.4.4|9=114|35=0|34=336|49=demo.ctrader.3873996|50=38739962p9cU7O3YXoF7yLJI1fm1w|52=20231226-14:47:13.911|56=cServer|57=TRADE|10=210|8=FIX.4.4|9=114|35=0|34=337|49=demo.ctrader.3873996|50=38739962p9cU7O3YXoF7yLJI1fm1w|52=20231226-14:47:43.919|56=cServer|57=TRADE|10=222|8=FIX.4.4|9=114|35=0|34=338|49=demo.ctrader.3873996|50=38739962p9cU7O3YXoF7yLJI1fm1w|52=20231226-14:48:14.928|56=cServer|57=TRADE|10=222|8=FIX.4.4|9=114|35=0|34=339|49=demo.ctrader.3873996|50=38739962p9cU7O3YXoF7yLJI1fm1w|52=20231226-14:48:44.947|56=cServer|57=TRADE|10=227|8=FIX.4.4|9=114|35=0|34=340|49=demo.ctrader.3873996|50=38739962p9cU7O3YXoF7yLJI1fm1w|52=20231226-14:49:15.931|56=cServer|57=TRADE|10=211|8=FIX.4.4|9=114|35=0|34=341|49=demo.ctrader.3873996|50=38739962p9cU7O3YXoF7yLJI1fm1w|52=20231226-14:49:45.941|56=cServer|57=TRADE|10=216|8=FIX.4.4|9=114|35=0|34=342|49=demo.ctrader.3873996|50=38739962p9cU7O3YXoF7yLJI1fm1w|52=20231226-14:50:15.983|56=cServer|57=TRADE|10=212|8=FIX.4.4|9=114|35=0|34=343|49=demo.ctrader.3873996|50=38739962p9cU7O3YXoF7yLJI1fm1w|52=20231226-14:50:46.928|56=cServer|57=TRADE|10=216|8=FIX.4.4|9=114|35=0|34=344|49=demo.ctrader.3873996|50=38739962p9cU7O3YXoF7yLJI1fm1w|52=20231226-14:51:16.974|56=cServer|57=TRADE|10=216|8=FIX.4.4|9=114|35=0|34=345|49=demo.ctrader.3873996|50=38739962p9cU7O3YXoF7yLJI1fm1w|52=20231226-14:51:47.949|56=cServer|57=TRADE|10=223|8=FIX.4.4|9=114|35=0|34=346|49=demo.ctrader.3873996|50=38739962p9cU7O3YXoF7yLJI1fm1w|52=20231226-14:52:17.955|56=cServer|57=TRADE|10=219|8=FIX.4.4|9=114|35=0|34=347|49=demo.ctrader.3873996|50=38739962p9cU7O3YXoF7yLJI1fm1w|52=20231226-14:52:48.743|56=cServer|57=TRADE|10=219|8=FIX.4.4|9=114|35=0|34=348|49=demo.ctrader.3873996|50=38739962p9cU7O3YXoF7yLJI1fm1w|52=20231226-14:53:19.751|56=cServer|57=TRADE|10=218|8=FIX.4.4|9=114|35=0|34=349|49=demo.ctrader.3873996|50=38739962p9cU7O3YXoF7yLJI1fm1w|52=20231226-14:53:50.754|56=cServer|57=TRADE|10=217|8=FIX.4.4|9=114|35=0|34=350|49=demo.ctrader.3873996|50=38739962p9cU7O3YXoF7yLJI1fm1w|52=20231226-14:54:21.760|56=cServer|57=TRADE|10=205|8=FIX.4.4|9=114|35=0|34=351|49=demo.ctrader.3873996|50=38739962p9cU7O3YXoF7yLJI1fm1w|52=20231226-14:54:51.760|56=cServer|57=TRADE|10=209|8=FIX.4.4|9=114|35=0|34=352|49=demo.ctrader.3873996|50=38739962p9cU7O3YXoF7yLJI1fm1w|52=20231226-14:55:22.765|56=cServer|57=TRADE|10=214|8=FIX.4.4|9=114|35=0|34=353|49=demo.ctrader.3873996|50=38739962p9cU7O3YXoF7yLJI1fm1w|52=20231226-14:55:52.769|56=cServer|57=TRADE|10=222|8=FIX.4.4|9=114|35=0|34=354|49=demo.ctrader.3873996|50=38739962p9cU7O3YXoF7yLJI1fm1w|52=20231226-14:56:22.780|56=cServer|57=TRADE|10=214|8=FIX.4.4|9=114|35=0|34=355|49=demo.ctrader.3873996|50=38739962p9cU7O3YXoF7yLJI1fm1w|52=20231226-14:56:53.777|56=cServer|57=TRADE|10=225|8=FIX.4.4|9=114|35=0|34=356|49=demo.ctrader.3873996|50=38739962p9cU7O3YXoF7yLJI1fm1w|52=20231226-14:57:24.764|56=cServer|57=TRADE|10=221|8=FIX.4.4|9=114|35=0|34=357|49=demo.ctrader.3873996|50=38739962p9cU7O3YXoF7yLJI1fm1w|52=20231226-14:57:54.790|56=cServer|57=TRADE|10=224|8=FIX.4.4|9=114|35=0|34=358|49=demo.ctrader.3873996|50=38739962p9cU7O3YXoF7yLJI1fm1w|52=20231226-14:58:24.795|56=cServer|57=TRADE|10=228|8=FIX.4.4|9=114|35=0|34=359|49=demo.ctrader.3873996|50=38739962p9cU7O3YXoF7yLJI1fm1w|52=20231226-14:58:55.783|56=cServer|57=TRADE|10=230|8=FIX.4.4|9=114|35=0|34=360|49=demo.ctrader.3873996|50=38739962p9cU7O3YXoF7yLJI1fm1w|52=20231226-14:59:26.784|56=cServer|57=TRADE|10=222|8=FIX.4.4|9=114|35=0|34=361|49=demo.ctrader.3873996|50=38739962p9cU7O3YXoF7yLJI1fm1w|52=20231226-14:59:57.790|56=cServer|57=TRADE|10=224|8=FIX.4.4|9=114|35=0|34=362|49=demo.ctrader.3873996|50=38739962p9cU7O3YXoF7yLJI1fm1w|52=20231226-15:00:27.812|56=cServer|57=TRADE|10=204|8=FIX.4.4|9=114|35=0|34=363|49=demo.ctrader.3873996|50=38739962p9cU7O3YXoF7yLJI1fm1w|52=20231226-15:00:58.817|56=cServer|57=TRADE|10=214|8=FIX.4.4|9=114|35=0|34=364|49=demo.ctrader.3873996|50=38739962p9cU7O3YXoF7yLJI1fm1w|52=20231226-15:01:29.825|56=cServer|57=TRADE|10=213|8=FIX.4.4|9=114|35=0|34=365|49=demo.ctrader.3873996|50=38739962p9cU7O3YXoF7yLJI1fm1w|52=20231226-15:02:00.830|56=cServer|57=TRADE|10=200|8=FIX.4.4|9=114|35=0|34=366|49=demo.ctrader.3873996|50=38739962p9cU7O3YXoF7yLJI1fm1w|52=20231226-15:02:31.833|56=cServer|57=TRADE|10=208|8=FIX.4.4|9=114|35=0|34=367|49=demo.ctrader.3873996|50=38739962p9cU7O3YXoF7yLJI1fm1w|52=20231226-15:03:01.845|56=cServer|57=TRADE|10=210|8=FIX.4.4|9=114|35=0|34=368|49=demo.ctrader.3873996|50=38739962p9cU7O3YXoF7yLJI1fm1w|52=20231226-15:03:32.848|56=cServer|57=TRADE|10=218|8=FIX.4.4|9=114|35=0|34=369|49=demo.ctrader.3873996|50=38739962p9cU7O3YXoF7yLJI1fm1w|52=20231226-15:04:03.844|56=cServer|57=TRADE|10=214|8=FIX.4.4|9=114|35=0|34=370|49=demo.ctrader.3873996|50=38739962p9cU7O3YXoF7yLJI1fm1w|52=20231226-15:04:34.844|56=cServer|57=TRADE|10=210|8=FIX.4.4|9=114|35=0|34=371|49=demo.ctrader.3873996|50=38739962p9cU7O3YXoF7yLJI1fm1w|52=20231226-15:05:05.851|56=cServer|57=TRADE|10=208|8=FIX.4.4|9=114|35=0|34=372|49=demo.ctrader.3873996|50=38739962p9cU7O3YXoF7yLJI1fm1w|52=20231226-15:05:35.852|56=cServer|57=TRADE|10=213|8=FIX.4.4|9=114|35=0|34=373|49=demo.ctrader.3873996|50=38739962p9cU7O3YXoF7yLJI1fm1w|52=20231226-15:06:05.865|56=cServer|57=TRADE|10=216|8=FIX.4.4|9=114|35=0|34=374|49=demo.ctrader.3873996|50=38739962p9cU7O3YXoF7yLJI1fm1w|52=20231226-15:06:36.865|56=cServer|57=TRADE|10=221|8=FIX.4.4|9=114|35=0|34=375|49=demo.ctrader.3873996|50=38739962p9cU7O3YXoF7yLJI1fm1w|52=20231226-15:07:06.878|56=cServer|57=TRADE|10=224|8=FIX.4.4|9=114|35=0|34=376|49=demo.ctrader.3873996|50=38739962p9cU7O3YXoF7yLJI1fm1w|52=20231226-15:07:37.847|56=cServer|57=TRADE|10=225|8=FIX.4.4|9=114|35=0|34=377|49=demo.ctrader.3873996|50=38739962p9cU7O3YXoF7yLJI1fm1w|52=20231226-15:08:07.852|56=cServer|57=TRADE|10=220|8=FIX.4.4|9=114|35=0|34=378|49=demo.ctrader.3873996|50=38739962p9cU7O3YXoF7yLJI1fm1w|52=20231226-15:08:37.890|56=cServer|57=TRADE|10=226|8=FIX.4.4|9=114|35=0|34=379|49=demo.ctrader.3873996|50=38739962p9cU7O3YXoF7yLJI1fm1w|52=20231226-15:09:08.664|56=cServer|57=TRADE|10=225|8=FIX.4.4|9=114|35=0|34=380|49=demo.ctrader.3873996|50=38739962p9cU7O3YXoF7yLJI1fm1w|52=20231226-15:09:38.868|56=cServer|57=TRADE|10=226|8=FIX.4.4|9=114|35=0|34=381|49=demo.ctrader.3873996|50=38739962p9cU7O3YXoF7yLJI1fm1w|52=20231226-15:10:08.928|56=cServer|57=TRADE|10=213|8=FIX.4.4|9=114|35=0|34=382|49=demo.ctrader.3873996|50=38739962p9cU7O3YXoF7yLJI1fm1w|52=20231226-15:10:39.889|56=cServer|57=TRADE|10=224|8=FIX.4.4|9=114|35=0|34=383|49=demo.ctrader.3873996|50=38739962p9cU7O3YXoF7yLJI1fm1w|52=20231226-15:11:10.874|56=cServer|57=TRADE|10=209|8=FIX.4.4|9=114|35=0|34=384|49=demo.ctrader.3873996|50=38739962p9cU7O3YXoF7yLJI1fm1w|52=20231226-15:11:40.895|56=cServer|57=TRADE|10=216|8=FIX.4.4|9=114|35=0|34=385|49=demo.ctrader.3873996|50=38739962p9cU7O3YXoF7yLJI1fm1w|52=20231226-15:12:10.903|56=cServer|57=TRADE|10=205|8=FIX.4.4|9=114|35=0|34=386|49=demo.ctrader.3873996|50=38739962p9cU7O3YXoF7yLJI1fm1w|52=20231226-15:12:41.895|56=cServer|57=TRADE|10=220|8=FIX.4.4|9=114|35=0|34=387|49=demo.ctrader.3873996|50=38739962p9cU7O3YXoF7yLJI1fm1w|52=20231226-15:13:11.930|56=cServer|57=TRADE|10=209|8=FIX.4.4|9=114|35=0|34=388|49=demo.ctrader.3873996|50=38739962p9cU7O3YXoF7yLJI1fm1w|52=20231226-15:13:42.912|56=cServer|57=TRADE|10=214|8=FIX.4.4|9=114|35=0|34=389|49=demo.ctrader.3873996|50=38739962p9cU7O3YXoF7yLJI1fm1w|52=20231226-15:14:12.915|56=cServer|57=TRADE|10=216|8=FIX.4.4|9=114|35=0|34=390|49=demo.ctrader.3873996|50=38739962p9cU7O3YXoF7yLJI1fm1w|52=20231226-15:14:42.944|56=cServer|57=TRADE|10=213|8=FIX.4.4|9=114|35=0|34=391|49=demo.ctrader.3873996|50=38739962p9cU7O3YXoF7yLJI1fm1w|52=20231226-15:15:13.149|56=cServer|57=TRADE|10=210|8=FIX.4.4|9=114|35=0|34=392|49=demo.ctrader.3873996|50=38739962p9cU7O3YXoF7yLJI1fm1w|52=20231226-15:15:43.959|56=cServer|57=TRADE|10=223|8=FIX.4.4|9=114|35=0|34=393|49=demo.ctrader.3873996|50=38739962p9cU7O3YXoF7yLJI1fm1w|52=20231226-15:16:14.896|56=cServer|57=TRADE|10=223|8=FIX.4.4|9=114|35=0|34=394|49=demo.ctrader.3873996|50=38739962p9cU7O3YXoF7yLJI1fm1w|52=20231226-15:16:44.902|56=cServer|57=TRADE|10=215|8=FIX.4.4|9=114|35=0|34=395|49=demo.ctrader.3873996|50=38739962p9cU7O3YXoF7yLJI1fm1w|52=20231226-15:17:14.907|56=cServer|57=TRADE|10=219|8=FIX.4.4|9=114|35=0|34=396|49=demo.ctrader.3873996|50=38739962p9cU7O3YXoF7yLJI1fm1w|52=20231226-15:17:44.916|56=cServer|57=TRADE|10=223|8=FIX.4.4|9=114|35=0|34=397|49=demo.ctrader.3873996|50=38739962p9cU7O3YXoF7yLJI1fm1w|52=20231226-15:18:15.869|56=cServer|57=TRADE|10=230|8=FIX.4.4|9=114|35=0|34=398|49=demo.ctrader.3873996|50=38739962p9cU7O3YXoF7yLJI1fm1w|52=20231226-15:18:45.928|56=cServer|57=TRADE|10=230|8=FIX.4.4|9=114|35=0|34=399|49=demo.ctrader.3873996|50=38739962p9cU7O3YXoF7yLJI1fm1w|52=20231226-15:19:16.905|56=cServer|57=TRADE|10=225|8=FIX.4.4|9=114|35=0|34=400|49=demo.ctrader.3873996|50=38739962p9cU7O3YXoF7yLJI1fm1w|52=20231226-15:19:47.914|56=cServer|57=TRADE|10=212|8=FIX.4.4|9=114|35=0|34=401|49=demo.ctrader.3873996|50=38739962p9cU7O3YXoF7yLJI1fm1w|52=20231226-15:20:17.944|56=cServer|57=TRADE|10=205|8=FIX.4.4|9=114|35=0|34=402|49=demo.ctrader.3873996|50=38739962p9cU7O3YXoF7yLJI1fm1w|52=20231226-15:20:48.741|56=cServer|57=TRADE|10=205|8=FIX.4.4|9=114|35=0|34=403|49=demo.ctrader.3873996|50=38739962p9cU7O3YXoF7yLJI1fm1w|52=20231226-15:21:19.739|56=cServer|57=TRADE|10=212|8=FIX.4.4|9=114|35=0|34=404|49=demo.ctrader.3873996|50=38739962p9cU7O3YXoF7yLJI1fm1w|52=20231226-15:21:50.464|56=cServer|57=TRADE|10=203|8=FIX.4.4|9=114|35=0|34=405|49=demo.ctrader.3873996|50=38739962p9cU7O3YXoF7yLJI1fm1w|52=20231226-15:22:20.763|56=cServer|57=TRADE|10=204|8=FIX.4.4|9=114|35=0|34=406|49=demo.ctrader.3873996|50=38739962p9cU7O3YXoF7yLJI1fm1w|52=20231226-15:22:50.782|56=cServer|57=TRADE|10=209|8=FIX.4.4|9=114|35=0|34=407|49=demo.ctrader.3873996|50=38739962p9cU7O3YXoF7yLJI1fm1w|52=20231226-15:23:21.751|56=cServer|57=TRADE|10=205|8=FIX.4.4|9=114|35=0|34=408|49=demo.ctrader.3873996|50=38739962p9cU7O3YXoF7yLJI1fm1w|52=20231226-15:23:51.763|56=cServer|57=TRADE|10=212|8=FIX.4.4|9=114|35=0|34=409|49=demo.ctrader.3873996|50=38739962p9cU7O3YXoF7yLJI1fm1w|52=20231226-15:24:21.774|56=cServer|57=TRADE|10=213|8=FIX.4.4|9=114|35=0|34=410|49=demo.ctrader.3873996|50=38739962p9cU7O3YXoF7yLJI1fm1w|52=20231226-15:24:52.782|56=cServer|57=TRADE|10=208|8=FIX.4.4|9=114|35=0|34=411|49=demo.ctrader.3873996|50=38739962p9cU7O3YXoF7yLJI1fm1w|52=20231226-15:25:23.774|56=cServer|57=TRADE|10=209|8=FIX.4.4|9=114|35=0|34=412|49=demo.ctrader.3873996|50=38739962p9cU7O3YXoF7yLJI1fm1w|52=20231226-15:25:54.773|56=cServer|57=TRADE|10=213|8=FIX.4.4|9=114|35=0|34=413|49=demo.ctrader.3873996|50=38739962p9cU7O3YXoF7yLJI1fm1w|52=20231226-15:26:24.785|56=cServer|57=TRADE|10=215|8=FIX.4.4|9=114|35=0|34=414|49=demo.ctrader.3873996|50=38739962p9cU7O3YXoF7yLJI1fm1w|52=20231226-15:26:54.868|56=cServer|57=TRADE|10=221|8=FIX.4.4|9=114|35=0|34=415|49=demo.ctrader.3873996|50=38739962p9cU7O3YXoF7yLJI1fm1w|52=20231226-15:27:25.794|56=cServer|57=TRADE|10=219|8=FIX.4.4|9=114|35=0|34=416|49=demo.ctrader.3873996|50=38739962p9cU7O3YXoF7yLJI1fm1w|52=20231226-15:27:56.179|56=cServer|57=TRADE|10=221|8=FIX.4.4|9=114|35=0|34=417|49=demo.ctrader.3873996|50=38739962p9cU7O3YXoF7yLJI1fm1w|52=20231226-15:28:26.792|56=cServer|57=TRADE|10=221|8=FIX.4.4|9=114|35=0|34=418|49=demo.ctrader.3873996|50=38739962p9cU7O3YXoF7yLJI1fm1w|52=20231226-15:28:56.792|56=cServer|57=TRADE|10=225|8=FIX.4.4|9=114|35=0|34=419|49=demo.ctrader.3873996|50=38739962p9cU7O3YXoF7yLJI1fm1w|52=20231226-15:29:27.795|56=cServer|57=TRADE|10=228|8=FIX.4.4|9=114|35=0|34=420|49=demo.ctrader.3873996|50=38739962p9cU7O3YXoF7yLJI1fm1w|52=20231226-15:29:57.799|56=cServer|57=TRADE|10=227|8=FIX.4.4|9=114|35=0|34=421|49=demo.ctrader.3873996|50=38739962p9cU7O3YXoF7yLJI1fm1w|52=20231226-15:30:27.845|56=cServer|57=TRADE|10=209|8=FIX.4.4|9=114|35=0|34=422|49=demo.ctrader.3873996|50=38739962p9cU7O3YXoF7yLJI1fm1w|52=20231226-15:30:58.810|56=cServer|57=TRADE|10=206|8=FIX.4.4|9=114|35=0|34=423|49=demo.ctrader.3873996|50=38739962p9cU7O3YXoF7yLJI1fm1w|52=20231226-15:31:28.811|56=cServer|57=TRADE|10=206|8=FIX.4.4|9=114|35=0|34=424|49=demo.ctrader.3873996|50=38739962p9cU7O3YXoF7yLJI1fm1w|52=20231226-15:31:59.822|56=cServer|57=TRADE|10=213|8=FIX.4.4|9=114|35=0|34=425|49=demo.ctrader.3873996|50=38739962p9cU7O3YXoF7yLJI1fm1w|52=20231226-15:32:29.834|56=cServer|57=TRADE|10=215|8=FIX.4.4|9=114|35=0|34=426|49=demo.ctrader.3873996|50=38739962p9cU7O3YXoF7yLJI1fm1w|52=20231226-15:33:00.822|56=cServer|57=TRADE|10=203|8=FIX.4.4|9=114|35=0|34=427|49=demo.ctrader.3873996|50=38739962p9cU7O3YXoF7yLJI1fm1w|52=20231226-15:33:31.817|56=cServer|57=TRADE|10=212|8=FIX.4.4|9=114|35=0|34=428|49=demo.ctrader.3873996|50=38739962p9cU7O3YXoF7yLJI1fm1w|52=20231226-15:34:02.817|56=cServer|57=TRADE|10=212|8=FIX.4.4|9=114|35=0|34=429|49=demo.ctrader.3873996|50=38739962p9cU7O3YXoF7yLJI1fm1w|52=20231226-15:34:32.898|56=cServer|57=TRADE|10=225|8=FIX.4.4|9=114|35=0|34=430|49=demo.ctrader.3873996|50=38739962p9cU7O3YXoF7yLJI1fm1w|52=20231226-15:35:03.842|56=cServer|57=TRADE|10=205|8=FIX.4.4|9=114|35=0|34=431|49=demo.ctrader.3873996|50=38739962p9cU7O3YXoF7yLJI1fm1w|52=20231226-15:35:34.854|56=cServer|57=TRADE|10=213|8=FIX.4.4|9=114|35=0|34=432|49=demo.ctrader.3873996|50=38739962p9cU7O3YXoF7yLJI1fm1w|52=20231226-15:36:05.833|56=cServer|57=TRADE|10=210|8=FIX.4.4|9=114|35=0|34=433|49=demo.ctrader.3873996|50=38739962p9cU7O3YXoF7yLJI1fm1w|52=20231226-15:36:35.839|56=cServer|57=TRADE|10=220|8=FIX.4.4|9=114|35=0|34=434|49=demo.ctrader.3873996|50=38739962p9cU7O3YXoF7yLJI1fm1w|52=20231226-15:37:05.846|56=cServer|57=TRADE|10=217|8=FIX.4.4|9=114|35=0|34=435|49=demo.ctrader.3873996|50=38739962p9cU7O3YXoF7yLJI1fm1w|52=20231226-15:37:35.853|56=cServer|57=TRADE|10=219|8=FIX.4.4|9=114|35=0|34=436|49=demo.ctrader.3873996|50=38739962p9cU7O3YXoF7yLJI1fm1w|52=20231226-15:38:05.887|56=cServer|57=TRADE|10=225|8=FIX.4.4|9=114|35=0|34=437|49=demo.ctrader.3873996|50=38739962p9cU7O3YXoF7yLJI1fm1w|52=20231226-15:38:36.889|56=cServer|57=TRADE|10=232|8=FIX.4.4|9=114|35=0|34=438|49=demo.ctrader.3873996|50=38739962p9cU7O3YXoF7yLJI1fm1w|52=20231226-15:39:07.858|56=cServer|57=TRADE|10=228|8=FIX.4.4|9=114|35=0|34=439|49=demo.ctrader.3873996|50=38739962p9cU7O3YXoF7yLJI1fm1w|52=20231226-15:39:37.864|56=cServer|57=TRADE|10=229|8=FIX.4.4|9=114|35=0|34=440|49=demo.ctrader.3873996|50=38739962p9cU7O3YXoF7yLJI1fm1w|52=20231226-15:40:07.898|56=cServer|57=TRADE|10=217|8=FIX.4.4|9=114|35=0|34=441|49=demo.ctrader.3873996|50=38739962p9cU7O3YXoF7yLJI1fm1w|52=20231226-15:40:37.915|56=cServer|57=TRADE|10=211|8=FIX.4.4|9=114|35=0|34=442|49=demo.ctrader.3873996|50=38739962p9cU7O3YXoF7yLJI1fm1w|52=20231226-15:41:08.901|56=cServer|57=TRADE|10=206|8=FIX.4.4|9=114|35=0|34=443|49=demo.ctrader.3873996|50=38739962p9cU7O3YXoF7yLJI1fm1w|52=20231226-15:41:39.879|56=cServer|57=TRADE|10=225|8=FIX.4.4|9=114|35=0|34=444|49=demo.ctrader.3873996|50=38739962p9cU7O3YXoF7yLJI1fm1w|52=20231226-15:42:09.897|56=cServer|57=TRADE|10=224|8=FIX.4.4|9=114|35=0|34=445|49=demo.ctrader.3873996|50=38739962p9cU7O3YXoF7yLJI1fm1w|52=20231226-15:42:39.921|56=cServer|57=TRADE|10=216|8=FIX.4.4|9=114|35=0|34=446|49=demo.ctrader.3873996|50=38739962p9cU7O3YXoF7yLJI1fm1w|52=20231226-15:43:10.836|56=cServer|57=TRADE|10=212|8=FIX.4.4|9=114|35=0|34=447|49=demo.ctrader.3873996|50=38739962p9cU7O3YXoF7yLJI1fm1w|52=20231226-15:43:40.868|56=cServer|57=TRADE|10=221|8=FIX.4.4|9=114|35=0|34=448|49=demo.ctrader.3873996|50=38739962p9cU7O3YXoF7yLJI1fm1w|52=20231226-15:44:10.979|56=cServer|57=TRADE|10=223|8=FIX.4.4|9=114|35=0|34=449|49=demo.ctrader.3873996|50=38739962p9cU7O3YXoF7yLJI1fm1w|52=20231226-15:44:41.864|56=cServer|57=TRADE|10=221|8=FIX.4.4|9=114|35=0|34=450|49=demo.ctrader.3873996|50=38739962p9cU7O3YXoF7yLJI1fm1w|52=20231226-15:45:11.898|56=cServer|57=TRADE|10=218|8=FIX.4.4|9=114|35=0|34=451|49=demo.ctrader.3873996|50=38739962p9cU7O3YXoF7yLJI1fm1w|52=20231226-15:45:41.902|56=cServer|57=TRADE|10=208|8=FIX.4.4|9=114|35=0|34=452|49=demo.ctrader.3873996|50=38739962p9cU7O3YXoF7yLJI1fm1w|52=20231226-15:46:12.520|56=cServer|57=TRADE|10=204|8=FIX.4.4|9=114|35=0|34=453|49=demo.ctrader.3873996|50=38739962p9cU7O3YXoF7yLJI1fm1w|52=20231226-15:46:42.896|56=cServer|57=TRADE|10=224|8=FIX.4.4|9=114|35=0|34=454|49=demo.ctrader.3873996|50=38739962p9cU7O3YXoF7yLJI1fm1w|52=20231226-15:47:12.913|56=cServer|57=TRADE|10=213|8=FIX.4.4|9=114|35=0|34=455|49=demo.ctrader.3873996|50=38739962p9cU7O3YXoF7yLJI1fm1w|52=20231226-15:47:43.909|56=cServer|57=TRADE|10=223|8=FIX.4.4|9=114|35=0|34=456|49=demo.ctrader.3873996|50=38739962p9cU7O3YXoF7yLJI1fm1w|52=20231226-15:48:14.878|56=cServer|57=TRADE|10=228|8=FIX.4.4|9=114|35=0|34=457|49=demo.ctrader.3873996|50=38739962p9cU7O3YXoF7yLJI1fm1w|52=20231226-15:48:45.884|56=cServer|57=TRADE|10=230|8=FIX.4.4|9=114|35=0|34=458|49=demo.ctrader.3873996|50=38739962p9cU7O3YXoF7yLJI1fm1w|52=20231226-15:49:15.944|56=cServer|57=TRADE|10=226|8=FIX.4.4|9=114|35=0|34=459|49=demo.ctrader.3873996|50=38739962p9cU7O3YXoF7yLJI1fm1w|52=20231226-15:49:45.950|56=cServer|57=TRADE|10=227|8=FIX.4.4|9=114|35=0|34=460|49=demo.ctrader.3873996|50=38739962p9cU7O3YXoF7yLJI1fm1w|52=20231226-15:50:16.924|56=cServer|57=TRADE|10=210|8=FIX.4.4|9=114|35=0|34=461|49=demo.ctrader.3873996|50=38739962p9cU7O3YXoF7yLJI1fm1w|52=20231226-15:50:46.928|56=cServer|57=TRADE|10=218|8=FIX.4.4|9=114|35=0|34=462|49=demo.ctrader.3873996|50=38739962p9cU7O3YXoF7yLJI1fm1w|52=20231226-15:51:16.931|56=cServer|57=TRADE|10=211|8=FIX.4.4|9=114|35=0|34=463|49=demo.ctrader.3873996|50=38739962p9cU7O3YXoF7yLJI1fm1w|52=20231226-15:51:46.948|56=cServer|57=TRADE|10=223|8=FIX.4.4|9=114|35=0|34=464|49=demo.ctrader.3873996|50=38739962p9cU7O3YXoF7yLJI1fm1w|52=20231226-15:52:17.131|56=cServer|57=TRADE|10=207|8=FIX.4.4|9=114|35=0|34=465|49=demo.ctrader.3873996|50=38739962p9cU7O3YXoF7yLJI1fm1w|52=20231226-15:52:47.973|56=cServer|57=TRADE|10=225|8=FIX.4.4|9=114|35=0|34=466|49=demo.ctrader.3873996|50=38739962p9cU7O3YXoF7yLJI1fm1w|52=20231226-15:53:18.738|56=cServer|57=TRADE|10=224|8=FIX.4.4|9=114|35=0|34=467|49=demo.ctrader.3873996|50=38739962p9cU7O3YXoF7yLJI1fm1w|52=20231226-15:53:48.754|56=cServer|57=TRADE|10=226|8=FIX.4.4|9=114|35=0|34=468|49=demo.ctrader.3873996|50=38739962p9cU7O3YXoF7yLJI1fm1w|52=20231226-15:54:19.750|56=cServer|57=TRADE|10=222|8=FIX.4.4|9=114|35=0|34=469|49=demo.ctrader.3873996|50=38739962p9cU7O3YXoF7yLJI1fm1w|52=20231226-15:54:50.750|56=cServer|57=TRADE|10=218|8=FIX.4.4|9=114|35=0|34=470|49=demo.ctrader.3873996|50=38739962p9cU7O3YXoF7yLJI1fm1w|52=20231226-15:55:21.754|56=cServer|57=TRADE|10=213|8=FIX.4.4|9=114|35=0|34=471|49=demo.ctrader.3873996|50=38739962p9cU7O3YXoF7yLJI1fm1w|52=20231226-15:55:51.761|56=cServer|57=TRADE|10=215|8=FIX.4.4|9=114|35=0|34=472|49=demo.ctrader.3873996|50=38739962p9cU7O3YXoF7yLJI1fm1w|52=20231226-15:56:22.753|56=cServer|57=TRADE|10=216|8=FIX.4.4|9=114|35=0|34=473|49=demo.ctrader.3873996|50=38739962p9cU7O3YXoF7yLJI1fm1w|52=20231226-15:56:52.775|56=cServer|57=TRADE|10=224|8=FIX.4.4|9=114|35=0|34=474|49=demo.ctrader.3873996|50=38739962p9cU7O3YXoF7yLJI1fm1w|52=20231226-15:57:23.780|56=cServer|57=TRADE|10=220|8=FIX.4.4|9=114|35=0|34=475|49=demo.ctrader.3873996|50=38739962p9cU7O3YXoF7yLJI1fm1w|52=20231226-15:57:54.782|56=cServer|57=TRADE|10=227|8=FIX.4.4|9=114|35=0|34=476|49=demo.ctrader.3873996|50=38739962p9cU7O3YXoF7yLJI1fm1w|52=20231226-15:58:24.790|56=cServer|57=TRADE|10=225|8=FIX.4.4|9=114|35=0|34=477|49=demo.ctrader.3873996|50=38739962p9cU7O3YXoF7yLJI1fm1w|52=20231226-15:58:55.780|56=cServer|57=TRADE|10=229|8=FIX.4.4|9=114|35=0|34=478|49=demo.ctrader.3873996|50=38739962p9cU7O3YXoF7yLJI1fm1w|52=20231226-15:59:25.783|56=cServer|57=TRADE|10=231|8=FIX.4.4|9=114|35=0|34=479|49=demo.ctrader.3873996|50=38739962p9cU7O3YXoF7yLJI1fm1w|52=20231226-15:59:56.784|56=cServer|57=TRADE|10=237|8=FIX.4.4|9=114|35=0|34=480|49=demo.ctrader.3873996|50=38739962p9cU7O3YXoF7yLJI1fm1w|52=20231226-16:00:26.790|56=cServer|57=TRADE|10=210|8=FIX.4.4|9=114|35=0|34=481|49=demo.ctrader.3873996|50=38739962p9cU7O3YXoF7yLJI1fm1w|52=20231226-16:00:56.791|56=cServer|57=TRADE|10=215|8=FIX.4.4|9=114|35=0|34=482|49=demo.ctrader.3873996|50=38739962p9cU7O3YXoF7yLJI1fm1w|52=20231226-16:01:26.794|56=cServer|57=TRADE|10=217|8=FIX.4.4|9=114|35=0|34=483|49=demo.ctrader.3873996|50=38739962p9cU7O3YXoF7yLJI1fm1w|52=20231226-16:01:56.820|56=cServer|57=TRADE|10=211|8=FIX.4.4|9=114|35=0|34=484|49=demo.ctrader.3873996|50=38739962p9cU7O3YXoF7yLJI1fm1w|52=20231226-16:02:27.795|56=cServer|57=TRADE|10=222|8=FIX.4.4|9=114|35=0|34=485|49=demo.ctrader.3873996|50=38739962p9cU7O3YXoF7yLJI1fm1w|52=20231226-16:02:57.824|56=cServer|57=TRADE|10=219|8=FIX.4.4|9=114|35=0|34=486|49=demo.ctrader.3873996|50=38739962p9cU7O3YXoF7yLJI1fm1w|52=20231226-16:03:28.793|56=cServer|57=TRADE|10=224|8=FIX.4.4|9=114|35=0|34=487|49=demo.ctrader.3873996|50=38739962p9cU7O3YXoF7yLJI1fm1w|52=20231226-16:03:58.824|56=cServer|57=TRADE|10=223|8=FIX.4.4|9=114|35=0|34=488|49=demo.ctrader.3873996|50=38739962p9cU7O3YXoF7yLJI1fm1w|52=20231226-16:04:29.818|56=cServer|57=TRADE|10=226|8=FIX.4.4|9=114|35=0|34=489|49=demo.ctrader.3873996|50=38739962p9cU7O3YXoF7yLJI1fm1w|52=20231226-16:04:59.820|56=cServer|57=TRADE|10=223|8=FIX.4.4|9=114|35=0|34=490|49=demo.ctrader.3873996|50=38739962p9cU7O3YXoF7yLJI1fm1w|52=20231226-16:05:30.818|56=cServer|57=TRADE|10=212|8=FIX.4.4|9=114|35=0|34=491|49=demo.ctrader.3873996|50=38739962p9cU7O3YXoF7yLJI1fm1w|52=20231226-16:06:01.817|56=cServer|57=TRADE|10=211|8=FIX.4.4|9=114|35=0|34=492|49=demo.ctrader.3873996|50=38739962p9cU7O3YXoF7yLJI1fm1w|52=20231226-16:06:31.835|56=cServer|57=TRADE|10=215|8=FIX.4.4|9=114|35=0|34=493|49=demo.ctrader.3873996|50=38739962p9cU7O3YXoF7yLJI1fm1w|52=20231226-16:07:02.807|56=cServer|57=TRADE|10=214|8=FIX.4.4|9=114|35=0|34=494|49=demo.ctrader.3873996|50=38739962p9cU7O3YXoF7yLJI1fm1w|52=20231226-16:07:32.825|56=cServer|57=TRADE|10=218|8=FIX.4.4|9=114|35=0|34=495|49=demo.ctrader.3873996|50=38739962p9cU7O3YXoF7yLJI1fm1w|52=20231226-16:08:02.835|56=cServer|57=TRADE|10=218|8=FIX.4.4|9=114|35=0|34=496|49=demo.ctrader.3873996|50=38739962p9cU7O3YXoF7yLJI1fm1w|52=20231226-16:08:33.839|56=cServer|57=TRADE|10=227|8=FIX.4.4|9=114|35=0|34=497|49=demo.ctrader.3873996|50=38739962p9cU7O3YXoF7yLJI1fm1w|52=20231226-16:09:03.855|56=cServer|57=TRADE|10=224|8=FIX.4.4|9=114|35=0|34=498|49=demo.ctrader.3873996|50=38739962p9cU7O3YXoF7yLJI1fm1w|52=20231226-16:09:34.826|56=cServer|57=TRADE|10=227|8=FIX.4.4|9=114|35=0|34=499|49=demo.ctrader.3873996|50=38739962p9cU7O3YXoF7yLJI1fm1w|52=20231226-16:10:04.842|56=cServer|57=TRADE|10=215|8=FIX.4.4|9=114|35=0|34=500|49=demo.ctrader.3873996|50=38739962p9cU7O3YXoF7yLJI1fm1w|52=20231226-16:10:34.853|56=cServer|57=TRADE|10=203|8=FIX.4.4|9=114|35=0|34=501|49=demo.ctrader.3873996|50=38739962p9cU7O3YXoF7yLJI1fm1w|52=20231226-16:11:05.854|56=cServer|57=TRADE|10=204|8=FIX.4.4|9=114|35=0|34=502|49=demo.ctrader.3873996|50=38739962p9cU7O3YXoF7yLJI1fm1w|52=20231226-16:11:36.837|56=cServer|57=TRADE|10=210|8=FIX.4.4|9=114|35=0|34=503|49=demo.ctrader.3873996|50=38739962p9cU7O3YXoF7yLJI1fm1w|52=20231226-16:12:06.872|56=cServer|57=TRADE|10=208|8=FIX.4.4|9=114|35=0|34=504|49=demo.ctrader.3873996|50=38739962p9cU7O3YXoF7yLJI1fm1w|52=20231226-16:12:36.911|56=cServer|57=TRADE|10=206|8=FIX.4.4|9=114|35=0|34=505|49=demo.ctrader.3873996|50=38739962p9cU7O3YXoF7yLJI1fm1w|52=20231226-16:13:07.852|56=cServer|57=TRADE|10=210|8=FIX.4.4|9=114|35=0|34=506|49=demo.ctrader.3873996|50=38739962p9cU7O3YXoF7yLJI1fm1w|52=20231226-16:13:38.857|56=cServer|57=TRADE|10=220|8=FIX.4.4|9=114|35=0|34=507|49=demo.ctrader.3873996|50=38739962p9cU7O3YXoF7yLJI1fm1w|52=20231226-16:14:08.873|56=cServer|57=TRADE|10=217|8=FIX.4.4|9=114|35=0|34=508|49=demo.ctrader.3873996|50=38739962p9cU7O3YXoF7yLJI1fm1w|52=20231226-16:14:38.886|56=cServer|57=TRADE|10=225|8=FIX.4.4|9=114|35=0|34=509|49=demo.ctrader.3873996|50=38739962p9cU7O3YXoF7yLJI1fm1w|52=20231226-16:15:09.041|56=cServer|57=TRADE|10=208|8=FIX.4.4|9=114|35=0|34=510|49=demo.ctrader.3873996|50=38739962p9cU7O3YXoF7yLJI1fm1w|52=20231226-16:15:39.936|56=cServer|57=TRADE|10=216|8=FIX.4.4|9=114|35=0|34=511|49=demo.ctrader.3873996|50=38739962p9cU7O3YXoF7yLJI1fm1w|52=20231226-16:16:10.920|56=cServer|57=TRADE|10=200|8=FIX.4.4|9=114|35=0|34=512|49=demo.ctrader.3873996|50=38739962p9cU7O3YXoF7yLJI1fm1w|52=20231226-16:16:41.909|56=cServer|57=TRADE|10=212|8=FIX.4.4|9=114|35=0|34=513|49=demo.ctrader.3873996|50=38739962p9cU7O3YXoF7yLJI1fm1w|52=20231226-16:17:11.912|56=cServer|57=TRADE|10=205|8=FIX.4.4|9=114|35=0|34=514|49=demo.ctrader.3873996|50=38739962p9cU7O3YXoF7yLJI1fm1w|52=20231226-16:17:42.905|56=cServer|57=TRADE|10=212|8=FIX.4.4|9=114|35=0|34=515|49=demo.ctrader.3873996|50=38739962p9cU7O3YXoF7yLJI1fm1w|52=20231226-16:18:12.925|56=cServer|57=TRADE|10=213|8=FIX.4.4|9=114|35=0|34=516|49=demo.ctrader.3873996|50=38739962p9cU7O3YXoF7yLJI1fm1w|52=20231226-16:18:42.928|56=cServer|57=TRADE|10=220|8=FIX.4.4|9=114|35=0|34=517|49=demo.ctrader.3873996|50=38739962p9cU7O3YXoF7yLJI1fm1w|52=20231226-16:19:13.880|56=cServer|57=TRADE|10=217|8=FIX.4.4|9=114|35=0|34=518|49=demo.ctrader.3873996|50=38739962p9cU7O3YXoF7yLJI1fm1w|52=20231226-16:19:43.930|56=cServer|57=TRADE|10=217|8=FIX.4.4|9=114|35=0|34=519|49=demo.ctrader.3873996|50=38739962p9cU7O3YXoF7yLJI1fm1w|52=20231226-16:20:13.945|56=cServer|57=TRADE|10=213|8=FIX.4.4|9=114|35=0|34=520|49=demo.ctrader.3873996|50=38739962p9cU7O3YXoF7yLJI1fm1w|52=20231226-16:20:44.952|56=cServer|57=TRADE|10=207|8=FIX.4.4|9=114|35=0|34=521|49=demo.ctrader.3873996|50=38739962p9cU7O3YXoF7yLJI1fm1w|52=20231226-16:21:15.949|56=cServer|57=TRADE|10=213|8=FIX.4.4|9=114|35=0|34=522|49=demo.ctrader.3873996|50=38739962p9cU7O3YXoF7yLJI1fm1w|52=20231226-16:21:46.954|56=cServer|57=TRADE|10=214|8=FIX.4.4|9=114|35=0|34=523|49=demo.ctrader.3873996|50=38739962p9cU7O3YXoF7yLJI1fm1w|52=20231226-16:22:17.957|56=cServer|57=TRADE|10=217|8=FIX.4.4|9=114|35=0|34=524|49=demo.ctrader.3873996|50=38739962p9cU7O3YXoF7yLJI1fm1w|52=20231226-16:22:47.960|56=cServer|57=TRADE|10=215|8=FIX.4.4|9=114|35=0|34=525|49=demo.ctrader.3873996|50=38739962p9cU7O3YXoF7yLJI1fm1w|52=20231226-16:23:17.984|56=cServer|57=TRADE|10=220|8=FIX.4.4|9=114|35=0|34=526|49=demo.ctrader.3873996|50=38739962p9cU7O3YXoF7yLJI1fm1w|52=20231226-16:23:48.740|56=cServer|57=TRADE|10=215|8=FIX.4.4|9=114|35=0|34=527|49=demo.ctrader.3873996|50=38739962p9cU7O3YXoF7yLJI1fm1w|52=20231226-16:24:19.742|56=cServer|57=TRADE|10=217|8=FIX.4.4|9=114|35=0|34=528|49=demo.ctrader.3873996|50=38739962p9cU7O3YXoF7yLJI1fm1w|52=20231226-16:24:49.750|56=cServer|57=TRADE|10=220|8=FIX.4.4|9=114|35=0|34=529|49=demo.ctrader.3873996|50=38739962p9cU7O3YXoF7yLJI1fm1w|52=20231226-16:25:20.748|56=cServer|57=TRADE|10=218|8=FIX.4.4|9=114|35=0|34=530|49=demo.ctrader.3873996|50=38739962p9cU7O3YXoF7yLJI1fm1w|52=20231226-16:25:51.747|56=cServer|57=TRADE|10=213|8=FIX.4.4|9=114|35=0|34=531|49=demo.ctrader.3873996|50=38739962p9cU7O3YXoF7yLJI1fm1w|52=20231226-16:26:21.755|56=cServer|57=TRADE|10=211|8=FIX.4.4|9=114|35=0|34=532|49=demo.ctrader.3873996|50=38739962p9cU7O3YXoF7yLJI1fm1w|52=20231226-16:26:51.760|56=cServer|57=TRADE|10=211|8=FIX.4.4|9=114|35=0|34=533|49=demo.ctrader.3873996|50=38739962p9cU7O3YXoF7yLJI1fm1w|52=20231226-16:27:22.754|56=cServer|57=TRADE|10=214|8=FIX.4.4|9=114|35=0|34=534|49=demo.ctrader.3873996|50=38739962p9cU7O3YXoF7yLJI1fm1w|52=20231226-16:27:52.758|56=cServer|57=TRADE|10=222|8=FIX.4.4|9=114|35=0|34=535|49=demo.ctrader.3873996|50=38739962p9cU7O3YXoF7yLJI1fm1w|52=20231226-16:28:22.833|56=cServer|57=TRADE|10=215|8=FIX.4.4|9=114|35=0|34=536|49=demo.ctrader.3873996|50=38739962p9cU7O3YXoF7yLJI1fm1w|52=20231226-16:28:53.783|56=cServer|57=TRADE|10=224|8=FIX.4.4|9=114|35=0|34=537|49=demo.ctrader.3873996|50=38739962p9cU7O3YXoF7yLJI1fm1w|52=20231226-16:29:24.789|56=cServer|57=TRADE|10=230|8=FIX.4.4|9=114|35=0|34=538|49=demo.ctrader.3873996|50=38739962p9cU7O3YXoF7yLJI1fm1w|52=20231226-16:29:55.792|56=cServer|57=TRADE|10=229|8=FIX.4.4|9=114|35=0|34=539|49=demo.ctrader.3873996|50=38739962p9cU7O3YXoF7yLJI1fm1w|52=20231226-16:30:26.789|56=cServer|57=TRADE|10=226|8=FIX.4.4|9=114|35=0|34=540|49=demo.ctrader.3873996|50=38739962p9cU7O3YXoF7yLJI1fm1w|52=20231226-16:30:56.799|56=cServer|57=TRADE|10=222|8=FIX.4.4|9=114|35=0|34=541|49=demo.ctrader.3873996|50=38739962p9cU7O3YXoF7yLJI1fm1w|52=20231226-16:31:27.795|56=cServer|57=TRADE|10=218|8=FIX.4.4|9=114|35=0|34=542|49=demo.ctrader.3873996|50=38739962p9cU7O3YXoF7yLJI1fm1w|52=20231226-16:31:57.802|56=cServer|57=TRADE|10=211|8=FIX.4.4|9=114|35=0|34=543|49=demo.ctrader.3873996|50=38739962p9cU7O3YXoF7yLJI1fm1w|52=20231226-16:32:28.799|56=cServer|57=TRADE|10=226|8=FIX.4.4|9=114|35=0|34=544|49=demo.ctrader.3873996|50=38739962p9cU7O3YXoF7yLJI1fm1w|52=20231226-16:32:59.801|56=cServer|57=TRADE|10=215|8=FIX.4.4|9=114|35=0|34=545|49=demo.ctrader.3873996|50=38739962p9cU7O3YXoF7yLJI1fm1w|52=20231226-16:33:29.824|56=cServer|57=TRADE|10=219|8=FIX.4.4|9=114|35=0|34=546|49=demo.ctrader.3873996|50=38739962p9cU7O3YXoF7yLJI1fm1w|52=20231226-16:34:00.833|56=cServer|57=TRADE|10=210|8=FIX.4.4|9=114|35=0|34=547|49=demo.ctrader.3873996|50=38739962p9cU7O3YXoF7yLJI1fm1w|52=20231226-16:34:31.830|56=cServer|57=TRADE|10=212|8=FIX.4.4|9=114|35=0|34=548|49=demo.ctrader.3873996|50=38739962p9cU7O3YXoF7yLJI1fm1w|52=20231226-16:35:01.853|56=cServer|57=TRADE|10=216|8=FIX.4.4|9=114|35=0|34=549|49=demo.ctrader.3873996|50=38739962p9cU7O3YXoF7yLJI1fm1w|52=20231226-16:35:32.855|56=cServer|57=TRADE|10=223|8=FIX.4.4|9=114|35=0|34=550|49=demo.ctrader.3873996|50=38739962p9cU7O3YXoF7yLJI1fm1w|52=20231226-16:36:03.851|56=cServer|57=TRADE|10=210|8=FIX.4.4|9=114|35=0|34=551|49=demo.ctrader.3873996|50=38739962p9cU7O3YXoF7yLJI1fm1w|52=20231226-16:36:34.839|56=cServer|57=TRADE|10=221|8=FIX.4.4|9=114|35=0|34=552|49=demo.ctrader.3873996|50=38739962p9cU7O3YXoF7yLJI1fm1w|52=20231226-16:37:04.844|56=cServer|57=TRADE|10=216|8=FIX.4.4|9=114|35=0|34=553|49=demo.ctrader.3873996|50=38739962p9cU7O3YXoF7yLJI1fm1w|52=20231226-16:37:34.867|56=cServer|57=TRADE|10=225|8=FIX.4.4|9=114|35=0|34=554|49=demo.ctrader.3873996|50=38739962p9cU7O3YXoF7yLJI1fm1w|52=20231226-16:38:04.869|56=cServer|57=TRADE|10=226|8=FIX.4.4|9=114|35=0|34=555|49=demo.ctrader.3873996|50=38739962p9cU7O3YXoF7yLJI1fm1w|52=20231226-16:38:35.870|56=cServer|57=TRADE|10=223|8=FIX.4.4|9=114|35=0|34=556|49=demo.ctrader.3873996|50=38739962p9cU7O3YXoF7yLJI1fm1w|52=20231226-16:39:06.039|56=cServer|57=TRADE|10=220|8=FIX.4.4|9=114|35=0|34=557|49=demo.ctrader.3873996|50=38739962p9cU7O3YXoF7yLJI1fm1w|52=20231226-16:39:36.890|56=cServer|57=TRADE|10=229|8=FIX.4.4|9=114|35=0|34=558|49=demo.ctrader.3873996|50=38739962p9cU7O3YXoF7yLJI1fm1w|52=20231226-16:40:07.858|56=cServer|57=TRADE|10=224|8=FIX.4.4|9=114|35=0|34=559|49=demo.ctrader.3873996|50=38739962p9cU7O3YXoF7yLJI1fm1w|52=20231226-16:40:37.901|56=cServer|57=TRADE|10=217|8=FIX.4.4|9=114|35=0|34=560|49=demo.ctrader.3873996|50=38739962p9cU7O3YXoF7yLJI1fm1w|52=20231226-16:41:08.876|56=cServer|57=TRADE|10=219|8=FIX.4.4|9=114|35=0|34=561|49=demo.ctrader.3873996|50=38739962p9cU7O3YXoF7yLJI1fm1w|52=20231226-16:41:38.898|56=cServer|57=TRADE|10=227|8=FIX.4.4|9=114|35=0|34=562|49=demo.ctrader.3873996|50=38739962p9cU7O3YXoF7yLJI1fm1w|52=20231226-16:42:09.874|56=cServer|57=TRADE|10=221|8=FIX.4.4|9=114|35=0|34=563|49=demo.ctrader.3873996|50=38739962p9cU7O3YXoF7yLJI1fm1w|52=20231226-16:42:40.872|56=cServer|57=TRADE|10=215|8=FIX.4.4|9=114|35=0|34=564|49=demo.ctrader.3873996|50=38739962p9cU7O3YXoF7yLJI1fm1w|52=20231226-16:43:11.875|56=cServer|57=TRADE|10=218|8=FIX.4.4|9=114|35=0|34=565|49=demo.ctrader.3873996|50=38739962p9cU7O3YXoF7yLJI1fm1w|52=20231226-16:43:42.498|56=cServer|57=TRADE|10=224|8=FIX.4.4|9=114|35=0|34=566|49=demo.ctrader.3873996|50=38739962p9cU7O3YXoF7yLJI1fm1w|52=20231226-16:44:13.144|56=cServer|57=TRADE|10=212|8=FIX.4.4|9=114|35=0|34=567|49=demo.ctrader.3873996|50=38739962p9cU7O3YXoF7yLJI1fm1w|52=20231226-16:44:43.151|56=cServer|57=TRADE|10=214|8=FIX.4.4|9=114|35=0|34=568|49=demo.ctrader.3873996|50=38739962p9cU7O3YXoF7yLJI1fm1w|52=20231226-16:45:14.059|56=cServer|57=TRADE|10=221|8=FIX.4.4|9=114|35=0|34=569|49=demo.ctrader.3873996|50=38739962p9cU7O3YXoF7yLJI1fm1w|52=20231226-16:45:44.384|56=cServer|57=TRADE|10=226|8=FIX.4.4|9=114|35=0|34=570|49=demo.ctrader.3873996|50=38739962p9cU7O3YXoF7yLJI1fm1w|52=20231226-16:46:15.001|56=cServer|57=TRADE|10=203|8=FIX.4.4|9=114|35=0|34=571|49=demo.ctrader.3873996|50=38739962p9cU7O3YXoF7yLJI1fm1w|52=20231226-16:46:45.909|56=cServer|57=TRADE|10=224|8=FIX.4.4|9=114|35=0|34=572|49=demo.ctrader.3873996|50=38739962p9cU7O3YXoF7yLJI1fm1w|52=20231226-16:47:16.666|56=cServer|57=TRADE|10=224|8=FIX.4.4|9=114|35=0|34=573|49=demo.ctrader.3873996|50=38739962p9cU7O3YXoF7yLJI1fm1w|52=20231226-16:47:46.691|56=cServer|57=TRADE|10=226|8=FIX.4.4|9=114|35=0|34=574|49=demo.ctrader.3873996|50=38739962p9cU7O3YXoF7yLJI1fm1w|52=20231226-16:48:16.980|56=cServer|57=TRADE|10=226|8=FIX.4.4|9=114|35=0|34=575|49=demo.ctrader.3873996|50=38739962p9cU7O3YXoF7yLJI1fm1w|52=20231226-16:48:47.913|56=cServer|57=TRADE|10=227|8=FIX.4.4|9=114|35=0|34=576|49=demo.ctrader.3873996|50=38739962p9cU7O3YXoF7yLJI1fm1w|52=20231226-16:49:18.738|56=cServer|57=TRADE|10=232|8=FIX.4.4|9=114|35=0|34=577|49=demo.ctrader.3873996|50=38739962p9cU7O3YXoF7yLJI1fm1w|52=20231226-16:49:48.742|56=cServer|57=TRADE|10=231|8=FIX.4.4|9=114|35=0|34=578|49=demo.ctrader.3873996|50=38739962p9cU7O3YXoF7yLJI1fm1w|52=20231226-16:50:19.746|56=cServer|57=TRADE|10=226|8=FIX.4.4|9=114|35=0|34=579|49=demo.ctrader.3873996|50=38739962p9cU7O3YXoF7yLJI1fm1w|52=20231226-16:50:49.765|56=cServer|57=TRADE|10=231|8=FIX.4.4|9=114|35=0|34=580|49=demo.ctrader.3873996|50=38739962p9cU7O3YXoF7yLJI1fm1w|52=20231226-16:51:20.741|56=cServer|57=TRADE|10=207|8=FIX.4.4|9=114|35=0|34=581|49=demo.ctrader.3873996|50=38739962p9cU7O3YXoF7yLJI1fm1w|52=20231226-16:51:51.748|56=cServer|57=TRADE|10=219|8=FIX.4.4|9=114|35=0|34=582|49=demo.ctrader.3873996|50=38739962p9cU7O3YXoF7yLJI1fm1w|52=20231226-16:52:21.756|56=cServer|57=TRADE|10=217|8=FIX.4.4|9=114|35=0|34=583|49=demo.ctrader.3873996|50=38739962p9cU7O3YXoF7yLJI1fm1w|52=20231226-16:52:51.764|56=cServer|57=TRADE|10=220|8=FIX.4.4|9=114|35=0|34=584|49=demo.ctrader.3873996|50=38739962p9cU7O3YXoF7yLJI1fm1w|52=20231226-16:53:21.765|56=cServer|57=TRADE|10=220|8=FIX.4.4|9=114|35=0|34=585|49=demo.ctrader.3873996|50=38739962p9cU7O3YXoF7yLJI1fm1w|52=20231226-16:53:52.772|56=cServer|57=TRADE|10=223|8=FIX.4.4|9=114|35=0|34=586|49=demo.ctrader.3873996|50=38739962p9cU7O3YXoF7yLJI1fm1w|52=20231226-16:54:23.770|56=cServer|57=TRADE|10=221|8=FIX.4.4|9=114|35=0|34=587|49=demo.ctrader.3873996|50=38739962p9cU7O3YXoF7yLJI1fm1w|52=20231226-16:54:54.771|56=cServer|57=TRADE|10=227|8=FIX.4.4|9=114|35=0|34=588|49=demo.ctrader.3873996|50=38739962p9cU7O3YXoF7yLJI1fm1w|52=20231226-16:55:25.774|56=cServer|57=TRADE|10=230|8=FIX.4.4|9=114|35=0|34=589|49=demo.ctrader.3873996|50=38739962p9cU7O3YXoF7yLJI1fm1w|52=20231226-16:55:55.780|56=cServer|57=TRADE|10=231|8=FIX.4.4|9=114|35=0|34=590|49=demo.ctrader.3873996|50=38739962p9cU7O3YXoF7yLJI1fm1w|52=20231226-16:56:25.790|56=cServer|57=TRADE|10=222|8=FIX.4.4|9=114|35=0|34=591|49=demo.ctrader.3873996|50=38739962p9cU7O3YXoF7yLJI1fm1w|52=20231226-16:56:56.795|56=cServer|57=TRADE|10=232|8=FIX.4.4|9=114|35=0|34=592|49=demo.ctrader.3873996|50=38739962p9cU7O3YXoF7yLJI1fm1w|52=20231226-16:57:26.808|56=cServer|57=TRADE|10=226|8=FIX.4.4|9=114|35=0|34=593|49=demo.ctrader.3873996|50=38739962p9cU7O3YXoF7yLJI1fm1w|52=20231226-16:57:57.814|56=cServer|57=TRADE|10=228|8=FIX.4.4|9=114|35=0|34=594|49=demo.ctrader.3873996|50=38739962p9cU7O3YXoF7yLJI1fm1w|52=20231226-16:58:28.826|56=cServer|57=TRADE|10=231|8=FIX.4.4|9=114|35=0|34=595|49=demo.ctrader.3873996|50=38739962p9cU7O3YXoF7yLJI1fm1w|52=20231226-16:58:59.800|56=cServer|57=TRADE|10=228|8=FIX.4.4|9=114|35=0|34=596|49=demo.ctrader.3873996|50=38739962p9cU7O3YXoF7yLJI1fm1w|52=20231226-16:59:29.825|56=cServer|57=TRADE|10=234|8=FIX.4.4|9=114|35=0|34=597|49=demo.ctrader.3873996|50=38739962p9cU7O3YXoF7yLJI1fm1w|52=20231226-17:00:00.825|56=cServer|57=TRADE|10=211|8=FIX.4.4|9=114|35=0|34=598|49=demo.ctrader.3873996|50=38739962p9cU7O3YXoF7yLJI1fm1w|52=20231226-17:00:30.828|56=cServer|57=TRADE|10=218|8=FIX.4.4|9=114|35=0|34=599|49=demo.ctrader.3873996|50=38739962p9cU7O3YXoF7yLJI1fm1w|52=20231226-17:01:00.895|56=cServer|57=TRADE|10=221|8=FIX.4.4|9=114|35=0|34=600|49=demo.ctrader.3873996|50=38739962p9cU7O3YXoF7yLJI1fm1w|52=20231226-17:01:31.847|56=cServer|57=TRADE|10=205|8=FIX.4.4|9=114|35=0|34=601|49=demo.ctrader.3873996|50=38739962p9cU7O3YXoF7yLJI1fm1w|52=20231226-17:02:02.831|56=cServer|57=TRADE|10=198|8=FIX.4.4|9=114|35=0|34=602|49=demo.ctrader.3873996|50=38739962p9cU7O3YXoF7yLJI1fm1w|52=20231226-17:02:32.843|56=cServer|57=TRADE|10=205|8=FIX.4.4|9=114|35=0|34=603|49=demo.ctrader.3873996|50=38739962p9cU7O3YXoF7yLJI1fm1w|52=20231226-17:03:03.832|56=cServer|57=TRADE|10=203|8=FIX.4.4|9=114|35=0|34=604|49=demo.ctrader.3873996|50=38739962p9cU7O3YXoF7yLJI1fm1w|52=20231226-17:03:33.844|56=cServer|57=TRADE|10=210|8=FIX.4.4|9=114|35=0|34=605|49=demo.ctrader.3873996|50=38739962p9cU7O3YXoF7yLJI1fm1w|52=20231226-17:04:04.849|56=cServer|57=TRADE|10=215|8=FIX.4.4|9=114|35=0|34=606|49=demo.ctrader.3873996|50=38739962p9cU7O3YXoF7yLJI1fm1w|52=20231226-17:04:34.863|56=cServer|57=TRADE|10=215|8=FIX.4.4|9=114|35=0|34=607|49=demo.ctrader.3873996|50=38739962p9cU7O3YXoF7yLJI1fm1w|52=20231226-17:05:05.852|56=cServer|57=TRADE|10=213|8=FIX.4.4|9=114|35=0|34=608|49=demo.ctrader.3873996|50=38739962p9cU7O3YXoF7yLJI1fm1w|52=20231226-17:05:36.849|56=cServer|57=TRADE|10=224|8=FIX.4.4|9=114|35=0|34=609|49=demo.ctrader.3873996|50=38739962p9cU7O3YXoF7yLJI1fm1w|52=20231226-17:06:06.855|56=cServer|57=TRADE|10=220|8=FIX.4.4|9=114|35=0|34=610|49=demo.ctrader.3873996|50=38739962p9cU7O3YXoF7yLJI1fm1w|52=20231226-17:06:36.877|56=cServer|57=TRADE|10=219|8=FIX.4.4|9=114|35=0|34=611|49=demo.ctrader.3873996|50=38739962p9cU7O3YXoF7yLJI1fm1w|52=20231226-17:07:06.904|56=cServer|57=TRADE|10=209|8=FIX.4.4|9=114|35=0|34=612|49=demo.ctrader.3873996|50=38739962p9cU7O3YXoF7yLJI1fm1w|52=20231226-17:07:36.931|56=cServer|57=TRADE|10=213|8=FIX.4.4|9=114|35=0|34=613|49=demo.ctrader.3873996|50=38739962p9cU7O3YXoF7yLJI1fm1w|52=20231226-17:08:07.879|56=cServer|57=TRADE|10=224|8=FIX.4.4|9=114|35=0|34=614|49=demo.ctrader.3873996|50=38739962p9cU7O3YXoF7yLJI1fm1w|52=20231226-17:08:37.887|56=cServer|57=TRADE|10=227|8=FIX.4.4|9=114|35=0|34=615|49=demo.ctrader.3873996|50=38739962p9cU7O3YXoF7yLJI1fm1w|52=20231226-17:09:07.904|56=cServer|57=TRADE|10=216|8=FIX.4.4|9=114|35=0|34=616|49=demo.ctrader.3873996|50=38739962p9cU7O3YXoF7yLJI1fm1w|52=20231226-17:09:38.913|56=cServer|57=TRADE|10=221|8=FIX.4.4|9=114|35=0|34=617|49=demo.ctrader.3873996|50=38739962p9cU7O3YXoF7yLJI1fm1w|52=20231226-17:10:09.886|56=cServer|57=TRADE|10=221|8=FIX.4.4|9=114|35=0|34=618|49=demo.ctrader.3873996|50=38739962p9cU7O3YXoF7yLJI1fm1w|52=20231226-17:10:39.889|56=cServer|57=TRADE|10=228|8=FIX.4.4|9=114|35=0|34=619|49=demo.ctrader.3873996|50=38739962p9cU7O3YXoF7yLJI1fm1w|52=20231226-17:11:09.894|56=cServer|57=TRADE|10=223|8=FIX.4.4|9=114|35=0|34=620|49=demo.ctrader.3873996|50=38739962p9cU7O3YXoF7yLJI1fm1w|52=20231226-17:11:39.898|56=cServer|57=TRADE|10=222|8=FIX.4.4|9=114|35=0|34=621|49=demo.ctrader.3873996|50=38739962p9cU7O3YXoF7yLJI1fm1w|52=20231226-17:12:10.897|56=cServer|57=TRADE|10=212|8=FIX.4.4|9=114|35=0|34=622|49=demo.ctrader.3873996|50=38739962p9cU7O3YXoF7yLJI1fm1w|52=20231226-17:12:40.909|56=cServer|57=TRADE|10=210|8=FIX.4.4|9=114|35=0|34=623|49=demo.ctrader.3873996|50=38739962p9cU7O3YXoF7yLJI1fm1w|52=20231226-17:13:11.918|56=cServer|57=TRADE|10=210|8=FIX.4.4|9=114|35=0|34=624|49=demo.ctrader.3873996|50=38739962p9cU7O3YXoF7yLJI1fm1w|52=20231226-17:13:41.924|56=cServer|57=TRADE|10=211|8=FIX.4.4|9=114|35=0|34=625|49=demo.ctrader.3873996|50=38739962p9cU7O3YXoF7yLJI1fm1w|52=20231226-17:14:12.921|56=cServer|57=TRADE|10=208|8=FIX.4.4|9=114|35=0|34=626|49=demo.ctrader.3873996|50=38739962p9cU7O3YXoF7yLJI1fm1w|52=20231226-17:14:42.922|56=cServer|57=TRADE|10=213|8=FIX.4.4|9=114|35=0|34=627|49=demo.ctrader.3873996|50=38739962p9cU7O3YXoF7yLJI1fm1w|52=20231226-17:15:13.916|56=cServer|57=TRADE|10=216|8=FIX.4.4|9=114|35=0|34=628|49=demo.ctrader.3873996|50=38739962p9cU7O3YXoF7yLJI1fm1w|52=20231226-17:15:44.913|56=cServer|57=TRADE|10=218|8=FIX.4.4|9=114|35=0|34=629|49=demo.ctrader.3873996|50=38739962p9cU7O3YXoF7yLJI1fm1w|52=20231226-17:16:14.935|56=cServer|57=TRADE|10=221|8=FIX.4.4|9=114|35=0|34=630|49=demo.ctrader.3873996|50=38739962p9cU7O3YXoF7yLJI1fm1w|52=20231226-17:16:45.933|56=cServer|57=TRADE|10=215|8=FIX.4.4|9=114|35=0|34=631|49=demo.ctrader.3873996|50=38739962p9cU7O3YXoF7yLJI1fm1w|52=20231226-17:17:16.899|56=cServer|57=TRADE|10=226|8=FIX.4.4|9=114|35=0|34=632|49=demo.ctrader.3873996|50=38739962p9cU7O3YXoF7yLJI1fm1w|52=20231226-17:17:46.922|56=cServer|57=TRADE|10=217|8=FIX.4.4|9=114|35=0|34=633|49=demo.ctrader.3873996|50=38739962p9cU7O3YXoF7yLJI1fm1w|52=20231226-17:18:17.924|56=cServer|57=TRADE|10=219|8=FIX.4.4|9=114|35=0|34=634|49=demo.ctrader.3873996|50=38739962p9cU7O3YXoF7yLJI1fm1w|52=20231226-17:18:47.926|56=cServer|57=TRADE|10=225|8=FIX.4.4|9=114|35=0|34=635|49=demo.ctrader.3873996|50=38739962p9cU7O3YXoF7yLJI1fm1w|52=20231226-17:19:17.962|56=cServer|57=TRADE|10=224|8=FIX.4.4|9=114|35=0|34=636|49=demo.ctrader.3873996|50=38739962p9cU7O3YXoF7yLJI1fm1w|52=20231226-17:19:48.741|56=cServer|57=TRADE|10=224|8=FIX.4.4|9=114|35=0|34=637|49=demo.ctrader.3873996|50=38739962p9cU7O3YXoF7yLJI1fm1w|52=20231226-17:20:19.737|56=cServer|57=TRADE|10=220|8=FIX.4.4|9=114|35=0|34=638|49=demo.ctrader.3873996|50=38739962p9cU7O3YXoF7yLJI1fm1w|52=20231226-17:20:49.749|56=cServer|57=TRADE|10=227|8=FIX.4.4|9=114|35=0|34=639|49=demo.ctrader.3873996|50=38739962p9cU7O3YXoF7yLJI1fm1w|52=20231226-17:21:20.755|56=cServer|57=TRADE|10=215|8=FIX.4.4|9=114|35=0|34=640|49=demo.ctrader.3873996|50=38739962p9cU7O3YXoF7yLJI1fm1w|52=20231226-17:21:51.758|56=cServer|57=TRADE|10=214|8=FIX.4.4|9=114|35=0|34=641|49=demo.ctrader.3873996|50=38739962p9cU7O3YXoF7yLJI1fm1w|52=20231226-17:22:21.761|56=cServer|57=TRADE|10=207|8=FIX.4.4|9=114|35=0|34=642|49=demo.ctrader.3873996|50=38739962p9cU7O3YXoF7yLJI1fm1w|52=20231226-17:22:51.773|56=cServer|57=TRADE|10=214|8=FIX.4.4|9=114|35=0|34=643|49=demo.ctrader.3873996|50=38739962p9cU7O3YXoF7yLJI1fm1w|52=20231226-17:23:22.755|56=cServer|57=TRADE|10=214|8=FIX.4.4|9=114|35=0|34=644|49=demo.ctrader.3873996|50=38739962p9cU7O3YXoF7yLJI1fm1w|52=20231226-17:23:52.772|56=cServer|57=TRADE|10=217|8=FIX.4.4|9=114|35=0|34=645|49=demo.ctrader.3873996|50=38739962p9cU7O3YXoF7yLJI1fm1w|52=20231226-17:24:23.769|56=cServer|57=TRADE|10=223|8=FIX.4.4|9=114|35=0|34=646|49=demo.ctrader.3873996|50=38739962p9cU7O3YXoF7yLJI1fm1w|52=20231226-17:24:54.777|56=cServer|57=TRADE|10=227|8=FIX.4.4|9=114|35=0|34=647|49=demo.ctrader.3873996|50=38739962p9cU7O3YXoF7yLJI1fm1w|52=20231226-17:25:24.778|56=cServer|57=TRADE|10=227|8=FIX.4.4|9=114|35=0|34=648|49=demo.ctrader.3873996|50=38739962p9cU7O3YXoF7yLJI1fm1w|52=20231226-17:25:54.786|56=cServer|57=TRADE|10=230|8=FIX.4.4|9=114|35=0|34=649|49=demo.ctrader.3873996|50=38739962p9cU7O3YXoF7yLJI1fm1w|52=20231226-17:26:25.771|56=cServer|57=TRADE|10=224|8=FIX.4.4|9=114|35=0|34=650|49=demo.ctrader.3873996|50=38739962p9cU7O3YXoF7yLJI1fm1w|52=20231226-17:26:55.795|56=cServer|57=TRADE|10=225|8=FIX.4.4|9=114|35=0|34=651|49=demo.ctrader.3873996|50=38739962p9cU7O3YXoF7yLJI1fm1w|52=20231226-17:27:26.781|56=cServer|57=TRADE|10=220|8=FIX.4.4|9=114|35=0|34=652|49=demo.ctrader.3873996|50=38739962p9cU7O3YXoF7yLJI1fm1w|52=20231226-17:27:56.793|56=cServer|57=TRADE|10=227|8=FIX.4.4|9=114|35=0|34=653|49=demo.ctrader.3873996|50=38739962p9cU7O3YXoF7yLJI1fm1w|52=20231226-17:28:27.796|56=cServer|57=TRADE|10=230|8=FIX.4.4|9=114|35=0|34=654|49=demo.ctrader.3873996|50=38739962p9cU7O3YXoF7yLJI1fm1w|52=20231226-17:28:57.806|56=cServer|57=TRADE|10=226|8=FIX.4.4|9=114|35=0|34=655|49=demo.ctrader.3873996|50=38739962p9cU7O3YXoF7yLJI1fm1w|52=20231226-17:29:28.793|56=cServer|57=TRADE|10=231|8=FIX.4.4|9=114|35=0|34=656|49=demo.ctrader.3873996|50=38739962p9cU7O3YXoF7yLJI1fm1w|52=20231226-17:29:58.806|56=cServer|57=TRADE|10=230|8=FIX.4.4|9=114|35=0|34=657|49=demo.ctrader.3873996|50=38739962p9cU7O3YXoF7yLJI1fm1w|52=20231226-17:30:28.812|56=cServer|57=TRADE|10=217|8=FIX.4.4|9=114|35=0|34=658|49=demo.ctrader.3873996|50=38739962p9cU7O3YXoF7yLJI1fm1w|52=20231226-17:30:58.828|56=cServer|57=TRADE|10=228|8=FIX.4.4|9=114|35=0|34=659|49=demo.ctrader.3873996|50=38739962p9cU7O3YXoF7yLJI1fm1w|52=20231226-17:31:29.810|56=cServer|57=TRADE|10=219|8=FIX.4.4|9=114|35=0|34=660|49=demo.ctrader.3873996|50=38739962p9cU7O3YXoF7yLJI1fm1w|52=20231226-17:32:00.818|56=cServer|57=TRADE|10=209|8=FIX.4.4|9=114|35=0|34=661|49=demo.ctrader.3873996|50=38739962p9cU7O3YXoF7yLJI1fm1w|52=20231226-17:32:30.818|56=cServer|57=TRADE|10=213|8=FIX.4.4|9=114|35=0|34=662|49=demo.ctrader.3873996|50=38739962p9cU7O3YXoF7yLJI1fm1w|52=20231226-17:33:01.821|56=cServer|57=TRADE|10=207|8=FIX.4.4|9=114|35=0|34=663|49=demo.ctrader.3873996|50=38739962p9cU7O3YXoF7yLJI1fm1w|52=20231226-17:33:31.861|56=cServer|57=TRADE|10=215|8=FIX.4.4|9=114|35=0|34=664|49=demo.ctrader.3873996|50=38739962p9cU7O3YXoF7yLJI1fm1w|52=20231226-17:34:01.866|56=cServer|57=TRADE|10=219|8=FIX.4.4|9=114|35=0|34=665|49=demo.ctrader.3873996|50=38739962p9cU7O3YXoF7yLJI1fm1w|52=20231226-17:34:32.845|56=cServer|57=TRADE|10=221|8=FIX.4.4|9=114|35=0|34=666|49=demo.ctrader.3873996|50=38739962p9cU7O3YXoF7yLJI1fm1w|52=20231226-17:35:03.856|56=cServer|57=TRADE|10=223|8=FIX.4.4|9=114|35=0|34=667|49=demo.ctrader.3873996|50=38739962p9cU7O3YXoF7yLJI1fm1w|52=20231226-17:35:33.986|56=cServer|57=TRADE|10=231|8=FIX.4.4|9=114|35=0|34=668|49=demo.ctrader.3873996|50=38739962p9cU7O3YXoF7yLJI1fm1w|52=20231226-17:36:04.869|56=cServer|57=TRADE|10=231|8=FIX.4.4|9=114|35=0|34=669|49=demo.ctrader.3873996|50=38739962p9cU7O3YXoF7yLJI1fm1w|52=20231226-17:36:35.845|56=cServer|57=TRADE|10=230|8=FIX.4.4|9=114|35=0|34=670|49=demo.ctrader.3873996|50=38739962p9cU7O3YXoF7yLJI1fm1w|52=20231226-17:37:05.869|56=cServer|57=TRADE|10=226|8=FIX.4.4|9=114|35=0|34=671|49=demo.ctrader.3873996|50=38739962p9cU7O3YXoF7yLJI1fm1w|52=20231226-17:37:36.830|56=cServer|57=TRADE|10=219|8=FIX.4.4|9=114|35=0|34=672|49=demo.ctrader.3873996|50=38739962p9cU7O3YXoF7yLJI1fm1w|52=20231226-17:38:06.858|56=cServer|57=TRADE|10=228|8=FIX.4.4|9=114|35=0|34=673|49=demo.ctrader.3873996|50=38739962p9cU7O3YXoF7yLJI1fm1w|52=20231226-17:38:36.859|56=cServer|57=TRADE|10=233|8=FIX.4.4|9=114|35=0|34=674|49=demo.ctrader.3873996|50=38739962p9cU7O3YXoF7yLJI1fm1w|52=20231226-17:39:06.870|56=cServer|57=TRADE|10=225|8=FIX.4.4|9=114|35=0|34=675|49=demo.ctrader.3873996|50=38739962p9cU7O3YXoF7yLJI1fm1w|52=20231226-17:39:37.854|56=cServer|57=TRADE|10=232|8=FIX.4.4|9=114|35=0|34=676|49=demo.ctrader.3873996|50=38739962p9cU7O3YXoF7yLJI1fm1w|52=20231226-17:40:07.868|56=cServer|57=TRADE|10=227|8=FIX.4.4|9=114|35=0|34=677|49=demo.ctrader.3873996|50=38739962p9cU7O3YXoF7yLJI1fm1w|52=20231226-17:40:37.880|56=cServer|57=TRADE|10=225|8=FIX.4.4|9=114|35=0|34=678|49=demo.ctrader.3873996|50=38739962p9cU7O3YXoF7yLJI1fm1w|52=20231226-17:41:08.873|56=cServer|57=TRADE|10=227|8=FIX.4.4|9=114|35=0|34=679|49=demo.ctrader.3873996|50=38739962p9cU7O3YXoF7yLJI1fm1w|52=20231226-17:41:39.168|56=cServer|57=TRADE|10=229|8=FIX.4.4|9=114|35=0|34=680|49=demo.ctrader.3873996|50=38739962p9cU7O3YXoF7yLJI1fm1w|52=20231226-17:42:09.896|56=cServer|57=TRADE|10=227|8=FIX.4.4|9=114|35=0|34=681|49=demo.ctrader.3873996|50=38739962p9cU7O3YXoF7yLJI1fm1w|52=20231226-17:42:40.902|56=cServer|57=TRADE|10=211|8=FIX.4.4|9=114|35=0|34=682|49=demo.ctrader.3873996|50=38739962p9cU7O3YXoF7yLJI1fm1w|52=20231226-17:43:10.911|56=cServer|57=TRADE|10=210|8=FIX.4.4|9=114|35=0|34=683|49=demo.ctrader.3873996|50=38739962p9cU7O3YXoF7yLJI1fm1w|52=20231226-17:43:41.916|56=cServer|57=TRADE|10=220|8=FIX.4.4|9=114|35=0|34=684|49=demo.ctrader.3873996|50=38739962p9cU7O3YXoF7yLJI1fm1w|52=20231226-17:44:11.928|56=cServer|57=TRADE|10=222|8=FIX.4.4|9=114|35=0|34=685|49=demo.ctrader.3873996|50=38739962p9cU7O3YXoF7yLJI1fm1w|52=20231226-17:44:42.914|56=cServer|57=TRADE|10=222|8=FIX.4.4|9=114|35=0|34=686|49=demo.ctrader.3873996|50=38739962p9cU7O3YXoF7yLJI1fm1w|52=20231226-17:45:12.941|56=cServer|57=TRADE|10=221|8=FIX.4.4|9=114|35=0|34=687|49=demo.ctrader.3873996|50=38739962p9cU7O3YXoF7yLJI1fm1w|52=20231226-17:45:43.906|56=cServer|57=TRADE|10=227|8=FIX.4.4|9=114|35=0|34=688|49=demo.ctrader.3873996|50=38739962p9cU7O3YXoF7yLJI1fm1w|52=20231226-17:46:13.924|56=cServer|57=TRADE|10=226|8=FIX.4.4|9=114|35=0|34=689|49=demo.ctrader.3873996|50=38739962p9cU7O3YXoF7yLJI1fm1w|52=20231226-17:46:43.965|56=cServer|57=TRADE|10=235|8=FIX.4.4|9=114|35=0|34=690|49=demo.ctrader.3873996|50=38739962p9cU7O3YXoF7yLJI1fm1w|52=20231226-17:47:14.917|56=cServer|57=TRADE|10=223|8=FIX.4.4|9=114|35=0|34=691|49=demo.ctrader.3873996|50=38739962p9cU7O3YXoF7yLJI1fm1w|52=20231226-17:47:44.939|56=cServer|57=TRADE|10=231|8=FIX.4.4|9=114|35=0|34=692|49=demo.ctrader.3873996|50=38739962p9cU7O3YXoF7yLJI1fm1w|52=20231226-17:48:15.914|56=cServer|57=TRADE|10=224|8=FIX.4.4|9=114|35=0|34=693|49=demo.ctrader.3873996|50=38739962p9cU7O3YXoF7yLJI1fm1w|52=20231226-17:48:45.920|56=cServer|57=TRADE|10=225|8=FIX.4.4|9=114|35=0|34=694|49=demo.ctrader.3873996|50=38739962p9cU7O3YXoF7yLJI1fm1w|52=20231226-17:49:15.994|56=cServer|57=TRADE|10=235|8=FIX.4.4|9=114|35=0|34=695|49=demo.ctrader.3873996|50=38739962p9cU7O3YXoF7yLJI1fm1w|52=20231226-17:49:46.915|56=cServer|57=TRADE|10=233|8=FIX.4.4|9=114|35=0|34=696|49=demo.ctrader.3873996|50=38739962p9cU7O3YXoF7yLJI1fm1w|52=20231226-17:50:16.961|56=cServer|57=TRADE|10=224|8=FIX.4.4|9=114|35=0|34=697|49=demo.ctrader.3873996|50=38739962p9cU7O3YXoF7yLJI1fm1w|52=20231226-17:50:46.966|56=cServer|57=TRADE|10=233|8=FIX.4.4|9=114|35=0|34=698|49=demo.ctrader.3873996|50=38739962p9cU7O3YXoF7yLJI1fm1w|52=20231226-17:51:17.977|56=cServer|57=TRADE|10=235|8=FIX.4.4|9=114|35=0|34=699|49=demo.ctrader.3873996|50=38739962p9cU7O3YXoF7yLJI1fm1w|52=20231226-17:51:48.733|56=cServer|57=TRADE|10=230|8=FIX.4.4|9=114|35=0|34=700|49=demo.ctrader.3873996|50=38739962p9cU7O3YXoF7yLJI1fm1w|52=20231226-17:52:19.740|56=cServer|57=TRADE|10=210|8=FIX.4.4|9=114|35=0|34=701|49=demo.ctrader.3873996|50=38739962p9cU7O3YXoF7yLJI1fm1w|52=20231226-17:52:49.742|56=cServer|57=TRADE|10=216|8=FIX.4.4|9=114|35=0|34=702|49=demo.ctrader.3873996|50=38739962p9cU7O3YXoF7yLJI1fm1w|52=20231226-17:53:19.744|56=cServer|57=TRADE|10=217|8=FIX.4.4|9=114|35=0|34=703|49=demo.ctrader.3873996|50=38739962p9cU7O3YXoF7yLJI1fm1w|52=20231226-17:53:50.746|56=cServer|57=TRADE|10=215|8=FIX.4.4|9=114|35=0|34=704|49=demo.ctrader.3873996|50=38739962p9cU7O3YXoF7yLJI1fm1w|52=20231226-17:54:20.749|56=cServer|57=TRADE|10=217|8=FIX.4.4|9=114|35=0|34=705|49=demo.ctrader.3873996|50=38739962p9cU7O3YXoF7yLJI1fm1w|52=20231226-17:54:51.747|56=cServer|57=TRADE|10=220|8=FIX.4.4|9=114|35=0|34=706|49=demo.ctrader.3873996|50=38739962p9cU7O3YXoF7yLJI1fm1w|52=20231226-17:55:22.754|56=cServer|57=TRADE|10=218|8=FIX.4.4|9=114|35=0|34=707|49=demo.ctrader.3873996|50=38739962p9cU7O3YXoF7yLJI1fm1w|52=20231226-17:55:52.776|56=cServer|57=TRADE|10=226|8=FIX.4.4|9=114|35=0|34=708|49=demo.ctrader.3873996|50=38739962p9cU7O3YXoF7yLJI1fm1w|52=20231226-17:56:22.779|56=cServer|57=TRADE|10=228|8=FIX.4.4|9=114|35=0|34=709|49=demo.ctrader.3873996|50=38739962p9cU7O3YXoF7yLJI1fm1w|52=20231226-17:56:53.763|56=cServer|57=TRADE|10=226|8=FIX.4.4|9=114|35=0|34=710|49=demo.ctrader.3873996|50=38739962p9cU7O3YXoF7yLJI1fm1w|52=20231226-17:57:24.777|56=cServer|57=TRADE|10=222|8=FIX.4.4|9=114|35=0|34=711|49=demo.ctrader.3873996|50=38739962p9cU7O3YXoF7yLJI1fm1w|52=20231226-17:57:55.780|56=cServer|57=TRADE|10=221|8=FIX.4.4|9=114|35=0|34=712|49=demo.ctrader.3873996|50=38739962p9cU7O3YXoF7yLJI1fm1w|52=20231226-17:58:26.776|56=cServer|57=TRADE|10=226|8=FIX.4.4|9=114|35=0|34=713|49=demo.ctrader.3873996|50=38739962p9cU7O3YXoF7yLJI1fm1w|52=20231226-17:58:56.796|56=cServer|57=TRADE|10=232|8=FIX.4.4|9=114|35=0|34=714|49=demo.ctrader.3873996|50=38739962p9cU7O3YXoF7yLJI1fm1w|52=20231226-17:59:27.797|56=cServer|57=TRADE|10=233|8=FIX.4.4|9=114|35=0|34=715|49=demo.ctrader.3873996|50=38739962p9cU7O3YXoF7yLJI1fm1w|52=20231226-17:59:57.816|56=cServer|57=TRADE|10=229|8=FIX.4.4|9=114|35=0|34=716|49=demo.ctrader.3873996|50=38739962p9cU7O3YXoF7yLJI1fm1w|52=20231226-18:00:28.820|56=cServer|57=TRADE|10=210|8=FIX.4.4|9=114|35=0|34=717|49=demo.ctrader.3873996|50=38739962p9cU7O3YXoF7yLJI1fm1w|52=20231226-18:00:58.820|56=cServer|57=TRADE|10=214|8=FIX.4.4|9=114|35=0|34=718|49=demo.ctrader.3873996|50=38739962p9cU7O3YXoF7yLJI1fm1w|52=20231226-18:01:29.813|56=cServer|57=TRADE|10=216|8=FIX.4.4|9=114|35=0|34=719|49=demo.ctrader.3873996|50=38739962p9cU7O3YXoF7yLJI1fm1w|52=20231226-18:01:59.825|56=cServer|57=TRADE|10=223|8=FIX.4.4|9=114|35=0|34=720|49=demo.ctrader.3873996|50=38739962p9cU7O3YXoF7yLJI1fm1w|52=20231226-18:02:29.827|56=cServer|57=TRADE|10=215|8=FIX.4.4|9=114|35=0|34=721|49=demo.ctrader.3873996|50=38739962p9cU7O3YXoF7yLJI1fm1w|52=20231226-18:03:00.822|56=cServer|57=TRADE|10=201|8=FIX.4.4|9=114|35=0|34=722|49=demo.ctrader.3873996|50=38739962p9cU7O3YXoF7yLJI1fm1w|52=20231226-18:03:30.827|56=cServer|57=TRADE|10=210|8=FIX.4.4|9=114|35=0|34=723|49=demo.ctrader.3873996|50=38739962p9cU7O3YXoF7yLJI1fm1w|52=20231226-18:04:01.820|56=cServer|57=TRADE|10=203|8=FIX.4.4|9=114|35=0|34=724|49=demo.ctrader.3873996|50=38739962p9cU7O3YXoF7yLJI1fm1w|52=20231226-18:04:31.821|56=cServer|57=TRADE|10=208|8=FIX.4.4|9=114|35=0|34=725|49=demo.ctrader.3873996|50=38739962p9cU7O3YXoF7yLJI1fm1w|52=20231226-18:05:01.829|56=cServer|57=TRADE|10=215|8=FIX.4.4|9=114|35=0|34=726|49=demo.ctrader.3873996|50=38739962p9cU7O3YXoF7yLJI1fm1w|52=20231226-18:05:31.834|56=cServer|57=TRADE|10=215|8=FIX.4.4|9=114|35=0|34=727|49=demo.ctrader.3873996|50=38739962p9cU7O3YXoF7yLJI1fm1w|52=20231226-18:06:01.922|56=cServer|57=TRADE|10=212|8=FIX.4.4|9=114|35=0|34=728|49=demo.ctrader.3873996|50=38739962p9cU7O3YXoF7yLJI1fm1w|52=20231226-18:06:32.853|56=cServer|57=TRADE|10=220|8=FIX.4.4|9=114|35=0|34=729|49=demo.ctrader.3873996|50=38739962p9cU7O3YXoF7yLJI1fm1w|52=20231226-18:07:03.846|56=cServer|57=TRADE|10=222|8=FIX.4.4|9=114|35=0|34=730|49=demo.ctrader.3873996|50=38739962p9cU7O3YXoF7yLJI1fm1w|52=202312