8=FIX.4.4|9=244|35=A|34=1|49=demo.ctrader.3873996|50=3873996q_EqujxmZA4EicCYew4wmw|52=20231227-10:56:55.618|56=cServer|57=QUOTE|49=demo.ctrader.3873996|50=3873996q_EqujxmZA4EicCYew4wmw|52=20231227-10:56:55|56=cServer|98=0|108=30|141=Y|553=3873996|554=Gtlfx125|10=237|8=FIX.4.4|9=170|35=V|34=2|49=demo.ctrader.3873996|50=3873996q_EqujxmZA4EicCYew4wmw|52=20231227-10:56:56.439|56=cServer|57=QUOTE|262=MARKETDATAID|263=1|264=1|267=2|269=0|269=1|146=1|55=1|10=100|8=FIX.4.4|9=170|35=V|34=3|49=demo.ctrader.3873996|50=3873996q_EqujxmZA4EicCYew4wmw|52=20231227-10:56:56.440|56=cServer|57=QUOTE|262=MARKETDATAID|263=1|264=1|267=2|269=0|269=1|146=1|55=2|10=094|8=FIX.4.4|9=170|35=V|34=4|49=demo.ctrader.3873996|50=3873996q_EqujxmZA4EicCYew4wmw|52=20231227-10:56:56.441|56=cServer|57=QUOTE|262=MARKETDATAID|263=1|264=1|267=2|269=0|269=1|146=1|55=3|10=097|8=FIX.4.4|9=170|35=V|34=5|49=demo.ctrader.3873996|50=3873996q_EqujxmZA4EicCYew4wmw|52=20231227-10:56:56.441|56=cServer|57=QUOTE|262=MARKETDATAID|263=1|264=1|267=2|269=0|269=1|146=1|55=4|10=099|8=FIX.4.4|9=170|35=V|34=6|49=demo.ctrader.3873996|50=3873996q_EqujxmZA4EicCYew4wmw|52=20231227-10:56:56.441|56=cServer|57=QUOTE|262=MARKETDATAID|263=1|264=1|267=2|269=0|269=1|146=1|55=5|10=101|8=FIX.4.4|9=170|35=V|34=7|49=demo.ctrader.3873996|50=3873996q_EqujxmZA4EicCYew4wmw|52=20231227-10:56:56.441|56=cServer|57=QUOTE|262=MARKETDATAID|263=1|264=1|267=2|269=0|269=1|146=1|55=6|10=103|8=FIX.4.4|9=170|35=V|34=8|49=demo.ctrader.3873996|50=3873996q_EqujxmZA4EicCYew4wmw|52=20231227-10:56:56.441|56=cServer|57=QUOTE|262=MARKETDATAID|263=1|264=1|267=2|269=0|269=1|146=1|55=7|10=105|8=FIX.4.4|9=170|35=V|34=9|49=demo.ctrader.3873996|50=3873996q_EqujxmZA4EicCYew4wmw|52=20231227-10:56:56.442|56=cServer|57=QUOTE|262=MARKETDATAID|263=1|264=1|267=2|269=0|269=1|146=1|55=8|10=108|8=FIX.4.4|9=171|35=V|34=10|49=demo.ctrader.3873996|50=3873996q_EqujxmZA4EicCYew4wmw|52=20231227-10:56:56.442|56=cServer|57=QUOTE|262=MARKETDATAID|263=1|264=1|267=2|269=0|269=1|146=1|55=9|10=150|8=FIX.4.4|9=172|35=V|34=11|49=demo.ctrader.3873996|50=3873996q_EqujxmZA4EicCYew4wmw|52=20231227-10:56:56.442|56=cServer|57=QUOTE|262=MARKETDATAID|263=1|264=1|267=2|269=0|269=1|146=1|55=10|10=192|8=FIX.4.4|9=172|35=V|34=12|49=demo.ctrader.3873996|50=3873996q_EqujxmZA4EicCYew4wmw|52=20231227-10:56:56.442|56=cServer|57=QUOTE|262=MARKETDATAID|263=1|264=1|267=2|269=0|269=1|146=1|55=11|10=194|8=FIX.4.4|9=172|35=V|34=13|49=demo.ctrader.3873996|50=3873996q_EqujxmZA4EicCYew4wmw|52=20231227-10:56:56.442|56=cServer|57=QUOTE|262=MARKETDATAID|263=1|264=1|267=2|269=0|269=1|146=1|55=12|10=196|8=FIX.4.4|9=172|35=V|34=14|49=demo.ctrader.3873996|50=3873996q_EqujxmZA4EicCYew4wmw|52=20231227-10:56:56.442|56=cServer|57=QUOTE|262=MARKETDATAID|263=1|264=1|267=2|269=0|269=1|146=1|55=13|10=198|8=FIX.4.4|9=172|35=V|34=15|49=demo.ctrader.3873996|50=3873996q_EqujxmZA4EicCYew4wmw|52=20231227-10:56:56.443|56=cServer|57=QUOTE|262=MARKETDATAID|263=1|264=1|267=2|269=0|269=1|146=1|55=14|10=201|8=FIX.4.4|9=172|35=V|34=16|49=demo.ctrader.3873996|50=3873996q_EqujxmZA4EicCYew4wmw|52=20231227-10:56:56.443|56=cServer|57=QUOTE|262=MARKETDATAID|263=1|264=1|267=2|269=0|269=1|146=1|55=15|10=203|8=FIX.4.4|9=172|35=V|34=17|49=demo.ctrader.3873996|50=3873996q_EqujxmZA4EicCYew4wmw|52=20231227-10:56:56.443|56=cServer|57=QUOTE|262=MARKETDATAID|263=1|264=1|267=2|269=0|269=1|146=1|55=16|10=205|8=FIX.4.4|9=172|35=V|34=18|49=demo.ctrader.3873996|50=3873996q_EqujxmZA4EicCYew4wmw|52=20231227-10:56:56.443|56=cServer|57=QUOTE|262=MARKETDATAID|263=1|264=1|267=2|269=0|269=1|146=1|55=17|10=207|8=FIX.4.4|9=172|35=V|34=19|49=demo.ctrader.3873996|50=3873996q_EqujxmZA4EicCYew4wmw|52=20231227-10:56:56.443|56=cServer|57=QUOTE|262=MARKETDATAID|263=1|264=1|267=2|269=0|269=1|146=1|55=18|10=209|8=FIX.4.4|9=172|35=V|34=20|49=demo.ctrader.3873996|50=3873996q_EqujxmZA4EicCYew4wmw|52=20231227-10:56:56.443|56=cServer|57=QUOTE|262=MARKETDATAID|263=1|264=1|267=2|269=0|269=1|146=1|55=19|10=202|8=FIX.4.4|9=172|35=V|34=21|49=demo.ctrader.3873996|50=3873996q_EqujxmZA4EicCYew4wmw|52=20231227-10:56:56.443|56=cServer|57=QUOTE|262=MARKETDATAID|263=1|264=1|267=2|269=0|269=1|146=1|55=22|10=197|8=FIX.4.4|9=113|35=0|34=22|49=demo.ctrader.3873996|50=3873996q_EqujxmZA4EicCYew4wmw|52=20231227-10:57:26.488|56=cServer|57=QUOTE|10=006|8=FIX.4.4|9=113|35=0|34=23|49=demo.ctrader.3873996|50=3873996q_EqujxmZA4EicCYew4wmw|52=20231227-10:57:56.490|56=cServer|57=QUOTE|10=003|8=FIX.4.4|9=113|35=0|34=24|49=demo.ctrader.3873996|50=3873996q_EqujxmZA4EicCYew4wmw|52=20231227-10:58:26.606|56=cServer|57=QUOTE|10=001|8=FIX.4.4|9=113|35=0|34=25|49=demo.ctrader.3873996|50=3873996q_EqujxmZA4EicCYew4wmw|52=20231227-10:58:56.624|56=cServer|57=QUOTE|10=005|8=FIX.4.4|9=113|35=0|34=26|49=demo.ctrader.3873996|50=3873996q_EqujxmZA4EicCYew4wmw|52=20231227-10:59:26.636|56=cServer|57=QUOTE|10=007|8=FIX.4.4|9=113|35=0|34=27|49=demo.ctrader.3873996|50=3873996q_EqujxmZA4EicCYew4wmw|52=20231227-10:59:56.674|56=cServer|57=QUOTE|10=013|8=FIX.4.4|9=113|35=0|34=28|49=demo.ctrader.3873996|50=3873996q_EqujxmZA4EicCYew4wmw|52=20231227-11:00:26.877|56=cServer|57=QUOTE|10=003|8=FIX.4.4|9=113|35=0|34=29|49=demo.ctrader.3873996|50=3873996q_EqujxmZA4EicCYew4wmw|52=20231227-11:00:56.967|56=cServer|57=QUOTE|10=007|8=FIX.4.4|9=113|35=0|34=30|49=demo.ctrader.3873996|50=3873996q_EqujxmZA4EicCYew4wmw|52=20231227-11:01:27.003|56=cServer|57=QUOTE|10=235|8=FIX.4.4|9=113|35=0|34=31|49=demo.ctrader.3873996|50=3873996q_EqujxmZA4EicCYew4wmw|52=20231227-11:01:57.026|56=cServer|57=QUOTE|10=244|8=FIX.4.4|9=113|35=0|34=32|49=demo.ctrader.3873996|50=3873996q_EqujxmZA4EicCYew4wmw|52=20231227-11:02:27.040|56=cServer|57=QUOTE|10=239|