8=FIX.4.4|9=244|35=A|34=1|49=demo.ctrader.3873996|50=3873996UJ7RX8rQcbFPKYwA5Ke75A|52=20231212-13:32:16.556|56=cServer|57=TRADE|49=demo.ctrader.3873996|50=3873996UJ7RX8rQcbFPKYwA5Ke75A|52=20231212-13:32:16|56=cServer|98=0|108=30|141=Y|553=3873996|554=Gtlfx125|10=222|8=FIX.4.4|9=130|35=x|34=2|49=demo.ctrader.3873996|50=3873996UJ7RX8rQcbFPKYwA5Ke75A|52=20231212-13:32:17.048|56=cServer|57=TRADE|320=symbols|559=0|10=107|8=FIX.4.4|9=127|35=AN|34=3|49=demo.ctrader.3873996|50=3873996UJ7RX8rQcbFPKYwA5Ke75A|52=20231212-13:32:17.472|56=cServer|57=TRADE|710=Positions|10=059|8=FIX.4.4|9=130|35=AF|34=4|49=demo.ctrader.3873996|50=3873996UJ7RX8rQcbFPKYwA5Ke75A|52=20231212-13:32:17.473|56=cServer|57=TRADE|584=Orders|585=7|10=246|8=FIX.4.4|9=112|35=0|34=5|49=demo.ctrader.3873996|50=3873996UJ7RX8rQcbFPKYwA5Ke75A|52=20231212-13:32:47.864|56=cServer|57=TRADE|10=066|8=FIX.4.4|9=112|35=0|34=6|49=demo.ctrader.3873996|50=3873996UJ7RX8rQcbFPKYwA5Ke75A|52=20231212-13:33:18.119|56=cServer|57=TRADE|10=059|8=FIX.4.4|9=226|35=5|34=7|49=demo.ctrader.3873996|50=3873996UJ7RX8rQcbFPKYwA5Ke75A|52=20231212-13:33:31.623|56=cServer|57=TRADE|49=demo.ctrader.3873996|50=3873996UJ7RX8rQcbFPKYwA5Ke75A|52=20231212-13:33:31|56=cServer|553=3873996|554=Gtlfx125|10=137|8=FIX.4.4|9=226|35=5|34=8|49=demo.ctrader.3873996|50=3873996UJ7RX8rQcbFPKYwA5Ke75A|52=20231212-13:33:32.688|56=cServer|57=TRADE|49=demo.ctrader.3873996|50=3873996UJ7RX8rQcbFPKYwA5Ke75A|52=20231212-13:33:32|56=cServer|553=3873996|554=Gtlfx125|10=151|