8=FIX.4.4|9=244|35=A|34=1|49=demo.ctrader.3873996|50=3873996lzt1kL9m1IHIliDTzgPQUA|52=20240104-08:48:02.639|56=cServer|57=TRADE|49=demo.ctrader.3873996|50=3873996lzt1kL9m1IHIliDTzgPQUA|52=20240104-08:48:02|56=cServer|98=0|108=30|141=Y|553=3873996|554=Gtlfx125|10=084|8=FIX.4.4|9=130|35=x|34=2|49=demo.ctrader.3873996|50=3873996lzt1kL9m1IHIliDTzgPQUA|52=20240104-08:48:03.273|56=cServer|57=TRADE|320=symbols|559=0|10=037|8=FIX.4.4|9=127|35=AN|34=3|49=demo.ctrader.3873996|50=3873996lzt1kL9m1IHIliDTzgPQUA|52=20240104-08:48:03.647|56=cServer|57=TRADE|710=Positions|10=249|8=FIX.4.4|9=130|35=AF|34=4|49=demo.ctrader.3873996|50=3873996lzt1kL9m1IHIliDTzgPQUA|52=20240104-08:48:03.648|56=cServer|57=TRADE|584=Orders|585=7|10=180|8=FIX.4.4|9=177|35=D|34=5|49=demo.ctrader.3873996|50=3873996lzt1kL9m1IHIliDTzgPQUA|52=20240104-08:48:21.456|56=cServer|57=TRADE|11=68421677|38=1000|40=1|54=1|55=2|59=3|60=20240104-13:48:21.455|10=253|8=FIX.4.4|9=226|35=5|34=6|49=demo.ctrader.3873996|50=3873996lzt1kL9m1IHIliDTzgPQUA|52=20240104-08:48:44.571|56=cServer|57=TRADE|49=demo.ctrader.3873996|50=3873996lzt1kL9m1IHIliDTzgPQUA|52=20240104-08:48:44|56=cServer|553=3873996|554=Gtlfx125|10=014|8=FIX.4.4|9=226|35=5|34=7|49=demo.ctrader.3873996|50=3873996lzt1kL9m1IHIliDTzgPQUA|52=20240104-08:48:44.614|56=cServer|57=TRADE|49=demo.ctrader.3873996|50=3873996lzt1kL9m1IHIliDTzgPQUA|52=20240104-08:48:44|56=cServer|553=3873996|554=Gtlfx125|10=013|