8=FIX.4.4|9=244|35=A|34=1|49=demo.ctrader.3873996|50=3873996HNunGusX3sJ0622mCX0PGQ|52=20231222-15:16:25.468|56=cServer|57=QUOTE|49=demo.ctrader.3873996|50=3873996HNunGusX3sJ0622mCX0PGQ|52=20231222-15:16:25|56=cServer|98=0|108=30|141=Y|553=3873996|554=Gtlfx125|10=052|8=FIX.4.4|9=112|35=0|34=2|49=demo.ctrader.3873996|50=3873996HNunGusX3sJ0622mCX0PGQ|52=20231222-15:16:55.476|56=cServer|57=QUOTE|10=118|8=FIX.4.4|9=112|35=0|34=3|49=demo.ctrader.3873996|50=3873996HNunGusX3sJ0622mCX0PGQ|52=20231222-15:17:26.210|56=cServer|57=QUOTE|10=104|8=FIX.4.4|9=112|35=0|34=4|49=demo.ctrader.3873996|50=3873996HNunGusX3sJ0622mCX0PGQ|52=20231222-15:17:56.221|56=cServer|57=QUOTE|10=110|8=FIX.4.4|9=112|35=0|34=5|49=demo.ctrader.3873996|50=3873996HNunGusX3sJ0622mCX0PGQ|52=20231222-15:18:26.272|56=cServer|57=QUOTE|10=115|8=FIX.4.4|9=112|35=0|34=6|49=demo.ctrader.3873996|50=3873996HNunGusX3sJ0622mCX0PGQ|52=20231222-15:18:57.022|56=cServer|57=QUOTE|10=113|8=FIX.4.4|9=112|35=0|34=7|49=demo.ctrader.3873996|50=3873996HNunGusX3sJ0622mCX0PGQ|52=20231222-15:19:28.032|56=cServer|57=QUOTE|10=114|8=FIX.4.4|9=112|35=0|34=8|49=demo.ctrader.3873996|50=3873996HNunGusX3sJ0622mCX0PGQ|52=20231222-15:19:59.025|56=cServer|57=QUOTE|10=121|8=FIX.4.4|9=112|35=0|34=9|49=demo.ctrader.3873996|50=3873996HNunGusX3sJ0622mCX0PGQ|52=20231222-15:20:29.039|56=cServer|57=QUOTE|10=116|8=FIX.4.4|9=113|35=0|34=10|49=demo.ctrader.3873996|50=3873996HNunGusX3sJ0622mCX0PGQ|52=20231222-15:21:00.029|56=cServer|57=QUOTE|10=146|8=FIX.4.4|9=113|35=0|34=11|49=demo.ctrader.3873996|50=3873996HNunGusX3sJ0622mCX0PGQ|52=20231222-15:21:30.029|56=cServer|57=QUOTE|10=150|8=FIX.4.4|9=113|35=0|34=12|49=demo.ctrader.3873996|50=3873996HNunGusX3sJ0622mCX0PGQ|52=20231222-15:22:00.171|56=cServer|57=QUOTE|10=147|8=FIX.4.4|9=113|35=0|34=13|49=demo.ctrader.3873996|50=3873996HNunGusX3sJ0622mCX0PGQ|52=20231222-15:22:31.050|56=cServer|57=QUOTE|10=148|8=FIX.4.4|9=113|35=0|34=14|49=demo.ctrader.3873996|50=3873996HNunGusX3sJ0622mCX0PGQ|52=20231222-15:23:01.145|56=cServer|57=QUOTE|10=152|8=FIX.4.4|9=113|35=0|34=15|49=demo.ctrader.3873996|50=3873996HNunGusX3sJ0622mCX0PGQ|52=20231222-15:23:32.053|56=cServer|57=QUOTE|10=155|8=FIX.4.4|9=113|35=0|34=16|49=demo.ctrader.3873996|50=3873996HNunGusX3sJ0622mCX0PGQ|52=20231222-15:24:02.064|56=cServer|57=QUOTE|10=156|8=FIX.4.4|9=113|35=0|34=17|49=demo.ctrader.3873996|50=3873996HNunGusX3sJ0622mCX0PGQ|52=20231222-15:24:33.073|56=cServer|57=QUOTE|10=161|8=FIX.4.4|9=113|35=0|34=18|49=demo.ctrader.3873996|50=3873996HNunGusX3sJ0622mCX0PGQ|52=20231222-15:25:04.070|56=cServer|57=QUOTE|10=158|8=FIX.4.4|9=113|35=0|34=19|49=demo.ctrader.3873996|50=3873996HNunGusX3sJ0622mCX0PGQ|52=20231222-15:25:35.056|56=cServer|57=QUOTE|10=167|8=FIX.4.4|9=113|35=0|34=20|49=demo.ctrader.3873996|50=3873996HNunGusX3sJ0622mCX0PGQ|52=20231222-15:26:05.096|56=cServer|57=QUOTE|10=161|8=FIX.4.4|9=113|35=0|34=21|49=demo.ctrader.3873996|50=3873996HNunGusX3sJ0622mCX0PGQ|52=20231222-15:26:35.096|56=cServer|57=QUOTE|10=165|8=FIX.4.4|9=113|35=0|34=22|49=demo.ctrader.3873996|50=3873996HNunGusX3sJ0622mCX0PGQ|52=20231222-15:27:05.259|56=cServer|57=QUOTE|10=165|8=FIX.4.4|9=113|35=0|34=23|49=demo.ctrader.3873996|50=3873996HNunGusX3sJ0622mCX0PGQ|52=20231222-15:27:36.090|56=cServer|57=QUOTE|10=163|8=FIX.4.4|9=113|35=0|34=24|49=demo.ctrader.3873996|50=3873996HNunGusX3sJ0622mCX0PGQ|52=20231222-15:28:07.088|56=cServer|57=QUOTE|10=170|8=FIX.4.4|9=113|35=0|34=25|49=demo.ctrader.3873996|50=3873996HNunGusX3sJ0622mCX0PGQ|52=20231222-15:28:38.079|56=cServer|57=QUOTE|10=175|8=FIX.4.4|9=113|35=0|34=26|49=demo.ctrader.3873996|50=3873996HNunGusX3sJ0622mCX0PGQ|52=20231222-15:29:08.135|56=cServer|57=QUOTE|10=167|8=FIX.4.4|9=113|35=0|34=27|49=demo.ctrader.3873996|50=3873996HNunGusX3sJ0622mCX0PGQ|52=20231222-15:29:39.101|56=cServer|57=QUOTE|10=165|8=FIX.4.4|9=113|35=0|34=28|49=demo.ctrader.3873996|50=3873996HNunGusX3sJ0622mCX0PGQ|52=20231222-15:30:09.134|56=cServer|57=QUOTE|10=161|8=FIX.4.4|9=113|35=0|34=29|49=demo.ctrader.3873996|50=3873996HNunGusX3sJ0622mCX0PGQ|52=20231222-15:30:40.101|56=cServer|57=QUOTE|10=151|8=FIX.4.4|9=113|35=0|34=30|49=demo.ctrader.3873996|50=3873996HNunGusX3sJ0622mCX0PGQ|52=20231222-15:31:10.114|56=cServer|57=QUOTE|10=145|8=FIX.4.4|9=113|35=0|34=31|49=demo.ctrader.3873996|50=3873996HNunGusX3sJ0622mCX0PGQ|52=20231222-15:31:40.122|56=cServer|57=QUOTE|10=148|8=FIX.4.4|9=113|35=0|34=32|49=demo.ctrader.3873996|50=3873996HNunGusX3sJ0622mCX0PGQ|52=20231222-15:32:10.128|56=cServer|57=QUOTE|10=153|8=FIX.4.4|9=113|35=0|34=33|49=demo.ctrader.3873996|50=3873996HNunGusX3sJ0622mCX0PGQ|52=20231222-15:32:41.109|56=cServer|57=QUOTE|10=157|8=FIX.4.4|9=113|35=0|34=34|49=demo.ctrader.3873996|50=3873996HNunGusX3sJ0622mCX0PGQ|52=20231222-15:33:11.136|56=cServer|57=QUOTE|10=156|8=FIX.4.4|9=113|35=0|34=35|49=demo.ctrader.3873996|50=3873996HNunGusX3sJ0622mCX0PGQ|52=20231222-15:33:42.102|56=cServer|57=QUOTE|10=154|8=FIX.4.4|9=113|35=0|34=36|49=demo.ctrader.3873996|50=3873996HNunGusX3sJ0622mCX0PGQ|52=20231222-15:34:12.134|56=cServer|57=QUOTE|10=158|8=FIX.4.4|9=113|35=0|34=37|49=demo.ctrader.3873996|50=3873996HNunGusX3sJ0622mCX0PGQ|52=20231222-15:34:42.149|56=cServer|57=QUOTE|10=168|8=FIX.4.4|9=113|35=0|34=38|49=demo.ctrader.3873996|50=3873996HNunGusX3sJ0622mCX0PGQ|52=20231222-15:35:13.112|56=cServer|57=QUOTE|10=158|8=FIX.4.4|9=113|35=0|34=39|49=demo.ctrader.3873996|50=3873996HNunGusX3sJ0622mCX0PGQ|52=20231222-15:35:43.144|56=cServer|57=QUOTE|10=167|8=FIX.4.4|9=113|35=0|34=40|49=demo.ctrader.3873996|50=3873996HNunGusX3sJ0622mCX0PGQ|52=20231222-15:36:14.138|56=cServer|57=QUOTE|10=161|8=FIX.4.4|9=113|35=0|34=41|49=demo.ctrader.3873996|50=3873996HNunGusX3sJ0622mCX0PGQ|52=20231222-15:36:45.137|56=cServer|57=QUOTE|10=165|8=FIX.4.4|9=113|35=0|34=42|49=demo.ctrader.3873996|50=3873996HNunGusX3sJ0622mCX0PGQ|52=20231222-15:37:15.141|56=cServer|57=QUOTE|10=159|8=FIX.4.4|9=113|35=0|34=43|49=demo.ctrader.3873996|50=3873996HNunGusX3sJ0622mCX0PGQ|52=20231222-15:37:45.301|56=cServer|57=QUOTE|10=161|8=FIX.4.4|9=113|35=0|34=44|49=demo.ctrader.3873996|50=3873996HNunGusX3sJ0622mCX0PGQ|52=20231222-15:38:16.165|56=cServer|57=QUOTE|10=169|8=FIX.4.4|9=113|35=0|34=45|49=demo.ctrader.3873996|50=3873996HNunGusX3sJ0622mCX0PGQ|52=20231222-15:38:47.141|56=cServer|57=QUOTE|10=168|8=FIX.4.4|9=113|35=0|34=46|49=demo.ctrader.3873996|50=3873996HNunGusX3sJ0622mCX0PGQ|52=20231222-15:39:17.164|56=cServer|57=QUOTE|10=172|8=FIX.4.4|9=113|35=0|34=47|49=demo.ctrader.3873996|50=3873996HNunGusX3sJ0622mCX0PGQ|52=20231222-15:39:48.140|56=cServer|57=QUOTE|10=171|8=FIX.4.4|9=113|35=0|34=48|49=demo.ctrader.3873996|50=3873996HNunGusX3sJ0622mCX0PGQ|52=20231222-15:40:18.175|56=cServer|57=QUOTE|10=169|8=FIX.4.4|9=113|35=0|34=49|49=demo.ctrader.3873996|50=3873996HNunGusX3sJ0622mCX0PGQ|52=20231222-15:40:48.189|56=cServer|57=QUOTE|10=178|8=FIX.4.4|9=113|35=0|34=50|49=demo.ctrader.3873996|50=3873996HNunGusX3sJ0622mCX0PGQ|52=20231222-15:41:19.162|56=cServer|57=QUOTE|10=160|8=FIX.4.4|9=113|35=0|34=51|49=demo.ctrader.3873996|50=3873996HNunGusX3sJ0622mCX0PGQ|52=20231222-15:41:50.153|56=cServer|57=QUOTE|10=156|8=FIX.4.4|9=113|35=0|34=52|49=demo.ctrader.3873996|50=3873996HNunGusX3sJ0622mCX0PGQ|52=20231222-15:42:20.187|56=cServer|57=QUOTE|10=162|8=FIX.4.4|9=113|35=0|34=53|49=demo.ctrader.3873996|50=3873996HNunGusX3sJ0622mCX0PGQ|52=20231222-15:42:51.184|56=cServer|57=QUOTE|10=164|8=FIX.4.4|9=113|35=0|34=54|49=demo.ctrader.3873996|50=3873996HNunGusX3sJ0622mCX0PGQ|52=20231222-15:43:21.185|56=cServer|57=QUOTE|10=164|8=FIX.4.4|9=113|35=0|34=55|49=demo.ctrader.3873996|50=3873996HNunGusX3sJ0622mCX0PGQ|52=20231222-15:43:51.194|56=cServer|57=QUOTE|10=168|8=FIX.4.4|9=113|35=0|34=56|49=demo.ctrader.3873996|50=3873996HNunGusX3sJ0622mCX0PGQ|52=20231222-15:44:22.195|56=cServer|57=QUOTE|10=169|8=FIX.4.4|9=113|35=0|34=57|49=demo.ctrader.3873996|50=3873996HNunGusX3sJ0622mCX0PGQ|52=20231222-15:44:52.204|56=cServer|57=QUOTE|10=164|8=FIX.4.4|9=113|35=0|34=58|49=demo.ctrader.3873996|50=3873996HNunGusX3sJ0622mCX0PGQ|52=20231222-15:45:22.248|56=cServer|57=QUOTE|10=171|8=FIX.4.4|9=113|35=0|34=59|49=demo.ctrader.3873996|50=3873996HNunGusX3sJ0622mCX0PGQ|52=20231222-15:45:53.181|56=cServer|57=QUOTE|10=172|8=FIX.4.4|9=113|35=0|34=60|49=demo.ctrader.3873996|50=3873996HNunGusX3sJ0622mCX0PGQ|52=20231222-15:46:23.187|56=cServer|57=QUOTE|10=168|8=FIX.4.4|9=113|35=0|34=61|49=demo.ctrader.3873996|50=3873996HNunGusX3sJ0622mCX0PGQ|52=20231222-15:46:54.189|56=cServer|57=QUOTE|10=175|8=FIX.4.4|9=113|35=0|34=62|49=demo.ctrader.3873996|50=3873996HNunGusX3sJ0622mCX0PGQ|52=20231222-15:47:24.224|56=cServer|57=QUOTE|10=164|8=FIX.4.4|9=113|35=0|34=63|49=demo.ctrader.3873996|50=3873996HNunGusX3sJ0622mCX0PGQ|52=20231222-15:47:55.216|56=cServer|57=QUOTE|10=170|8=FIX.4.4|9=113|35=0|34=64|49=demo.ctrader.3873996|50=3873996HNunGusX3sJ0622mCX0PGQ|52=20231222-15:48:26.205|56=cServer|57=QUOTE|10=168|8=FIX.4.4|9=113|35=0|34=65|49=demo.ctrader.3873996|50=3873996HNunGusX3sJ0622mCX0PGQ|52=20231222-15:48:56.209|56=cServer|57=QUOTE|10=176|8=FIX.4.4|9=113|35=0|34=66|49=demo.ctrader.3873996|50=3873996HNunGusX3sJ0622mCX0PGQ|52=20231222-15:49:27.022|56=cServer|57=QUOTE|10=169|8=FIX.4.4|9=113|35=0|34=67|49=demo.ctrader.3873996|50=3873996HNunGusX3sJ0622mCX0PGQ|52=20231222-15:49:58.036|56=cServer|57=QUOTE|10=179|8=FIX.4.4|9=113|35=0|34=68|49=demo.ctrader.3873996|50=3873996HNunGusX3sJ0622mCX0PGQ|52=20231222-15:50:29.033|56=cServer|57=QUOTE|10=167|8=FIX.4.4|9=113|35=0|34=69|49=demo.ctrader.3873996|50=3873996HNunGusX3sJ0622mCX0PGQ|52=20231222-15:50:59.043|56=cServer|57=QUOTE|10=172|8=FIX.4.4|9=113|35=0|34=70|49=demo.ctrader.3873996|50=3873996HNunGusX3sJ0622mCX0PGQ|52=20231222-15:51:30.038|56=cServer|57=QUOTE|10=158|8=FIX.4.4|9=113|35=0|34=71|49=demo.ctrader.3873996|50=3873996HNunGusX3sJ0622mCX0PGQ|52=20231222-15:52:01.041|56=cServer|57=QUOTE|10=152|8=FIX.4.4|9=113|35=0|34=72|49=demo.ctrader.3873996|50=3873996HNunGusX3sJ0622mCX0PGQ|52=20231222-15:52:31.043|56=cServer|57=QUOTE|10=158|8=FIX.4.4|9=113|35=0|34=73|49=demo.ctrader.3873996|50=3873996HNunGusX3sJ0622mCX0PGQ|52=20231222-15:53:01.044|56=cServer|57=QUOTE|10=158|8=FIX.4.4|9=113|35=0|34=74|49=demo.ctrader.3873996|50=3873996HNunGusX3sJ0622mCX0PGQ|52=20231222-15:53:31.054|56=cServer|57=QUOTE|10=163|8=FIX.4.4|9=113|35=0|34=75|49=demo.ctrader.3873996|50=3873996HNunGusX3sJ0622mCX0PGQ|52=20231222-15:54:02.046|56=cServer|57=QUOTE|10=164|8=FIX.4.4|9=113|35=0|34=76|49=demo.ctrader.3873996|50=3873996HNunGusX3sJ0622mCX0PGQ|52=20231222-15:54:32.053|56=cServer|57=QUOTE|10=166|8=FIX.4.4|9=113|35=0|34=77|49=demo.ctrader.3873996|50=3873996HNunGusX3sJ0622mCX0PGQ|52=20231222-15:55:02.135|56=cServer|57=QUOTE|10=166|8=FIX.4.4|9=113|35=0|34=78|49=demo.ctrader.3873996|50=3873996HNunGusX3sJ0622mCX0PGQ|52=20231222-15:55:33.089|56=cServer|57=QUOTE|10=179|8=FIX.4.4|9=113|35=0|34=79|49=demo.ctrader.3873996|50=3873996HNunGusX3sJ0622mCX0PGQ|52=20231222-15:56:04.070|56=cServer|57=QUOTE|10=169|8=FIX.4.4|9=113|35=0|34=80|49=demo.ctrader.3873996|50=3873996HNunGusX3sJ0622mCX0PGQ|52=20231222-15:56:35.071|56=cServer|57=QUOTE|10=166|8=FIX.4.4|9=113|35=0|34=81|49=demo.ctrader.3873996|50=3873996HNunGusX3sJ0622mCX0PGQ|52=20231222-15:57:06.071|56=cServer|57=QUOTE|10=166|8=FIX.4.4|9=113|35=0|34=82|49=demo.ctrader.3873996|50=3873996HNunGusX3sJ0622mCX0PGQ|52=20231222-15:57:36.150|56=cServer|57=QUOTE|10=168|8=FIX.4.4|9=113|35=0|34=83|49=demo.ctrader.3873996|50=3873996HNunGusX3sJ0622mCX0PGQ|52=20231222-15:58:07.071|56=cServer|57=QUOTE|10=170|8=FIX.4.4|9=113|35=0|34=84|49=demo.ctrader.3873996|50=3873996HNunGusX3sJ0622mCX0PGQ|52=20231222-15:58:37.095|56=cServer|57=QUOTE|10=180|8=FIX.4.4|9=113|35=0|34=85|49=demo.ctrader.3873996|50=3873996HNunGusX3sJ0622mCX0PGQ|52=20231222-15:59:07.107|56=cServer|57=QUOTE|10=173|8=FIX.4.4|9=113|35=0|34=86|49=demo.ctrader.3873996|50=3873996HNunGusX3sJ0622mCX0PGQ|52=20231222-15:59:38.095|56=cServer|57=QUOTE|10=184|8=FIX.4.4|9=113|35=0|34=87|49=demo.ctrader.3873996|50=3873996HNunGusX3sJ0622mCX0PGQ|52=20231222-16:00:09.098|56=cServer|57=QUOTE|10=173|8=FIX.4.4|9=113|35=0|34=88|49=demo.ctrader.3873996|50=3873996HNunGusX3sJ0622mCX0PGQ|52=20231222-16:00:40.098|56=cServer|57=QUOTE|10=169|8=FIX.4.4|9=113|35=0|34=89|49=demo.ctrader.3873996|50=3873996HNunGusX3sJ0622mCX0PGQ|52=20231222-16:01:10.104|56=cServer|57=QUOTE|10=156|8=FIX.4.4|9=113|35=0|34=90|49=demo.ctrader.3873996|50=3873996HNunGusX3sJ0622mCX0PGQ|52=20231222-16:01:40.148|56=cServer|57=QUOTE|10=159|8=FIX.4.4|9=113|35=0|34=91|49=demo.ctrader.3873996|50=3873996HNunGusX3sJ0622mCX0PGQ|52=20231222-16:02:11.124|56=cServer|57=QUOTE|10=153|8=FIX.4.4|9=113|35=0|34=92|49=demo.ctrader.3873996|50=3873996HNunGusX3sJ0622mCX0PGQ|52=20231222-16:02:42.129|56=cServer|57=QUOTE|10=163|8=FIX.4.4|9=113|35=0|34=93|49=demo.ctrader.3873996|50=3873996HNunGusX3sJ0622mCX0PGQ|52=20231222-16:03:13.129|56=cServer|57=QUOTE|10=163|8=FIX.4.4|9=113|35=0|34=94|49=demo.ctrader.3873996|50=3873996HNunGusX3sJ0622mCX0PGQ|52=20231222-16:03:44.121|56=cServer|57=QUOTE|10=160|8=FIX.4.4|9=113|35=0|34=95|49=demo.ctrader.3873996|50=3873996HNunGusX3sJ0622mCX0PGQ|52=20231222-16:04:14.134|56=cServer|57=QUOTE|10=163|8=FIX.4.4|9=113|35=0|34=96|49=demo.ctrader.3873996|50=3873996HNunGusX3sJ0622mCX0PGQ|52=20231222-16:04:45.124|56=cServer|57=QUOTE|10=167|8=FIX.4.4|9=113|35=0|34=97|49=demo.ctrader.3873996|50=3873996HNunGusX3sJ0622mCX0PGQ|52=20231222-16:05:15.158|56=cServer|57=QUOTE|10=173|8=FIX.4.4|9=113|35=0|34=98|49=demo.ctrader.3873996|50=3873996HNunGusX3sJ0622mCX0PGQ|52=20231222-16:05:46.150|56=cServer|57=QUOTE|10=170|8=FIX.4.4|9=113|35=0|34=99|49=demo.ctrader.3873996|50=3873996HNunGusX3sJ0622mCX0PGQ|52=20231222-16:06:16.154|56=cServer|57=QUOTE|10=173|8=FIX.4.4|9=114|35=0|34=100|49=demo.ctrader.3873996|50=3873996HNunGusX3sJ0622mCX0PGQ|52=20231222-16:06:46.164|56=cServer|57=QUOTE|10=209|8=FIX.4.4|9=114|35=0|34=101|49=demo.ctrader.3873996|50=3873996HNunGusX3sJ0622mCX0PGQ|52=20231222-16:07:16.165|56=cServer|57=QUOTE|10=209|8=FIX.4.4|9=114|35=0|34=102|49=demo.ctrader.3873996|50=3873996HNunGusX3sJ0622mCX0PGQ|52=20231222-16:07:47.139|56=cServer|57=QUOTE|10=215|8=FIX.4.4|9=114|35=0|34=103|49=demo.ctrader.3873996|50=3873996HNunGusX3sJ0622mCX0PGQ|52=20231222-16:08:17.174|56=cServer|57=QUOTE|10=213|8=FIX.4.4|9=114|35=0|34=104|49=demo.ctrader.3873996|50=3873996HNunGusX3sJ0622mCX0PGQ|52=20231222-16:08:47.185|56=cServer|57=QUOTE|10=219|8=FIX.4.4|9=114|35=0|34=105|49=demo.ctrader.3873996|50=3873996HNunGusX3sJ0622mCX0PGQ|52=20231222-16:09:18.183|56=cServer|57=QUOTE|10=217|8=FIX.4.4|9=114|35=0|34=106|49=demo.ctrader.3873996|50=3873996HNunGusX3sJ0622mCX0PGQ|52=20231222-16:09:48.184|56=cServer|57=QUOTE|10=222|8=FIX.4.4|9=114|35=0|34=107|49=demo.ctrader.3873996|50=3873996HNunGusX3sJ0622mCX0PGQ|52=20231222-16:10:19.171|56=cServer|57=QUOTE|10=209|8=FIX.4.4|9=114|35=0|34=108|49=demo.ctrader.3873996|50=3873996HNunGusX3sJ0622mCX0PGQ|52=20231222-16:10:49.172|56=cServer|57=QUOTE|10=214|8=FIX.4.4|9=114|35=0|34=109|49=demo.ctrader.3873996|50=3873996HNunGusX3sJ0622mCX0PGQ|52=20231222-16:11:19.175|56=cServer|57=QUOTE|10=216|8=FIX.4.4|9=114|35=0|34=110|49=demo.ctrader.3873996|50=3873996HNunGusX3sJ0622mCX0PGQ|52=20231222-16:11:49.177|56=cServer|57=QUOTE|10=213|