8=FIX.4.4|9=244|35=A|34=1|49=demo.ctrader.3873996|50=3873996p4YWQbHMpmmDBx6zC7UE4w|52=20231226-08:02:37.013|56=cServer|57=TRADE|49=demo.ctrader.3873996|50=3873996p4YWQbHMpmmDBx6zC7UE4w|52=20231226-08:02:37|56=cServer|98=0|108=30|141=Y|553=3873996|554=Gtlfx125|10=002|8=FIX.4.4|9=130|35=x|34=2|49=demo.ctrader.3873996|50=3873996p4YWQbHMpmmDBx6zC7UE4w|52=20231226-08:02:37.595|56=cServer|57=TRADE|320=symbols|559=0|10=009|8=FIX.4.4|9=127|35=AN|34=3|49=demo.ctrader.3873996|50=3873996p4YWQbHMpmmDBx6zC7UE4w|52=20231226-08:02:37.941|56=cServer|57=TRADE|710=Positions|10=211|8=FIX.4.4|9=130|35=AF|34=4|49=demo.ctrader.3873996|50=3873996p4YWQbHMpmmDBx6zC7UE4w|52=20231226-08:02:37.942|56=cServer|57=TRADE|584=Orders|585=7|10=142|8=FIX.4.4|9=112|35=0|34=5|49=demo.ctrader.3873996|50=3873996p4YWQbHMpmmDBx6zC7UE4w|52=20231226-08:03:08.297|56=cServer|57=TRADE|10=213|8=FIX.4.4|9=112|35=0|34=6|49=demo.ctrader.3873996|50=3873996p4YWQbHMpmmDBx6zC7UE4w|52=20231226-08:03:38.585|56=cServer|57=TRADE|10=217|8=FIX.4.4|9=112|35=0|34=7|49=demo.ctrader.3873996|50=3873996p4YWQbHMpmmDBx6zC7UE4w|52=20231226-08:04:08.763|56=cServer|57=TRADE|10=214|8=FIX.4.4|9=112|35=0|34=8|49=demo.ctrader.3873996|50=3873996p4YWQbHMpmmDBx6zC7UE4w|52=20231226-08:04:39.765|56=cServer|57=TRADE|10=221|8=FIX.4.4|9=112|35=0|34=9|49=demo.ctrader.3873996|50=3873996p4YWQbHMpmmDBx6zC7UE4w|52=20231226-08:05:09.774|56=cServer|57=TRADE|10=220|8=FIX.4.4|9=113|35=0|34=10|49=demo.ctrader.3873996|50=3873996p4YWQbHMpmmDBx6zC7UE4w|52=20231226-08:05:40.777|56=cServer|57=TRADE|10=003|8=FIX.4.4|9=113|35=0|34=11|49=demo.ctrader.3873996|50=3873996p4YWQbHMpmmDBx6zC7UE4w|52=20231226-08:06:10.786|56=cServer|57=TRADE|10=002|8=FIX.4.4|9=113|35=0|34=12|49=demo.ctrader.3873996|50=3873996p4YWQbHMpmmDBx6zC7UE4w|52=20231226-08:06:40.869|56=cServer|57=TRADE|10=008|8=FIX.4.4|9=113|35=0|34=13|49=demo.ctrader.3873996|50=3873996p4YWQbHMpmmDBx6zC7UE4w|52=20231226-08:07:11.791|56=cServer|57=TRADE|10=002|8=FIX.4.4|9=113|35=0|34=14|49=demo.ctrader.3873996|50=3873996p4YWQbHMpmmDBx6zC7UE4w|52=20231226-08:07:42.789|56=cServer|57=TRADE|10=014|8=FIX.4.4|9=113|35=0|34=15|49=demo.ctrader.3873996|50=3873996p4YWQbHMpmmDBx6zC7UE4w|52=20231226-08:08:12.802|56=cServer|57=TRADE|10=255|