8=FIX.4.4|9=244|35=A|34=1|49=demo.ctrader.3873996|50=3873996EBX5w1iUP70IeX6OOXn8dw|52=20231215-09:26:02.842|56=cServer|57=QUOTE|49=demo.ctrader.3873996|50=3873996EBX5w1iUP70IeX6OOXn8dw|52=20231215-09:26:02|56=cServer|98=0|108=30|141=Y|553=3873996|554=Gtlfx125|10=070|8=FIX.4.4|9=226|35=5|34=2|49=demo.ctrader.3873996|50=3873996EBX5w1iUP70IeX6OOXn8dw|52=20231215-09:26:31.619|56=cServer|57=QUOTE|49=demo.ctrader.3873996|50=3873996EBX5w1iUP70IeX6OOXn8dw|52=20231215-09:26:31|56=cServer|553=3873996|554=Gtlfx125|10=251|8=FIX.4.4|9=226|35=5|34=3|49=demo.ctrader.3873996|50=3873996EBX5w1iUP70IeX6OOXn8dw|52=20231215-09:26:42.793|56=cServer|57=QUOTE|49=demo.ctrader.3873996|50=3873996EBX5w1iUP70IeX6OOXn8dw|52=20231215-09:26:42|56=cServer|553=3873996|554=Gtlfx125|10=003|