8=FIX.4.4|9=244|35=A|34=1|49=demo.ctrader.3873996|50=3873996K19VpW2Pj2OvSXjWVcZlnw|52=20240104-08:57:24.613|56=cServer|57=TRADE|49=demo.ctrader.3873996|50=3873996K19VpW2Pj2OvSXjWVcZlnw|52=20240104-08:57:24|56=cServer|98=0|108=30|141=Y|553=3873996|554=Gtlfx125|10=110|8=FIX.4.4|9=130|35=x|34=2|49=demo.ctrader.3873996|50=3873996K19VpW2Pj2OvSXjWVcZlnw|52=20240104-08:57:25.270|56=cServer|57=TRADE|320=symbols|559=0|10=051|8=FIX.4.4|9=127|35=AN|34=3|49=demo.ctrader.3873996|50=3873996K19VpW2Pj2OvSXjWVcZlnw|52=20240104-08:57:25.572|56=cServer|57=TRADE|710=Positions|10=007|8=FIX.4.4|9=130|35=AF|34=4|49=demo.ctrader.3873996|50=3873996K19VpW2Pj2OvSXjWVcZlnw|52=20240104-08:57:25.573|56=cServer|57=TRADE|584=Orders|585=7|10=194|8=FIX.4.4|9=177|35=D|34=5|49=demo.ctrader.3873996|50=3873996K19VpW2Pj2OvSXjWVcZlnw|52=20240104-08:57:39.833|56=cServer|57=TRADE|11=68421681|38=1000|40=1|54=1|55=2|59=3|60=20240104-13:57:39.832|10=021|8=FIX.4.4|9=127|35=AN|34=6|49=demo.ctrader.3873996|50=3873996K19VpW2Pj2OvSXjWVcZlnw|52=20240104-08:57:40.241|56=cServer|57=TRADE|710=Positions|10=000|