8=FIX.4.4|9=244|35=A|34=1|49=demo.ctrader.3873996|50=38739965JInJSeLRPc6MMCsQe3SOQ|52=20231212-07:03:49.376|56=cServer|57=QUOTE|49=demo.ctrader.3873996|50=38739965JInJSeLRPc6MMCsQe3SOQ|52=20231212-07:03:49|56=cServer|98=0|108=30|141=Y|553=3873996|554=Gtlfx125|10=088|8=FIX.4.4|9=112|35=0|34=2|49=demo.ctrader.3873996|50=38739965JInJSeLRPc6MMCsQe3SOQ|52=20231212-07:04:20.168|56=cServer|57=QUOTE|10=122|8=FIX.4.4|9=112|35=0|34=3|49=demo.ctrader.3873996|50=38739965JInJSeLRPc6MMCsQe3SOQ|52=20231212-07:04:51.174|56=cServer|57=QUOTE|10=124|8=FIX.4.4|9=112|35=0|34=4|49=demo.ctrader.3873996|50=38739965JInJSeLRPc6MMCsQe3SOQ|52=20231212-07:05:21.175|56=cServer|57=QUOTE|10=124|8=FIX.4.4|9=112|35=0|34=5|49=demo.ctrader.3873996|50=38739965JInJSeLRPc6MMCsQe3SOQ|52=20231212-07:05:52.174|56=cServer|57=QUOTE|10=128|8=FIX.4.4|9=112|35=0|34=6|49=demo.ctrader.3873996|50=38739965JInJSeLRPc6MMCsQe3SOQ|52=20231212-07:06:22.182|56=cServer|57=QUOTE|10=126|8=FIX.4.4|9=112|35=0|34=7|49=demo.ctrader.3873996|50=38739965JInJSeLRPc6MMCsQe3SOQ|52=20231212-07:07:04.602|56=cServer|57=QUOTE|10=125|8=FIX.4.4|9=121|35=1|34=8|49=demo.ctrader.3873996|50=38739965JInJSeLRPc6MMCsQe3SOQ|52=20231212-07:08:00.897|56=cServer|57=QUOTE|112=TEST|10=158|8=FIX.4.4|9=121|35=0|34=9|49=demo.ctrader.3873996|50=38739965JInJSeLRPc6MMCsQe3SOQ|52=20231212-07:08:00.898|56=cServer|57=QUOTE|112=TEST|10=159|8=FIX.4.4|9=113|35=0|34=10|49=demo.ctrader.3873996|50=38739965JInJSeLRPc6MMCsQe3SOQ|52=20231212-07:08:31.377|56=cServer|57=QUOTE|10=178|8=FIX.4.4|9=113|35=0|34=11|49=demo.ctrader.3873996|50=38739965JInJSeLRPc6MMCsQe3SOQ|52=20231212-07:09:02.933|56=cServer|57=QUOTE|10=176|8=FIX.4.4|9=113|35=0|34=12|49=demo.ctrader.3873996|50=38739965JInJSeLRPc6MMCsQe3SOQ|52=20231212-07:09:38.739|56=cServer|57=QUOTE|10=190|8=FIX.4.4|9=122|35=1|34=13|49=demo.ctrader.3873996|50=38739965JInJSeLRPc6MMCsQe3SOQ|52=20231212-07:10:11.730|56=cServer|57=QUOTE|112=TEST|10=184|8=FIX.4.4|9=113|35=0|34=14|49=demo.ctrader.3873996|50=38739965JInJSeLRPc6MMCsQe3SOQ|52=20231212-07:10:51.172|56=cServer|57=QUOTE|10=170|