8=FIX.4.4|9=244|35=A|34=1|49=demo.ctrader.3873996|50=38739966QKUrjidMZH3ENqwcBdLsg|52=20240103-14:58:05.241|56=cServer|57=QUOTE|49=demo.ctrader.3873996|50=38739966QKUrjidMZH3ENqwcBdLsg|52=20240103-14:58:05|56=cServer|98=0|108=30|141=Y|553=3873996|554=Gtlfx125|10=175|8=FIX.4.4|9=226|35=5|34=2|49=demo.ctrader.3873996|50=38739966QKUrjidMZH3ENqwcBdLsg|52=20240103-14:58:11.528|56=cServer|57=QUOTE|49=demo.ctrader.3873996|50=38739966QKUrjidMZH3ENqwcBdLsg|52=20240103-14:58:11|56=cServer|553=3873996|554=Gtlfx125|10=096|8=FIX.4.4|9=226|35=5|34=3|49=demo.ctrader.3873996|50=38739966QKUrjidMZH3ENqwcBdLsg|52=20240103-14:58:26.920|56=cServer|57=QUOTE|49=demo.ctrader.3873996|50=38739966QKUrjidMZH3ENqwcBdLsg|52=20240103-14:58:26|56=cServer|553=3873996|554=Gtlfx125|10=105|