8=FIX.4.4|9=244|35=A|34=1|49=demo.ctrader.3873996|50=3873996eHNdo_7yKrfAMOk-wCrbFg|52=20240104-08:25:56.241|56=cServer|57=QUOTE|49=demo.ctrader.3873996|50=3873996eHNdo_7yKrfAMOk-wCrbFg|52=20240104-08:25:56|56=cServer|98=0|108=30|141=Y|553=3873996|554=Gtlfx125|10=223|8=FIX.4.4|9=170|35=V|34=2|49=demo.ctrader.3873996|50=3873996eHNdo_7yKrfAMOk-wCrbFg|52=20240104-08:25:57.137|56=cServer|57=QUOTE|262=MARKETDATAID|263=1|264=1|267=2|269=0|269=1|146=1|55=1|10=220|8=FIX.4.4|9=170|35=V|34=3|49=demo.ctrader.3873996|50=3873996eHNdo_7yKrfAMOk-wCrbFg|52=20240104-08:25:57.138|56=cServer|57=QUOTE|262=MARKETDATAID|263=1|264=1|267=2|269=0|269=1|146=1|55=2|10=223|8=FIX.4.4|9=170|35=V|34=4|49=demo.ctrader.3873996|50=3873996eHNdo_7yKrfAMOk-wCrbFg|52=20240104-08:25:57.139|56=cServer|57=QUOTE|262=MARKETDATAID|263=1|264=1|267=2|269=0|269=1|146=1|55=3|10=226|8=FIX.4.4|9=170|35=V|34=5|49=demo.ctrader.3873996|50=3873996eHNdo_7yKrfAMOk-wCrbFg|52=20240104-08:25:57.140|56=cServer|57=QUOTE|262=MARKETDATAID|263=1|264=1|267=2|269=0|269=1|146=1|55=4|10=220|8=FIX.4.4|9=170|35=V|34=6|49=demo.ctrader.3873996|50=3873996eHNdo_7yKrfAMOk-wCrbFg|52=20240104-08:25:57.140|56=cServer|57=QUOTE|262=MARKETDATAID|263=1|264=1|267=2|269=0|269=1|146=1|55=5|10=222|8=FIX.4.4|9=170|35=V|34=7|49=demo.ctrader.3873996|50=3873996eHNdo_7yKrfAMOk-wCrbFg|52=20240104-08:25:57.140|56=cServer|57=QUOTE|262=MARKETDATAID|263=1|264=1|267=2|269=0|269=1|146=1|55=6|10=224|8=FIX.4.4|9=170|35=V|34=8|49=demo.ctrader.3873996|50=3873996eHNdo_7yKrfAMOk-wCrbFg|52=20240104-08:25:57.140|56=cServer|57=QUOTE|262=MARKETDATAID|263=1|264=1|267=2|269=0|269=1|146=1|55=7|10=226|8=FIX.4.4|9=170|35=V|34=9|49=demo.ctrader.3873996|50=3873996eHNdo_7yKrfAMOk-wCrbFg|52=20240104-08:25:57.140|56=cServer|57=QUOTE|262=MARKETDATAID|263=1|264=1|267=2|269=0|269=1|146=1|55=8|10=228|8=FIX.4.4|9=171|35=V|34=10|49=demo.ctrader.3873996|50=3873996eHNdo_7yKrfAMOk-wCrbFg|52=20240104-08:25:57.140|56=cServer|57=QUOTE|262=MARKETDATAID|263=1|264=1|267=2|269=0|269=1|146=1|55=9|10=014|8=FIX.4.4|9=172|35=V|34=11|49=demo.ctrader.3873996|50=3873996eHNdo_7yKrfAMOk-wCrbFg|52=20240104-08:25:57.140|56=cServer|57=QUOTE|262=MARKETDATAID|263=1|264=1|267=2|269=0|269=1|146=1|55=10|10=056|8=FIX.4.4|9=172|35=V|34=12|49=demo.ctrader.3873996|50=3873996eHNdo_7yKrfAMOk-wCrbFg|52=20240104-08:25:57.141|56=cServer|57=QUOTE|262=MARKETDATAID|263=1|264=1|267=2|269=0|269=1|146=1|55=11|10=059|8=FIX.4.4|9=172|35=V|34=13|49=demo.ctrader.3873996|50=3873996eHNdo_7yKrfAMOk-wCrbFg|52=20240104-08:25:57.141|56=cServer|57=QUOTE|262=MARKETDATAID|263=1|264=1|267=2|269=0|269=1|146=1|55=12|10=061|8=FIX.4.4|9=172|35=V|34=14|49=demo.ctrader.3873996|50=3873996eHNdo_7yKrfAMOk-wCrbFg|52=20240104-08:25:57.141|56=cServer|57=QUOTE|262=MARKETDATAID|263=1|264=1|267=2|269=0|269=1|146=1|55=13|10=063|8=FIX.4.4|9=172|35=V|34=15|49=demo.ctrader.3873996|50=3873996eHNdo_7yKrfAMOk-wCrbFg|52=20240104-08:25:57.141|56=cServer|57=QUOTE|262=MARKETDATAID|263=1|264=1|267=2|269=0|269=1|146=1|55=14|10=065|8=FIX.4.4|9=172|35=V|34=16|49=demo.ctrader.3873996|50=3873996eHNdo_7yKrfAMOk-wCrbFg|52=20240104-08:25:57.141|56=cServer|57=QUOTE|262=MARKETDATAID|263=1|264=1|267=2|269=0|269=1|146=1|55=15|10=067|8=FIX.4.4|9=172|35=V|34=17|49=demo.ctrader.3873996|50=3873996eHNdo_7yKrfAMOk-wCrbFg|52=20240104-08:25:57.141|56=cServer|57=QUOTE|262=MARKETDATAID|263=1|264=1|267=2|269=0|269=1|146=1|55=16|10=069|8=FIX.4.4|9=172|35=V|34=18|49=demo.ctrader.3873996|50=3873996eHNdo_7yKrfAMOk-wCrbFg|52=20240104-08:25:57.141|56=cServer|57=QUOTE|262=MARKETDATAID|263=1|264=1|267=2|269=0|269=1|146=1|55=17|10=071|8=FIX.4.4|9=172|35=V|34=19|49=demo.ctrader.3873996|50=3873996eHNdo_7yKrfAMOk-wCrbFg|52=20240104-08:25:57.142|56=cServer|57=QUOTE|262=MARKETDATAID|263=1|264=1|267=2|269=0|269=1|146=1|55=18|10=074|8=FIX.4.4|9=172|35=V|34=20|49=demo.ctrader.3873996|50=3873996eHNdo_7yKrfAMOk-wCrbFg|52=20240104-08:25:57.142|56=cServer|57=QUOTE|262=MARKETDATAID|263=1|264=1|267=2|269=0|269=1|146=1|55=19|10=067|8=FIX.4.4|9=172|35=V|34=21|49=demo.ctrader.3873996|50=3873996eHNdo_7yKrfAMOk-wCrbFg|52=20240104-08:25:57.142|56=cServer|57=QUOTE|262=MARKETDATAID|263=1|264=1|267=2|269=0|269=1|146=1|55=22|10=062|8=FIX.4.4|9=113|35=0|34=22|49=demo.ctrader.3873996|50=3873996eHNdo_7yKrfAMOk-wCrbFg|52=20240104-08:26:27.156|56=cServer|57=QUOTE|10=123|8=FIX.4.4|9=113|35=0|34=23|49=demo.ctrader.3873996|50=3873996eHNdo_7yKrfAMOk-wCrbFg|52=20240104-08:26:57.171|56=cServer|57=QUOTE|10=124|8=FIX.4.4|9=113|35=0|34=24|49=demo.ctrader.3873996|50=3873996eHNdo_7yKrfAMOk-wCrbFg|52=20240104-08:27:27.211|56=cServer|57=QUOTE|10=118|8=FIX.4.4|9=113|35=0|34=25|49=demo.ctrader.3873996|50=3873996eHNdo_7yKrfAMOk-wCrbFg|52=20240104-08:27:57.228|56=cServer|57=QUOTE|10=130|8=FIX.4.4|9=113|35=0|34=26|49=demo.ctrader.3873996|50=3873996eHNdo_7yKrfAMOk-wCrbFg|52=20240104-08:28:27.323|56=cServer|57=QUOTE|10=125|8=FIX.4.4|9=113|35=0|34=27|49=demo.ctrader.3873996|50=3873996eHNdo_7yKrfAMOk-wCrbFg|52=20240104-08:28:57.387|56=cServer|57=QUOTE|10=139|8=FIX.4.4|9=113|35=0|34=28|49=demo.ctrader.3873996|50=3873996eHNdo_7yKrfAMOk-wCrbFg|52=20240104-08:29:27.455|56=cServer|57=QUOTE|10=134|8=FIX.4.4|9=113|35=0|34=29|49=demo.ctrader.3873996|50=3873996eHNdo_7yKrfAMOk-wCrbFg|52=20240104-08:29:57.477|56=cServer|57=QUOTE|10=142|8=FIX.4.4|9=113|35=0|34=30|49=demo.ctrader.3873996|50=3873996eHNdo_7yKrfAMOk-wCrbFg|52=20240104-08:30:27.598|56=cServer|57=QUOTE|10=127|8=FIX.4.4|9=113|35=0|34=31|49=demo.ctrader.3873996|50=3873996eHNdo_7yKrfAMOk-wCrbFg|52=20240104-08:30:57.614|56=cServer|57=QUOTE|10=120|8=FIX.4.4|9=113|35=0|34=32|49=demo.ctrader.3873996|50=3873996eHNdo_7yKrfAMOk-wCrbFg|52=20240104-08:31:27.616|56=cServer|57=QUOTE|10=121|8=FIX.4.4|9=113|35=0|34=33|49=demo.ctrader.3873996|50=3873996eHNdo_7yKrfAMOk-wCrbFg|52=20240104-08:31:57.633|56=cServer|57=QUOTE|10=124|8=FIX.4.4|9=113|35=0|34=34|49=demo.ctrader.3873996|50=3873996eHNdo_7yKrfAMOk-wCrbFg|52=20240104-08:32:27.640|56=cServer|57=QUOTE|10=121|8=FIX.4.4|9=113|35=0|34=35|49=demo.ctrader.3873996|50=3873996eHNdo_7yKrfAMOk-wCrbFg|52=20240104-08:32:57.833|56=cServer|57=QUOTE|10=129|8=FIX.4.4|9=113|35=0|34=36|49=demo.ctrader.3873996|50=3873996eHNdo_7yKrfAMOk-wCrbFg|52=20240104-08:33:27.843|56=cServer|57=QUOTE|10=129|8=FIX.4.4|9=113|35=0|34=37|49=demo.ctrader.3873996|50=3873996eHNdo_7yKrfAMOk-wCrbFg|52=20240104-08:33:57.846|56=cServer|57=QUOTE|10=136|8=FIX.4.4|9=113|35=0|34=38|49=demo.ctrader.3873996|50=3873996eHNdo_7yKrfAMOk-wCrbFg|52=20240104-08:34:27.996|56=cServer|57=QUOTE|10=141|8=FIX.4.4|9=113|35=0|34=39|49=demo.ctrader.3873996|50=3873996eHNdo_7yKrfAMOk-wCrbFg|52=20240104-08:34:58.165|56=cServer|57=QUOTE|10=134|8=FIX.4.4|9=113|35=0|34=40|49=demo.ctrader.3873996|50=3873996eHNdo_7yKrfAMOk-wCrbFg|52=20240104-08:35:28.215|56=cServer|57=QUOTE|10=120|8=FIX.4.4|9=113|35=0|34=41|49=demo.ctrader.3873996|50=3873996eHNdo_7yKrfAMOk-wCrbFg|52=20240104-08:35:58.232|56=cServer|57=QUOTE|10=123|8=FIX.4.4|9=113|35=0|34=42|49=demo.ctrader.3873996|50=3873996eHNdo_7yKrfAMOk-wCrbFg|52=20240104-08:36:28.276|56=cServer|57=QUOTE|10=130|8=FIX.4.4|9=113|35=0|34=43|49=demo.ctrader.3873996|50=3873996eHNdo_7yKrfAMOk-wCrbFg|52=20240104-08:36:58.411|56=cServer|57=QUOTE|10=125|8=FIX.4.4|9=113|35=0|34=44|49=demo.ctrader.3873996|50=3873996eHNdo_7yKrfAMOk-wCrbFg|52=20240104-08:37:28.422|56=cServer|57=QUOTE|10=126|8=FIX.4.4|9=113|35=0|34=45|49=demo.ctrader.3873996|50=3873996eHNdo_7yKrfAMOk-wCrbFg|52=20240104-08:37:58.426|56=cServer|57=QUOTE|10=134|8=FIX.4.4|9=113|35=0|34=46|49=demo.ctrader.3873996|50=3873996eHNdo_7yKrfAMOk-wCrbFg|52=20240104-08:38:28.476|56=cServer|57=QUOTE|10=138|8=FIX.4.4|9=113|35=0|34=47|49=demo.ctrader.3873996|50=3873996eHNdo_7yKrfAMOk-wCrbFg|52=20240104-08:38:58.606|56=cServer|57=QUOTE|10=137|8=FIX.4.4|9=113|35=0|34=48|49=demo.ctrader.3873996|50=3873996eHNdo_7yKrfAMOk-wCrbFg|52=20240104-08:39:28.618|56=cServer|57=QUOTE|10=139|8=FIX.4.4|9=113|35=0|34=49|49=demo.ctrader.3873996|50=3873996eHNdo_7yKrfAMOk-wCrbFg|52=20240104-08:39:58.748|56=cServer|57=QUOTE|10=147|8=FIX.4.4|9=113|35=0|34=50|49=demo.ctrader.3873996|50=3873996eHNdo_7yKrfAMOk-wCrbFg|52=20240104-08:40:28.815|56=cServer|57=QUOTE|10=123|8=FIX.4.4|9=113|35=0|34=51|49=demo.ctrader.3873996|50=3873996eHNdo_7yKrfAMOk-wCrbFg|52=20240104-08:40:58.816|56=cServer|57=QUOTE|10=128|8=FIX.4.4|9=113|35=0|34=52|49=demo.ctrader.3873996|50=3873996eHNdo_7yKrfAMOk-wCrbFg|52=20240104-08:41:28.852|56=cServer|57=QUOTE|10=127|8=FIX.4.4|9=113|35=0|34=53|49=demo.ctrader.3873996|50=3873996eHNdo_7yKrfAMOk-wCrbFg|52=20240104-08:41:58.978|56=cServer|57=QUOTE|10=140|8=FIX.4.4|9=113|35=0|34=54|49=demo.ctrader.3873996|50=3873996eHNdo_7yKrfAMOk-wCrbFg|52=20240104-08:42:29.017|56=cServer|57=QUOTE|10=124|8=FIX.4.4|9=113|35=0|34=55|49=demo.ctrader.3873996|50=3873996eHNdo_7yKrfAMOk-wCrbFg|52=20240104-08:42:59.022|56=cServer|57=QUOTE|10=124|8=FIX.4.4|9=113|35=0|34=56|49=demo.ctrader.3873996|50=3873996eHNdo_7yKrfAMOk-wCrbFg|52=20240104-08:43:29.056|56=cServer|57=QUOTE|10=130|8=FIX.4.4|9=113|35=0|34=57|49=demo.ctrader.3873996|50=3873996eHNdo_7yKrfAMOk-wCrbFg|52=20240104-08:43:59.087|56=cServer|57=QUOTE|10=138|8=FIX.4.4|9=113|35=0|34=58|49=demo.ctrader.3873996|50=3873996eHNdo_7yKrfAMOk-wCrbFg|52=20240104-08:44:29.117|56=cServer|57=QUOTE|10=131|8=FIX.4.4|9=113|35=0|34=59|49=demo.ctrader.3873996|50=3873996eHNdo_7yKrfAMOk-wCrbFg|52=20240104-08:44:59.123|56=cServer|57=QUOTE|10=132|8=FIX.4.4|9=113|35=0|34=60|49=demo.ctrader.3873996|50=3873996eHNdo_7yKrfAMOk-wCrbFg|52=20240104-08:45:29.130|56=cServer|57=QUOTE|10=120|8=FIX.4.4|9=227|35=5|34=61|49=demo.ctrader.3873996|50=3873996eHNdo_7yKrfAMOk-wCrbFg|52=20240104-08:45:38.432|56=cServer|57=QUOTE|49=demo.ctrader.3873996|50=3873996eHNdo_7yKrfAMOk-wCrbFg|52=20240104-08:45:38|56=cServer|553=3873996|554=Gtlfx125|10=202|8=FIX.4.4|9=227|35=5|34=62|49=demo.ctrader.3873996|50=3873996eHNdo_7yKrfAMOk-wCrbFg|52=20240104-08:45:48.740|56=cServer|57=QUOTE|49=demo.ctrader.3873996|50=3873996eHNdo_7yKrfAMOk-wCrbFg|52=20240104-08:45:48|56=cServer|553=3873996|554=Gtlfx125|10=207|