8=FIX.4.4|9=244|35=A|34=1|49=demo.ctrader.3873996|50=3873996SYMgnrV7VA2tpvZiiMY0Kw|52=20231227-10:52:19.684|56=cServer|57=QUOTE|49=demo.ctrader.3873996|50=3873996SYMgnrV7VA2tpvZiiMY0Kw|52=20231227-10:52:19|56=cServer|98=0|108=30|141=Y|553=3873996|554=Gtlfx125|10=238|8=FIX.4.4|9=170|35=V|34=2|49=demo.ctrader.3873996|50=3873996SYMgnrV7VA2tpvZiiMY0Kw|52=20231227-10:52:20.807|56=cServer|57=QUOTE|262=MARKETDATAID|263=1|264=1|267=2|269=0|269=1|146=1|55=1|10=217|8=FIX.4.4|9=170|35=V|34=3|49=demo.ctrader.3873996|50=3873996SYMgnrV7VA2tpvZiiMY0Kw|52=20231227-10:52:20.808|56=cServer|57=QUOTE|262=MARKETDATAID|263=1|264=1|267=2|269=0|269=1|146=1|55=2|10=220|8=FIX.4.4|9=170|35=V|34=4|49=demo.ctrader.3873996|50=3873996SYMgnrV7VA2tpvZiiMY0Kw|52=20231227-10:52:20.808|56=cServer|57=QUOTE|262=MARKETDATAID|263=1|264=1|267=2|269=0|269=1|146=1|55=3|10=222|8=FIX.4.4|9=170|35=V|34=5|49=demo.ctrader.3873996|50=3873996SYMgnrV7VA2tpvZiiMY0Kw|52=20231227-10:52:20.808|56=cServer|57=QUOTE|262=MARKETDATAID|263=1|264=1|267=2|269=0|269=1|146=1|55=4|10=224|8=FIX.4.4|9=170|35=V|34=6|49=demo.ctrader.3873996|50=3873996SYMgnrV7VA2tpvZiiMY0Kw|52=20231227-10:52:20.809|56=cServer|57=QUOTE|262=MARKETDATAID|263=1|264=1|267=2|269=0|269=1|146=1|55=5|10=227|8=FIX.4.4|9=170|35=V|34=7|49=demo.ctrader.3873996|50=3873996SYMgnrV7VA2tpvZiiMY0Kw|52=20231227-10:52:20.809|56=cServer|57=QUOTE|262=MARKETDATAID|263=1|264=1|267=2|269=0|269=1|146=1|55=6|10=229|8=FIX.4.4|9=170|35=V|34=8|49=demo.ctrader.3873996|50=3873996SYMgnrV7VA2tpvZiiMY0Kw|52=20231227-10:52:20.809|56=cServer|57=QUOTE|262=MARKETDATAID|263=1|264=1|267=2|269=0|269=1|146=1|55=7|10=231|8=FIX.4.4|9=170|35=V|34=9|49=demo.ctrader.3873996|50=3873996SYMgnrV7VA2tpvZiiMY0Kw|52=20231227-10:52:20.809|56=cServer|57=QUOTE|262=MARKETDATAID|263=1|264=1|267=2|269=0|269=1|146=1|55=8|10=233|8=FIX.4.4|9=171|35=V|34=10|49=demo.ctrader.3873996|50=3873996SYMgnrV7VA2tpvZiiMY0Kw|52=20231227-10:52:20.809|56=cServer|57=QUOTE|262=MARKETDATAID|263=1|264=1|267=2|269=0|269=1|146=1|55=9|10=019|8=FIX.4.4|9=172|35=V|34=11|49=demo.ctrader.3873996|50=3873996SYMgnrV7VA2tpvZiiMY0Kw|52=20231227-10:52:20.809|56=cServer|57=QUOTE|262=MARKETDATAID|263=1|264=1|267=2|269=0|269=1|146=1|55=10|10=061|8=FIX.4.4|9=172|35=V|34=12|49=demo.ctrader.3873996|50=3873996SYMgnrV7VA2tpvZiiMY0Kw|52=20231227-10:52:20.809|56=cServer|57=QUOTE|262=MARKETDATAID|263=1|264=1|267=2|269=0|269=1|146=1|55=11|10=063|8=FIX.4.4|9=172|35=V|34=13|49=demo.ctrader.3873996|50=3873996SYMgnrV7VA2tpvZiiMY0Kw|52=20231227-10:52:20.809|56=cServer|57=QUOTE|262=MARKETDATAID|263=1|264=1|267=2|269=0|269=1|146=1|55=12|10=065|8=FIX.4.4|9=172|35=V|34=14|49=demo.ctrader.3873996|50=3873996SYMgnrV7VA2tpvZiiMY0Kw|52=20231227-10:52:20.810|56=cServer|57=QUOTE|262=MARKETDATAID|263=1|264=1|267=2|269=0|269=1|146=1|55=13|10=059|8=FIX.4.4|9=172|35=V|34=15|49=demo.ctrader.3873996|50=3873996SYMgnrV7VA2tpvZiiMY0Kw|52=20231227-10:52:20.810|56=cServer|57=QUOTE|262=MARKETDATAID|263=1|264=1|267=2|269=0|269=1|146=1|55=14|10=061|8=FIX.4.4|9=172|35=V|34=16|49=demo.ctrader.3873996|50=3873996SYMgnrV7VA2tpvZiiMY0Kw|52=20231227-10:52:20.810|56=cServer|57=QUOTE|262=MARKETDATAID|263=1|264=1|267=2|269=0|269=1|146=1|55=15|10=063|8=FIX.4.4|9=172|35=V|34=17|49=demo.ctrader.3873996|50=3873996SYMgnrV7VA2tpvZiiMY0Kw|52=20231227-10:52:20.810|56=cServer|57=QUOTE|262=MARKETDATAID|263=1|264=1|267=2|269=0|269=1|146=1|55=16|10=065|8=FIX.4.4|9=172|35=V|34=18|49=demo.ctrader.3873996|50=3873996SYMgnrV7VA2tpvZiiMY0Kw|52=20231227-10:52:20.810|56=cServer|57=QUOTE|262=MARKETDATAID|263=1|264=1|267=2|269=0|269=1|146=1|55=17|10=067|8=FIX.4.4|9=172|35=V|34=19|49=demo.ctrader.3873996|50=3873996SYMgnrV7VA2tpvZiiMY0Kw|52=20231227-10:52:20.810|56=cServer|57=QUOTE|262=MARKETDATAID|263=1|264=1|267=2|269=0|269=1|146=1|55=18|10=069|8=FIX.4.4|9=172|35=V|34=20|49=demo.ctrader.3873996|50=3873996SYMgnrV7VA2tpvZiiMY0Kw|52=20231227-10:52:20.810|56=cServer|57=QUOTE|262=MARKETDATAID|263=1|264=1|267=2|269=0|269=1|146=1|55=19|10=062|8=FIX.4.4|9=172|35=V|34=21|49=demo.ctrader.3873996|50=3873996SYMgnrV7VA2tpvZiiMY0Kw|52=20231227-10:52:20.810|56=cServer|57=QUOTE|262=MARKETDATAID|263=1|264=1|267=2|269=0|269=1|146=1|55=22|10=057|8=FIX.4.4|9=113|35=0|34=22|49=demo.ctrader.3873996|50=3873996SYMgnrV7VA2tpvZiiMY0Kw|52=20231227-10:52:51.013|56=cServer|57=QUOTE|10=114|8=FIX.4.4|9=113|35=0|34=23|49=demo.ctrader.3873996|50=3873996SYMgnrV7VA2tpvZiiMY0Kw|52=20231227-10:53:21.123|56=cServer|57=QUOTE|10=115|8=FIX.4.4|9=113|35=0|34=24|49=demo.ctrader.3873996|50=3873996SYMgnrV7VA2tpvZiiMY0Kw|52=20231227-10:53:51.217|56=cServer|57=QUOTE|10=123|8=FIX.4.4|9=113|35=0|34=25|49=demo.ctrader.3873996|50=3873996SYMgnrV7VA2tpvZiiMY0Kw|52=20231227-10:54:21.234|56=cServer|57=QUOTE|10=121|8=FIX.4.4|9=113|35=0|34=26|49=demo.ctrader.3873996|50=3873996SYMgnrV7VA2tpvZiiMY0Kw|52=20231227-10:54:51.245|56=cServer|57=QUOTE|10=127|8=FIX.4.4|9=113|35=0|34=27|49=demo.ctrader.3873996|50=3873996SYMgnrV7VA2tpvZiiMY0Kw|52=20231227-10:55:21.374|56=cServer|57=QUOTE|10=129|8=FIX.4.4|9=113|35=0|34=28|49=demo.ctrader.3873996|50=3873996SYMgnrV7VA2tpvZiiMY0Kw|52=20231227-10:55:52.075|56=cServer|57=QUOTE|10=132|8=FIX.4.4|9=113|35=0|34=29|49=demo.ctrader.3873996|50=3873996SYMgnrV7VA2tpvZiiMY0Kw|52=20231227-10:56:22.116|56=cServer|57=QUOTE|10=127|