8=FIX.4.4|9=244|35=A|34=1|49=demo.ctrader.3873996|50=3873996ut3j0ZRIKwH8RgDiXTAfWA|52=20231227-13:27:03.841|56=cServer|57=TRADE|49=demo.ctrader.3873996|50=3873996ut3j0ZRIKwH8RgDiXTAfWA|52=20231227-13:27:03|56=cServer|98=0|108=30|141=Y|553=3873996|554=Gtlfx125|10=219|8=FIX.4.4|9=130|35=x|34=2|49=demo.ctrader.3873996|50=3873996ut3j0ZRIKwH8RgDiXTAfWA|52=20231227-13:27:04.384|56=cServer|57=TRADE|320=symbols|559=0|10=238|8=FIX.4.4|9=127|35=AN|34=3|49=demo.ctrader.3873996|50=3873996ut3j0ZRIKwH8RgDiXTAfWA|52=20231227-13:27:04.575|56=cServer|57=TRADE|710=Positions|10=191|8=FIX.4.4|9=130|35=AF|34=4|49=demo.ctrader.3873996|50=3873996ut3j0ZRIKwH8RgDiXTAfWA|52=20231227-13:27:04.575|56=cServer|57=TRADE|584=Orders|585=7|10=121|8=FIX.4.4|9=112|35=0|34=5|49=demo.ctrader.3873996|50=3873996ut3j0ZRIKwH8RgDiXTAfWA|52=20231227-13:27:34.959|56=cServer|57=TRADE|10=199|8=FIX.4.4|9=112|35=0|34=6|49=demo.ctrader.3873996|50=3873996ut3j0ZRIKwH8RgDiXTAfWA|52=20231227-13:28:05.191|56=cServer|57=TRADE|10=187|8=FIX.4.4|9=112|35=0|34=7|49=demo.ctrader.3873996|50=3873996ut3j0ZRIKwH8RgDiXTAfWA|52=20231227-13:28:35.466|56=cServer|57=TRADE|10=196|8=FIX.4.4|9=112|35=0|34=8|49=demo.ctrader.3873996|50=3873996ut3j0ZRIKwH8RgDiXTAfWA|52=20231227-13:29:05.692|56=cServer|57=TRADE|10=196|8=FIX.4.4|9=112|35=0|34=9|49=demo.ctrader.3873996|50=3873996ut3j0ZRIKwH8RgDiXTAfWA|52=20231227-13:29:36.705|56=cServer|57=TRADE|10=196|8=FIX.4.4|9=113|35=0|34=10|49=demo.ctrader.3873996|50=3873996ut3j0ZRIKwH8RgDiXTAfWA|52=20231227-13:30:07.695|56=cServer|57=TRADE|10=235|8=FIX.4.4|9=113|35=0|34=11|49=demo.ctrader.3873996|50=3873996ut3j0ZRIKwH8RgDiXTAfWA|52=20231227-13:30:37.707|56=cServer|57=TRADE|10=233|8=FIX.4.4|9=113|35=0|34=12|49=demo.ctrader.3873996|50=3873996ut3j0ZRIKwH8RgDiXTAfWA|52=20231227-13:31:08.715|56=cServer|57=TRADE|10=232|8=FIX.4.4|9=113|35=0|34=13|49=demo.ctrader.3873996|50=3873996ut3j0ZRIKwH8RgDiXTAfWA|52=20231227-13:31:38.725|56=cServer|57=TRADE|10=237|8=FIX.4.4|9=113|35=0|34=14|49=demo.ctrader.3873996|50=3873996ut3j0ZRIKwH8RgDiXTAfWA|52=20231227-13:32:08.731|56=cServer|57=TRADE|10=233|8=FIX.4.4|9=113|35=0|34=15|49=demo.ctrader.3873996|50=3873996ut3j0ZRIKwH8RgDiXTAfWA|52=20231227-13:32:39.732|56=cServer|57=TRADE|10=239|8=FIX.4.4|9=113|35=0|34=16|49=demo.ctrader.3873996|50=3873996ut3j0ZRIKwH8RgDiXTAfWA|52=20231227-13:33:10.728|56=cServer|57=TRADE|10=235|8=FIX.4.4|9=113|35=0|34=17|49=demo.ctrader.3873996|50=3873996ut3j0ZRIKwH8RgDiXTAfWA|52=20231227-13:33:40.734|56=cServer|57=TRADE|10=236|8=FIX.4.4|9=113|35=0|34=18|49=demo.ctrader.3873996|50=3873996ut3j0ZRIKwH8RgDiXTAfWA|52=20231227-13:34:11.736|56=cServer|57=TRADE|10=238|8=FIX.4.4|9=113|35=0|34=19|49=demo.ctrader.3873996|50=3873996ut3j0ZRIKwH8RgDiXTAfWA|52=20231227-13:34:42.740|56=cServer|57=TRADE|10=238|8=FIX.4.4|9=113|35=0|34=20|49=demo.ctrader.3873996|50=3873996ut3j0ZRIKwH8RgDiXTAfWA|52=20231227-13:35:13.744|56=cServer|57=TRADE|10=233|8=FIX.4.4|9=113|35=0|34=21|49=demo.ctrader.3873996|50=3873996ut3j0ZRIKwH8RgDiXTAfWA|52=20231227-13:35:43.751|56=cServer|57=TRADE|10=235|8=FIX.4.4|9=113|35=0|34=22|49=demo.ctrader.3873996|50=3873996ut3j0ZRIKwH8RgDiXTAfWA|52=20231227-13:36:14.750|56=cServer|57=TRADE|10=234|8=FIX.4.4|9=113|35=0|34=23|49=demo.ctrader.3873996|50=3873996ut3j0ZRIKwH8RgDiXTAfWA|52=20231227-13:36:44.757|56=cServer|57=TRADE|10=245|8=FIX.4.4|9=113|35=0|34=24|49=demo.ctrader.3873996|50=3873996ut3j0ZRIKwH8RgDiXTAfWA|52=20231227-13:37:14.771|56=cServer|57=TRADE|10=240|8=FIX.4.4|9=113|35=0|34=25|49=demo.ctrader.3873996|50=3873996ut3j0ZRIKwH8RgDiXTAfWA|52=20231227-13:37:45.757|56=cServer|57=TRADE|10=249|8=FIX.4.4|9=113|35=0|34=26|49=demo.ctrader.3873996|50=3873996ut3j0ZRIKwH8RgDiXTAfWA|52=20231227-13:38:15.760|56=cServer|57=TRADE|10=242|8=FIX.4.4|9=113|35=0|34=27|49=demo.ctrader.3873996|50=3873996ut3j0ZRIKwH8RgDiXTAfWA|52=20231227-13:38:45.790|56=cServer|57=TRADE|10=249|8=FIX.4.4|9=113|35=0|34=28|49=demo.ctrader.3873996|50=3873996ut3j0ZRIKwH8RgDiXTAfWA|52=20231227-13:39:15.798|56=cServer|57=TRADE|10=000|8=FIX.4.4|9=113|35=0|34=29|49=demo.ctrader.3873996|50=3873996ut3j0ZRIKwH8RgDiXTAfWA|52=20231227-13:39:45.804|56=cServer|57=TRADE|10=248|8=FIX.4.4|9=113|35=0|34=30|49=demo.ctrader.3873996|50=3873996ut3j0ZRIKwH8RgDiXTAfWA|52=20231227-13:40:16.771|56=cServer|57=TRADE|10=233|8=FIX.4.4|9=113|35=0|34=31|49=demo.ctrader.3873996|50=3873996ut3j0ZRIKwH8RgDiXTAfWA|52=20231227-13:40:46.775|56=cServer|57=TRADE|10=241|8=FIX.4.4|9=113|35=0|34=32|49=demo.ctrader.3873996|50=3873996ut3j0ZRIKwH8RgDiXTAfWA|52=20231227-13:41:17.752|56=cServer|57=TRADE|10=236|8=FIX.4.4|9=113|35=0|34=33|49=demo.ctrader.3873996|50=3873996ut3j0ZRIKwH8RgDiXTAfWA|52=20231227-13:41:47.794|56=cServer|57=TRADE|10=246|8=FIX.4.4|9=113|35=0|34=34|49=demo.ctrader.3873996|50=3873996ut3j0ZRIKwH8RgDiXTAfWA|52=20231227-13:42:18.789|56=cServer|57=TRADE|10=250|8=FIX.4.4|9=113|35=0|34=35|49=demo.ctrader.3873996|50=3873996ut3j0ZRIKwH8RgDiXTAfWA|52=20231227-13:42:48.797|56=cServer|57=TRADE|10=253|8=FIX.4.4|9=113|35=0|34=36|49=demo.ctrader.3873996|50=3873996ut3j0ZRIKwH8RgDiXTAfWA|52=20231227-13:43:18.823|56=cServer|57=TRADE|10=242|8=FIX.4.4|9=113|35=0|34=37|49=demo.ctrader.3873996|50=3873996ut3j0ZRIKwH8RgDiXTAfWA|52=20231227-13:43:49.775|56=cServer|57=TRADE|10=253|8=FIX.4.4|9=113|35=0|34=38|49=demo.ctrader.3873996|50=3873996ut3j0ZRIKwH8RgDiXTAfWA|52=20231227-13:44:19.785|56=cServer|57=TRADE|10=253|8=FIX.4.4|9=113|35=0|34=39|49=demo.ctrader.3873996|50=3873996ut3j0ZRIKwH8RgDiXTAfWA|52=20231227-13:44:49.819|56=cServer|57=TRADE|10=255|8=FIX.4.4|9=113|35=0|34=40|49=demo.ctrader.3873996|50=3873996ut3j0ZRIKwH8RgDiXTAfWA|52=20231227-13:45:20.832|56=cServer|57=TRADE|10=232|8=FIX.4.4|9=113|35=0|34=41|49=demo.ctrader.3873996|50=3873996ut3j0ZRIKwH8RgDiXTAfWA|52=20231227-13:45:50.856|56=cServer|57=TRADE|10=242|8=FIX.4.4|9=113|35=0|34=42|49=demo.ctrader.3873996|50=3873996ut3j0ZRIKwH8RgDiXTAfWA|52=20231227-13:46:21.791|56=cServer|57=TRADE|10=240|8=FIX.4.4|9=113|35=0|34=43|49=demo.ctrader.3873996|50=3873996ut3j0ZRIKwH8RgDiXTAfWA|52=20231227-13:46:51.808|56=cServer|57=TRADE|10=243|8=FIX.4.4|9=113|35=0|34=44|49=demo.ctrader.3873996|50=3873996ut3j0ZRIKwH8RgDiXTAfWA|52=20231227-13:47:22.779|56=cServer|57=TRADE|10=250|8=FIX.4.4|9=113|35=0|34=45|49=demo.ctrader.3873996|50=3873996ut3j0ZRIKwH8RgDiXTAfWA|52=20231227-13:47:52.821|56=cServer|57=TRADE|10=242|8=FIX.4.4|9=113|35=0|34=46|49=demo.ctrader.3873996|50=3873996ut3j0ZRIKwH8RgDiXTAfWA|52=20231227-13:48:23.785|56=cServer|57=TRADE|10=251|8=FIX.4.4|9=113|35=0|34=47|49=demo.ctrader.3873996|50=3873996ut3j0ZRIKwH8RgDiXTAfWA|52=20231227-13:48:53.838|56=cServer|57=TRADE|10=254|8=FIX.4.4|9=113|35=0|34=48|49=demo.ctrader.3873996|50=3873996ut3j0ZRIKwH8RgDiXTAfWA|52=20231227-13:49:24.822|56=cServer|57=TRADE|10=247|8=FIX.4.4|9=113|35=0|34=49|49=demo.ctrader.3873996|50=3873996ut3j0ZRIKwH8RgDiXTAfWA|52=20231227-13:49:54.841|56=cServer|57=TRADE|10=252|8=FIX.4.4|9=113|35=0|34=50|49=demo.ctrader.3873996|50=3873996ut3j0ZRIKwH8RgDiXTAfWA|52=20231227-13:50:24.847|56=cServer|57=TRADE|10=239|8=FIX.4.4|9=113|35=0|34=51|49=demo.ctrader.3873996|50=3873996ut3j0ZRIKwH8RgDiXTAfWA|52=20231227-13:50:55.836|56=cServer|57=TRADE|10=242|8=FIX.4.4|9=113|35=0|34=52|49=demo.ctrader.3873996|50=3873996ut3j0ZRIKwH8RgDiXTAfWA|52=20231227-13:51:26.840|56=cServer|57=TRADE|10=237|8=FIX.4.4|9=113|35=0|34=53|49=demo.ctrader.3873996|50=3873996ut3j0ZRIKwH8RgDiXTAfWA|52=20231227-13:51:56.847|56=cServer|57=TRADE|10=248|8=FIX.4.4|9=113|35=0|34=54|49=demo.ctrader.3873996|50=3873996ut3j0ZRIKwH8RgDiXTAfWA|52=20231227-13:52:26.881|56=cServer|57=TRADE|10=245|8=FIX.4.4|9=113|35=0|34=55|49=demo.ctrader.3873996|50=3873996ut3j0ZRIKwH8RgDiXTAfWA|52=20231227-13:52:57.856|56=cServer|57=TRADE|10=252|8=FIX.4.4|9=113|35=0|34=56|49=demo.ctrader.3873996|50=3873996ut3j0ZRIKwH8RgDiXTAfWA|52=20231227-13:53:28.863|56=cServer|57=TRADE|10=250|8=FIX.4.4|9=113|35=0|34=57|49=demo.ctrader.3873996|50=3873996ut3j0ZRIKwH8RgDiXTAfWA|52=20231227-13:53:58.864|56=cServer|57=TRADE|10=255|8=FIX.4.4|9=113|35=0|34=58|49=demo.ctrader.3873996|50=3873996ut3j0ZRIKwH8RgDiXTAfWA|52=20231227-13:54:29.872|56=cServer|57=TRADE|10=254|8=FIX.4.4|9=113|35=0|34=59|49=demo.ctrader.3873996|50=3873996ut3j0ZRIKwH8RgDiXTAfWA|52=20231227-13:54:59.890|56=cServer|57=TRADE|10=002|8=FIX.4.4|9=113|35=0|34=60|49=demo.ctrader.3873996|50=3873996ut3j0ZRIKwH8RgDiXTAfWA|52=20231227-13:55:30.882|56=cServer|57=TRADE|10=241|8=FIX.4.4|9=113|35=0|34=61|49=demo.ctrader.3873996|50=3873996ut3j0ZRIKwH8RgDiXTAfWA|52=20231227-13:56:00.897|56=cServer|57=TRADE|10=246|8=FIX.4.4|9=113|35=0|34=62|49=demo.ctrader.3873996|50=3873996ut3j0ZRIKwH8RgDiXTAfWA|52=20231227-13:56:30.897|56=cServer|57=TRADE|10=250|8=FIX.4.4|9=113|35=0|34=63|49=demo.ctrader.3873996|50=3873996ut3j0ZRIKwH8RgDiXTAfWA|52=20231227-13:57:00.930|56=cServer|57=TRADE|10=237|8=FIX.4.4|9=113|35=0|34=64|49=demo.ctrader.3873996|50=3873996ut3j0ZRIKwH8RgDiXTAfWA|52=20231227-13:57:31.864|56=cServer|57=TRADE|10=248|8=FIX.4.4|9=113|35=0|34=65|49=demo.ctrader.3873996|50=3873996ut3j0ZRIKwH8RgDiXTAfWA|52=20231227-13:58:01.885|56=cServer|57=TRADE|10=250|8=FIX.4.4|9=113|35=0|34=66|49=demo.ctrader.3873996|50=3873996ut3j0ZRIKwH8RgDiXTAfWA|52=20231227-13:58:31.897|56=cServer|57=TRADE|10=001|8=FIX.4.4|9=113|35=0|34=67|49=demo.ctrader.3873996|50=3873996ut3j0ZRIKwH8RgDiXTAfWA|52=20231227-13:59:01.901|56=cServer|57=TRADE|10=242|8=FIX.4.4|9=113|35=0|34=68|49=demo.ctrader.3873996|50=3873996ut3j0ZRIKwH8RgDiXTAfWA|52=20231227-13:59:32.881|56=cServer|57=TRADE|10=254|8=FIX.4.4|9=113|35=0|34=69|49=demo.ctrader.3873996|50=3873996ut3j0ZRIKwH8RgDiXTAfWA|52=20231227-14:00:02.892|56=cServer|57=TRADE|10=241|8=FIX.4.4|9=113|35=0|34=70|49=demo.ctrader.3873996|50=3873996ut3j0ZRIKwH8RgDiXTAfWA|52=20231227-14:00:32.928|56=cServer|57=TRADE|10=236|8=FIX.4.4|9=113|35=0|34=71|49=demo.ctrader.3873996|50=3873996ut3j0ZRIKwH8RgDiXTAfWA|52=20231227-14:01:02.953|56=cServer|57=TRADE|10=233|8=FIX.4.4|9=113|35=0|34=72|49=demo.ctrader.3873996|50=3873996ut3j0ZRIKwH8RgDiXTAfWA|52=20231227-14:01:33.922|56=cServer|57=TRADE|10=234|8=FIX.4.4|9=113|35=0|34=73|49=demo.ctrader.3873996|50=3873996ut3j0ZRIKwH8RgDiXTAfWA|52=20231227-14:02:04.913|56=cServer|57=TRADE|10=234|8=FIX.4.4|9=113|35=0|34=74|49=demo.ctrader.3873996|50=3873996ut3j0ZRIKwH8RgDiXTAfWA|52=20231227-14:02:34.922|56=cServer|57=TRADE|10=238|8=FIX.4.4|9=113|35=0|34=75|49=demo.ctrader.3873996|50=3873996ut3j0ZRIKwH8RgDiXTAfWA|52=20231227-14:03:04.938|56=cServer|57=TRADE|10=244|8=FIX.4.4|9=113|35=0|34=76|49=demo.ctrader.3873996|50=3873996ut3j0ZRIKwH8RgDiXTAfWA|52=20231227-14:03:35.697|56=cServer|57=TRADE|10=251|8=FIX.4.4|9=113|35=0|34=77|49=demo.ctrader.3873996|50=3873996ut3j0ZRIKwH8RgDiXTAfWA|52=20231227-14:04:06.703|56=cServer|57=TRADE|10=239|8=FIX.4.4|9=113|35=0|34=78|49=demo.ctrader.3873996|50=3873996ut3j0ZRIKwH8RgDiXTAfWA|52=20231227-14:04:37.701|56=cServer|57=TRADE|10=242|8=FIX.4.4|9=113|35=0|34=79|49=demo.ctrader.3873996|50=3873996ut3j0ZRIKwH8RgDiXTAfWA|52=20231227-14:05:07.705|56=cServer|57=TRADE|10=245|8=FIX.4.4|9=113|35=0|34=80|49=demo.ctrader.3873996|50=3873996ut3j0ZRIKwH8RgDiXTAfWA|52=20231227-14:05:38.717|56=cServer|57=TRADE|10=244|8=FIX.4.4|9=113|35=0|34=81|49=demo.ctrader.3873996|50=3873996ut3j0ZRIKwH8RgDiXTAfWA|52=20231227-14:06:09.721|56=cServer|57=TRADE|10=239|8=FIX.4.4|9=113|35=0|34=82|49=demo.ctrader.3873996|50=3873996ut3j0ZRIKwH8RgDiXTAfWA|52=20231227-14:06:39.736|56=cServer|57=TRADE|10=249|8=FIX.4.4|9=113|35=0|34=83|49=demo.ctrader.3873996|50=3873996ut3j0ZRIKwH8RgDiXTAfWA|52=20231227-14:07:10.708|56=cServer|57=TRADE|10=239|8=FIX.4.4|9=113|35=0|34=84|49=demo.ctrader.3873996|50=3873996ut3j0ZRIKwH8RgDiXTAfWA|52=20231227-14:07:40.729|56=cServer|57=TRADE|10=246|8=FIX.4.4|9=113|35=0|34=85|49=demo.ctrader.3873996|50=3873996ut3j0ZRIKwH8RgDiXTAfWA|52=20231227-14:08:11.718|56=cServer|57=TRADE|10=244|8=FIX.4.4|9=113|35=0|34=86|49=demo.ctrader.3873996|50=3873996ut3j0ZRIKwH8RgDiXTAfWA|52=20231227-14:08:41.744|56=cServer|57=TRADE|10=247|8=FIX.4.4|9=113|35=0|34=87|49=demo.ctrader.3873996|50=3873996ut3j0ZRIKwH8RgDiXTAfWA|52=20231227-14:09:11.746|56=cServer|57=TRADE|10=248|8=FIX.4.4|9=113|35=0|34=88|49=demo.ctrader.3873996|50=3873996ut3j0ZRIKwH8RgDiXTAfWA|52=20231227-14:09:42.745|56=cServer|57=TRADE|10=252|8=FIX.4.4|9=113|35=0|34=89|49=demo.ctrader.3873996|50=3873996ut3j0ZRIKwH8RgDiXTAfWA|52=20231227-14:10:12.755|56=cServer|57=TRADE|10=243|8=FIX.4.4|9=113|35=0|34=90|49=demo.ctrader.3873996|50=3873996ut3j0ZRIKwH8RgDiXTAfWA|52=20231227-14:10:43.744|56=cServer|57=TRADE|10=237|8=FIX.4.4|9=113|35=0|34=91|49=demo.ctrader.3873996|50=3873996ut3j0ZRIKwH8RgDiXTAfWA|52=20231227-14:11:13.757|56=cServer|57=TRADE|10=240|8=FIX.4.4|9=113|35=0|34=92|49=demo.ctrader.3873996|50=3873996ut3j0ZRIKwH8RgDiXTAfWA|52=20231227-14:11:43.763|56=cServer|57=TRADE|10=241|8=FIX.4.4|9=113|35=0|34=93|49=demo.ctrader.3873996|50=3873996ut3j0ZRIKwH8RgDiXTAfWA|52=20231227-14:12:14.757|56=cServer|57=TRADE|10=244|8=FIX.4.4|9=113|35=0|34=94|49=demo.ctrader.3873996|50=3873996ut3j0ZRIKwH8RgDiXTAfWA|52=20231227-14:12:45.766|56=cServer|57=TRADE|10=249|8=FIX.4.4|9=113|35=0|34=95|49=demo.ctrader.3873996|50=3873996ut3j0ZRIKwH8RgDiXTAfWA|52=20231227-14:13:16.776|56=cServer|57=TRADE|10=250|8=FIX.4.4|9=113|35=0|34=96|49=demo.ctrader.3873996|50=3873996ut3j0ZRIKwH8RgDiXTAfWA|52=20231227-14:13:47.787|56=cServer|57=TRADE|10=001|8=FIX.4.4|9=113|35=0|34=97|49=demo.ctrader.3873996|50=3873996ut3j0ZRIKwH8RgDiXTAfWA|52=20231227-14:14:18.785|56=cServer|57=TRADE|10=255|8=FIX.4.4|9=113|35=0|34=98|49=demo.ctrader.3873996|50=3873996ut3j0ZRIKwH8RgDiXTAfWA|52=20231227-14:14:48.808|56=cServer|57=TRADE|10=255|8=FIX.4.4|9=113|35=0|34=99|49=demo.ctrader.3873996|50=3873996ut3j0ZRIKwH8RgDiXTAfWA|52=20231227-14:15:19.800|56=cServer|57=TRADE|10=247|8=FIX.4.4|9=114|35=0|34=100|49=demo.ctrader.3873996|50=3873996ut3j0ZRIKwH8RgDiXTAfWA|52=20231227-14:15:49.830|56=cServer|57=TRADE|10=029|8=FIX.4.4|9=114|35=0|34=101|49=demo.ctrader.3873996|50=3873996ut3j0ZRIKwH8RgDiXTAfWA|52=20231227-14:16:20.813|56=cServer|57=TRADE|10=021|8=FIX.4.4|9=114|35=0|34=102|49=demo.ctrader.3873996|50=3873996ut3j0ZRIKwH8RgDiXTAfWA|52=20231227-14:16:50.837|56=cServer|57=TRADE|10=031|8=FIX.4.4|9=114|35=0|34=103|49=demo.ctrader.3873996|50=3873996ut3j0ZRIKwH8RgDiXTAfWA|52=20231227-14:17:21.805|56=cServer|57=TRADE|10=026|8=FIX.4.4|9=114|35=0|34=104|49=demo.ctrader.3873996|50=3873996ut3j0ZRIKwH8RgDiXTAfWA|52=20231227-14:17:51.832|56=cServer|57=TRADE|10=030|8=FIX.4.4|9=114|35=0|34=105|49=demo.ctrader.3873996|50=3873996ut3j0ZRIKwH8RgDiXTAfWA|52=20231227-14:18:22.784|56=cServer|57=TRADE|10=036|8=FIX.4.4|9=114|35=0|34=106|49=demo.ctrader.3873996|50=3873996ut3j0ZRIKwH8RgDiXTAfWA|52=20231227-14:18:52.821|56=cServer|57=TRADE|10=032|8=FIX.4.4|9=114|35=0|34=107|49=demo.ctrader.3873996|50=3873996ut3j0ZRIKwH8RgDiXTAfWA|52=20231227-14:19:23.812|56=cServer|57=TRADE|10=032|8=FIX.4.4|9=114|35=0|34=108|49=demo.ctrader.3873996|50=3873996ut3j0ZRIKwH8RgDiXTAfWA|52=20231227-14:19:53.823|56=cServer|57=TRADE|10=038|8=FIX.4.4|9=114|35=0|34=109|49=demo.ctrader.3873996|50=3873996ut3j0ZRIKwH8RgDiXTAfWA|52=20231227-14:20:23.842|56=cServer|57=TRADE|10=029|8=FIX.4.4|9=114|35=0|34=110|49=demo.ctrader.3873996|50=3873996ut3j0ZRIKwH8RgDiXTAfWA|52=20231227-14:20:54.829|56=cServer|57=TRADE|10=030|8=FIX.4.4|9=114|35=0|34=111|49=demo.ctrader.3873996|50=3873996ut3j0ZRIKwH8RgDiXTAfWA|52=20231227-14:21:25.806|56=cServer|57=TRADE|10=025|8=FIX.4.4|9=114|35=0|34=112|49=demo.ctrader.3873996|50=3873996ut3j0ZRIKwH8RgDiXTAfWA|52=20231227-14:21:55.822|56=cServer|57=TRADE|10=027|8=FIX.4.4|9=114|35=0|34=113|49=demo.ctrader.3873996|50=3873996ut3j0ZRIKwH8RgDiXTAfWA|52=20231227-14:22:25.837|56=cServer|57=TRADE|10=032|8=FIX.4.4|9=114|35=0|34=114|49=demo.ctrader.3873996|50=3873996ut3j0ZRIKwH8RgDiXTAfWA|52=20231227-14:22:55.841|56=cServer|57=TRADE|10=031|8=FIX.4.4|9=114|35=0|34=115|49=demo.ctrader.3873996|50=3873996ut3j0ZRIKwH8RgDiXTAfWA|52=20231227-14:23:26.801|56=cServer|57=TRADE|10=027|8=FIX.4.4|9=114|35=0|34=116|49=demo.ctrader.3873996|50=3873996ut3j0ZRIKwH8RgDiXTAfWA|52=20231227-14:23:56.817|56=cServer|57=TRADE|10=038|8=FIX.4.4|9=114|35=0|34=117|49=demo.ctrader.3873996|50=3873996ut3j0ZRIKwH8RgDiXTAfWA|52=20231227-14:24:27.822|56=cServer|57=TRADE|10=034|8=FIX.4.4|9=114|35=0|34=118|49=demo.ctrader.3873996|50=3873996ut3j0ZRIKwH8RgDiXTAfWA|52=20231227-14:24:57.853|56=cServer|57=TRADE|10=042|8=FIX.4.4|9=114|35=0|34=119|49=demo.ctrader.3873996|50=3873996ut3j0ZRIKwH8RgDiXTAfWA|52=20231227-14:25:27.866|56=cServer|57=TRADE|10=045|8=FIX.4.4|9=114|35=0|34=120|49=demo.ctrader.3873996|50=3873996ut3j0ZRIKwH8RgDiXTAfWA|52=20231227-14:25:57.870|56=cServer|57=TRADE|10=035|8=FIX.4.4|9=114|35=0|34=121|49=demo.ctrader.3873996|50=3873996ut3j0ZRIKwH8RgDiXTAfWA|52=20231227-14:26:28.862|56=cServer|57=TRADE|10=036|8=FIX.4.4|9=114|35=0|34=122|49=demo.ctrader.3873996|50=3873996ut3j0ZRIKwH8RgDiXTAfWA|52=20231227-14:26:59.853|56=cServer|57=TRADE|10=041|8=FIX.4.4|9=114|35=0|34=123|49=demo.ctrader.3873996|50=3873996ut3j0ZRIKwH8RgDiXTAfWA|52=20231227-14:27:29.895|56=cServer|57=TRADE|10=046|8=FIX.4.4|9=114|35=0|34=124|49=demo.ctrader.3873996|50=3873996ut3j0ZRIKwH8RgDiXTAfWA|52=20231227-14:28:00.891|56=cServer|57=TRADE|10=033|8=FIX.4.4|9=114|35=0|34=125|49=demo.ctrader.3873996|50=3873996ut3j0ZRIKwH8RgDiXTAfWA|52=20231227-14:28:31.848|56=cServer|57=TRADE|10=040|8=FIX.4.4|9=114|35=0|34=126|49=demo.ctrader.3873996|50=3873996ut3j0ZRIKwH8RgDiXTAfWA|52=20231227-14:29:01.927|56=cServer|57=TRADE|10=037|8=FIX.4.4|9=114|35=0|34=127|49=demo.ctrader.3873996|50=3873996ut3j0ZRIKwH8RgDiXTAfWA|52=20231227-14:29:32.902|56=cServer|57=TRADE|10=035|8=FIX.4.4|9=114|35=0|34=128|49=demo.ctrader.3873996|50=3873996ut3j0ZRIKwH8RgDiXTAfWA|52=20231227-14:30:03.865|56=cServer|57=TRADE|10=034|8=FIX.4.4|9=114|35=0|34=129|49=demo.ctrader.3873996|50=3873996ut3j0ZRIKwH8RgDiXTAfWA|52=20231227-14:30:34.852|56=cServer|57=TRADE|10=035|8=FIX.4.4|9=114|35=0|34=130|49=demo.ctrader.3873996|50=3873996ut3j0ZRIKwH8RgDiXTAfWA|52=20231227-14:31:04.882|56=cServer|57=TRADE|10=028|8=FIX.4.4|9=114|35=0|34=131|49=demo.ctrader.3873996|50=3873996ut3j0ZRIKwH8RgDiXTAfWA|52=20231227-14:31:35.687|56=cServer|57=TRADE|10=036|8=FIX.4.4|9=114|35=0|34=132|49=demo.ctrader.3873996|50=3873996ut3j0ZRIKwH8RgDiXTAfWA|52=20231227-14:32:05.687|56=cServer|57=TRADE|10=035|8=FIX.4.4|9=114|35=0|34=133|49=demo.ctrader.3873996|50=3873996ut3j0ZRIKwH8RgDiXTAfWA|52=20231227-14:32:35.690|56=cServer|57=TRADE|10=033|8=FIX.4.4|9=114|35=0|34=134|49=demo.ctrader.3873996|50=3873996ut3j0ZRIKwH8RgDiXTAfWA|52=20231227-14:33:06.695|56=cServer|57=TRADE|10=038|8=FIX.4.4|9=114|35=0|34=135|49=demo.ctrader.3873996|50=3873996ut3j0ZRIKwH8RgDiXTAfWA|52=20231227-14:33:36.700|56=cServer|57=TRADE|10=029|8=FIX.4.4|9=114|35=0|34=136|49=demo.ctrader.3873996|50=3873996ut3j0ZRIKwH8RgDiXTAfWA|52=20231227-14:34:07.699|56=cServer|57=TRADE|10=046|8=FIX.4.4|9=114|35=0|34=137|49=demo.ctrader.3873996|50=3873996ut3j0ZRIKwH8RgDiXTAfWA|52=20231227-14:34:37.710|56=cServer|57=TRADE|10=034|8=FIX.4.4|9=114|35=0|34=138|49=demo.ctrader.3873996|50=3873996ut3j0ZRIKwH8RgDiXTAfWA|52=20231227-14:35:07.718|56=cServer|57=TRADE|10=041|8=FIX.4.4|9=114|35=0|34=139|49=demo.ctrader.3873996|50=3873996ut3j0ZRIKwH8RgDiXTAfWA|52=20231227-14:35:38.704|56=cServer|57=TRADE|10=041|8=FIX.4.4|9=114|35=0|34=140|49=demo.ctrader.3873996|50=3873996ut3j0ZRIKwH8RgDiXTAfWA|52=20231227-14:36:08.707|56=cServer|57=TRADE|10=034|8=FIX.4.4|9=114|35=0|34=141|49=demo.ctrader.3873996|50=3873996ut3j0ZRIKwH8RgDiXTAfWA|52=20231227-14:36:38.715|56=cServer|57=TRADE|10=037|8=FIX.4.4|9=114|35=0|34=142|49=demo.ctrader.3873996|50=3873996ut3j0ZRIKwH8RgDiXTAfWA|52=20231227-14:37:08.722|56=cServer|57=TRADE|10=034|8=FIX.4.4|9=114|35=0|34=143|49=demo.ctrader.3873996|50=3873996ut3j0ZRIKwH8RgDiXTAfWA|52=20231227-14:37:39.711|56=cServer|57=TRADE|10=037|8=FIX.4.4|9=114|35=0|34=144|49=demo.ctrader.3873996|50=3873996ut3j0ZRIKwH8RgDiXTAfWA|52=20231227-14:38:09.711|56=cServer|57=TRADE|10=036|8=FIX.4.4|9=114|35=0|34=145|49=demo.ctrader.3873996|50=3873996ut3j0ZRIKwH8RgDiXTAfWA|52=20231227-14:38:39.722|56=cServer|57=TRADE|10=042|8=FIX.4.4|9=114|35=0|34=146|49=demo.ctrader.3873996|50=3873996ut3j0ZRIKwH8RgDiXTAfWA|52=20231227-14:39:10.719|56=cServer|57=TRADE|10=039|8=FIX.4.4|9=114|35=0|34=147|49=demo.ctrader.3873996|50=3873996ut3j0ZRIKwH8RgDiXTAfWA|52=20231227-14:39:40.728|56=cServer|57=TRADE|10=043|8=FIX.4.4|9=114|35=0|34=148|49=demo.ctrader.3873996|50=3873996ut3j0ZRIKwH8RgDiXTAfWA|52=20231227-14:40:11.728|56=cServer|57=TRADE|10=034|8=FIX.4.4|9=114|35=0|34=149|49=demo.ctrader.3873996|50=3873996ut3j0ZRIKwH8RgDiXTAfWA|52=20231227-14:40:42.726|56=cServer|57=TRADE|10=037|8=FIX.4.4|9=114|35=0|34=150|49=demo.ctrader.3873996|50=3873996ut3j0ZRIKwH8RgDiXTAfWA|52=20231227-14:41:12.743|56=cServer|57=TRADE|10=026|8=FIX.4.4|9=114|35=0|34=151|49=demo.ctrader.3873996|50=3873996ut3j0ZRIKwH8RgDiXTAfWA|52=20231227-14:41:42.919|56=cServer|57=TRADE|10=035|8=FIX.4.4|9=114|35=0|34=152|49=demo.ctrader.3873996|50=3873996ut3j0ZRIKwH8RgDiXTAfWA|52=20231227-14:42:13.752|56=cServer|57=TRADE|10=030|8=FIX.4.4|9=114|35=0|34=153|49=demo.ctrader.3873996|50=3873996ut3j0ZRIKwH8RgDiXTAfWA|52=20231227-14:42:43.753|56=cServer|57=TRADE|10=035|8=FIX.4.4|9=114|35=0|34=154|49=demo.ctrader.3873996|50=3873996ut3j0ZRIKwH8RgDiXTAfWA|52=20231227-14:43:13.762|56=cServer|57=TRADE|10=034|8=FIX.4.4|9=114|35=0|34=155|49=demo.ctrader.3873996|50=3873996ut3j0ZRIKwH8RgDiXTAfWA|52=20231227-14:43:44.760|56=cServer|57=TRADE|10=037|8=FIX.4.4|9=114|35=0|34=156|49=demo.ctrader.3873996|50=3873996ut3j0ZRIKwH8RgDiXTAfWA|52=20231227-14:44:15.760|56=cServer|57=TRADE|10=037|8=FIX.4.4|9=114|35=0|34=157|49=demo.ctrader.3873996|50=3873996ut3j0ZRIKwH8RgDiXTAfWA|52=20231227-14:44:45.796|56=cServer|57=TRADE|10=050|8=FIX.4.4|9=114|35=0|34=158|49=demo.ctrader.3873996|50=3873996ut3j0ZRIKwH8RgDiXTAfWA|52=20231227-14:45:16.775|56=cServer|57=TRADE|10=047|8=FIX.4.4|9=114|35=0|34=159|49=demo.ctrader.3873996|50=3873996ut3j0ZRIKwH8RgDiXTAfWA|52=20231227-14:45:47.768|56=cServer|57=TRADE|10=054|8=FIX.4.4|9=114|35=0|34=160|49=demo.ctrader.3873996|50=3873996ut3j0ZRIKwH8RgDiXTAfWA|52=20231227-14:46:17.829|56=cServer|57=TRADE|10=042|8=FIX.4.4|9=114|35=0|34=161|49=demo.ctrader.3873996|50=3873996ut3j0ZRIKwH8RgDiXTAfWA|52=20231227-14:46:48.783|56=cServer|57=TRADE|10=046|8=FIX.4.4|9=114|35=0|34=162|49=demo.ctrader.3873996|50=3873996ut3j0ZRIKwH8RgDiXTAfWA|52=20231227-14:47:18.821|56=cServer|57=TRADE|10=038|8=FIX.4.4|9=114|35=0|34=163|49=demo.ctrader.3873996|50=3873996ut3j0ZRIKwH8RgDiXTAfWA|52=20231227-14:47:49.803|56=cServer|57=TRADE|10=043|8=FIX.4.4|9=114|35=0|34=164|49=demo.ctrader.3873996|50=3873996ut3j0ZRIKwH8RgDiXTAfWA|52=20231227-14:48:19.827|56=cServer|57=TRADE|10=048|8=FIX.4.4|9=114|35=0|34=165|49=demo.ctrader.3873996|50=3873996ut3j0ZRIKwH8RgDiXTAfWA|52=20231227-14:48:50.836|56=cServer|57=TRADE|10=044|8=FIX.4.4|9=114|35=0|34=166|49=demo.ctrader.3873996|50=3873996ut3j0ZRIKwH8RgDiXTAfWA|52=20231227-14:49:21.814|56=cServer|57=TRADE|10=040|8=FIX.4.4|9=114|35=0|34=167|49=demo.ctrader.3873996|50=3873996ut3j0ZRIKwH8RgDiXTAfWA|52=20231227-14:49:51.816|56=cServer|57=TRADE|10=046|8=FIX.4.4|9=114|35=0|34=168|49=demo.ctrader.3873996|50=3873996ut3j0ZRIKwH8RgDiXTAfWA|52=20231227-14:50:22.804|56=cServer|57=TRADE|10=034|8=FIX.4.4|9=114|35=0|34=169|49=demo.ctrader.3873996|50=3873996ut3j0ZRIKwH8RgDiXTAfWA|52=20231227-14:50:53.813|56=cServer|57=TRADE|10=039|8=FIX.4.4|9=114|35=0|34=170|49=demo.ctrader.3873996|50=3873996ut3j0ZRIKwH8RgDiXTAfWA|52=20231227-14:51:23.867|56=cServer|57=TRADE|10=038|8=FIX.4.4|9=114|35=0|34=171|49=demo.ctrader.3873996|50=3873996ut3j0ZRIKwH8RgDiXTAfWA|52=20231227-14:51:54.818|56=cServer|57=TRADE|10=039|8=FIX.4.4|9=114|35=0|34=172|49=demo.ctrader.3873996|50=3873996ut3j0ZRIKwH8RgDiXTAfWA|52=20231227-14:52:24.849|56=cServer|57=TRADE|10=042|8=FIX.4.4|9=114|35=0|34=173|49=demo.ctrader.3873996|50=3873996ut3j0ZRIKwH8RgDiXTAfWA|52=20231227-14:52:54.879|56=cServer|57=TRADE|10=049|8=FIX.4.4|9=114|35=0|34=174|49=demo.ctrader.3873996|50=3873996ut3j0ZRIKwH8RgDiXTAfWA|52=20231227-14:53:25.856|56=cServer|57=TRADE|10=044|8=FIX.4.4|9=114|35=0|34=175|49=demo.ctrader.3873996|50=3873996ut3j0ZRIKwH8RgDiXTAfWA|52=20231227-14:53:55.860|56=cServer|57=TRADE|10=043|8=FIX.4.4|9=114|35=0|34=176|49=demo.ctrader.3873996|50=3873996ut3j0ZRIKwH8RgDiXTAfWA|52=20231227-14:54:26.799|56=cServer|57=TRADE|10=054|8=FIX.4.4|9=114|35=0|34=177|49=demo.ctrader.3873996|50=3873996ut3j0ZRIKwH8RgDiXTAfWA|52=20231227-14:54:56.827|56=cServer|57=TRADE|10=050|8=FIX.4.4|9=114|35=0|34=178|49=demo.ctrader.3873996|50=3873996ut3j0ZRIKwH8RgDiXTAfWA|52=20231227-14:55:26.867|56=cServer|57=TRADE|10=053|8=FIX.4.4|9=114|35=0|34=179|49=demo.ctrader.3873996|50=3873996ut3j0ZRIKwH8RgDiXTAfWA|52=20231227-14:55:56.873|56=cServer|57=TRADE|10=054|8=FIX.4.4|9=114|35=0|34=180|49=demo.ctrader.3873996|50=3873996ut3j0ZRIKwH8RgDiXTAfWA|52=20231227-14:56:27.859|56=cServer|57=TRADE|10=049|8=FIX.4.4|9=114|35=0|34=181|49=demo.ctrader.3873996|50=3873996ut3j0ZRIKwH8RgDiXTAfWA|52=20231227-14:56:57.882|56=cServer|57=TRADE|10=049|8=FIX.4.4|9=114|35=0|34=182|49=demo.ctrader.3873996|50=3873996ut3j0ZRIKwH8RgDiXTAfWA|52=20231227-14:57:28.849|56=cServer|57=TRADE|10=052|8=FIX.4.4|9=114|35=0|34=183|49=demo.ctrader.3873996|50=3873996ut3j0ZRIKwH8RgDiXTAfWA|52=20231227-14:57:59.846|56=cServer|57=TRADE|10=054|8=FIX.4.4|9=114|35=0|34=184|49=demo.ctrader.3873996|50=3873996ut3j0ZRIKwH8RgDiXTAfWA|52=20231227-14:58:29.890|56=cServer|57=TRADE|10=052|8=FIX.4.4|9=114|35=0|34=185|49=demo.ctrader.3873996|50=3873996ut3j0ZRIKwH8RgDiXTAfWA|52=20231227-14:59:00.886|56=cServer|57=TRADE|10=048|8=FIX.4.4|9=114|35=0|34=186|49=demo.ctrader.3873996|50=3873996ut3j0ZRIKwH8RgDiXTAfWA|52=20231227-14:59:30.890|56=cServer|57=TRADE|10=047|8=FIX.4.4|9=114|35=0|34=187|49=demo.ctrader.3873996|50=3873996ut3j0ZRIKwH8RgDiXTAfWA|52=20231227-15:00:00.899|56=cServer|57=TRADE|10=041|8=FIX.4.4|9=114|35=0|34=188|49=demo.ctrader.3873996|50=3873996ut3j0ZRIKwH8RgDiXTAfWA|52=20231227-15:00:30.901|56=cServer|57=TRADE|10=029|8=FIX.4.4|9=114|35=0|34=189|49=demo.ctrader.3873996|50=3873996ut3j0ZRIKwH8RgDiXTAfWA|52=20231227-15:01:01.879|56=cServer|57=TRADE|10=043|8=FIX.4.4|9=114|35=0|34=190|49=demo.ctrader.3873996|50=3873996ut3j0ZRIKwH8RgDiXTAfWA|52=20231227-15:01:31.890|56=cServer|57=TRADE|10=031|8=FIX.4.4|9=114|35=0|34=191|49=demo.ctrader.3873996|50=3873996ut3j0ZRIKwH8RgDiXTAfWA|52=20231227-15:02:02.896|56=cServer|57=TRADE|10=037|8=FIX.4.4|9=114|35=0|34=192|49=demo.ctrader.3873996|50=3873996ut3j0ZRIKwH8RgDiXTAfWA|52=20231227-15:02:32.906|56=cServer|57=TRADE|10=033|8=FIX.4.4|9=114|35=0|34=193|49=demo.ctrader.3873996|50=3873996ut3j0ZRIKwH8RgDiXTAfWA|52=20231227-15:03:03.861|56=cServer|57=TRADE|10=033|8=FIX.4.4|9=114|35=0|34=194|49=demo.ctrader.3873996|50=3873996ut3j0ZRIKwH8RgDiXTAfWA|52=20231227-15:03:33.927|56=cServer|57=TRADE|10=040|8=FIX.4.4|9=114|35=0|34=195|49=demo.ctrader.3873996|50=3873996ut3j0ZRIKwH8RgDiXTAfWA|52=20231227-15:04:04.882|56=cServer|57=TRADE|10=040|8=FIX.4.4|9=114|35=0|34=196|49=demo.ctrader.3873996|50=3873996ut3j0ZRIKwH8RgDiXTAfWA|52=20231227-15:04:34.936|56=cServer|57=TRADE|10=044|8=FIX.4.4|9=114|35=0|34=197|49=demo.ctrader.3873996|50=3873996ut3j0ZRIKwH8RgDiXTAfWA|52=20231227-15:05:04.951|56=cServer|57=TRADE|10=040|8=FIX.4.4|9=114|35=0|34=198|49=demo.ctrader.3873996|50=3873996ut3j0ZRIKwH8RgDiXTAfWA|52=20231227-15:05:35.684|56=cServer|57=TRADE|10=048|8=FIX.4.4|9=114|35=0|34=199|49=demo.ctrader.3873996|50=3873996ut3j0ZRIKwH8RgDiXTAfWA|52=20231227-15:06:05.700|56=cServer|57=TRADE|10=036|8=FIX.4.4|9=114|35=0|34=200|49=demo.ctrader.3873996|50=3873996ut3j0ZRIKwH8RgDiXTAfWA|52=20231227-15:06:36.694|56=cServer|57=TRADE|10=035|8=FIX.4.4|9=114|35=0|34=201|49=demo.ctrader.3873996|50=3873996ut3j0ZRIKwH8RgDiXTAfWA|52=20231227-15:07:07.708|56=cServer|57=TRADE|10=031|8=FIX.4.4|9=114|35=0|34=202|49=demo.ctrader.3873996|50=3873996ut3j0ZRIKwH8RgDiXTAfWA|52=20231227-15:07:37.718|56=cServer|57=TRADE|10=036|8=FIX.4.4|9=114|35=0|34=203|49=demo.ctrader.3873996|50=3873996ut3j0ZRIKwH8RgDiXTAfWA|52=20231227-15:08:08.702|56=cServer|57=TRADE|10=029|8=FIX.4.4|9=114|35=0|34=204|49=demo.ctrader.3873996|50=3873996ut3j0ZRIKwH8RgDiXTAfWA|52=20231227-15:08:38.715|56=cServer|57=TRADE|10=037|8=FIX.4.4|9=114|35=0|34=205|49=demo.ctrader.3873996|50=3873996ut3j0ZRIKwH8RgDiXTAfWA|52=20231227-15:09:09.718|56=cServer|57=TRADE|10=040|8=FIX.4.4|9=114|35=0|34=206|49=demo.ctrader.3873996|50=3873996ut3j0ZRIKwH8RgDiXTAfWA|52=20231227-15:09:39.732|56=cServer|57=TRADE|10=040|8=FIX.4.4|9=114|35=0|34=207|49=demo.ctrader.3873996|50=3873996ut3j0ZRIKwH8RgDiXTAfWA|52=20231227-15:10:10.716|56=cServer|57=TRADE|10=024|8=FIX.4.4|9=114|35=0|34=208|49=demo.ctrader.3873996|50=3873996ut3j0ZRIKwH8RgDiXTAfWA|52=20231227-15:10:40.718|56=cServer|57=TRADE|10=030|8=FIX.4.4|9=114|35=0|34=209|49=demo.ctrader.3873996|50=3873996ut3j0ZRIKwH8RgDiXTAfWA|52=20231227-15:11:10.731|56=cServer|57=TRADE|10=024|8=FIX.4.4|9=114|35=0|34=210|49=demo.ctrader.3873996|50=3873996ut3j0ZRIKwH8RgDiXTAfWA|52=20231227-15:11:41.721|56=cServer|57=TRADE|10=019|8=FIX.4.4|9=114|35=0|34=211|49=demo.ctrader.3873996|50=3873996ut3j0ZRIKwH8RgDiXTAfWA|52=20231227-15:12:11.739|56=cServer|57=TRADE|10=027|8=FIX.4.4|9=114|35=0|34=212|49=demo.ctrader.3873996|50=3873996ut3j0ZRIKwH8RgDiXTAfWA|52=20231227-15:12:42.733|56=cServer|57=TRADE|10=026|8=FIX.4.4|9=114|35=0|34=213|49=demo.ctrader.3873996|50=3873996ut3j0ZRIKwH8RgDiXTAfWA|52=20231227-15:13:12.753|56=cServer|57=TRADE|10=027|8=FIX.4.4|9=114|35=0|34=214|49=demo.ctrader.3873996|50=3873996ut3j0ZRIKwH8RgDiXTAfWA|52=20231227-15:13:43.761|56=cServer|57=TRADE|10=031|8=FIX.4.4|9=114|35=0|34=215|49=demo.ctrader.3873996|50=3873996ut3j0ZRIKwH8RgDiXTAfWA|52=20231227-15:14:13.772|56=cServer|57=TRADE|10=032|8=FIX.4.4|9=114|35=0|34=216|49=demo.ctrader.3873996|50=3873996ut3j0ZRIKwH8RgDiXTAfWA|52=20231227-15:14:44.748|56=cServer|57=TRADE|10=040|8=FIX.4.4|9=114|35=0|34=217|49=demo.ctrader.3873996|50=3873996ut3j0ZRIKwH8RgDiXTAfWA|52=20231227-15:15:14.751|56=cServer|57=TRADE|10=033|8=FIX.4.4|9=114|35=0|34=218|49=demo.ctrader.3873996|50=3873996ut3j0ZRIKwH8RgDiXTAfWA|52=20231227-15:15:44.844|56=cServer|57=TRADE|10=040|8=FIX.4.4|9=114|35=0|34=219|49=demo.ctrader.3873996|50=3873996ut3j0ZRIKwH8RgDiXTAfWA|52=20231227-15:16:15.776|56=cServer|57=TRADE|10=044|8=FIX.4.4|9=114|35=0|34=220|49=demo.ctrader.3873996|50=3873996ut3j0ZRIKwH8RgDiXTAfWA|52=20231227-15:16:46.775|56=cServer|57=TRADE|10=039|8=FIX.4.4|9=114|35=0|34=221|49=demo.ctrader.3873996|50=3873996ut3j0ZRIKwH8RgDiXTAfWA|52=20231227-15:17:16.778|56=cServer|57=TRADE|10=041|8=FIX.4.4|9=114|35=0|34=222|49=demo.ctrader.3873996|50=3873996ut3j0ZRIKwH8RgDiXTAfWA|52=20231227-15:17:46.784|56=cServer|57=TRADE|10=042|8=FIX.4.4|9=114|35=0|34=223|49=demo.ctrader.3873996|50=3873996ut3j0ZRIKwH8RgDiXTAfWA|52=20231227-15:18:17.796|56=cServer|57=TRADE|10=045|8=FIX.4.4|9=114|35=0|34=224|49=demo.ctrader.3873996|50=3873996ut3j0ZRIKwH8RgDiXTAfWA|52=20231227-15:18:47.805|56=cServer|57=TRADE|10=040|8=FIX.4.4|9=114|35=0|34=225|49=demo.ctrader.3873996|50=3873996ut3j0ZRIKwH8RgDiXTAfWA|52=20231227-15:19:18.788|56=cServer|57=TRADE|10=050|8=FIX.4.4|9=114|35=0|34=226|49=demo.ctrader.3873996|50=3873996ut3j0ZRIKwH8RgDiXTAfWA|52=20231227-15:19:48.797|56=cServer|57=TRADE|10=054|8=FIX.4.4|9=114|35=0|34=227|49=demo.ctrader.3873996|50=3873996ut3j0ZRIKwH8RgDiXTAfWA|52=20231227-15:20:18.803|56=cServer|57=TRADE|10=032|8=FIX.4.4|9=114|35=0|34=228|49=demo.ctrader.3873996|50=3873996ut3j0ZRIKwH8RgDiXTAfWA|52=20231227-15:20:49.779|56=cServer|57=TRADE|10=049|8=FIX.4.4|9=114|35=0|34=229|49=demo.ctrader.3873996|50=3873996ut3j0ZRIKwH8RgDiXTAfWA|52=20231227-15:21:20.780|56=cServer|57=TRADE|10=032|8=FIX.4.4|9=114|35=0|34=230|49=demo.ctrader.3873996|50=3873996ut3j0ZRIKwH8RgDiXTAfWA|52=20231227-15:21:50.825|56=cServer|57=TRADE|10=027|8=FIX.4.4|9=114|35=0|34=231|49=demo.ctrader.3873996|50=3873996ut3j0ZRIKwH8RgDiXTAfWA|52=20231227-15:22:20.825|56=cServer|57=TRADE|10=026|8=FIX.4.4|9=114|35=0|34=232|49=demo.ctrader.3873996|50=3873996ut3j0ZRIKwH8RgDiXTAfWA|52=20231227-15:22:50.848|56=cServer|57=TRADE|10=035|8=FIX.4.4|9=114|35=0|34=233|49=demo.ctrader.3873996|50=3873996ut3j0ZRIKwH8RgDiXTAfWA|52=20231227-15:23:21.820|56=cServer|57=TRADE|10=025|8=FIX.4.4|9=114|35=0|34=234|49=demo.ctrader.3873996|50=3873996ut3j0ZRIKwH8RgDiXTAfWA|52=20231227-15:23:51.878|56=cServer|57=TRADE|10=042|8=FIX.4.4|9=114|35=0|34=235|49=demo.ctrader.3873996|50=3873996ut3j0ZRIKwH8RgDiXTAfWA|52=20231227-15:24:22.866|56=cServer|57=TRADE|10=039|8=FIX.4.4|9=114|35=0|34=236|49=demo.ctrader.3873996|50=3873996ut3j0ZRIKwH8RgDiXTAfWA|52=20231227-15:24:53.850|56=cServer|57=TRADE|10=037|8=FIX.4.4|9=114|35=0|34=237|49=demo.ctrader.3873996|50=3873996ut3j0ZRIKwH8RgDiXTAfWA|52=20231227-15:25:24.843|56=cServer|57=TRADE|10=039|8=FIX.4.4|9=114|35=0|34=238|49=demo.ctrader.3873996|50=3873996ut3j0ZRIKwH8RgDiXTAfWA|52=20231227-15:25:55.853|56=cServer|57=TRADE|10=045|8=FIX.4.4|9=114|35=0|34=239|49=demo.ctrader.3873996|50=3873996ut3j0ZRIKwH8RgDiXTAfWA|52=20231227-15:26:25.887|56=cServer|57=TRADE|10=051|8=FIX.4.4|9=114|35=0|34=240|49=demo.ctrader.3873996|50=3873996ut3j0ZRIKwH8RgDiXTAfWA|52=20231227-15:26:56.868|56=cServer|57=TRADE|10=046|8=FIX.4.4|9=114|35=0|34=241|49=demo.ctrader.3873996|50=3873996ut3j0ZRIKwH8RgDiXTAfWA|52=20231227-15:27:26.897|56=cServer|57=TRADE|10=047|8=FIX.4.4|9=114|35=0|34=242|49=demo.ctrader.3873996|50=3873996ut3j0ZRIKwH8RgDiXTAfWA|52=20231227-15:27:57.879|56=cServer|57=TRADE|10=052|8=FIX.4.4|9=114|35=0|34=243|49=demo.ctrader.3873996|50=3873996ut3j0ZRIKwH8RgDiXTAfWA|52=20231227-15:28:27.894|56=cServer|57=TRADE|10=048|8=FIX.4.4|9=114|35=0|34=244|49=demo.ctrader.3873996|50=3873996ut3j0ZRIKwH8RgDiXTAfWA|52=20231227-15:28:58.893|56=cServer|57=TRADE|10=052|8=FIX.4.4|9=114|35=0|34=245|49=demo.ctrader.3873996|50=3873996ut3j0ZRIKwH8RgDiXTAfWA|52=20231227-15:29:29.854|56=cServer|57=TRADE|10=049|8=FIX.4.4|9=114|35=0|34=246|49=demo.ctrader.3873996|50=3873996ut3j0ZRIKwH8RgDiXTAfWA|52=20231227-15:29:59.888|56=cServer|57=TRADE|10=060|8=FIX.4.4|9=114|35=0|34=247|49=demo.ctrader.3873996|50=3873996ut3j0ZRIKwH8RgDiXTAfWA|52=20231227-15:30:29.953|56=cServer|57=TRADE|10=043|