8=FIX.4.4|9=244|35=A|34=1|49=demo.ctrader.3873996|50=3873996S3PWlHCNn4S_un3J5zu1ZQ|52=20240104-14:10:48.228|56=cServer|57=QUOTE|49=demo.ctrader.3873996|50=3873996S3PWlHCNn4S_un3J5zu1ZQ|52=20240104-14:10:48|56=cServer|98=0|108=30|141=Y|553=3873996|554=Gtlfx125|10=192|8=FIX.4.4|9=170|35=V|34=2|49=demo.ctrader.3873996|50=3873996S3PWlHCNn4S_un3J5zu1ZQ|52=20240104-14:10:49.299|56=cServer|57=QUOTE|262=MARKETDATAID|263=1|264=1|267=2|269=0|269=1|146=1|55=1|10=083|8=FIX.4.4|9=170|35=V|34=3|49=demo.ctrader.3873996|50=3873996S3PWlHCNn4S_un3J5zu1ZQ|52=20240104-14:10:49.300|56=cServer|57=QUOTE|262=MARKETDATAID|263=1|264=1|267=2|269=0|269=1|146=1|55=2|10=068|8=FIX.4.4|9=170|35=V|34=4|49=demo.ctrader.3873996|50=3873996S3PWlHCNn4S_un3J5zu1ZQ|52=20240104-14:10:49.348|56=cServer|57=QUOTE|262=MARKETDATAID|263=1|264=1|267=2|269=0|269=1|146=1|55=3|10=082|8=FIX.4.4|9=170|35=V|34=5|49=demo.ctrader.3873996|50=3873996S3PWlHCNn4S_un3J5zu1ZQ|52=20240104-14:10:49.348|56=cServer|57=QUOTE|262=MARKETDATAID|263=1|264=1|267=2|269=0|269=1|146=1|55=4|10=084|8=FIX.4.4|9=170|35=V|34=6|49=demo.ctrader.3873996|50=3873996S3PWlHCNn4S_un3J5zu1ZQ|52=20240104-14:10:49.348|56=cServer|57=QUOTE|262=MARKETDATAID|263=1|264=1|267=2|269=0|269=1|146=1|55=5|10=086|8=FIX.4.4|9=170|35=V|34=7|49=demo.ctrader.3873996|50=3873996S3PWlHCNn4S_un3J5zu1ZQ|52=20240104-14:10:49.348|56=cServer|57=QUOTE|262=MARKETDATAID|263=1|264=1|267=2|269=0|269=1|146=1|55=6|10=088|8=FIX.4.4|9=170|35=V|34=8|49=demo.ctrader.3873996|50=3873996S3PWlHCNn4S_un3J5zu1ZQ|52=20240104-14:10:49.348|56=cServer|57=QUOTE|262=MARKETDATAID|263=1|264=1|267=2|269=0|269=1|146=1|55=7|10=090|8=FIX.4.4|9=170|35=V|34=9|49=demo.ctrader.3873996|50=3873996S3PWlHCNn4S_un3J5zu1ZQ|52=20240104-14:10:49.349|56=cServer|57=QUOTE|262=MARKETDATAID|263=1|264=1|267=2|269=0|269=1|146=1|55=8|10=093|8=FIX.4.4|9=171|35=V|34=10|49=demo.ctrader.3873996|50=3873996S3PWlHCNn4S_un3J5zu1ZQ|52=20240104-14:10:49.349|56=cServer|57=QUOTE|262=MARKETDATAID|263=1|264=1|267=2|269=0|269=1|146=1|55=9|10=135|8=FIX.4.4|9=172|35=V|34=11|49=demo.ctrader.3873996|50=3873996S3PWlHCNn4S_un3J5zu1ZQ|52=20240104-14:10:49.349|56=cServer|57=QUOTE|262=MARKETDATAID|263=1|264=1|267=2|269=0|269=1|146=1|55=10|10=177|8=FIX.4.4|9=172|35=V|34=12|49=demo.ctrader.3873996|50=3873996S3PWlHCNn4S_un3J5zu1ZQ|52=20240104-14:10:49.349|56=cServer|57=QUOTE|262=MARKETDATAID|263=1|264=1|267=2|269=0|269=1|146=1|55=11|10=179|8=FIX.4.4|9=172|35=V|34=13|49=demo.ctrader.3873996|50=3873996S3PWlHCNn4S_un3J5zu1ZQ|52=20240104-14:10:49.349|56=cServer|57=QUOTE|262=MARKETDATAID|263=1|264=1|267=2|269=0|269=1|146=1|55=12|10=181|8=FIX.4.4|9=172|35=V|34=14|49=demo.ctrader.3873996|50=3873996S3PWlHCNn4S_un3J5zu1ZQ|52=20240104-14:10:49.349|56=cServer|57=QUOTE|262=MARKETDATAID|263=1|264=1|267=2|269=0|269=1|146=1|55=13|10=183|8=FIX.4.4|9=172|35=V|34=15|49=demo.ctrader.3873996|50=3873996S3PWlHCNn4S_un3J5zu1ZQ|52=20240104-14:10:49.349|56=cServer|57=QUOTE|262=MARKETDATAID|263=1|264=1|267=2|269=0|269=1|146=1|55=14|10=185|8=FIX.4.4|9=172|35=V|34=16|49=demo.ctrader.3873996|50=3873996S3PWlHCNn4S_un3J5zu1ZQ|52=20240104-14:10:49.350|56=cServer|57=QUOTE|262=MARKETDATAID|263=1|264=1|267=2|269=0|269=1|146=1|55=15|10=179|8=FIX.4.4|9=172|35=V|34=17|49=demo.ctrader.3873996|50=3873996S3PWlHCNn4S_un3J5zu1ZQ|52=20240104-14:10:49.350|56=cServer|57=QUOTE|262=MARKETDATAID|263=1|264=1|267=2|269=0|269=1|146=1|55=16|10=181|8=FIX.4.4|9=172|35=V|34=18|49=demo.ctrader.3873996|50=3873996S3PWlHCNn4S_un3J5zu1ZQ|52=20240104-14:10:49.350|56=cServer|57=QUOTE|262=MARKETDATAID|263=1|264=1|267=2|269=0|269=1|146=1|55=17|10=183|8=FIX.4.4|9=172|35=V|34=19|49=demo.ctrader.3873996|50=3873996S3PWlHCNn4S_un3J5zu1ZQ|52=20240104-14:10:49.350|56=cServer|57=QUOTE|262=MARKETDATAID|263=1|264=1|267=2|269=0|269=1|146=1|55=18|10=185|8=FIX.4.4|9=172|35=V|34=20|49=demo.ctrader.3873996|50=3873996S3PWlHCNn4S_un3J5zu1ZQ|52=20240104-14:10:49.350|56=cServer|57=QUOTE|262=MARKETDATAID|263=1|264=1|267=2|269=0|269=1|146=1|55=19|10=178|8=FIX.4.4|9=172|35=V|34=21|49=demo.ctrader.3873996|50=3873996S3PWlHCNn4S_un3J5zu1ZQ|52=20240104-14:10:49.350|56=cServer|57=QUOTE|262=MARKETDATAID|263=1|264=1|267=2|269=0|269=1|146=1|55=22|10=173|8=FIX.4.4|9=113|35=0|34=22|49=demo.ctrader.3873996|50=3873996S3PWlHCNn4S_un3J5zu1ZQ|52=20240104-14:11:19.386|56=cServer|57=QUOTE|10=238|8=FIX.4.4|9=113|35=0|34=23|49=demo.ctrader.3873996|50=3873996S3PWlHCNn4S_un3J5zu1ZQ|52=20240104-14:11:49.401|56=cServer|57=QUOTE|10=230|8=FIX.4.4|9=113|35=0|34=24|49=demo.ctrader.3873996|50=3873996S3PWlHCNn4S_un3J5zu1ZQ|52=20240104-14:12:19.408|56=cServer|57=QUOTE|10=236|8=FIX.4.4|9=113|35=0|34=25|49=demo.ctrader.3873996|50=3873996S3PWlHCNn4S_un3J5zu1ZQ|52=20240104-14:12:49.417|56=cServer|57=QUOTE|10=240|8=FIX.4.4|9=113|35=0|34=26|49=demo.ctrader.3873996|50=3873996S3PWlHCNn4S_un3J5zu1ZQ|52=20240104-14:13:19.420|56=cServer|57=QUOTE|10=233|8=FIX.4.4|9=113|35=0|34=27|49=demo.ctrader.3873996|50=3873996S3PWlHCNn4S_un3J5zu1ZQ|52=20240104-14:13:49.445|56=cServer|57=QUOTE|10=244|8=FIX.4.4|9=113|35=0|34=28|49=demo.ctrader.3873996|50=3873996S3PWlHCNn4S_un3J5zu1ZQ|52=20240104-14:14:19.445|56=cServer|57=QUOTE|10=243|8=FIX.4.4|9=113|35=0|34=29|49=demo.ctrader.3873996|50=3873996S3PWlHCNn4S_un3J5zu1ZQ|52=20240104-14:14:49.454|56=cServer|57=QUOTE|10=247|8=FIX.4.4|9=113|35=0|34=30|49=demo.ctrader.3873996|50=3873996S3PWlHCNn4S_un3J5zu1ZQ|52=20240104-14:15:19.616|56=cServer|57=QUOTE|10=237|8=FIX.4.4|9=113|35=0|34=31|49=demo.ctrader.3873996|50=3873996S3PWlHCNn4S_un3J5zu1ZQ|52=20240104-14:15:49.726|56=cServer|57=QUOTE|10=243|8=FIX.4.4|9=113|35=0|34=32|49=demo.ctrader.3873996|50=3873996S3PWlHCNn4S_un3J5zu1ZQ|52=20240104-14:16:19.737|56=cServer|57=QUOTE|10=244|8=FIX.4.4|9=113|35=0|34=33|49=demo.ctrader.3873996|50=3873996S3PWlHCNn4S_un3J5zu1ZQ|52=20240104-14:16:49.738|56=cServer|57=QUOTE|10=249|8=FIX.4.4|9=113|35=0|34=34|49=demo.ctrader.3873996|50=3873996S3PWlHCNn4S_un3J5zu1ZQ|52=20240104-14:17:19.798|56=cServer|57=QUOTE|10=254|8=FIX.4.4|9=113|35=0|34=35|49=demo.ctrader.3873996|50=3873996S3PWlHCNn4S_un3J5zu1ZQ|52=20240104-14:17:49.802|56=cServer|57=QUOTE|10=244|8=FIX.4.4|9=113|35=0|34=36|49=demo.ctrader.3873996|50=3873996S3PWlHCNn4S_un3J5zu1ZQ|52=20240104-14:18:19.871|56=cServer|57=QUOTE|10=249|8=FIX.4.4|9=113|35=0|34=37|49=demo.ctrader.3873996|50=3873996S3PWlHCNn4S_un3J5zu1ZQ|52=20240104-14:18:49.874|56=cServer|57=QUOTE|10=000|8=FIX.4.4|9=113|35=0|34=38|49=demo.ctrader.3873996|50=3873996S3PWlHCNn4S_un3J5zu1ZQ|52=20240104-14:19:19.901|56=cServer|57=QUOTE|10=246|8=FIX.4.4|9=113|35=0|34=39|49=demo.ctrader.3873996|50=3873996S3PWlHCNn4S_un3J5zu1ZQ|52=20240104-14:19:49.955|56=cServer|57=QUOTE|10=003|8=FIX.4.4|9=113|35=0|34=40|49=demo.ctrader.3873996|50=3873996S3PWlHCNn4S_un3J5zu1ZQ|52=20240104-14:20:20.002|56=cServer|57=QUOTE|10=215|8=FIX.4.4|9=113|35=0|34=41|49=demo.ctrader.3873996|50=3873996S3PWlHCNn4S_un3J5zu1ZQ|52=20240104-14:20:50.004|56=cServer|57=QUOTE|10=221|8=FIX.4.4|9=113|35=0|34=42|49=demo.ctrader.3873996|50=3873996S3PWlHCNn4S_un3J5zu1ZQ|52=20240104-14:21:20.030|56=cServer|57=QUOTE|10=219|8=FIX.4.4|9=113|35=0|34=43|49=demo.ctrader.3873996|50=3873996S3PWlHCNn4S_un3J5zu1ZQ|52=20240104-14:21:50.038|56=cServer|57=QUOTE|10=231|8=FIX.4.4|9=113|35=0|34=44|49=demo.ctrader.3873996|50=3873996S3PWlHCNn4S_un3J5zu1ZQ|52=20240104-14:22:20.075|56=cServer|57=QUOTE|10=231|8=FIX.4.4|9=113|35=0|34=45|49=demo.ctrader.3873996|50=3873996S3PWlHCNn4S_un3J5zu1ZQ|52=20240104-14:22:50.093|56=cServer|57=QUOTE|10=235|8=FIX.4.4|9=113|35=0|34=46|49=demo.ctrader.3873996|50=3873996S3PWlHCNn4S_un3J5zu1ZQ|52=20240104-14:23:20.118|56=cServer|57=QUOTE|10=232|8=FIX.4.4|9=113|35=0|34=47|49=demo.ctrader.3873996|50=3873996S3PWlHCNn4S_un3J5zu1ZQ|52=20240104-14:23:50.216|56=cServer|57=QUOTE|10=235|8=FIX.4.4|9=113|35=0|34=48|49=demo.ctrader.3873996|50=3873996S3PWlHCNn4S_un3J5zu1ZQ|52=20240104-14:24:20.356|56=cServer|57=QUOTE|10=239|8=FIX.4.4|9=113|35=0|34=49|49=demo.ctrader.3873996|50=3873996S3PWlHCNn4S_un3J5zu1ZQ|52=20240104-14:24:50.385|56=cServer|57=QUOTE|10=245|8=FIX.4.4|9=113|35=0|34=50|49=demo.ctrader.3873996|50=3873996S3PWlHCNn4S_un3J5zu1ZQ|52=20240104-14:25:20.396|56=cServer|57=QUOTE|10=237|8=FIX.4.4|9=113|35=0|34=51|49=demo.ctrader.3873996|50=3873996S3PWlHCNn4S_un3J5zu1ZQ|52=20240104-14:25:50.548|56=cServer|57=QUOTE|10=240|8=FIX.4.4|9=113|35=0|34=52|49=demo.ctrader.3873996|50=3873996S3PWlHCNn4S_un3J5zu1ZQ|52=20240104-14:26:20.569|56=cServer|57=QUOTE|10=242|8=FIX.4.4|9=113|35=0|34=53|49=demo.ctrader.3873996|50=3873996S3PWlHCNn4S_un3J5zu1ZQ|52=20240104-14:26:50.582|56=cServer|57=QUOTE|10=241|8=FIX.4.4|9=113|35=0|34=54|49=demo.ctrader.3873996|50=3873996S3PWlHCNn4S_un3J5zu1ZQ|52=20240104-14:27:20.599|56=cServer|57=QUOTE|10=248|8=FIX.4.4|9=113|35=0|34=55|49=demo.ctrader.3873996|50=3873996S3PWlHCNn4S_un3J5zu1ZQ|52=20240104-14:27:50.603|56=cServer|57=QUOTE|10=238|8=FIX.4.4|9=113|35=0|34=56|49=demo.ctrader.3873996|50=3873996S3PWlHCNn4S_un3J5zu1ZQ|52=20240104-14:28:20.621|56=cServer|57=QUOTE|10=237|8=FIX.4.4|9=113|35=0|34=57|49=demo.ctrader.3873996|50=3873996S3PWlHCNn4S_un3J5zu1ZQ|52=20240104-14:28:50.637|56=cServer|57=QUOTE|10=248|8=FIX.4.4|9=113|35=0|34=58|49=demo.ctrader.3873996|50=3873996S3PWlHCNn4S_un3J5zu1ZQ|52=20240104-14:29:20.676|56=cServer|57=QUOTE|10=250|8=FIX.4.4|9=113|35=0|34=59|49=demo.ctrader.3873996|50=3873996S3PWlHCNn4S_un3J5zu1ZQ|52=20240104-14:29:50.683|56=cServer|57=QUOTE|10=252|8=FIX.4.4|9=113|35=0|34=60|49=demo.ctrader.3873996|50=3873996S3PWlHCNn4S_un3J5zu1ZQ|52=20240104-14:30:20.699|56=cServer|57=QUOTE|10=240|8=FIX.4.4|9=113|35=0|34=61|49=demo.ctrader.3873996|50=3873996S3PWlHCNn4S_un3J5zu1ZQ|52=20240104-14:30:50.706|56=cServer|57=QUOTE|10=233|8=FIX.4.4|9=113|35=0|34=62|49=demo.ctrader.3873996|50=3873996S3PWlHCNn4S_un3J5zu1ZQ|52=20240104-14:31:20.747|56=cServer|57=QUOTE|10=237|8=FIX.4.4|9=113|35=0|34=63|49=demo.ctrader.3873996|50=3873996S3PWlHCNn4S_un3J5zu1ZQ|52=20240104-14:31:50.750|56=cServer|57=QUOTE|10=235|8=FIX.4.4|9=113|35=0|34=64|49=demo.ctrader.3873996|50=3873996S3PWlHCNn4S_un3J5zu1ZQ|52=20240104-14:32:20.772|56=cServer|57=QUOTE|10=238|8=FIX.4.4|9=113|35=0|34=65|49=demo.ctrader.3873996|50=3873996S3PWlHCNn4S_un3J5zu1ZQ|52=20240104-14:32:50.801|56=cServer|57=QUOTE|10=235|8=FIX.4.4|9=113|35=0|34=66|49=demo.ctrader.3873996|50=3873996S3PWlHCNn4S_un3J5zu1ZQ|52=20240104-14:33:20.801|56=cServer|57=QUOTE|10=234|8=FIX.4.4|9=113|35=0|34=67|49=demo.ctrader.3873996|50=3873996S3PWlHCNn4S_un3J5zu1ZQ|52=20240104-14:33:50.906|56=cServer|57=QUOTE|10=244|8=FIX.4.4|9=113|35=0|34=68|49=demo.ctrader.3873996|50=3873996S3PWlHCNn4S_un3J5zu1ZQ|52=20240104-14:34:20.952|56=cServer|57=QUOTE|10=244|8=FIX.4.4|9=113|35=0|34=69|49=demo.ctrader.3873996|50=3873996S3PWlHCNn4S_un3J5zu1ZQ|52=20240104-14:34:51.011|56=cServer|57=QUOTE|10=235|8=FIX.4.4|9=113|35=0|34=70|49=demo.ctrader.3873996|50=3873996S3PWlHCNn4S_un3J5zu1ZQ|52=20240104-14:35:21.086|56=cServer|57=QUOTE|10=237|8=FIX.4.4|9=113|35=0|34=71|49=demo.ctrader.3873996|50=3873996S3PWlHCNn4S_un3J5zu1ZQ|52=20240104-14:35:51.093|56=cServer|57=QUOTE|10=239|8=FIX.4.4|9=113|35=0|34=72|49=demo.ctrader.3873996|50=3873996S3PWlHCNn4S_un3J5zu1ZQ|52=20240104-14:36:21.094|56=cServer|57=QUOTE|10=239|8=FIX.4.4|9=113|35=0|34=73|49=demo.ctrader.3873996|50=3873996S3PWlHCNn4S_un3J5zu1ZQ|52=20240104-14:36:51.095|56=cServer|57=QUOTE|10=244|8=FIX.4.4|9=113|35=0|34=74|49=demo.ctrader.3873996|50=3873996S3PWlHCNn4S_un3J5zu1ZQ|52=20240104-14:37:21.169|56=cServer|57=QUOTE|10=245|8=FIX.4.4|9=113|35=0|34=75|49=demo.ctrader.3873996|50=3873996S3PWlHCNn4S_un3J5zu1ZQ|52=20240104-14:37:51.189|56=cServer|57=QUOTE|10=251|8=FIX.4.4|9=113|35=0|34=76|49=demo.ctrader.3873996|50=3873996S3PWlHCNn4S_un3J5zu1ZQ|52=20240104-14:38:21.195|56=cServer|57=QUOTE|10=247|8=FIX.4.4|9=113|35=0|34=77|49=demo.ctrader.3873996|50=3873996S3PWlHCNn4S_un3J5zu1ZQ|52=20240104-14:38:51.232|56=cServer|57=QUOTE|10=243|8=FIX.4.4|9=113|35=0|34=78|49=demo.ctrader.3873996|50=3873996S3PWlHCNn4S_un3J5zu1ZQ|52=20240104-14:39:21.240|56=cServer|57=QUOTE|10=241|8=FIX.4.4|9=113|35=0|34=79|49=demo.ctrader.3873996|50=3873996S3PWlHCNn4S_un3J5zu1ZQ|52=20240104-14:39:51.249|56=cServer|57=QUOTE|10=254|8=FIX.4.4|9=113|35=0|34=80|49=demo.ctrader.3873996|50=3873996S3PWlHCNn4S_un3J5zu1ZQ|52=20240104-14:40:21.284|56=cServer|57=QUOTE|10=234|8=FIX.4.4|9=113|35=0|34=81|49=demo.ctrader.3873996|50=3873996S3PWlHCNn4S_un3J5zu1ZQ|52=20240104-14:40:51.383|56=cServer|57=QUOTE|10=238|8=FIX.4.4|9=113|35=0|34=82|49=demo.ctrader.3873996|50=3873996S3PWlHCNn4S_un3J5zu1ZQ|52=20240104-14:41:21.394|56=cServer|57=QUOTE|10=239|8=FIX.4.4|9=113|35=0|34=83|49=demo.ctrader.3873996|50=3873996S3PWlHCNn4S_un3J5zu1ZQ|52=20240104-14:41:51.476|56=cServer|57=QUOTE|10=244|8=FIX.4.4|9=113|35=0|34=84|49=demo.ctrader.3873996|50=3873996S3PWlHCNn4S_un3J5zu1ZQ|52=20240104-14:42:21.500|56=cServer|57=QUOTE|10=231|8=FIX.4.4|9=113|35=0|34=85|49=demo.ctrader.3873996|50=3873996S3PWlHCNn4S_un3J5zu1ZQ|52=20240104-14:42:51.518|56=cServer|57=QUOTE|10=244|8=FIX.4.4|9=113|35=0|34=86|49=demo.ctrader.3873996|50=3873996S3PWlHCNn4S_un3J5zu1ZQ|52=20240104-14:43:21.569|56=cServer|57=QUOTE|10=249|8=FIX.4.4|9=113|35=0|34=87|49=demo.ctrader.3873996|50=3873996S3PWlHCNn4S_un3J5zu1ZQ|52=20240104-14:43:51.595|56=cServer|57=QUOTE|10=252|8=FIX.4.4|9=113|35=0|34=88|49=demo.ctrader.3873996|50=3873996S3PWlHCNn4S_un3J5zu1ZQ|52=20240104-14:44:21.611|56=cServer|57=QUOTE|10=240|8=FIX.4.4|9=113|35=0|34=89|49=demo.ctrader.3873996|50=3873996S3PWlHCNn4S_un3J5zu1ZQ|52=20240104-14:44:51.638|56=cServer|57=QUOTE|10=253|8=FIX.4.4|9=113|35=0|34=90|49=demo.ctrader.3873996|50=3873996S3PWlHCNn4S_un3J5zu1ZQ|52=20240104-14:45:21.639|56=cServer|57=QUOTE|10=244|8=FIX.4.4|9=113|35=0|34=91|49=demo.ctrader.3873996|50=3873996S3PWlHCNn4S_un3J5zu1ZQ|52=20240104-14:45:51.715|56=cServer|57=QUOTE|10=243|8=FIX.4.4|9=113|35=0|34=92|49=demo.ctrader.3873996|50=3873996S3PWlHCNn4S_un3J5zu1ZQ|52=20240104-14:46:21.719|56=cServer|57=QUOTE|10=246|8=FIX.4.4|9=113|35=0|34=93|49=demo.ctrader.3873996|50=3873996S3PWlHCNn4S_un3J5zu1ZQ|52=20240104-14:46:51.734|56=cServer|57=QUOTE|10=247|8=FIX.4.4|9=113|35=0|34=94|49=demo.ctrader.3873996|50=3873996S3PWlHCNn4S_un3J5zu1ZQ|52=20240104-14:47:21.746|56=cServer|57=QUOTE|10=249|8=FIX.4.4|9=113|35=0|34=95|49=demo.ctrader.3873996|50=3873996S3PWlHCNn4S_un3J5zu1ZQ|52=20240104-14:47:51.795|56=cServer|57=QUOTE|10=001|8=FIX.4.4|9=113|35=0|34=96|49=demo.ctrader.3873996|50=3873996S3PWlHCNn4S_un3J5zu1ZQ|52=20240104-14:48:21.796|56=cServer|57=QUOTE|10=001|8=FIX.4.4|9=113|35=0|34=97|49=demo.ctrader.3873996|50=3873996S3PWlHCNn4S_un3J5zu1ZQ|52=20240104-14:48:51.800|56=cServer|57=QUOTE|10=247|8=FIX.4.4|9=113|35=0|34=98|49=demo.ctrader.3873996|50=3873996S3PWlHCNn4S_un3J5zu1ZQ|52=20240104-14:49:21.807|56=cServer|57=QUOTE|10=253|8=FIX.4.4|9=113|35=0|34=99|49=demo.ctrader.3873996|50=3873996S3PWlHCNn4S_un3J5zu1ZQ|52=20240104-14:49:51.816|56=cServer|57=QUOTE|10=001|8=FIX.4.4|9=114|35=0|34=100|49=demo.ctrader.3873996|50=3873996S3PWlHCNn4S_un3J5zu1ZQ|52=20240104-14:50:21.907|56=cServer|57=QUOTE|10=023|8=FIX.4.4|9=114|35=0|34=101|49=demo.ctrader.3873996|50=3873996S3PWlHCNn4S_un3J5zu1ZQ|52=20240104-14:50:51.955|56=cServer|57=QUOTE|10=030|8=FIX.4.4|9=114|35=0|34=102|49=demo.ctrader.3873996|50=3873996S3PWlHCNn4S_un3J5zu1ZQ|52=20240104-14:51:21.963|56=cServer|57=QUOTE|10=028|8=FIX.4.4|9=114|35=0|34=103|49=demo.ctrader.3873996|50=3873996S3PWlHCNn4S_un3J5zu1ZQ|52=20240104-14:51:51.999|56=cServer|57=QUOTE|10=041|8=FIX.4.4|9=114|35=0|34=104|49=demo.ctrader.3873996|50=3873996S3PWlHCNn4S_un3J5zu1ZQ|52=20240104-14:52:22.063|56=cServer|57=QUOTE|10=023|8=FIX.4.4|9=114|35=0|34=105|49=demo.ctrader.3873996|50=3873996S3PWlHCNn4S_un3J5zu1ZQ|52=20240104-14:52:52.079|56=cServer|57=QUOTE|10=034|8=FIX.4.4|9=114|35=0|34=106|49=demo.ctrader.3873996|50=3873996S3PWlHCNn4S_un3J5zu1ZQ|52=20240104-14:53:22.096|56=cServer|57=QUOTE|10=032|8=FIX.4.4|9=114|35=0|34=107|49=demo.ctrader.3873996|50=3873996S3PWlHCNn4S_un3J5zu1ZQ|52=20240104-14:53:52.196|56=cServer|57=QUOTE|10=037|8=FIX.4.4|9=114|35=0|34=108|49=demo.ctrader.3873996|50=3873996S3PWlHCNn4S_un3J5zu1ZQ|52=20240104-14:54:22.216|56=cServer|57=QUOTE|10=029|8=FIX.4.4|9=114|35=0|34=109|49=demo.ctrader.3873996|50=3873996S3PWlHCNn4S_un3J5zu1ZQ|52=20240104-14:54:52.273|56=cServer|57=QUOTE|10=036|8=FIX.4.4|9=114|35=0|34=110|49=demo.ctrader.3873996|50=3873996S3PWlHCNn4S_un3J5zu1ZQ|52=20240104-14:55:22.313|56=cServer|57=QUOTE|10=021|8=FIX.4.4|9=114|35=0|34=111|49=demo.ctrader.3873996|50=3873996S3PWlHCNn4S_un3J5zu1ZQ|52=20240104-14:55:52.395|56=cServer|57=QUOTE|10=035|