8=FIX.4.4|9=244|35=A|34=1|49=demo.ctrader.3873996|50=3873996MUTQRXa5mNB58PGEBqTDrg|52=20231227-08:11:21.975|56=cServer|57=QUOTE|49=demo.ctrader.3873996|50=3873996MUTQRXa5mNB58PGEBqTDrg|52=20231227-08:11:21|56=cServer|98=0|108=30|141=Y|553=3873996|554=Gtlfx125|10=097|8=FIX.4.4|9=170|35=V|34=2|49=demo.ctrader.3873996|50=3873996MUTQRXa5mNB58PGEBqTDrg|52=20231227-08:11:22.955|56=cServer|57=QUOTE|262=MARKETDATAID|263=1|264=1|267=2|269=0|269=1|146=1|55=1|10=030|8=FIX.4.4|9=170|35=V|34=3|49=demo.ctrader.3873996|50=3873996MUTQRXa5mNB58PGEBqTDrg|52=20231227-08:11:22.956|56=cServer|57=QUOTE|262=MARKETDATAID|263=1|264=1|267=2|269=0|269=1|146=1|55=2|10=033|8=FIX.4.4|9=170|35=V|34=4|49=demo.ctrader.3873996|50=3873996MUTQRXa5mNB58PGEBqTDrg|52=20231227-08:11:22.957|56=cServer|57=QUOTE|262=MARKETDATAID|263=1|264=1|267=2|269=0|269=1|146=1|55=3|10=036|8=FIX.4.4|9=170|35=V|34=5|49=demo.ctrader.3873996|50=3873996MUTQRXa5mNB58PGEBqTDrg|52=20231227-08:11:22.957|56=cServer|57=QUOTE|262=MARKETDATAID|263=1|264=1|267=2|269=0|269=1|146=1|55=4|10=038|8=FIX.4.4|9=170|35=V|34=6|49=demo.ctrader.3873996|50=3873996MUTQRXa5mNB58PGEBqTDrg|52=20231227-08:11:22.957|56=cServer|57=QUOTE|262=MARKETDATAID|263=1|264=1|267=2|269=0|269=1|146=1|55=5|10=040|8=FIX.4.4|9=170|35=V|34=7|49=demo.ctrader.3873996|50=3873996MUTQRXa5mNB58PGEBqTDrg|52=20231227-08:11:22.957|56=cServer|57=QUOTE|262=MARKETDATAID|263=1|264=1|267=2|269=0|269=1|146=1|55=6|10=042|8=FIX.4.4|9=170|35=V|34=8|49=demo.ctrader.3873996|50=3873996MUTQRXa5mNB58PGEBqTDrg|52=20231227-08:11:22.957|56=cServer|57=QUOTE|262=MARKETDATAID|263=1|264=1|267=2|269=0|269=1|146=1|55=7|10=044|8=FIX.4.4|9=170|35=V|34=9|49=demo.ctrader.3873996|50=3873996MUTQRXa5mNB58PGEBqTDrg|52=20231227-08:11:22.958|56=cServer|57=QUOTE|262=MARKETDATAID|263=1|264=1|267=2|269=0|269=1|146=1|55=8|10=047|8=FIX.4.4|9=171|35=V|34=10|49=demo.ctrader.3873996|50=3873996MUTQRXa5mNB58PGEBqTDrg|52=20231227-08:11:22.958|56=cServer|57=QUOTE|262=MARKETDATAID|263=1|264=1|267=2|269=0|269=1|146=1|55=9|10=089|8=FIX.4.4|9=172|35=V|34=11|49=demo.ctrader.3873996|50=3873996MUTQRXa5mNB58PGEBqTDrg|52=20231227-08:11:22.958|56=cServer|57=QUOTE|262=MARKETDATAID|263=1|264=1|267=2|269=0|269=1|146=1|55=10|10=131|8=FIX.4.4|9=172|35=V|34=12|49=demo.ctrader.3873996|50=3873996MUTQRXa5mNB58PGEBqTDrg|52=20231227-08:11:22.958|56=cServer|57=QUOTE|262=MARKETDATAID|263=1|264=1|267=2|269=0|269=1|146=1|55=11|10=133|8=FIX.4.4|9=172|35=V|34=13|49=demo.ctrader.3873996|50=3873996MUTQRXa5mNB58PGEBqTDrg|52=20231227-08:11:22.958|56=cServer|57=QUOTE|262=MARKETDATAID|263=1|264=1|267=2|269=0|269=1|146=1|55=12|10=135|8=FIX.4.4|9=172|35=V|34=14|49=demo.ctrader.3873996|50=3873996MUTQRXa5mNB58PGEBqTDrg|52=20231227-08:11:22.958|56=cServer|57=QUOTE|262=MARKETDATAID|263=1|264=1|267=2|269=0|269=1|146=1|55=13|10=137|8=FIX.4.4|9=172|35=V|34=15|49=demo.ctrader.3873996|50=3873996MUTQRXa5mNB58PGEBqTDrg|52=20231227-08:11:22.959|56=cServer|57=QUOTE|262=MARKETDATAID|263=1|264=1|267=2|269=0|269=1|146=1|55=14|10=140|8=FIX.4.4|9=172|35=V|34=16|49=demo.ctrader.3873996|50=3873996MUTQRXa5mNB58PGEBqTDrg|52=20231227-08:11:22.959|56=cServer|57=QUOTE|262=MARKETDATAID|263=1|264=1|267=2|269=0|269=1|146=1|55=15|10=142|8=FIX.4.4|9=172|35=V|34=17|49=demo.ctrader.3873996|50=3873996MUTQRXa5mNB58PGEBqTDrg|52=20231227-08:11:22.959|56=cServer|57=QUOTE|262=MARKETDATAID|263=1|264=1|267=2|269=0|269=1|146=1|55=16|10=144|8=FIX.4.4|9=172|35=V|34=18|49=demo.ctrader.3873996|50=3873996MUTQRXa5mNB58PGEBqTDrg|52=20231227-08:11:22.959|56=cServer|57=QUOTE|262=MARKETDATAID|263=1|264=1|267=2|269=0|269=1|146=1|55=17|10=146|8=FIX.4.4|9=172|35=V|34=19|49=demo.ctrader.3873996|50=3873996MUTQRXa5mNB58PGEBqTDrg|52=20231227-08:11:22.959|56=cServer|57=QUOTE|262=MARKETDATAID|263=1|264=1|267=2|269=0|269=1|146=1|55=18|10=148|8=FIX.4.4|9=172|35=V|34=20|49=demo.ctrader.3873996|50=3873996MUTQRXa5mNB58PGEBqTDrg|52=20231227-08:11:22.959|56=cServer|57=QUOTE|262=MARKETDATAID|263=1|264=1|267=2|269=0|269=1|146=1|55=19|10=141|8=FIX.4.4|9=172|35=V|34=21|49=demo.ctrader.3873996|50=3873996MUTQRXa5mNB58PGEBqTDrg|52=20231227-08:11:22.959|56=cServer|57=QUOTE|262=MARKETDATAID|263=1|264=1|267=2|269=0|269=1|146=1|55=22|10=136|8=FIX.4.4|9=113|35=0|34=22|49=demo.ctrader.3873996|50=3873996MUTQRXa5mNB58PGEBqTDrg|52=20231227-08:11:52.977|56=cServer|57=QUOTE|10=197|8=FIX.4.4|9=113|35=0|34=23|49=demo.ctrader.3873996|50=3873996MUTQRXa5mNB58PGEBqTDrg|52=20231227-08:12:22.994|56=cServer|57=QUOTE|10=195|8=FIX.4.4|9=113|35=0|34=24|49=demo.ctrader.3873996|50=3873996MUTQRXa5mNB58PGEBqTDrg|52=20231227-08:12:53.068|56=cServer|57=QUOTE|10=192|8=FIX.4.4|9=113|35=0|34=25|49=demo.ctrader.3873996|50=3873996MUTQRXa5mNB58PGEBqTDrg|52=20231227-08:13:23.141|56=cServer|57=QUOTE|10=183|8=FIX.4.4|9=113|35=0|34=26|49=demo.ctrader.3873996|50=3873996MUTQRXa5mNB58PGEBqTDrg|52=20231227-08:13:53.334|56=cServer|57=QUOTE|10=191|8=FIX.4.4|9=113|35=0|34=27|49=demo.ctrader.3873996|50=3873996MUTQRXa5mNB58PGEBqTDrg|52=20231227-08:14:23.350|56=cServer|57=QUOTE|10=188|8=FIX.4.4|9=113|35=0|34=28|49=demo.ctrader.3873996|50=3873996MUTQRXa5mNB58PGEBqTDrg|52=20231227-08:14:53.380|56=cServer|57=QUOTE|10=195|8=FIX.4.4|9=113|35=0|34=29|49=demo.ctrader.3873996|50=3873996MUTQRXa5mNB58PGEBqTDrg|52=20231227-08:15:23.383|56=cServer|57=QUOTE|10=197|8=FIX.4.4|9=113|35=0|34=30|49=demo.ctrader.3873996|50=3873996MUTQRXa5mNB58PGEBqTDrg|52=20231227-08:15:53.428|56=cServer|57=QUOTE|10=192|8=FIX.4.4|9=113|35=0|34=31|49=demo.ctrader.3873996|50=3873996MUTQRXa5mNB58PGEBqTDrg|52=20231227-08:16:23.494|56=cServer|57=QUOTE|10=194|8=FIX.4.4|9=113|35=0|34=32|49=demo.ctrader.3873996|50=3873996MUTQRXa5mNB58PGEBqTDrg|52=20231227-08:16:53.676|56=cServer|57=QUOTE|10=200|8=FIX.4.4|9=113|35=0|34=33|49=demo.ctrader.3873996|50=3873996MUTQRXa5mNB58PGEBqTDrg|52=20231227-08:17:23.684|56=cServer|57=QUOTE|10=198|8=FIX.4.4|9=113|35=0|34=34|49=demo.ctrader.3873996|50=3873996MUTQRXa5mNB58PGEBqTDrg|52=20231227-08:17:53.723|56=cServer|57=QUOTE|10=196|8=FIX.4.4|9=113|35=0|34=35|49=demo.ctrader.3873996|50=3873996MUTQRXa5mNB58PGEBqTDrg|52=20231227-08:18:23.841|56=cServer|57=QUOTE|10=196|8=FIX.4.4|9=113|35=0|34=36|49=demo.ctrader.3873996|50=3873996MUTQRXa5mNB58PGEBqTDrg|52=20231227-08:18:53.886|56=cServer|57=QUOTE|10=209|8=FIX.4.4|9=113|35=0|34=37|49=demo.ctrader.3873996|50=3873996MUTQRXa5mNB58PGEBqTDrg|52=20231227-08:19:23.902|56=cServer|57=QUOTE|10=197|8=FIX.4.4|9=113|35=0|34=38|49=demo.ctrader.3873996|50=3873996MUTQRXa5mNB58PGEBqTDrg|52=20231227-08:19:53.985|56=cServer|57=QUOTE|10=212|8=FIX.4.4|9=113|35=0|34=39|49=demo.ctrader.3873996|50=3873996MUTQRXa5mNB58PGEBqTDrg|52=20231227-08:20:24.039|56=cServer|57=QUOTE|10=193|8=FIX.4.4|9=113|35=0|34=40|49=demo.ctrader.3873996|50=3873996MUTQRXa5mNB58PGEBqTDrg|52=20231227-08:20:54.081|56=cServer|57=QUOTE|10=185|8=FIX.4.4|9=113|35=0|34=41|49=demo.ctrader.3873996|50=3873996MUTQRXa5mNB58PGEBqTDrg|52=20231227-08:21:24.125|56=cServer|57=QUOTE|10=183|8=FIX.4.4|9=113|35=0|34=42|49=demo.ctrader.3873996|50=3873996MUTQRXa5mNB58PGEBqTDrg|52=20231227-08:21:54.187|56=cServer|57=QUOTE|10=195|8=FIX.4.4|9=113|35=0|34=43|49=demo.ctrader.3873996|50=3873996MUTQRXa5mNB58PGEBqTDrg|52=20231227-08:22:24.288|56=cServer|57=QUOTE|10=196|8=FIX.4.4|9=113|35=0|34=44|49=demo.ctrader.3873996|50=3873996MUTQRXa5mNB58PGEBqTDrg|52=20231227-08:22:54.387|56=cServer|57=QUOTE|10=200|8=FIX.4.4|9=113|35=0|34=45|49=demo.ctrader.3873996|50=3873996MUTQRXa5mNB58PGEBqTDrg|52=20231227-08:23:24.412|56=cServer|57=QUOTE|10=188|8=FIX.4.4|9=113|35=0|34=46|49=demo.ctrader.3873996|50=3873996MUTQRXa5mNB58PGEBqTDrg|52=20231227-08:23:54.446|56=cServer|57=QUOTE|10=199|8=FIX.4.4|9=113|35=0|34=47|49=demo.ctrader.3873996|50=3873996MUTQRXa5mNB58PGEBqTDrg|52=20231227-08:24:24.488|56=cServer|57=QUOTE|10=204|8=FIX.4.4|9=113|35=0|34=48|49=demo.ctrader.3873996|50=3873996MUTQRXa5mNB58PGEBqTDrg|52=20231227-08:24:54.711|56=cServer|57=QUOTE|10=197|8=FIX.4.4|9=113|35=0|34=49|49=demo.ctrader.3873996|50=3873996MUTQRXa5mNB58PGEBqTDrg|52=20231227-08:25:24.886|56=cServer|57=QUOTE|10=209|8=FIX.4.4|9=113|35=0|34=50|49=demo.ctrader.3873996|50=3873996MUTQRXa5mNB58PGEBqTDrg|52=20231227-08:25:54.889|56=cServer|57=QUOTE|10=207|8=FIX.4.4|9=113|35=0|34=51|49=demo.ctrader.3873996|50=3873996MUTQRXa5mNB58PGEBqTDrg|52=20231227-08:26:25.097|56=cServer|57=QUOTE|10=198|8=FIX.4.4|9=113|35=0|34=52|49=demo.ctrader.3873996|50=3873996MUTQRXa5mNB58PGEBqTDrg|52=20231227-08:26:55.183|56=cServer|57=QUOTE|10=198|8=FIX.4.4|9=113|35=0|34=53|49=demo.ctrader.3873996|50=3873996MUTQRXa5mNB58PGEBqTDrg|52=20231227-08:27:25.354|56=cServer|57=QUOTE|10=197|8=FIX.4.4|9=113|35=0|34=54|49=demo.ctrader.3873996|50=3873996MUTQRXa5mNB58PGEBqTDrg|52=20231227-08:27:55.386|56=cServer|57=QUOTE|10=206|8=FIX.4.4|9=113|35=0|34=55|49=demo.ctrader.3873996|50=3873996MUTQRXa5mNB58PGEBqTDrg|52=20231227-08:28:25.394|56=cServer|57=QUOTE|10=204|8=FIX.4.4|9=113|35=0|34=56|49=demo.ctrader.3873996|50=3873996MUTQRXa5mNB58PGEBqTDrg|52=20231227-08:28:55.445|56=cServer|57=QUOTE|10=205|8=FIX.4.4|9=113|35=0|34=57|49=demo.ctrader.3873996|50=3873996MUTQRXa5mNB58PGEBqTDrg|52=20231227-08:29:25.486|56=cServer|57=QUOTE|10=209|8=FIX.4.4|9=113|35=0|34=58|49=demo.ctrader.3873996|50=3873996MUTQRXa5mNB58PGEBqTDrg|52=20231227-08:29:55.640|56=cServer|57=QUOTE|10=205|8=FIX.4.4|9=113|35=0|34=59|49=demo.ctrader.3873996|50=3873996MUTQRXa5mNB58PGEBqTDrg|52=20231227-08:30:25.652|56=cServer|57=QUOTE|10=198|8=FIX.4.4|9=113|35=0|34=60|49=demo.ctrader.3873996|50=3873996MUTQRXa5mNB58PGEBqTDrg|52=20231227-08:30:55.684|56=cServer|57=QUOTE|10=198|8=FIX.4.4|9=113|35=0|34=61|49=demo.ctrader.3873996|50=3873996MUTQRXa5mNB58PGEBqTDrg|52=20231227-08:31:25.687|56=cServer|57=QUOTE|10=200|8=FIX.4.4|9=113|35=0|34=62|49=demo.ctrader.3873996|50=3873996MUTQRXa5mNB58PGEBqTDrg|52=20231227-08:31:55.771|56=cServer|57=QUOTE|10=198|8=FIX.4.4|9=113|35=0|34=63|49=demo.ctrader.3873996|50=3873996MUTQRXa5mNB58PGEBqTDrg|52=20231227-08:32:25.892|56=cServer|57=QUOTE|10=201|8=FIX.4.4|9=113|35=0|34=64|49=demo.ctrader.3873996|50=3873996MUTQRXa5mNB58PGEBqTDrg|52=20231227-08:32:55.984|56=cServer|57=QUOTE|10=207|8=FIX.4.4|9=113|35=0|34=65|49=demo.ctrader.3873996|50=3873996MUTQRXa5mNB58PGEBqTDrg|52=20231227-08:33:25.986|56=cServer|57=QUOTE|10=208|8=FIX.4.4|9=113|35=0|34=66|49=demo.ctrader.3873996|50=3873996MUTQRXa5mNB58PGEBqTDrg|52=20231227-08:33:56.252|56=cServer|57=QUOTE|10=199|8=FIX.4.4|9=113|35=0|34=67|49=demo.ctrader.3873996|50=3873996MUTQRXa5mNB58PGEBqTDrg|52=20231227-08:34:26.284|56=cServer|57=QUOTE|10=203|8=FIX.4.4|9=113|35=0|34=68|49=demo.ctrader.3873996|50=3873996MUTQRXa5mNB58PGEBqTDrg|52=20231227-08:34:56.465|56=cServer|57=QUOTE|10=208|8=FIX.4.4|9=113|35=0|34=69|49=demo.ctrader.3873996|50=3873996MUTQRXa5mNB58PGEBqTDrg|52=20231227-08:35:26.529|56=cServer|57=QUOTE|10=208|8=FIX.4.4|9=113|35=0|34=70|49=demo.ctrader.3873996|50=3873996MUTQRXa5mNB58PGEBqTDrg|52=20231227-08:35:56.611|56=cServer|57=QUOTE|10=195|8=FIX.4.4|9=113|35=0|34=71|49=demo.ctrader.3873996|50=3873996MUTQRXa5mNB58PGEBqTDrg|52=20231227-08:36:26.944|56=cServer|57=QUOTE|10=203|8=FIX.4.4|9=113|35=0|34=72|49=demo.ctrader.3873996|50=3873996MUTQRXa5mNB58PGEBqTDrg|52=20231227-08:36:57.087|56=cServer|57=QUOTE|10=206|8=FIX.4.4|9=113|35=0|34=73|49=demo.ctrader.3873996|50=3873996MUTQRXa5mNB58PGEBqTDrg|52=20231227-08:37:27.105|56=cServer|57=QUOTE|10=196|8=FIX.4.4|9=113|35=0|34=74|49=demo.ctrader.3873996|50=3873996MUTQRXa5mNB58PGEBqTDrg|52=20231227-08:37:57.177|56=cServer|57=QUOTE|10=209|8=FIX.4.4|9=113|35=0|34=75|49=demo.ctrader.3873996|50=3873996MUTQRXa5mNB58PGEBqTDrg|52=20231227-08:38:27.242|56=cServer|57=QUOTE|10=201|8=FIX.4.4|9=113|35=0|34=76|49=demo.ctrader.3873996|50=3873996MUTQRXa5mNB58PGEBqTDrg|52=20231227-08:38:57.318|56=cServer|57=QUOTE|10=209|8=FIX.4.4|9=113|35=0|34=77|49=demo.ctrader.3873996|50=3873996MUTQRXa5mNB58PGEBqTDrg|52=20231227-08:39:27.389|56=cServer|57=QUOTE|10=216|8=FIX.4.4|9=113|35=0|34=78|49=demo.ctrader.3873996|50=3873996MUTQRXa5mNB58PGEBqTDrg|52=20231227-08:39:57.399|56=cServer|57=QUOTE|10=221|8=FIX.4.4|9=113|35=0|34=79|49=demo.ctrader.3873996|50=3873996MUTQRXa5mNB58PGEBqTDrg|52=20231227-08:40:27.413|56=cServer|57=QUOTE|10=198|8=FIX.4.4|9=113|35=0|34=80|49=demo.ctrader.3873996|50=3873996MUTQRXa5mNB58PGEBqTDrg|52=20231227-08:40:57.423|56=cServer|57=QUOTE|10=194|8=FIX.4.4|9=113|35=0|34=81|49=demo.ctrader.3873996|50=3873996MUTQRXa5mNB58PGEBqTDrg|52=20231227-08:41:27.860|56=cServer|57=QUOTE|10=198|8=FIX.4.4|9=113|35=0|34=82|49=demo.ctrader.3873996|50=3873996MUTQRXa5mNB58PGEBqTDrg|52=20231227-08:41:57.890|56=cServer|57=QUOTE|10=205|8=FIX.4.4|9=113|35=0|34=83|49=demo.ctrader.3873996|50=3873996MUTQRXa5mNB58PGEBqTDrg|52=20231227-08:42:27.976|56=cServer|57=QUOTE|10=209|8=FIX.4.4|9=113|35=0|34=84|49=demo.ctrader.3873996|50=3873996MUTQRXa5mNB58PGEBqTDrg|52=20231227-08:42:58.016|56=cServer|57=QUOTE|10=199|8=FIX.4.4|9=113|35=0|34=85|49=demo.ctrader.3873996|50=3873996MUTQRXa5mNB58PGEBqTDrg|52=20231227-08:43:28.019|56=cServer|57=QUOTE|10=201|8=FIX.4.4|9=113|35=0|34=86|49=demo.ctrader.3873996|50=3873996MUTQRXa5mNB58PGEBqTDrg|52=20231227-08:43:58.215|56=cServer|57=QUOTE|10=203|8=FIX.4.4|9=113|35=0|34=87|49=demo.ctrader.3873996|50=3873996MUTQRXa5mNB58PGEBqTDrg|52=20231227-08:44:28.301|56=cServer|57=QUOTE|10=198|8=FIX.4.4|9=113|35=0|34=88|49=demo.ctrader.3873996|50=3873996MUTQRXa5mNB58PGEBqTDrg|52=20231227-08:44:58.318|56=cServer|57=QUOTE|10=210|8=FIX.4.4|9=113|35=0|34=89|49=demo.ctrader.3873996|50=3873996MUTQRXa5mNB58PGEBqTDrg|52=20231227-08:45:28.343|56=cServer|57=QUOTE|10=207|8=FIX.4.4|9=113|35=0|34=90|49=demo.ctrader.3873996|50=3873996MUTQRXa5mNB58PGEBqTDrg|52=20231227-08:45:58.373|56=cServer|57=QUOTE|10=205|8=FIX.4.4|9=113|35=0|34=91|49=demo.ctrader.3873996|50=3873996MUTQRXa5mNB58PGEBqTDrg|52=20231227-08:46:28.490|56=cServer|57=QUOTE|10=204|8=FIX.4.4|9=113|35=0|34=92|49=demo.ctrader.3873996|50=3873996MUTQRXa5mNB58PGEBqTDrg|52=20231227-08:46:58.569|56=cServer|57=QUOTE|10=215|8=FIX.4.4|9=113|35=0|34=93|49=demo.ctrader.3873996|50=3873996MUTQRXa5mNB58PGEBqTDrg|52=20231227-08:47:28.572|56=cServer|57=QUOTE|10=208|8=FIX.4.4|9=113|35=0|34=94|49=demo.ctrader.3873996|50=3873996MUTQRXa5mNB58PGEBqTDrg|52=20231227-08:47:58.882|56=cServer|57=QUOTE|10=216|8=FIX.4.4|9=113|35=0|34=95|49=demo.ctrader.3873996|50=3873996MUTQRXa5mNB58PGEBqTDrg|52=20231227-08:48:28.882|56=cServer|57=QUOTE|10=215|8=FIX.4.4|9=113|35=0|34=96|49=demo.ctrader.3873996|50=3873996MUTQRXa5mNB58PGEBqTDrg|52=20231227-08:48:58.935|56=cServer|57=QUOTE|10=218|8=FIX.4.4|9=113|35=0|34=97|49=demo.ctrader.3873996|50=3873996MUTQRXa5mNB58PGEBqTDrg|52=20231227-08:49:29.114|56=cServer|57=QUOTE|10=207|8=FIX.4.4|9=113|35=0|34=98|49=demo.ctrader.3873996|50=3873996MUTQRXa5mNB58PGEBqTDrg|52=20231227-08:49:59.161|56=cServer|57=QUOTE|10=213|8=FIX.4.4|9=113|35=0|34=99|49=demo.ctrader.3873996|50=3873996MUTQRXa5mNB58PGEBqTDrg|52=20231227-08:50:29.284|56=cServer|57=QUOTE|10=209|8=FIX.4.4|9=114|35=0|34=100|49=demo.ctrader.3873996|50=3873996MUTQRXa5mNB58PGEBqTDrg|52=20231227-08:50:59.394|56=cServer|57=QUOTE|10=246|8=FIX.4.4|9=114|35=0|34=101|49=demo.ctrader.3873996|50=3873996MUTQRXa5mNB58PGEBqTDrg|52=20231227-08:51:29.397|56=cServer|57=QUOTE|10=248|8=FIX.4.4|9=114|35=0|34=102|49=demo.ctrader.3873996|50=3873996MUTQRXa5mNB58PGEBqTDrg|52=20231227-08:51:59.492|56=cServer|57=QUOTE|10=248|8=FIX.4.4|9=114|35=0|34=103|49=demo.ctrader.3873996|50=3873996MUTQRXa5mNB58PGEBqTDrg|52=20231227-08:52:29.723|56=cServer|57=QUOTE|10=244|8=FIX.4.4|9=114|35=0|34=104|49=demo.ctrader.3873996|50=3873996MUTQRXa5mNB58PGEBqTDrg|52=20231227-08:52:59.736|56=cServer|57=QUOTE|10=252|8=FIX.4.4|9=114|35=0|34=105|49=demo.ctrader.3873996|50=3873996MUTQRXa5mNB58PGEBqTDrg|52=20231227-08:53:29.908|56=cServer|57=QUOTE|10=252|8=FIX.4.4|9=114|35=0|34=106|49=demo.ctrader.3873996|50=3873996MUTQRXa5mNB58PGEBqTDrg|52=20231227-08:53:59.925|56=cServer|57=QUOTE|10=255|8=FIX.4.4|9=114|35=0|34=107|49=demo.ctrader.3873996|50=3873996MUTQRXa5mNB58PGEBqTDrg|52=20231227-08:54:29.992|56=cServer|57=QUOTE|10=002|8=FIX.4.4|9=114|35=0|34=108|49=demo.ctrader.3873996|50=3873996MUTQRXa5mNB58PGEBqTDrg|52=20231227-08:55:00.002|56=cServer|57=QUOTE|10=231|8=FIX.4.4|9=114|35=0|34=109|49=demo.ctrader.3873996|50=3873996MUTQRXa5mNB58PGEBqTDrg|52=20231227-08:55:30.305|56=cServer|57=QUOTE|10=241|8=FIX.4.4|9=114|35=0|34=110|49=demo.ctrader.3873996|50=3873996MUTQRXa5mNB58PGEBqTDrg|52=20231227-08:56:00.378|56=cServer|57=QUOTE|10=241|8=FIX.4.4|9=114|35=0|34=111|49=demo.ctrader.3873996|50=3873996MUTQRXa5mNB58PGEBqTDrg|52=20231227-08:56:30.386|56=cServer|57=QUOTE|10=244|8=FIX.4.4|9=114|35=0|34=112|49=demo.ctrader.3873996|50=3873996MUTQRXa5mNB58PGEBqTDrg|52=20231227-08:57:00.414|56=cServer|57=QUOTE|10=235|8=FIX.4.4|9=114|35=0|34=113|49=demo.ctrader.3873996|50=3873996MUTQRXa5mNB58PGEBqTDrg|52=20231227-08:57:30.417|56=cServer|57=QUOTE|10=242|8=FIX.4.4|9=114|35=0|34=114|49=demo.ctrader.3873996|50=3873996MUTQRXa5mNB58PGEBqTDrg|52=20231227-08:58:00.443|56=cServer|57=QUOTE|10=240|8=FIX.4.4|9=114|35=0|34=115|49=demo.ctrader.3873996|50=3873996MUTQRXa5mNB58PGEBqTDrg|52=20231227-08:58:30.651|56=cServer|57=QUOTE|10=245|8=FIX.4.4|9=114|35=0|34=116|49=demo.ctrader.3873996|50=3873996MUTQRXa5mNB58PGEBqTDrg|52=20231227-08:59:00.668|56=cServer|57=QUOTE|10=252|8=FIX.4.4|9=114|35=0|34=117|49=demo.ctrader.3873996|50=3873996MUTQRXa5mNB58PGEBqTDrg|52=20231227-08:59:30.681|56=cServer|57=QUOTE|10=251|8=FIX.4.4|9=114|35=0|34=118|49=demo.ctrader.3873996|50=3873996MUTQRXa5mNB58PGEBqTDrg|52=20231227-09:00:00.706|56=cServer|57=QUOTE|10=234|8=FIX.4.4|9=114|35=0|34=119|49=demo.ctrader.3873996|50=3873996MUTQRXa5mNB58PGEBqTDrg|52=20231227-09:00:30.850|56=cServer|57=QUOTE|10=238|8=FIX.4.4|9=114|35=0|34=120|49=demo.ctrader.3873996|50=3873996MUTQRXa5mNB58PGEBqTDrg|52=20231227-09:01:00.887|56=cServer|57=QUOTE|10=238|8=FIX.4.4|9=114|35=0|34=121|49=demo.ctrader.3873996|50=3873996MUTQRXa5mNB58PGEBqTDrg|52=20231227-09:01:30.935|56=cServer|57=QUOTE|10=236|8=FIX.4.4|9=114|35=0|34=122|49=demo.ctrader.3873996|50=3873996MUTQRXa5mNB58PGEBqTDrg|52=20231227-09:02:00.948|56=cServer|57=QUOTE|10=239|8=FIX.4.4|9=114|35=0|34=123|49=demo.ctrader.3873996|50=3873996MUTQRXa5mNB58PGEBqTDrg|52=20231227-09:02:30.968|56=cServer|57=QUOTE|10=245|8=FIX.4.4|9=114|35=0|34=124|49=demo.ctrader.3873996|50=3873996MUTQRXa5mNB58PGEBqTDrg|52=20231227-09:03:01.015|56=cServer|57=QUOTE|10=228|8=FIX.4.4|9=114|35=0|34=125|49=demo.ctrader.3873996|50=3873996MUTQRXa5mNB58PGEBqTDrg|52=20231227-09:03:31.070|56=cServer|57=QUOTE|10=233|8=FIX.4.4|9=114|35=0|34=126|49=demo.ctrader.3873996|50=3873996MUTQRXa5mNB58PGEBqTDrg|52=20231227-09:04:01.176|56=cServer|57=QUOTE|10=239|8=FIX.4.4|9=114|35=0|34=127|49=demo.ctrader.3873996|50=3873996MUTQRXa5mNB58PGEBqTDrg|52=20231227-09:04:31.261|56=cServer|57=QUOTE|10=238|8=FIX.4.4|9=114|35=0|34=128|49=demo.ctrader.3873996|50=3873996MUTQRXa5mNB58PGEBqTDrg|52=20231227-09:05:01.274|56=cServer|57=QUOTE|10=241|8=FIX.4.4|9=114|35=0|34=129|49=demo.ctrader.3873996|50=3873996MUTQRXa5mNB58PGEBqTDrg|52=20231227-09:05:31.275|56=cServer|57=QUOTE|10=246|8=FIX.4.4|9=114|35=0|34=130|49=demo.ctrader.3873996|50=3873996MUTQRXa5mNB58PGEBqTDrg|52=20231227-09:06:01.321|56=cServer|57=QUOTE|10=228|8=FIX.4.4|9=114|35=0|34=131|49=demo.ctrader.3873996|50=3873996MUTQRXa5mNB58PGEBqTDrg|52=20231227-09:06:31.639|56=cServer|57=QUOTE|10=244|8=FIX.4.4|9=114|35=0|34=132|49=demo.ctrader.3873996|50=3873996MUTQRXa5mNB58PGEBqTDrg|52=20231227-09:07:01.650|56=cServer|57=QUOTE|10=236|8=FIX.4.4|9=114|35=0|34=133|49=demo.ctrader.3873996|50=3873996MUTQRXa5mNB58PGEBqTDrg|52=20231227-09:07:31.650|56=cServer|57=QUOTE|10=240|8=FIX.4.4|9=114|35=0|34=134|49=demo.ctrader.3873996|50=3873996MUTQRXa5mNB58PGEBqTDrg|52=20231227-09:08:01.695|56=cServer|57=QUOTE|10=248|8=FIX.4.4|9=114|35=0|34=135|49=demo.ctrader.3873996|50=3873996MUTQRXa5mNB58PGEBqTDrg|52=20231227-09:08:31.927|56=cServer|57=QUOTE|10=250|8=FIX.4.4|9=114|35=0|34=136|49=demo.ctrader.3873996|50=3873996MUTQRXa5mNB58PGEBqTDrg|52=20231227-09:09:01.957|56=cServer|57=QUOTE|10=252|8=FIX.4.4|9=114|35=0|34=137|49=demo.ctrader.3873996|50=3873996MUTQRXa5mNB58PGEBqTDrg|52=20231227-09:09:32.127|56=cServer|57=QUOTE|10=246|8=FIX.4.4|9=114|35=0|34=138|49=demo.ctrader.3873996|50=3873996MUTQRXa5mNB58PGEBqTDrg|52=20231227-09:10:02.167|56=cServer|57=QUOTE|10=240|8=FIX.4.4|9=114|35=0|34=139|49=demo.ctrader.3873996|50=3873996MUTQRXa5mNB58PGEBqTDrg|52=20231227-09:10:32.175|56=cServer|57=QUOTE|10=243|8=FIX.4.4|9=114|35=0|34=140|49=demo.ctrader.3873996|50=3873996MUTQRXa5mNB58PGEBqTDrg|52=20231227-09:11:02.312|56=cServer|57=QUOTE|10=226|8=FIX.4.4|9=114|35=0|34=141|49=demo.ctrader.3873996|50=3873996MUTQRXa5mNB58PGEBqTDrg|52=20231227-09:11:32.358|56=cServer|57=QUOTE|10=240|8=FIX.4.4|9=114|35=0|34=142|49=demo.ctrader.3873996|50=3873996MUTQRXa5mNB58PGEBqTDrg|52=20231227-09:12:02.417|56=cServer|57=QUOTE|10=235|8=FIX.4.4|9=114|35=0|34=143|49=demo.ctrader.3873996|50=3873996MUTQRXa5mNB58PGEBqTDrg|52=20231227-09:12:32.746|56=cServer|57=QUOTE|10=244|8=FIX.4.4|9=114|35=0|34=144|49=demo.ctrader.3873996|50=3873996MUTQRXa5mNB58PGEBqTDrg|52=20231227-09:13:02.781|56=cServer|57=QUOTE|10=242|8=FIX.4.4|9=114|35=0|34=145|49=demo.ctrader.3873996|50=3873996MUTQRXa5mNB58PGEBqTDrg|52=20231227-09:13:33.185|56=cServer|57=QUOTE|10=245|8=FIX.4.4|9=114|35=0|34=146|49=demo.ctrader.3873996|50=3873996MUTQRXa5mNB58PGEBqTDrg|52=20231227-09:14:03.189|56=cServer|57=QUOTE|10=248|8=FIX.4.4|9=114|35=0|34=147|49=demo.ctrader.3873996|50=3873996MUTQRXa5mNB58PGEBqTDrg|52=20231227-09:14:33.387|56=cServer|57=QUOTE|10=252|8=FIX.4.4|9=114|35=0|34=148|49=demo.ctrader.3873996|50=3873996MUTQRXa5mNB58PGEBqTDrg|52=20231227-09:15:03.396|56=cServer|57=QUOTE|10=251|8=FIX.4.4|9=114|35=0|34=149|49=demo.ctrader.3873996|50=3873996MUTQRXa5mNB58PGEBqTDrg|52=20231227-09:15:33.410|56=cServer|57=QUOTE|10=242|8=FIX.4.4|9=114|35=0|34=150|49=demo.ctrader.3873996|50=3873996MUTQRXa5mNB58PGEBqTDrg|52=20231227-09:16:03.440|56=cServer|57=QUOTE|10=235|8=FIX.4.4|9=114|35=0|34=151|49=demo.ctrader.3873996|50=3873996MUTQRXa5mNB58PGEBqTDrg|52=20231227-09:16:33.481|56=cServer|57=QUOTE|10=244|8=FIX.4.4|9=114|35=0|34=152|49=demo.ctrader.3873996|50=3873996MUTQRXa5mNB58PGEBqTDrg|52=20231227-09:17:03.486|56=cServer|57=QUOTE|10=248|8=FIX.4.4|9=114|35=0|34=153|49=demo.ctrader.3873996|50=3873996MUTQRXa5mNB58PGEBqTDrg|52=20231227-09:17:33.529|56=cServer|57=QUOTE|10=250|8=FIX.4.4|9=114|35=0|34=154|49=demo.ctrader.3873996|50=3873996MUTQRXa5mNB58PGEBqTDrg|52=20231227-09:18:03.574|56=cServer|57=QUOTE|10=249|8=FIX.4.4|9=114|35=0|34=155|49=demo.ctrader.3873996|50=3873996MUTQRXa5mNB58PGEBqTDrg|52=20231227-09:18:33.591|56=cServer|57=QUOTE|10=252|8=FIX.4.4|9=114|35=0|34=156|49=demo.ctrader.3873996|50=3873996MUTQRXa5mNB58PGEBqTDrg|52=20231227-09:19:04.199|56=cServer|57=QUOTE|10=000|8=FIX.4.4|9=114|35=0|34=157|49=demo.ctrader.3873996|50=3873996MUTQRXa5mNB58PGEBqTDrg|52=20231227-09:19:34.331|56=cServer|57=QUOTE|10=248|8=FIX.4.4|9=114|35=0|34=158|49=demo.ctrader.3873996|50=3873996MUTQRXa5mNB58PGEBqTDrg|52=20231227-09:20:04.366|56=cServer|57=QUOTE|10=246|8=FIX.4.4|9=114|35=0|34=159|49=demo.ctrader.3873996|50=3873996MUTQRXa5mNB58PGEBqTDrg|52=20231227-09:20:34.366|56=cServer|57=QUOTE|10=250|8=FIX.4.4|9=114|35=0|34=160|49=demo.ctrader.3873996|50=3873996MUTQRXa5mNB58PGEBqTDrg|52=20231227-09:21:04.489|56=cServer|57=QUOTE|10=246|8=FIX.4.4|9=114|35=0|34=161|49=demo.ctrader.3873996|50=3873996MUTQRXa5mNB58PGEBqTDrg|52=20231227-09:21:34.549|56=cServer|57=QUOTE|10=247|8=FIX.4.4|9=114|35=0|34=162|49=demo.ctrader.3873996|50=3873996MUTQRXa5mNB58PGEBqTDrg|52=20231227-09:22:04.564|56=cServer|57=QUOTE|10=243|8=FIX.4.4|9=114|35=0|34=163|49=demo.ctrader.3873996|50=3873996MUTQRXa5mNB58PGEBqTDrg|52=20231227-09:22:34.570|56=cServer|57=QUOTE|10=244|8=FIX.4.4|9=114|35=0|34=164|49=demo.ctrader.3873996|50=3873996MUTQRXa5mNB58PGEBqTDrg|52=20231227-09:23:04.588|56=cServer|57=QUOTE|10=252|8=FIX.4.4|9=114|35=0|34=165|49=demo.ctrader.3873996|50=3873996MUTQRXa5mNB58PGEBqTDrg|52=20231227-09:23:34.713|56=cServer|57=QUOTE|10=246|8=FIX.4.4|9=114|35=0|34=166|49=demo.ctrader.3873996|50=3873996MUTQRXa5mNB58PGEBqTDrg|52=20231227-09:24:04.787|56=cServer|57=QUOTE|10=000|8=FIX.4.4|9=114|35=0|34=167|49=demo.ctrader.3873996|50=3873996MUTQRXa5mNB58PGEBqTDrg|52=20231227-09:24:34.841|56=cServer|57=QUOTE|10=251|8=FIX.4.4|9=114|35=0|34=168|49=demo.ctrader.3873996|50=3873996MUTQRXa5mNB58PGEBqTDrg|52=20231227-09:25:04.899|56=cServer|57=QUOTE|10=007|8=FIX.4.4|9=114|35=0|34=169|49=demo.ctrader.3873996|50=3873996MUTQRXa5mNB58PGEBqTDrg|52=20231227-09:25:34.979|56=cServer|57=QUOTE|10=010|8=FIX.4.4|9=114|35=0|34=170|49=demo.ctrader.3873996|50=3873996MUTQRXa5mNB58PGEBqTDrg|52=20231227-09:26:05.051|56=cServer|57=QUOTE|10=238|8=FIX.4.4|9=114|35=0|34=171|49=demo.ctrader.3873996|50=3873996MUTQRXa5mNB58PGEBqTDrg|52=20231227-09:26:35.981|56=cServer|57=QUOTE|10=254|8=FIX.4.4|9=114|35=0|34=172|49=demo.ctrader.3873996|50=3873996MUTQRXa5mNB58PGEBqTDrg|52=20231227-09:27:05.994|56=cServer|57=QUOTE|10=001|8=FIX.4.4|9=114|35=0|34=173|49=demo.ctrader.3873996|50=3873996MUTQRXa5mNB58PGEBqTDrg|52=20231227-09:27:36.118|56=cServer|57=QUOTE|10=250|8=FIX.4.4|9=114|35=0|34=174|49=demo.ctrader.3873996|50=3873996MUTQRXa5mNB58PGEBqTDrg|52=20231227-09:28:06.157|56=cServer|57=QUOTE|10=252|8=FIX.4.4|9=114|35=0|34=175|49=demo.ctrader.3873996|50=3873996MUTQRXa5mNB58PGEBqTDrg|52=20231227-09:28:36.179|56=cServer|57=QUOTE|10=004|8=FIX.4.4|9=114|35=0|34=176|49=demo.ctrader.3873996|50=3873996MUTQRXa5mNB58PGEBqTDrg|52=20231227-09:29:06.204|56=cServer|57=QUOTE|10=248|8=FIX.4.4|9=114|35=0|34=177|49=demo.ctrader.3873996|50=3873996MUTQRXa5mNB58PGEBqTDrg|52=20231227-09:29:36.327|56=cServer|57=QUOTE|10=002|8=FIX.4.4|9=114|35=0|34=178|49=demo.ctrader.3873996|50=3873996MUTQRXa5mNB58PGEBqTDrg|52=20231227-09:30:06.625|56=cServer|57=QUOTE|10=249|8=FIX.4.4|9=114|35=0|34=179|49=demo.ctrader.3873996|50=3873996MUTQRXa5mNB58PGEBqTDrg|52=20231227-09:30:36.691|56=cServer|57=QUOTE|10=000|8=FIX.4.4|9=114|35=0|34=180|49=demo.ctrader.3873996|50=3873996MUTQRXa5mNB58PGEBqTDrg|52=20231227-09:31:07.604|56=cServer|57=QUOTE|10=241|8=FIX.4.4|9=114|35=0|34=181|49=demo.ctrader.3873996|50=3873996MUTQRXa5mNB58PGEBqTDrg|52=20231227-09:31:37.618|56=cServer|57=QUOTE|10=250|8=FIX.4.4|9=114|35=0|34=182|49=demo.ctrader.3873996|50=3873996MUTQRXa5mNB58PGEBqTDrg|52=20231227-09:32:08.088|56=cServer|57=QUOTE|10=251|8=FIX.4.4|9=114|35=0|34=183|49=demo.ctrader.3873996|50=3873996MUTQRXa5mNB58PGEBqTDrg|52=20231227-09:32:38.096|56=cServer|57=QUOTE|10=254|8=FIX.4.4|9=114|35=0|34=184|49=demo.ctrader.3873996|50=3873996MUTQRXa5mNB58PGEBqTDrg|52=20231227-09:33:08.229|56=cServer|57=QUOTE|10=251|8=FIX.4.4|9=114|35=0|34=185|49=demo.ctrader.3873996|50=3873996MUTQRXa5mNB58PGEBqTDrg|52=20231227-09:33:38.377|56=cServer|57=QUOTE|10=003|8=FIX.4.4|9=114|35=0|34=186|49=demo.ctrader.3873996|50=3873996MUTQRXa5mNB58PGEBqTDrg|52=20231227-09:34:08.405|56=cServer|57=QUOTE|10=250|8=FIX.4.4|9=114|35=0|34=187|49=demo.ctrader.3873996|50=3873996MUTQRXa5mNB58PGEBqTDrg|52=20231227-09:34:38.685|56=cServer|57=QUOTE|10=008|8=FIX.4.4|9=114|35=0|34=188|49=demo.ctrader.3873996|50=3873996MUTQRXa5mNB58PGEBqTDrg|52=20231227-09:35:08.788|56=cServer|57=QUOTE|10=011|8=FIX.4.4|9=114|35=0|34=189|49=demo.ctrader.3873996|50=3873996MUTQRXa5mNB58PGEBqTDrg|52=20231227-09:35:38.812|56=cServer|57=QUOTE|10=003|8=FIX.4.4|9=114|35=0|34=190|49=demo.ctrader.3873996|50=3873996MUTQRXa5mNB58PGEBqTDrg|52=20231227-09:36:08.826|56=cServer|57=QUOTE|10=254|8=FIX.4.4|9=114|35=0|34=191|49=demo.ctrader.3873996|50=3873996MUTQRXa5mNB58PGEBqTDrg|52=20231227-09:36:39.048|56=cServer|57=QUOTE|10=255|8=FIX.4.4|9=114|35=0|34=192|49=demo.ctrader.3873996|50=3873996MUTQRXa5mNB58PGEBqTDrg|52=20231227-09:37:09.328|56=cServer|57=QUOTE|10=255|8=FIX.4.4|9=114|35=0|34=193|49=demo.ctrader.3873996|50=3873996MUTQRXa5mNB58PGEBqTDrg|52=20231227-09:37:39.476|56=cServer|57=QUOTE|10=007|8=FIX.4.4|9=114|35=0|34=194|49=demo.ctrader.3873996|50=3873996MUTQRXa5mNB58PGEBqTDrg|52=20231227-09:38:09.483|56=cServer|57=QUOTE|10=004|8=FIX.4.4|9=114|35=0|34=195|49=demo.ctrader.3873996|50=3873996MUTQRXa5mNB58PGEBqTDrg|52=20231227-09:38:39.502|56=cServer|57=QUOTE|10=000|8=FIX.4.4|9=114|35=0|34=196|49=demo.ctrader.3873996|50=3873996MUTQRXa5mNB58PGEBqTDrg|52=20231227-09:39:09.546|56=cServer|57=QUOTE|10=007|8=FIX.4.4|9=114|35=0|34=197|49=demo.ctrader.3873996|50=3873996MUTQRXa5mNB58PGEBqTDrg|52=20231227-09:39:39.650|56=cServer|57=QUOTE|10=007|8=FIX.4.4|9=114|35=0|34=198|49=demo.ctrader.3873996|50=3873996MUTQRXa5mNB58PGEBqTDrg|52=20231227-09:40:09.669|56=cServer|57=QUOTE|10=007|8=FIX.4.4|9=114|35=0|34=199|49=demo.ctrader.3873996|50=3873996MUTQRXa5mNB58PGEBqTDrg|52=20231227-09:40:39.979|56=cServer|57=QUOTE|10=015|8=FIX.4.4|9=114|35=0|34=200|49=demo.ctrader.3873996|50=3873996MUTQRXa5mNB58PGEBqTDrg|52=20231227-09:41:10.108|56=cServer|57=QUOTE|10=228|8=FIX.4.4|9=114|35=0|34=201|49=demo.ctrader.3873996|50=3873996MUTQRXa5mNB58PGEBqTDrg|52=20231227-09:41:40.191|56=cServer|57=QUOTE|10=234|8=FIX.4.4|9=114|35=0|34=202|49=demo.ctrader.3873996|50=3873996MUTQRXa5mNB58PGEBqTDrg|52=20231227-09:42:10.352|56=cServer|57=QUOTE|10=232|8=FIX.4.4|9=114|35=0|34=203|49=demo.ctrader.3873996|50=3873996MUTQRXa5mNB58PGEBqTDrg|52=20231227-09:42:40.399|56=cServer|57=QUOTE|10=247|8=FIX.4.4|9=114|35=0|34=204|49=demo.ctrader.3873996|50=3873996MUTQRXa5mNB58PGEBqTDrg|52=20231227-09:43:10.612|56=cServer|57=QUOTE|10=234|8=FIX.4.4|9=114|35=0|34=205|49=demo.ctrader.3873996|50=3873996MUTQRXa5mNB58PGEBqTDrg|52=20231227-09:43:40.661|56=cServer|57=QUOTE|10=242|8=FIX.4.4|9=114|35=0|34=206|49=demo.ctrader.3873996|50=3873996MUTQRXa5mNB58PGEBqTDrg|52=20231227-09:44:10.767|56=cServer|57=QUOTE|10=248|8=FIX.4.4|9=114|35=0|34=207|49=demo.ctrader.3873996|50=3873996MUTQRXa5mNB58PGEBqTDrg|52=20231227-09:44:40.796|56=cServer|57=QUOTE|10=254|8=FIX.4.4|9=114|35=0|34=208|49=demo.ctrader.3873996|50=3873996MUTQRXa5mNB58PGEBqTDrg|52=20231227-09:45:10.873|56=cServer|57=QUOTE|10=249|8=FIX.4.4|9=114|35=0|34=209|49=demo.ctrader.3873996|50=3873996MUTQRXa5mNB58PGEBqTDrg|52=20231227-09:45:41.293|56=cServer|57=QUOTE|10=250|8=FIX.4.4|9=114|35=0|34=210|49=demo.ctrader.3873996|50=3873996MUTQRXa5mNB58PGEBqTDrg|52=20231227-09:46:11.319|56=cServer|57=QUOTE|10=239|8=FIX.4.4|9=114|35=0|34=211|49=demo.ctrader.3873996|50=3873996MUTQRXa5mNB58PGEBqTDrg|52=20231227-09:46:41.358|56=cServer|57=QUOTE|10=246|8=FIX.4.4|9=114|35=0|34=212|49=demo.ctrader.3873996|50=3873996MUTQRXa5mNB58PGEBqTDrg|52=20231227-09:47:11.512|56=cServer|57=QUOTE|10=237|8=FIX.4.4|9=114|35=0|34=213|49=demo.ctrader.3873996|50=3873996MUTQRXa5mNB58PGEBqTDrg|52=20231227-09:47:41.518|56=cServer|57=QUOTE|10=247|8=FIX.4.4|9=114|35=0|34=214|49=demo.ctrader.3873996|50=3873996MUTQRXa5mNB58PGEBqTDrg|52=20231227-09:48:11.763|56=cServer|57=QUOTE|10=248|8=FIX.4.4|9=114|35=0|34=215|49=demo.ctrader.3873996|50=3873996MUTQRXa5mNB58PGEBqTDrg|52=20231227-09:48:41.790|56=cServer|57=QUOTE|10=252|8=FIX.4.4|9=114|35=0|34=216|49=demo.ctrader.3873996|50=3873996MUTQRXa5mNB58PGEBqTDrg|52=20231227-09:49:11.803|56=cServer|57=QUOTE|10=246|8=FIX.4.4|9=114|35=0|34=217|49=demo.ctrader.3873996|50=3873996MUTQRXa5mNB58PGEBqTDrg|52=20231227-09:49:41.827|56=cServer|57=QUOTE|10=000|8=FIX.4.4|9=114|35=0|34=218|49=demo.ctrader.3873996|50=3873996MUTQRXa5mNB58PGEBqTDrg|52=20231227-09:50:11.903|56=cServer|57=QUOTE|10=241|8=FIX.4.4|9=114|35=0|34=219|49=demo.ctrader.3873996|50=3873996MUTQRXa5mNB58PGEBqTDrg|52=20231227-09:50:41.905|56=cServer|57=QUOTE|10=247|8=FIX.4.4|9=114|35=0|34=220|49=demo.ctrader.3873996|50=3873996MUTQRXa5mNB58PGEBqTDrg|52=20231227-09:51:11.919|56=cServer|57=QUOTE|10=242|8=FIX.4.4|9=114|35=0|34=221|49=demo.ctrader.3873996|50=3873996MUTQRXa5mNB58PGEBqTDrg|52=20231227-09:51:41.994|56=cServer|57=QUOTE|10=249|8=FIX.4.4|9=114|35=0|34=222|49=demo.ctrader.3873996|50=3873996MUTQRXa5mNB58PGEBqTDrg|52=20231227-09:52:12.024|56=cServer|57=QUOTE|10=233|8=FIX.4.4|9=114|35=0|34=223|49=demo.ctrader.3873996|50=3873996MUTQRXa5mNB58PGEBqTDrg|52=20231227-09:52:42.193|56=cServer|57=QUOTE|10=244|8=FIX.4.4|9=114|35=0|34=224|49=demo.ctrader.3873996|50=3873996MUTQRXa5mNB58PGEBqTDrg|52=20231227-09:53:12.195|56=cServer|57=QUOTE|10=245|8=FIX.4.4|9=114|35=0|34=225|49=demo.ctrader.3873996|50=3873996MUTQRXa5mNB58PGEBqTDrg|52=20231227-09:53:42.233|56=cServer|57=QUOTE|10=242|8=FIX.4.4|9=114|35=0|34=226|49=demo.ctrader.3873996|50=3873996MUTQRXa5mNB58PGEBqTDrg|52=20231227-09:54:12.254|56=cServer|57=QUOTE|10=244|8=FIX.4.4|9=114|35=0|34=227|49=demo.ctrader.3873996|50=3873996MUTQRXa5mNB58PGEBqTDrg|52=20231227-09:54:43.203|56=cServer|57=QUOTE|10=243|8=FIX.4.4|9=114|35=0|34=228|49=demo.ctrader.3873996|50=3873996MUTQRXa5mNB58PGEBqTDrg|52=20231227-09:55:13.217|56=cServer|57=QUOTE|10=247|8=FIX.4.4|9=114|35=0|34=229|49=demo.ctrader.3873996|50=3873996MUTQRXa5mNB58PGEBqTDrg|52=20231227-09:55:43.519|56=cServer|57=QUOTE|10=000|8=FIX.4.4|9=114|35=0|34=230|49=demo.ctrader.3873996|50=3873996MUTQRXa5mNB58PGEBqTDrg|52=20231227-09:56:13.521|56=cServer|57=QUOTE|10=239|8=FIX.4.4|9=114|35=0|34=231|49=demo.ctrader.3873996|50=3873996MUTQRXa5mNB58PGEBqTDrg|52=20231227-09:56:43.561|56=cServer|57=QUOTE|10=247|8=FIX.4.4|9=114|35=0|34=232|49=demo.ctrader.3873996|50=3873996MUTQRXa5mNB58PGEBqTDrg|52=20231227-09:57:13.639|56=cServer|57=QUOTE|10=252|8=FIX.4.4|9=114|35=0|34=233|49=demo.ctrader.3873996|50=3873996MUTQRXa5mNB58PGEBqTDrg|52=20231227-09:57:43.778|56=cServer|57=QUOTE|10=004|8=FIX.4.4|9=114|35=0|34=234|49=demo.ctrader.3873996|50=3873996MUTQRXa5mNB58PGEBqTDrg|52=20231227-09:58:13.783|56=cServer|57=QUOTE|10=255|8=FIX.4.4|9=114|35=0|34=235|49=demo.ctrader.3873996|50=3873996MUTQRXa5mNB58PGEBqTDrg|52=20231227-09:58:43.786|56=cServer|57=QUOTE|10=006|8=FIX.4.4|9=114|35=0|34=236|49=demo.ctrader.3873996|50=3873996MUTQRXa5mNB58PGEBqTDrg|52=20231227-09:59:13.915|56=cServer|57=QUOTE|10=255|8=FIX.4.4|9=114|35=0|34=237|49=demo.ctrader.3873996|50=3873996MUTQRXa5mNB58PGEBqTDrg|52=20231227-09:59:43.916|56=cServer|57=QUOTE|10=004|8=FIX.4.4|9=114|35=0|34=238|49=demo.ctrader.3873996|50=3873996MUTQRXa5mNB58PGEBqTDrg|52=20231227-10:00:14.141|56=cServer|57=QUOTE|10=227|8=FIX.4.4|9=114|35=0|34=239|49=demo.ctrader.3873996|50=3873996MUTQRXa5mNB58PGEBqTDrg|52=20231227-10:00:44.369|56=cServer|57=QUOTE|10=243|8=FIX.4.4|9=114|35=0|34=240|49=demo.ctrader.3873996|50=3873996MUTQRXa5mNB58PGEBqTDrg|52=20231227-10:01:14.382|56=cServer|57=QUOTE|10=228|8=FIX.4.4|9=114|35=0|34=241|49=demo.ctrader.3873996|50=3873996MUTQRXa5mNB58PGEBqTDrg|52=20231227-10:01:44.398|56=cServer|57=QUOTE|10=239|8=FIX.4.4|9=114|35=0|34=242|49=demo.ctrader.3873996|50=3873996MUTQRXa5mNB58PGEBqTDrg|52=20231227-10:02:14.479|56=cServer|57=QUOTE|10=238|8=FIX.4.4|9=114|35=0|34=243|49=demo.ctrader.3873996|50=3873996MUTQRXa5mNB58PGEBqTDrg|52=20231227-10:02:44.586|56=cServer|57=QUOTE|10=241|8=FIX.4.4|9=114|35=0|34=244|49=demo.ctrader.3873996|50=3873996MUTQRXa5mNB58PGEBqTDrg|52=20231227-10:03:14.707|56=cServer|57=QUOTE|10=235|8=FIX.4.4|9=114|35=0|34=245|49=demo.ctrader.3873996|50=3873996MUTQRXa5mNB58PGEBqTDrg|52=20231227-10:03:44.802|56=cServer|57=QUOTE|10=235|8=FIX.4.4|9=114|35=0|34=246|49=demo.ctrader.3873996|50=3873996MUTQRXa5mNB58PGEBqTDrg|52=20231227-10:04:14.853|56=cServer|57=QUOTE|10=240|8=FIX.4.4|9=114|35=0|34=247|49=demo.ctrader.3873996|50=3873996MUTQRXa5mNB58PGEBqTDrg|52=20231227-10:04:44.885|56=cServer|57=QUOTE|10=249|8=FIX.4.4|9=114|35=0|34=248|49=demo.ctrader.3873996|50=3873996MUTQRXa5mNB58PGEBqTDrg|52=20231227-10:05:14.886|56=cServer|57=QUOTE|10=249|8=FIX.4.4|9=114|35=0|34=249|49=demo.ctrader.3873996|50=3873996MUTQRXa5mNB58PGEBqTDrg|52=20231227-10:05:45.261|56=cServer|57=QUOTE|10=241|8=FIX.4.4|9=114|35=0|34=250|49=demo.ctrader.3873996|50=3873996MUTQRXa5mNB58PGEBqTDrg|52=20231227-10:06:15.292|56=cServer|57=QUOTE|10=235|8=FIX.4.4|9=114|35=0|34=251|49=demo.ctrader.3873996|50=3873996MUTQRXa5mNB58PGEBqTDrg|52=20231227-10:06:45.367|56=cServer|57=QUOTE|10=242|8=FIX.4.4|9=114|35=0|34=252|49=demo.ctrader.3873996|50=3873996MUTQRXa5mNB58PGEBqTDrg|52=20231227-10:07:15.503|56=cServer|57=QUOTE|10=233|8=FIX.4.4|9=114|35=0|34=253|49=demo.ctrader.3873996|50=3873996MUTQRXa5mNB58PGEBqTDrg|52=20231227-10:07:45.519|56=cServer|57=QUOTE|10=244|8=FIX.4.4|9=114|35=0|34=254|49=demo.ctrader.3873996|50=3873996MUTQRXa5mNB58PGEBqTDrg|52=20231227-10:08:15.607|56=cServer|57=QUOTE|10=241|8=FIX.4.4|9=114|35=0|34=255|49=demo.ctrader.3873996|50=3873996MUTQRXa5mNB58PGEBqTDrg|52=20231227-10:08:45.615|56=cServer|57=QUOTE|10=244|8=FIX.4.4|9=114|35=0|34=256|49=demo.ctrader.3873996|50=3873996MUTQRXa5mNB58PGEBqTDrg|52=20231227-10:09:15.677|56=cServer|57=QUOTE|10=251|8=FIX.4.4|9=114|35=0|34=257|49=demo.ctrader.3873996|50=3873996MUTQRXa5mNB58PGEBqTDrg|52=20231227-10:09:45.685|56=cServer|57=QUOTE|10=254|8=FIX.4.4|9=114|35=0|34=258|49=demo.ctrader.3873996|50=3873996MUTQRXa5mNB58PGEBqTDrg|52=20231227-10:10:15.736|56=cServer|57=QUOTE|10=241|8=FIX.4.4|9=114|35=0|34=259|49=demo.ctrader.3873996|50=3873996MUTQRXa5mNB58PGEBqTDrg|52=20231227-10:10:45.918|56=cServer|57=QUOTE|10=247|8=FIX.4.4|9=114|35=0|34=260|49=demo.ctrader.3873996|50=3873996MUTQRXa5mNB58PGEBqTDrg|52=20231227-10:11:15.934|56=cServer|57=QUOTE|10=235|8=FIX.4.4|9=114|35=0|34=261|49=demo.ctrader.3873996|50=3873996MUTQRXa5mNB58PGEBqTDrg|52=20231227-10:11:45.980|56=cServer|57=QUOTE|10=240|8=FIX.4.4|9=114|35=0|34=262|49=demo.ctrader.3873996|50=3873996MUTQRXa5mNB58PGEBqTDrg|52=20231227-10:12:16.053|56=cServer|57=QUOTE|10=231|8=FIX.4.4|9=114|35=0|34=263|49=demo.ctrader.3873996|50=3873996MUTQRXa5mNB58PGEBqTDrg|52=20231227-10:12:46.138|56=cServer|57=QUOTE|10=239|8=FIX.4.4|9=114|35=0|34=264|49=demo.ctrader.3873996|50=3873996MUTQRXa5mNB58PGEBqTDrg|52=20231227-10:13:16.435|56=cServer|57=QUOTE|10=238|8=FIX.4.4|9=114|35=0|34=265|49=demo.ctrader.3873996|50=3873996MUTQRXa5mNB58PGEBqTDrg|52=20231227-10:13:46.436|56=cServer|57=QUOTE|10=243|8=FIX.4.4|9=114|35=0|34=266|49=demo.ctrader.3873996|50=3873996MUTQRXa5mNB58PGEBqTDrg|52=20231227-10:14:16.516|56=cServer|57=QUOTE|10=241|8=FIX.4.4|9=114|35=0|34=267|49=demo.ctrader.3873996|50=3873996MUTQRXa5mNB58PGEBqTDrg|52=20231227-10:14:46.621|56=cServer|57=QUOTE|10=242|8=FIX.4.4|9=114|35=0|34=268|49=demo.ctrader.3873996|50=3873996MUTQRXa5mNB58PGEBqTDrg|52=20231227-10:15:16.678|56=cServer|57=QUOTE|10=253|8=FIX.4.4|9=114|35=0|34=269|49=demo.ctrader.3873996|50=3873996MUTQRXa5mNB58PGEBqTDrg|52=20231227-10:15:46.883|56=cServer|57=QUOTE|10=255|8=FIX.4.4|9=114|35=0|34=270|49=demo.ctrader.3873996|50=3873996MUTQRXa5mNB58PGEBqTDrg|52=20231227-10:16:16.967|56=cServer|57=QUOTE|10=248|8=FIX.4.4|9=114|35=0|34=271|49=demo.ctrader.3873996|50=3873996MUTQRXa5mNB58PGEBqTDrg|52=20231227-10:16:47.093|56=cServer|57=QUOTE|10=243|8=FIX.4.4|9=114|35=0|34=272|49=demo.ctrader.3873996|50=3873996MUTQRXa5mNB58PGEBqTDrg|52=20231227-10:17:17.094|56=cServer|57=QUOTE|10=243|