8=FIX.4.4|9=244|35=A|34=1|49=demo.ctrader.3873996|50=3873996VNnGBflCDLuohlPjfVqZ_A|52=20231213-08:23:36.517|56=cServer|57=TRADE|49=demo.ctrader.3873996|50=3873996VNnGBflCDLuohlPjfVqZ_A|52=20231213-08:23:36|56=cServer|98=0|108=30|141=Y|553=3873996|554=Gtlfx125|10=019|8=FIX.4.4|9=112|35=0|34=2|49=demo.ctrader.3873996|50=3873996VNnGBflCDLuohlPjfVqZ_A|52=20231213-08:24:06.640|56=cServer|57=TRADE|10=077|