8=FIX.4.4|9=244|35=A|34=1|49=demo.ctrader.3873996|50=3873996U4k1Z2qyvEaoGSgETC7W_g|52=20240104-09:49:30.307|56=cServer|57=QUOTE|49=demo.ctrader.3873996|50=3873996U4k1Z2qyvEaoGSgETC7W_g|52=20240104-09:49:30|56=cServer|98=0|108=30|141=Y|553=3873996|554=Gtlfx125|10=046|8=FIX.4.4|9=170|35=V|34=2|49=demo.ctrader.3873996|50=3873996U4k1Z2qyvEaoGSgETC7W_g|52=20240104-09:49:31.236|56=cServer|57=QUOTE|262=MARKETDATAID|263=1|264=1|267=2|269=0|269=1|146=1|55=1|10=130|8=FIX.4.4|9=170|35=V|34=3|49=demo.ctrader.3873996|50=3873996U4k1Z2qyvEaoGSgETC7W_g|52=20240104-09:49:31.237|56=cServer|57=QUOTE|262=MARKETDATAID|263=1|264=1|267=2|269=0|269=1|146=1|55=2|10=133|8=FIX.4.4|9=170|35=V|34=4|49=demo.ctrader.3873996|50=3873996U4k1Z2qyvEaoGSgETC7W_g|52=20240104-09:49:31.238|56=cServer|57=QUOTE|262=MARKETDATAID|263=1|264=1|267=2|269=0|269=1|146=1|55=3|10=136|8=FIX.4.4|9=170|35=V|34=5|49=demo.ctrader.3873996|50=3873996U4k1Z2qyvEaoGSgETC7W_g|52=20240104-09:49:31.238|56=cServer|57=QUOTE|262=MARKETDATAID|263=1|264=1|267=2|269=0|269=1|146=1|55=4|10=138|8=FIX.4.4|9=170|35=V|34=6|49=demo.ctrader.3873996|50=3873996U4k1Z2qyvEaoGSgETC7W_g|52=20240104-09:49:31.238|56=cServer|57=QUOTE|262=MARKETDATAID|263=1|264=1|267=2|269=0|269=1|146=1|55=5|10=140|8=FIX.4.4|9=170|35=V|34=7|49=demo.ctrader.3873996|50=3873996U4k1Z2qyvEaoGSgETC7W_g|52=20240104-09:49:31.238|56=cServer|57=QUOTE|262=MARKETDATAID|263=1|264=1|267=2|269=0|269=1|146=1|55=6|10=142|8=FIX.4.4|9=170|35=V|34=8|49=demo.ctrader.3873996|50=3873996U4k1Z2qyvEaoGSgETC7W_g|52=20240104-09:49:31.239|56=cServer|57=QUOTE|262=MARKETDATAID|263=1|264=1|267=2|269=0|269=1|146=1|55=7|10=145|8=FIX.4.4|9=170|35=V|34=9|49=demo.ctrader.3873996|50=3873996U4k1Z2qyvEaoGSgETC7W_g|52=20240104-09:49:31.239|56=cServer|57=QUOTE|262=MARKETDATAID|263=1|264=1|267=2|269=0|269=1|146=1|55=8|10=147|8=FIX.4.4|9=171|35=V|34=10|49=demo.ctrader.3873996|50=3873996U4k1Z2qyvEaoGSgETC7W_g|52=20240104-09:49:31.239|56=cServer|57=QUOTE|262=MARKETDATAID|263=1|264=1|267=2|269=0|269=1|146=1|55=9|10=189|8=FIX.4.4|9=172|35=V|34=11|49=demo.ctrader.3873996|50=3873996U4k1Z2qyvEaoGSgETC7W_g|52=20240104-09:49:31.239|56=cServer|57=QUOTE|262=MARKETDATAID|263=1|264=1|267=2|269=0|269=1|146=1|55=10|10=231|8=FIX.4.4|9=172|35=V|34=12|49=demo.ctrader.3873996|50=3873996U4k1Z2qyvEaoGSgETC7W_g|52=20240104-09:49:31.239|56=cServer|57=QUOTE|262=MARKETDATAID|263=1|264=1|267=2|269=0|269=1|146=1|55=11|10=233|8=FIX.4.4|9=172|35=V|34=13|49=demo.ctrader.3873996|50=3873996U4k1Z2qyvEaoGSgETC7W_g|52=20240104-09:49:31.239|56=cServer|57=QUOTE|262=MARKETDATAID|263=1|264=1|267=2|269=0|269=1|146=1|55=12|10=235|8=FIX.4.4|9=172|35=V|34=14|49=demo.ctrader.3873996|50=3873996U4k1Z2qyvEaoGSgETC7W_g|52=20240104-09:49:31.240|56=cServer|57=QUOTE|262=MARKETDATAID|263=1|264=1|267=2|269=0|269=1|146=1|55=13|10=229|8=FIX.4.4|9=172|35=V|34=15|49=demo.ctrader.3873996|50=3873996U4k1Z2qyvEaoGSgETC7W_g|52=20240104-09:49:31.240|56=cServer|57=QUOTE|262=MARKETDATAID|263=1|264=1|267=2|269=0|269=1|146=1|55=14|10=231|8=FIX.4.4|9=172|35=V|34=16|49=demo.ctrader.3873996|50=3873996U4k1Z2qyvEaoGSgETC7W_g|52=20240104-09:49:31.240|56=cServer|57=QUOTE|262=MARKETDATAID|263=1|264=1|267=2|269=0|269=1|146=1|55=15|10=233|8=FIX.4.4|9=172|35=V|34=17|49=demo.ctrader.3873996|50=3873996U4k1Z2qyvEaoGSgETC7W_g|52=20240104-09:49:31.240|56=cServer|57=QUOTE|262=MARKETDATAID|263=1|264=1|267=2|269=0|269=1|146=1|55=16|10=235|8=FIX.4.4|9=172|35=V|34=18|49=demo.ctrader.3873996|50=3873996U4k1Z2qyvEaoGSgETC7W_g|52=20240104-09:49:31.240|56=cServer|57=QUOTE|262=MARKETDATAID|263=1|264=1|267=2|269=0|269=1|146=1|55=17|10=237|8=FIX.4.4|9=172|35=V|34=19|49=demo.ctrader.3873996|50=3873996U4k1Z2qyvEaoGSgETC7W_g|52=20240104-09:49:31.240|56=cServer|57=QUOTE|262=MARKETDATAID|263=1|264=1|267=2|269=0|269=1|146=1|55=18|10=239|8=FIX.4.4|9=172|35=V|34=20|49=demo.ctrader.3873996|50=3873996U4k1Z2qyvEaoGSgETC7W_g|52=20240104-09:49:31.240|56=cServer|57=QUOTE|262=MARKETDATAID|263=1|264=1|267=2|269=0|269=1|146=1|55=19|10=232|8=FIX.4.4|9=172|35=V|34=21|49=demo.ctrader.3873996|50=3873996U4k1Z2qyvEaoGSgETC7W_g|52=20240104-09:49:31.241|56=cServer|57=QUOTE|262=MARKETDATAID|263=1|264=1|267=2|269=0|269=1|146=1|55=22|10=228|8=FIX.4.4|9=113|35=0|34=22|49=demo.ctrader.3873996|50=3873996U4k1Z2qyvEaoGSgETC7W_g|52=20240104-09:50:01.249|56=cServer|57=QUOTE|10=027|8=FIX.4.4|9=113|35=0|34=23|49=demo.ctrader.3873996|50=3873996U4k1Z2qyvEaoGSgETC7W_g|52=20240104-09:50:31.347|56=cServer|57=QUOTE|10=030|