8=FIX.4.4|9=244|35=A|34=1|49=demo.ctrader.3873996|50=3873996WHSeQLyZefh9X7uUgfn7ew|52=20231226-08:00:54.127|56=cServer|57=QUOTE|49=demo.ctrader.3873996|50=3873996WHSeQLyZefh9X7uUgfn7ew|52=20231226-08:00:54|56=cServer|98=0|108=30|141=Y|553=3873996|554=Gtlfx125|10=046|8=FIX.4.4|9=170|35=V|34=2|49=demo.ctrader.3873996|50=3873996WHSeQLyZefh9X7uUgfn7ew|52=20231226-08:00:55.143|56=cServer|57=QUOTE|262=MARKETDATAID|263=1|264=1|267=2|269=0|269=1|146=1|55=1|10=255|8=FIX.4.4|9=170|35=V|34=3|49=demo.ctrader.3873996|50=3873996WHSeQLyZefh9X7uUgfn7ew|52=20231226-08:00:55.144|56=cServer|57=QUOTE|262=MARKETDATAID|263=1|264=1|267=2|269=0|269=1|146=1|55=2|10=002|8=FIX.4.4|9=170|35=V|34=4|49=demo.ctrader.3873996|50=3873996WHSeQLyZefh9X7uUgfn7ew|52=20231226-08:00:55.145|56=cServer|57=QUOTE|262=MARKETDATAID|263=1|264=1|267=2|269=0|269=1|146=1|55=3|10=005|8=FIX.4.4|9=170|35=V|34=5|49=demo.ctrader.3873996|50=3873996WHSeQLyZefh9X7uUgfn7ew|52=20231226-08:00:55.145|56=cServer|57=QUOTE|262=MARKETDATAID|263=1|264=1|267=2|269=0|269=1|146=1|55=4|10=007|8=FIX.4.4|9=170|35=V|34=6|49=demo.ctrader.3873996|50=3873996WHSeQLyZefh9X7uUgfn7ew|52=20231226-08:00:55.145|56=cServer|57=QUOTE|262=MARKETDATAID|263=1|264=1|267=2|269=0|269=1|146=1|55=5|10=009|8=FIX.4.4|9=170|35=V|34=7|49=demo.ctrader.3873996|50=3873996WHSeQLyZefh9X7uUgfn7ew|52=20231226-08:00:55.146|56=cServer|57=QUOTE|262=MARKETDATAID|263=1|264=1|267=2|269=0|269=1|146=1|55=6|10=012|8=FIX.4.4|9=170|35=V|34=8|49=demo.ctrader.3873996|50=3873996WHSeQLyZefh9X7uUgfn7ew|52=20231226-08:00:55.146|56=cServer|57=QUOTE|262=MARKETDATAID|263=1|264=1|267=2|269=0|269=1|146=1|55=7|10=014|8=FIX.4.4|9=170|35=V|34=9|49=demo.ctrader.3873996|50=3873996WHSeQLyZefh9X7uUgfn7ew|52=20231226-08:00:55.146|56=cServer|57=QUOTE|262=MARKETDATAID|263=1|264=1|267=2|269=0|269=1|146=1|55=8|10=016|8=FIX.4.4|9=171|35=V|34=10|49=demo.ctrader.3873996|50=3873996WHSeQLyZefh9X7uUgfn7ew|52=20231226-08:00:55.146|56=cServer|57=QUOTE|262=MARKETDATAID|263=1|264=1|267=2|269=0|269=1|146=1|55=9|10=058|8=FIX.4.4|9=172|35=V|34=11|49=demo.ctrader.3873996|50=3873996WHSeQLyZefh9X7uUgfn7ew|52=20231226-08:00:55.146|56=cServer|57=QUOTE|262=MARKETDATAID|263=1|264=1|267=2|269=0|269=1|146=1|55=10|10=100|8=FIX.4.4|9=172|35=V|34=12|49=demo.ctrader.3873996|50=3873996WHSeQLyZefh9X7uUgfn7ew|52=20231226-08:00:55.146|56=cServer|57=QUOTE|262=MARKETDATAID|263=1|264=1|267=2|269=0|269=1|146=1|55=11|10=102|8=FIX.4.4|9=172|35=V|34=13|49=demo.ctrader.3873996|50=3873996WHSeQLyZefh9X7uUgfn7ew|52=20231226-08:00:55.147|56=cServer|57=QUOTE|262=MARKETDATAID|263=1|264=1|267=2|269=0|269=1|146=1|55=12|10=105|8=FIX.4.4|9=172|35=V|34=14|49=demo.ctrader.3873996|50=3873996WHSeQLyZefh9X7uUgfn7ew|52=20231226-08:00:55.147|56=cServer|57=QUOTE|262=MARKETDATAID|263=1|264=1|267=2|269=0|269=1|146=1|55=13|10=107|8=FIX.4.4|9=172|35=V|34=15|49=demo.ctrader.3873996|50=3873996WHSeQLyZefh9X7uUgfn7ew|52=20231226-08:00:55.147|56=cServer|57=QUOTE|262=MARKETDATAID|263=1|264=1|267=2|269=0|269=1|146=1|55=14|10=109|8=FIX.4.4|9=172|35=V|34=16|49=demo.ctrader.3873996|50=3873996WHSeQLyZefh9X7uUgfn7ew|52=20231226-08:00:55.147|56=cServer|57=QUOTE|262=MARKETDATAID|263=1|264=1|267=2|269=0|269=1|146=1|55=15|10=111|8=FIX.4.4|9=172|35=V|34=17|49=demo.ctrader.3873996|50=3873996WHSeQLyZefh9X7uUgfn7ew|52=20231226-08:00:55.147|56=cServer|57=QUOTE|262=MARKETDATAID|263=1|264=1|267=2|269=0|269=1|146=1|55=16|10=113|8=FIX.4.4|9=172|35=V|34=18|49=demo.ctrader.3873996|50=3873996WHSeQLyZefh9X7uUgfn7ew|52=20231226-08:00:55.147|56=cServer|57=QUOTE|262=MARKETDATAID|263=1|264=1|267=2|269=0|269=1|146=1|55=17|10=115|8=FIX.4.4|9=172|35=V|34=19|49=demo.ctrader.3873996|50=3873996WHSeQLyZefh9X7uUgfn7ew|52=20231226-08:00:55.147|56=cServer|57=QUOTE|262=MARKETDATAID|263=1|264=1|267=2|269=0|269=1|146=1|55=18|10=117|8=FIX.4.4|9=172|35=V|34=20|49=demo.ctrader.3873996|50=3873996WHSeQLyZefh9X7uUgfn7ew|52=20231226-08:00:55.148|56=cServer|57=QUOTE|262=MARKETDATAID|263=1|264=1|267=2|269=0|269=1|146=1|55=19|10=111|8=FIX.4.4|9=172|35=V|34=21|49=demo.ctrader.3873996|50=3873996WHSeQLyZefh9X7uUgfn7ew|52=20231226-08:00:55.148|56=cServer|57=QUOTE|262=MARKETDATAID|263=1|264=1|267=2|269=0|269=1|146=1|55=22|10=106|8=FIX.4.4|9=113|35=0|34=22|49=demo.ctrader.3873996|50=3873996WHSeQLyZefh9X7uUgfn7ew|52=20231226-08:01:25.243|56=cServer|57=QUOTE|10=158|8=FIX.4.4|9=113|35=0|34=23|49=demo.ctrader.3873996|50=3873996WHSeQLyZefh9X7uUgfn7ew|52=20231226-08:01:55.257|56=cServer|57=QUOTE|10=167|