8=FIX.4.4|9=244|35=A|34=1|49=demo.ctrader.3873996|50=38739962p9cU7O3YXoF7yLJI1fm1w|52=20231226-11:57:05.347|56=cServer|57=QUOTE|49=demo.ctrader.3873996|50=38739962p9cU7O3YXoF7yLJI1fm1w|52=20231226-11:57:05|56=cServer|98=0|108=30|141=Y|553=3873996|554=Gtlfx125|10=092|8=FIX.4.4|9=112|35=0|34=2|49=demo.ctrader.3873996|50=38739962p9cU7O3YXoF7yLJI1fm1w|52=20231226-11:57:35.537|56=cServer|57=QUOTE|10=138|8=FIX.4.4|9=121|35=1|34=3|49=demo.ctrader.3873996|50=38739962p9cU7O3YXoF7yLJI1fm1w|52=20231226-11:57:48.619|56=cServer|57=QUOTE|112=TEST|10=163|8=FIX.4.4|9=112|35=0|34=4|49=demo.ctrader.3873996|50=38739962p9cU7O3YXoF7yLJI1fm1w|52=20231226-11:58:18.967|56=cServer|57=QUOTE|10=149|8=FIX.4.4|9=112|35=0|34=5|49=demo.ctrader.3873996|50=38739962p9cU7O3YXoF7yLJI1fm1w|52=20231226-11:58:49.642|56=cServer|57=QUOTE|10=144|8=FIX.4.4|9=112|35=0|34=6|49=demo.ctrader.3873996|50=38739962p9cU7O3YXoF7yLJI1fm1w|52=20231226-11:59:19.722|56=cServer|57=QUOTE|10=142|8=FIX.4.4|9=112|35=0|34=7|49=demo.ctrader.3873996|50=38739962p9cU7O3YXoF7yLJI1fm1w|52=20231226-11:59:50.710|56=cServer|57=QUOTE|10=135|8=FIX.4.4|9=112|35=0|34=8|49=demo.ctrader.3873996|50=38739962p9cU7O3YXoF7yLJI1fm1w|52=20231226-12:00:21.710|56=cServer|57=QUOTE|10=121|8=FIX.4.4|9=112|35=0|34=9|49=demo.ctrader.3873996|50=38739962p9cU7O3YXoF7yLJI1fm1w|52=20231226-12:00:51.738|56=cServer|57=QUOTE|10=135|8=FIX.4.4|9=113|35=0|34=10|49=demo.ctrader.3873996|50=38739962p9cU7O3YXoF7yLJI1fm1w|52=20231226-12:01:22.725|56=cServer|57=QUOTE|10=171|8=FIX.4.4|9=113|35=0|34=11|49=demo.ctrader.3873996|50=38739962p9cU7O3YXoF7yLJI1fm1w|52=20231226-12:01:53.728|56=cServer|57=QUOTE|10=179|8=FIX.4.4|9=113|35=0|34=12|49=demo.ctrader.3873996|50=38739962p9cU7O3YXoF7yLJI1fm1w|52=20231226-12:02:24.716|56=cServer|57=QUOTE|10=176|8=FIX.4.4|9=113|35=0|34=13|49=demo.ctrader.3873996|50=38739962p9cU7O3YXoF7yLJI1fm1w|52=20231226-12:02:54.725|56=cServer|57=QUOTE|10=180|8=FIX.4.4|9=113|35=0|34=14|49=demo.ctrader.3873996|50=38739962p9cU7O3YXoF7yLJI1fm1w|52=20231226-12:03:24.734|56=cServer|57=QUOTE|10=179|8=FIX.4.4|9=113|35=0|34=15|49=demo.ctrader.3873996|50=38739962p9cU7O3YXoF7yLJI1fm1w|52=20231226-12:03:55.739|56=cServer|57=QUOTE|10=189|8=FIX.4.4|9=113|35=0|34=16|49=demo.ctrader.3873996|50=38739962p9cU7O3YXoF7yLJI1fm1w|52=20231226-12:04:26.736|56=cServer|57=QUOTE|10=186|8=FIX.4.4|9=113|35=0|34=17|49=demo.ctrader.3873996|50=38739962p9cU7O3YXoF7yLJI1fm1w|52=20231226-12:04:56.753|56=cServer|57=QUOTE|10=189|8=FIX.4.4|9=113|35=0|34=18|49=demo.ctrader.3873996|50=38739962p9cU7O3YXoF7yLJI1fm1w|52=20231226-12:05:27.754|56=cServer|57=QUOTE|10=190|8=FIX.4.4|9=113|35=0|34=19|49=demo.ctrader.3873996|50=38739962p9cU7O3YXoF7yLJI1fm1w|52=20231226-12:05:58.735|56=cServer|57=QUOTE|10=194|8=FIX.4.4|9=113|35=0|34=20|49=demo.ctrader.3873996|50=38739962p9cU7O3YXoF7yLJI1fm1w|52=20231226-12:06:28.777|56=cServer|57=QUOTE|10=190|8=FIX.4.4|9=113|35=0|34=21|49=demo.ctrader.3873996|50=38739962p9cU7O3YXoF7yLJI1fm1w|52=20231226-12:06:58.855|56=cServer|57=QUOTE|10=191|8=FIX.4.4|9=113|35=0|34=22|49=demo.ctrader.3873996|50=38739962p9cU7O3YXoF7yLJI1fm1w|52=20231226-12:07:29.842|56=cServer|57=QUOTE|10=187|8=FIX.4.4|9=113|35=0|34=23|49=demo.ctrader.3873996|50=38739962p9cU7O3YXoF7yLJI1fm1w|52=20231226-12:08:00.832|56=cServer|57=QUOTE|10=177|8=FIX.4.4|9=113|35=0|34=24|49=demo.ctrader.3873996|50=38739962p9cU7O3YXoF7yLJI1fm1w|52=20231226-12:08:30.900|56=cServer|57=QUOTE|10=177|8=FIX.4.4|9=113|35=0|34=25|49=demo.ctrader.3873996|50=38739962p9cU7O3YXoF7yLJI1fm1w|52=20231226-12:09:01.815|56=cServer|57=QUOTE|10=182|8=FIX.4.4|9=113|35=0|34=26|49=demo.ctrader.3873996|50=38739962p9cU7O3YXoF7yLJI1fm1w|52=20231226-12:09:31.820|56=cServer|57=QUOTE|10=182|8=FIX.4.4|9=113|35=0|34=27|49=demo.ctrader.3873996|50=38739962p9cU7O3YXoF7yLJI1fm1w|52=20231226-12:10:02.798|56=cServer|57=QUOTE|10=187|8=FIX.4.4|9=113|35=0|34=28|49=demo.ctrader.3873996|50=38739962p9cU7O3YXoF7yLJI1fm1w|52=20231226-12:10:32.844|56=cServer|57=QUOTE|10=183|8=FIX.4.4|9=113|35=0|34=29|49=demo.ctrader.3873996|50=38739962p9cU7O3YXoF7yLJI1fm1w|52=20231226-12:11:03.809|56=cServer|57=QUOTE|10=184|8=FIX.4.4|9=113|35=0|34=30|49=demo.ctrader.3873996|50=38739962p9cU7O3YXoF7yLJI1fm1w|52=20231226-12:11:33.838|56=cServer|57=QUOTE|10=181|8=FIX.4.4|9=113|35=0|34=31|49=demo.ctrader.3873996|50=38739962p9cU7O3YXoF7yLJI1fm1w|52=20231226-12:12:03.838|56=cServer|57=QUOTE|10=180|8=FIX.4.4|9=113|35=0|34=32|49=demo.ctrader.3873996|50=38739962p9cU7O3YXoF7yLJI1fm1w|52=20231226-12:12:34.813|56=cServer|57=QUOTE|10=178|8=FIX.4.4|9=113|35=0|34=33|49=demo.ctrader.3873996|50=38739962p9cU7O3YXoF7yLJI1fm1w|52=20231226-12:13:04.820|56=cServer|57=QUOTE|10=175|8=FIX.4.4|9=113|35=0|34=34|49=demo.ctrader.3873996|50=38739962p9cU7O3YXoF7yLJI1fm1w|52=20231226-12:13:34.835|56=cServer|57=QUOTE|10=185|8=FIX.4.4|9=113|35=0|34=35|49=demo.ctrader.3873996|50=38739962p9cU7O3YXoF7yLJI1fm1w|52=20231226-12:14:05.824|56=cServer|57=QUOTE|10=183|8=FIX.4.4|9=113|35=0|34=36|49=demo.ctrader.3873996|50=38739962p9cU7O3YXoF7yLJI1fm1w|52=20231226-12:14:35.858|56=cServer|57=QUOTE|10=194|8=FIX.4.4|9=113|35=0|34=37|49=demo.ctrader.3873996|50=38739962p9cU7O3YXoF7yLJI1fm1w|52=20231226-12:15:06.842|56=cServer|57=QUOTE|10=187|8=FIX.4.4|9=113|35=0|34=38|49=demo.ctrader.3873996|50=38739962p9cU7O3YXoF7yLJI1fm1w|52=20231226-12:15:36.869|56=cServer|57=QUOTE|10=200|8=FIX.4.4|9=113|35=0|34=39|49=demo.ctrader.3873996|50=38739962p9cU7O3YXoF7yLJI1fm1w|52=20231226-12:16:07.831|56=cServer|57=QUOTE|10=189|8=FIX.4.4|9=113|35=0|34=40|49=demo.ctrader.3873996|50=38739962p9cU7O3YXoF7yLJI1fm1w|52=20231226-12:16:37.852|56=cServer|57=QUOTE|10=187|8=FIX.4.4|9=113|35=0|34=41|49=demo.ctrader.3873996|50=38739962p9cU7O3YXoF7yLJI1fm1w|52=20231226-12:17:08.862|56=cServer|57=QUOTE|10=188|8=FIX.4.4|9=113|35=0|34=42|49=demo.ctrader.3873996|50=38739962p9cU7O3YXoF7yLJI1fm1w|52=20231226-12:17:38.883|56=cServer|57=QUOTE|10=195|8=FIX.4.4|9=113|35=0|34=43|49=demo.ctrader.3873996|50=38739962p9cU7O3YXoF7yLJI1fm1w|52=20231226-12:18:09.893|56=cServer|57=QUOTE|10=196|8=FIX.4.4|9=113|35=0|34=44|49=demo.ctrader.3873996|50=38739962p9cU7O3YXoF7yLJI1fm1w|52=20231226-12:18:39.911|56=cServer|57=QUOTE|10=191|8=FIX.4.4|9=113|35=0|34=45|49=demo.ctrader.3873996|50=38739962p9cU7O3YXoF7yLJI1fm1w|52=20231226-12:19:10.877|56=cServer|57=QUOTE|10=193|8=FIX.4.4|9=113|35=0|34=46|49=demo.ctrader.3873996|50=38739962p9cU7O3YXoF7yLJI1fm1w|52=20231226-12:19:40.891|56=cServer|57=QUOTE|10=193|8=FIX.4.4|9=113|35=0|34=47|49=demo.ctrader.3873996|50=38739962p9cU7O3YXoF7yLJI1fm1w|52=20231226-12:20:11.895|56=cServer|57=QUOTE|10=188|8=FIX.4.4|9=113|35=0|34=48|49=demo.ctrader.3873996|50=38739962p9cU7O3YXoF7yLJI1fm1w|52=20231226-12:20:41.933|56=cServer|57=QUOTE|10=185|8=FIX.4.4|9=113|35=0|34=49|49=demo.ctrader.3873996|50=38739962p9cU7O3YXoF7yLJI1fm1w|52=20231226-12:21:12.922|56=cServer|57=QUOTE|10=183|8=FIX.4.4|9=113|35=0|34=50|49=demo.ctrader.3873996|50=38739962p9cU7O3YXoF7yLJI1fm1w|52=20231226-12:21:42.935|56=cServer|57=QUOTE|10=182|8=FIX.4.4|9=113|35=0|34=51|49=demo.ctrader.3873996|50=38739962p9cU7O3YXoF7yLJI1fm1w|52=20231226-12:22:13.915|56=cServer|57=QUOTE|10=180|8=FIX.4.4|9=113|35=0|34=52|49=demo.ctrader.3873996|50=38739962p9cU7O3YXoF7yLJI1fm1w|52=20231226-12:22:43.922|56=cServer|57=QUOTE|10=182|8=FIX.4.4|9=113|35=0|34=53|49=demo.ctrader.3873996|50=38739962p9cU7O3YXoF7yLJI1fm1w|52=20231226-12:23:14.915|56=cServer|57=QUOTE|10=184|8=FIX.4.4|9=113|35=0|34=54|49=demo.ctrader.3873996|50=38739962p9cU7O3YXoF7yLJI1fm1w|52=20231226-12:23:44.947|56=cServer|57=QUOTE|10=193|8=FIX.4.4|9=113|35=0|34=55|49=demo.ctrader.3873996|50=38739962p9cU7O3YXoF7yLJI1fm1w|52=20231226-12:24:15.918|56=cServer|57=QUOTE|10=191|8=FIX.4.4|9=113|35=0|34=56|49=demo.ctrader.3873996|50=38739962p9cU7O3YXoF7yLJI1fm1w|52=20231226-12:24:45.934|56=cServer|57=QUOTE|10=193|8=FIX.4.4|9=113|35=0|34=57|49=demo.ctrader.3873996|50=38739962p9cU7O3YXoF7yLJI1fm1w|52=20231226-12:25:16.926|56=cServer|57=QUOTE|10=194|8=FIX.4.4|9=113|35=0|34=58|49=demo.ctrader.3873996|50=38739962p9cU7O3YXoF7yLJI1fm1w|52=20231226-12:25:46.937|56=cServer|57=QUOTE|10=200|8=FIX.4.4|9=113|35=0|34=59|49=demo.ctrader.3873996|50=38739962p9cU7O3YXoF7yLJI1fm1w|52=20231226-12:26:17.850|56=cServer|57=QUOTE|10=194|8=FIX.4.4|9=113|35=0|34=60|49=demo.ctrader.3873996|50=38739962p9cU7O3YXoF7yLJI1fm1w|52=20231226-12:26:47.903|56=cServer|57=QUOTE|10=188|8=FIX.4.4|9=113|35=0|34=61|49=demo.ctrader.3873996|50=38739962p9cU7O3YXoF7yLJI1fm1w|52=20231226-12:27:18.790|56=cServer|57=QUOTE|10=192|8=FIX.4.4|9=113|35=0|34=62|49=demo.ctrader.3873996|50=38739962p9cU7O3YXoF7yLJI1fm1w|52=20231226-12:27:49.732|56=cServer|57=QUOTE|10=193|8=FIX.4.4|9=113|35=0|34=63|49=demo.ctrader.3873996|50=38739962p9cU7O3YXoF7yLJI1fm1w|52=20231226-12:28:20.712|56=cServer|57=QUOTE|10=182|8=FIX.4.4|9=113|35=0|34=64|49=demo.ctrader.3873996|50=38739962p9cU7O3YXoF7yLJI1fm1w|52=20231226-12:28:51.718|56=cServer|57=QUOTE|10=193|8=FIX.4.4|9=113|35=0|34=65|49=demo.ctrader.3873996|50=38739962p9cU7O3YXoF7yLJI1fm1w|52=20231226-12:29:22.726|56=cServer|57=QUOTE|10=192|8=FIX.4.4|9=113|35=0|34=66|49=demo.ctrader.3873996|50=38739962p9cU7O3YXoF7yLJI1fm1w|52=20231226-12:29:53.735|56=cServer|57=QUOTE|10=197|8=FIX.4.4|9=113|35=0|34=67|49=demo.ctrader.3873996|50=38739962p9cU7O3YXoF7yLJI1fm1w|52=20231226-12:30:23.747|56=cServer|57=QUOTE|10=190|8=FIX.4.4|9=113|35=0|34=68|49=demo.ctrader.3873996|50=38739962p9cU7O3YXoF7yLJI1fm1w|52=20231226-12:30:54.736|56=cServer|57=QUOTE|10=193|8=FIX.4.4|9=113|35=0|34=69|49=demo.ctrader.3873996|50=38739962p9cU7O3YXoF7yLJI1fm1w|52=20231226-12:31:24.743|56=cServer|57=QUOTE|10=190|8=FIX.4.4|9=113|35=0|34=70|49=demo.ctrader.3873996|50=38739962p9cU7O3YXoF7yLJI1fm1w|52=20231226-12:31:54.753|56=cServer|57=QUOTE|10=186|8=FIX.4.4|9=113|35=0|34=71|49=demo.ctrader.3873996|50=38739962p9cU7O3YXoF7yLJI1fm1w|52=20231226-12:32:25.753|56=cServer|57=QUOTE|10=186|8=FIX.4.4|9=113|35=0|34=72|49=demo.ctrader.3873996|50=38739962p9cU7O3YXoF7yLJI1fm1w|52=20231226-12:32:55.757|56=cServer|57=QUOTE|10=194|8=FIX.4.4|9=113|35=0|34=73|49=demo.ctrader.3873996|50=38739962p9cU7O3YXoF7yLJI1fm1w|52=20231226-12:33:26.746|56=cServer|57=QUOTE|10=192|8=FIX.4.4|9=113|35=0|34=74|49=demo.ctrader.3873996|50=38739962p9cU7O3YXoF7yLJI1fm1w|52=20231226-12:33:56.772|56=cServer|57=QUOTE|10=195|8=FIX.4.4|9=113|35=0|34=75|49=demo.ctrader.3873996|50=38739962p9cU7O3YXoF7yLJI1fm1w|52=20231226-12:34:27.752|56=cServer|57=QUOTE|10=193|8=FIX.4.4|9=113|35=0|34=76|49=demo.ctrader.3873996|50=38739962p9cU7O3YXoF7yLJI1fm1w|52=20231226-12:34:57.767|56=cServer|57=QUOTE|10=203|8=FIX.4.4|9=113|35=0|34=77|49=demo.ctrader.3873996|50=38739962p9cU7O3YXoF7yLJI1fm1w|52=20231226-12:35:28.767|56=cServer|57=QUOTE|10=203|8=FIX.4.4|9=113|35=0|34=78|49=demo.ctrader.3873996|50=38739962p9cU7O3YXoF7yLJI1fm1w|52=20231226-12:35:58.773|56=cServer|57=QUOTE|10=204|8=FIX.4.4|9=113|35=0|34=79|49=demo.ctrader.3873996|50=38739962p9cU7O3YXoF7yLJI1fm1w|52=20231226-12:36:29.764|56=cServer|57=QUOTE|10=204|8=FIX.4.4|9=113|35=0|34=80|49=demo.ctrader.3873996|50=38739962p9cU7O3YXoF7yLJI1fm1w|52=20231226-12:36:59.787|56=cServer|57=QUOTE|10=204|8=FIX.4.4|9=113|35=0|34=81|49=demo.ctrader.3873996|50=38739962p9cU7O3YXoF7yLJI1fm1w|52=20231226-12:37:30.793|56=cServer|57=QUOTE|10=192|8=FIX.4.4|9=113|35=0|34=82|49=demo.ctrader.3873996|50=38739962p9cU7O3YXoF7yLJI1fm1w|52=20231226-12:38:01.791|56=cServer|57=QUOTE|10=190|8=FIX.4.4|9=113|35=0|34=83|49=demo.ctrader.3873996|50=38739962p9cU7O3YXoF7yLJI1fm1w|52=20231226-12:38:31.815|56=cServer|57=QUOTE|10=191|8=FIX.4.4|9=113|35=0|34=84|49=demo.ctrader.3873996|50=38739962p9cU7O3YXoF7yLJI1fm1w|52=20231226-12:39:02.801|56=cServer|57=QUOTE|10=186|8=FIX.4.4|9=113|35=0|34=85|49=demo.ctrader.3873996|50=38739962p9cU7O3YXoF7yLJI1fm1w|52=20231226-12:39:32.814|56=cServer|57=QUOTE|10=194|8=FIX.4.4|9=113|35=0|34=86|49=demo.ctrader.3873996|50=38739962p9cU7O3YXoF7yLJI1fm1w|52=20231226-12:40:03.801|56=cServer|57=QUOTE|10=181|8=FIX.4.4|9=113|35=0|34=87|49=demo.ctrader.3873996|50=38739962p9cU7O3YXoF7yLJI1fm1w|52=20231226-12:40:33.848|56=cServer|57=QUOTE|10=196|8=FIX.4.4|9=113|35=0|34=88|49=demo.ctrader.3873996|50=38739962p9cU7O3YXoF7yLJI1fm1w|52=20231226-12:41:04.828|56=cServer|57=QUOTE|10=194|8=FIX.4.4|9=113|35=0|34=89|49=demo.ctrader.3873996|50=38739962p9cU7O3YXoF7yLJI1fm1w|52=20231226-12:41:34.852|56=cServer|57=QUOTE|10=195|8=FIX.4.4|9=113|35=0|34=90|49=demo.ctrader.3873996|50=38739962p9cU7O3YXoF7yLJI1fm1w|52=20231226-12:42:05.811|56=cServer|57=QUOTE|10=181|8=FIX.4.4|9=113|35=0|34=91|49=demo.ctrader.3873996|50=38739962p9cU7O3YXoF7yLJI1fm1w|52=20231226-12:42:35.822|56=cServer|57=QUOTE|10=187|8=FIX.4.4|9=113|35=0|34=92|49=demo.ctrader.3873996|50=38739962p9cU7O3YXoF7yLJI1fm1w|52=20231226-12:43:05.852|56=cServer|57=QUOTE|10=189|8=FIX.4.4|9=113|35=0|34=93|49=demo.ctrader.3873996|50=38739962p9cU7O3YXoF7yLJI1fm1w|52=20231226-12:43:36.837|56=cServer|57=QUOTE|10=197|8=FIX.4.4|9=113|35=0|34=94|49=demo.ctrader.3873996|50=38739962p9cU7O3YXoF7yLJI1fm1w|52=20231226-12:44:06.846|56=cServer|57=QUOTE|10=196|8=FIX.4.4|9=113|35=0|34=95|49=demo.ctrader.3873996|50=38739962p9cU7O3YXoF7yLJI1fm1w|52=20231226-12:44:37.838|56=cServer|57=QUOTE|10=202|8=FIX.4.4|9=113|35=0|34=96|49=demo.ctrader.3873996|50=38739962p9cU7O3YXoF7yLJI1fm1w|52=20231226-12:45:07.865|56=cServer|57=QUOTE|10=201|8=FIX.4.4|9=113|35=0|34=97|49=demo.ctrader.3873996|50=38739962p9cU7O3YXoF7yLJI1fm1w|52=20231226-12:45:38.857|56=cServer|57=QUOTE|10=207|8=FIX.4.4|9=113|35=0|34=98|49=demo.ctrader.3873996|50=38739962p9cU7O3YXoF7yLJI1fm1w|52=20231226-12:46:09.837|56=cServer|57=QUOTE|10=205|8=FIX.4.4|9=113|35=0|34=99|49=demo.ctrader.3873996|50=38739962p9cU7O3YXoF7yLJI1fm1w|52=20231226-12:46:40.828|56=cServer|57=QUOTE|10=201|8=FIX.4.4|9=114|35=0|34=100|49=demo.ctrader.3873996|50=38739962p9cU7O3YXoF7yLJI1fm1w|52=20231226-12:47:10.874|56=cServer|57=QUOTE|10=232|8=FIX.4.4|9=114|35=0|34=101|49=demo.ctrader.3873996|50=38739962p9cU7O3YXoF7yLJI1fm1w|52=20231226-12:47:40.885|56=cServer|57=QUOTE|10=238|8=FIX.4.4|9=114|35=0|34=102|49=demo.ctrader.3873996|50=38739962p9cU7O3YXoF7yLJI1fm1w|52=20231226-12:48:11.877|56=cServer|57=QUOTE|10=239|8=FIX.4.4|9=114|35=0|34=103|49=demo.ctrader.3873996|50=38739962p9cU7O3YXoF7yLJI1fm1w|52=20231226-12:48:42.847|56=cServer|57=QUOTE|10=241|8=FIX.4.4|9=114|35=0|34=104|49=demo.ctrader.3873996|50=38739962p9cU7O3YXoF7yLJI1fm1w|52=20231226-12:49:12.891|56=cServer|57=QUOTE|10=239|8=FIX.4.4|9=114|35=0|34=105|49=demo.ctrader.3873996|50=38739962p9cU7O3YXoF7yLJI1fm1w|52=20231226-12:49:43.898|56=cServer|57=QUOTE|10=251|8=FIX.4.4|9=114|35=0|34=106|49=demo.ctrader.3873996|50=38739962p9cU7O3YXoF7yLJI1fm1w|52=20231226-12:50:14.868|56=cServer|57=QUOTE|10=239|8=FIX.4.4|9=114|35=0|34=107|49=demo.ctrader.3873996|50=38739962p9cU7O3YXoF7yLJI1fm1w|52=20231226-12:50:44.907|56=cServer|57=QUOTE|10=237|8=FIX.4.4|9=114|35=0|34=108|49=demo.ctrader.3873996|50=38739962p9cU7O3YXoF7yLJI1fm1w|52=20231226-12:51:14.945|56=cServer|57=QUOTE|10=238|8=FIX.4.4|9=114|35=0|34=109|49=demo.ctrader.3873996|50=38739962p9cU7O3YXoF7yLJI1fm1w|52=20231226-12:51:45.923|56=cServer|57=QUOTE|10=239|8=FIX.4.4|9=114|35=0|34=110|49=demo.ctrader.3873996|50=38739962p9cU7O3YXoF7yLJI1fm1w|52=20231226-12:52:16.911|56=cServer|57=QUOTE|10=227|8=FIX.4.4|9=114|35=0|34=111|49=demo.ctrader.3873996|50=38739962p9cU7O3YXoF7yLJI1fm1w|52=20231226-12:52:46.927|56=cServer|57=QUOTE|10=238|8=FIX.4.4|9=114|35=0|34=112|49=demo.ctrader.3873996|50=38739962p9cU7O3YXoF7yLJI1fm1w|52=20231226-12:53:17.916|56=cServer|57=QUOTE|10=236|8=FIX.4.4|9=114|35=0|34=113|49=demo.ctrader.3873996|50=38739962p9cU7O3YXoF7yLJI1fm1w|52=20231226-12:53:48.691|56=cServer|57=QUOTE|10=241|8=FIX.4.4|9=114|35=0|34=114|49=demo.ctrader.3873996|50=38739962p9cU7O3YXoF7yLJI1fm1w|52=20231226-12:54:19.688|56=cServer|57=QUOTE|10=247|8=FIX.4.4|9=114|35=0|34=115|49=demo.ctrader.3873996|50=38739962p9cU7O3YXoF7yLJI1fm1w|52=20231226-12:54:49.691|56=cServer|57=QUOTE|10=245|8=FIX.4.4|9=114|35=0|34=116|49=demo.ctrader.3873996|50=38739962p9cU7O3YXoF7yLJI1fm1w|52=20231226-12:55:19.698|56=cServer|57=QUOTE|10=251|8=FIX.4.4|9=114|35=0|34=117|49=demo.ctrader.3873996|50=38739962p9cU7O3YXoF7yLJI1fm1w|52=20231226-12:55:49.698|56=cServer|57=QUOTE|10=255|8=FIX.4.4|9=114|35=0|34=118|49=demo.ctrader.3873996|50=38739962p9cU7O3YXoF7yLJI1fm1w|52=20231226-12:56:19.724|56=cServer|57=QUOTE|10=244|8=FIX.4.4|9=114|35=0|34=119|49=demo.ctrader.3873996|50=38739962p9cU7O3YXoF7yLJI1fm1w|52=20231226-12:56:50.697|56=cServer|57=QUOTE|10=249|8=FIX.4.4|9=114|35=0|34=120|49=demo.ctrader.3873996|50=38739962p9cU7O3YXoF7yLJI1fm1w|52=20231226-12:57:20.701|56=cServer|57=QUOTE|10=225|8=FIX.4.4|9=114|35=0|34=121|49=demo.ctrader.3873996|50=38739962p9cU7O3YXoF7yLJI1fm1w|52=20231226-12:57:50.708|56=cServer|57=QUOTE|10=236|8=FIX.4.4|9=114|35=0|34=122|49=demo.ctrader.3873996|50=38739962p9cU7O3YXoF7yLJI1fm1w|52=20231226-12:58:21.703|56=cServer|57=QUOTE|10=231|8=FIX.4.4|9=114|35=0|34=123|49=demo.ctrader.3873996|50=38739962p9cU7O3YXoF7yLJI1fm1w|52=20231226-12:58:51.723|56=cServer|57=QUOTE|10=237|8=FIX.4.4|9=114|35=0|34=124|49=demo.ctrader.3873996|50=38739962p9cU7O3YXoF7yLJI1fm1w|52=20231226-12:59:22.713|56=cServer|57=QUOTE|10=236|8=FIX.4.4|9=114|35=0|34=125|49=demo.ctrader.3873996|50=38739962p9cU7O3YXoF7yLJI1fm1w|52=20231226-12:59:52.726|56=cServer|57=QUOTE|10=244|8=FIX.4.4|9=114|35=0|34=126|49=demo.ctrader.3873996|50=38739962p9cU7O3YXoF7yLJI1fm1w|52=20231226-13:00:23.721|56=cServer|57=QUOTE|10=225|8=FIX.4.4|9=114|35=0|34=127|49=demo.ctrader.3873996|50=38739962p9cU7O3YXoF7yLJI1fm1w|52=20231226-13:00:53.735|56=cServer|57=QUOTE|10=234|8=FIX.4.4|9=114|35=0|34=128|49=demo.ctrader.3873996|50=38739962p9cU7O3YXoF7yLJI1fm1w|52=20231226-13:01:24.730|56=cServer|57=QUOTE|10=229|8=FIX.4.4|9=114|35=0|34=129|49=demo.ctrader.3873996|50=38739962p9cU7O3YXoF7yLJI1fm1w|52=20231226-13:01:54.746|56=cServer|57=QUOTE|10=240|8=FIX.4.4|9=114|35=0|34=130|49=demo.ctrader.3873996|50=38739962p9cU7O3YXoF7yLJI1fm1w|52=20231226-13:02:25.730|56=cServer|57=QUOTE|10=224|8=FIX.4.4|9=114|35=0|34=131|49=demo.ctrader.3873996|50=38739962p9cU7O3YXoF7yLJI1fm1w|52=20231226-13:02:55.744|56=cServer|57=QUOTE|10=233|8=FIX.4.4|9=114|35=0|34=132|49=demo.ctrader.3873996|50=38739962p9cU7O3YXoF7yLJI1fm1w|52=20231226-13:03:25.756|56=cServer|57=QUOTE|10=235|8=FIX.4.4|9=114|35=0|34=133|49=demo.ctrader.3873996|50=38739962p9cU7O3YXoF7yLJI1fm1w|52=20231226-13:03:56.749|56=cServer|57=QUOTE|10=242|8=FIX.4.4|9=114|35=0|34=134|49=demo.ctrader.3873996|50=38739962p9cU7O3YXoF7yLJI1fm1w|52=20231226-13:04:26.760|56=cServer|57=QUOTE|10=234|8=FIX.4.4|9=114|35=0|34=135|49=demo.ctrader.3873996|50=38739962p9cU7O3YXoF7yLJI1fm1w|52=20231226-13:04:57.762|56=cServer|57=QUOTE|10=241|8=FIX.4.4|9=114|35=0|34=136|49=demo.ctrader.3873996|50=38739962p9cU7O3YXoF7yLJI1fm1w|52=20231226-13:05:27.769|56=cServer|57=QUOTE|10=247|8=FIX.4.4|9=114|35=0|34=137|49=demo.ctrader.3873996|50=38739962p9cU7O3YXoF7yLJI1fm1w|52=20231226-13:05:58.749|56=cServer|57=QUOTE|10=250|8=FIX.4.4|9=114|35=0|34=138|49=demo.ctrader.3873996|50=38739962p9cU7O3YXoF7yLJI1fm1w|52=20231226-13:06:28.752|56=cServer|57=QUOTE|10=243|8=FIX.4.4|9=114|35=0|34=139|49=demo.ctrader.3873996|50=38739962p9cU7O3YXoF7yLJI1fm1w|52=20231226-13:06:59.094|56=cServer|57=QUOTE|10=247|8=FIX.4.4|9=114|35=0|34=140|49=demo.ctrader.3873996|50=38739962p9cU7O3YXoF7yLJI1fm1w|52=20231226-13:07:29.752|56=cServer|57=QUOTE|10=238|8=FIX.4.4|9=114|35=0|34=141|49=demo.ctrader.3873996|50=38739962p9cU7O3YXoF7yLJI1fm1w|52=20231226-13:07:59.804|56=cServer|57=QUOTE|10=240|8=FIX.4.4|9=114|35=0|34=142|49=demo.ctrader.3873996|50=38739962p9cU7O3YXoF7yLJI1fm1w|52=20231226-13:08:30.789|56=cServer|57=QUOTE|10=243|8=FIX.4.4|9=114|35=0|34=143|49=demo.ctrader.3873996|50=38739962p9cU7O3YXoF7yLJI1fm1w|52=20231226-13:09:01.789|56=cServer|57=QUOTE|10=243|8=FIX.4.4|9=114|35=0|34=144|49=demo.ctrader.3873996|50=38739962p9cU7O3YXoF7yLJI1fm1w|52=20231226-13:09:31.793|56=cServer|57=QUOTE|10=242|8=FIX.4.4|9=114|35=0|34=145|49=demo.ctrader.3873996|50=38739962p9cU7O3YXoF7yLJI1fm1w|52=20231226-13:10:02.774|56=cServer|57=QUOTE|10=232|8=FIX.4.4|9=114|35=0|34=146|49=demo.ctrader.3873996|50=38739962p9cU7O3YXoF7yLJI1fm1w|52=20231226-13:10:32.819|56=cServer|57=QUOTE|10=236|8=FIX.4.4|9=114|35=0|34=147|49=demo.ctrader.3873996|50=38739962p9cU7O3YXoF7yLJI1fm1w|52=20231226-13:11:03.772|56=cServer|57=QUOTE|10=234|8=FIX.4.4|9=114|35=0|34=148|49=demo.ctrader.3873996|50=38739962p9cU7O3YXoF7yLJI1fm1w|52=20231226-13:11:33.795|56=cServer|57=QUOTE|10=243|8=FIX.4.4|9=114|35=0|34=149|49=demo.ctrader.3873996|50=38739962p9cU7O3YXoF7yLJI1fm1w|52=20231226-13:12:04.797|56=cServer|57=QUOTE|10=245|8=FIX.4.4|9=114|35=0|34=150|49=demo.ctrader.3873996|50=38739962p9cU7O3YXoF7yLJI1fm1w|52=20231226-13:12:34.824|56=cServer|57=QUOTE|10=231|8=FIX.4.4|9=114|35=0|34=151|49=demo.ctrader.3873996|50=38739962p9cU7O3YXoF7yLJI1fm1w|52=20231226-13:13:05.803|56=cServer|57=QUOTE|10=228|8=FIX.4.4|9=114|35=0|34=152|49=demo.ctrader.3873996|50=38739962p9cU7O3YXoF7yLJI1fm1w|52=20231226-13:13:36.808|56=cServer|57=QUOTE|10=238|8=FIX.4.4|9=114|35=0|34=153|49=demo.ctrader.3873996|50=38739962p9cU7O3YXoF7yLJI1fm1w|52=20231226-13:14:06.811|56=cServer|57=QUOTE|10=231|8=FIX.4.4|9=114|35=0|34=154|49=demo.ctrader.3873996|50=38739962p9cU7O3YXoF7yLJI1fm1w|52=20231226-13:14:37.813|56=cServer|57=QUOTE|10=238|8=FIX.4.4|9=114|35=0|34=155|49=demo.ctrader.3873996|50=38739962p9cU7O3YXoF7yLJI1fm1w|52=20231226-13:15:07.816|56=cServer|57=QUOTE|10=240|8=FIX.4.4|9=114|35=0|34=156|49=demo.ctrader.3873996|50=38739962p9cU7O3YXoF7yLJI1fm1w|52=20231226-13:15:37.833|56=cServer|57=QUOTE|10=243|8=FIX.4.4|9=114|35=0|34=157|49=demo.ctrader.3873996|50=38739962p9cU7O3YXoF7yLJI1fm1w|52=20231226-13:16:07.840|56=cServer|57=QUOTE|10=240|8=FIX.4.4|9=114|35=0|34=158|49=demo.ctrader.3873996|50=38739962p9cU7O3YXoF7yLJI1fm1w|52=20231226-13:16:38.847|56=cServer|57=QUOTE|10=252|8=FIX.4.4|9=114|35=0|34=159|49=demo.ctrader.3873996|50=38739962p9cU7O3YXoF7yLJI1fm1w|52=20231226-13:17:08.895|56=cServer|57=QUOTE|10=254|8=FIX.4.4|9=114|35=0|34=160|49=demo.ctrader.3873996|50=38739962p9cU7O3YXoF7yLJI1fm1w|52=20231226-13:17:39.840|56=cServer|57=QUOTE|10=240|8=FIX.4.4|9=114|35=0|34=161|49=demo.ctrader.3873996|50=38739962p9cU7O3YXoF7yLJI1fm1w|52=20231226-13:18:10.826|56=cServer|57=QUOTE|10=235|8=FIX.4.4|9=114|35=0|34=162|49=demo.ctrader.3873996|50=38739962p9cU7O3YXoF7yLJI1fm1w|52=20231226-13:18:40.828|56=cServer|57=QUOTE|10=241|8=FIX.4.4|9=114|35=0|34=163|49=demo.ctrader.3873996|50=38739962p9cU7O3YXoF7yLJI1fm1w|52=20231226-13:19:10.866|56=cServer|57=QUOTE|10=242|8=FIX.4.4|9=114|35=0|34=164|49=demo.ctrader.3873996|50=38739962p9cU7O3YXoF7yLJI1fm1w|52=20231226-13:19:41.849|56=cServer|57=QUOTE|10=248|8=FIX.4.4|9=114|35=0|34=165|49=demo.ctrader.3873996|50=38739962p9cU7O3YXoF7yLJI1fm1w|52=20231226-13:20:11.978|56=cServer|57=QUOTE|10=241|8=FIX.4.4|9=114|35=0|34=166|49=demo.ctrader.3873996|50=38739962p9cU7O3YXoF7yLJI1fm1w|52=20231226-13:20:42.849|56=cServer|57=QUOTE|10=243|8=FIX.4.4|9=114|35=0|34=167|49=demo.ctrader.3873996|50=38739962p9cU7O3YXoF7yLJI1fm1w|52=20231226-13:21:13.815|56=cServer|57=QUOTE|10=236|8=FIX.4.4|9=114|35=0|34=168|49=demo.ctrader.3873996|50=38739962p9cU7O3YXoF7yLJI1fm1w|52=20231226-13:21:43.862|56=cServer|57=QUOTE|10=242|8=FIX.4.4|9=114|35=0|34=169|49=demo.ctrader.3873996|50=38739962p9cU7O3YXoF7yLJI1fm1w|52=20231226-13:22:14.833|56=cServer|57=QUOTE|10=240|8=FIX.4.4|9=114|35=0|34=170|49=demo.ctrader.3873996|50=38739962p9cU7O3YXoF7yLJI1fm1w|52=20231226-13:22:44.876|56=cServer|57=QUOTE|10=242|8=FIX.4.4|9=114|35=0|34=171|49=demo.ctrader.3873996|50=38739962p9cU7O3YXoF7yLJI1fm1w|52=20231226-13:23:15.871|56=cServer|57=QUOTE|10=237|8=FIX.4.4|9=114|35=0|34=172|49=demo.ctrader.3873996|50=38739962p9cU7O3YXoF7yLJI1fm1w|52=20231226-13:23:46.875|56=cServer|57=QUOTE|10=246|8=FIX.4.4|9=114|35=0|34=173|49=demo.ctrader.3873996|50=38739962p9cU7O3YXoF7yLJI1fm1w|52=20231226-13:24:16.890|56=cServer|57=QUOTE|10=242|8=FIX.4.4|9=114|35=0|34=174|49=demo.ctrader.3873996|50=38739962p9cU7O3YXoF7yLJI1fm1w|52=20231226-13:24:47.870|56=cServer|57=QUOTE|10=245|8=FIX.4.4|9=114|35=0|34=175|49=demo.ctrader.3873996|50=38739962p9cU7O3YXoF7yLJI1fm1w|52=20231226-13:25:18.683|56=cServer|57=QUOTE|10=247|8=FIX.4.4|9=114|35=0|34=176|49=demo.ctrader.3873996|50=38739962p9cU7O3YXoF7yLJI1fm1w|52=20231226-13:25:48.683|56=cServer|57=QUOTE|10=251|8=FIX.4.4|9=114|35=0|34=177|49=demo.ctrader.3873996|50=38739962p9cU7O3YXoF7yLJI1fm1w|52=20231226-13:26:18.686|56=cServer|57=QUOTE|10=253|8=FIX.4.4|9=114|35=0|34=178|49=demo.ctrader.3873996|50=38739962p9cU7O3YXoF7yLJI1fm1w|52=20231226-13:26:48.688|56=cServer|57=QUOTE|10=003|8=FIX.4.4|9=114|35=0|34=179|49=demo.ctrader.3873996|50=38739962p9cU7O3YXoF7yLJI1fm1w|52=20231226-13:27:18.762|56=cServer|57=QUOTE|10=251|8=FIX.4.4|9=114|35=0|34=180|49=demo.ctrader.3873996|50=38739962p9cU7O3YXoF7yLJI1fm1w|52=20231226-13:27:49.711|56=cServer|57=QUOTE|10=241|8=FIX.4.4|9=114|35=0|34=181|49=demo.ctrader.3873996|50=38739962p9cU7O3YXoF7yLJI1fm1w|52=20231226-13:28:19.714|56=cServer|57=QUOTE|10=243|8=FIX.4.4|9=114|35=0|34=182|49=demo.ctrader.3873996|50=38739962p9cU7O3YXoF7yLJI1fm1w|52=20231226-13:28:50.697|56=cServer|57=QUOTE|10=249|8=FIX.4.4|9=114|35=0|34=183|49=demo.ctrader.3873996|50=38739962p9cU7O3YXoF7yLJI1fm1w|52=20231226-13:29:21.700|56=cServer|57=QUOTE|10=234|8=FIX.4.4|9=114|35=0|34=184|49=demo.ctrader.3873996|50=38739962p9cU7O3YXoF7yLJI1fm1w|52=20231226-13:29:51.706|56=cServer|57=QUOTE|10=244|8=FIX.4.4|9=114|35=0|34=185|49=demo.ctrader.3873996|50=38739962p9cU7O3YXoF7yLJI1fm1w|52=20231226-13:30:21.709|56=cServer|57=QUOTE|10=237|8=FIX.4.4|9=114|35=0|34=186|49=demo.ctrader.3873996|50=38739962p9cU7O3YXoF7yLJI1fm1w|52=20231226-13:30:51.713|56=cServer|57=QUOTE|10=236|8=FIX.4.4|9=114|35=0|34=187|49=demo.ctrader.3873996|50=38739962p9cU7O3YXoF7yLJI1fm1w|52=20231226-13:31:22.699|56=cServer|57=QUOTE|10=249|8=FIX.4.4|9=114|35=0|34=188|49=demo.ctrader.3873996|50=38739962p9cU7O3YXoF7yLJI1fm1w|52=20231226-13:31:52.715|56=cServer|57=QUOTE|10=242|8=FIX.4.4|9=114|35=0|34=189|49=demo.ctrader.3873996|50=38739962p9cU7O3YXoF7yLJI1fm1w|52=20231226-13:32:22.742|56=cServer|57=QUOTE|10=241|8=FIX.4.4|9=114|35=0|34=190|49=demo.ctrader.3873996|50=38739962p9cU7O3YXoF7yLJI1fm1w|52=20231226-13:32:53.721|56=cServer|57=QUOTE|10=234|8=FIX.4.4|9=114|35=0|34=191|49=demo.ctrader.3873996|50=38739962p9cU7O3YXoF7yLJI1fm1w|52=20231226-13:33:24.721|56=cServer|57=QUOTE|10=234|8=FIX.4.4|9=114|35=0|34=192|49=demo.ctrader.3873996|50=38739962p9cU7O3YXoF7yLJI1fm1w|52=20231226-13:33:55.725|56=cServer|57=QUOTE|10=243|8=FIX.4.4|9=114|35=0|34=193|49=demo.ctrader.3873996|50=38739962p9cU7O3YXoF7yLJI1fm1w|52=20231226-13:34:26.730|56=cServer|57=QUOTE|10=239|8=FIX.4.4|9=114|35=0|34=194|49=demo.ctrader.3873996|50=38739962p9cU7O3YXoF7yLJI1fm1w|52=20231226-13:34:57.724|56=cServer|57=QUOTE|10=247|8=FIX.4.4|9=114|35=0|34=195|49=demo.ctrader.3873996|50=38739962p9cU7O3YXoF7yLJI1fm1w|52=20231226-13:35:27.803|56=cServer|57=QUOTE|10=244|8=FIX.4.4|9=114|35=0|34=196|49=demo.ctrader.3873996|50=38739962p9cU7O3YXoF7yLJI1fm1w|52=20231226-13:35:58.757|56=cServer|57=QUOTE|10=001|8=FIX.4.4|9=114|35=0|34=197|49=demo.ctrader.3873996|50=38739962p9cU7O3YXoF7yLJI1fm1w|52=20231226-13:36:28.798|56=cServer|57=QUOTE|10=005|8=FIX.4.4|9=114|35=0|34=198|49=demo.ctrader.3873996|50=38739962p9cU7O3YXoF7yLJI1fm1w|52=20231226-13:36:59.744|56=cServer|57=QUOTE|10=001|8=FIX.4.4|9=114|35=0|34=199|49=demo.ctrader.3873996|50=38739962p9cU7O3YXoF7yLJI1fm1w|52=20231226-13:37:29.764|56=cServer|57=QUOTE|10=002|8=FIX.4.4|9=114|35=0|34=200|49=demo.ctrader.3873996|50=38739962p9cU7O3YXoF7yLJI1fm1w|52=20231226-13:38:00.760|56=cServer|57=QUOTE|10=227|8=FIX.4.4|9=114|35=0|34=201|49=demo.ctrader.3873996|50=38739962p9cU7O3YXoF7yLJI1fm1w|52=20231226-13:38:31.757|56=cServer|57=QUOTE|10=238|8=FIX.4.4|9=114|35=0|34=202|49=demo.ctrader.3873996|50=38739962p9cU7O3YXoF7yLJI1fm1w|52=20231226-13:39:01.768|56=cServer|57=QUOTE|10=239|8=FIX.4.4|9=114|35=0|34=203|49=demo.ctrader.3873996|50=38739962p9cU7O3YXoF7yLJI1fm1w|52=20231226-13:39:31.780|56=cServer|57=QUOTE|10=237|8=FIX.4.4|9=114|35=0|34=204|49=demo.ctrader.3873996|50=38739962p9cU7O3YXoF7yLJI1fm1w|52=20231226-13:40:02.794|56=cServer|57=QUOTE|10=233|8=FIX.4.4|9=114|35=0|34=205|49=demo.ctrader.3873996|50=38739962p9cU7O3YXoF7yLJI1fm1w|52=20231226-13:40:32.912|56=cServer|57=QUOTE|10=229|8=FIX.4.4|9=114|35=0|34=206|49=demo.ctrader.3873996|50=38739962p9cU7O3YXoF7yLJI1fm1w|52=20231226-13:41:03.800|56=cServer|57=QUOTE|10=225|8=FIX.4.4|9=114|35=0|34=207|49=demo.ctrader.3873996|50=38739962p9cU7O3YXoF7yLJI1fm1w|52=20231226-13:41:33.843|56=cServer|57=QUOTE|10=236|8=FIX.4.4|9=114|35=0|34=208|49=demo.ctrader.3873996|50=38739962p9cU7O3YXoF7yLJI1fm1w|52=20231226-13:42:04.770|56=cServer|57=QUOTE|10=235|8=FIX.4.4|9=114|35=0|34=209|49=demo.ctrader.3873996|50=38739962p9cU7O3YXoF7yLJI1fm1w|52=20231226-13:42:34.797|56=cServer|57=QUOTE|10=248|8=FIX.4.4|9=114|35=0|34=210|49=demo.ctrader.3873996|50=38739962p9cU7O3YXoF7yLJI1fm1w|52=20231226-13:43:04.800|56=cServer|57=QUOTE|10=223|8=FIX.4.4|9=114|35=0|34=211|49=demo.ctrader.3873996|50=38739962p9cU7O3YXoF7yLJI1fm1w|52=20231226-13:43:34.813|56=cServer|57=QUOTE|10=231|8=FIX.4.4|9=114|35=0|34=212|49=demo.ctrader.3873996|50=38739962p9cU7O3YXoF7yLJI1fm1w|52=20231226-13:44:05.790|56=cServer|57=QUOTE|10=235|8=FIX.4.4|9=114|35=0|34=213|49=demo.ctrader.3873996|50=38739962p9cU7O3YXoF7yLJI1fm1w|52=20231226-13:44:36.794|56=cServer|57=QUOTE|10=244|8=FIX.4.4|9=114|35=0|34=214|49=demo.ctrader.3873996|50=38739962p9cU7O3YXoF7yLJI1fm1w|52=20231226-13:45:07.802|56=cServer|57=QUOTE|10=234|8=FIX.4.4|9=114|35=0|34=215|49=demo.ctrader.3873996|50=38739962p9cU7O3YXoF7yLJI1fm1w|52=20231226-13:45:37.977|56=cServer|57=QUOTE|10=251|8=FIX.4.4|9=114|35=0|34=216|49=demo.ctrader.3873996|50=38739962p9cU7O3YXoF7yLJI1fm1w|52=20231226-13:46:08.872|56=cServer|57=QUOTE|10=245|8=FIX.4.4|9=114|35=0|34=217|49=demo.ctrader.3873996|50=38739962p9cU7O3YXoF7yLJI1fm1w|52=20231226-13:46:39.817|56=cServer|57=QUOTE|10=249|8=FIX.4.4|9=114|35=0|34=218|49=demo.ctrader.3873996|50=38739962p9cU7O3YXoF7yLJI1fm1w|52=20231226-13:47:09.850|56=cServer|57=QUOTE|10=245|8=FIX.4.4|9=114|35=0|34=219|49=demo.ctrader.3873996|50=38739962p9cU7O3YXoF7yLJI1fm1w|52=20231226-13:47:39.853|56=cServer|57=QUOTE|10=252|8=FIX.4.4|9=114|35=0|34=220|49=demo.ctrader.3873996|50=38739962p9cU7O3YXoF7yLJI1fm1w|52=20231226-13:48:10.830|56=cServer|57=QUOTE|10=229|8=FIX.4.4|9=114|35=0|34=221|49=demo.ctrader.3873996|50=38739962p9cU7O3YXoF7yLJI1fm1w|52=20231226-13:48:40.858|56=cServer|57=QUOTE|10=243|8=FIX.4.4|9=114|35=0|34=222|49=demo.ctrader.3873996|50=38739962p9cU7O3YXoF7yLJI1fm1w|52=20231226-13:49:11.867|56=cServer|57=QUOTE|10=243|8=FIX.4.4|9=114|35=0|34=223|49=demo.ctrader.3873996|50=38739962p9cU7O3YXoF7yLJI1fm1w|52=20231226-13:49:41.884|56=cServer|57=QUOTE|10=246|8=FIX.4.4|9=114|35=0|34=224|49=demo.ctrader.3873996|50=38739962p9cU7O3YXoF7yLJI1fm1w|52=20231226-13:50:12.880|56=cServer|57=QUOTE|10=233|8=FIX.4.4|9=114|35=0|34=225|49=demo.ctrader.3873996|50=38739962p9cU7O3YXoF7yLJI1fm1w|52=20231226-13:50:42.903|56=cServer|57=QUOTE|10=233|8=FIX.4.4|9=114|35=0|34=226|49=demo.ctrader.3873996|50=38739962p9cU7O3YXoF7yLJI1fm1w|52=20231226-13:51:13.071|56=cServer|57=QUOTE|10=229|8=FIX.4.4|9=114|35=0|34=227|49=demo.ctrader.3873996|50=38739962p9cU7O3YXoF7yLJI1fm1w|52=20231226-13:51:43.846|56=cServer|57=QUOTE|10=243|8=FIX.4.4|9=114|35=0|34=228|49=demo.ctrader.3873996|50=38739962p9cU7O3YXoF7yLJI1fm1w|52=20231226-13:52:13.884|56=cServer|57=QUOTE|10=244|8=FIX.4.4|9=114|35=0|34=229|49=demo.ctrader.3873996|50=38739962p9cU7O3YXoF7yLJI1fm1w|52=20231226-13:52:44.888|56=cServer|57=QUOTE|10=253|8=FIX.4.4|9=114|35=0|34=230|49=demo.ctrader.3873996|50=38739962p9cU7O3YXoF7yLJI1fm1w|52=20231226-13:53:14.928|56=cServer|57=QUOTE|10=238|8=FIX.4.4|9=114|35=0|34=231|49=demo.ctrader.3873996|50=38739962p9cU7O3YXoF7yLJI1fm1w|52=20231226-13:53:45.876|56=cServer|57=QUOTE|10=245|8=FIX.4.4|9=114|35=0|34=232|49=demo.ctrader.3873996|50=38739962p9cU7O3YXoF7yLJI1fm1w|52=20231226-13:54:16.876|56=cServer|57=QUOTE|10=245|8=FIX.4.4|9=114|35=0|34=233|49=demo.ctrader.3873996|50=38739962p9cU7O3YXoF7yLJI1fm1w|52=20231226-13:54:46.878|56=cServer|57=QUOTE|10=251|8=FIX.4.4|9=114|35=0|34=234|49=demo.ctrader.3873996|50=38739962p9cU7O3YXoF7yLJI1fm1w|52=20231226-13:55:16.887|56=cServer|57=QUOTE|10=250|8=FIX.4.4|9=114|35=0|34=235|49=demo.ctrader.3873996|50=38739962p9cU7O3YXoF7yLJI1fm1w|52=20231226-13:55:47.887|56=cServer|57=QUOTE|10=255|8=FIX.4.4|9=114|35=0|34=236|49=demo.ctrader.3873996|50=38739962p9cU7O3YXoF7yLJI1fm1w|52=20231226-13:56:17.902|56=cServer|57=QUOTE|10=242|8=FIX.4.4|9=114|35=0|34=237|49=demo.ctrader.3873996|50=38739962p9cU7O3YXoF7yLJI1fm1w|52=20231226-13:56:48.681|56=cServer|57=QUOTE|10=251|8=FIX.4.4|9=114|35=0|34=238|49=demo.ctrader.3873996|50=38739962p9cU7O3YXoF7yLJI1fm1w|52=20231226-13:57:19.683|56=cServer|57=QUOTE|10=253|8=FIX.4.4|9=114|35=0|34=239|49=demo.ctrader.3873996|50=38739962p9cU7O3YXoF7yLJI1fm1w|52=20231226-13:57:49.684|56=cServer|57=QUOTE|10=002|8=FIX.4.4|9=114|35=0|34=240|49=demo.ctrader.3873996|50=38739962p9cU7O3YXoF7yLJI1fm1w|52=20231226-13:58:19.685|56=cServer|57=QUOTE|10=249|8=FIX.4.4|9=114|35=0|34=241|49=demo.ctrader.3873996|50=38739962p9cU7O3YXoF7yLJI1fm1w|52=20231226-13:58:49.689|56=cServer|57=QUOTE|10=001|8=FIX.4.4|9=114|35=0|34=242|49=demo.ctrader.3873996|50=38739962p9cU7O3YXoF7yLJI1fm1w|52=20231226-13:59:19.691|56=cServer|57=QUOTE|10=249|8=FIX.4.4|9=114|35=0|34=243|49=demo.ctrader.3873996|50=38739962p9cU7O3YXoF7yLJI1fm1w|52=20231226-13:59:50.691|56=cServer|57=QUOTE|10=245|8=FIX.4.4|9=114|35=0|34=244|49=demo.ctrader.3873996|50=38739962p9cU7O3YXoF7yLJI1fm1w|52=20231226-14:00:20.705|56=cServer|57=QUOTE|10=226|8=FIX.4.4|9=114|35=0|34=245|49=demo.ctrader.3873996|50=38739962p9cU7O3YXoF7yLJI1fm1w|52=20231226-14:00:51.707|56=cServer|57=QUOTE|10=233|8=FIX.4.4|9=114|35=0|34=246|49=demo.ctrader.3873996|50=38739962p9cU7O3YXoF7yLJI1fm1w|52=20231226-14:01:21.712|56=cServer|57=QUOTE|10=228|8=FIX.4.4|9=114|35=0|34=247|49=demo.ctrader.3873996|50=38739962p9cU7O3YXoF7yLJI1fm1w|52=20231226-14:01:51.719|56=cServer|57=QUOTE|10=239|8=FIX.4.4|9=114|35=0|34=248|49=demo.ctrader.3873996|50=38739962p9cU7O3YXoF7yLJI1fm1w|52=20231226-14:02:22.715|56=cServer|57=QUOTE|10=235|8=FIX.4.4|9=114|35=0|34=249|49=demo.ctrader.3873996|50=38739962p9cU7O3YXoF7yLJI1fm1w|52=20231226-14:02:53.718|56=cServer|57=QUOTE|10=243|8=FIX.4.4|9=114|35=0|34=250|49=demo.ctrader.3873996|50=38739962p9cU7O3YXoF7yLJI1fm1w|52=20231226-14:03:24.233|56=cServer|57=QUOTE|10=226|8=FIX.4.4|9=114|35=0|34=251|49=demo.ctrader.3873996|50=38739962p9cU7O3YXoF7yLJI1fm1w|52=20231226-14:03:54.764|56=cServer|57=QUOTE|10=239|8=FIX.4.4|9=114|35=0|34=252|49=demo.ctrader.3873996|50=38739962p9cU7O3YXoF7yLJI1fm1w|52=20231226-14:04:25.742|56=cServer|57=QUOTE|10=235|8=FIX.4.4|9=114|35=0|34=253|49=demo.ctrader.3873996|50=38739962p9cU7O3YXoF7yLJI1fm1w|52=20231226-14:04:56.725|56=cServer|57=QUOTE|10=241|8=FIX.4.4|9=114|35=0|34=254|49=demo.ctrader.3873996|50=38739962p9cU7O3YXoF7yLJI1fm1w|52=20231226-14:05:26.733|56=cServer|57=QUOTE|10=239|8=FIX.4.4|9=114|35=0|34=255|49=demo.ctrader.3873996|50=38739962p9cU7O3YXoF7yLJI1fm1w|52=20231226-14:05:56.734|56=cServer|57=QUOTE|10=244|8=FIX.4.4|9=114|35=0|34=256|49=demo.ctrader.3873996|50=38739962p9cU7O3YXoF7yLJI1fm1w|52=20231226-14:06:26.741|56=cServer|57=QUOTE|10=241|8=FIX.4.4|9=114|35=0|34=257|49=demo.ctrader.3873996|50=38739962p9cU7O3YXoF7yLJI1fm1w|52=20231226-14:06:56.864|56=cServer|57=QUOTE|10=251|8=FIX.4.4|9=114|35=0|34=258|49=demo.ctrader.3873996|50=38739962p9cU7O3YXoF7yLJI1fm1w|52=20231226-14:07:27.758|56=cServer|57=QUOTE|10=253|8=FIX.4.4|9=114|35=0|34=259|49=demo.ctrader.3873996|50=38739962p9cU7O3YXoF7yLJI1fm1w|52=20231226-14:07:58.753|56=cServer|57=QUOTE|10=253|8=FIX.4.4|9=114|35=0|34=260|49=demo.ctrader.3873996|50=38739962p9cU7O3YXoF7yLJI1fm1w|52=20231226-14:08:29.764|56=cServer|57=QUOTE|10=246|8=FIX.4.4|9=114|35=0|34=261|49=demo.ctrader.3873996|50=38739962p9cU7O3YXoF7yLJI1fm1w|52=20231226-14:08:59.776|56=cServer|57=QUOTE|10=253|8=FIX.4.4|9=114|35=0|34=262|49=demo.ctrader.3873996|50=38739962p9cU7O3YXoF7yLJI1fm1w|52=20231226-14:09:29.792|56=cServer|57=QUOTE|10=250|8=FIX.4.4|9=114|35=0|34=263|49=demo.ctrader.3873996|50=38739962p9cU7O3YXoF7yLJI1fm1w|52=20231226-14:10:00.774|56=cServer|57=QUOTE|10=232|8=FIX.4.4|9=114|35=0|34=264|49=demo.ctrader.3873996|50=38739962p9cU7O3YXoF7yLJI1fm1w|52=20231226-14:10:31.776|56=cServer|57=QUOTE|10=239|8=FIX.4.4|9=114|35=0|34=265|49=demo.ctrader.3873996|50=38739962p9cU7O3YXoF7yLJI1fm1w|52=20231226-14:11:02.776|56=cServer|57=QUOTE|10=239|8=FIX.4.4|9=114|35=0|34=266|49=demo.ctrader.3873996|50=38739962p9cU7O3YXoF7yLJI1fm1w|52=20231226-14:11:33.781|56=cServer|57=QUOTE|10=240|8=FIX.4.4|9=114|35=0|34=267|49=demo.ctrader.3873996|50=38739962p9cU7O3YXoF7yLJI1fm1w|52=20231226-14:12:03.791|56=cServer|57=QUOTE|10=240|8=FIX.4.4|9=114|35=0|34=268|49=demo.ctrader.3873996|50=38739962p9cU7O3YXoF7yLJI1fm1w|52=20231226-14:12:34.800|56=cServer|57=QUOTE|10=236|8=FIX.4.4|9=114|35=0|34=269|49=demo.ctrader.3873996|50=38739962p9cU7O3YXoF7yLJI1fm1w|52=20231226-14:13:05.800|56=cServer|57=QUOTE|10=236|8=FIX.4.4|9=114|35=0|34=270|49=demo.ctrader.3873996|50=38739962p9cU7O3YXoF7yLJI1fm1w|52=20231226-14:13:36.805|56=cServer|57=QUOTE|10=237|8=FIX.4.4|9=114|35=0|34=271|49=demo.ctrader.3873996|50=38739962p9cU7O3YXoF7yLJI1fm1w|52=20231226-14:14:06.808|56=cServer|57=QUOTE|10=239|8=FIX.4.4|9=114|35=0|34=272|49=demo.ctrader.3873996|50=38739962p9cU7O3YXoF7yLJI1fm1w|52=20231226-14:14:37.813|56=cServer|57=QUOTE|10=240|8=FIX.4.4|9=114|35=0|34=273|49=demo.ctrader.3873996|50=38739962p9cU7O3YXoF7yLJI1fm1w|52=20231226-14:15:07.834|56=cServer|57=QUOTE|10=242|8=FIX.4.4|9=114|35=0|34=274|49=demo.ctrader.3873996|50=38739962p9cU7O3YXoF7yLJI1fm1w|52=20231226-14:15:37.835|56=cServer|57=QUOTE|10=247|8=FIX.4.4|9=114|35=0|34=275|49=demo.ctrader.3873996|50=38739962p9cU7O3YXoF7yLJI1fm1w|52=20231226-14:16:07.839|56=cServer|57=QUOTE|10=250|8=FIX.4.4|9=114|35=0|34=276|49=demo.ctrader.3873996|50=38739962p9cU7O3YXoF7yLJI1fm1w|52=20231226-14:16:38.824|56=cServer|57=QUOTE|10=249|8=FIX.4.4|9=114|35=0|34=277|49=demo.ctrader.3873996|50=38739962p9cU7O3YXoF7yLJI1fm1w|52=20231226-14:17:09.826|56=cServer|57=QUOTE|10=251|8=FIX.4.4|9=114|35=0|34=278|49=demo.ctrader.3873996|50=38739962p9cU7O3YXoF7yLJI1fm1w|52=20231226-14:17:39.889|56=cServer|57=QUOTE|10=008|8=FIX.4.4|9=114|35=0|34=279|49=demo.ctrader.3873996|50=38739962p9cU7O3YXoF7yLJI1fm1w|52=20231226-14:18:10.860|56=cServer|57=QUOTE|10=244|8=FIX.4.4|9=114|35=0|34=280|49=demo.ctrader.3873996|50=38739962p9cU7O3YXoF7yLJI1fm1w|52=20231226-14:18:40.972|56=cServer|57=QUOTE|10=243|8=FIX.4.4|9=114|35=0|34=281|49=demo.ctrader.3873996|50=38739962p9cU7O3YXoF7yLJI1fm1w|52=20231226-14:19:11.815|56=cServer|57=QUOTE|10=239|8=FIX.4.4|9=114|35=0|34=282|49=demo.ctrader.3873996|50=38739962p9cU7O3YXoF7yLJI1fm1w|52=20231226-14:19:41.824|56=cServer|57=QUOTE|10=243|8=FIX.4.4|9=114|35=0|34=283|49=demo.ctrader.3873996|50=38739962p9cU7O3YXoF7yLJI1fm1w|52=20231226-14:20:11.824|56=cServer|57=QUOTE|10=233|8=FIX.4.4|9=114|35=0|34=284|49=demo.ctrader.3873996|50=38739962p9cU7O3YXoF7yLJI1fm1w|52=20231226-14:20:42.814|56=cServer|57=QUOTE|10=237|8=FIX.4.4|9=114|35=0|34=285|49=demo.ctrader.3873996|50=38739962p9cU7O3YXoF7yLJI1fm1w|52=20231226-14:21:12.859|56=cServer|57=QUOTE|10=245|8=FIX.4.4|9=114|35=0|34=286|49=demo.ctrader.3873996|50=38739962p9cU7O3YXoF7yLJI1fm1w|52=20231226-14:21:43.863|56=cServer|57=QUOTE|10=245|8=FIX.4.4|9=114|35=0|34=287|49=demo.ctrader.3873996|50=38739962p9cU7O3YXoF7yLJI1fm1w|52=20231226-14:22:13.866|56=cServer|57=QUOTE|10=247|8=FIX.4.4|9=114|35=0|34=288|49=demo.ctrader.3873996|50=38739962p9cU7O3YXoF7yLJI1fm1w|52=20231226-14:22:44.844|56=cServer|57=QUOTE|10=248|8=FIX.4.4|9=114|35=0|34=289|49=demo.ctrader.3873996|50=38739962p9cU7O3YXoF7yLJI1fm1w|52=20231226-14:23:14.887|56=cServer|57=QUOTE|10=254|8=FIX.4.4|9=114|35=0|34=290|49=demo.ctrader.3873996|50=38739962p9cU7O3YXoF7yLJI1fm1w|52=20231226-14:23:44.889|56=cServer|57=QUOTE|10=251|8=FIX.4.4|9=114|35=0|34=291|49=demo.ctrader.3873996|50=38739962p9cU7O3YXoF7yLJI1fm1w|52=20231226-14:24:15.887|56=cServer|57=QUOTE|10=249|8=FIX.4.4|9=114|35=0|34=292|49=demo.ctrader.3873996|50=38739962p9cU7O3YXoF7yLJI1fm1w|52=20231226-14:24:46.858|56=cServer|57=QUOTE|10=252|8=FIX.4.4|9=114|35=0|34=293|49=demo.ctrader.3873996|50=38739962p9cU7O3YXoF7yLJI1fm1w|52=20231226-14:25:16.957|56=cServer|57=QUOTE|10=251|8=FIX.4.4|9=114|35=0|34=294|49=demo.ctrader.3873996|50=38739962p9cU7O3YXoF7yLJI1fm1w|52=20231226-14:25:47.873|56=cServer|57=QUOTE|10=253|8=FIX.4.4|9=114|35=0|34=295|49=demo.ctrader.3873996|50=38739962p9cU7O3YXoF7yLJI1fm1w|52=20231226-14:26:18.690|56=cServer|57=QUOTE|10=250|8=FIX.4.4|9=114|35=0|34=296|49=demo.ctrader.3873996|50=38739962p9cU7O3YXoF7yLJI1fm1w|52=20231226-14:26:49.689|56=cServer|57=QUOTE|10=007|8=FIX.4.4|9=114|35=0|34=297|49=demo.ctrader.3873996|50=38739962p9cU7O3YXoF7yLJI1fm1w|52=20231226-14:27:20.683|56=cServer|57=QUOTE|10=248|8=FIX.4.4|9=114|35=0|34=298|49=demo.ctrader.3873996|50=38739962p9cU7O3YXoF7yLJI1fm1w|52=20231226-14:27:50.690|56=cServer|57=QUOTE|10=250|8=FIX.4.4|9=114|35=0|34=299|49=demo.ctrader.3873996|50=38739962p9cU7O3YXoF7yLJI1fm1w|52=20231226-14:28:20.700|56=cServer|57=QUOTE|10=241|8=FIX.4.4|9=114|35=0|34=300|49=demo.ctrader.3873996|50=38739962p9cU7O3YXoF7yLJI1fm1w|52=20231226-14:28:50.702|56=cServer|57=QUOTE|10=229|8=FIX.4.4|9=114|35=0|34=301|49=demo.ctrader.3873996|50=38739962p9cU7O3YXoF7yLJI1fm1w|52=20231226-14:29:21.702|56=cServer|57=QUOTE|10=229|8=FIX.4.4|9=114|35=0|34=302|49=demo.ctrader.3873996|50=38739962p9cU7O3YXoF7yLJI1fm1w|52=20231226-14:29:51.710|56=cServer|57=QUOTE|10=232|8=FIX.4.4|9=114|35=0|34=303|49=demo.ctrader.3873996|50=38739962p9cU7O3YXoF7yLJI1fm1w|52=20231226-14:30:21.733|56=cServer|57=QUOTE|10=227|8=FIX.4.4|9=114|35=0|34=304|49=demo.ctrader.3873996|50=38739962p9cU7O3YXoF7yLJI1fm1w|52=20231226-14:30:52.693|56=cServer|57=QUOTE|10=237|8=FIX.4.4|9=114|35=0|34=305|49=demo.ctrader.3873996|50=38739962p9cU7O3YXoF7yLJI1fm1w|52=20231226-14:31:22.712|56=cServer|57=QUOTE|10=228|8=FIX.4.4|9=114|35=0|34=306|49=demo.ctrader.3873996|50=38739962p9cU7O3YXoF7yLJI1fm1w|52=20231226-14:31:53.710|56=cServer|57=QUOTE|10=231|8=FIX.4.4|9=114|35=0|34=307|49=demo.ctrader.3873996|50=38739962p9cU7O3YXoF7yLJI1fm1w|52=20231226-14:32:23.721|56=cServer|57=QUOTE|10=232|8=FIX.4.4|9=114|35=0|34=308|49=demo.ctrader.3873996|50=38739962p9cU7O3YXoF7yLJI1fm1w|52=20231226-14:32:53.721|56=cServer|57=QUOTE|10=236|8=FIX.4.4|9=114|35=0|34=309|49=demo.ctrader.3873996|50=38739962p9cU7O3YXoF7yLJI1fm1w|52=20231226-14:33:23.722|56=cServer|57=QUOTE|10=236|8=FIX.4.4|9=114|35=0|34=310|49=demo.ctrader.3873996|50=38739962p9cU7O3YXoF7yLJI1fm1w|52=20231226-14:33:54.719|56=cServer|57=QUOTE|10=238|8=FIX.4.4|9=114|35=0|34=311|49=demo.ctrader.3873996|50=38739962p9cU7O3YXoF7yLJI1fm1w|52=20231226-14:34:25.722|56=cServer|57=QUOTE|10=232|8=FIX.4.4|9=114|35=0|34=312|49=demo.ctrader.3873996|50=38739962p9cU7O3YXoF7yLJI1fm1w|52=20231226-14:34:55.742|56=cServer|57=QUOTE|10=238|8=FIX.4.4|9=114|35=0|34=313|49=demo.ctrader.3873996|50=38739962p9cU7O3YXoF7yLJI1fm1w|52=20231226-14:35:26.738|56=cServer|57=QUOTE|10=243|8=FIX.4.4|9=114|35=0|34=314|49=demo.ctrader.3873996|50=38739962p9cU7O3YXoF7yLJI1fm1w|52=20231226-14:35:57.726|56=cServer|57=QUOTE|10=245|8=FIX.4.4|9=114|35=0|34=315|49=demo.ctrader.3873996|50=38739962p9cU7O3YXoF7yLJI1fm1w|52=20231226-14:36:27.743|56=cServer|57=QUOTE|10=243|8=FIX.4.4|9=114|35=0|34=316|49=demo.ctrader.3873996|50=38739962p9cU7O3YXoF7yLJI1fm1w|52=20231226-14:36:58.745|56=cServer|57=QUOTE|10=250|8=FIX.4.4|9=114|35=0|34=317|49=demo.ctrader.3873996|50=38739962p9cU7O3YXoF7yLJI1fm1w|52=20231226-14:37:28.756|56=cServer|57=QUOTE|10=251|8=FIX.4.4|9=114|35=0|34=318|49=demo.ctrader.3873996|50=38739962p9cU7O3YXoF7yLJI1fm1w|52=20231226-14:37:59.755|56=cServer|57=QUOTE|10=255|8=FIX.4.4|9=114|35=0|34=319|49=demo.ctrader.3873996|50=38739962p9cU7O3YXoF7yLJI1fm1w|52=20231226-14:38:29.773|56=cServer|57=QUOTE|10=254|8=FIX.4.4|9=114|35=0|34=320|49=demo.ctrader.3873996|50=38739962p9cU7O3YXoF7yLJI1fm1w|52=20231226-14:39:00.771|56=cServer|57=QUOTE|10=234|8=FIX.4.4|9=114|35=0|34=321|49=demo.ctrader.3873996|50=38739962p9cU7O3YXoF7yLJI1fm1w|52=20231226-14:39:31.768|56=cServer|57=QUOTE|10=245|8=FIX.4.4|9=114|35=0|34=322|49=demo.ctrader.3873996|50=38739962p9cU7O3YXoF7yLJI1fm1w|52=20231226-14:40:02.774|56=cServer|57=QUOTE|10=233|8=FIX.4.4|9=114|35=0|34=323|49=demo.ctrader.3873996|50=38739962p9cU7O3YXoF7yLJI1fm1w|52=20231226-14:40:33.764|56=cServer|57=QUOTE|10=237|8=FIX.4.4|9=114|35=0|34=324|49=demo.ctrader.3873996|50=38739962p9cU7O3YXoF7yLJI1fm1w|52=20231226-14:41:04.765|56=cServer|57=QUOTE|10=238|8=FIX.4.4|9=114|35=0|34=325|49=demo.ctrader.3873996|50=38739962p9cU7O3YXoF7yLJI1fm1w|52=20231226-14:41:34.785|56=cServer|57=QUOTE|10=244|8=FIX.4.4|9=114|35=0|34=326|49=demo.ctrader.3873996|50=38739962p9cU7O3YXoF7yLJI1fm1w|52=20231226-14:42:05.785|56=cServer|57=QUOTE|10=244|8=FIX.4.4|9=114|35=0|34=327|49=demo.ctrader.3873996|50=38739962p9cU7O3YXoF7yLJI1fm1w|52=20231226-14:42:35.794|56=cServer|57=QUOTE|10=248|8=FIX.4.4|9=114|35=0|34=328|49=demo.ctrader.3873996|50=38739962p9cU7O3YXoF7yLJI1fm1w|52=20231226-14:43:06.786|56=cServer|57=QUOTE|10=249|8=FIX.4.4|9=114|35=0|34=329|49=demo.ctrader.3873996|50=38739962p9cU7O3YXoF7yLJI1fm1w|52=20231226-14:43:36.820|56=cServer|57=QUOTE|10=242|8=FIX.4.4|9=114|35=0|34=330|49=demo.ctrader.3873996|50=38739962p9cU7O3YXoF7yLJI1fm1w|52=20231226-14:44:07.813|56=cServer|57=QUOTE|10=235|8=FIX.4.4|9=114|35=0|34=331|49=demo.ctrader.3873996|50=38739962p9cU7O3YXoF7yLJI1fm1w|52=20231226-14:44:37.824|56=cServer|57=QUOTE|10=241|8=FIX.4.4|9=114|35=0|34=332|49=demo.ctrader.3873996|50=38739962p9cU7O3YXoF7yLJI1fm1w|52=20231226-14:45:08.828|56=cServer|57=QUOTE|10=245|8=FIX.4.4|9=114|35=0|34=333|49=demo.ctrader.3873996|50=38739962p9cU7O3YXoF7yLJI1fm1w|52=20231226-14:45:39.800|56=cServer|57=QUOTE|10=240|8=FIX.4.4|9=114|35=0|34=334|49=demo.ctrader.3873996|50=38739962p9cU7O3YXoF7yLJI1fm1w|52=20231226-14:46:09.840|56=cServer|57=QUOTE|10=243|8=FIX.4.4|9=114|35=0|34=335|49=demo.ctrader.3873996|50=38739962p9cU7O3YXoF7yLJI1fm1w|52=20231226-14:46:39.849|56=cServer|57=QUOTE|10=000|8=FIX.4.4|9=114|35=0|34=336|49=demo.ctrader.3873996|50=38739962p9cU7O3YXoF7yLJI1fm1w|52=20231226-14:47:10.828|56=cServer|57=QUOTE|10=244|8=FIX.4.4|9=114|35=0|34=337|49=demo.ctrader.3873996|50=38739962p9cU7O3YXoF7yLJI1fm1w|52=20231226-14:47:41.829|56=cServer|57=QUOTE|10=250|8=FIX.4.4|9=114|35=0|34=338|49=demo.ctrader.3873996|50=38739962p9cU7O3YXoF7yLJI1fm1w|52=20231226-14:48:11.853|56=cServer|57=QUOTE|10=246|8=FIX.4.4|9=114|35=0|34=339|49=demo.ctrader.3873996|50=38739962p9cU7O3YXoF7yLJI1fm1w|52=20231226-14:48:41.870|56=cServer|57=QUOTE|10=249|8=FIX.4.4|9=114|35=0|34=340|49=demo.ctrader.3873996|50=38739962p9cU7O3YXoF7yLJI1fm1w|52=20231226-14:49:12.847|56=cServer|57=QUOTE|10=244|8=FIX.4.4|9=114|35=0|34=341|49=demo.ctrader.3873996|50=38739962p9cU7O3YXoF7yLJI1fm1w|52=20231226-14:49:42.856|56=cServer|57=QUOTE|10=248|8=FIX.4.4|9=114|35=0|34=342|49=demo.ctrader.3873996|50=38739962p9cU7O3YXoF7yLJI1fm1w|52=20231226-14:50:12.912|56=cServer|57=QUOTE|10=231|8=FIX.4.4|9=114|35=0|34=343|49=demo.ctrader.3873996|50=38739962p9cU7O3YXoF7yLJI1fm1w|52=20231226-14:50:43.830|56=cServer|57=QUOTE|10=235|8=FIX.4.4|9=114|35=0|34=344|49=demo.ctrader.3873996|50=38739962p9cU7O3YXoF7yLJI1fm1w|52=20231226-14:51:13.887|56=cServer|57=QUOTE|10=246|8=FIX.4.4|9=114|35=0|34=345|49=demo.ctrader.3873996|50=38739962p9cU7O3YXoF7yLJI1fm1w|52=20231226-14:51:44.853|56=cServer|57=QUOTE|10=244|8=FIX.4.4|9=114|35=0|34=346|49=demo.ctrader.3873996|50=38739962p9cU7O3YXoF7yLJI1fm1w|52=20231226-14:52:14.862|56=cServer|57=QUOTE|10=243|8=FIX.4.4|9=114|35=0|34=347|49=demo.ctrader.3873996|50=38739962p9cU7O3YXoF7yLJI1fm1w|52=20231226-14:52:44.877|56=cServer|57=QUOTE|10=253|8=FIX.4.4|9=114|35=0|34=348|49=demo.ctrader.3873996|50=38739962p9cU7O3YXoF7yLJI1fm1w|52=20231226-14:53:15.846|56=cServer|57=QUOTE|10=249|8=FIX.4.4|9=114|35=0|34=349|49=demo.ctrader.3873996|50=38739962p9cU7O3YXoF7yLJI1fm1w|52=20231226-14:53:45.864|56=cServer|57=QUOTE|10=253|8=FIX.4.4|9=114|35=0|34=350|49=demo.ctrader.3873996|50=38739962p9cU7O3YXoF7yLJI1fm1w|52=20231226-14:54:15.871|56=cServer|57=QUOTE|10=241|8=FIX.4.4|9=114|35=0|34=351|49=demo.ctrader.3873996|50=38739962p9cU7O3YXoF7yLJI1fm1w|52=20231226-14:54:46.859|56=cServer|57=QUOTE|10=252|8=FIX.4.4|9=114|35=0|34=352|49=demo.ctrader.3873996|50=38739962p9cU7O3YXoF7yLJI1fm1w|52=20231226-14:55:17.854|56=cServer|57=QUOTE|10=247|8=FIX.4.4|9=114|35=0|34=353|49=demo.ctrader.3873996|50=38739962p9cU7O3YXoF7yLJI1fm1w|52=20231226-14:55:47.875|56=cServer|57=QUOTE|10=254|8=FIX.4.4|9=114|35=0|34=354|49=demo.ctrader.3873996|50=38739962p9cU7O3YXoF7yLJI1fm1w|52=20231226-14:56:17.910|56=cServer|57=QUOTE|10=243|8=FIX.4.4|9=114|35=0|34=355|49=demo.ctrader.3873996|50=38739962p9cU7O3YXoF7yLJI1fm1w|52=20231226-14:56:48.682|56=cServer|57=QUOTE|10=254|8=FIX.4.4|9=114|35=0|34=356|49=demo.ctrader.3873996|50=38739962p9cU7O3YXoF7yLJI1fm1w|52=20231226-14:57:19.680|56=cServer|57=QUOTE|10=252|8=FIX.4.4|9=114|35=0|34=357|49=demo.ctrader.3873996|50=38739962p9cU7O3YXoF7yLJI1fm1w|52=20231226-14:57:49.690|56=cServer|57=QUOTE|10=001|8=FIX.4.4|9=114|35=0|34=358|49=demo.ctrader.3873996|50=38739962p9cU7O3YXoF7yLJI1fm1w|52=20231226-14:58:20.695|56=cServer|57=QUOTE|10=253|8=FIX.4.4|9=114|35=0|34=359|49=demo.ctrader.3873996|50=38739962p9cU7O3YXoF7yLJI1fm1w|52=20231226-14:58:50.700|56=cServer|57=QUOTE|10=244|8=FIX.4.4|9=114|35=0|34=360|49=demo.ctrader.3873996|50=38739962p9cU7O3YXoF7yLJI1fm1w|52=20231226-14:59:21.691|56=cServer|57=QUOTE|10=244|8=FIX.4.4|9=114|35=0|34=361|49=demo.ctrader.3873996|50=38739962p9cU7O3YXoF7yLJI1fm1w|52=20231226-14:59:51.711|56=cServer|57=QUOTE|10=241|8=FIX.4.4|9=114|35=0|34=362|49=demo.ctrader.3873996|50=38739962p9cU7O3YXoF7yLJI1fm1w|52=20231226-15:00:22.710|56=cServer|57=QUOTE|10=226|8=FIX.4.4|9=114|35=0|34=363|49=demo.ctrader.3873996|50=38739962p9cU7O3YXoF7yLJI1fm1w|52=20231226-15:00:52.732|56=cServer|57=QUOTE|10=234|8=FIX.4.4|9=114|35=0|34=364|49=demo.ctrader.3873996|50=38739962p9cU7O3YXoF7yLJI1fm1w|52=20231226-15:01:23.718|56=cServer|57=QUOTE|10=238|8=FIX.4.4|9=114|35=0|34=365|49=demo.ctrader.3873996|50=38739962p9cU7O3YXoF7yLJI1fm1w|52=20231226-15:01:54.722|56=cServer|57=QUOTE|10=238|8=FIX.4.4|9=114|35=0|34=366|49=demo.ctrader.3873996|50=38739962p9cU7O3YXoF7yLJI1fm1w|52=20231226-15:02:24.725|56=cServer|57=QUOTE|10=240|8=FIX.4.4|9=114|35=0|34=367|49=demo.ctrader.3873996|50=38739962p9cU7O3YXoF7yLJI1fm1w|52=20231226-15:02:55.727|56=cServer|57=QUOTE|10=247|8=FIX.4.4|9=114|35=0|34=368|49=demo.ctrader.3873996|50=38739962p9cU7O3YXoF7yLJI1fm1w|52=20231226-15:03:25.733|56=cServer|57=QUOTE|10=243|8=FIX.4.4|9=114|35=0|34=369|49=demo.ctrader.3873996|50=38739962p9cU7O3YXoF7yLJI1fm1w|52=20231226-15:03:56.730|56=cServer|57=QUOTE|10=245|8=FIX.4.4|9=114|35=0|34=370|49=demo.ctrader.3873996|50=38739962p9cU7O3YXoF7yLJI1fm1w|52=20231226-15:04:26.756|56=cServer|57=QUOTE|10=243|8=FIX.4.4|9=114|35=0|34=371|49=demo.ctrader.3873996|50=38739962p9cU7O3YXoF7yLJI1fm1w|52=20231226-15:04:57.734|56=cServer|57=QUOTE|10=244|8=FIX.4.4|9=114|35=0|34=372|49=demo.ctrader.3873996|50=38739962p9cU7O3YXoF7yLJI1fm1w|52=20231226-15:05:27.737|56=cServer|57=QUOTE|10=246|8=FIX.4.4|9=114|35=0|34=373|49=demo.ctrader.3873996|50=38739962p9cU7O3YXoF7yLJI1fm1w|52=20231226-15:05:57.752|56=cServer|57=QUOTE|10=247|8=FIX.4.4|9=114|35=0|34=374|49=demo.ctrader.3873996|50=38739962p9cU7O3YXoF7yLJI1fm1w|52=20231226-15:06:28.755|56=cServer|57=QUOTE|10=250|8=FIX.4.4|9=114|35=0|34=375|49=demo.ctrader.3873996|50=38739962p9cU7O3YXoF7yLJI1fm1w|52=20231226-15:06:59.744|56=cServer|57=QUOTE|10=253|8=FIX.4.4|9=114|35=0|34=376|49=demo.ctrader.3873996|50=38739962p9cU7O3YXoF7yLJI1fm1w|52=20231226-15:07:29.764|56=cServer|57=QUOTE|10=254|8=FIX.4.4|9=114|35=0|34=377|49=demo.ctrader.3873996|50=38739962p9cU7O3YXoF7yLJI1fm1w|52=20231226-15:08:00.761|56=cServer|57=QUOTE|10=242|8=FIX.4.4|9=114|35=0|34=378|49=demo.ctrader.3873996|50=38739962p9cU7O3YXoF7yLJI1fm1w|52=20231226-15:08:30.770|56=cServer|57=QUOTE|10=246|8=FIX.4.4|9=114|35=0|34=379|49=demo.ctrader.3873996|50=38739962p9cU7O3YXoF7yLJI1fm1w|52=20231226-15:09:01.520|56=cServer|57=QUOTE|10=239|8=FIX.4.4|9=114|35=0|34=380|49=demo.ctrader.3873996|50=38739962p9cU7O3YXoF7yLJI1fm1w|52=20231226-15:09:31.772|56=cServer|57=QUOTE|10=243|8=FIX.4.4|9=114|35=0|34=381|49=demo.ctrader.3873996|50=38739962p9cU7O3YXoF7yLJI1fm1w|52=20231226-15:10:01.892|56=cServer|57=QUOTE|10=236|8=FIX.4.4|9=114|35=0|34=382|49=demo.ctrader.3873996|50=38739962p9cU7O3YXoF7yLJI1fm1w|52=20231226-15:10:32.773|56=cServer|57=QUOTE|10=239|8=FIX.4.4|9=114|35=0|34=383|49=demo.ctrader.3873996|50=38739962p9cU7O3YXoF7yLJI1fm1w|52=20231226-15:11:03.778|56=cServer|57=QUOTE|10=244|8=FIX.4.4|9=114|35=0|34=384|49=demo.ctrader.3873996|50=38739962p9cU7O3YXoF7yLJI1fm1w|52=20231226-15:11:34.781|56=cServer|57=QUOTE|10=243|8=FIX.4.4|9=114|35=0|34=385|49=demo.ctrader.3873996|50=38739962p9cU7O3YXoF7yLJI1fm1w|52=20231226-15:12:04.801|56=cServer|57=QUOTE|10=235|8=FIX.4.4|9=114|35=0|34=386|49=demo.ctrader.3873996|50=38739962p9cU7O3YXoF7yLJI1fm1w|52=20231226-15:12:35.777|56=cServer|57=QUOTE|10=252|8=FIX.4.4|9=114|35=0|34=387|49=demo.ctrader.3873996|50=38739962p9cU7O3YXoF7yLJI1fm1w|52=20231226-15:13:05.806|56=cServer|57=QUOTE|10=244|8=FIX.4.4|9=114|35=0|34=388|49=demo.ctrader.3873996|50=38739962p9cU7O3YXoF7yLJI1fm1w|52=20231226-15:13:36.804|56=cServer|57=QUOTE|10=247|8=FIX.4.4|9=114|35=0|34=389|49=demo.ctrader.3873996|50=38739962p9cU7O3YXoF7yLJI1fm1w|52=20231226-15:14:06.812|56=cServer|57=QUOTE|10=245|8=FIX.4.4|9=114|35=0|34=390|49=demo.ctrader.3873996|50=38739962p9cU7O3YXoF7yLJI1fm1w|52=20231226-15:14:36.838|56=cServer|57=QUOTE|10=248|8=FIX.4.4|9=114|35=0|34=391|49=demo.ctrader.3873996|50=38739962p9cU7O3YXoF7yLJI1fm1w|52=20231226-15:15:07.068|56=cServer|57=QUOTE|10=243|8=FIX.4.4|9=114|35=0|34=392|49=demo.ctrader.3873996|50=38739962p9cU7O3YXoF7yLJI1fm1w|52=20231226-15:15:37.911|56=cServer|57=QUOTE|10=244|8=FIX.4.4|9=114|35=0|34=393|49=demo.ctrader.3873996|50=38739962p9cU7O3YXoF7yLJI1fm1w|52=20231226-15:16:08.810|56=cServer|57=QUOTE|10=242|8=FIX.4.4|9=114|35=0|34=394|49=demo.ctrader.3873996|50=38739962p9cU7O3YXoF7yLJI1fm1w|52=20231226-15:16:38.834|56=cServer|57=QUOTE|10=252|8=FIX.4.4|9=114|35=0|34=395|49=demo.ctrader.3873996|50=38739962p9cU7O3YXoF7yLJI1fm1w|52=20231226-15:17:09.796|56=cServer|57=QUOTE|10=003|8=FIX.4.4|9=114|35=0|34=396|49=demo.ctrader.3873996|50=38739962p9cU7O3YXoF7yLJI1fm1w|52=20231226-15:17:39.820|56=cServer|57=QUOTE|10=251|8=FIX.4.4|9=114|35=0|34=397|49=demo.ctrader.3873996|50=38739962p9cU7O3YXoF7yLJI1fm1w|52=20231226-15:18:10.814|56=cServer|57=QUOTE|10=245|8=FIX.4.4|9=114|35=0|34=398|49=demo.ctrader.3873996|50=38739962p9cU7O3YXoF7yLJI1fm1w|52=20231226-15:18:40.833|56=cServer|57=QUOTE|10=250|8=FIX.4.4|9=114|35=0|34=399|49=demo.ctrader.3873996|50=38739962p9cU7O3YXoF7yLJI1fm1w|52=20231226-15:19:11.795|56=cServer|57=QUOTE|10=001|8=FIX.4.4|9=114|35=0|34=400|49=demo.ctrader.3873996|50=38739962p9cU7O3YXoF7yLJI1fm1w|52=20231226-15:19:41.822|56=cServer|57=QUOTE|10=234|8=FIX.4.4|9=114|35=0|34=401|49=demo.ctrader.3873996|50=38739962p9cU7O3YXoF7yLJI1fm1w|52=20231226-15:20:11.842|56=cServer|57=QUOTE|10=226|8=FIX.4.4|9=114|35=0|34=402|49=demo.ctrader.3873996|50=38739962p9cU7O3YXoF7yLJI1fm1w|52=20231226-15:20:41.844|56=cServer|57=QUOTE|10=232|8=FIX.4.4|9=114|35=0|34=403|49=demo.ctrader.3873996|50=38739962p9cU7O3YXoF7yLJI1fm1w|52=20231226-15:21:12.839|56=cServer|57=QUOTE|10=236|8=FIX.4.4|9=114|35=0|34=404|49=demo.ctrader.3873996|50=38739962p9cU7O3YXoF7yLJI1fm1w|52=20231226-15:21:42.859|56=cServer|57=QUOTE|10=242|8=FIX.4.4|9=114|35=0|34=405|49=demo.ctrader.3873996|50=38739962p9cU7O3YXoF7yLJI1fm1w|52=20231226-15:22:13.619|56=cServer|57=QUOTE|10=236|8=FIX.4.4|9=114|35=0|34=406|49=demo.ctrader.3873996|50=38739962p9cU7O3YXoF7yLJI1fm1w|52=20231226-15:22:43.900|56=cServer|57=QUOTE|10=233|8=FIX.4.4|9=114|35=0|34=407|49=demo.ctrader.3873996|50=38739962p9cU7O3YXoF7yLJI1fm1w|52=20231226-15:23:14.865|56=cServer|57=QUOTE|10=243|8=FIX.4.4|9=114|35=0|34=408|49=demo.ctrader.3873996|50=38739962p9cU7O3YXoF7yLJI1fm1w|52=20231226-15:23:45.862|56=cServer|57=QUOTE|10=245|8=FIX.4.4|9=114|35=0|34=409|49=demo.ctrader.3873996|50=38739962p9cU7O3YXoF7yLJI1fm1w|52=20231226-15:24:15.882|56=cServer|57=QUOTE|10=246|8=FIX.4.4|9=114|35=0|34=410|49=demo.ctrader.3873996|50=38739962p9cU7O3YXoF7yLJI1fm1w|52=20231226-15:24:46.874|56=cServer|57=QUOTE|10=243|8=FIX.4.4|9=114|35=0|34=411|49=demo.ctrader.3873996|50=38739962p9cU7O3YXoF7yLJI1fm1w|52=20231226-15:25:16.903|56=cServer|57=QUOTE|10=235|8=FIX.4.4|9=114|35=0|34=412|49=demo.ctrader.3873996|50=38739962p9cU7O3YXoF7yLJI1fm1w|52=20231226-15:25:47.870|56=cServer|57=QUOTE|10=243|8=FIX.4.4|9=114|35=0|34=413|49=demo.ctrader.3873996|50=38739962p9cU7O3YXoF7yLJI1fm1w|52=20231226-15:26:18.676|56=cServer|57=QUOTE|10=247|8=FIX.4.4|9=114|35=0|34=414|49=demo.ctrader.3873996|50=38739962p9cU7O3YXoF7yLJI1fm1w|52=20231226-15:26:48.822|56=cServer|57=QUOTE|10=244|8=FIX.4.4|9=114|35=0|34=415|49=demo.ctrader.3873996|50=38739962p9cU7O3YXoF7yLJI1fm1w|52=20231226-15:27:19.692|56=cServer|57=QUOTE|10=249|8=FIX.4.4|9=114|35=0|34=416|49=demo.ctrader.3873996|50=38739962p9cU7O3YXoF7yLJI1fm1w|52=20231226-15:27:49.921|56=cServer|57=QUOTE|10=248|8=FIX.4.4|9=114|35=0|34=417|49=demo.ctrader.3873996|50=38739962p9cU7O3YXoF7yLJI1fm1w|52=20231226-15:28:20.693|56=cServer|57=QUOTE|10=245|8=FIX.4.4|9=114|35=0|34=418|49=demo.ctrader.3873996|50=38739962p9cU7O3YXoF7yLJI1fm1w|52=20231226-15:28:50.694|56=cServer|57=QUOTE|10=250|8=FIX.4.4|9=114|35=0|34=419|49=demo.ctrader.3873996|50=38739962p9cU7O3YXoF7yLJI1fm1w|52=20231226-15:29:20.714|56=cServer|57=QUOTE|10=242|8=FIX.4.4|9=114|35=0|34=420|49=demo.ctrader.3873996|50=38739962p9cU7O3YXoF7yLJI1fm1w|52=20231226-15:29:51.693|56=cServer|57=QUOTE|10=244|8=FIX.4.4|9=114|35=0|34=421|49=demo.ctrader.3873996|50=38739962p9cU7O3YXoF7yLJI1fm1w|52=20231226-15:30:21.758|56=cServer|57=QUOTE|10=236|8=FIX.4.4|9=114|35=0|34=422|49=demo.ctrader.3873996|50=38739962p9cU7O3YXoF7yLJI1fm1w|52=20231226-15:30:52.703|56=cServer|57=QUOTE|10=231|8=FIX.4.4|9=114|35=0|34=423|49=demo.ctrader.3873996|50=38739962p9cU7O3YXoF7yLJI1fm1w|52=20231226-15:31:22.712|56=cServer|57=QUOTE|10=230|8=FIX.4.4|9=114|35=0|34=424|49=demo.ctrader.3873996|50=38739962p9cU7O3YXoF7yLJI1fm1w|52=20231226-15:31:53.716|56=cServer|57=QUOTE|10=239|8=FIX.4.4|9=114|35=0|34=425|49=demo.ctrader.3873996|50=38739962p9cU7O3YXoF7yLJI1fm1w|52=20231226-15:32:24.709|56=cServer|57=QUOTE|10=241|8=FIX.4.4|9=114|35=0|34=426|49=demo.ctrader.3873996|50=38739962p9cU7O3YXoF7yLJI1fm1w|52=20231226-15:32:55.707|56=cServer|57=QUOTE|10=244|8=FIX.4.4|9=114|35=0|34=427|49=demo.ctrader.3873996|50=38739962p9cU7O3YXoF7yLJI1fm1w|52=20231226-15:33:25.708|56=cServer|57=QUOTE|10=244|8=FIX.4.4|9=114|35=0|34=428|49=demo.ctrader.3873996|50=38739962p9cU7O3YXoF7yLJI1fm1w|52=20231226-15:33:55.715|56=cServer|57=QUOTE|10=246|8=FIX.4.4|9=114|35=0|34=429|49=demo.ctrader.3873996|50=38739962p9cU7O3YXoF7yLJI1fm1w|52=20231226-15:34:26.718|56=cServer|57=QUOTE|10=249|8=FIX.4.4|9=114|35=0|34=430|49=demo.ctrader.3873996|50=38739962p9cU7O3YXoF7yLJI1fm1w|52=20231226-15:34:56.737|56=cServer|57=QUOTE|10=245|8=FIX.4.4|9=114|35=0|34=431|49=demo.ctrader.3873996|50=38739962p9cU7O3YXoF7yLJI1fm1w|52=20231226-15:35:27.724|56=cServer|57=QUOTE|10=241|8=FIX.4.4|9=114|35=0|34=432|49=demo.ctrader.3873996|50=38739962p9cU7O3YXoF7yLJI1fm1w|52=20231226-15:35:57.747|56=cServer|57=QUOTE|10=250|8=FIX.4.4|9=114|35=0|34=433|49=demo.ctrader.3873996|50=38739962p9cU7O3YXoF7yLJI1fm1w|52=20231226-15:36:28.731|56=cServer|57=QUOTE|10=243|8=FIX.4.4|9=114|35=0|34=434|49=demo.ctrader.3873996|50=38739962p9cU7O3YXoF7yLJI1fm1w|52=20231226-15:36:58.751|56=cServer|57=QUOTE|10=249|8=FIX.4.4|9=114|35=0|34=435|49=demo.ctrader.3873996|50=38739962p9cU7O3YXoF7yLJI1fm1w|52=20231226-15:37:29.744|56=cServer|57=QUOTE|10=251|8=FIX.4.4|9=114|35=0|34=436|49=demo.ctrader.3873996|50=38739962p9cU7O3YXoF7yLJI1fm1w|52=20231226-15:37:59.766|56=cServer|57=QUOTE|10=003|8=FIX.4.4|9=114|35=0|34=437|49=demo.ctrader.3873996|50=38739962p9cU7O3YXoF7yLJI1fm1w|52=20231226-15:38:30.753|56=cServer|57=QUOTE|10=246|8=FIX.4.4|9=114|35=0|34=438|49=demo.ctrader.3873996|50=38739962p9cU7O3YXoF7yLJI1fm1w|52=20231226-15:39:00.756|56=cServer|57=QUOTE|10=248|8=FIX.4.4|9=114|35=0|34=439|49=demo.ctrader.3873996|50=38739962p9cU7O3YXoF7yLJI1fm1w|52=20231226-15:39:30.758|56=cServer|57=QUOTE|10=254|8=FIX.4.4|9=114|35=0|34=440|49=demo.ctrader.3873996|50=38739962p9cU7O3YXoF7yLJI1fm1w|52=20231226-15:40:00.763|56=cServer|57=QUOTE|10=231|8=FIX.4.4|9=114|35=0|34=441|49=demo.ctrader.3873996|50=38739962p9cU7O3YXoF7yLJI1fm1w|52=20231226-15:40:30.781|56=cServer|57=QUOTE|10=235|8=FIX.4.4|9=114|35=0|34=442|49=demo.ctrader.3873996|50=38739962p9cU7O3YXoF7yLJI1fm1w|52=20231226-15:41:01.772|56=cServer|57=QUOTE|10=235|8=FIX.4.4|9=114|35=0|34=443|49=demo.ctrader.3873996|50=38739962p9cU7O3YXoF7yLJI1fm1w|52=20231226-15:41:32.767|56=cServer|57=QUOTE|10=244|8=FIX.4.4|9=114|35=0|34=444|49=demo.ctrader.3873996|50=38739962p9cU7O3YXoF7yLJI1fm1w|52=20231226-15:42:02.787|56=cServer|57=QUOTE|10=245|8=FIX.4.4|9=114|35=0|34=445|49=demo.ctrader.3873996|50=38739962p9cU7O3YXoF7yLJI1fm1w|52=20231226-15:42:32.864|56=cServer|57=QUOTE|10=245|8=FIX.4.4|9=114|35=0|34=446|49=demo.ctrader.3873996|50=38739962p9cU7O3YXoF7yLJI1fm1w|52=20231226-15:43:03.776|56=cServer|57=QUOTE|10=247|8=FIX.4.4|9=114|35=0|34=447|49=demo.ctrader.3873996|50=38739962p9cU7O3YXoF7yLJI1fm1w|52=20231226-15:43:33.795|56=cServer|57=QUOTE|10=252|8=FIX.4.4|9=114|35=0|34=448|49=demo.ctrader.3873996|50=38739962p9cU7O3YXoF7yLJI1fm1w|52=20231226-15:44:03.934|56=cServer|57=QUOTE|10=246|8=FIX.4.4|9=114|35=0|34=449|49=demo.ctrader.3873996|50=38739962p9cU7O3YXoF7yLJI1fm1w|52=20231226-15:44:34.766|56=cServer|57=QUOTE|10=254|8=FIX.4.4|9=114|35=0|34=450|49=demo.ctrader.3873996|50=38739962p9cU7O3YXoF7yLJI1fm1w|52=20231226-15:45:05.779|56=cServer|57=QUOTE|10=249|8=FIX.4.4|9=114|35=0|34=451|49=demo.ctrader.3873996|50=38739962p9cU7O3YXoF7yLJI1fm1w|52=20231226-15:45:35.824|56=cServer|57=QUOTE|10=244|8=FIX.4.4|9=114|35=0|34=452|49=demo.ctrader.3873996|50=38739962p9cU7O3YXoF7yLJI1fm1w|52=20231226-15:46:06.369|56=cServer|57=QUOTE|10=248|8=FIX.4.4|9=114|35=0|34=453|49=demo.ctrader.3873996|50=38739962p9cU7O3YXoF7yLJI1fm1w|52=20231226-15:46:36.798|56=cServer|57=QUOTE|10=002|8=FIX.4.4|9=114|35=0|34=454|49=demo.ctrader.3873996|50=38739962p9cU7O3YXoF7yLJI1fm1w|52=20231226-15:47:06.808|56=cServer|57=QUOTE|10=249|8=FIX.4.4|9=114|35=0|34=455|49=demo.ctrader.3873996|50=38739962p9cU7O3YXoF7yLJI1fm1w|52=20231226-15:47:36.816|56=cServer|57=QUOTE|10=252|8=FIX.4.4|9=114|35=0|34=456|49=demo.ctrader.3873996|50=38739962p9cU7O3YXoF7yLJI1fm1w|52=20231226-15:48:07.783|56=cServer|57=QUOTE|10=255|8=FIX.4.4|9=114|35=0|34=457|49=demo.ctrader.3873996|50=38739962p9cU7O3YXoF7yLJI1fm1w|52=20231226-15:48:38.781|56=cServer|57=QUOTE|10=002|8=FIX.4.4|9=114|35=0|34=458|49=demo.ctrader.3873996|50=38739962p9cU7O3YXoF7yLJI1fm1w|52=20231226-15:49:08.836|56=cServer|57=QUOTE|10=002|8=FIX.4.4|9=114|35=0|34=459|49=demo.ctrader.3873996|50=38739962p9cU7O3YXoF7yLJI1fm1w|52=20231226-15:49:39.807|56=cServer|57=QUOTE|10=005|8=FIX.4.4|9=114|35=0|34=460|49=demo.ctrader.3873996|50=38739962p9cU7O3YXoF7yLJI1fm1w|52=20231226-15:50:10.810|56=cServer|57=QUOTE|10=228|8=FIX.4.4|9=114|35=0|34=461|49=demo.ctrader.3873996|50=38739962p9cU7O3YXoF7yLJI1fm1w|52=20231226-15:50:40.836|56=cServer|57=QUOTE|10=240|8=FIX.4.4|9=114|35=0|34=462|49=demo.ctrader.3873996|50=38739962p9cU7O3YXoF7yLJI1fm1w|52=20231226-15:51:10.848|56=cServer|57=QUOTE|10=242|8=FIX.4.4|9=114|35=0|34=463|49=demo.ctrader.3873996|50=38739962p9cU7O3YXoF7yLJI1fm1w|52=20231226-15:51:41.848|56=cServer|57=QUOTE|10=247|8=FIX.4.4|9=114|35=0|34=464|49=demo.ctrader.3873996|50=38739962p9cU7O3YXoF7yLJI1fm1w|52=20231226-15:52:11.901|56=cServer|57=QUOTE|10=236|8=FIX.4.4|9=114|35=0|34=465|49=demo.ctrader.3873996|50=38739962p9cU7O3YXoF7yLJI1fm1w|52=20231226-15:52:42.860|56=cServer|57=QUOTE|10=245|8=FIX.4.4|9=114|35=0|34=466|49=demo.ctrader.3873996|50=38739962p9cU7O3YXoF7yLJI1fm1w|52=20231226-15:53:13.844|56=cServer|57=QUOTE|10=247|8=FIX.4.4|9=114|35=0|34=467|49=demo.ctrader.3873996|50=38739962p9cU7O3YXoF7yLJI1fm1w|52=20231226-15:53:44.848|56=cServer|57=QUOTE|10=000|8=FIX.4.4|9=114|35=0|34=468|49=demo.ctrader.3873996|50=38739962p9cU7O3YXoF7yLJI1fm1w|52=20231226-15:54:15.852|56=cServer|57=QUOTE|10=251|8=FIX.4.4|9=114|35=0|34=469|49=demo.ctrader.3873996|50=38739962p9cU7O3YXoF7yLJI1fm1w|52=20231226-15:54:45.877|56=cServer|57=QUOTE|10=006|8=FIX.4.4|9=114|35=0|34=470|49=demo.ctrader.3873996|50=38739962p9cU7O3YXoF7yLJI1fm1w|52=20231226-15:55:15.888|56=cServer|57=QUOTE|10=254|8=FIX.4.4|9=114|35=0|34=471|49=demo.ctrader.3873996|50=38739962p9cU7O3YXoF7yLJI1fm1w|52=20231226-15:55:46.883|56=cServer|57=QUOTE|10=254|8=FIX.4.4|9=114|35=0|34=472|49=demo.ctrader.3873996|50=38739962p9cU7O3YXoF7yLJI1fm1w|52=20231226-15:56:16.886|56=cServer|57=QUOTE|10=000|8=FIX.4.4|9=114|35=0|34=473|49=demo.ctrader.3873996|50=38739962p9cU7O3YXoF7yLJI1fm1w|52=20231226-15:56:47.891|56=cServer|57=QUOTE|10=001|8=FIX.4.4|9=114|35=0|34=474|49=demo.ctrader.3873996|50=38739962p9cU7O3YXoF7yLJI1fm1w|52=20231226-15:57:17.891|56=cServer|57=QUOTE|10=000|8=FIX.4.4|9=114|35=0|34=475|49=demo.ctrader.3873996|50=38739962p9cU7O3YXoF7yLJI1fm1w|52=20231226-15:57:48.675|56=cServer|57=QUOTE|10=005|8=FIX.4.4|9=114|35=0|34=476|49=demo.ctrader.3873996|50=38739962p9cU7O3YXoF7yLJI1fm1w|52=20231226-15:58:19.674|56=cServer|57=QUOTE|10=004|8=FIX.4.4|9=114|35=0|34=477|49=demo.ctrader.3873996|50=38739962p9cU7O3YXoF7yLJI1fm1w|52=20231226-15:58:49.682|56=cServer|57=QUOTE|10=007|8=FIX.4.4|9=114|35=0|34=478|49=demo.ctrader.3873996|50=38739962p9cU7O3YXoF7yLJI1fm1w|52=20231226-15:59:20.684|56=cServer|57=QUOTE|10=000|8=FIX.4.4|9=114|35=0|34=479|49=demo.ctrader.3873996|50=38739962p9cU7O3YXoF7yLJI1fm1w|52=20231226-15:59:50.688|56=cServer|57=QUOTE|10=008|8=FIX.4.4|9=114|35=0|34=480|49=demo.ctrader.3873996|50=38739962p9cU7O3YXoF7yLJI1fm1w|52=20231226-16:00:20.695|56=cServer|57=QUOTE|10=238|8=FIX.4.4|9=114|35=0|34=481|49=demo.ctrader.3873996|50=38739962p9cU7O3YXoF7yLJI1fm1w|52=20231226-16:00:51.695|56=cServer|57=QUOTE|10=243|8=FIX.4.4|9=114|35=0|34=482|49=demo.ctrader.3873996|50=38739962p9cU7O3YXoF7yLJI1fm1w|52=20231226-16:01:21.702|56=cServer|57=QUOTE|10=231|8=FIX.4.4|9=114|35=0|34=483|49=demo.ctrader.3873996|50=38739962p9cU7O3YXoF7yLJI1fm1w|52=20231226-16:01:52.703|56=cServer|57=QUOTE|10=237|8=FIX.4.4|9=114|35=0|34=484|49=demo.ctrader.3873996|50=38739962p9cU7O3YXoF7yLJI1fm1w|52=20231226-16:02:22.710|56=cServer|57=QUOTE|10=234|8=FIX.4.4|9=114|35=0|34=485|49=demo.ctrader.3873996|50=38739962p9cU7O3YXoF7yLJI1fm1w|52=20231226-16:02:53.703|56=cServer|57=QUOTE|10=241|8=FIX.4.4|9=114|35=0|34=486|49=demo.ctrader.3873996|50=38739962p9cU7O3YXoF7yLJI1fm1w|52=20231226-16:03:24.706|56=cServer|57=QUOTE|10=244|8=FIX.4.4|9=114|35=0|34=487|49=demo.ctrader.3873996|50=38739962p9cU7O3YXoF7yLJI1fm1w|52=20231226-16:03:54.724|56=cServer|57=QUOTE|10=248|8=FIX.4.4|9=114|35=0|34=488|49=demo.ctrader.3873996|50=38739962p9cU7O3YXoF7yLJI1fm1w|52=20231226-16:04:24.733|56=cServer|57=QUOTE|10=247|8=FIX.4.4|9=114|35=0|34=489|49=demo.ctrader.3873996|50=38739962p9cU7O3YXoF7yLJI1fm1w|52=20231226-16:04:55.736|56=cServer|57=QUOTE|10=255|8=FIX.4.4|9=114|35=0|34=490|49=demo.ctrader.3873996|50=38739962p9cU7O3YXoF7yLJI1fm1w|52=20231226-16:05:26.721|56=cServer|57=QUOTE|10=240|8=FIX.4.4|9=114|35=0|34=491|49=demo.ctrader.3873996|50=38739962p9cU7O3YXoF7yLJI1fm1w|52=20231226-16:05:56.722|56=cServer|57=QUOTE|10=245|8=FIX.4.4|9=114|35=0|34=492|49=demo.ctrader.3873996|50=38739962p9cU7O3YXoF7yLJI1fm1w|52=20231226-16:06:27.727|56=cServer|57=QUOTE|10=250|8=FIX.4.4|9=114|35=0|34=493|49=demo.ctrader.3873996|50=38739962p9cU7O3YXoF7yLJI1fm1w|52=20231226-16:06:58.721|56=cServer|57=QUOTE|10=249|8=FIX.4.4|9=114|35=0|34=494|49=demo.ctrader.3873996|50=38739962p9cU7O3YXoF7yLJI1fm1w|52=20231226-16:07:28.755|56=cServer|57=QUOTE|10=255|8=FIX.4.4|9=114|35=0|34=495|49=demo.ctrader.3873996|50=38739962p9cU7O3YXoF7yLJI1fm1w|52=20231226-16:07:59.739|56=cServer|57=QUOTE|10=006|8=FIX.4.4|9=114|35=0|34=496|49=demo.ctrader.3873996|50=38739962p9cU7O3YXoF7yLJI1fm1w|52=20231226-16:08:29.755|56=cServer|57=QUOTE|10=003|8=FIX.4.4|9=114|35=0|34=497|49=demo.ctrader.3873996|50=38739962p9cU7O3YXoF7yLJI1fm1w|52=20231226-16:08:59.759|56=cServer|57=QUOTE|10=011|8=FIX.4.4|9=114|35=0|34=498|49=demo.ctrader.3873996|50=38739962p9cU7O3YXoF7yLJI1fm1w|52=20231226-16:09:29.795|56=cServer|57=QUOTE|10=010|8=FIX.4.4|9=114|35=0|34=499|49=demo.ctrader.3873996|50=38739962p9cU7O3YXoF7yLJI1fm1w|52=20231226-16:10:00.748|56=cServer|57=QUOTE|10=246|8=FIX.4.4|9=114|35=0|34=500|49=demo.ctrader.3873996|50=38739962p9cU7O3YXoF7yLJI1fm1w|52=20231226-16:10:30.770|56=cServer|57=QUOTE|10=227|8=FIX.4.4|9=114|35=0|34=501|49=demo.ctrader.3873996|50=38739962p9cU7O3YXoF7yLJI1fm1w|52=20231226-16:11:01.769|56=cServer|57=QUOTE|10=235|8=FIX.4.4|9=114|35=0|34=502|49=demo.ctrader.3873996|50=38739962p9cU7O3YXoF7yLJI1fm1w|52=20231226-16:11:32.767|56=cServer|57=QUOTE|10=238|8=FIX.4.4|9=114|35=0|34=503|49=demo.ctrader.3873996|50=38739962p9cU7O3YXoF7yLJI1fm1w|52=20231226-16:12:02.799|56=cServer|57=QUOTE|10=242|8=FIX.4.4|9=114|35=0|34=504|49=demo.ctrader.3873996|50=38739962p9cU7O3YXoF7yLJI1fm1w|52=20231226-16:12:32.811|56=cServer|57=QUOTE|10=231|8=FIX.4.4|9=114|35=0|34=505|49=demo.ctrader.3873996|50=38739962p9cU7O3YXoF7yLJI1fm1w|52=20231226-16:13:03.745|56=cServer|57=QUOTE|10=237|8=FIX.4.4|9=114|35=0|34=506|49=demo.ctrader.3873996|50=38739962p9cU7O3YXoF7yLJI1fm1w|52=20231226-16:13:33.761|56=cServer|57=QUOTE|10=239|8=FIX.4.4|9=114|35=0|34=507|49=demo.ctrader.3873996|50=38739962p9cU7O3YXoF7yLJI1fm1w|52=20231226-16:14:03.780|56=cServer|57=QUOTE|10=239|8=FIX.4.4|9=114|35=0|34=508|49=demo.ctrader.3873996|50=38739962p9cU7O3YXoF7yLJI1fm1w|52=20231226-16:14:33.796|56=cServer|57=QUOTE|10=250|8=FIX.4.4|9=114|35=0|34=509|49=demo.ctrader.3873996|50=38739962p9cU7O3YXoF7yLJI1fm1w|52=20231226-16:15:04.011|56=cServer|57=QUOTE|10=230|8=FIX.4.4|9=114|35=0|34=510|49=demo.ctrader.3873996|50=38739962p9cU7O3YXoF7yLJI1fm1w|52=20231226-16:15:34.806|56=cServer|57=QUOTE|10=237|8=FIX.4.4|9=114|35=0|34=511|49=demo.ctrader.3873996|50=38739962p9cU7O3YXoF7yLJI1fm1w|52=20231226-16:16:04.813|56=cServer|57=QUOTE|10=234|8=FIX.4.4|9=114|35=0|34=512|49=demo.ctrader.3873996|50=38739962p9cU7O3YXoF7yLJI1fm1w|52=20231226-16:16:35.820|56=cServer|57=QUOTE|10=237|8=FIX.4.4|9=114|35=0|34=513|49=demo.ctrader.3873996|50=38739962p9cU7O3YXoF7yLJI1fm1w|52=20231226-16:17:05.834|56=cServer|57=QUOTE|10=241|8=FIX.4.4|9=114|35=0|34=514|49=demo.ctrader.3873996|50=38739962p9cU7O3YXoF7yLJI1fm1w|52=20231226-16:17:36.799|56=cServer|57=QUOTE|10=000|8=FIX.4.4|9=114|35=0|34=515|49=demo.ctrader.3873996|50=38739962p9cU7O3YXoF7yLJI1fm1w|52=20231226-16:18:06.816|56=cServer|57=QUOTE|10=245|8=FIX.4.4|9=114|35=0|34=516|49=demo.ctrader.3873996|50=38739962p9cU7O3YXoF7yLJI1fm1w|52=20231226-16:18:36.833|56=cServer|57=QUOTE|10=248|8=FIX.4.4|9=114|35=0|34=517|49=demo.ctrader.3873996|50=38739962p9cU7O3YXoF7yLJI1fm1w|52=20231226-16:19:07.773|56=cServer|57=QUOTE|10=251|8=FIX.4.4|9=114|35=0|34=518|49=demo.ctrader.3873996|50=38739962p9cU7O3YXoF7yLJI1fm1w|52=20231226-16:19:37.827|56=cServer|57=QUOTE|10=255|8=FIX.4.4|9=114|35=0|34=519|49=demo.ctrader.3873996|50=38739962p9cU7O3YXoF7yLJI1fm1w|52=20231226-16:20:07.834|56=cServer|57=QUOTE|10=243|8=FIX.4.4|9=114|35=0|34=520|49=demo.ctrader.3873996|50=38739962p9cU7O3YXoF7yLJI1fm1w|52=20231226-16:20:37.838|56=cServer|57=QUOTE|10=242|8=FIX.4.4|9=114|35=0|34=521|49=demo.ctrader.3873996|50=38739962p9cU7O3YXoF7yLJI1fm1w|52=20231226-16:21:08.830|56=cServer|57=QUOTE|10=234|8=FIX.4.4|9=114|35=0|34=522|49=demo.ctrader.3873996|50=38739962p9cU7O3YXoF7yLJI1fm1w|52=20231226-16:21:39.836|56=cServer|57=QUOTE|10=245|8=FIX.4.4|9=114|35=0|34=523|49=demo.ctrader.3873996|50=38739962p9cU7O3YXoF7yLJI1fm1w|52=20231226-16:22:10.831|56=cServer|57=QUOTE|10=231|8=FIX.4.4|9=114|35=0|34=524|49=demo.ctrader.3873996|50=38739962p9cU7O3YXoF7yLJI1fm1w|52=20231226-16:22:40.836|56=cServer|57=QUOTE|10=240|8=FIX.4.4|9=114|35=0|34=525|49=demo.ctrader.3873996|50=38739962p9cU7O3YXoF7yLJI1fm1w|52=20231226-16:23:10.846|56=cServer|57=QUOTE|10=240|8=FIX.4.4|9=114|35=0|34=526|49=demo.ctrader.3873996|50=38739962p9cU7O3YXoF7yLJI1fm1w|52=20231226-16:23:41.841|56=cServer|57=QUOTE|10=240|8=FIX.4.4|9=114|35=0|34=527|49=demo.ctrader.3873996|50=38739962p9cU7O3YXoF7yLJI1fm1w|52=20231226-16:24:12.833|56=cServer|57=QUOTE|10=241|8=FIX.4.4|9=114|35=0|34=528|49=demo.ctrader.3873996|50=38739962p9cU7O3YXoF7yLJI1fm1w|52=20231226-16:24:42.850|56=cServer|57=QUOTE|10=244|8=FIX.4.4|9=114|35=0|34=529|49=demo.ctrader.3873996|50=38739962p9cU7O3YXoF7yLJI1fm1w|52=20231226-16:25:12.873|56=cServer|57=QUOTE|10=248|8=FIX.4.4|9=114|35=0|34=530|49=demo.ctrader.3873996|50=38739962p9cU7O3YXoF7yLJI1fm1w|52=20231226-16:25:43.874|56=cServer|57=QUOTE|10=245|8=FIX.4.4|9=114|35=0|34=531|49=demo.ctrader.3873996|50=38739962p9cU7O3YXoF7yLJI1fm1w|52=20231226-16:26:14.847|56=cServer|57=QUOTE|10=245|8=FIX.4.4|9=114|35=0|34=532|49=demo.ctrader.3873996|50=38739962p9cU7O3YXoF7yLJI1fm1w|52=20231226-16:26:45.850|56=cServer|57=QUOTE|10=244|8=FIX.4.4|9=114|35=0|34=533|49=demo.ctrader.3873996|50=38739962p9cU7O3YXoF7yLJI1fm1w|52=20231226-16:27:15.896|56=cServer|57=QUOTE|10=253|8=FIX.4.4|9=114|35=0|34=534|49=demo.ctrader.3873996|50=38739962p9cU7O3YXoF7yLJI1fm1w|52=20231226-16:27:46.886|56=cServer|57=QUOTE|10=001|8=FIX.4.4|9=114|35=0|34=535|49=demo.ctrader.3873996|50=38739962p9cU7O3YXoF7yLJI1fm1w|52=20231226-16:28:17.894|56=cServer|57=QUOTE|10=000|8=FIX.4.4|9=114|35=0|34=536|49=demo.ctrader.3873996|50=38739962p9cU7O3YXoF7yLJI1fm1w|52=20231226-16:28:48.678|56=cServer|57=QUOTE|10=005|8=FIX.4.4|9=114|35=0|34=537|49=demo.ctrader.3873996|50=38739962p9cU7O3YXoF7yLJI1fm1w|52=20231226-16:29:19.692|56=cServer|57=QUOTE|10=001|8=FIX.4.4|9=114|35=0|34=538|49=demo.ctrader.3873996|50=38739962p9cU7O3YXoF7yLJI1fm1w|52=20231226-16:29:50.696|56=cServer|57=QUOTE|10=001|8=FIX.4.4|9=114|35=0|34=539|49=demo.ctrader.3873996|50=38739962p9cU7O3YXoF7yLJI1fm1w|52=20231226-16:30:21.695|56=cServer|57=QUOTE|10=247|8=FIX.4.4|9=114|35=0|34=540|49=demo.ctrader.3873996|50=38739962p9cU7O3YXoF7yLJI1fm1w|52=20231226-16:30:51.709|56=cServer|57=QUOTE|10=238|8=FIX.4.4|9=114|35=0|34=541|49=demo.ctrader.3873996|50=38739962p9cU7O3YXoF7yLJI1fm1w|52=20231226-16:31:22.701|56=cServer|57=QUOTE|10=230|8=FIX.4.4|9=114|35=0|34=542|49=demo.ctrader.3873996|50=38739962p9cU7O3YXoF7yLJI1fm1w|52=20231226-16:31:53.711|56=cServer|57=QUOTE|10=236|8=FIX.4.4|9=114|35=0|34=543|49=demo.ctrader.3873996|50=38739962p9cU7O3YXoF7yLJI1fm1w|52=20231226-16:32:24.711|56=cServer|57=QUOTE|10=236|8=FIX.4.4|9=114|35=0|34=544|49=demo.ctrader.3873996|50=38739962p9cU7O3YXoF7yLJI1fm1w|52=20231226-16:32:55.712|56=cServer|57=QUOTE|10=242|8=FIX.4.4|9=114|35=0|34=545|49=demo.ctrader.3873996|50=38739962p9cU7O3YXoF7yLJI1fm1w|52=20231226-16:33:25.728|56=cServer|57=QUOTE|10=248|8=FIX.4.4|9=114|35=0|34=546|49=demo.ctrader.3873996|50=38739962p9cU7O3YXoF7yLJI1fm1w|52=20231226-16:33:55.750|56=cServer|57=QUOTE|10=247|8=FIX.4.4|9=114|35=0|34=547|49=demo.ctrader.3873996|50=38739962p9cU7O3YXoF7yLJI1fm1w|52=20231226-16:34:26.759|56=cServer|57=QUOTE|10=000|8=FIX.4.4|9=114|35=0|34=548|49=demo.ctrader.3873996|50=38739962p9cU7O3YXoF7yLJI1fm1w|52=20231226-16:34:57.756|56=cServer|57=QUOTE|10=002|8=FIX.4.4|9=114|35=0|34=549|49=demo.ctrader.3873996|50=38739962p9cU7O3YXoF7yLJI1fm1w|52=20231226-16:35:27.760|56=cServer|57=QUOTE|10=252|8=FIX.4.4|9=114|35=0|34=550|49=demo.ctrader.3873996|50=38739962p9cU7O3YXoF7yLJI1fm1w|52=20231226-16:35:58.746|56=cServer|57=QUOTE|10=252|8=FIX.4.4|9=114|35=0|34=551|49=demo.ctrader.3873996|50=38739962p9cU7O3YXoF7yLJI1fm1w|52=20231226-16:36:29.735|56=cServer|57=QUOTE|10=250|8=FIX.4.4|9=114|35=0|34=552|49=demo.ctrader.3873996|50=38739962p9cU7O3YXoF7yLJI1fm1w|52=20231226-16:36:59.768|56=cServer|57=QUOTE|10=004|8=FIX.4.4|9=114|35=0|34=553|49=demo.ctrader.3873996|50=38739962p9cU7O3YXoF7yLJI1fm1w|52=20231226-16:37:29.775|56=cServer|57=QUOTE|10=001|8=FIX.4.4|9=114|35=0|34=554|49=demo.ctrader.3873996|50=38739962p9cU7O3YXoF7yLJI1fm1w|52=20231226-16:38:00.753|56=cServer|57=QUOTE|10=244|8=FIX.4.4|9=114|35=0|34=555|49=demo.ctrader.3873996|50=38739962p9cU7O3YXoF7yLJI1fm1w|52=20231226-16:38:30.754|56=cServer|57=QUOTE|10=249|8=FIX.4.4|9=114|35=0|34=556|49=demo.ctrader.3873996|50=38739962p9cU7O3YXoF7yLJI1fm1w|52=20231226-16:39:01.004|56=cServer|57=QUOTE|10=237|8=FIX.4.4|9=114|35=0|34=557|49=demo.ctrader.3873996|50=38739962p9cU7O3YXoF7yLJI1fm1w|52=20231226-16:39:31.766|56=cServer|57=QUOTE|10=000|8=FIX.4.4|9=114|35=0|34=558|49=demo.ctrader.3873996|50=38739962p9cU7O3YXoF7yLJI1fm1w|52=20231226-16:40:02.761|56=cServer|57=QUOTE|10=242|8=FIX.4.4|9=114|35=0|34=559|49=demo.ctrader.3873996|50=38739962p9cU7O3YXoF7yLJI1fm1w|52=20231226-16:40:32.787|56=cServer|57=QUOTE|10=254|8=FIX.4.4|9=114|35=0|34=560|49=demo.ctrader.3873996|50=38739962p9cU7O3YXoF7yLJI1fm1w|52=20231226-16:41:03.776|56=cServer|57=QUOTE|10=243|8=FIX.4.4|9=114|35=0|34=561|49=demo.ctrader.3873996|50=38739962p9cU7O3YXoF7yLJI1fm1w|52=20231226-16:41:33.806|56=cServer|57=QUOTE|10=241|8=FIX.4.4|9=114|35=0|34=562|49=demo.ctrader.3873996|50=38739962p9cU7O3YXoF7yLJI1fm1w|52=20231226-16:42:04.791|56=cServer|57=QUOTE|10=244|8=FIX.4.4|9=114|35=0|34=563|49=demo.ctrader.3873996|50=38739962p9cU7O3YXoF7yLJI1fm1w|52=20231226-16:42:35.786|56=cServer|57=QUOTE|10=253|8=FIX.4.4|9=114|35=0|34=564|49=demo.ctrader.3873996|50=38739962p9cU7O3YXoF7yLJI1fm1w|52=20231226-16:43:06.779|56=cServer|57=QUOTE|10=255|8=FIX.4.4|9=114|35=0|34=565|49=demo.ctrader.3873996|50=38739962p9cU7O3YXoF7yLJI1fm1w|52=20231226-16:43:37.458|56=cServer|57=QUOTE|10=254|8=FIX.4.4|9=114|35=0|34=566|49=demo.ctrader.3873996|50=38739962p9cU7O3YXoF7yLJI1fm1w|52=20231226-16:44:08.347|56=cServer|57=QUOTE|10=251|8=FIX.4.4|9=114|35=0|34=567|49=demo.ctrader.3873996|50=38739962p9cU7O3YXoF7yLJI1fm1w|52=20231226-16:44:38.950|56=cServer|57=QUOTE|10=255|8=FIX.4.4|9=114|35=0|34=568|49=demo.ctrader.3873996|50=38739962p9cU7O3YXoF7yLJI1fm1w|52=20231226-16:45:08.963|56=cServer|57=QUOTE|10=002|8=FIX.4.4|9=114|35=0|34=569|49=demo.ctrader.3873996|50=38739962p9cU7O3YXoF7yLJI1fm1w|52=20231226-16:45:39.169|56=cServer|57=QUOTE|10=005|8=FIX.4.4|9=114|35=0|34=570|49=demo.ctrader.3873996|50=38739962p9cU7O3YXoF7yLJI1fm1w|52=20231226-16:46:09.948|56=cServer|57=QUOTE|10=000|8=FIX.4.4|9=114|35=0|34=571|49=demo.ctrader.3873996|50=38739962p9cU7O3YXoF7yLJI1fm1w|52=20231226-16:46:40.886|56=cServer|57=QUOTE|10=253|8=FIX.4.4|9=114|35=0|34=572|49=demo.ctrader.3873996|50=38739962p9cU7O3YXoF7yLJI1fm1w|52=20231226-16:47:11.371|56=cServer|57=QUOTE|10=242|8=FIX.4.4|9=114|35=0|34=573|49=demo.ctrader.3873996|50=38739962p9cU7O3YXoF7yLJI1fm1w|52=20231226-16:47:42.361|56=cServer|57=QUOTE|10=246|8=FIX.4.4|9=114|35=0|34=574|49=demo.ctrader.3873996|50=38739962p9cU7O3YXoF7yLJI1fm1w|52=20231226-16:48:12.831|56=cServer|57=QUOTE|10=247|8=FIX.4.4|9=114|35=0|34=575|49=demo.ctrader.3873996|50=38739962p9cU7O3YXoF7yLJI1fm1w|52=20231226-16:48:43.834|56=cServer|57=QUOTE|10=255|8=FIX.4.4|9=114|35=0|34=576|49=demo.ctrader.3873996|50=38739962p9cU7O3YXoF7yLJI1fm1w|52=20231226-16:49:13.834|56=cServer|57=QUOTE|10=254|8=FIX.4.4|9=114|35=0|34=577|49=demo.ctrader.3873996|50=38739962p9cU7O3YXoF7yLJI1fm1w|52=20231226-16:49:44.824|56=cServer|57=QUOTE|10=002|8=FIX.4.4|9=114|35=0|34=578|49=demo.ctrader.3873996|50=38739962p9cU7O3YXoF7yLJI1fm1w|52=20231226-16:50:14.833|56=cServer|57=QUOTE|10=248|8=FIX.4.4|9=114|35=0|34=579|49=demo.ctrader.3873996|50=38739962p9cU7O3YXoF7yLJI1fm1w|52=20231226-16:50:45.823|56=cServer|57=QUOTE|10=252|8=FIX.4.4|9=114|35=0|34=580|49=demo.ctrader.3873996|50=38739962p9cU7O3YXoF7yLJI1fm1w|52=20231226-16:51:15.868|56=cServer|57=QUOTE|10=251|8=FIX.4.4|9=114|35=0|34=581|49=demo.ctrader.3873996|50=38739962p9cU7O3YXoF7yLJI1fm1w|52=20231226-16:51:46.821|56=cServer|57=QUOTE|10=245|8=FIX.4.4|9=114|35=0|34=582|49=demo.ctrader.3873996|50=38739962p9cU7O3YXoF7yLJI1fm1w|52=20231226-16:52:16.867|56=cServer|57=QUOTE|10=254|8=FIX.4.4|9=114|35=0|34=583|49=demo.ctrader.3873996|50=38739962p9cU7O3YXoF7yLJI1fm1w|52=20231226-16:52:47.844|56=cServer|57=QUOTE|10=254|8=FIX.4.4|9=114|35=0|34=584|49=demo.ctrader.3873996|50=38739962p9cU7O3YXoF7yLJI1fm1w|52=20231226-16:53:17.875|56=cServer|57=QUOTE|10=001|8=FIX.4.4|9=114|35=0|34=585|49=demo.ctrader.3873996|50=38739962p9cU7O3YXoF7yLJI1fm1w|52=20231226-16:53:47.894|56=cServer|57=QUOTE|10=006|8=FIX.4.4|9=114|35=0|34=586|49=demo.ctrader.3873996|50=38739962p9cU7O3YXoF7yLJI1fm1w|52=20231226-16:54:18.689|56=cServer|57=QUOTE|10=008|8=FIX.4.4|9=114|35=0|34=587|49=demo.ctrader.3873996|50=38739962p9cU7O3YXoF7yLJI1fm1w|52=20231226-16:54:49.678|56=cServer|57=QUOTE|10=011|8=FIX.4.4|9=114|35=0|34=588|49=demo.ctrader.3873996|50=38739962p9cU7O3YXoF7yLJI1fm1w|52=20231226-16:55:19.686|56=cServer|57=QUOTE|10=009|8=FIX.4.4|9=114|35=0|34=589|49=demo.ctrader.3873996|50=38739962p9cU7O3YXoF7yLJI1fm1w|52=20231226-16:55:49.687|56=cServer|57=QUOTE|10=014|8=FIX.4.4|9=114|35=0|34=590|49=demo.ctrader.3873996|50=38739962p9cU7O3YXoF7yLJI1fm1w|52=20231226-16:56:20.693|56=cServer|57=QUOTE|10=249|8=FIX.4.4|9=114|35=0|34=591|49=demo.ctrader.3873996|50=38739962p9cU7O3YXoF7yLJI1fm1w|52=20231226-16:56:51.694|56=cServer|57=QUOTE|10=255|8=FIX.4.4|9=114|35=0|34=592|49=demo.ctrader.3873996|50=38739962p9cU7O3YXoF7yLJI1fm1w|52=20231226-16:57:21.705|56=cServer|57=QUOTE|10=247|8=FIX.4.4|9=114|35=0|34=593|49=demo.ctrader.3873996|50=38739962p9cU7O3YXoF7yLJI1fm1w|52=20231226-16:57:52.711|56=cServer|57=QUOTE|10=249|8=FIX.4.4|9=114|35=0|34=594|49=demo.ctrader.3873996|50=38739962p9cU7O3YXoF7yLJI1fm1w|52=20231226-16:58:23.717|56=cServer|57=QUOTE|10=255|8=FIX.4.4|9=114|35=0|34=595|49=demo.ctrader.3873996|50=38739962p9cU7O3YXoF7yLJI1fm1w|52=20231226-16:58:54.703|56=cServer|57=QUOTE|10=255|8=FIX.4.4|9=114|35=0|34=596|49=demo.ctrader.3873996|50=38739962p9cU7O3YXoF7yLJI1fm1w|52=20231226-16:59:24.726|56=cServer|57=QUOTE|10=003|8=FIX.4.4|9=114|35=0|34=597|49=demo.ctrader.3873996|50=38739962p9cU7O3YXoF7yLJI1fm1w|52=20231226-16:59:55.721|56=cServer|57=QUOTE|10=003|8=FIX.4.4|9=114|35=0|34=598|49=demo.ctrader.3873996|50=38739962p9cU7O3YXoF7yLJI1fm1w|52=20231226-17:00:25.722|56=cServer|57=QUOTE|10=245|8=FIX.4.4|9=114|35=0|34=599|49=demo.ctrader.3873996|50=38739962p9cU7O3YXoF7yLJI1fm1w|52=20231226-17:00:55.855|56=cServer|57=QUOTE|10=000|8=FIX.4.4|9=114|35=0|34=600|49=demo.ctrader.3873996|50=38739962p9cU7O3YXoF7yLJI1fm1w|52=20231226-17:01:26.747|56=cServer|57=QUOTE|10=238|8=FIX.4.4|9=114|35=0|34=601|49=demo.ctrader.3873996|50=38739962p9cU7O3YXoF7yLJI1fm1w|52=20231226-17:01:57.739|56=cServer|57=QUOTE|10=244|8=FIX.4.4|9=114|35=0|34=602|49=demo.ctrader.3873996|50=38739962p9cU7O3YXoF7yLJI1fm1w|52=20231226-17:02:28.748|56=cServer|57=QUOTE|10=244|8=FIX.4.4|9=114|35=0|34=603|49=demo.ctrader.3873996|50=38739962p9cU7O3YXoF7yLJI1fm1w|52=20231226-17:02:59.749|56=cServer|57=QUOTE|10=250|8=FIX.4.4|9=114|35=0|34=604|49=demo.ctrader.3873996|50=38739962p9cU7O3YXoF7yLJI1fm1w|52=20231226-17:03:29.756|56=cServer|57=QUOTE|10=247|8=FIX.4.4|9=114|35=0|34=605|49=demo.ctrader.3873996|50=38739962p9cU7O3YXoF7yLJI1fm1w|52=20231226-17:03:59.767|56=cServer|57=QUOTE|10=253|8=FIX.4.4|9=114|35=0|34=606|49=demo.ctrader.3873996|50=38739962p9cU7O3YXoF7yLJI1fm1w|52=20231226-17:04:30.761|56=cServer|57=QUOTE|10=238|8=FIX.4.4|9=114|35=0|34=607|49=demo.ctrader.3873996|50=38739962p9cU7O3YXoF7yLJI1fm1w|52=20231226-17:05:00.764|56=cServer|57=QUOTE|10=240|8=FIX.4.4|9=114|35=0|34=608|49=demo.ctrader.3873996|50=38739962p9cU7O3YXoF7yLJI1fm1w|52=20231226-17:05:30.776|56=cServer|57=QUOTE|10=247|8=FIX.4.4|9=114|35=0|34=609|49=demo.ctrader.3873996|50=38739962p9cU7O3YXoF7yLJI1fm1w|52=20231226-17:06:01.782|56=cServer|57=QUOTE|10=244|8=FIX.4.4|9=114|35=0|34=610|49=demo.ctrader.3873996|50=38739962p9cU7O3YXoF7yLJI1fm1w|52=20231226-17:06:32.776|56=cServer|57=QUOTE|10=243|8=FIX.4.4|9=114|35=0|34=611|49=demo.ctrader.3873996|50=38739962p9cU7O3YXoF7yLJI1fm1w|52=20231226-17:07:02.808|56=cServer|57=QUOTE|10=238|8=FIX.4.4|9=114|35=0|34=612|49=demo.ctrader.3873996|50=38739962p9cU7O3YXoF7yLJI1fm1w|52=20231226-17:07:32.824|56=cServer|57=QUOTE|10=240|8=FIX.4.4|9=114|35=0|34=613|49=demo.ctrader.3873996|50=38739962p9cU7O3YXoF7yLJI1fm1w|52=20231226-17:08:03.789|56=cServer|57=QUOTE|10=250|8=FIX.4.4|9=114|35=0|34=614|49=demo.ctrader.3873996|50=38739962p9cU7O3YXoF7yLJI1fm1w|52=20231226-17:08:34.797|56=cServer|57=QUOTE|10=254|8=FIX.4.4|9=114|35=0|34=615|49=demo.ctrader.3873996|50=38739962p9cU7O3YXoF7yLJI1fm1w|52=20231226-17:09:04.832|56=cServer|57=QUOTE|10=243|8=FIX.4.4|9=114|35=0|34=616|49=demo.ctrader.3873996|50=38739962p9cU7O3YXoF7yLJI1fm1w|52=20231226-17:09:35.825|56=cServer|57=QUOTE|10=250|8=FIX.4.4|9=114|35=0|34=617|49=demo.ctrader.3873996|50=38739962p9cU7O3YXoF7yLJI1fm1w|52=20231226-17:10:06.801|56=cServer|57=QUOTE|10=235|8=FIX.4.4|9=114|35=0|34=618|49=demo.ctrader.3873996|50=38739962p9cU7O3YXoF7yLJI1fm1w|52=20231226-17:10:36.810|56=cServer|57=QUOTE|10=239|8=FIX.4.4|9=114|35=0|34=619|49=demo.ctrader.3873996|50=38739962p9cU7O3YXoF7yLJI1fm1w|52=20231226-17:11:06.814|56=cServer|57=QUOTE|10=242|8=FIX.4.4|9=114|35=0|34=620|49=demo.ctrader.3873996|50=38739962p9cU7O3YXoF7yLJI1fm1w|52=20231226-17:11:36.816|56=cServer|57=QUOTE|10=239|8=FIX.4.4|9=114|35=0|34=621|49=demo.ctrader.3873996|50=38739962p9cU7O3YXoF7yLJI1fm1w|52=20231226-17:12:07.817|56=cServer|57=QUOTE|10=240|8=FIX.4.4|9=114|35=0|34=622|49=demo.ctrader.3873996|50=38739962p9cU7O3YXoF7yLJI1fm1w|52=20231226-17:12:38.818|56=cServer|57=QUOTE|10=246|8=FIX.4.4|9=114|35=0|34=623|49=demo.ctrader.3873996|50=38739962p9cU7O3YXoF7yLJI1fm1w|52=20231226-17:13:08.839|56=cServer|57=QUOTE|10=248|8=FIX.4.4|9=114|35=0|34=624|49=demo.ctrader.3873996|50=38739962p9cU7O3YXoF7yLJI1fm1w|52=20231226-17:13:39.846|56=cServer|57=QUOTE|10=251|8=FIX.4.4|9=114|35=0|34=625|49=demo.ctrader.3873996|50=38739962p9cU7O3YXoF7yLJI1fm1w|52=20231226-17:14:10.843|56=cServer|57=QUOTE|10=239|8=FIX.4.4|9=114|35=0|34=626|49=demo.ctrader.3873996|50=38739962p9cU7O3YXoF7yLJI1fm1w|52=20231226-17:14:40.843|56=cServer|57=QUOTE|10=243|8=FIX.4.4|9=114|35=0|34=627|49=demo.ctrader.3873996|50=38739962p9cU7O3YXoF7yLJI1fm1w|52=20231226-17:15:11.843|56=cServer|57=QUOTE|10=243|8=FIX.4.4|9=114|35=0|34=628|49=demo.ctrader.3873996|50=38739962p9cU7O3YXoF7yLJI1fm1w|52=20231226-17:15:42.823|56=cServer|57=QUOTE|10=246|8=FIX.4.4|9=114|35=0|34=629|49=demo.ctrader.3873996|50=38739962p9cU7O3YXoF7yLJI1fm1w|52=20231226-17:16:12.858|56=cServer|57=QUOTE|10=253|8=FIX.4.4|9=114|35=0|34=630|49=demo.ctrader.3873996|50=38739962p9cU7O3YXoF7yLJI1fm1w|52=20231226-17:16:43.845|56=cServer|57=QUOTE|10=245|8=FIX.4.4|9=114|35=0|34=631|49=demo.ctrader.3873996|50=38739962p9cU7O3YXoF7yLJI1fm1w|52=20231226-17:17:14.834|56=cServer|57=QUOTE|10=243|8=FIX.4.4|9=114|35=0|34=632|49=demo.ctrader.3873996|50=38739962p9cU7O3YXoF7yLJI1fm1w|52=20231226-17:17:44.850|56=cServer|57=QUOTE|10=245|8=FIX.4.4|9=114|35=0|34=633|49=demo.ctrader.3873996|50=38739962p9cU7O3YXoF7yLJI1fm1w|52=20231226-17:18:15.827|56=cServer|57=QUOTE|10=249|8=FIX.4.4|9=114|35=0|34=634|49=demo.ctrader.3873996|50=38739962p9cU7O3YXoF7yLJI1fm1w|52=20231226-17:18:46.833|56=cServer|57=QUOTE|10=251|8=FIX.4.4|9=114|35=0|34=635|49=demo.ctrader.3873996|50=38739962p9cU7O3YXoF7yLJI1fm1w|52=20231226-17:19:16.904|56=cServer|57=QUOTE|10=249|8=FIX.4.4|9=114|35=0|34=636|49=demo.ctrader.3873996|50=38739962p9cU7O3YXoF7yLJI1fm1w|52=20231226-17:19:47.897|56=cServer|57=QUOTE|10=009|8=FIX.4.4|9=114|35=0|34=637|49=demo.ctrader.3873996|50=38739962p9cU7O3YXoF7yLJI1fm1w|52=20231226-17:20:18.674|56=cServer|57=QUOTE|10=249|8=FIX.4.4|9=114|35=0|34=638|49=demo.ctrader.3873996|50=38739962p9cU7O3YXoF7yLJI1fm1w|52=20231226-17:20:48.679|56=cServer|57=QUOTE|10=002|8=FIX.4.4|9=114|35=0|34=639|49=demo.ctrader.3873996|50=38739962p9cU7O3YXoF7yLJI1fm1w|52=20231226-17:21:19.682|56=cServer|57=QUOTE|10=252|8=FIX.4.4|9=114|35=0|34=640|49=demo.ctrader.3873996|50=38739962p9cU7O3YXoF7yLJI1fm1w|52=20231226-17:21:50.688|56=cServer|57=QUOTE|10=245|8=FIX.4.4|9=114|35=0|34=641|49=demo.ctrader.3873996|50=38739962p9cU7O3YXoF7yLJI1fm1w|52=20231226-17:22:20.692|56=cServer|57=QUOTE|10=239|8=FIX.4.4|9=114|35=0|34=642|49=demo.ctrader.3873996|50=38739962p9cU7O3YXoF7yLJI1fm1w|52=20231226-17:22:50.696|56=cServer|57=QUOTE|10=247|8=FIX.4.4|9=114|35=0|34=643|49=demo.ctrader.3873996|50=38739962p9cU7O3YXoF7yLJI1fm1w|52=20231226-17:23:21.693|56=cServer|57=QUOTE|10=244|8=FIX.4.4|9=114|35=0|34=644|49=demo.ctrader.3873996|50=38739962p9cU7O3YXoF7yLJI1fm1w|52=20231226-17:23:51.694|56=cServer|57=QUOTE|10=249|8=FIX.4.4|9=114|35=0|34=645|49=demo.ctrader.3873996|50=38739962p9cU7O3YXoF7yLJI1fm1w|52=20231226-17:24:21.695|56=cServer|57=QUOTE|10=249|8=FIX.4.4|9=114|35=0|34=646|49=demo.ctrader.3873996|50=38739962p9cU7O3YXoF7yLJI1fm1w|52=20231226-17:24:52.696|56=cServer|57=QUOTE|10=255|8=FIX.4.4|9=114|35=0|34=647|49=demo.ctrader.3873996|50=38739962p9cU7O3YXoF7yLJI1fm1w|52=20231226-17:25:23.705|56=cServer|57=QUOTE|10=246|8=FIX.4.4|9=114|35=0|34=648|49=demo.ctrader.3873996|50=38739962p9cU7O3YXoF7yLJI1fm1w|52=20231226-17:25:53.720|56=cServer|57=QUOTE|10=247|8=FIX.4.4|9=114|35=0|34=649|49=demo.ctrader.3873996|50=38739962p9cU7O3YXoF7yLJI1fm1w|52=20231226-17:26:24.723|56=cServer|57=QUOTE|10=250|8=FIX.4.4|9=114|35=0|34=650|49=demo.ctrader.3873996|50=38739962p9cU7O3YXoF7yLJI1fm1w|52=20231226-17:26:54.726|56=cServer|57=QUOTE|10=248|8=FIX.4.4|9=114|35=0|34=651|49=demo.ctrader.3873996|50=38739962p9cU7O3YXoF7yLJI1fm1w|52=20231226-17:27:25.726|56=cServer|57=QUOTE|10=248|8=FIX.4.4|9=114|35=0|34=652|49=demo.ctrader.3873996|50=38739962p9cU7O3YXoF7yLJI1fm1w|52=20231226-17:27:56.716|56=cServer|57=QUOTE|10=252|8=FIX.4.4|9=114|35=0|34=653|49=demo.ctrader.3873996|50=38739962p9cU7O3YXoF7yLJI1fm1w|52=20231226-17:28:26.726|56=cServer|57=QUOTE|10=252|8=FIX.4.4|9=114|35=0|34=654|49=demo.ctrader.3873996|50=38739962p9cU7O3YXoF7yLJI1fm1w|52=20231226-17:28:56.742|56=cServer|57=QUOTE|10=254|8=FIX.4.4|9=114|35=0|34=655|49=demo.ctrader.3873996|50=38739962p9cU7O3YXoF7yLJI1fm1w|52=20231226-17:29:27.727|56=cServer|57=QUOTE|10=001|8=FIX.4.4|9=114|35=0|34=656|49=demo.ctrader.3873996|50=38739962p9cU7O3YXoF7yLJI1fm1w|52=20231226-17:29:57.743|56=cServer|57=QUOTE|10=003|8=FIX.4.4|9=114|35=0|34=657|49=demo.ctrader.3873996|50=38739962p9cU7O3YXoF7yLJI1fm1w|52=20231226-17:30:28.749|56=cServer|57=QUOTE|10=000|8=FIX.4.4|9=114|35=0|34=658|49=demo.ctrader.3873996|50=38739962p9cU7O3YXoF7yLJI1fm1w|52=20231226-17:30:59.738|56=cServer|57=QUOTE|10=003|8=FIX.4.4|9=114|35=0|34=659|49=demo.ctrader.3873996|50=38739962p9cU7O3YXoF7yLJI1fm1w|52=20231226-17:31:29.765|56=cServer|57=QUOTE|10=002|8=FIX.4.4|9=114|35=0|34=660|49=demo.ctrader.3873996|50=38739962p9cU7O3YXoF7yLJI1fm1w|52=20231226-17:32:00.771|56=cServer|57=QUOTE|10=237|8=FIX.4.4|9=114|35=0|34=661|49=demo.ctrader.3873996|50=38739962p9cU7O3YXoF7yLJI1fm1w|52=20231226-17:32:31.760|56=cServer|57=QUOTE|10=240|8=FIX.4.4|9=114|35=0|34=662|49=demo.ctrader.3873996|50=38739962p9cU7O3YXoF7yLJI1fm1w|52=20231226-17:33:02.764|56=cServer|57=QUOTE|10=244|8=FIX.4.4|9=114|35=0|34=663|49=demo.ctrader.3873996|50=38739962p9cU7O3YXoF7yLJI1fm1w|52=20231226-17:33:32.772|56=cServer|57=QUOTE|10=247|8=FIX.4.4|9=114|35=0|34=664|49=demo.ctrader.3873996|50=38739962p9cU7O3YXoF7yLJI1fm1w|52=20231226-17:34:02.800|56=cServer|57=QUOTE|10=238|8=FIX.4.4|9=114|35=0|34=665|49=demo.ctrader.3873996|50=38739962p9cU7O3YXoF7yLJI1fm1w|52=20231226-17:34:33.795|56=cServer|57=QUOTE|10=000|8=FIX.4.4|9=114|35=0|34=666|49=demo.ctrader.3873996|50=38739962p9cU7O3YXoF7yLJI1fm1w|52=20231226-17:35:04.800|56=cServer|57=QUOTE|10=243|8=FIX.4.4|9=114|35=0|34=667|49=demo.ctrader.3873996|50=38739962p9cU7O3YXoF7yLJI1fm1w|52=20231226-17:35:34.992|56=cServer|57=QUOTE|10=003|8=FIX.4.4|9=114|35=0|34=668|49=demo.ctrader.3873996|50=38739962p9cU7O3YXoF7yLJI1fm1w|52=20231226-17:36:05.815|56=cServer|57=QUOTE|10=253|8=FIX.4.4|9=114|35=0|34=669|49=demo.ctrader.3873996|50=38739962p9cU7O3YXoF7yLJI1fm1w|52=20231226-17:36:36.820|56=cServer|57=QUOTE|10=254|8=FIX.4.4|9=114|35=0|34=670|49=demo.ctrader.3873996|50=38739962p9cU7O3YXoF7yLJI1fm1w|52=20231226-17:37:07.824|56=cServer|57=QUOTE|10=249|8=FIX.4.4|9=114|35=0|34=671|49=demo.ctrader.3873996|50=38739962p9cU7O3YXoF7yLJI1fm1w|52=20231226-17:37:38.780|56=cServer|57=QUOTE|10=255|8=FIX.4.4|9=114|35=0|34=672|49=demo.ctrader.3873996|50=38739962p9cU7O3YXoF7yLJI1fm1w|52=20231226-17:38:08.816|56=cServer|57=QUOTE|10=254|8=FIX.4.4|9=114|35=0|34=673|49=demo.ctrader.3873996|50=38739962p9cU7O3YXoF7yLJI1fm1w|52=20231226-17:38:38.817|56=cServer|57=QUOTE|10=003|8=FIX.4.4|9=114|35=0|34=674|49=demo.ctrader.3873996|50=38739962p9cU7O3YXoF7yLJI1fm1w|52=20231226-17:39:08.829|56=cServer|57=QUOTE|10=005|8=FIX.4.4|9=114|35=0|34=675|49=demo.ctrader.3873996|50=38739962p9cU7O3YXoF7yLJI1fm1w|52=20231226-17:39:39.825|56=cServer|57=QUOTE|10=006|8=FIX.4.4|9=114|35=0|34=676|49=demo.ctrader.3873996|50=38739962p9cU7O3YXoF7yLJI1fm1w|52=20231226-17:40:10.795|56=cServer|57=QUOTE|10=250|8=FIX.4.4|9=114|35=0|34=677|49=demo.ctrader.3873996|50=38739962p9cU7O3YXoF7yLJI1fm1w|52=20231226-17:40:40.834|56=cServer|57=QUOTE|10=248|8=FIX.4.4|9=114|35=0|34=678|49=demo.ctrader.3873996|50=38739962p9cU7O3YXoF7yLJI1fm1w|52=20231226-17:41:11.836|56=cServer|57=QUOTE|10=250|8=FIX.4.4|9=114|35=0|34=679|49=demo.ctrader.3873996|50=38739962p9cU7O3YXoF7yLJI1fm1w|52=20231226-17:41:41.856|56=cServer|57=QUOTE|10=000|8=FIX.4.4|9=114|35=0|34=680|49=demo.ctrader.3873996|50=38739962p9cU7O3YXoF7yLJI1fm1w|52=20231226-17:42:12.853|56=cServer|57=QUOTE|10=244|8=FIX.4.4|9=114|35=0|34=681|49=demo.ctrader.3873996|50=38739962p9cU7O3YXoF7yLJI1fm1w|52=20231226-17:42:42.878|56=cServer|57=QUOTE|10=255|8=FIX.4.4|9=114|35=0|34=682|49=demo.ctrader.3873996|50=38739962p9cU7O3YXoF7yLJI1fm1w|52=20231226-17:43:13.869|56=cServer|57=QUOTE|10=255|8=FIX.4.4|9=114|35=0|34=683|49=demo.ctrader.3873996|50=38739962p9cU7O3YXoF7yLJI1fm1w|52=20231226-17:43:43.876|56=cServer|57=QUOTE|10=001|8=FIX.4.4|9=114|35=0|34=684|49=demo.ctrader.3873996|50=38739962p9cU7O3YXoF7yLJI1fm1w|52=20231226-17:44:14.872|56=cServer|57=QUOTE|10=253|8=FIX.4.4|9=114|35=0|34=685|49=demo.ctrader.3873996|50=38739962p9cU7O3YXoF7yLJI1fm1w|52=20231226-17:44:44.874|56=cServer|57=QUOTE|10=003|8=FIX.4.4|9=114|35=0|34=686|49=demo.ctrader.3873996|50=38739962p9cU7O3YXoF7yLJI1fm1w|52=20231226-17:45:14.891|56=cServer|57=QUOTE|10=001|8=FIX.4.4|9=114|35=0|34=687|49=demo.ctrader.3873996|50=38739962p9cU7O3YXoF7yLJI1fm1w|52=20231226-17:45:45.872|56=cServer|57=QUOTE|10=005|8=FIX.4.4|9=114|35=0|34=688|49=demo.ctrader.3873996|50=38739962p9cU7O3YXoF7yLJI1fm1w|52=20231226-17:46:15.891|56=cServer|57=QUOTE|10=005|8=FIX.4.4|9=114|35=0|34=689|49=demo.ctrader.3873996|50=38739962p9cU7O3YXoF7yLJI1fm1w|52=20231226-17:46:45.914|56=cServer|57=QUOTE|10=005|8=FIX.4.4|9=114|35=0|34=690|49=demo.ctrader.3873996|50=38739962p9cU7O3YXoF7yLJI1fm1w|52=20231226-17:47:16.866|56=cServer|57=QUOTE|10=002|8=FIX.4.4|9=114|35=0|34=691|49=demo.ctrader.3873996|50=38739962p9cU7O3YXoF7yLJI1fm1w|52=20231226-17:47:46.885|56=cServer|57=QUOTE|10=007|8=FIX.4.4|9=114|35=0|34=692|49=demo.ctrader.3873996|50=38739962p9cU7O3YXoF7yLJI1fm1w|52=20231226-17:48:17.868|56=cServer|57=QUOTE|10=008|8=FIX.4.4|9=114|35=0|34=693|49=demo.ctrader.3873996|50=38739962p9cU7O3YXoF7yLJI1fm1w|52=20231226-17:48:47.874|56=cServer|57=QUOTE|10=009|8=FIX.4.4|9=114|35=0|34=694|49=demo.ctrader.3873996|50=38739962p9cU7O3YXoF7yLJI1fm1w|52=20231226-17:49:17.988|56=cServer|57=QUOTE|10=014|8=FIX.4.4|9=114|35=0|34=695|49=demo.ctrader.3873996|50=38739962p9cU7O3YXoF7yLJI1fm1w|52=20231226-17:49:48.674|56=cServer|57=QUOTE|10=011|8=FIX.4.4|9=114|35=0|34=696|49=demo.ctrader.3873996|50=38739962p9cU7O3YXoF7yLJI1fm1w|52=20231226-17:50:19.684|56=cServer|57=QUOTE|10=003|8=FIX.4.4|9=114|35=0|34=697|49=demo.ctrader.3873996|50=38739962p9cU7O3YXoF7yLJI1fm1w|52=20231226-17:50:50.688|56=cServer|57=QUOTE|10=003|8=FIX.4.4|9=114|35=0|34=698|49=demo.ctrader.3873996|50=38739962p9cU7O3YXoF7yLJI1fm1w|52=20231226-17:51:21.692|56=cServer|57=QUOTE|10=254|8=FIX.4.4|9=114|35=0|34=699|49=demo.ctrader.3873996|50=38739962p9cU7O3YXoF7yLJI1fm1w|52=20231226-17:51:52.692|56=cServer|57=QUOTE|10=003|8=FIX.4.4|9=114|35=0|34=700|49=demo.ctrader.3873996|50=38739962p9cU7O3YXoF7yLJI1fm1w|52=20231226-17:52:23.702|56=cServer|57=QUOTE|10=233|8=FIX.4.4|9=114|35=0|34=701|49=demo.ctrader.3873996|50=38739962p9cU7O3YXoF7yLJI1fm1w|52=20231226-17:52:53.704|56=cServer|57=QUOTE|10=239|8=FIX.4.4|9=114|35=0|34=702|49=demo.ctrader.3873996|50=38739962p9cU7O3YXoF7yLJI1fm1w|52=20231226-17:53:23.718|56=cServer|57=QUOTE|10=243|8=FIX.4.4|9=114|35=0|34=703|49=demo.ctrader.3873996|50=38739962p9cU7O3YXoF7yLJI1fm1w|52=20231226-17:53:54.717|56=cServer|57=QUOTE|10=247|8=FIX.4.4|9=114|35=0|34=704|49=demo.ctrader.3873996|50=38739962p9cU7O3YXoF7yLJI1fm1w|52=20231226-17:54:25.714|56=cServer|57=QUOTE|10=244|8=FIX.4.4|9=114|35=0|34=705|49=demo.ctrader.3873996|50=38739962p9cU7O3YXoF7yLJI1fm1w|52=20231226-17:54:55.715|56=cServer|57=QUOTE|10=249|8=FIX.4.4|9=114|35=0|34=706|49=demo.ctrader.3873996|50=38739962p9cU7O3YXoF7yLJI1fm1w|52=20231226-17:55:25.757|56=cServer|57=QUOTE|10=254|8=FIX.4.4|9=114|35=0|34=707|49=demo.ctrader.3873996|50=38739962p9cU7O3YXoF7yLJI1fm1w|52=20231226-17:55:56.739|56=cServer|57=QUOTE|10=003|8=FIX.4.4|9=114|35=0|34=708|49=demo.ctrader.3873996|50=38739962p9cU7O3YXoF7yLJI1fm1w|52=20231226-17:56:26.767|56=cServer|57=QUOTE|10=003|8=FIX.4.4|9=114|35=0|34=709|49=demo.ctrader.3873996|50=38739962p9cU7O3YXoF7yLJI1fm1w|52=20231226-17:56:57.744|56=cServer|57=QUOTE|10=003|8=FIX.4.4|9=114|35=0|34=710|49=demo.ctrader.3873996|50=38739962p9cU7O3YXoF7yLJI1fm1w|52=20231226-17:57:28.747|56=cServer|57=QUOTE|10=253|8=FIX.4.4|9=114|35=0|34=711|49=demo.ctrader.3873996|50=38739962p9cU7O3YXoF7yLJI1fm1w|52=20231226-17:57:59.735|56=cServer|57=QUOTE|10=255|8=FIX.4.4|9=114|35=0|34=712|49=demo.ctrader.3873996|50=38739962p9cU7O3YXoF7yLJI1fm1w|52=20231226-17:58:29.735|56=cServer|57=QUOTE|10=254|8=FIX.4.4|9=114|35=0|34=713|49=demo.ctrader.3873996|50=38739962p9cU7O3YXoF7yLJI1fm1w|52=20231226-17:58:59.759|56=cServer|57=QUOTE|10=008|8=FIX.4.4|9=114|35=0|34=714|49=demo.ctrader.3873996|50=38739962p9cU7O3YXoF7yLJI1fm1w|52=20231226-17:59:30.758|56=cServer|57=QUOTE|10=254|8=FIX.4.4|9=114|35=0|34=715|49=demo.ctrader.3873996|50=38739962p9cU7O3YXoF7yLJI1fm1w|52=20231226-18:00:01.751|56=cServer|57=QUOTE|10=233|8=FIX.4.4|9=114|35=0|34=716|49=demo.ctrader.3873996|50=38739962p9cU7O3YXoF7yLJI1fm1w|52=20231226-18:00:31.778|56=cServer|57=QUOTE|10=246|8=FIX.4.4|9=114|35=0|34=717|49=demo.ctrader.3873996|50=38739962p9cU7O3YXoF7yLJI1fm1w|52=20231226-18:01:02.773|56=cServer|57=QUOTE|10=241|8=FIX.4.4|9=114|35=0|34=718|49=demo.ctrader.3873996|50=38739962p9cU7O3YXoF7yLJI1fm1w|52=20231226-18:01:33.769|56=cServer|57=QUOTE|10=251|8=FIX.4.4|9=114|35=0|34=719|49=demo.ctrader.3873996|50=38739962p9cU7O3YXoF7yLJI1fm1w|52=20231226-18:02:03.795|56=cServer|57=QUOTE|10=249|8=FIX.4.4|9=114|35=0|34=720|49=demo.ctrader.3873996|50=38739962p9cU7O3YXoF7yLJI1fm1w|52=20231226-18:02:34.786|56=cServer|57=QUOTE|10=245|8=FIX.4.4|9=114|35=0|34=721|49=demo.ctrader.3873996|50=38739962p9cU7O3YXoF7yLJI1fm1w|52=20231226-18:03:05.788|56=cServer|57=QUOTE|10=247|8=FIX.4.4|9=114|35=0|34=722|49=demo.ctrader.3873996|50=38739962p9cU7O3YXoF7yLJI1fm1w|52=20231226-18:03:35.810|56=cServer|57=QUOTE|10=237|8=FIX.4.4|9=114|35=0|34=723|49=demo.ctrader.3873996|50=38739962p9cU7O3YXoF7yLJI1fm1w|52=20231226-18:04:06.771|56=cServer|57=QUOTE|10=243|8=FIX.4.4|9=114|35=0|34=724|49=demo.ctrader.3873996|50=38739962p9cU7O3YXoF7yLJI1fm1w|52=20231226-18:04:36.801|56=cServer|57=QUOTE|10=241|8=FIX.4.4|9=114|35=0|34=725|49=demo.ctrader.3873996|50=38739962p9cU7O3YXoF7yLJI1fm1w|52=20231226-18:05:06.816|56=cServer|57=QUOTE|10=246|8=FIX.4.4|9=114|35=0|34=726|49=demo.ctrader.3873996|50=38739962p9cU7O3YXoF7yLJI1fm1w|52=20231226-18:05:37.810|56=cServer|57=QUOTE|10=245|8=FIX.4.4|9=114|35=0|34=727|49=demo.ctrader.3873996|50=38739962p9cU7O3YXoF7yLJI1fm1w|52=20231226-18:06:07.834|56=cServer|57=QUOTE|10=250|8=FIX.4.4|9=114|35=0|34=728|49=demo.ctrader.3873996|50=38739962p9cU7O3YXoF7yLJI1fm1w|52=20231226-18:06:38.812|56=cServer|57=QUOTE|10=251|8=FIX.4.4|9=114|35=0|34=729|49=demo.ctrader.3873996|50=38739962p9cU7O3YXoF7yLJI1fm1w|52=20231226-18:07:09.776|56=cServer|57=QUOTE|10=004|8=FIX.4.4|9=114|35=0|34=730|49=demo.ctrader.3873996|50=38739962p9cU7O3YXoF7yLJI1fm1w|52=202312