8=FIX.4.4|9=244|35=A|34=1|49=demo.ctrader.3873996|50=3873996q_EqujxmZA4EicCYew4wmw|52=20231227-10:56:55.609|56=cServer|57=TRADE|49=demo.ctrader.3873996|50=3873996q_EqujxmZA4EicCYew4wmw|52=20231227-10:56:55|56=cServer|98=0|108=30|141=Y|553=3873996|554=Gtlfx125|10=207|8=FIX.4.4|9=130|35=x|34=2|49=demo.ctrader.3873996|50=3873996q_EqujxmZA4EicCYew4wmw|52=20231227-10:56:56.199|56=cServer|57=TRADE|320=symbols|559=0|10=235|8=FIX.4.4|9=127|35=AN|34=3|49=demo.ctrader.3873996|50=3873996q_EqujxmZA4EicCYew4wmw|52=20231227-10:56:56.436|56=cServer|57=TRADE|710=Positions|10=180|8=FIX.4.4|9=130|35=AF|34=4|49=demo.ctrader.3873996|50=3873996q_EqujxmZA4EicCYew4wmw|52=20231227-10:56:56.437|56=cServer|57=TRADE|584=Orders|585=7|10=111|8=FIX.4.4|9=178|35=D|34=5|49=demo.ctrader.3873996|50=3873996q_EqujxmZA4EicCYew4wmw|52=20231227-10:57:12.736|56=cServer|57=TRADE|11=New Order|38=1000|40=1|54=1|55=2|59=3|60=20231227-15:57:12.710|10=086|8=FIX.4.4|9=127|35=AN|34=6|49=demo.ctrader.3873996|50=3873996q_EqujxmZA4EicCYew4wmw|52=20231227-10:57:13.195|56=cServer|57=TRADE|710=Positions|10=179|8=FIX.4.4|9=112|35=0|34=7|49=demo.ctrader.3873996|50=3873996q_EqujxmZA4EicCYew4wmw|52=20231227-10:57:43.610|56=cServer|57=TRADE|10=172|8=FIX.4.4|9=112|35=0|34=8|49=demo.ctrader.3873996|50=3873996q_EqujxmZA4EicCYew4wmw|52=20231227-10:58:13.704|56=cServer|57=TRADE|10=175|8=FIX.4.4|9=112|35=0|34=9|49=demo.ctrader.3873996|50=3873996q_EqujxmZA4EicCYew4wmw|52=20231227-10:58:43.706|56=cServer|57=TRADE|10=181|8=FIX.4.4|9=113|35=0|34=10|49=demo.ctrader.3873996|50=3873996q_EqujxmZA4EicCYew4wmw|52=20231227-10:59:13.710|56=cServer|57=TRADE|10=215|8=FIX.4.4|9=113|35=0|34=11|49=demo.ctrader.3873996|50=3873996q_EqujxmZA4EicCYew4wmw|52=20231227-10:59:44.719|56=cServer|57=TRADE|10=229|8=FIX.4.4|9=113|35=0|34=12|49=demo.ctrader.3873996|50=3873996q_EqujxmZA4EicCYew4wmw|52=20231227-11:00:14.719|56=cServer|57=TRADE|10=214|8=FIX.4.4|9=113|35=0|34=13|49=demo.ctrader.3873996|50=3873996q_EqujxmZA4EicCYew4wmw|52=20231227-11:00:45.714|56=cServer|57=TRADE|10=214|8=FIX.4.4|9=113|35=0|34=14|49=demo.ctrader.3873996|50=3873996q_EqujxmZA4EicCYew4wmw|52=20231227-11:01:15.738|56=cServer|57=TRADE|10=219|8=FIX.4.4|9=113|35=0|34=15|49=demo.ctrader.3873996|50=3873996q_EqujxmZA4EicCYew4wmw|52=20231227-11:01:46.728|56=cServer|57=TRADE|10=223|8=FIX.4.4|9=113|35=0|34=16|49=demo.ctrader.3873996|50=3873996q_EqujxmZA4EicCYew4wmw|52=20231227-11:02:17.731|56=cServer|57=TRADE|10=217|