8=FIX.4.4|9=244|35=A|34=1|49=demo.ctrader.3873996|50=3873996B5jR96irkViOk9kfTDz9ww|52=20231227-10:47:22.988|56=cServer|57=TRADE|49=demo.ctrader.3873996|50=3873996B5jR96irkViOk9kfTDz9ww|52=20231227-10:47:22|56=cServer|98=0|108=30|141=Y|553=3873996|554=Gtlfx125|10=179|8=FIX.4.4|9=130|35=x|34=2|49=demo.ctrader.3873996|50=3873996B5jR96irkViOk9kfTDz9ww|52=20231227-10:47:23.590|56=cServer|57=TRADE|320=symbols|559=0|10=083|8=FIX.4.4|9=127|35=AN|34=3|49=demo.ctrader.3873996|50=3873996B5jR96irkViOk9kfTDz9ww|52=20231227-10:47:23.929|56=cServer|57=TRADE|710=Positions|10=040|8=FIX.4.4|9=130|35=AF|34=4|49=demo.ctrader.3873996|50=3873996B5jR96irkViOk9kfTDz9ww|52=20231227-10:47:23.930|56=cServer|57=TRADE|584=Orders|585=7|10=218|8=FIX.4.4|9=112|35=0|34=5|49=demo.ctrader.3873996|50=3873996B5jR96irkViOk9kfTDz9ww|52=20231227-10:47:54.317|56=cServer|57=TRADE|10=034|8=FIX.4.4|9=112|35=0|34=6|49=demo.ctrader.3873996|50=3873996B5jR96irkViOk9kfTDz9ww|52=20231227-10:48:24.576|56=cServer|57=TRADE|10=040|8=FIX.4.4|9=112|35=0|34=7|49=demo.ctrader.3873996|50=3873996B5jR96irkViOk9kfTDz9ww|52=20231227-10:48:54.812|56=cServer|57=TRADE|10=037|8=FIX.4.4|9=112|35=0|34=8|49=demo.ctrader.3873996|50=3873996B5jR96irkViOk9kfTDz9ww|52=20231227-10:49:25.711|56=cServer|57=TRADE|10=035|8=FIX.4.4|9=112|35=0|34=9|49=demo.ctrader.3873996|50=3873996B5jR96irkViOk9kfTDz9ww|52=20231227-10:49:56.714|56=cServer|57=TRADE|10=043|8=FIX.4.4|9=113|35=0|34=10|49=demo.ctrader.3873996|50=3873996B5jR96irkViOk9kfTDz9ww|52=20231227-10:50:26.731|56=cServer|57=TRADE|10=072|