8=FIX.4.4|9=244|35=A|34=1|49=demo.ctrader.3873996|50=3873996lpC268b_vaBZlyF9KsTm9w|52=20231228-06:32:15.079|56=cServer|57=QUOTE|49=demo.ctrader.3873996|50=3873996lpC268b_vaBZlyF9KsTm9w|52=20231228-06:32:15|56=cServer|98=0|108=30|141=Y|553=3873996|554=Gtlfx125|10=144|8=FIX.4.4|9=170|35=V|34=2|49=demo.ctrader.3873996|50=3873996lpC268b_vaBZlyF9KsTm9w|52=20231228-06:32:15.934|56=cServer|57=QUOTE|262=MARKETDATAID|263=1|264=1|267=2|269=0|269=1|146=1|55=1|10=180|8=FIX.4.4|9=170|35=V|34=3|49=demo.ctrader.3873996|50=3873996lpC268b_vaBZlyF9KsTm9w|52=20231228-06:32:15.935|56=cServer|57=QUOTE|262=MARKETDATAID|263=1|264=1|267=2|269=0|269=1|146=1|55=2|10=183|8=FIX.4.4|9=170|35=V|34=4|49=demo.ctrader.3873996|50=3873996lpC268b_vaBZlyF9KsTm9w|52=20231228-06:32:15.936|56=cServer|57=QUOTE|262=MARKETDATAID|263=1|264=1|267=2|269=0|269=1|146=1|55=3|10=186|8=FIX.4.4|9=170|35=V|34=5|49=demo.ctrader.3873996|50=3873996lpC268b_vaBZlyF9KsTm9w|52=20231228-06:32:15.936|56=cServer|57=QUOTE|262=MARKETDATAID|263=1|264=1|267=2|269=0|269=1|146=1|55=4|10=188|8=FIX.4.4|9=170|35=V|34=6|49=demo.ctrader.3873996|50=3873996lpC268b_vaBZlyF9KsTm9w|52=20231228-06:32:15.936|56=cServer|57=QUOTE|262=MARKETDATAID|263=1|264=1|267=2|269=0|269=1|146=1|55=5|10=190|8=FIX.4.4|9=170|35=V|34=7|49=demo.ctrader.3873996|50=3873996lpC268b_vaBZlyF9KsTm9w|52=20231228-06:32:15.936|56=cServer|57=QUOTE|262=MARKETDATAID|263=1|264=1|267=2|269=0|269=1|146=1|55=6|10=192|8=FIX.4.4|9=170|35=V|34=8|49=demo.ctrader.3873996|50=3873996lpC268b_vaBZlyF9KsTm9w|52=20231228-06:32:15.937|56=cServer|57=QUOTE|262=MARKETDATAID|263=1|264=1|267=2|269=0|269=1|146=1|55=7|10=195|8=FIX.4.4|9=170|35=V|34=9|49=demo.ctrader.3873996|50=3873996lpC268b_vaBZlyF9KsTm9w|52=20231228-06:32:15.937|56=cServer|57=QUOTE|262=MARKETDATAID|263=1|264=1|267=2|269=0|269=1|146=1|55=8|10=197|8=FIX.4.4|9=171|35=V|34=10|49=demo.ctrader.3873996|50=3873996lpC268b_vaBZlyF9KsTm9w|52=20231228-06:32:15.937|56=cServer|57=QUOTE|262=MARKETDATAID|263=1|264=1|267=2|269=0|269=1|146=1|55=9|10=239|8=FIX.4.4|9=172|35=V|34=11|49=demo.ctrader.3873996|50=3873996lpC268b_vaBZlyF9KsTm9w|52=20231228-06:32:15.937|56=cServer|57=QUOTE|262=MARKETDATAID|263=1|264=1|267=2|269=0|269=1|146=1|55=10|10=025|8=FIX.4.4|9=172|35=V|34=12|49=demo.ctrader.3873996|50=3873996lpC268b_vaBZlyF9KsTm9w|52=20231228-06:32:15.937|56=cServer|57=QUOTE|262=MARKETDATAID|263=1|264=1|267=2|269=0|269=1|146=1|55=11|10=027|8=FIX.4.4|9=172|35=V|34=13|49=demo.ctrader.3873996|50=3873996lpC268b_vaBZlyF9KsTm9w|52=20231228-06:32:15.937|56=cServer|57=QUOTE|262=MARKETDATAID|263=1|264=1|267=2|269=0|269=1|146=1|55=12|10=029|8=FIX.4.4|9=172|35=V|34=14|49=demo.ctrader.3873996|50=3873996lpC268b_vaBZlyF9KsTm9w|52=20231228-06:32:15.938|56=cServer|57=QUOTE|262=MARKETDATAID|263=1|264=1|267=2|269=0|269=1|146=1|55=13|10=032|8=FIX.4.4|9=172|35=V|34=15|49=demo.ctrader.3873996|50=3873996lpC268b_vaBZlyF9KsTm9w|52=20231228-06:32:15.938|56=cServer|57=QUOTE|262=MARKETDATAID|263=1|264=1|267=2|269=0|269=1|146=1|55=14|10=034|8=FIX.4.4|9=172|35=V|34=16|49=demo.ctrader.3873996|50=3873996lpC268b_vaBZlyF9KsTm9w|52=20231228-06:32:15.938|56=cServer|57=QUOTE|262=MARKETDATAID|263=1|264=1|267=2|269=0|269=1|146=1|55=15|10=036|8=FIX.4.4|9=172|35=V|34=17|49=demo.ctrader.3873996|50=3873996lpC268b_vaBZlyF9KsTm9w|52=20231228-06:32:15.938|56=cServer|57=QUOTE|262=MARKETDATAID|263=1|264=1|267=2|269=0|269=1|146=1|55=16|10=038|8=FIX.4.4|9=172|35=V|34=18|49=demo.ctrader.3873996|50=3873996lpC268b_vaBZlyF9KsTm9w|52=20231228-06:32:15.938|56=cServer|57=QUOTE|262=MARKETDATAID|263=1|264=1|267=2|269=0|269=1|146=1|55=17|10=040|8=FIX.4.4|9=172|35=V|34=19|49=demo.ctrader.3873996|50=3873996lpC268b_vaBZlyF9KsTm9w|52=20231228-06:32:15.939|56=cServer|57=QUOTE|262=MARKETDATAID|263=1|264=1|267=2|269=0|269=1|146=1|55=18|10=043|8=FIX.4.4|9=172|35=V|34=20|49=demo.ctrader.3873996|50=3873996lpC268b_vaBZlyF9KsTm9w|52=20231228-06:32:15.939|56=cServer|57=QUOTE|262=MARKETDATAID|263=1|264=1|267=2|269=0|269=1|146=1|55=19|10=036|8=FIX.4.4|9=172|35=V|34=21|49=demo.ctrader.3873996|50=3873996lpC268b_vaBZlyF9KsTm9w|52=20231228-06:32:15.940|56=cServer|57=QUOTE|262=MARKETDATAID|263=1|264=1|267=2|269=0|269=1|146=1|55=22|10=023|8=FIX.4.4|9=113|35=0|34=22|49=demo.ctrader.3873996|50=3873996lpC268b_vaBZlyF9KsTm9w|52=20231228-06:32:46.008|56=cServer|57=QUOTE|10=080|8=FIX.4.4|9=113|35=0|34=23|49=demo.ctrader.3873996|50=3873996lpC268b_vaBZlyF9KsTm9w|52=20231228-06:33:16.342|56=cServer|57=QUOTE|10=080|8=FIX.4.4|9=113|35=0|34=24|49=demo.ctrader.3873996|50=3873996lpC268b_vaBZlyF9KsTm9w|52=20231228-06:33:46.404|56=cServer|57=QUOTE|10=083|8=FIX.4.4|9=113|35=0|34=25|49=demo.ctrader.3873996|50=3873996lpC268b_vaBZlyF9KsTm9w|52=20231228-06:34:16.499|56=cServer|57=QUOTE|10=096|8=FIX.4.4|9=113|35=0|34=26|49=demo.ctrader.3873996|50=3873996lpC268b_vaBZlyF9KsTm9w|52=20231228-06:34:46.679|56=cServer|57=QUOTE|10=100|8=FIX.4.4|9=113|35=0|34=27|49=demo.ctrader.3873996|50=3873996lpC268b_vaBZlyF9KsTm9w|52=20231228-06:35:16.914|56=cServer|57=QUOTE|10=091|8=FIX.4.4|9=113|35=0|34=28|49=demo.ctrader.3873996|50=3873996lpC268b_vaBZlyF9KsTm9w|52=20231228-06:35:46.945|56=cServer|57=QUOTE|10=099|8=FIX.4.4|9=113|35=0|34=29|49=demo.ctrader.3873996|50=3873996lpC268b_vaBZlyF9KsTm9w|52=20231228-06:36:17.095|56=cServer|57=QUOTE|10=095|8=FIX.4.4|9=113|35=0|34=30|49=demo.ctrader.3873996|50=3873996lpC268b_vaBZlyF9KsTm9w|52=20231228-06:36:47.173|56=cServer|57=QUOTE|10=087|8=FIX.4.4|9=113|35=0|34=31|49=demo.ctrader.3873996|50=3873996lpC268b_vaBZlyF9KsTm9w|52=20231228-06:37:17.307|56=cServer|57=QUOTE|10=085|8=FIX.4.4|9=113|35=0|34=32|49=demo.ctrader.3873996|50=3873996lpC268b_vaBZlyF9KsTm9w|52=20231228-06:37:47.864|56=cServer|57=QUOTE|10=097|8=FIX.4.4|9=113|35=0|34=33|49=demo.ctrader.3873996|50=3873996lpC268b_vaBZlyF9KsTm9w|52=20231228-06:38:17.934|56=cServer|57=QUOTE|10=094|8=FIX.4.4|9=113|35=0|34=34|49=demo.ctrader.3873996|50=3873996lpC268b_vaBZlyF9KsTm9w|52=20231228-06:38:48.257|56=cServer|57=QUOTE|10=097|8=FIX.4.4|9=113|35=0|34=35|49=demo.ctrader.3873996|50=3873996lpC268b_vaBZlyF9KsTm9w|52=20231228-06:39:18.374|56=cServer|57=QUOTE|10=096|8=FIX.4.4|9=113|35=0|34=36|49=demo.ctrader.3873996|50=3873996lpC268b_vaBZlyF9KsTm9w|52=20231228-06:39:48.649|56=cServer|57=QUOTE|10=105|8=FIX.4.4|9=113|35=0|34=37|49=demo.ctrader.3873996|50=3873996lpC268b_vaBZlyF9KsTm9w|52=20231228-06:40:18.795|56=cServer|57=QUOTE|10=097|8=FIX.4.4|9=113|35=0|34=38|49=demo.ctrader.3873996|50=3873996lpC268b_vaBZlyF9KsTm9w|52=20231228-06:40:49.230|56=cServer|57=QUOTE|10=086|8=FIX.4.4|9=113|35=0|34=39|49=demo.ctrader.3873996|50=3873996lpC268b_vaBZlyF9KsTm9w|52=20231228-06:41:19.375|56=cServer|57=QUOTE|10=095|8=FIX.4.4|9=113|35=0|34=40|49=demo.ctrader.3873996|50=3873996lpC268b_vaBZlyF9KsTm9w|52=20231228-06:41:49.491|56=cServer|57=QUOTE|10=089|8=FIX.4.4|9=113|35=0|34=41|49=demo.ctrader.3873996|50=3873996lpC268b_vaBZlyF9KsTm9w|52=20231228-06:42:19.497|56=cServer|57=QUOTE|10=094|8=FIX.4.4|9=113|35=0|34=42|49=demo.ctrader.3873996|50=3873996lpC268b_vaBZlyF9KsTm9w|52=20231228-06:42:49.527|56=cServer|57=QUOTE|10=092|8=FIX.4.4|9=113|35=0|34=43|49=demo.ctrader.3873996|50=3873996lpC268b_vaBZlyF9KsTm9w|52=20231228-06:43:19.538|56=cServer|57=QUOTE|10=093|8=FIX.4.4|9=113|35=0|34=44|49=demo.ctrader.3873996|50=3873996lpC268b_vaBZlyF9KsTm9w|52=20231228-06:43:49.667|56=cServer|57=QUOTE|10=100|8=FIX.4.4|9=113|35=0|34=45|49=demo.ctrader.3873996|50=3873996lpC268b_vaBZlyF9KsTm9w|52=20231228-06:44:19.819|56=cServer|57=QUOTE|10=098|8=FIX.4.4|9=113|35=0|34=46|49=demo.ctrader.3873996|50=3873996lpC268b_vaBZlyF9KsTm9w|52=20231228-06:44:49.832|56=cServer|57=QUOTE|10=097|8=FIX.4.4|9=113|35=0|34=47|49=demo.ctrader.3873996|50=3873996lpC268b_vaBZlyF9KsTm9w|52=20231228-06:45:19.973|56=cServer|57=QUOTE|10=102|8=FIX.4.4|9=113|35=0|34=48|49=demo.ctrader.3873996|50=3873996lpC268b_vaBZlyF9KsTm9w|52=20231228-06:45:50.027|56=cServer|57=QUOTE|10=088|8=FIX.4.4|9=113|35=0|34=49|49=demo.ctrader.3873996|50=3873996lpC268b_vaBZlyF9KsTm9w|52=20231228-06:46:20.267|56=cServer|57=QUOTE|10=093|8=FIX.4.4|9=113|35=0|34=50|49=demo.ctrader.3873996|50=3873996lpC268b_vaBZlyF9KsTm9w|52=20231228-06:46:50.300|56=cServer|57=QUOTE|10=076|8=FIX.4.4|9=113|35=0|34=51|49=demo.ctrader.3873996|50=3873996lpC268b_vaBZlyF9KsTm9w|52=20231228-06:47:20.333|56=cServer|57=QUOTE|10=081|8=FIX.4.4|9=113|35=0|34=52|49=demo.ctrader.3873996|50=3873996lpC268b_vaBZlyF9KsTm9w|52=20231228-06:47:50.419|56=cServer|57=QUOTE|10=090|8=FIX.4.4|9=113|35=0|34=53|49=demo.ctrader.3873996|50=3873996lpC268b_vaBZlyF9KsTm9w|52=20231228-06:48:20.488|56=cServer|57=QUOTE|10=095|8=FIX.4.4|9=113|35=0|34=54|49=demo.ctrader.3873996|50=3873996lpC268b_vaBZlyF9KsTm9w|52=20231228-06:48:50.520|56=cServer|57=QUOTE|10=086|8=FIX.4.4|9=113|35=0|34=55|49=demo.ctrader.3873996|50=3873996lpC268b_vaBZlyF9KsTm9w|52=20231228-06:49:20.543|56=cServer|57=QUOTE|10=090|8=FIX.4.4|9=113|35=0|34=56|49=demo.ctrader.3873996|50=3873996lpC268b_vaBZlyF9KsTm9w|52=20231228-06:49:50.795|56=cServer|57=QUOTE|10=103|8=FIX.4.4|9=113|35=0|34=57|49=demo.ctrader.3873996|50=3873996lpC268b_vaBZlyF9KsTm9w|52=20231228-06:50:20.885|56=cServer|57=QUOTE|10=093|8=FIX.4.4|9=113|35=0|34=58|49=demo.ctrader.3873996|50=3873996lpC268b_vaBZlyF9KsTm9w|52=20231228-06:50:50.898|56=cServer|57=QUOTE|10=101|8=FIX.4.4|9=113|35=0|34=59|49=demo.ctrader.3873996|50=3873996lpC268b_vaBZlyF9KsTm9w|52=20231228-06:51:21.009|56=cServer|57=QUOTE|10=085|8=FIX.4.4|9=113|35=0|34=60|49=demo.ctrader.3873996|50=3873996lpC268b_vaBZlyF9KsTm9w|52=20231228-06:51:51.111|56=cServer|57=QUOTE|10=074|8=FIX.4.4|9=113|35=0|34=61|49=demo.ctrader.3873996|50=3873996lpC268b_vaBZlyF9KsTm9w|52=20231228-06:52:21.213|56=cServer|57=QUOTE|10=076|8=FIX.4.4|9=113|35=0|34=62|49=demo.ctrader.3873996|50=3873996lpC268b_vaBZlyF9KsTm9w|52=20231228-06:52:51.231|56=cServer|57=QUOTE|10=080|8=FIX.4.4|9=113|35=0|34=63|49=demo.ctrader.3873996|50=3873996lpC268b_vaBZlyF9KsTm9w|52=20231228-06:53:21.286|56=cServer|57=QUOTE|10=089|8=FIX.4.4|9=113|35=0|34=64|49=demo.ctrader.3873996|50=3873996lpC268b_vaBZlyF9KsTm9w|52=20231228-06:53:51.287|56=cServer|57=QUOTE|10=094|8=FIX.4.4|9=113|35=0|34=65|49=demo.ctrader.3873996|50=3873996lpC268b_vaBZlyF9KsTm9w|52=20231228-06:54:21.456|56=cServer|57=QUOTE|10=091|8=FIX.4.4|9=113|35=0|34=66|49=demo.ctrader.3873996|50=3873996lpC268b_vaBZlyF9KsTm9w|52=20231228-06:54:51.923|56=cServer|57=QUOTE|10=094|8=FIX.4.4|9=113|35=0|34=67|49=demo.ctrader.3873996|50=3873996lpC268b_vaBZlyF9KsTm9w|52=20231228-06:55:22.000|56=cServer|57=QUOTE|10=080|8=FIX.4.4|9=113|35=0|34=68|49=demo.ctrader.3873996|50=3873996lpC268b_vaBZlyF9KsTm9w|52=20231228-06:55:52.023|56=cServer|57=QUOTE|10=089|8=FIX.4.4|9=113|35=0|34=69|49=demo.ctrader.3873996|50=3873996lpC268b_vaBZlyF9KsTm9w|52=20231228-06:56:22.057|56=cServer|57=QUOTE|10=095|8=FIX.4.4|9=113|35=0|34=70|49=demo.ctrader.3873996|50=3873996lpC268b_vaBZlyF9KsTm9w|52=20231228-06:56:52.095|56=cServer|57=QUOTE|10=092|8=FIX.4.4|9=113|35=0|34=71|49=demo.ctrader.3873996|50=3873996lpC268b_vaBZlyF9KsTm9w|52=20231228-06:57:22.106|56=cServer|57=QUOTE|10=084|8=FIX.4.4|9=113|35=0|34=72|49=demo.ctrader.3873996|50=3873996lpC268b_vaBZlyF9KsTm9w|52=20231228-06:57:52.115|56=cServer|57=QUOTE|10=088|8=FIX.4.4|9=113|35=0|34=73|49=demo.ctrader.3873996|50=3873996lpC268b_vaBZlyF9KsTm9w|52=20231228-06:58:22.134|56=cServer|57=QUOTE|10=088|8=FIX.4.4|9=113|35=0|34=74|49=demo.ctrader.3873996|50=3873996lpC268b_vaBZlyF9KsTm9w|52=20231228-06:58:52.177|56=cServer|57=QUOTE|10=099|8=FIX.4.4|9=113|35=0|34=75|49=demo.ctrader.3873996|50=3873996lpC268b_vaBZlyF9KsTm9w|52=20231228-06:59:22.183|56=cServer|57=QUOTE|10=095|8=FIX.4.4|9=113|35=0|34=76|49=demo.ctrader.3873996|50=3873996lpC268b_vaBZlyF9KsTm9w|52=20231228-06:59:52.198|56=cServer|57=QUOTE|10=105|8=FIX.4.4|9=113|35=0|34=77|49=demo.ctrader.3873996|50=3873996lpC268b_vaBZlyF9KsTm9w|52=20231228-07:00:22.200|56=cServer|57=QUOTE|10=074|8=FIX.4.4|9=113|35=0|34=78|49=demo.ctrader.3873996|50=3873996lpC268b_vaBZlyF9KsTm9w|52=20231228-07:00:52.407|56=cServer|57=QUOTE|10=087|8=FIX.4.4|9=113|35=0|34=79|49=demo.ctrader.3873996|50=3873996lpC268b_vaBZlyF9KsTm9w|52=20231228-07:01:22.435|56=cServer|57=QUOTE|10=087|8=FIX.4.4|9=113|35=0|34=80|49=demo.ctrader.3873996|50=3873996lpC268b_vaBZlyF9KsTm9w|52=20231228-07:01:52.444|56=cServer|57=QUOTE|10=082|8=FIX.4.4|9=113|35=0|34=81|49=demo.ctrader.3873996|50=3873996lpC268b_vaBZlyF9KsTm9w|52=20231228-07:02:22.547|56=cServer|57=QUOTE|10=085|8=FIX.4.4|9=113|35=0|34=82|49=demo.ctrader.3873996|50=3873996lpC268b_vaBZlyF9KsTm9w|52=20231228-07:02:52.581|56=cServer|57=QUOTE|10=087|8=FIX.4.4|9=113|35=0|34=83|49=demo.ctrader.3873996|50=3873996lpC268b_vaBZlyF9KsTm9w|52=20231228-07:03:22.594|56=cServer|57=QUOTE|10=090|8=FIX.4.4|9=113|35=0|34=84|49=demo.ctrader.3873996|50=3873996lpC268b_vaBZlyF9KsTm9w|52=20231228-07:03:52.640|56=cServer|57=QUOTE|10=086|8=FIX.4.4|9=113|35=0|34=85|49=demo.ctrader.3873996|50=3873996lpC268b_vaBZlyF9KsTm9w|52=20231228-07:04:22.649|56=cServer|57=QUOTE|10=094|8=FIX.4.4|9=113|35=0|34=86|49=demo.ctrader.3873996|50=3873996lpC268b_vaBZlyF9KsTm9w|52=20231228-07:04:52.716|56=cServer|57=QUOTE|10=093|8=FIX.4.4|9=113|35=0|34=87|49=demo.ctrader.3873996|50=3873996lpC268b_vaBZlyF9KsTm9w|52=20231228-07:05:22.906|56=cServer|57=QUOTE|10=093|8=FIX.4.4|9=113|35=0|34=88|49=demo.ctrader.3873996|50=3873996lpC268b_vaBZlyF9KsTm9w|52=20231228-07:05:52.908|56=cServer|57=QUOTE|10=099|8=FIX.4.4|9=113|35=0|34=89|49=demo.ctrader.3873996|50=3873996lpC268b_vaBZlyF9KsTm9w|52=20231228-07:06:22.966|56=cServer|57=QUOTE|10=102|8=FIX.4.4|9=113|35=0|34=90|49=demo.ctrader.3873996|50=3873996lpC268b_vaBZlyF9KsTm9w|52=20231228-07:06:52.994|56=cServer|57=QUOTE|10=098|8=FIX.4.4|9=113|35=0|34=91|49=demo.ctrader.3873996|50=3873996lpC268b_vaBZlyF9KsTm9w|52=20231228-07:07:23.093|56=cServer|57=QUOTE|10=088|8=FIX.4.4|9=113|35=0|34=92|49=demo.ctrader.3873996|50=3873996lpC268b_vaBZlyF9KsTm9w|52=20231228-07:07:53.113|56=cServer|57=QUOTE|10=085|8=FIX.4.4|9=113|35=0|34=93|49=demo.ctrader.3873996|50=3873996lpC268b_vaBZlyF9KsTm9w|52=20231228-07:08:23.139|56=cServer|57=QUOTE|10=092|8=FIX.4.4|9=113|35=0|34=94|49=demo.ctrader.3873996|50=3873996lpC268b_vaBZlyF9KsTm9w|52=20231228-07:08:53.313|56=cServer|57=QUOTE|10=090|8=FIX.4.4|9=113|35=0|34=95|49=demo.ctrader.3873996|50=3873996lpC268b_vaBZlyF9KsTm9w|52=20231228-07:09:23.414|56=cServer|57=QUOTE|10=091|8=FIX.4.4|9=113|35=0|34=96|49=demo.ctrader.3873996|50=3873996lpC268b_vaBZlyF9KsTm9w|52=20231228-07:09:53.440|56=cServer|57=QUOTE|10=094|8=FIX.4.4|9=113|35=0|34=97|49=demo.ctrader.3873996|50=3873996lpC268b_vaBZlyF9KsTm9w|52=20231228-07:10:23.793|56=cServer|57=QUOTE|10=095|8=FIX.4.4|9=113|35=0|34=98|49=demo.ctrader.3873996|50=3873996lpC268b_vaBZlyF9KsTm9w|52=20231228-07:10:53.794|56=cServer|57=QUOTE|10=100|8=FIX.4.4|9=113|35=0|34=99|49=demo.ctrader.3873996|50=3873996lpC268b_vaBZlyF9KsTm9w|52=20231228-07:11:23.807|56=cServer|57=QUOTE|10=094|8=FIX.4.4|9=114|35=0|34=100|49=demo.ctrader.3873996|50=3873996lpC268b_vaBZlyF9KsTm9w|52=20231228-07:11:53.824|56=cServer|57=QUOTE|10=128|8=FIX.4.4|9=114|35=0|34=101|49=demo.ctrader.3873996|50=3873996lpC268b_vaBZlyF9KsTm9w|52=20231228-07:12:23.898|56=cServer|57=QUOTE|10=138|8=FIX.4.4|9=114|35=0|34=102|49=demo.ctrader.3873996|50=3873996lpC268b_vaBZlyF9KsTm9w|52=20231228-07:12:53.905|56=cServer|57=QUOTE|10=131|8=FIX.4.4|9=114|35=0|34=103|49=demo.ctrader.3873996|50=3873996lpC268b_vaBZlyF9KsTm9w|52=20231228-07:13:23.996|56=cServer|57=QUOTE|10=140|8=FIX.4.4|9=114|35=0|34=104|49=demo.ctrader.3873996|50=3873996lpC268b_vaBZlyF9KsTm9w|52=20231228-07:13:54.135|56=cServer|57=QUOTE|10=130|8=FIX.4.4|9=114|35=0|34=105|49=demo.ctrader.3873996|50=3873996lpC268b_vaBZlyF9KsTm9w|52=20231228-07:14:24.194|56=cServer|57=QUOTE|10=134|8=FIX.4.4|9=114|35=0|34=106|49=demo.ctrader.3873996|50=3873996lpC268b_vaBZlyF9KsTm9w|52=20231228-07:14:54.436|56=cServer|57=QUOTE|10=137|8=FIX.4.4|9=114|35=0|34=107|49=demo.ctrader.3873996|50=3873996lpC268b_vaBZlyF9KsTm9w|52=20231228-07:15:24.482|56=cServer|57=QUOTE|10=137|8=FIX.4.4|9=114|35=0|34=108|49=demo.ctrader.3873996|50=3873996lpC268b_vaBZlyF9KsTm9w|52=20231228-07:15:54.490|56=cServer|57=QUOTE|10=140|8=FIX.4.4|9=114|35=0|34=109|49=demo.ctrader.3873996|50=3873996lpC268b_vaBZlyF9KsTm9w|52=20231228-07:16:24.494|56=cServer|57=QUOTE|10=143|8=FIX.4.4|9=114|35=0|34=110|49=demo.ctrader.3873996|50=3873996lpC268b_vaBZlyF9KsTm9w|52=20231228-07:16:54.512|56=cServer|57=QUOTE|10=129|8=FIX.4.4|9=114|35=0|34=111|49=demo.ctrader.3873996|50=3873996lpC268b_vaBZlyF9KsTm9w|52=20231228-07:17:24.559|56=cServer|57=QUOTE|10=139|8=FIX.4.4|9=114|35=0|34=112|49=demo.ctrader.3873996|50=3873996lpC268b_vaBZlyF9KsTm9w|52=20231228-07:17:54.575|56=cServer|57=QUOTE|10=141|8=FIX.4.4|9=114|35=0|34=113|49=demo.ctrader.3873996|50=3873996lpC268b_vaBZlyF9KsTm9w|52=20231228-07:18:24.591|56=cServer|57=QUOTE|10=138|8=FIX.4.4|9=114|35=0|34=114|49=demo.ctrader.3873996|50=3873996lpC268b_vaBZlyF9KsTm9w|52=20231228-07:18:54.612|56=cServer|57=QUOTE|10=136|8=FIX.4.4|9=114|35=0|34=115|49=demo.ctrader.3873996|50=3873996lpC268b_vaBZlyF9KsTm9w|52=20231228-07:19:24.686|56=cServer|57=QUOTE|10=146|8=FIX.4.4|9=114|35=0|34=116|49=demo.ctrader.3873996|50=3873996lpC268b_vaBZlyF9KsTm9w|52=20231228-07:19:54.760|56=cServer|57=QUOTE|10=143|8=FIX.4.4|9=114|35=0|34=117|49=demo.ctrader.3873996|50=3873996lpC268b_vaBZlyF9KsTm9w|52=20231228-07:20:24.761|56=cServer|57=QUOTE|10=134|