8=FIX.4.4|9=244|35=A|34=1|49=demo.ctrader.3873996|50=38739966zb64rXFyvq83VC4MH4PnA|52=20231225-09:02:22.992|56=cServer|57=TRADE|49=demo.ctrader.3873996|50=38739966zb64rXFyvq83VC4MH4PnA|52=20231225-09:02:22|56=cServer|98=0|108=30|141=Y|553=3873996|554=Gtlfx125|10=056|8=FIX.4.4|9=130|35=x|34=2|49=demo.ctrader.3873996|50=38739966zb64rXFyvq83VC4MH4PnA|52=20231225-09:02:23.544|56=cServer|57=TRADE|320=symbols|559=0|10=151|8=FIX.4.4|9=127|35=AN|34=3|49=demo.ctrader.3873996|50=38739966zb64rXFyvq83VC4MH4PnA|52=20231225-09:02:23.776|56=cServer|57=TRADE|710=Positions|10=109|8=FIX.4.4|9=130|35=AF|34=4|49=demo.ctrader.3873996|50=38739966zb64rXFyvq83VC4MH4PnA|52=20231225-09:02:23.776|56=cServer|57=TRADE|584=Orders|585=7|10=039|8=FIX.4.4|9=112|35=0|34=5|49=demo.ctrader.3873996|50=38739966zb64rXFyvq83VC4MH4PnA|52=20231225-09:02:54.144|56=cServer|57=TRADE|10=101|8=FIX.4.4|9=112|35=0|34=6|49=demo.ctrader.3873996|50=38739966zb64rXFyvq83VC4MH4PnA|52=20231225-09:03:24.399|56=cServer|57=TRADE|10=112|8=FIX.4.4|9=112|35=0|34=7|49=demo.ctrader.3873996|50=38739966zb64rXFyvq83VC4MH4PnA|52=20231225-09:03:54.674|56=cServer|57=TRADE|10=112|