8=FIX.4.4|9=244|35=A|34=1|49=demo.ctrader.3873996|50=3873996xkDBLLvITpDZvA0iqeER8w|52=20231221-15:26:29.236|56=cServer|57=QUOTE|49=demo.ctrader.3873996|50=3873996xkDBLLvITpDZvA0iqeER8w|52=20231221-15:26:29|56=cServer|98=0|108=30|141=Y|553=3873996|554=Gtlfx125|10=157|8=FIX.4.4|9=112|35=0|34=2|49=demo.ctrader.3873996|50=3873996xkDBLLvITpDZvA0iqeER8w|52=20231221-15:26:59.963|56=cServer|57=QUOTE|10=047|8=FIX.4.4|9=112|35=0|34=3|49=demo.ctrader.3873996|50=3873996xkDBLLvITpDZvA0iqeER8w|52=20231221-15:27:30.073|56=cServer|57=QUOTE|10=030|8=FIX.4.4|9=112|35=0|34=4|49=demo.ctrader.3873996|50=3873996xkDBLLvITpDZvA0iqeER8w|52=20231221-15:28:00.164|56=cServer|57=QUOTE|10=030|8=FIX.4.4|9=112|35=0|34=5|49=demo.ctrader.3873996|50=3873996xkDBLLvITpDZvA0iqeER8w|52=20231221-15:28:31.094|56=cServer|57=QUOTE|10=037|8=FIX.4.4|9=112|35=0|34=6|49=demo.ctrader.3873996|50=3873996xkDBLLvITpDZvA0iqeER8w|52=20231221-15:29:02.073|56=cServer|57=QUOTE|10=034|8=FIX.4.4|9=112|35=0|34=7|49=demo.ctrader.3873996|50=3873996xkDBLLvITpDZvA0iqeER8w|52=20231221-15:29:32.116|56=cServer|57=QUOTE|10=036|8=FIX.4.4|9=112|35=0|34=8|49=demo.ctrader.3873996|50=3873996xkDBLLvITpDZvA0iqeER8w|52=20231221-15:30:03.083|56=cServer|57=QUOTE|10=030|8=FIX.4.4|9=112|35=0|34=9|49=demo.ctrader.3873996|50=3873996xkDBLLvITpDZvA0iqeER8w|52=20231221-15:30:33.088|56=cServer|57=QUOTE|10=039|8=FIX.4.4|9=113|35=0|34=10|49=demo.ctrader.3873996|50=3873996xkDBLLvITpDZvA0iqeER8w|52=20231221-15:31:03.097|56=cServer|57=QUOTE|10=078|8=FIX.4.4|9=113|35=0|34=11|49=demo.ctrader.3873996|50=3873996xkDBLLvITpDZvA0iqeER8w|52=20231221-15:31:33.145|56=cServer|57=QUOTE|10=076|8=FIX.4.4|9=113|35=0|34=12|49=demo.ctrader.3873996|50=3873996xkDBLLvITpDZvA0iqeER8w|52=20231221-15:32:04.093|56=cServer|57=QUOTE|10=078|8=FIX.4.4|9=113|35=0|34=13|49=demo.ctrader.3873996|50=3873996xkDBLLvITpDZvA0iqeER8w|52=20231221-15:32:34.221|56=cServer|57=QUOTE|10=075|8=FIX.4.4|9=113|35=0|34=14|49=demo.ctrader.3873996|50=3873996xkDBLLvITpDZvA0iqeER8w|52=20231221-15:33:05.106|56=cServer|57=QUOTE|10=077|8=FIX.4.4|9=113|35=0|34=15|49=demo.ctrader.3873996|50=3873996xkDBLLvITpDZvA0iqeER8w|52=20231221-15:33:35.141|56=cServer|57=QUOTE|10=080|8=FIX.4.4|9=113|35=0|34=16|49=demo.ctrader.3873996|50=3873996xkDBLLvITpDZvA0iqeER8w|52=20231221-15:34:06.136|56=cServer|57=QUOTE|10=084|8=FIX.4.4|9=113|35=0|34=17|49=demo.ctrader.3873996|50=3873996xkDBLLvITpDZvA0iqeER8w|52=20231221-15:34:37.118|56=cServer|57=QUOTE|10=089|8=FIX.4.4|9=113|35=0|34=18|49=demo.ctrader.3873996|50=3873996xkDBLLvITpDZvA0iqeER8w|52=20231221-15:35:07.128|56=cServer|57=QUOTE|10=089|