8=FIX.4.4|9=244|35=A|34=1|49=demo.ctrader.3873996|50=38739960PNoyT3UIPrZ8-DhsUDMPQ|52=20231226-06:53:04.776|56=cServer|57=QUOTE|49=demo.ctrader.3873996|50=38739960PNoyT3UIPrZ8-DhsUDMPQ|52=20231226-06:53:04|56=cServer|98=0|108=30|141=Y|553=3873996|554=Gtlfx125|10=138|8=FIX.4.4|9=170|35=V|34=2|49=demo.ctrader.3873996|50=38739960PNoyT3UIPrZ8-DhsUDMPQ|52=20231226-06:53:05.618|56=cServer|57=QUOTE|262=MARKETDATAID|263=1|264=1|267=2|269=0|269=1|146=1|55=1|10=047|8=FIX.4.4|9=170|35=V|34=3|49=demo.ctrader.3873996|50=38739960PNoyT3UIPrZ8-DhsUDMPQ|52=20231226-06:53:05.618|56=cServer|57=QUOTE|262=MARKETDATAID|263=1|264=1|267=2|269=0|269=1|146=1|55=2|10=049|8=FIX.4.4|9=170|35=V|34=4|49=demo.ctrader.3873996|50=38739960PNoyT3UIPrZ8-DhsUDMPQ|52=20231226-06:53:05.619|56=cServer|57=QUOTE|262=MARKETDATAID|263=1|264=1|267=2|269=0|269=1|146=1|55=3|10=052|8=FIX.4.4|9=170|35=V|34=5|49=demo.ctrader.3873996|50=38739960PNoyT3UIPrZ8-DhsUDMPQ|52=20231226-06:53:05.619|56=cServer|57=QUOTE|262=MARKETDATAID|263=1|264=1|267=2|269=0|269=1|146=1|55=4|10=054|8=FIX.4.4|9=170|35=V|34=6|49=demo.ctrader.3873996|50=38739960PNoyT3UIPrZ8-DhsUDMPQ|52=20231226-06:53:05.619|56=cServer|57=QUOTE|262=MARKETDATAID|263=1|264=1|267=2|269=0|269=1|146=1|55=5|10=056|8=FIX.4.4|9=170|35=V|34=7|49=demo.ctrader.3873996|50=38739960PNoyT3UIPrZ8-DhsUDMPQ|52=20231226-06:53:05.619|56=cServer|57=QUOTE|262=MARKETDATAID|263=1|264=1|267=2|269=0|269=1|146=1|55=6|10=058|8=FIX.4.4|9=170|35=V|34=8|49=demo.ctrader.3873996|50=38739960PNoyT3UIPrZ8-DhsUDMPQ|52=20231226-06:53:05.619|56=cServer|57=QUOTE|262=MARKETDATAID|263=1|264=1|267=2|269=0|269=1|146=1|55=7|10=060|8=FIX.4.4|9=170|35=V|34=9|49=demo.ctrader.3873996|50=38739960PNoyT3UIPrZ8-DhsUDMPQ|52=20231226-06:53:05.619|56=cServer|57=QUOTE|262=MARKETDATAID|263=1|264=1|267=2|269=0|269=1|146=1|55=8|10=062|8=FIX.4.4|9=171|35=V|34=10|49=demo.ctrader.3873996|50=38739960PNoyT3UIPrZ8-DhsUDMPQ|52=20231226-06:53:05.619|56=cServer|57=QUOTE|262=MARKETDATAID|263=1|264=1|267=2|269=0|269=1|146=1|55=9|10=104|8=FIX.4.4|9=172|35=V|34=11|49=demo.ctrader.3873996|50=38739960PNoyT3UIPrZ8-DhsUDMPQ|52=20231226-06:53:05.619|56=cServer|57=QUOTE|262=MARKETDATAID|263=1|264=1|267=2|269=0|269=1|146=1|55=10|10=146|8=FIX.4.4|9=172|35=V|34=12|49=demo.ctrader.3873996|50=38739960PNoyT3UIPrZ8-DhsUDMPQ|52=20231226-06:53:05.619|56=cServer|57=QUOTE|262=MARKETDATAID|263=1|264=1|267=2|269=0|269=1|146=1|55=11|10=148|8=FIX.4.4|9=172|35=V|34=13|49=demo.ctrader.3873996|50=38739960PNoyT3UIPrZ8-DhsUDMPQ|52=20231226-06:53:05.619|56=cServer|57=QUOTE|262=MARKETDATAID|263=1|264=1|267=2|269=0|269=1|146=1|55=12|10=150|8=FIX.4.4|9=172|35=V|34=14|49=demo.ctrader.3873996|50=38739960PNoyT3UIPrZ8-DhsUDMPQ|52=20231226-06:53:05.619|56=cServer|57=QUOTE|262=MARKETDATAID|263=1|264=1|267=2|269=0|269=1|146=1|55=13|10=152|8=FIX.4.4|9=172|35=V|34=15|49=demo.ctrader.3873996|50=38739960PNoyT3UIPrZ8-DhsUDMPQ|52=20231226-06:53:05.619|56=cServer|57=QUOTE|262=MARKETDATAID|263=1|264=1|267=2|269=0|269=1|146=1|55=14|10=154|8=FIX.4.4|9=172|35=V|34=16|49=demo.ctrader.3873996|50=38739960PNoyT3UIPrZ8-DhsUDMPQ|52=20231226-06:53:05.620|56=cServer|57=QUOTE|262=MARKETDATAID|263=1|264=1|267=2|269=0|269=1|146=1|55=15|10=148|8=FIX.4.4|9=172|35=V|34=17|49=demo.ctrader.3873996|50=38739960PNoyT3UIPrZ8-DhsUDMPQ|52=20231226-06:53:05.620|56=cServer|57=QUOTE|262=MARKETDATAID|263=1|264=1|267=2|269=0|269=1|146=1|55=16|10=150|8=FIX.4.4|9=172|35=V|34=18|49=demo.ctrader.3873996|50=38739960PNoyT3UIPrZ8-DhsUDMPQ|52=20231226-06:53:05.620|56=cServer|57=QUOTE|262=MARKETDATAID|263=1|264=1|267=2|269=0|269=1|146=1|55=17|10=152|8=FIX.4.4|9=172|35=V|34=19|49=demo.ctrader.3873996|50=38739960PNoyT3UIPrZ8-DhsUDMPQ|52=20231226-06:53:05.620|56=cServer|57=QUOTE|262=MARKETDATAID|263=1|264=1|267=2|269=0|269=1|146=1|55=18|10=154|8=FIX.4.4|9=172|35=V|34=20|49=demo.ctrader.3873996|50=38739960PNoyT3UIPrZ8-DhsUDMPQ|52=20231226-06:53:05.620|56=cServer|57=QUOTE|262=MARKETDATAID|263=1|264=1|267=2|269=0|269=1|146=1|55=19|10=147|8=FIX.4.4|9=172|35=V|34=21|49=demo.ctrader.3873996|50=38739960PNoyT3UIPrZ8-DhsUDMPQ|52=20231226-06:53:05.620|56=cServer|57=QUOTE|262=MARKETDATAID|263=1|264=1|267=2|269=0|269=1|146=1|55=22|10=142|8=FIX.4.4|9=113|35=0|34=22|49=demo.ctrader.3873996|50=38739960PNoyT3UIPrZ8-DhsUDMPQ|52=20231226-06:53:35.690|56=cServer|57=QUOTE|10=210|8=FIX.4.4|9=113|35=0|34=23|49=demo.ctrader.3873996|50=38739960PNoyT3UIPrZ8-DhsUDMPQ|52=20231226-06:54:05.751|56=cServer|57=QUOTE|10=207|8=FIX.4.4|9=113|35=0|34=24|49=demo.ctrader.3873996|50=38739960PNoyT3UIPrZ8-DhsUDMPQ|52=20231226-06:54:36.031|56=cServer|57=QUOTE|10=203|8=FIX.4.4|9=113|35=0|34=25|49=demo.ctrader.3873996|50=38739960PNoyT3UIPrZ8-DhsUDMPQ|52=20231226-06:55:06.184|56=cServer|57=QUOTE|10=211|8=FIX.4.4|9=113|35=0|34=26|49=demo.ctrader.3873996|50=38739960PNoyT3UIPrZ8-DhsUDMPQ|52=20231226-06:55:36.470|56=cServer|57=QUOTE|10=213|8=FIX.4.4|9=113|35=0|34=27|49=demo.ctrader.3873996|50=38739960PNoyT3UIPrZ8-DhsUDMPQ|52=20231226-06:56:06.528|56=cServer|57=QUOTE|10=216|8=FIX.4.4|9=113|35=0|34=28|49=demo.ctrader.3873996|50=38739960PNoyT3UIPrZ8-DhsUDMPQ|52=20231226-06:56:36.537|56=cServer|57=QUOTE|10=220|8=FIX.4.4|9=113|35=0|34=29|49=demo.ctrader.3873996|50=38739960PNoyT3UIPrZ8-DhsUDMPQ|52=20231226-06:57:06.669|56=cServer|57=QUOTE|10=225|8=FIX.4.4|9=113|35=0|34=30|49=demo.ctrader.3873996|50=38739960PNoyT3UIPrZ8-DhsUDMPQ|52=20231226-06:57:36.674|56=cServer|57=QUOTE|10=216|8=FIX.4.4|9=113|35=0|34=31|49=demo.ctrader.3873996|50=38739960PNoyT3UIPrZ8-DhsUDMPQ|52=20231226-06:58:06.739|56=cServer|57=QUOTE|10=217|8=FIX.4.4|9=113|35=0|34=32|49=demo.ctrader.3873996|50=38739960PNoyT3UIPrZ8-DhsUDMPQ|52=20231226-06:58:36.938|56=cServer|57=QUOTE|10=222|8=FIX.4.4|9=113|35=0|34=33|49=demo.ctrader.3873996|50=38739960PNoyT3UIPrZ8-DhsUDMPQ|52=20231226-06:59:07.054|56=cServer|57=QUOTE|10=211|8=FIX.4.4|9=113|35=0|34=34|49=demo.ctrader.3873996|50=38739960PNoyT3UIPrZ8-DhsUDMPQ|52=20231226-06:59:37.111|56=cServer|57=QUOTE|10=209|8=FIX.4.4|9=113|35=0|34=35|49=demo.ctrader.3873996|50=38739960PNoyT3UIPrZ8-DhsUDMPQ|52=20231226-07:00:07.453|56=cServer|57=QUOTE|10=203|8=FIX.4.4|9=113|35=0|34=36|49=demo.ctrader.3873996|50=38739960PNoyT3UIPrZ8-DhsUDMPQ|52=20231226-07:00:37.463|56=cServer|57=QUOTE|10=208|8=FIX.4.4|9=113|35=0|34=37|49=demo.ctrader.3873996|50=38739960PNoyT3UIPrZ8-DhsUDMPQ|52=20231226-07:01:07.525|56=cServer|57=QUOTE|10=206|8=FIX.4.4|9=113|35=0|34=38|49=demo.ctrader.3873996|50=38739960PNoyT3UIPrZ8-DhsUDMPQ|52=20231226-07:01:38.059|56=cServer|57=QUOTE|10=213|8=FIX.4.4|9=113|35=0|34=39|49=demo.ctrader.3873996|50=38739960PNoyT3UIPrZ8-DhsUDMPQ|52=20231226-07:02:08.081|56=cServer|57=QUOTE|10=207|8=FIX.4.4|9=113|35=0|34=40|49=demo.ctrader.3873996|50=38739960PNoyT3UIPrZ8-DhsUDMPQ|52=20231226-07:02:38.086|56=cServer|57=QUOTE|10=207|8=FIX.4.4|9=113|35=0|34=41|49=demo.ctrader.3873996|50=38739960PNoyT3UIPrZ8-DhsUDMPQ|52=20231226-07:03:08.574|56=cServer|57=QUOTE|10=208|8=FIX.4.4|9=113|35=0|34=42|49=demo.ctrader.3873996|50=38739960PNoyT3UIPrZ8-DhsUDMPQ|52=20231226-07:03:39.445|56=cServer|57=QUOTE|10=210|8=FIX.4.4|9=113|35=0|34=43|49=demo.ctrader.3873996|50=38739960PNoyT3UIPrZ8-DhsUDMPQ|52=20231226-07:04:09.521|56=cServer|57=QUOTE|10=204|8=FIX.4.4|9=113|35=0|34=44|49=demo.ctrader.3873996|50=38739960PNoyT3UIPrZ8-DhsUDMPQ|52=20231226-07:04:39.761|56=cServer|57=QUOTE|10=214|8=FIX.4.4|9=113|35=0|34=45|49=demo.ctrader.3873996|50=38739960PNoyT3UIPrZ8-DhsUDMPQ|52=20231226-07:05:09.832|56=cServer|57=QUOTE|10=212|8=FIX.4.4|9=113|35=0|34=46|49=demo.ctrader.3873996|50=38739960PNoyT3UIPrZ8-DhsUDMPQ|52=20231226-07:05:39.940|56=cServer|57=QUOTE|10=216|8=FIX.4.4|9=113|35=0|34=47|49=demo.ctrader.3873996|50=38739960PNoyT3UIPrZ8-DhsUDMPQ|52=20231226-07:06:09.959|56=cServer|57=QUOTE|10=225|8=FIX.4.4|9=113|35=0|34=48|49=demo.ctrader.3873996|50=38739960PNoyT3UIPrZ8-DhsUDMPQ|52=20231226-07:06:39.966|56=cServer|57=QUOTE|10=227|8=FIX.4.4|9=113|35=0|34=49|49=demo.ctrader.3873996|50=38739960PNoyT3UIPrZ8-DhsUDMPQ|52=20231226-07:07:10.009|56=cServer|57=QUOTE|10=206|8=FIX.4.4|9=113|35=0|34=50|49=demo.ctrader.3873996|50=38739960PNoyT3UIPrZ8-DhsUDMPQ|52=20231226-07:07:40.049|56=cServer|57=QUOTE|10=205|8=FIX.4.4|9=113|35=0|34=51|49=demo.ctrader.3873996|50=38739960PNoyT3UIPrZ8-DhsUDMPQ|52=20231226-07:08:10.068|56=cServer|57=QUOTE|10=205|8=FIX.4.4|9=113|35=0|34=52|49=demo.ctrader.3873996|50=38739960PNoyT3UIPrZ8-DhsUDMPQ|52=20231226-07:08:40.093|56=cServer|57=QUOTE|10=207|8=FIX.4.4|9=113|35=0|34=53|49=demo.ctrader.3873996|50=38739960PNoyT3UIPrZ8-DhsUDMPQ|52=20231226-07:09:10.471|56=cServer|57=QUOTE|10=206|8=FIX.4.4|9=113|35=0|34=54|49=demo.ctrader.3873996|50=38739960PNoyT3UIPrZ8-DhsUDMPQ|52=20231226-07:09:40.598|56=cServer|57=QUOTE|10=220|8=FIX.4.4|9=113|35=0|34=55|49=demo.ctrader.3873996|50=38739960PNoyT3UIPrZ8-DhsUDMPQ|52=20231226-07:10:10.660|56=cServer|57=QUOTE|10=200|8=FIX.4.4|9=113|35=0|34=56|49=demo.ctrader.3873996|50=38739960PNoyT3UIPrZ8-DhsUDMPQ|52=20231226-07:10:40.831|56=cServer|57=QUOTE|10=204|8=FIX.4.4|9=113|35=0|34=57|49=demo.ctrader.3873996|50=38739960PNoyT3UIPrZ8-DhsUDMPQ|52=20231226-07:11:10.837|56=cServer|57=QUOTE|10=209|