8=FIX.4.4|9=244|35=A|34=1|49=demo.ctrader.3873996|50=3873996VzXycdSXPnwpvZsBNZqwsw|52=20240103-14:16:08.818|56=cServer|57=QUOTE|49=demo.ctrader.3873996|50=3873996VzXycdSXPnwpvZsBNZqwsw|52=20240103-14:16:08|56=cServer|98=0|108=30|141=Y|553=3873996|554=Gtlfx125|10=233|8=FIX.4.4|9=170|35=V|34=2|49=demo.ctrader.3873996|50=3873996VzXycdSXPnwpvZsBNZqwsw|52=20240103-14:16:09.798|56=cServer|57=QUOTE|262=MARKETDATAID|263=1|264=1|267=2|269=0|269=1|146=1|55=1|10=233|8=FIX.4.4|9=170|35=V|34=3|49=demo.ctrader.3873996|50=3873996VzXycdSXPnwpvZsBNZqwsw|52=20240103-14:16:09.799|56=cServer|57=QUOTE|262=MARKETDATAID|263=1|264=1|267=2|269=0|269=1|146=1|55=2|10=236|8=FIX.4.4|9=170|35=V|34=4|49=demo.ctrader.3873996|50=3873996VzXycdSXPnwpvZsBNZqwsw|52=20240103-14:16:09.800|56=cServer|57=QUOTE|262=MARKETDATAID|263=1|264=1|267=2|269=0|269=1|146=1|55=3|10=221|8=FIX.4.4|9=170|35=V|34=5|49=demo.ctrader.3873996|50=3873996VzXycdSXPnwpvZsBNZqwsw|52=20240103-14:16:09.800|56=cServer|57=QUOTE|262=MARKETDATAID|263=1|264=1|267=2|269=0|269=1|146=1|55=4|10=223|8=FIX.4.4|9=170|35=V|34=6|49=demo.ctrader.3873996|50=3873996VzXycdSXPnwpvZsBNZqwsw|52=20240103-14:16:09.800|56=cServer|57=QUOTE|262=MARKETDATAID|263=1|264=1|267=2|269=0|269=1|146=1|55=5|10=225|8=FIX.4.4|9=170|35=V|34=7|49=demo.ctrader.3873996|50=3873996VzXycdSXPnwpvZsBNZqwsw|52=20240103-14:16:09.800|56=cServer|57=QUOTE|262=MARKETDATAID|263=1|264=1|267=2|269=0|269=1|146=1|55=6|10=227|8=FIX.4.4|9=170|35=V|34=8|49=demo.ctrader.3873996|50=3873996VzXycdSXPnwpvZsBNZqwsw|52=20240103-14:16:09.800|56=cServer|57=QUOTE|262=MARKETDATAID|263=1|264=1|267=2|269=0|269=1|146=1|55=7|10=229|8=FIX.4.4|9=170|35=V|34=9|49=demo.ctrader.3873996|50=3873996VzXycdSXPnwpvZsBNZqwsw|52=20240103-14:16:09.800|56=cServer|57=QUOTE|262=MARKETDATAID|263=1|264=1|267=2|269=0|269=1|146=1|55=8|10=231|8=FIX.4.4|9=171|35=V|34=10|49=demo.ctrader.3873996|50=3873996VzXycdSXPnwpvZsBNZqwsw|52=20240103-14:16:09.800|56=cServer|57=QUOTE|262=MARKETDATAID|263=1|264=1|267=2|269=0|269=1|146=1|55=9|10=017|8=FIX.4.4|9=172|35=V|34=11|49=demo.ctrader.3873996|50=3873996VzXycdSXPnwpvZsBNZqwsw|52=20240103-14:16:09.801|56=cServer|57=QUOTE|262=MARKETDATAID|263=1|264=1|267=2|269=0|269=1|146=1|55=10|10=060|8=FIX.4.4|9=172|35=V|34=12|49=demo.ctrader.3873996|50=3873996VzXycdSXPnwpvZsBNZqwsw|52=20240103-14:16:09.801|56=cServer|57=QUOTE|262=MARKETDATAID|263=1|264=1|267=2|269=0|269=1|146=1|55=11|10=062|8=FIX.4.4|9=172|35=V|34=13|49=demo.ctrader.3873996|50=3873996VzXycdSXPnwpvZsBNZqwsw|52=20240103-14:16:09.801|56=cServer|57=QUOTE|262=MARKETDATAID|263=1|264=1|267=2|269=0|269=1|146=1|55=12|10=064|8=FIX.4.4|9=172|35=V|34=14|49=demo.ctrader.3873996|50=3873996VzXycdSXPnwpvZsBNZqwsw|52=20240103-14:16:09.801|56=cServer|57=QUOTE|262=MARKETDATAID|263=1|264=1|267=2|269=0|269=1|146=1|55=13|10=066|8=FIX.4.4|9=172|35=V|34=15|49=demo.ctrader.3873996|50=3873996VzXycdSXPnwpvZsBNZqwsw|52=20240103-14:16:09.801|56=cServer|57=QUOTE|262=MARKETDATAID|263=1|264=1|267=2|269=0|269=1|146=1|55=14|10=068|8=FIX.4.4|9=172|35=V|34=16|49=demo.ctrader.3873996|50=3873996VzXycdSXPnwpvZsBNZqwsw|52=20240103-14:16:09.801|56=cServer|57=QUOTE|262=MARKETDATAID|263=1|264=1|267=2|269=0|269=1|146=1|55=15|10=070|8=FIX.4.4|9=172|35=V|34=17|49=demo.ctrader.3873996|50=3873996VzXycdSXPnwpvZsBNZqwsw|52=20240103-14:16:09.801|56=cServer|57=QUOTE|262=MARKETDATAID|263=1|264=1|267=2|269=0|269=1|146=1|55=16|10=072|8=FIX.4.4|9=172|35=V|34=18|49=demo.ctrader.3873996|50=3873996VzXycdSXPnwpvZsBNZqwsw|52=20240103-14:16:09.801|56=cServer|57=QUOTE|262=MARKETDATAID|263=1|264=1|267=2|269=0|269=1|146=1|55=17|10=074|8=FIX.4.4|9=172|35=V|34=19|49=demo.ctrader.3873996|50=3873996VzXycdSXPnwpvZsBNZqwsw|52=20240103-14:16:09.802|56=cServer|57=QUOTE|262=MARKETDATAID|263=1|264=1|267=2|269=0|269=1|146=1|55=18|10=077|8=FIX.4.4|9=172|35=V|34=20|49=demo.ctrader.3873996|50=3873996VzXycdSXPnwpvZsBNZqwsw|52=20240103-14:16:09.802|56=cServer|57=QUOTE|262=MARKETDATAID|263=1|264=1|267=2|269=0|269=1|146=1|55=19|10=070|8=FIX.4.4|9=172|35=V|34=21|49=demo.ctrader.3873996|50=3873996VzXycdSXPnwpvZsBNZqwsw|52=20240103-14:16:09.802|56=cServer|57=QUOTE|262=MARKETDATAID|263=1|264=1|267=2|269=0|269=1|146=1|55=22|10=065|8=FIX.4.4|9=113|35=0|34=22|49=demo.ctrader.3873996|50=3873996VzXycdSXPnwpvZsBNZqwsw|52=20240103-14:16:39.864|56=cServer|57=QUOTE|10=134|8=FIX.4.4|9=113|35=0|34=23|49=demo.ctrader.3873996|50=3873996VzXycdSXPnwpvZsBNZqwsw|52=20240103-14:17:09.898|56=cServer|57=QUOTE|10=140|8=FIX.4.4|9=113|35=0|34=24|49=demo.ctrader.3873996|50=3873996VzXycdSXPnwpvZsBNZqwsw|52=20240103-14:17:39.921|56=cServer|57=QUOTE|10=131|