8=FIX.4.4|9=244|35=A|34=1|49=demo.ctrader.3873996|50=3873996EKWuWaubir293LmDKeIKhw|52=20240104-08:51:11.831|56=cServer|57=TRADE|49=demo.ctrader.3873996|50=3873996EKWuWaubir293LmDKeIKhw|52=20240104-08:51:11|56=cServer|98=0|108=30|141=Y|553=3873996|554=Gtlfx125|10=090|8=FIX.4.4|9=130|35=x|34=2|49=demo.ctrader.3873996|50=3873996EKWuWaubir293LmDKeIKhw|52=20240104-08:51:12.428|56=cServer|57=TRADE|320=symbols|559=0|10=045|8=FIX.4.4|9=127|35=AN|34=3|49=demo.ctrader.3873996|50=3873996EKWuWaubir293LmDKeIKhw|52=20240104-08:51:12.635|56=cServer|57=TRADE|710=Positions|10=252|8=FIX.4.4|9=130|35=AF|34=4|49=demo.ctrader.3873996|50=3873996EKWuWaubir293LmDKeIKhw|52=20240104-08:51:12.635|56=cServer|57=TRADE|584=Orders|585=7|10=182|8=FIX.4.4|9=177|35=D|34=5|49=demo.ctrader.3873996|50=3873996EKWuWaubir293LmDKeIKhw|52=20240104-08:51:37.749|56=cServer|57=TRADE|11=68421680|38=1000|40=1|54=1|55=2|59=3|60=20240104-13:51:37.749|10=016|