8=FIX.4.4|9=244|35=A|34=1|49=demo.ctrader.3873996|50=38739969cqFXuIwfCZeG43sOa5hGg|52=20231226-07:16:28.591|56=cServer|57=TRADE|49=demo.ctrader.3873996|50=38739969cqFXuIwfCZeG43sOa5hGg|52=20231226-07:16:28|56=cServer|98=0|108=30|141=Y|553=3873996|554=Gtlfx125|10=055|8=FIX.4.4|9=130|35=x|34=2|49=demo.ctrader.3873996|50=38739969cqFXuIwfCZeG43sOa5hGg|52=20231226-07:16:29.139|56=cServer|57=TRADE|320=symbols|559=0|10=025|8=FIX.4.4|9=127|35=AN|34=3|49=demo.ctrader.3873996|50=38739969cqFXuIwfCZeG43sOa5hGg|52=20231226-07:16:29.308|56=cServer|57=TRADE|710=Positions|10=230|8=FIX.4.4|9=130|35=AF|34=4|49=demo.ctrader.3873996|50=38739969cqFXuIwfCZeG43sOa5hGg|52=20231226-07:16:29.308|56=cServer|57=TRADE|584=Orders|585=7|10=160|8=FIX.4.4|9=112|35=0|34=5|49=demo.ctrader.3873996|50=38739969cqFXuIwfCZeG43sOa5hGg|52=20231226-07:16:59.725|56=cServer|57=TRADE|10=235|8=FIX.4.4|9=112|35=0|34=6|49=demo.ctrader.3873996|50=38739969cqFXuIwfCZeG43sOa5hGg|52=20231226-07:17:29.766|56=cServer|57=TRADE|10=239|8=FIX.4.4|9=226|35=5|34=7|49=demo.ctrader.3873996|50=38739969cqFXuIwfCZeG43sOa5hGg|52=20231226-07:17:44.010|56=cServer|57=TRADE|49=demo.ctrader.3873996|50=38739969cqFXuIwfCZeG43sOa5hGg|52=20231226-07:17:44|56=cServer|553=3873996|554=Gtlfx125|10=219|8=FIX.4.4|9=226|35=5|34=8|49=demo.ctrader.3873996|50=38739969cqFXuIwfCZeG43sOa5hGg|52=20231226-07:17:44.065|56=cServer|57=TRADE|49=demo.ctrader.3873996|50=38739969cqFXuIwfCZeG43sOa5hGg|52=20231226-07:17:44|56=cServer|553=3873996|554=Gtlfx125|10=230|