8=FIX.4.4|9=244|35=A|34=1|49=demo.ctrader.3873996|50=3873996lxc3uNCgvHmJz90h_JSdTQ|52=20240104-08:46:14.539|56=cServer|57=TRADE|49=demo.ctrader.3873996|50=3873996lxc3uNCgvHmJz90h_JSdTQ|52=20240104-08:46:14|56=cServer|98=0|108=30|141=Y|553=3873996|554=Gtlfx125|10=189|8=FIX.4.4|9=130|35=x|34=2|49=demo.ctrader.3873996|50=3873996lxc3uNCgvHmJz90h_JSdTQ|52=20240104-08:46:15.242|56=cServer|57=TRADE|320=symbols|559=0|10=086|8=FIX.4.4|9=127|35=AN|34=3|49=demo.ctrader.3873996|50=3873996lxc3uNCgvHmJz90h_JSdTQ|52=20240104-08:46:15.494|56=cServer|57=TRADE|710=Positions|10=046|8=FIX.4.4|9=130|35=AF|34=4|49=demo.ctrader.3873996|50=3873996lxc3uNCgvHmJz90h_JSdTQ|52=20240104-08:46:15.495|56=cServer|57=TRADE|584=Orders|585=7|10=233|8=FIX.4.4|9=177|35=D|34=5|49=demo.ctrader.3873996|50=3873996lxc3uNCgvHmJz90h_JSdTQ|52=20240104-08:46:27.426|56=cServer|57=TRADE|11=68421676|38=1000|40=1|54=1|55=2|59=3|60=20240104-13:46:27.425|10=050|8=FIX.4.4|9=112|35=0|34=6|49=demo.ctrader.3873996|50=3873996lxc3uNCgvHmJz90h_JSdTQ|52=20240104-08:46:57.955|56=cServer|57=TRADE|10=054|8=FIX.4.4|9=112|35=0|34=7|49=demo.ctrader.3873996|50=3873996lxc3uNCgvHmJz90h_JSdTQ|52=20240104-08:47:28.967|56=cServer|57=TRADE|10=057|8=FIX.4.4|9=226|35=5|34=8|49=demo.ctrader.3873996|50=3873996lxc3uNCgvHmJz90h_JSdTQ|52=20240104-08:47:43.849|56=cServer|57=TRADE|49=demo.ctrader.3873996|50=3873996lxc3uNCgvHmJz90h_JSdTQ|52=20240104-08:47:43|56=cServer|553=3873996|554=Gtlfx125|10=124|8=FIX.4.4|9=226|35=5|34=9|49=demo.ctrader.3873996|50=3873996lxc3uNCgvHmJz90h_JSdTQ|52=20240104-08:47:43.889|56=cServer|57=TRADE|49=demo.ctrader.3873996|50=3873996lxc3uNCgvHmJz90h_JSdTQ|52=20240104-08:47:43|56=cServer|553=3873996|554=Gtlfx125|10=129|