8=FIX.4.4|9=244|35=A|34=1|49=demo.ctrader.3873996|50=3873996EKWuWaubir293LmDKeIKhw|52=20240104-08:51:11.841|56=cServer|57=QUOTE|49=demo.ctrader.3873996|50=3873996EKWuWaubir293LmDKeIKhw|52=20240104-08:51:11|56=cServer|98=0|108=30|141=Y|553=3873996|554=Gtlfx125|10=121|8=FIX.4.4|9=170|35=V|34=2|49=demo.ctrader.3873996|50=3873996EKWuWaubir293LmDKeIKhw|52=20240104-08:51:12.636|56=cServer|57=QUOTE|262=MARKETDATAID|263=1|264=1|267=2|269=0|269=1|146=1|55=1|10=170|8=FIX.4.4|9=170|35=V|34=3|49=demo.ctrader.3873996|50=3873996EKWuWaubir293LmDKeIKhw|52=20240104-08:51:12.636|56=cServer|57=QUOTE|262=MARKETDATAID|263=1|264=1|267=2|269=0|269=1|146=1|55=2|10=172|8=FIX.4.4|9=170|35=V|34=4|49=demo.ctrader.3873996|50=3873996EKWuWaubir293LmDKeIKhw|52=20240104-08:51:12.636|56=cServer|57=QUOTE|262=MARKETDATAID|263=1|264=1|267=2|269=0|269=1|146=1|55=3|10=174|8=FIX.4.4|9=170|35=V|34=5|49=demo.ctrader.3873996|50=3873996EKWuWaubir293LmDKeIKhw|52=20240104-08:51:12.637|56=cServer|57=QUOTE|262=MARKETDATAID|263=1|264=1|267=2|269=0|269=1|146=1|55=4|10=177|8=FIX.4.4|9=170|35=V|34=6|49=demo.ctrader.3873996|50=3873996EKWuWaubir293LmDKeIKhw|52=20240104-08:51:12.637|56=cServer|57=QUOTE|262=MARKETDATAID|263=1|264=1|267=2|269=0|269=1|146=1|55=5|10=179|8=FIX.4.4|9=170|35=V|34=7|49=demo.ctrader.3873996|50=3873996EKWuWaubir293LmDKeIKhw|52=20240104-08:51:12.637|56=cServer|57=QUOTE|262=MARKETDATAID|263=1|264=1|267=2|269=0|269=1|146=1|55=6|10=181|8=FIX.4.4|9=170|35=V|34=8|49=demo.ctrader.3873996|50=3873996EKWuWaubir293LmDKeIKhw|52=20240104-08:51:12.637|56=cServer|57=QUOTE|262=MARKETDATAID|263=1|264=1|267=2|269=0|269=1|146=1|55=7|10=183|8=FIX.4.4|9=170|35=V|34=9|49=demo.ctrader.3873996|50=3873996EKWuWaubir293LmDKeIKhw|52=20240104-08:51:12.637|56=cServer|57=QUOTE|262=MARKETDATAID|263=1|264=1|267=2|269=0|269=1|146=1|55=8|10=185|8=FIX.4.4|9=171|35=V|34=10|49=demo.ctrader.3873996|50=3873996EKWuWaubir293LmDKeIKhw|52=20240104-08:51:12.637|56=cServer|57=QUOTE|262=MARKETDATAID|263=1|264=1|267=2|269=0|269=1|146=1|55=9|10=227|8=FIX.4.4|9=172|35=V|34=11|49=demo.ctrader.3873996|50=3873996EKWuWaubir293LmDKeIKhw|52=20240104-08:51:12.637|56=cServer|57=QUOTE|262=MARKETDATAID|263=1|264=1|267=2|269=0|269=1|146=1|55=10|10=013|8=FIX.4.4|9=172|35=V|34=12|49=demo.ctrader.3873996|50=3873996EKWuWaubir293LmDKeIKhw|52=20240104-08:51:12.637|56=cServer|57=QUOTE|262=MARKETDATAID|263=1|264=1|267=2|269=0|269=1|146=1|55=11|10=015|8=FIX.4.4|9=172|35=V|34=13|49=demo.ctrader.3873996|50=3873996EKWuWaubir293LmDKeIKhw|52=20240104-08:51:12.637|56=cServer|57=QUOTE|262=MARKETDATAID|263=1|264=1|267=2|269=0|269=1|146=1|55=12|10=017|8=FIX.4.4|9=172|35=V|34=14|49=demo.ctrader.3873996|50=3873996EKWuWaubir293LmDKeIKhw|52=20240104-08:51:12.637|56=cServer|57=QUOTE|262=MARKETDATAID|263=1|264=1|267=2|269=0|269=1|146=1|55=13|10=019|8=FIX.4.4|9=172|35=V|34=15|49=demo.ctrader.3873996|50=3873996EKWuWaubir293LmDKeIKhw|52=20240104-08:51:12.638|56=cServer|57=QUOTE|262=MARKETDATAID|263=1|264=1|267=2|269=0|269=1|146=1|55=14|10=022|8=FIX.4.4|9=172|35=V|34=16|49=demo.ctrader.3873996|50=3873996EKWuWaubir293LmDKeIKhw|52=20240104-08:51:12.638|56=cServer|57=QUOTE|262=MARKETDATAID|263=1|264=1|267=2|269=0|269=1|146=1|55=15|10=024|8=FIX.4.4|9=172|35=V|34=17|49=demo.ctrader.3873996|50=3873996EKWuWaubir293LmDKeIKhw|52=20240104-08:51:12.638|56=cServer|57=QUOTE|262=MARKETDATAID|263=1|264=1|267=2|269=0|269=1|146=1|55=16|10=026|8=FIX.4.4|9=172|35=V|34=18|49=demo.ctrader.3873996|50=3873996EKWuWaubir293LmDKeIKhw|52=20240104-08:51:12.638|56=cServer|57=QUOTE|262=MARKETDATAID|263=1|264=1|267=2|269=0|269=1|146=1|55=17|10=028|8=FIX.4.4|9=172|35=V|34=19|49=demo.ctrader.3873996|50=3873996EKWuWaubir293LmDKeIKhw|52=20240104-08:51:12.638|56=cServer|57=QUOTE|262=MARKETDATAID|263=1|264=1|267=2|269=0|269=1|146=1|55=18|10=030|8=FIX.4.4|9=172|35=V|34=20|49=demo.ctrader.3873996|50=3873996EKWuWaubir293LmDKeIKhw|52=20240104-08:51:12.638|56=cServer|57=QUOTE|262=MARKETDATAID|263=1|264=1|267=2|269=0|269=1|146=1|55=19|10=023|8=FIX.4.4|9=172|35=V|34=21|49=demo.ctrader.3873996|50=3873996EKWuWaubir293LmDKeIKhw|52=20240104-08:51:12.638|56=cServer|57=QUOTE|262=MARKETDATAID|263=1|264=1|267=2|269=0|269=1|146=1|55=22|10=018|