8=FIX.4.4|9=244|35=A|34=1|49=demo.ctrader.3873996|50=3873996cNDlO3jjJhivXjRWfOrrOQ|52=20231212-07:12:49.006|56=cServer|57=TRADE|49=demo.ctrader.3873996|50=3873996cNDlO3jjJhivXjRWfOrrOQ|52=20231212-07:12:49|56=cServer|98=0|108=30|141=Y|553=3873996|554=Gtlfx125|10=050|8=FIX.4.4|9=130|35=x|34=2|49=demo.ctrader.3873996|50=3873996cNDlO3jjJhivXjRWfOrrOQ|52=20231212-07:12:57.859|56=cServer|57=TRADE|320=symbols|559=0|10=162|8=FIX.4.4|9=127|35=AN|34=3|49=demo.ctrader.3873996|50=3873996cNDlO3jjJhivXjRWfOrrOQ|52=20231212-07:13:00.707|56=cServer|57=TRADE|710=Positions|10=094|8=FIX.4.4|9=130|35=AF|34=4|49=demo.ctrader.3873996|50=3873996cNDlO3jjJhivXjRWfOrrOQ|52=20231212-07:13:00.708|56=cServer|57=TRADE|584=Orders|585=7|10=025|8=FIX.4.4|9=112|35=0|34=5|49=demo.ctrader.3873996|50=3873996cNDlO3jjJhivXjRWfOrrOQ|52=20231212-07:13:31.128|56=cServer|57=TRADE|10=094|8=FIX.4.4|9=112|35=0|34=6|49=demo.ctrader.3873996|50=3873996cNDlO3jjJhivXjRWfOrrOQ|52=20231212-07:14:16.311|56=cServer|57=TRADE|10=093|8=FIX.4.4|9=226|35=5|34=7|49=demo.ctrader.3873996|50=3873996cNDlO3jjJhivXjRWfOrrOQ|52=20231212-07:14:21.572|56=cServer|57=TRADE|49=demo.ctrader.3873996|50=3873996cNDlO3jjJhivXjRWfOrrOQ|52=20231212-07:14:21|56=cServer|553=3873996|554=Gtlfx125|10=222|8=FIX.4.4|9=112|35=0|34=8|49=demo.ctrader.3873996|50=3873996cNDlO3jjJhivXjRWfOrrOQ|52=20231212-07:14:51.894|56=cServer|57=TRADE|10=110|8=FIX.4.4|9=112|35=0|34=9|49=demo.ctrader.3873996|50=3873996cNDlO3jjJhivXjRWfOrrOQ|52=20231212-07:15:22.174|56=cServer|57=TRADE|10=101|8=FIX.4.4|9=113|35=0|34=10|49=demo.ctrader.3873996|50=3873996cNDlO3jjJhivXjRWfOrrOQ|52=20231212-07:15:52.231|56=cServer|57=TRADE|10=139|8=FIX.4.4|9=113|35=0|34=11|49=demo.ctrader.3873996|50=3873996cNDlO3jjJhivXjRWfOrrOQ|52=20231212-07:16:23.242|56=cServer|57=TRADE|10=141|8=FIX.4.4|9=113|35=0|34=12|49=demo.ctrader.3873996|50=3873996cNDlO3jjJhivXjRWfOrrOQ|52=20231212-07:16:54.240|56=cServer|57=TRADE|10=144|8=FIX.4.4|9=113|35=0|34=13|49=demo.ctrader.3873996|50=3873996cNDlO3jjJhivXjRWfOrrOQ|52=20231212-07:17:24.306|56=cServer|57=TRADE|10=146|8=FIX.4.4|9=113|35=0|34=14|49=demo.ctrader.3873996|50=3873996cNDlO3jjJhivXjRWfOrrOQ|52=20231212-07:17:55.255|56=cServer|57=TRADE|10=154|8=FIX.4.4|9=113|35=0|34=15|49=demo.ctrader.3873996|50=3873996cNDlO3jjJhivXjRWfOrrOQ|52=20231212-07:18:26.244|56=cServer|57=TRADE|10=152|8=FIX.4.4|9=113|35=0|34=16|49=demo.ctrader.3873996|50=3873996cNDlO3jjJhivXjRWfOrrOQ|52=20231212-07:18:57.544|56=cServer|57=TRADE|10=160|8=FIX.4.4|9=113|35=0|34=17|49=demo.ctrader.3873996|50=3873996cNDlO3jjJhivXjRWfOrrOQ|52=20231212-07:19:28.357|56=cServer|57=TRADE|10=162|8=FIX.4.4|9=113|35=0|34=18|49=demo.ctrader.3873996|50=3873996cNDlO3jjJhivXjRWfOrrOQ|52=20231212-07:19:59.315|56=cServer|57=TRADE|10=161|8=FIX.4.4|9=113|35=0|34=19|49=demo.ctrader.3873996|50=3873996cNDlO3jjJhivXjRWfOrrOQ|52=20231212-07:20:30.279|56=cServer|57=TRADE|10=152|8=FIX.4.4|9=113|35=0|34=20|49=demo.ctrader.3873996|50=3873996cNDlO3jjJhivXjRWfOrrOQ|52=20231212-07:21:00.293|56=cServer|57=TRADE|10=138|8=FIX.4.4|9=113|35=0|34=21|49=demo.ctrader.3873996|50=3873996cNDlO3jjJhivXjRWfOrrOQ|52=20231212-07:21:31.289|56=cServer|57=TRADE|10=148|8=FIX.4.4|9=113|35=0|34=22|49=demo.ctrader.3873996|50=3873996cNDlO3jjJhivXjRWfOrrOQ|52=20231212-07:22:01.297|56=cServer|57=TRADE|10=146|