8=FIX.4.4|9=244|35=A|34=1|49=demo.ctrader.3873996|50=3873996KQPhhH-DenKiRPv4iK7yhg|52=20231227-11:11:14.384|56=cServer|57=TRADE|49=demo.ctrader.3873996|50=3873996KQPhhH-DenKiRPv4iK7yhg|52=20231227-11:11:14|56=cServer|98=0|108=30|141=Y|553=3873996|554=Gtlfx125|10=073|8=FIX.4.4|9=130|35=x|34=2|49=demo.ctrader.3873996|50=3873996KQPhhH-DenKiRPv4iK7yhg|52=20231227-11:11:14.988|56=cServer|57=TRADE|320=symbols|559=0|10=045|8=FIX.4.4|9=127|35=AN|34=3|49=demo.ctrader.3873996|50=3873996KQPhhH-DenKiRPv4iK7yhg|52=20231227-11:11:15.253|56=cServer|57=TRADE|710=Positions|10=238|8=FIX.4.4|9=130|35=AF|34=4|49=demo.ctrader.3873996|50=3873996KQPhhH-DenKiRPv4iK7yhg|52=20231227-11:11:15.277|56=cServer|57=TRADE|584=Orders|585=7|10=174|8=FIX.4.4|9=112|35=0|34=5|49=demo.ctrader.3873996|50=3873996KQPhhH-DenKiRPv4iK7yhg|52=20231227-11:11:45.712|56=cServer|57=TRADE|10=240|8=FIX.4.4|9=112|35=0|34=6|49=demo.ctrader.3873996|50=3873996KQPhhH-DenKiRPv4iK7yhg|52=20231227-11:12:16.706|56=cServer|57=TRADE|10=243|8=FIX.4.4|9=112|35=0|34=7|49=demo.ctrader.3873996|50=3873996KQPhhH-DenKiRPv4iK7yhg|52=20231227-11:12:46.712|56=cServer|57=TRADE|10=244|8=FIX.4.4|9=112|35=0|34=8|49=demo.ctrader.3873996|50=3873996KQPhhH-DenKiRPv4iK7yhg|52=20231227-11:13:17.720|56=cServer|57=TRADE|10=243|8=FIX.4.4|9=112|35=0|34=9|49=demo.ctrader.3873996|50=3873996KQPhhH-DenKiRPv4iK7yhg|52=20231227-11:13:47.721|56=cServer|57=TRADE|10=248|8=FIX.4.4|9=113|35=0|34=10|49=demo.ctrader.3873996|50=3873996KQPhhH-DenKiRPv4iK7yhg|52=20231227-11:14:18.715|56=cServer|57=TRADE|10=035|8=FIX.4.4|9=113|35=0|34=11|49=demo.ctrader.3873996|50=3873996KQPhhH-DenKiRPv4iK7yhg|52=20231227-11:14:48.755|56=cServer|57=TRADE|10=043|8=FIX.4.4|9=113|35=0|34=12|49=demo.ctrader.3873996|50=3873996KQPhhH-DenKiRPv4iK7yhg|52=20231227-11:15:19.749|56=cServer|57=TRADE|10=046|8=FIX.4.4|9=113|35=0|34=13|49=demo.ctrader.3873996|50=3873996KQPhhH-DenKiRPv4iK7yhg|52=20231227-11:15:49.774|56=cServer|57=TRADE|10=048|8=FIX.4.4|9=113|35=0|34=14|49=demo.ctrader.3873996|50=3873996KQPhhH-DenKiRPv4iK7yhg|52=20231227-11:16:19.826|56=cServer|57=TRADE|10=045|