8=FIX.4.4|9=244|35=A|34=1|49=demo.ctrader.3873996|50=3873996U4k1Z2qyvEaoGSgETC7W_g|52=20240104-09:49:30.307|56=cServer|57=TRADE|49=demo.ctrader.3873996|50=3873996U4k1Z2qyvEaoGSgETC7W_g|52=20240104-09:49:30|56=cServer|98=0|108=30|141=Y|553=3873996|554=Gtlfx125|10=016|8=FIX.4.4|9=130|35=x|34=2|49=demo.ctrader.3873996|50=3873996U4k1Z2qyvEaoGSgETC7W_g|52=20240104-09:49:30.944|56=cServer|57=TRADE|320=symbols|559=0|10=011|8=FIX.4.4|9=127|35=AN|34=3|49=demo.ctrader.3873996|50=3873996U4k1Z2qyvEaoGSgETC7W_g|52=20240104-09:49:31.231|56=cServer|57=TRADE|710=Positions|10=208|8=FIX.4.4|9=130|35=AF|34=4|49=demo.ctrader.3873996|50=3873996U4k1Z2qyvEaoGSgETC7W_g|52=20240104-09:49:31.231|56=cServer|57=TRADE|584=Orders|585=7|10=138|8=FIX.4.4|9=177|35=D|34=5|49=demo.ctrader.3873996|50=3873996U4k1Z2qyvEaoGSgETC7W_g|52=20240104-09:49:42.019|56=cServer|57=TRADE|11=68421687|38=1000|40=1|54=1|55=2|59=3|60=20240104-14:49:42.018|10=221|8=FIX.4.4|9=127|35=AN|34=6|49=demo.ctrader.3873996|50=3873996U4k1Z2qyvEaoGSgETC7W_g|52=20240104-09:49:42.429|56=cServer|57=TRADE|710=Positions|10=222|8=FIX.4.4|9=112|35=0|34=7|49=demo.ctrader.3873996|50=3873996U4k1Z2qyvEaoGSgETC7W_g|52=20240104-09:50:12.953|56=cServer|57=TRADE|10=211|8=FIX.4.4|9=112|35=0|34=8|49=demo.ctrader.3873996|50=3873996U4k1Z2qyvEaoGSgETC7W_g|52=20240104-09:50:42.953|56=cServer|57=TRADE|10=215|