8=FIX.4.4|9=244|35=A|34=1|49=demo.ctrader.3873996|50=3873996nNFBt62gDTze8Y2Mci2-Aw|52=20231212-07:09:32.434|56=cServer|57=TRADE|49=demo.ctrader.3873996|50=3873996nNFBt62gDTze8Y2Mci2-Aw|52=20231212-07:09:32|56=cServer|98=0|108=30|141=Y|553=3873996|554=Gtlfx125|10=061|8=FIX.4.4|9=112|35=0|34=2|49=demo.ctrader.3873996|50=3873996nNFBt62gDTze8Y2Mci2-Aw|52=20231212-07:10:11.728|56=cServer|57=TRADE|10=097|8=FIX.4.4|9=130|35=x|34=3|49=demo.ctrader.3873996|50=3873996nNFBt62gDTze8Y2Mci2-Aw|52=20231212-07:10:11.730|56=cServer|57=TRADE|320=symbols|559=0|10=144|8=FIX.4.4|9=112|35=0|34=4|49=demo.ctrader.3873996|50=3873996nNFBt62gDTze8Y2Mci2-Aw|52=20231212-07:11:00.718|56=cServer|57=TRADE|10=097|8=FIX.4.4|9=121|35=0|34=5|49=demo.ctrader.3873996|50=3873996nNFBt62gDTze8Y2Mci2-Aw|52=20231212-07:11:00.721|56=cServer|57=TRADE|112=TEST|10=110|