8=FIX.4.4|9=244|35=A|34=1|49=demo.ctrader.3873996|50=3873996uRuttjde2P91BWzlxjhQVg|52=20240104-08:05:07.500|56=cServer|57=QUOTE|49=demo.ctrader.3873996|50=3873996uRuttjde2P91BWzlxjhQVg|52=20240104-08:05:07|56=cServer|98=0|108=30|141=Y|553=3873996|554=Gtlfx125|10=165|8=FIX.4.4|9=170|35=V|34=2|49=demo.ctrader.3873996|50=3873996uRuttjde2P91BWzlxjhQVg|52=20240104-08:05:08.401|56=cServer|57=QUOTE|262=MARKETDATAID|263=1|264=1|267=2|269=0|269=1|146=1|55=1|10=058|8=FIX.4.4|9=170|35=V|34=3|49=demo.ctrader.3873996|50=3873996uRuttjde2P91BWzlxjhQVg|52=20240104-08:05:08.403|56=cServer|57=QUOTE|262=MARKETDATAID|263=1|264=1|267=2|269=0|269=1|146=1|55=2|10=062|8=FIX.4.4|9=170|35=V|34=4|49=demo.ctrader.3873996|50=3873996uRuttjde2P91BWzlxjhQVg|52=20240104-08:05:08.403|56=cServer|57=QUOTE|262=MARKETDATAID|263=1|264=1|267=2|269=0|269=1|146=1|55=3|10=064|8=FIX.4.4|9=170|35=V|34=5|49=demo.ctrader.3873996|50=3873996uRuttjde2P91BWzlxjhQVg|52=20240104-08:05:08.403|56=cServer|57=QUOTE|262=MARKETDATAID|263=1|264=1|267=2|269=0|269=1|146=1|55=4|10=066|8=FIX.4.4|9=170|35=V|34=6|49=demo.ctrader.3873996|50=3873996uRuttjde2P91BWzlxjhQVg|52=20240104-08:05:08.404|56=cServer|57=QUOTE|262=MARKETDATAID|263=1|264=1|267=2|269=0|269=1|146=1|55=5|10=069|8=FIX.4.4|9=170|35=V|34=7|49=demo.ctrader.3873996|50=3873996uRuttjde2P91BWzlxjhQVg|52=20240104-08:05:08.404|56=cServer|57=QUOTE|262=MARKETDATAID|263=1|264=1|267=2|269=0|269=1|146=1|55=6|10=071|8=FIX.4.4|9=170|35=V|34=8|49=demo.ctrader.3873996|50=3873996uRuttjde2P91BWzlxjhQVg|52=20240104-08:05:08.404|56=cServer|57=QUOTE|262=MARKETDATAID|263=1|264=1|267=2|269=0|269=1|146=1|55=7|10=073|8=FIX.4.4|9=170|35=V|34=9|49=demo.ctrader.3873996|50=3873996uRuttjde2P91BWzlxjhQVg|52=20240104-08:05:08.404|56=cServer|57=QUOTE|262=MARKETDATAID|263=1|264=1|267=2|269=0|269=1|146=1|55=8|10=075|8=FIX.4.4|9=171|35=V|34=10|49=demo.ctrader.3873996|50=3873996uRuttjde2P91BWzlxjhQVg|52=20240104-08:05:08.404|56=cServer|57=QUOTE|262=MARKETDATAID|263=1|264=1|267=2|269=0|269=1|146=1|55=9|10=117|8=FIX.4.4|9=172|35=V|34=11|49=demo.ctrader.3873996|50=3873996uRuttjde2P91BWzlxjhQVg|52=20240104-08:05:08.404|56=cServer|57=QUOTE|262=MARKETDATAID|263=1|264=1|267=2|269=0|269=1|146=1|55=10|10=159|8=FIX.4.4|9=172|35=V|34=12|49=demo.ctrader.3873996|50=3873996uRuttjde2P91BWzlxjhQVg|52=20240104-08:05:08.405|56=cServer|57=QUOTE|262=MARKETDATAID|263=1|264=1|267=2|269=0|269=1|146=1|55=11|10=162|8=FIX.4.4|9=172|35=V|34=13|49=demo.ctrader.3873996|50=3873996uRuttjde2P91BWzlxjhQVg|52=20240104-08:05:08.405|56=cServer|57=QUOTE|262=MARKETDATAID|263=1|264=1|267=2|269=0|269=1|146=1|55=12|10=164|8=FIX.4.4|9=172|35=V|34=14|49=demo.ctrader.3873996|50=3873996uRuttjde2P91BWzlxjhQVg|52=20240104-08:05:08.405|56=cServer|57=QUOTE|262=MARKETDATAID|263=1|264=1|267=2|269=0|269=1|146=1|55=13|10=166|8=FIX.4.4|9=172|35=V|34=15|49=demo.ctrader.3873996|50=3873996uRuttjde2P91BWzlxjhQVg|52=20240104-08:05:08.405|56=cServer|57=QUOTE|262=MARKETDATAID|263=1|264=1|267=2|269=0|269=1|146=1|55=14|10=168|8=FIX.4.4|9=172|35=V|34=16|49=demo.ctrader.3873996|50=3873996uRuttjde2P91BWzlxjhQVg|52=20240104-08:05:08.405|56=cServer|57=QUOTE|262=MARKETDATAID|263=1|264=1|267=2|269=0|269=1|146=1|55=15|10=170|8=FIX.4.4|9=172|35=V|34=17|49=demo.ctrader.3873996|50=3873996uRuttjde2P91BWzlxjhQVg|52=20240104-08:05:08.405|56=cServer|57=QUOTE|262=MARKETDATAID|263=1|264=1|267=2|269=0|269=1|146=1|55=16|10=172|8=FIX.4.4|9=172|35=V|34=18|49=demo.ctrader.3873996|50=3873996uRuttjde2P91BWzlxjhQVg|52=20240104-08:05:08.406|56=cServer|57=QUOTE|262=MARKETDATAID|263=1|264=1|267=2|269=0|269=1|146=1|55=17|10=175|8=FIX.4.4|9=172|35=V|34=19|49=demo.ctrader.3873996|50=3873996uRuttjde2P91BWzlxjhQVg|52=20240104-08:05:08.406|56=cServer|57=QUOTE|262=MARKETDATAID|263=1|264=1|267=2|269=0|269=1|146=1|55=18|10=177|8=FIX.4.4|9=172|35=V|34=20|49=demo.ctrader.3873996|50=3873996uRuttjde2P91BWzlxjhQVg|52=20240104-08:05:08.406|56=cServer|57=QUOTE|262=MARKETDATAID|263=1|264=1|267=2|269=0|269=1|146=1|55=19|10=170|8=FIX.4.4|9=172|35=V|34=21|49=demo.ctrader.3873996|50=3873996uRuttjde2P91BWzlxjhQVg|52=20240104-08:05:08.406|56=cServer|57=QUOTE|262=MARKETDATAID|263=1|264=1|267=2|269=0|269=1|146=1|55=22|10=165|8=FIX.4.4|9=113|35=0|34=22|49=demo.ctrader.3873996|50=3873996uRuttjde2P91BWzlxjhQVg|52=20240104-08:05:41.154|56=cServer|57=QUOTE|10=220|8=FIX.4.4|9=113|35=0|34=23|49=demo.ctrader.3873996|50=3873996uRuttjde2P91BWzlxjhQVg|52=20240104-08:06:11.217|56=cServer|57=QUOTE|10=219|8=FIX.4.4|9=113|35=0|34=24|49=demo.ctrader.3873996|50=3873996uRuttjde2P91BWzlxjhQVg|52=20240104-08:06:41.217|56=cServer|57=QUOTE|10=223|8=FIX.4.4|9=113|35=0|34=25|49=demo.ctrader.3873996|50=3873996uRuttjde2P91BWzlxjhQVg|52=20240104-08:07:11.279|56=cServer|57=QUOTE|10=230|8=FIX.4.4|9=113|35=0|34=26|49=demo.ctrader.3873996|50=3873996uRuttjde2P91BWzlxjhQVg|52=20240104-08:07:41.301|56=cServer|57=QUOTE|10=220|8=FIX.4.4|9=113|35=0|34=27|49=demo.ctrader.3873996|50=3873996uRuttjde2P91BWzlxjhQVg|52=20240104-08:08:11.317|56=cServer|57=QUOTE|10=226|8=FIX.4.4|9=113|35=0|34=28|49=demo.ctrader.3873996|50=3873996uRuttjde2P91BWzlxjhQVg|52=20240104-08:08:41.322|56=cServer|57=QUOTE|10=226|8=FIX.4.4|9=113|35=0|34=29|49=demo.ctrader.3873996|50=3873996uRuttjde2P91BWzlxjhQVg|52=20240104-08:09:11.365|56=cServer|57=QUOTE|10=232|8=FIX.4.4|9=113|35=0|34=30|49=demo.ctrader.3873996|50=3873996uRuttjde2P91BWzlxjhQVg|52=20240104-08:09:41.380|56=cServer|57=QUOTE|10=224|8=FIX.4.4|9=113|35=0|34=31|49=demo.ctrader.3873996|50=3873996uRuttjde2P91BWzlxjhQVg|52=20240104-08:10:11.387|56=cServer|57=QUOTE|10=221|8=FIX.4.4|9=113|35=0|34=32|49=demo.ctrader.3873996|50=3873996uRuttjde2P91BWzlxjhQVg|52=20240104-08:10:41.425|56=cServer|57=QUOTE|10=218|8=FIX.4.4|9=113|35=0|34=33|49=demo.ctrader.3873996|50=3873996uRuttjde2P91BWzlxjhQVg|52=20240104-08:11:11.518|56=cServer|57=QUOTE|10=220|8=FIX.4.4|9=113|35=0|34=34|49=demo.ctrader.3873996|50=3873996uRuttjde2P91BWzlxjhQVg|52=20240104-08:11:41.556|56=cServer|57=QUOTE|10=226|8=FIX.4.4|9=227|35=5|34=35|49=demo.ctrader.3873996|50=3873996uRuttjde2P91BWzlxjhQVg|52=20240104-08:11:44.340|56=cServer|57=QUOTE|49=demo.ctrader.3873996|50=3873996uRuttjde2P91BWzlxjhQVg|52=20240104-08:11:44|56=cServer|553=3873996|554=Gtlfx125|10=137|8=FIX.4.4|9=227|35=5|34=36|49=demo.ctrader.3873996|50=3873996uRuttjde2P91BWzlxjhQVg|52=20240104-08:11:54.652|56=cServer|57=QUOTE|49=demo.ctrader.3873996|50=3873996uRuttjde2P91BWzlxjhQVg|52=20240104-08:11:54|56=cServer|553=3873996|554=Gtlfx125|10=146|