8=FIX.4.4|9=244|35=A|34=1|49=demo.ctrader.3873996|50=3873996Z26fKAX_lXtetMN4Pepo0Q|52=20231219-09:24:11.378|56=cServer|57=TRADE|49=demo.ctrader.3873996|50=3873996Z26fKAX_lXtetMN4Pepo0Q|52=20231219-09:24:11|56=cServer|98=0|108=30|141=Y|553=3873996|554=Gtlfx125|10=040|8=FIX.4.4|9=130|35=x|34=2|49=demo.ctrader.3873996|50=3873996Z26fKAX_lXtetMN4Pepo0Q|52=20231219-09:24:11.833|56=cServer|57=TRADE|320=symbols|559=0|10=016|8=FIX.4.4|9=127|35=AN|34=3|49=demo.ctrader.3873996|50=3873996Z26fKAX_lXtetMN4Pepo0Q|52=20231219-09:24:12.170|56=cServer|57=TRADE|710=Positions|10=218|8=FIX.4.4|9=130|35=AF|34=4|49=demo.ctrader.3873996|50=3873996Z26fKAX_lXtetMN4Pepo0Q|52=20231219-09:24:12.170|56=cServer|57=TRADE|584=Orders|585=7|10=148|8=FIX.4.4|9=112|35=0|34=5|49=demo.ctrader.3873996|50=3873996Z26fKAX_lXtetMN4Pepo0Q|52=20231219-09:24:42.576|56=cServer|57=TRADE|10=230|8=FIX.4.4|9=112|35=0|34=6|49=demo.ctrader.3873996|50=3873996Z26fKAX_lXtetMN4Pepo0Q|52=20231219-09:25:12.862|56=cServer|57=TRADE|10=227|8=FIX.4.4|9=112|35=0|34=7|49=demo.ctrader.3873996|50=3873996Z26fKAX_lXtetMN4Pepo0Q|52=20231219-09:25:43.117|56=cServer|57=TRADE|10=225|8=FIX.4.4|9=112|35=0|34=8|49=demo.ctrader.3873996|50=3873996Z26fKAX_lXtetMN4Pepo0Q|52=20231219-09:26:13.243|56=cServer|57=TRADE|10=224|8=FIX.4.4|9=112|35=0|34=9|49=demo.ctrader.3873996|50=3873996Z26fKAX_lXtetMN4Pepo0Q|52=20231219-09:26:44.219|56=cServer|57=TRADE|10=232|8=FIX.4.4|9=113|35=0|34=10|49=demo.ctrader.3873996|50=3873996Z26fKAX_lXtetMN4Pepo0Q|52=20231219-09:27:15.227|56=cServer|57=TRADE|10=015|8=FIX.4.4|9=113|35=0|34=11|49=demo.ctrader.3873996|50=3873996Z26fKAX_lXtetMN4Pepo0Q|52=20231219-09:27:45.359|56=cServer|57=TRADE|10=025|8=FIX.4.4|9=113|35=0|34=12|49=demo.ctrader.3873996|50=3873996Z26fKAX_lXtetMN4Pepo0Q|52=20231219-09:28:15.490|56=cServer|57=TRADE|10=020|8=FIX.4.4|9=113|35=0|34=13|49=demo.ctrader.3873996|50=3873996Z26fKAX_lXtetMN4Pepo0Q|52=20231219-09:28:46.341|56=cServer|57=TRADE|10=020|8=FIX.4.4|9=113|35=0|34=14|49=demo.ctrader.3873996|50=3873996Z26fKAX_lXtetMN4Pepo0Q|52=20231219-09:29:17.231|56=cServer|57=TRADE|10=018|8=FIX.4.4|9=113|35=0|34=15|49=demo.ctrader.3873996|50=3873996Z26fKAX_lXtetMN4Pepo0Q|52=20231219-09:29:47.249|56=cServer|57=TRADE|10=031|8=FIX.4.4|9=113|35=0|34=16|49=demo.ctrader.3873996|50=3873996Z26fKAX_lXtetMN4Pepo0Q|52=20231219-09:30:17.253|56=cServer|57=TRADE|10=016|8=FIX.4.4|9=113|35=0|34=17|49=demo.ctrader.3873996|50=3873996Z26fKAX_lXtetMN4Pepo0Q|52=20231219-09:30:48.256|56=cServer|57=TRADE|10=024|8=FIX.4.4|9=113|35=0|34=18|49=demo.ctrader.3873996|50=3873996Z26fKAX_lXtetMN4Pepo0Q|52=20231219-09:31:19.248|56=cServer|57=TRADE|10=025|8=FIX.4.4|9=113|35=0|34=19|49=demo.ctrader.3873996|50=3873996Z26fKAX_lXtetMN4Pepo0Q|52=20231219-09:31:49.293|56=cServer|57=TRADE|10=029|8=FIX.4.4|9=113|35=0|34=20|49=demo.ctrader.3873996|50=3873996Z26fKAX_lXtetMN4Pepo0Q|52=20231219-09:32:20.268|56=cServer|57=TRADE|10=013|8=FIX.4.4|9=113|35=0|34=21|49=demo.ctrader.3873996|50=3873996Z26fKAX_lXtetMN4Pepo0Q|52=20231219-09:32:51.274|56=cServer|57=TRADE|10=015|8=FIX.4.4|9=113|35=0|34=22|49=demo.ctrader.3873996|50=3873996Z26fKAX_lXtetMN4Pepo0Q|52=20231219-09:33:21.280|56=cServer|57=TRADE|10=011|8=FIX.4.4|9=113|35=0|34=23|49=demo.ctrader.3873996|50=3873996Z26fKAX_lXtetMN4Pepo0Q|52=20231219-09:33:52.282|56=cServer|57=TRADE|10=018|8=FIX.4.4|9=113|35=0|34=24|49=demo.ctrader.3873996|50=3873996Z26fKAX_lXtetMN4Pepo0Q|52=20231219-09:34:22.284|56=cServer|57=TRADE|10=019|8=FIX.4.4|9=113|35=0|34=25|49=demo.ctrader.3873996|50=3873996Z26fKAX_lXtetMN4Pepo0Q|52=20231219-09:34:53.266|56=cServer|57=TRADE|10=024|