8=FIX.4.4|9=244|35=A|34=1|49=demo.ctrader.3873996|50=3873996xkDBLLvITpDZvA0iqeER8w|52=20231221-15:26:27.275|56=cServer|57=TRADE|49=demo.ctrader.3873996|50=3873996xkDBLLvITpDZvA0iqeER8w|52=20231221-15:26:27|56=cServer|98=0|108=30|141=Y|553=3873996|554=Gtlfx125|10=126|8=FIX.4.4|9=112|35=0|34=2|49=demo.ctrader.3873996|50=3873996xkDBLLvITpDZvA0iqeER8w|52=20231221-15:26:57.853|56=cServer|57=TRADE|10=013|8=FIX.4.4|9=112|35=0|34=3|49=demo.ctrader.3873996|50=3873996xkDBLLvITpDZvA0iqeER8w|52=20231221-15:27:28.134|56=cServer|57=TRADE|10=005|8=FIX.4.4|9=112|35=0|34=4|49=demo.ctrader.3873996|50=3873996xkDBLLvITpDZvA0iqeER8w|52=20231221-15:27:59.138|56=cServer|57=TRADE|10=014|8=FIX.4.4|9=112|35=0|34=5|49=demo.ctrader.3873996|50=3873996xkDBLLvITpDZvA0iqeER8w|52=20231221-15:28:29.241|56=cServer|57=TRADE|10=008|8=FIX.4.4|9=112|35=0|34=6|49=demo.ctrader.3873996|50=3873996xkDBLLvITpDZvA0iqeER8w|52=20231221-15:29:00.139|56=cServer|57=TRADE|10=005|8=FIX.4.4|9=112|35=0|34=7|49=demo.ctrader.3873996|50=3873996xkDBLLvITpDZvA0iqeER8w|52=20231221-15:29:30.222|56=cServer|57=TRADE|10=002|8=FIX.4.4|9=112|35=0|34=8|49=demo.ctrader.3873996|50=3873996xkDBLLvITpDZvA0iqeER8w|52=20231221-15:30:01.147|56=cServer|57=TRADE|10=255|8=FIX.4.4|9=112|35=0|34=9|49=demo.ctrader.3873996|50=3873996xkDBLLvITpDZvA0iqeER8w|52=20231221-15:30:32.156|56=cServer|57=TRADE|10=004|8=FIX.4.4|9=113|35=0|34=10|49=demo.ctrader.3873996|50=3873996xkDBLLvITpDZvA0iqeER8w|52=20231221-15:31:02.182|56=cServer|57=TRADE|10=042|8=FIX.4.4|9=113|35=0|34=11|49=demo.ctrader.3873996|50=3873996xkDBLLvITpDZvA0iqeER8w|52=20231221-15:31:33.160|56=cServer|57=TRADE|10=043|8=FIX.4.4|9=113|35=0|34=12|49=demo.ctrader.3873996|50=3873996xkDBLLvITpDZvA0iqeER8w|52=20231221-15:32:03.235|56=cServer|57=TRADE|10=045|8=FIX.4.4|9=113|35=0|34=13|49=demo.ctrader.3873996|50=3873996xkDBLLvITpDZvA0iqeER8w|52=20231221-15:32:33.245|56=cServer|57=TRADE|10=050|8=FIX.4.4|9=113|35=0|34=14|49=demo.ctrader.3873996|50=3873996xkDBLLvITpDZvA0iqeER8w|52=20231221-15:33:04.160|56=cServer|57=TRADE|10=046|8=FIX.4.4|9=113|35=0|34=15|49=demo.ctrader.3873996|50=3873996xkDBLLvITpDZvA0iqeER8w|52=20231221-15:33:34.187|56=cServer|57=TRADE|10=059|8=FIX.4.4|9=113|35=0|34=16|49=demo.ctrader.3873996|50=3873996xkDBLLvITpDZvA0iqeER8w|52=20231221-15:34:05.171|56=cServer|57=TRADE|10=052|8=FIX.4.4|9=113|35=0|34=17|49=demo.ctrader.3873996|50=3873996xkDBLLvITpDZvA0iqeER8w|52=20231221-15:34:35.229|56=cServer|57=TRADE|10=060|8=FIX.4.4|9=113|35=0|34=18|49=demo.ctrader.3873996|50=3873996xkDBLLvITpDZvA0iqeER8w|52=20231221-15:35:06.199|56=cServer|57=TRADE|10=066|