8=FIX.4.4|9=244|35=A|34=1|49=demo.ctrader.3873996|50=3873996Q3LiXPpGyuMSpY-WmdLSZA|52=20231227-11:17:35.504|56=cServer|57=TRADE|49=demo.ctrader.3873996|50=3873996Q3LiXPpGyuMSpY-WmdLSZA|52=20231227-11:17:35|56=cServer|98=0|108=30|141=Y|553=3873996|554=Gtlfx125|10=091|8=FIX.4.4|9=130|35=x|34=2|49=demo.ctrader.3873996|50=3873996Q3LiXPpGyuMSpY-WmdLSZA|52=20231227-11:17:36.097|56=cServer|57=TRADE|320=symbols|559=0|10=049|8=FIX.4.4|9=127|35=AN|34=3|49=demo.ctrader.3873996|50=3873996Q3LiXPpGyuMSpY-WmdLSZA|52=20231227-11:17:36.365|56=cServer|57=TRADE|710=Positions|10=254|8=FIX.4.4|9=130|35=AF|34=4|49=demo.ctrader.3873996|50=3873996Q3LiXPpGyuMSpY-WmdLSZA|52=20231227-11:17:36.366|56=cServer|57=TRADE|584=Orders|585=7|10=185|8=FIX.4.4|9=112|35=0|34=5|49=demo.ctrader.3873996|50=3873996Q3LiXPpGyuMSpY-WmdLSZA|52=20231227-11:18:06.704|56=cServer|57=TRADE|10=248|8=FIX.4.4|9=112|35=0|34=6|49=demo.ctrader.3873996|50=3873996Q3LiXPpGyuMSpY-WmdLSZA|52=20231227-11:18:36.714|56=cServer|57=TRADE|10=253|8=FIX.4.4|9=112|35=0|34=7|49=demo.ctrader.3873996|50=3873996Q3LiXPpGyuMSpY-WmdLSZA|52=20231227-11:19:07.709|56=cServer|57=TRADE|10=001|8=FIX.4.4|9=112|35=0|34=8|49=demo.ctrader.3873996|50=3873996Q3LiXPpGyuMSpY-WmdLSZA|52=20231227-11:19:37.712|56=cServer|57=TRADE|10=255|8=FIX.4.4|9=112|35=0|34=9|49=demo.ctrader.3873996|50=3873996Q3LiXPpGyuMSpY-WmdLSZA|52=20231227-11:20:08.721|56=cServer|57=TRADE|10=246|8=FIX.4.4|9=113|35=0|34=10|49=demo.ctrader.3873996|50=3873996Q3LiXPpGyuMSpY-WmdLSZA|52=20231227-11:20:39.712|56=cServer|57=TRADE|10=035|8=FIX.4.4|9=113|35=0|34=11|49=demo.ctrader.3873996|50=3873996Q3LiXPpGyuMSpY-WmdLSZA|52=20231227-11:21:09.726|56=cServer|57=TRADE|10=039|8=FIX.4.4|9=113|35=0|34=12|49=demo.ctrader.3873996|50=3873996Q3LiXPpGyuMSpY-WmdLSZA|52=20231227-11:21:40.719|56=cServer|57=TRADE|10=037|8=FIX.4.4|9=113|35=0|34=13|49=demo.ctrader.3873996|50=3873996Q3LiXPpGyuMSpY-WmdLSZA|52=20231227-11:22:10.750|56=cServer|57=TRADE|10=031|8=FIX.4.4|9=113|35=0|34=14|49=demo.ctrader.3873996|50=3873996Q3LiXPpGyuMSpY-WmdLSZA|52=20231227-11:22:41.720|56=cServer|57=TRADE|10=033|8=FIX.4.4|9=113|35=0|34=15|49=demo.ctrader.3873996|50=3873996Q3LiXPpGyuMSpY-WmdLSZA|52=20231227-11:23:11.797|56=cServer|57=TRADE|10=046|8=FIX.4.4|9=113|35=0|34=16|49=demo.ctrader.3873996|50=3873996Q3LiXPpGyuMSpY-WmdLSZA|52=20231227-11:23:42.739|56=cServer|57=TRADE|10=047|8=FIX.4.4|9=113|35=0|34=17|49=demo.ctrader.3873996|50=3873996Q3LiXPpGyuMSpY-WmdLSZA|52=20231227-11:24:12.754|56=cServer|57=TRADE|10=043|8=FIX.4.4|9=113|35=0|34=18|49=demo.ctrader.3873996|50=3873996Q3LiXPpGyuMSpY-WmdLSZA|52=20231227-11:24:42.781|56=cServer|57=TRADE|10=047|8=FIX.4.4|9=113|35=0|34=19|49=demo.ctrader.3873996|50=3873996Q3LiXPpGyuMSpY-WmdLSZA|52=20231227-11:25:13.771|56=cServer|57=TRADE|10=046|8=FIX.4.4|9=113|35=0|34=20|49=demo.ctrader.3873996|50=3873996Q3LiXPpGyuMSpY-WmdLSZA|52=20231227-11:25:43.829|56=cServer|57=TRADE|10=045|8=FIX.4.4|9=113|35=0|34=21|49=demo.ctrader.3873996|50=3873996Q3LiXPpGyuMSpY-WmdLSZA|52=20231227-11:26:14.769|56=cServer|57=TRADE|10=048|