8=FIX.4.4|9=244|35=A|34=1|49=demo.ctrader.3873996|50=3873996M8xJHCr-au7hPiv8IvY4kA|52=20240104-13:54:42.543|56=cServer|57=TRADE|49=demo.ctrader.3873996|50=3873996M8xJHCr-au7hPiv8IvY4kA|52=20240104-13:54:42|56=cServer|98=0|108=30|141=Y|553=3873996|554=Gtlfx125|10=226|8=FIX.4.4|9=130|35=x|34=2|49=demo.ctrader.3873996|50=3873996M8xJHCr-au7hPiv8IvY4kA|52=20240104-13:54:42.999|56=cServer|57=TRADE|320=symbols|559=0|10=253|8=FIX.4.4|9=127|35=AN|34=3|49=demo.ctrader.3873996|50=3873996M8xJHCr-au7hPiv8IvY4kA|52=20240104-13:54:43.248|56=cServer|57=TRADE|710=Positions|10=192|8=FIX.4.4|9=130|35=AF|34=4|49=demo.ctrader.3873996|50=3873996M8xJHCr-au7hPiv8IvY4kA|52=20240104-13:54:43.248|56=cServer|57=TRADE|584=Orders|585=7|10=122|8=FIX.4.4|9=127|35=AN|34=5|49=demo.ctrader.3873996|50=3873996M8xJHCr-au7hPiv8IvY4kA|52=20240104-13:55:11.945|56=cServer|57=TRADE|710=Positions|10=194|8=FIX.4.4|9=112|35=0|34=6|49=demo.ctrader.3873996|50=3873996M8xJHCr-au7hPiv8IvY4kA|52=20240104-13:55:42.493|56=cServer|57=TRADE|10=194|8=FIX.4.4|9=112|35=0|34=7|49=demo.ctrader.3873996|50=3873996M8xJHCr-au7hPiv8IvY4kA|52=20240104-13:56:12.792|56=cServer|57=TRADE|10=195|8=FIX.4.4|9=112|35=0|34=8|49=demo.ctrader.3873996|50=3873996M8xJHCr-au7hPiv8IvY4kA|52=20240104-13:56:42.942|56=cServer|57=TRADE|10=196|8=FIX.4.4|9=112|35=0|34=9|49=demo.ctrader.3873996|50=3873996M8xJHCr-au7hPiv8IvY4kA|52=20240104-13:57:13.941|56=cServer|57=TRADE|10=195|8=FIX.4.4|9=113|35=0|34=10|49=demo.ctrader.3873996|50=3873996M8xJHCr-au7hPiv8IvY4kA|52=20240104-13:57:43.957|56=cServer|57=TRADE|10=246|8=FIX.4.4|9=113|35=0|34=11|49=demo.ctrader.3873996|50=3873996M8xJHCr-au7hPiv8IvY4kA|52=20240104-13:58:14.969|56=cServer|57=TRADE|10=249|8=FIX.4.4|9=113|35=0|34=12|49=demo.ctrader.3873996|50=3873996M8xJHCr-au7hPiv8IvY4kA|52=20240104-13:58:45.034|56=cServer|57=TRADE|10=237|8=FIX.4.4|9=113|35=0|34=13|49=demo.ctrader.3873996|50=3873996M8xJHCr-au7hPiv8IvY4kA|52=20240104-13:59:15.951|56=cServer|57=TRADE|10=244|8=FIX.4.4|9=113|35=0|34=14|49=demo.ctrader.3873996|50=3873996M8xJHCr-au7hPiv8IvY4kA|52=20240104-13:59:45.958|56=cServer|57=TRADE|10=255|8=FIX.4.4|9=113|35=0|34=15|49=demo.ctrader.3873996|50=3873996M8xJHCr-au7hPiv8IvY4kA|52=20240104-14:00:15.963|56=cServer|57=TRADE|10=236|8=FIX.4.4|9=113|35=0|34=16|49=demo.ctrader.3873996|50=3873996M8xJHCr-au7hPiv8IvY4kA|52=20240104-14:00:45.974|56=cServer|57=TRADE|10=242|8=FIX.4.4|9=113|35=0|34=17|49=demo.ctrader.3873996|50=3873996M8xJHCr-au7hPiv8IvY4kA|52=20240104-14:01:16.966|56=cServer|57=TRADE|10=243|8=FIX.4.4|9=113|35=0|34=18|49=demo.ctrader.3873996|50=3873996M8xJHCr-au7hPiv8IvY4kA|52=20240104-14:01:46.979|56=cServer|57=TRADE|10=251|8=FIX.4.4|9=113|35=0|34=19|49=demo.ctrader.3873996|50=3873996M8xJHCr-au7hPiv8IvY4kA|52=20240104-14:02:17.978|56=cServer|57=TRADE|10=250|8=FIX.4.4|9=113|35=0|34=20|49=demo.ctrader.3873996|50=3873996M8xJHCr-au7hPiv8IvY4kA|52=20240104-14:02:47.982|56=cServer|57=TRADE|10=240|8=FIX.4.4|9=113|35=0|34=21|49=demo.ctrader.3873996|50=3873996M8xJHCr-au7hPiv8IvY4kA|52=20240104-14:03:18.978|56=cServer|57=TRADE|10=245|8=FIX.4.4|9=113|35=0|34=22|49=demo.ctrader.3873996|50=3873996M8xJHCr-au7hPiv8IvY4kA|52=20240104-14:03:49.986|56=cServer|57=TRADE|10=249|8=FIX.4.4|9=113|35=0|34=23|49=demo.ctrader.3873996|50=3873996M8xJHCr-au7hPiv8IvY4kA|52=20240104-14:04:19.997|56=cServer|57=TRADE|10=250|8=FIX.4.4|9=113|35=0|34=24|49=demo.ctrader.3873996|50=3873996M8xJHCr-au7hPiv8IvY4kA|52=20240104-14:04:51.006|56=cServer|57=TRADE|10=228|8=FIX.4.4|9=113|35=0|34=25|49=demo.ctrader.3873996|50=3873996M8xJHCr-au7hPiv8IvY4kA|52=20240104-14:05:21.991|56=cServer|57=TRADE|10=240|8=FIX.4.4|9=113|35=0|34=26|49=demo.ctrader.3873996|50=3873996M8xJHCr-au7hPiv8IvY4kA|52=20240104-14:05:52.013|56=cServer|57=TRADE|10=230|8=FIX.4.4|9=113|35=0|34=27|49=demo.ctrader.3873996|50=3873996M8xJHCr-au7hPiv8IvY4kA|52=20240104-14:06:22.018|56=cServer|57=TRADE|10=234|8=FIX.4.4|9=113|35=0|34=28|49=demo.ctrader.3873996|50=3873996M8xJHCr-au7hPiv8IvY4kA|52=20240104-14:06:53.011|56=cServer|57=TRADE|10=232|8=FIX.4.4|9=113|35=0|34=29|49=demo.ctrader.3873996|50=3873996M8xJHCr-au7hPiv8IvY4kA|52=20240104-14:07:23.016|56=cServer|57=TRADE|10=236|8=FIX.4.4|9=113|35=0|34=30|49=demo.ctrader.3873996|50=3873996M8xJHCr-au7hPiv8IvY4kA|52=20240104-14:07:53.064|56=cServer|57=TRADE|10=234|8=FIX.4.4|9=113|35=0|34=31|49=demo.ctrader.3873996|50=3873996M8xJHCr-au7hPiv8IvY4kA|52=20240104-14:08:24.042|56=cServer|57=TRADE|10=230|8=FIX.4.4|9=113|35=0|34=32|49=demo.ctrader.3873996|50=3873996M8xJHCr-au7hPiv8IvY4kA|52=20240104-14:08:54.064|56=cServer|57=TRADE|10=238|8=FIX.4.4|9=113|35=0|34=33|49=demo.ctrader.3873996|50=3873996M8xJHCr-au7hPiv8IvY4kA|52=20240104-14:09:25.023|56=cServer|57=TRADE|10=233|8=FIX.4.4|9=113|35=0|34=34|49=demo.ctrader.3873996|50=3873996M8xJHCr-au7hPiv8IvY4kA|52=20240104-14:09:55.073|56=cServer|57=TRADE|10=242|8=FIX.4.4|9=113|35=0|34=35|49=demo.ctrader.3873996|50=3873996M8xJHCr-au7hPiv8IvY4kA|52=20240104-14:10:25.130|56=cServer|57=TRADE|10=226|8=FIX.4.4|9=227|35=5|34=36|49=demo.ctrader.3873996|50=3873996M8xJHCr-au7hPiv8IvY4kA|52=20240104-14:10:25.863|56=cServer|57=TRADE|49=demo.ctrader.3873996|50=3873996M8xJHCr-au7hPiv8IvY4kA|52=20240104-14:10:25|56=cServer|553=3873996|554=Gtlfx125|10=194|8=FIX.4.4|9=227|35=5|34=37|49=demo.ctrader.3873996|50=3873996M8xJHCr-au7hPiv8IvY4kA|52=20240104-14:10:25.901|56=cServer|57=TRADE|49=demo.ctrader.3873996|50=3873996M8xJHCr-au7hPiv8IvY4kA|52=20240104-14:10:25|56=cServer|553=3873996|554=Gtlfx125|10=188|