8=FIX.4.4|9=244|35=A|34=1|49=demo.ctrader.3873996|50=3873996GoTaA_ccCHju1X4FYp9hRw|52=20231227-10:40:28.597|56=cServer|57=QUOTE|49=demo.ctrader.3873996|50=3873996GoTaA_ccCHju1X4FYp9hRw|52=20231227-10:40:28|56=cServer|98=0|108=30|141=Y|553=3873996|554=Gtlfx125|10=101|8=FIX.4.4|9=112|35=0|34=2|49=demo.ctrader.3873996|50=3873996GoTaA_ccCHju1X4FYp9hRw|52=20231227-10:40:59.024|56=cServer|57=QUOTE|10=003|8=FIX.4.4|9=112|35=0|34=3|49=demo.ctrader.3873996|50=3873996GoTaA_ccCHju1X4FYp9hRw|52=20231227-10:41:29.810|56=cServer|57=QUOTE|10=005|8=FIX.4.4|9=112|35=0|34=4|49=demo.ctrader.3873996|50=3873996GoTaA_ccCHju1X4FYp9hRw|52=20231227-10:42:00.112|56=cServer|57=QUOTE|10=247|8=FIX.4.4|9=112|35=0|34=5|49=demo.ctrader.3873996|50=3873996GoTaA_ccCHju1X4FYp9hRw|52=20231227-10:42:30.822|56=cServer|57=QUOTE|10=003|8=FIX.4.4|9=112|35=0|34=6|49=demo.ctrader.3873996|50=3873996GoTaA_ccCHju1X4FYp9hRw|52=20231227-10:43:01.657|56=cServer|57=QUOTE|10=009|8=FIX.4.4|9=112|35=0|34=7|49=demo.ctrader.3873996|50=3873996GoTaA_ccCHju1X4FYp9hRw|52=20231227-10:43:32.650|56=cServer|57=QUOTE|10=007|8=FIX.4.4|9=112|35=0|34=8|49=demo.ctrader.3873996|50=3873996GoTaA_ccCHju1X4FYp9hRw|52=20231227-10:44:03.657|56=cServer|57=QUOTE|10=014|8=FIX.4.4|9=112|35=0|34=9|49=demo.ctrader.3873996|50=3873996GoTaA_ccCHju1X4FYp9hRw|52=20231227-10:44:34.658|56=cServer|57=QUOTE|10=020|8=FIX.4.4|9=113|35=0|34=10|49=demo.ctrader.3873996|50=3873996GoTaA_ccCHju1X4FYp9hRw|52=20231227-10:45:04.659|56=cServer|57=QUOTE|10=060|8=FIX.4.4|9=113|35=0|34=11|49=demo.ctrader.3873996|50=3873996GoTaA_ccCHju1X4FYp9hRw|52=20231227-10:45:34.705|56=cServer|57=QUOTE|10=056|8=FIX.4.4|9=113|35=0|34=12|49=demo.ctrader.3873996|50=3873996GoTaA_ccCHju1X4FYp9hRw|52=20231227-10:46:05.650|56=cServer|57=QUOTE|10=055|8=FIX.4.4|9=113|35=0|34=13|49=demo.ctrader.3873996|50=3873996GoTaA_ccCHju1X4FYp9hRw|52=20231227-10:46:35.676|56=cServer|57=QUOTE|10=067|