8=FIX.4.4|9=244|35=A|34=1|49=demo.ctrader.3873996|50=3873996ODfMFxr96fSkvv6_qjHYDg|52=20231212-13:08:05.153|56=cServer|57=TRADE|49=demo.ctrader.3873996|50=3873996ODfMFxr96fSkvv6_qjHYDg|52=20231212-13:08:05|56=cServer|98=0|108=30|141=Y|553=3873996|554=Gtlfx125|10=179|8=FIX.4.4|9=130|35=x|34=2|49=demo.ctrader.3873996|50=3873996ODfMFxr96fSkvv6_qjHYDg|52=20231212-13:08:05.595|56=cServer|57=TRADE|320=symbols|559=0|10=095|8=FIX.4.4|9=127|35=AN|34=3|49=demo.ctrader.3873996|50=3873996ODfMFxr96fSkvv6_qjHYDg|52=20231212-13:08:05.846|56=cServer|57=TRADE|710=Positions|10=045|8=FIX.4.4|9=130|35=AF|34=4|49=demo.ctrader.3873996|50=3873996ODfMFxr96fSkvv6_qjHYDg|52=20231212-13:08:05.846|56=cServer|57=TRADE|584=Orders|585=7|10=231|