8=FIX.4.4|9=244|35=A|34=1|49=demo.ctrader.3873996|50=3873996lzt1kL9m1IHIliDTzgPQUA|52=20240104-08:48:02.630|56=cServer|57=QUOTE|49=demo.ctrader.3873996|50=3873996lzt1kL9m1IHIliDTzgPQUA|52=20240104-08:48:02|56=cServer|98=0|108=30|141=Y|553=3873996|554=Gtlfx125|10=105|8=FIX.4.4|9=170|35=V|34=2|49=demo.ctrader.3873996|50=3873996lzt1kL9m1IHIliDTzgPQUA|52=20240104-08:48:03.651|56=cServer|57=QUOTE|262=MARKETDATAID|263=1|264=1|267=2|269=0|269=1|146=1|55=1|10=161|8=FIX.4.4|9=170|35=V|34=3|49=demo.ctrader.3873996|50=3873996lzt1kL9m1IHIliDTzgPQUA|52=20240104-08:48:03.652|56=cServer|57=QUOTE|262=MARKETDATAID|263=1|264=1|267=2|269=0|269=1|146=1|55=2|10=164|8=FIX.4.4|9=170|35=V|34=4|49=demo.ctrader.3873996|50=3873996lzt1kL9m1IHIliDTzgPQUA|52=20240104-08:48:03.652|56=cServer|57=QUOTE|262=MARKETDATAID|263=1|264=1|267=2|269=0|269=1|146=1|55=3|10=166|8=FIX.4.4|9=170|35=V|34=5|49=demo.ctrader.3873996|50=3873996lzt1kL9m1IHIliDTzgPQUA|52=20240104-08:48:03.652|56=cServer|57=QUOTE|262=MARKETDATAID|263=1|264=1|267=2|269=0|269=1|146=1|55=4|10=168|8=FIX.4.4|9=170|35=V|34=6|49=demo.ctrader.3873996|50=3873996lzt1kL9m1IHIliDTzgPQUA|52=20240104-08:48:03.653|56=cServer|57=QUOTE|262=MARKETDATAID|263=1|264=1|267=2|269=0|269=1|146=1|55=5|10=171|8=FIX.4.4|9=170|35=V|34=7|49=demo.ctrader.3873996|50=3873996lzt1kL9m1IHIliDTzgPQUA|52=20240104-08:48:03.653|56=cServer|57=QUOTE|262=MARKETDATAID|263=1|264=1|267=2|269=0|269=1|146=1|55=6|10=173|8=FIX.4.4|9=170|35=V|34=8|49=demo.ctrader.3873996|50=3873996lzt1kL9m1IHIliDTzgPQUA|52=20240104-08:48:03.653|56=cServer|57=QUOTE|262=MARKETDATAID|263=1|264=1|267=2|269=0|269=1|146=1|55=7|10=175|8=FIX.4.4|9=170|35=V|34=9|49=demo.ctrader.3873996|50=3873996lzt1kL9m1IHIliDTzgPQUA|52=20240104-08:48:03.653|56=cServer|57=QUOTE|262=MARKETDATAID|263=1|264=1|267=2|269=0|269=1|146=1|55=8|10=177|8=FIX.4.4|9=171|35=V|34=10|49=demo.ctrader.3873996|50=3873996lzt1kL9m1IHIliDTzgPQUA|52=20240104-08:48:03.653|56=cServer|57=QUOTE|262=MARKETDATAID|263=1|264=1|267=2|269=0|269=1|146=1|55=9|10=219|8=FIX.4.4|9=172|35=V|34=11|49=demo.ctrader.3873996|50=3873996lzt1kL9m1IHIliDTzgPQUA|52=20240104-08:48:03.653|56=cServer|57=QUOTE|262=MARKETDATAID|263=1|264=1|267=2|269=0|269=1|146=1|55=10|10=005|8=FIX.4.4|9=172|35=V|34=12|49=demo.ctrader.3873996|50=3873996lzt1kL9m1IHIliDTzgPQUA|52=20240104-08:48:03.653|56=cServer|57=QUOTE|262=MARKETDATAID|263=1|264=1|267=2|269=0|269=1|146=1|55=11|10=007|8=FIX.4.4|9=172|35=V|34=13|49=demo.ctrader.3873996|50=3873996lzt1kL9m1IHIliDTzgPQUA|52=20240104-08:48:03.654|56=cServer|57=QUOTE|262=MARKETDATAID|263=1|264=1|267=2|269=0|269=1|146=1|55=12|10=010|8=FIX.4.4|9=172|35=V|34=14|49=demo.ctrader.3873996|50=3873996lzt1kL9m1IHIliDTzgPQUA|52=20240104-08:48:03.654|56=cServer|57=QUOTE|262=MARKETDATAID|263=1|264=1|267=2|269=0|269=1|146=1|55=13|10=012|8=FIX.4.4|9=172|35=V|34=15|49=demo.ctrader.3873996|50=3873996lzt1kL9m1IHIliDTzgPQUA|52=20240104-08:48:03.654|56=cServer|57=QUOTE|262=MARKETDATAID|263=1|264=1|267=2|269=0|269=1|146=1|55=14|10=014|8=FIX.4.4|9=172|35=V|34=16|49=demo.ctrader.3873996|50=3873996lzt1kL9m1IHIliDTzgPQUA|52=20240104-08:48:03.655|56=cServer|57=QUOTE|262=MARKETDATAID|263=1|264=1|267=2|269=0|269=1|146=1|55=15|10=017|8=FIX.4.4|9=172|35=V|34=17|49=demo.ctrader.3873996|50=3873996lzt1kL9m1IHIliDTzgPQUA|52=20240104-08:48:03.655|56=cServer|57=QUOTE|262=MARKETDATAID|263=1|264=1|267=2|269=0|269=1|146=1|55=16|10=019|8=FIX.4.4|9=172|35=V|34=18|49=demo.ctrader.3873996|50=3873996lzt1kL9m1IHIliDTzgPQUA|52=20240104-08:48:03.655|56=cServer|57=QUOTE|262=MARKETDATAID|263=1|264=1|267=2|269=0|269=1|146=1|55=17|10=021|8=FIX.4.4|9=172|35=V|34=19|49=demo.ctrader.3873996|50=3873996lzt1kL9m1IHIliDTzgPQUA|52=20240104-08:48:03.656|56=cServer|57=QUOTE|262=MARKETDATAID|263=1|264=1|267=2|269=0|269=1|146=1|55=18|10=024|8=FIX.4.4|9=172|35=V|34=20|49=demo.ctrader.3873996|50=3873996lzt1kL9m1IHIliDTzgPQUA|52=20240104-08:48:03.656|56=cServer|57=QUOTE|262=MARKETDATAID|263=1|264=1|267=2|269=0|269=1|146=1|55=19|10=017|8=FIX.4.4|9=172|35=V|34=21|49=demo.ctrader.3873996|50=3873996lzt1kL9m1IHIliDTzgPQUA|52=20240104-08:48:03.656|56=cServer|57=QUOTE|262=MARKETDATAID|263=1|264=1|267=2|269=0|269=1|146=1|55=22|10=012|8=FIX.4.4|9=113|35=0|34=22|49=demo.ctrader.3873996|50=3873996lzt1kL9m1IHIliDTzgPQUA|52=20240104-08:48:34.117|56=cServer|57=QUOTE|10=066|8=FIX.4.4|9=227|35=5|34=23|49=demo.ctrader.3873996|50=3873996lzt1kL9m1IHIliDTzgPQUA|52=20240104-08:48:44.571|56=cServer|57=QUOTE|49=demo.ctrader.3873996|50=3873996lzt1kL9m1IHIliDTzgPQUA|52=20240104-08:48:44|56=cServer|553=3873996|554=Gtlfx125|10=092|