8=FIX.4.4|9=244|35=A|34=1|49=demo.ctrader.3873996|50=3873996f6PZ6IIgDTlIhQpx0nmqUQ|52=20231227-11:56:54.874|56=cServer|57=QUOTE|49=demo.ctrader.3873996|50=3873996f6PZ6IIgDTlIhQpx0nmqUQ|52=20231227-11:56:54|56=cServer|98=0|108=30|141=Y|553=3873996|554=Gtlfx125|10=153|8=FIX.4.4|9=170|35=V|34=2|49=demo.ctrader.3873996|50=3873996f6PZ6IIgDTlIhQpx0nmqUQ|52=20231227-11:56:55.638|56=cServer|57=QUOTE|262=MARKETDATAID|263=1|264=1|267=2|269=0|269=1|146=1|55=1|10=185|8=FIX.4.4|9=170|35=V|34=3|49=demo.ctrader.3873996|50=3873996f6PZ6IIgDTlIhQpx0nmqUQ|52=20231227-11:56:55.638|56=cServer|57=QUOTE|262=MARKETDATAID|263=1|264=1|267=2|269=0|269=1|146=1|55=2|10=187|8=FIX.4.4|9=170|35=V|34=4|49=demo.ctrader.3873996|50=3873996f6PZ6IIgDTlIhQpx0nmqUQ|52=20231227-11:56:55.639|56=cServer|57=QUOTE|262=MARKETDATAID|263=1|264=1|267=2|269=0|269=1|146=1|55=3|10=190|8=FIX.4.4|9=170|35=V|34=5|49=demo.ctrader.3873996|50=3873996f6PZ6IIgDTlIhQpx0nmqUQ|52=20231227-11:56:55.639|56=cServer|57=QUOTE|262=MARKETDATAID|263=1|264=1|267=2|269=0|269=1|146=1|55=4|10=192|8=FIX.4.4|9=170|35=V|34=6|49=demo.ctrader.3873996|50=3873996f6PZ6IIgDTlIhQpx0nmqUQ|52=20231227-11:56:55.639|56=cServer|57=QUOTE|262=MARKETDATAID|263=1|264=1|267=2|269=0|269=1|146=1|55=5|10=194|8=FIX.4.4|9=170|35=V|34=7|49=demo.ctrader.3873996|50=3873996f6PZ6IIgDTlIhQpx0nmqUQ|52=20231227-11:56:55.640|56=cServer|57=QUOTE|262=MARKETDATAID|263=1|264=1|267=2|269=0|269=1|146=1|55=6|10=188|8=FIX.4.4|9=170|35=V|34=8|49=demo.ctrader.3873996|50=3873996f6PZ6IIgDTlIhQpx0nmqUQ|52=20231227-11:56:55.640|56=cServer|57=QUOTE|262=MARKETDATAID|263=1|264=1|267=2|269=0|269=1|146=1|55=7|10=190|8=FIX.4.4|9=170|35=V|34=9|49=demo.ctrader.3873996|50=3873996f6PZ6IIgDTlIhQpx0nmqUQ|52=20231227-11:56:55.640|56=cServer|57=QUOTE|262=MARKETDATAID|263=1|264=1|267=2|269=0|269=1|146=1|55=8|10=192|8=FIX.4.4|9=171|35=V|34=10|49=demo.ctrader.3873996|50=3873996f6PZ6IIgDTlIhQpx0nmqUQ|52=20231227-11:56:55.640|56=cServer|57=QUOTE|262=MARKETDATAID|263=1|264=1|267=2|269=0|269=1|146=1|55=9|10=234|8=FIX.4.4|9=172|35=V|34=11|49=demo.ctrader.3873996|50=3873996f6PZ6IIgDTlIhQpx0nmqUQ|52=20231227-11:56:55.640|56=cServer|57=QUOTE|262=MARKETDATAID|263=1|264=1|267=2|269=0|269=1|146=1|55=10|10=020|8=FIX.4.4|9=172|35=V|34=12|49=demo.ctrader.3873996|50=3873996f6PZ6IIgDTlIhQpx0nmqUQ|52=20231227-11:56:55.640|56=cServer|57=QUOTE|262=MARKETDATAID|263=1|264=1|267=2|269=0|269=1|146=1|55=11|10=022|8=FIX.4.4|9=172|35=V|34=13|49=demo.ctrader.3873996|50=3873996f6PZ6IIgDTlIhQpx0nmqUQ|52=20231227-11:56:55.640|56=cServer|57=QUOTE|262=MARKETDATAID|263=1|264=1|267=2|269=0|269=1|146=1|55=12|10=024|8=FIX.4.4|9=172|35=V|34=14|49=demo.ctrader.3873996|50=3873996f6PZ6IIgDTlIhQpx0nmqUQ|52=20231227-11:56:55.640|56=cServer|57=QUOTE|262=MARKETDATAID|263=1|264=1|267=2|269=0|269=1|146=1|55=13|10=026|8=FIX.4.4|9=172|35=V|34=15|49=demo.ctrader.3873996|50=3873996f6PZ6IIgDTlIhQpx0nmqUQ|52=20231227-11:56:55.640|56=cServer|57=QUOTE|262=MARKETDATAID|263=1|264=1|267=2|269=0|269=1|146=1|55=14|10=028|8=FIX.4.4|9=172|35=V|34=16|49=demo.ctrader.3873996|50=3873996f6PZ6IIgDTlIhQpx0nmqUQ|52=20231227-11:56:55.640|56=cServer|57=QUOTE|262=MARKETDATAID|263=1|264=1|267=2|269=0|269=1|146=1|55=15|10=030|8=FIX.4.4|9=172|35=V|34=17|49=demo.ctrader.3873996|50=3873996f6PZ6IIgDTlIhQpx0nmqUQ|52=20231227-11:56:55.640|56=cServer|57=QUOTE|262=MARKETDATAID|263=1|264=1|267=2|269=0|269=1|146=1|55=16|10=032|8=FIX.4.4|9=172|35=V|34=18|49=demo.ctrader.3873996|50=3873996f6PZ6IIgDTlIhQpx0nmqUQ|52=20231227-11:56:55.640|56=cServer|57=QUOTE|262=MARKETDATAID|263=1|264=1|267=2|269=0|269=1|146=1|55=17|10=034|8=FIX.4.4|9=172|35=V|34=19|49=demo.ctrader.3873996|50=3873996f6PZ6IIgDTlIhQpx0nmqUQ|52=20231227-11:56:55.641|56=cServer|57=QUOTE|262=MARKETDATAID|263=1|264=1|267=2|269=0|269=1|146=1|55=18|10=037|8=FIX.4.4|9=172|35=V|34=20|49=demo.ctrader.3873996|50=3873996f6PZ6IIgDTlIhQpx0nmqUQ|52=20231227-11:56:55.641|56=cServer|57=QUOTE|262=MARKETDATAID|263=1|264=1|267=2|269=0|269=1|146=1|55=19|10=030|8=FIX.4.4|9=172|35=V|34=21|49=demo.ctrader.3873996|50=3873996f6PZ6IIgDTlIhQpx0nmqUQ|52=20231227-11:56:55.641|56=cServer|57=QUOTE|262=MARKETDATAID|263=1|264=1|267=2|269=0|269=1|146=1|55=22|10=025|8=FIX.4.4|9=113|35=0|34=22|49=demo.ctrader.3873996|50=3873996f6PZ6IIgDTlIhQpx0nmqUQ|52=20231227-11:57:25.677|56=cServer|57=QUOTE|10=090|8=FIX.4.4|9=113|35=0|34=23|49=demo.ctrader.3873996|50=3873996f6PZ6IIgDTlIhQpx0nmqUQ|52=20231227-11:57:55.704|56=cServer|57=QUOTE|10=085|8=FIX.4.4|9=113|35=0|34=24|49=demo.ctrader.3873996|50=3873996f6PZ6IIgDTlIhQpx0nmqUQ|52=20231227-11:58:25.718|56=cServer|57=QUOTE|10=089|