8=FIX.4.4|9=244|35=A|34=1|49=demo.ctrader.3873996|50=3873996Ng0KJ-K244KRPqJ7kFOUeQ|52=20231226-10:28:17.658|56=cServer|57=QUOTE|49=demo.ctrader.3873996|50=3873996Ng0KJ-K244KRPqJ7kFOUeQ|52=20231226-10:28:17|56=cServer|98=0|108=30|141=Y|553=3873996|554=Gtlfx125|10=115|8=FIX.4.4|9=170|35=V|34=2|49=demo.ctrader.3873996|50=3873996Ng0KJ-K244KRPqJ7kFOUeQ|52=20231226-10:28:19.061|56=cServer|57=QUOTE|262=MARKETDATAID|263=1|264=1|267=2|269=0|269=1|146=1|55=1|10=157|8=FIX.4.4|9=170|35=V|34=3|49=demo.ctrader.3873996|50=3873996Ng0KJ-K244KRPqJ7kFOUeQ|52=20231226-10:28:19.062|56=cServer|57=QUOTE|262=MARKETDATAID|263=1|264=1|267=2|269=0|269=1|146=1|55=2|10=160|8=FIX.4.4|9=170|35=V|34=4|49=demo.ctrader.3873996|50=3873996Ng0KJ-K244KRPqJ7kFOUeQ|52=20231226-10:28:19.063|56=cServer|57=QUOTE|262=MARKETDATAID|263=1|264=1|267=2|269=0|269=1|146=1|55=3|10=163|8=FIX.4.4|9=170|35=V|34=5|49=demo.ctrader.3873996|50=3873996Ng0KJ-K244KRPqJ7kFOUeQ|52=20231226-10:28:19.063|56=cServer|57=QUOTE|262=MARKETDATAID|263=1|264=1|267=2|269=0|269=1|146=1|55=4|10=165|8=FIX.4.4|9=170|35=V|34=6|49=demo.ctrader.3873996|50=3873996Ng0KJ-K244KRPqJ7kFOUeQ|52=20231226-10:28:19.063|56=cServer|57=QUOTE|262=MARKETDATAID|263=1|264=1|267=2|269=0|269=1|146=1|55=5|10=167|8=FIX.4.4|9=170|35=V|34=7|49=demo.ctrader.3873996|50=3873996Ng0KJ-K244KRPqJ7kFOUeQ|52=20231226-10:28:19.063|56=cServer|57=QUOTE|262=MARKETDATAID|263=1|264=1|267=2|269=0|269=1|146=1|55=6|10=169|8=FIX.4.4|9=170|35=V|34=8|49=demo.ctrader.3873996|50=3873996Ng0KJ-K244KRPqJ7kFOUeQ|52=20231226-10:28:19.063|56=cServer|57=QUOTE|262=MARKETDATAID|263=1|264=1|267=2|269=0|269=1|146=1|55=7|10=171|8=FIX.4.4|9=170|35=V|34=9|49=demo.ctrader.3873996|50=3873996Ng0KJ-K244KRPqJ7kFOUeQ|52=20231226-10:28:19.063|56=cServer|57=QUOTE|262=MARKETDATAID|263=1|264=1|267=2|269=0|269=1|146=1|55=8|10=173|8=FIX.4.4|9=171|35=V|34=10|49=demo.ctrader.3873996|50=3873996Ng0KJ-K244KRPqJ7kFOUeQ|52=20231226-10:28:19.064|56=cServer|57=QUOTE|262=MARKETDATAID|263=1|264=1|267=2|269=0|269=1|146=1|55=9|10=216|8=FIX.4.4|9=172|35=V|34=11|49=demo.ctrader.3873996|50=3873996Ng0KJ-K244KRPqJ7kFOUeQ|52=20231226-10:28:19.064|56=cServer|57=QUOTE|262=MARKETDATAID|263=1|264=1|267=2|269=0|269=1|146=1|55=10|10=002|8=FIX.4.4|9=172|35=V|34=12|49=demo.ctrader.3873996|50=3873996Ng0KJ-K244KRPqJ7kFOUeQ|52=20231226-10:28:19.064|56=cServer|57=QUOTE|262=MARKETDATAID|263=1|264=1|267=2|269=0|269=1|146=1|55=11|10=004|8=FIX.4.4|9=172|35=V|34=13|49=demo.ctrader.3873996|50=3873996Ng0KJ-K244KRPqJ7kFOUeQ|52=20231226-10:28:19.064|56=cServer|57=QUOTE|262=MARKETDATAID|263=1|264=1|267=2|269=0|269=1|146=1|55=12|10=006|8=FIX.4.4|9=172|35=V|34=14|49=demo.ctrader.3873996|50=3873996Ng0KJ-K244KRPqJ7kFOUeQ|52=20231226-10:28:19.064|56=cServer|57=QUOTE|262=MARKETDATAID|263=1|264=1|267=2|269=0|269=1|146=1|55=13|10=008|8=FIX.4.4|9=172|35=V|34=15|49=demo.ctrader.3873996|50=3873996Ng0KJ-K244KRPqJ7kFOUeQ|52=20231226-10:28:19.064|56=cServer|57=QUOTE|262=MARKETDATAID|263=1|264=1|267=2|269=0|269=1|146=1|55=14|10=010|8=FIX.4.4|9=172|35=V|34=16|49=demo.ctrader.3873996|50=3873996Ng0KJ-K244KRPqJ7kFOUeQ|52=20231226-10:28:19.064|56=cServer|57=QUOTE|262=MARKETDATAID|263=1|264=1|267=2|269=0|269=1|146=1|55=15|10=012|8=FIX.4.4|9=172|35=V|34=17|49=demo.ctrader.3873996|50=3873996Ng0KJ-K244KRPqJ7kFOUeQ|52=20231226-10:28:19.065|56=cServer|57=QUOTE|262=MARKETDATAID|263=1|264=1|267=2|269=0|269=1|146=1|55=16|10=015|8=FIX.4.4|9=172|35=V|34=18|49=demo.ctrader.3873996|50=3873996Ng0KJ-K244KRPqJ7kFOUeQ|52=20231226-10:28:19.065|56=cServer|57=QUOTE|262=MARKETDATAID|263=1|264=1|267=2|269=0|269=1|146=1|55=17|10=017|8=FIX.4.4|9=172|35=V|34=19|49=demo.ctrader.3873996|50=3873996Ng0KJ-K244KRPqJ7kFOUeQ|52=20231226-10:28:19.065|56=cServer|57=QUOTE|262=MARKETDATAID|263=1|264=1|267=2|269=0|269=1|146=1|55=18|10=019|8=FIX.4.4|9=172|35=V|34=20|49=demo.ctrader.3873996|50=3873996Ng0KJ-K244KRPqJ7kFOUeQ|52=20231226-10:28:19.065|56=cServer|57=QUOTE|262=MARKETDATAID|263=1|264=1|267=2|269=0|269=1|146=1|55=19|10=012|8=FIX.4.4|9=172|35=V|34=21|49=demo.ctrader.3873996|50=3873996Ng0KJ-K244KRPqJ7kFOUeQ|52=20231226-10:28:19.065|56=cServer|57=QUOTE|262=MARKETDATAID|263=1|264=1|267=2|269=0|269=1|146=1|55=22|10=007|8=FIX.4.4|9=113|35=0|34=22|49=demo.ctrader.3873996|50=3873996Ng0KJ-K244KRPqJ7kFOUeQ|52=20231226-10:28:49.468|56=cServer|57=QUOTE|10=075|8=FIX.4.4|9=113|35=0|34=23|49=demo.ctrader.3873996|50=3873996Ng0KJ-K244KRPqJ7kFOUeQ|52=20231226-10:29:19.549|56=cServer|57=QUOTE|10=074|8=FIX.4.4|9=113|35=0|34=24|49=demo.ctrader.3873996|50=3873996Ng0KJ-K244KRPqJ7kFOUeQ|52=20231226-10:29:49.597|56=cServer|57=QUOTE|10=081|8=FIX.4.4|9=113|35=0|34=25|49=demo.ctrader.3873996|50=3873996Ng0KJ-K244KRPqJ7kFOUeQ|52=20231226-10:30:19.710|56=cServer|57=QUOTE|10=058|8=FIX.4.4|9=113|35=0|34=26|49=demo.ctrader.3873996|50=3873996Ng0KJ-K244KRPqJ7kFOUeQ|52=20231226-10:30:50.019|56=cServer|57=QUOTE|10=056|8=FIX.4.4|9=113|35=0|34=27|49=demo.ctrader.3873996|50=3873996Ng0KJ-K244KRPqJ7kFOUeQ|52=20231226-10:31:20.243|56=cServer|57=QUOTE|10=054|8=FIX.4.4|9=113|35=0|34=28|49=demo.ctrader.3873996|50=3873996Ng0KJ-K244KRPqJ7kFOUeQ|52=20231226-10:31:50.341|56=cServer|57=QUOTE|10=057|8=FIX.4.4|9=113|35=0|34=29|49=demo.ctrader.3873996|50=3873996Ng0KJ-K244KRPqJ7kFOUeQ|52=20231226-10:32:20.412|56=cServer|57=QUOTE|10=055|8=FIX.4.4|9=113|35=0|34=30|49=demo.ctrader.3873996|50=3873996Ng0KJ-K244KRPqJ7kFOUeQ|52=20231226-10:32:50.430|56=cServer|57=QUOTE|10=050|8=FIX.4.4|9=113|35=0|34=31|49=demo.ctrader.3873996|50=3873996Ng0KJ-K244KRPqJ7kFOUeQ|52=20231226-10:33:20.684|56=cServer|57=QUOTE|10=060|