8=FIX.4.4|9=244|35=A|34=1|49=demo.ctrader.3873996|50=3873996WHSeQLyZefh9X7uUgfn7ew|52=20231226-08:00:54.127|56=cServer|57=TRADE|49=demo.ctrader.3873996|50=3873996WHSeQLyZefh9X7uUgfn7ew|52=20231226-08:00:54|56=cServer|98=0|108=30|141=Y|553=3873996|554=Gtlfx125|10=016|8=FIX.4.4|9=130|35=x|34=2|49=demo.ctrader.3873996|50=3873996WHSeQLyZefh9X7uUgfn7ew|52=20231226-08:00:54.713|56=cServer|57=TRADE|320=symbols|559=0|10=133|8=FIX.4.4|9=127|35=AN|34=3|49=demo.ctrader.3873996|50=3873996WHSeQLyZefh9X7uUgfn7ew|52=20231226-08:00:55.064|56=cServer|57=TRADE|710=Positions|10=084|8=FIX.4.4|9=130|35=AF|34=4|49=demo.ctrader.3873996|50=3873996WHSeQLyZefh9X7uUgfn7ew|52=20231226-08:00:55.064|56=cServer|57=TRADE|584=Orders|585=7|10=014|8=FIX.4.4|9=112|35=0|34=5|49=demo.ctrader.3873996|50=3873996WHSeQLyZefh9X7uUgfn7ew|52=20231226-08:01:25.194|56=cServer|57=TRADE|10=085|8=FIX.4.4|9=112|35=0|34=6|49=demo.ctrader.3873996|50=3873996WHSeQLyZefh9X7uUgfn7ew|52=20231226-08:01:55.763|56=cServer|57=TRADE|10=091|