8=FIX.4.4|9=244|35=A|34=1|49=demo.ctrader.3873996|50=38739963bkpHl1u5LxUzNNIfIzOhw|52=20240104-09:01:20.609|56=cServer|57=QUOTE|49=demo.ctrader.3873996|50=38739963bkpHl1u5LxUzNNIfIzOhw|52=20240104-09:01:20|56=cServer|98=0|108=30|141=Y|553=3873996|554=Gtlfx125|10=007|8=FIX.4.4|9=170|35=V|34=2|49=demo.ctrader.3873996|50=38739963bkpHl1u5LxUzNNIfIzOhw|52=20240104-09:01:21.591|56=cServer|57=QUOTE|262=MARKETDATAID|263=1|264=1|267=2|269=0|269=1|146=1|55=1|10=240|8=FIX.4.4|9=170|35=V|34=3|49=demo.ctrader.3873996|50=38739963bkpHl1u5LxUzNNIfIzOhw|52=20240104-09:01:21.592|56=cServer|57=QUOTE|262=MARKETDATAID|263=1|264=1|267=2|269=0|269=1|146=1|55=2|10=243|8=FIX.4.4|9=170|35=V|34=4|49=demo.ctrader.3873996|50=38739963bkpHl1u5LxUzNNIfIzOhw|52=20240104-09:01:21.592|56=cServer|57=QUOTE|262=MARKETDATAID|263=1|264=1|267=2|269=0|269=1|146=1|55=3|10=245|8=FIX.4.4|9=170|35=V|34=5|49=demo.ctrader.3873996|50=38739963bkpHl1u5LxUzNNIfIzOhw|52=20240104-09:01:21.592|56=cServer|57=QUOTE|262=MARKETDATAID|263=1|264=1|267=2|269=0|269=1|146=1|55=4|10=247|8=FIX.4.4|9=170|35=V|34=6|49=demo.ctrader.3873996|50=38739963bkpHl1u5LxUzNNIfIzOhw|52=20240104-09:01:21.593|56=cServer|57=QUOTE|262=MARKETDATAID|263=1|264=1|267=2|269=0|269=1|146=1|55=5|10=250|8=FIX.4.4|9=170|35=V|34=7|49=demo.ctrader.3873996|50=38739963bkpHl1u5LxUzNNIfIzOhw|52=20240104-09:01:21.593|56=cServer|57=QUOTE|262=MARKETDATAID|263=1|264=1|267=2|269=0|269=1|146=1|55=6|10=252|8=FIX.4.4|9=170|35=V|34=8|49=demo.ctrader.3873996|50=38739963bkpHl1u5LxUzNNIfIzOhw|52=20240104-09:01:21.593|56=cServer|57=QUOTE|262=MARKETDATAID|263=1|264=1|267=2|269=0|269=1|146=1|55=7|10=254|8=FIX.4.4|9=170|35=V|34=9|49=demo.ctrader.3873996|50=38739963bkpHl1u5LxUzNNIfIzOhw|52=20240104-09:01:21.593|56=cServer|57=QUOTE|262=MARKETDATAID|263=1|264=1|267=2|269=0|269=1|146=1|55=8|10=000|8=FIX.4.4|9=171|35=V|34=10|49=demo.ctrader.3873996|50=38739963bkpHl1u5LxUzNNIfIzOhw|52=20240104-09:01:21.593|56=cServer|57=QUOTE|262=MARKETDATAID|263=1|264=1|267=2|269=0|269=1|146=1|55=9|10=042|8=FIX.4.4|9=172|35=V|34=11|49=demo.ctrader.3873996|50=38739963bkpHl1u5LxUzNNIfIzOhw|52=20240104-09:01:21.593|56=cServer|57=QUOTE|262=MARKETDATAID|263=1|264=1|267=2|269=0|269=1|146=1|55=10|10=084|8=FIX.4.4|9=172|35=V|34=12|49=demo.ctrader.3873996|50=38739963bkpHl1u5LxUzNNIfIzOhw|52=20240104-09:01:21.594|56=cServer|57=QUOTE|262=MARKETDATAID|263=1|264=1|267=2|269=0|269=1|146=1|55=11|10=087|8=FIX.4.4|9=172|35=V|34=13|49=demo.ctrader.3873996|50=38739963bkpHl1u5LxUzNNIfIzOhw|52=20240104-09:01:21.594|56=cServer|57=QUOTE|262=MARKETDATAID|263=1|264=1|267=2|269=0|269=1|146=1|55=12|10=089|8=FIX.4.4|9=172|35=V|34=14|49=demo.ctrader.3873996|50=38739963bkpHl1u5LxUzNNIfIzOhw|52=20240104-09:01:21.594|56=cServer|57=QUOTE|262=MARKETDATAID|263=1|264=1|267=2|269=0|269=1|146=1|55=13|10=091|8=FIX.4.4|9=172|35=V|34=15|49=demo.ctrader.3873996|50=38739963bkpHl1u5LxUzNNIfIzOhw|52=20240104-09:01:21.594|56=cServer|57=QUOTE|262=MARKETDATAID|263=1|264=1|267=2|269=0|269=1|146=1|55=14|10=093|8=FIX.4.4|9=172|35=V|34=16|49=demo.ctrader.3873996|50=38739963bkpHl1u5LxUzNNIfIzOhw|52=20240104-09:01:21.594|56=cServer|57=QUOTE|262=MARKETDATAID|263=1|264=1|267=2|269=0|269=1|146=1|55=15|10=095|8=FIX.4.4|9=172|35=V|34=17|49=demo.ctrader.3873996|50=38739963bkpHl1u5LxUzNNIfIzOhw|52=20240104-09:01:21.594|56=cServer|57=QUOTE|262=MARKETDATAID|263=1|264=1|267=2|269=0|269=1|146=1|55=16|10=097|8=FIX.4.4|9=172|35=V|34=18|49=demo.ctrader.3873996|50=38739963bkpHl1u5LxUzNNIfIzOhw|52=20240104-09:01:21.595|56=cServer|57=QUOTE|262=MARKETDATAID|263=1|264=1|267=2|269=0|269=1|146=1|55=17|10=100|8=FIX.4.4|9=172|35=V|34=19|49=demo.ctrader.3873996|50=38739963bkpHl1u5LxUzNNIfIzOhw|52=20240104-09:01:21.595|56=cServer|57=QUOTE|262=MARKETDATAID|263=1|264=1|267=2|269=0|269=1|146=1|55=18|10=102|8=FIX.4.4|9=172|35=V|34=20|49=demo.ctrader.3873996|50=38739963bkpHl1u5LxUzNNIfIzOhw|52=20240104-09:01:21.595|56=cServer|57=QUOTE|262=MARKETDATAID|263=1|264=1|267=2|269=0|269=1|146=1|55=19|10=095|8=FIX.4.4|9=172|35=V|34=21|49=demo.ctrader.3873996|50=38739963bkpHl1u5LxUzNNIfIzOhw|52=20240104-09:01:21.595|56=cServer|57=QUOTE|262=MARKETDATAID|263=1|264=1|267=2|269=0|269=1|146=1|55=22|10=090|8=FIX.4.4|9=113|35=0|34=22|49=demo.ctrader.3873996|50=38739963bkpHl1u5LxUzNNIfIzOhw|52=20240104-09:01:54.534|56=cServer|57=QUOTE|10=147|8=FIX.4.4|9=113|35=0|34=23|49=demo.ctrader.3873996|50=38739963bkpHl1u5LxUzNNIfIzOhw|52=20240104-09:02:24.607|56=cServer|57=QUOTE|10=147|8=FIX.4.4|9=113|35=0|34=24|49=demo.ctrader.3873996|50=38739963bkpHl1u5LxUzNNIfIzOhw|52=20240104-09:02:54.614|56=cServer|57=QUOTE|10=149|8=FIX.4.4|9=113|35=0|34=25|49=demo.ctrader.3873996|50=38739963bkpHl1u5LxUzNNIfIzOhw|52=20240104-09:03:24.614|56=cServer|57=QUOTE|10=148|