8=FIX.4.4|9=244|35=A|34=1|49=demo.ctrader.3873996|50=3873996eJPxWZeSxkA5oz0fmQrNwQ|52=20231226-07:58:04.743|56=cServer|57=QUOTE|49=demo.ctrader.3873996|50=3873996eJPxWZeSxkA5oz0fmQrNwQ|52=20231226-07:58:04|56=cServer|98=0|108=30|141=Y|553=3873996|554=Gtlfx125|10=136|8=FIX.4.4|9=170|35=V|34=2|49=demo.ctrader.3873996|50=3873996eJPxWZeSxkA5oz0fmQrNwQ|52=20231226-07:58:05.620|56=cServer|57=QUOTE|262=MARKETDATAID|263=1|264=1|267=2|269=0|269=1|146=1|55=1|10=042|8=FIX.4.4|9=170|35=V|34=3|49=demo.ctrader.3873996|50=3873996eJPxWZeSxkA5oz0fmQrNwQ|52=20231226-07:58:05.620|56=cServer|57=QUOTE|262=MARKETDATAID|263=1|264=1|267=2|269=0|269=1|146=1|55=2|10=044|8=FIX.4.4|9=170|35=V|34=4|49=demo.ctrader.3873996|50=3873996eJPxWZeSxkA5oz0fmQrNwQ|52=20231226-07:58:05.621|56=cServer|57=QUOTE|262=MARKETDATAID|263=1|264=1|267=2|269=0|269=1|146=1|55=3|10=047|8=FIX.4.4|9=170|35=V|34=5|49=demo.ctrader.3873996|50=3873996eJPxWZeSxkA5oz0fmQrNwQ|52=20231226-07:58:05.621|56=cServer|57=QUOTE|262=MARKETDATAID|263=1|264=1|267=2|269=0|269=1|146=1|55=4|10=049|8=FIX.4.4|9=170|35=V|34=6|49=demo.ctrader.3873996|50=3873996eJPxWZeSxkA5oz0fmQrNwQ|52=20231226-07:58:05.621|56=cServer|57=QUOTE|262=MARKETDATAID|263=1|264=1|267=2|269=0|269=1|146=1|55=5|10=051|8=FIX.4.4|9=170|35=V|34=7|49=demo.ctrader.3873996|50=3873996eJPxWZeSxkA5oz0fmQrNwQ|52=20231226-07:58:05.621|56=cServer|57=QUOTE|262=MARKETDATAID|263=1|264=1|267=2|269=0|269=1|146=1|55=6|10=053|8=FIX.4.4|9=170|35=V|34=8|49=demo.ctrader.3873996|50=3873996eJPxWZeSxkA5oz0fmQrNwQ|52=20231226-07:58:05.621|56=cServer|57=QUOTE|262=MARKETDATAID|263=1|264=1|267=2|269=0|269=1|146=1|55=7|10=055|8=FIX.4.4|9=170|35=V|34=9|49=demo.ctrader.3873996|50=3873996eJPxWZeSxkA5oz0fmQrNwQ|52=20231226-07:58:05.621|56=cServer|57=QUOTE|262=MARKETDATAID|263=1|264=1|267=2|269=0|269=1|146=1|55=8|10=057|8=FIX.4.4|9=171|35=V|34=10|49=demo.ctrader.3873996|50=3873996eJPxWZeSxkA5oz0fmQrNwQ|52=20231226-07:58:05.621|56=cServer|57=QUOTE|262=MARKETDATAID|263=1|264=1|267=2|269=0|269=1|146=1|55=9|10=099|8=FIX.4.4|9=172|35=V|34=11|49=demo.ctrader.3873996|50=3873996eJPxWZeSxkA5oz0fmQrNwQ|52=20231226-07:58:05.621|56=cServer|57=QUOTE|262=MARKETDATAID|263=1|264=1|267=2|269=0|269=1|146=1|55=10|10=141|8=FIX.4.4|9=172|35=V|34=12|49=demo.ctrader.3873996|50=3873996eJPxWZeSxkA5oz0fmQrNwQ|52=20231226-07:58:05.622|56=cServer|57=QUOTE|262=MARKETDATAID|263=1|264=1|267=2|269=0|269=1|146=1|55=11|10=144|8=FIX.4.4|9=172|35=V|34=13|49=demo.ctrader.3873996|50=3873996eJPxWZeSxkA5oz0fmQrNwQ|52=20231226-07:58:05.622|56=cServer|57=QUOTE|262=MARKETDATAID|263=1|264=1|267=2|269=0|269=1|146=1|55=12|10=146|8=FIX.4.4|9=172|35=V|34=14|49=demo.ctrader.3873996|50=3873996eJPxWZeSxkA5oz0fmQrNwQ|52=20231226-07:58:05.622|56=cServer|57=QUOTE|262=MARKETDATAID|263=1|264=1|267=2|269=0|269=1|146=1|55=13|10=148|8=FIX.4.4|9=172|35=V|34=15|49=demo.ctrader.3873996|50=3873996eJPxWZeSxkA5oz0fmQrNwQ|52=20231226-07:58:05.622|56=cServer|57=QUOTE|262=MARKETDATAID|263=1|264=1|267=2|269=0|269=1|146=1|55=14|10=150|8=FIX.4.4|9=172|35=V|34=16|49=demo.ctrader.3873996|50=3873996eJPxWZeSxkA5oz0fmQrNwQ|52=20231226-07:58:05.622|56=cServer|57=QUOTE|262=MARKETDATAID|263=1|264=1|267=2|269=0|269=1|146=1|55=15|10=152|8=FIX.4.4|9=172|35=V|34=17|49=demo.ctrader.3873996|50=3873996eJPxWZeSxkA5oz0fmQrNwQ|52=20231226-07:58:05.622|56=cServer|57=QUOTE|262=MARKETDATAID|263=1|264=1|267=2|269=0|269=1|146=1|55=16|10=154|8=FIX.4.4|9=172|35=V|34=18|49=demo.ctrader.3873996|50=3873996eJPxWZeSxkA5oz0fmQrNwQ|52=20231226-07:58:05.622|56=cServer|57=QUOTE|262=MARKETDATAID|263=1|264=1|267=2|269=0|269=1|146=1|55=17|10=156|8=FIX.4.4|9=172|35=V|34=19|49=demo.ctrader.3873996|50=3873996eJPxWZeSxkA5oz0fmQrNwQ|52=20231226-07:58:05.622|56=cServer|57=QUOTE|262=MARKETDATAID|263=1|264=1|267=2|269=0|269=1|146=1|55=18|10=158|8=FIX.4.4|9=172|35=V|34=20|49=demo.ctrader.3873996|50=3873996eJPxWZeSxkA5oz0fmQrNwQ|52=20231226-07:58:05.622|56=cServer|57=QUOTE|262=MARKETDATAID|263=1|264=1|267=2|269=0|269=1|146=1|55=19|10=151|8=FIX.4.4|9=172|35=V|34=21|49=demo.ctrader.3873996|50=3873996eJPxWZeSxkA5oz0fmQrNwQ|52=20231226-07:58:05.623|56=cServer|57=QUOTE|262=MARKETDATAID|263=1|264=1|267=2|269=0|269=1|146=1|55=22|10=147|8=FIX.4.4|9=113|35=0|34=22|49=demo.ctrader.3873996|50=3873996eJPxWZeSxkA5oz0fmQrNwQ|52=20231226-07:58:38.093|56=cServer|57=QUOTE|10=212|