8=FIX.4.4|9=244|35=A|34=1|49=demo.ctrader.3873996|50=38739962iyodnlmVPbqPbFNAq4k3w|52=20240104-08:12:23.676|56=cServer|57=TRADE|49=demo.ctrader.3873996|50=38739962iyodnlmVPbqPbFNAq4k3w|52=20240104-08:12:23|56=cServer|98=0|108=30|141=Y|553=3873996|554=Gtlfx125|10=041|8=FIX.4.4|9=130|35=x|34=2|49=demo.ctrader.3873996|50=38739962iyodnlmVPbqPbFNAq4k3w|52=20240104-08:12:24.306|56=cServer|57=TRADE|320=symbols|559=0|10=140|8=FIX.4.4|9=127|35=AN|34=3|49=demo.ctrader.3873996|50=38739962iyodnlmVPbqPbFNAq4k3w|52=20240104-08:12:24.580|56=cServer|57=TRADE|710=Positions|10=095|8=FIX.4.4|9=130|35=AF|34=4|49=demo.ctrader.3873996|50=38739962iyodnlmVPbqPbFNAq4k3w|52=20240104-08:12:24.581|56=cServer|57=TRADE|584=Orders|585=7|10=026|8=FIX.4.4|9=177|35=D|34=5|49=demo.ctrader.3873996|50=38739962iyodnlmVPbqPbFNAq4k3w|52=20240104-08:12:41.075|56=cServer|57=TRADE|11=68421486|38=1000|40=1|54=1|55=1|59=3|60=20240104-13:12:41.074|10=086|8=FIX.4.4|9=127|35=AN|34=6|49=demo.ctrader.3873996|50=38739962iyodnlmVPbqPbFNAq4k3w|52=20240104-08:12:41.519|56=cServer|57=TRADE|710=Positions|10=099|8=FIX.4.4|9=112|35=0|34=7|49=demo.ctrader.3873996|50=38739962iyodnlmVPbqPbFNAq4k3w|52=20240104-08:13:11.934|56=cServer|57=TRADE|10=096|8=FIX.4.4|9=112|35=0|34=8|49=demo.ctrader.3873996|50=38739962iyodnlmVPbqPbFNAq4k3w|52=20240104-08:13:41.957|56=cServer|57=TRADE|10=105|8=FIX.4.4|9=112|35=0|34=9|49=demo.ctrader.3873996|50=38739962iyodnlmVPbqPbFNAq4k3w|52=20240104-08:14:12.967|56=cServer|57=TRADE|10=106|8=FIX.4.4|9=113|35=0|34=10|49=demo.ctrader.3873996|50=38739962iyodnlmVPbqPbFNAq4k3w|52=20240104-08:14:43.971|56=cServer|57=TRADE|10=146|8=FIX.4.4|9=113|35=0|34=11|49=demo.ctrader.3873996|50=38739962iyodnlmVPbqPbFNAq4k3w|52=20240104-08:15:14.966|56=cServer|57=TRADE|10=150|8=FIX.4.4|9=113|35=0|34=12|49=demo.ctrader.3873996|50=38739962iyodnlmVPbqPbFNAq4k3w|52=20240104-08:15:44.982|56=cServer|57=TRADE|10=152|8=FIX.4.4|9=113|35=0|34=13|49=demo.ctrader.3873996|50=38739962iyodnlmVPbqPbFNAq4k3w|52=20240104-08:16:15.982|56=cServer|57=TRADE|10=152|8=FIX.4.4|9=113|35=0|34=14|49=demo.ctrader.3873996|50=38739962iyodnlmVPbqPbFNAq4k3w|52=20240104-08:16:45.995|56=cServer|57=TRADE|10=160|8=FIX.4.4|9=113|35=0|34=15|49=demo.ctrader.3873996|50=38739962iyodnlmVPbqPbFNAq4k3w|52=20240104-08:17:17.001|56=cServer|57=TRADE|10=139|8=FIX.4.4|9=113|35=0|34=16|49=demo.ctrader.3873996|50=38739962iyodnlmVPbqPbFNAq4k3w|52=20240104-08:17:48.007|56=cServer|57=TRADE|10=150|8=FIX.4.4|9=113|35=0|34=17|49=demo.ctrader.3873996|50=38739962iyodnlmVPbqPbFNAq4k3w|52=20240104-08:18:19.009|56=cServer|57=TRADE|10=152|8=FIX.4.4|9=113|35=0|34=18|49=demo.ctrader.3873996|50=38739962iyodnlmVPbqPbFNAq4k3w|52=20240104-08:18:50.009|56=cServer|57=TRADE|10=148|8=FIX.4.4|9=113|35=0|34=19|49=demo.ctrader.3873996|50=38739962iyodnlmVPbqPbFNAq4k3w|52=20240104-08:19:21.003|56=cServer|57=TRADE|10=142|8=FIX.4.4|9=113|35=0|34=20|49=demo.ctrader.3873996|50=38739962iyodnlmVPbqPbFNAq4k3w|52=20240104-08:19:51.006|56=cServer|57=TRADE|10=140|8=FIX.4.4|9=113|35=0|34=21|49=demo.ctrader.3873996|50=38739962iyodnlmVPbqPbFNAq4k3w|52=20240104-08:20:21.053|56=cServer|57=TRADE|10=132|