8=FIX.4.4|9=244|35=A|34=1|49=demo.ctrader.3873996|50=38739966QKUrjidMZH3ENqwcBdLsg|52=20240103-14:58:01.532|56=cServer|57=TRADE|49=demo.ctrader.3873996|50=38739966QKUrjidMZH3ENqwcBdLsg|52=20240103-14:58:01|56=cServer|98=0|108=30|141=Y|553=3873996|554=Gtlfx125|10=140|8=FIX.4.4|9=226|35=5|34=2|49=demo.ctrader.3873996|50=38739966QKUrjidMZH3ENqwcBdLsg|52=20240103-14:58:11.527|56=cServer|57=TRADE|49=demo.ctrader.3873996|50=38739966QKUrjidMZH3ENqwcBdLsg|52=20240103-14:58:11|56=cServer|553=3873996|554=Gtlfx125|10=065|8=FIX.4.4|9=226|35=5|34=3|49=demo.ctrader.3873996|50=38739966QKUrjidMZH3ENqwcBdLsg|52=20240103-14:58:15.836|56=cServer|57=TRADE|49=demo.ctrader.3873996|50=38739966QKUrjidMZH3ENqwcBdLsg|52=20240103-14:58:15|56=cServer|553=3873996|554=Gtlfx125|10=077|