8=FIX.4.4|9=244|35=A|34=1|49=demo.ctrader.3873996|50=3873996xgpnsQHuWlM6bl3zBavIXA|52=20231215-09:18:08.266|56=cServer|57=TRADE|49=demo.ctrader.3873996|50=3873996xgpnsQHuWlM6bl3zBavIXA|52=20231215-09:18:08|56=cServer|98=0|108=30|141=Y|553=3873996|554=Gtlfx125|10=098|8=FIX.4.4|9=130|35=x|34=2|49=demo.ctrader.3873996|50=3873996xgpnsQHuWlM6bl3zBavIXA|52=20231215-09:18:16.021|56=cServer|57=TRADE|320=symbols|559=0|10=163|